{
  "contractName": "ERC721A",
  "abi": [
    {
      "inputs": [
        {
          "internalType": "string",
          "name": "name_",
          "type": "string"
        },
        {
          "internalType": "string",
          "name": "symbol_",
          "type": "string"
        },
        {
          "internalType": "uint256",
          "name": "maxBatchSize_",
          "type": "uint256"
        },
        {
          "internalType": "uint256",
          "name": "collectionSize_",
          "type": "uint256"
        }
      ],
      "stateMutability": "nonpayable",
      "type": "constructor"
    },
    {
      "anonymous": false,
      "inputs": [
        {
          "indexed": true,
          "internalType": "address",
          "name": "owner",
          "type": "address"
        },
        {
          "indexed": true,
          "internalType": "address",
          "name": "approved",
          "type": "address"
        },
        {
          "indexed": true,
          "internalType": "uint256",
          "name": "tokenId",
          "type": "uint256"
        }
      ],
      "name": "Approval",
      "type": "event"
    },
    {
      "anonymous": false,
      "inputs": [
        {
          "indexed": true,
          "internalType": "address",
          "name": "owner",
          "type": "address"
        },
        {
          "indexed": true,
          "internalType": "address",
          "name": "operator",
          "type": "address"
        },
        {
          "indexed": false,
          "internalType": "bool",
          "name": "approved",
          "type": "bool"
        }
      ],
      "name": "ApprovalForAll",
      "type": "event"
    },
    {
      "anonymous": false,
      "inputs": [
        {
          "indexed": true,
          "internalType": "address",
          "name": "from",
          "type": "address"
        },
        {
          "indexed": true,
          "internalType": "address",
          "name": "to",
          "type": "address"
        },
        {
          "indexed": true,
          "internalType": "uint256",
          "name": "tokenId",
          "type": "uint256"
        }
      ],
      "name": "Transfer",
      "type": "event"
    },
    {
      "inputs": [],
      "name": "nextOwnerToExplicitlySet",
      "outputs": [
        {
          "internalType": "uint256",
          "name": "",
          "type": "uint256"
        }
      ],
      "stateMutability": "view",
      "type": "function"
    },
    {
      "inputs": [],
      "name": "totalSupply",
      "outputs": [
        {
          "internalType": "uint256",
          "name": "",
          "type": "uint256"
        }
      ],
      "stateMutability": "view",
      "type": "function"
    },
    {
      "inputs": [
        {
          "internalType": "uint256",
          "name": "index",
          "type": "uint256"
        }
      ],
      "name": "tokenByIndex",
      "outputs": [
        {
          "internalType": "uint256",
          "name": "",
          "type": "uint256"
        }
      ],
      "stateMutability": "view",
      "type": "function"
    },
    {
      "inputs": [
        {
          "internalType": "address",
          "name": "owner",
          "type": "address"
        },
        {
          "internalType": "uint256",
          "name": "index",
          "type": "uint256"
        }
      ],
      "name": "tokenOfOwnerByIndex",
      "outputs": [
        {
          "internalType": "uint256",
          "name": "",
          "type": "uint256"
        }
      ],
      "stateMutability": "view",
      "type": "function"
    },
    {
      "inputs": [
        {
          "internalType": "bytes4",
          "name": "interfaceId",
          "type": "bytes4"
        }
      ],
      "name": "supportsInterface",
      "outputs": [
        {
          "internalType": "bool",
          "name": "",
          "type": "bool"
        }
      ],
      "stateMutability": "view",
      "type": "function"
    },
    {
      "inputs": [
        {
          "internalType": "address",
          "name": "owner",
          "type": "address"
        }
      ],
      "name": "balanceOf",
      "outputs": [
        {
          "internalType": "uint256",
          "name": "",
          "type": "uint256"
        }
      ],
      "stateMutability": "view",
      "type": "function"
    },
    {
      "inputs": [
        {
          "internalType": "uint256",
          "name": "tokenId",
          "type": "uint256"
        }
      ],
      "name": "ownerOf",
      "outputs": [
        {
          "internalType": "address",
          "name": "",
          "type": "address"
        }
      ],
      "stateMutability": "view",
      "type": "function"
    },
    {
      "inputs": [],
      "name": "name",
      "outputs": [
        {
          "internalType": "string",
          "name": "",
          "type": "string"
        }
      ],
      "stateMutability": "view",
      "type": "function"
    },
    {
      "inputs": [],
      "name": "symbol",
      "outputs": [
        {
          "internalType": "string",
          "name": "",
          "type": "string"
        }
      ],
      "stateMutability": "view",
      "type": "function"
    },
    {
      "inputs": [
        {
          "internalType": "uint256",
          "name": "tokenId",
          "type": "uint256"
        }
      ],
      "name": "tokenURI",
      "outputs": [
        {
          "internalType": "string",
          "name": "",
          "type": "string"
        }
      ],
      "stateMutability": "view",
      "type": "function"
    },
    {
      "inputs": [
        {
          "internalType": "address",
          "name": "to",
          "type": "address"
        },
        {
          "internalType": "uint256",
          "name": "tokenId",
          "type": "uint256"
        }
      ],
      "name": "approve",
      "outputs": [],
      "stateMutability": "nonpayable",
      "type": "function"
    },
    {
      "inputs": [
        {
          "internalType": "uint256",
          "name": "tokenId",
          "type": "uint256"
        }
      ],
      "name": "getApproved",
      "outputs": [
        {
          "internalType": "address",
          "name": "",
          "type": "address"
        }
      ],
      "stateMutability": "view",
      "type": "function"
    },
    {
      "inputs": [
        {
          "internalType": "address",
          "name": "operator",
          "type": "address"
        },
        {
          "internalType": "bool",
          "name": "approved",
          "type": "bool"
        }
      ],
      "name": "setApprovalForAll",
      "outputs": [],
      "stateMutability": "nonpayable",
      "type": "function"
    },
    {
      "inputs": [
        {
          "internalType": "address",
          "name": "owner",
          "type": "address"
        },
        {
          "internalType": "address",
          "name": "operator",
          "type": "address"
        }
      ],
      "name": "isApprovedForAll",
      "outputs": [
        {
          "internalType": "bool",
          "name": "",
          "type": "bool"
        }
      ],
      "stateMutability": "view",
      "type": "function"
    },
    {
      "inputs": [
        {
          "internalType": "address",
          "name": "from",
          "type": "address"
        },
        {
          "internalType": "address",
          "name": "to",
          "type": "address"
        },
        {
          "internalType": "uint256",
          "name": "tokenId",
          "type": "uint256"
        }
      ],
      "name": "transferFrom",
      "outputs": [],
      "stateMutability": "nonpayable",
      "type": "function"
    },
    {
      "inputs": [
        {
          "internalType": "address",
          "name": "from",
          "type": "address"
        },
        {
          "internalType": "address",
          "name": "to",
          "type": "address"
        },
        {
          "internalType": "uint256",
          "name": "tokenId",
          "type": "uint256"
        }
      ],
      "name": "safeTransferFrom",
      "outputs": [],
      "stateMutability": "nonpayable",
      "type": "function"
    },
    {
      "inputs": [
        {
          "internalType": "address",
          "name": "from",
          "type": "address"
        },
        {
          "internalType": "address",
          "name": "to",
          "type": "address"
        },
        {
          "internalType": "uint256",
          "name": "tokenId",
          "type": "uint256"
        },
        {
          "internalType": "bytes",
          "name": "_data",
          "type": "bytes"
        }
      ],
      "name": "safeTransferFrom",
      "outputs": [],
      "stateMutability": "nonpayable",
      "type": "function"
    }
  ],
  "bytecode": "0x60c0604052600160005560006007553480156200001b57600080fd5b5060405162003557380380620035578339818101604052810190620000419190620002d9565b6000811162000087576040517f08c379a00000000000000000000000000000000000000000000000000000000081526004016200007e9062000410565b60405180910390fd5b60008211620000cd576040517f08c379a0000000000000000000000000000000000000000000000000000000008152600401620000c490620004a8565b60405180910390fd5b8360019081620000de91906200070b565b508260029081620000f091906200070b565b508160a08181525050806080818152505050505050620007f2565b6000604051905090565b600080fd5b600080fd5b600080fd5b600080fd5b6000601f19601f8301169050919050565b7f4e487b7100000000000000000000000000000000000000000000000000000000600052604160045260246000fd5b620001748262000129565b810181811067ffffffffffffffff821117156200019657620001956200013a565b5b80604052505050565b6000620001ab6200010b565b9050620001b9828262000169565b919050565b600067ffffffffffffffff821115620001dc57620001db6200013a565b5b620001e78262000129565b9050602081019050919050565b60005b8381101562000214578082015181840152602081019050620001f7565b60008484015250505050565b6000620002376200023184620001be565b6200019f565b90508281526020810184848401111562000256576200025562000124565b5b62000263848285620001f4565b509392505050565b600082601f8301126200028357620002826200011f565b5b81516200029584826020860162000220565b91505092915050565b6000819050919050565b620002b3816200029e565b8114620002bf57600080fd5b50565b600081519050620002d381620002a8565b92915050565b60008060008060808587031215620002f657620002f562000115565b5b600085015167ffffffffffffffff8111156200031757620003166200011a565b5b62000325878288016200026b565b945050602085015167ffffffffffffffff8111156200034957620003486200011a565b5b62000357878288016200026b565b93505060406200036a87828801620002c2565b92505060606200037d87828801620002c2565b91505092959194509250565b600082825260208201905092915050565b7f455243373231413a20636f6c6c656374696f6e206d757374206861766520612060008201527f6e6f6e7a65726f20737570706c79000000000000000000000000000000000000602082015250565b6000620003f8602e8362000389565b915062000405826200039a565b604082019050919050565b600060208201905081810360008301526200042b81620003e9565b9050919050565b7f455243373231413a206d61782062617463682073697a65206d7573742062652060008201527f6e6f6e7a65726f00000000000000000000000000000000000000000000000000602082015250565b60006200049060278362000389565b91506200049d8262000432565b604082019050919050565b60006020820190508181036000830152620004c38162000481565b9050919050565b600081519050919050565b7f4e487b7100000000000000000000000000000000000000000000000000000000600052602260045260246000fd5b600060028204905060018216806200051d57607f821691505b602082108103620005335762000532620004d5565b5b50919050565b60008190508160005260206000209050919050565b60006020601f8301049050919050565b600082821b905092915050565b6000600883026200059d7fffffffffffffffffffffffffffffffffffffffffffffffffffffffffffffffff826200055e565b620005a986836200055e565b95508019841693508086168417925050509392505050565b6000819050919050565b6000620005ec620005e6620005e0846200029e565b620005c1565b6200029e565b9050919050565b6000819050919050565b6200060883620005cb565b620006206200061782620005f3565b8484546200056b565b825550505050565b600090565b6200063762000628565b62000644818484620005fd565b505050565b5b818110156200066c57620006606000826200062d565b6001810190506200064a565b5050565b601f821115620006bb57620006858162000539565b62000690846200054e565b81016020851015620006a0578190505b620006b8620006af856200054e565b83018262000649565b50505b505050565b600082821c905092915050565b6000620006e060001984600802620006c0565b1980831691505092915050565b6000620006fb8383620006cd565b9150826002028217905092915050565b6200071682620004ca565b67ffffffffffffffff8111156200073257620007316200013a565b5b6200073e825462000504565b6200074b82828562000670565b600060209050601f8311600181146200078357600084156200076e578287015190505b6200077a8582620006ed565b865550620007ea565b601f198416620007938662000539565b60005b82811015620007bd5784890151825560018201915060208501945060208101905062000796565b86831015620007dd5784890151620007d9601f891682620006cd565b8355505b6001600288020188555050505b505050505050565b60805160a051612d3b6200081c6000396000818161158e01526115b7015260005050612d3b6000f3fe608060405234801561001057600080fd5b506004361061010b5760003560e01c80634f6ccce7116100a2578063a22cb46511610071578063a22cb465146102de578063b88d4fde146102fa578063c87b56dd14610316578063d7224ba014610346578063e985e9c5146103645761010b565b80634f6ccce7146102305780636352211e1461026057806370a082311461029057806395d89b41146102c05761010b565b806318160ddd116100de57806318160ddd146101aa57806323b872dd146101c85780632f745c59146101e457806342842e0e146102145761010b565b806301ffc9a71461011057806306fdde0314610140578063081812fc1461015e578063095ea7b31461018e575b600080fd5b61012a60048036038101906101259190611bd1565b610394565b6040516101379190611c19565b60405180910390f35b6101486104de565b6040516101559190611cc4565b60405180910390f35b61017860048036038101906101739190611d1c565b610570565b6040516101859190611d8a565b60405180910390f35b6101a860048036038101906101a39190611dd1565b6105f5565b005b6101b261070d565b6040516101bf9190611e20565b60405180910390f35b6101e260048036038101906101dd9190611e3b565b610723565b005b6101fe60048036038101906101f99190611dd1565b610733565b60405161020b9190611e20565b60405180910390f35b61022e60048036038101906102299190611e3b565b610932565b005b61024a60048036038101906102459190611d1c565b610952565b6040516102579190611e20565b60405180910390f35b61027a60048036038101906102759190611d1c565b6109a5565b6040516102879190611d8a565b60405180910390f35b6102aa60048036038101906102a59190611e8e565b6109bb565b6040516102b79190611e20565b60405180910390f35b6102c8610aa3565b6040516102d59190611cc4565b60405180910390f35b6102f860048036038101906102f39190611ee7565b610b35565b005b610314600480360381019061030f919061205c565b610cb5565b005b610330600480360381019061032b9190611d1c565b610d11565b60405161033d9190611cc4565b60405180910390f35b61034e610db8565b60405161035b9190611e20565b60405180910390f35b61037e600480360381019061037991906120df565b610dbe565b60405161038b9190611c19565b60405180910390f35b60007f80ac58cd000000000000000000000000000000000000000000000000000000007bffffffffffffffffffffffffffffffffffffffffffffffffffffffff1916827bffffffffffffffffffffffffffffffffffffffffffffffffffffffff1916148061045f57507f5b5e139f000000000000000000000000000000000000000000000000000000007bffffffffffffffffffffffffffffffffffffffffffffffffffffffff1916827bffffffffffffffffffffffffffffffffffffffffffffffffffffffff1916145b806104c757507f780e9d63000000000000000000000000000000000000000000000000000000007bffffffffffffffffffffffffffffffffffffffffffffffffffffffff1916827bffffffffffffffffffffffffffffffffffffffffffffffffffffffff1916145b806104d757506104d682610e52565b5b9050919050565b6060600180546104ed9061214e565b80601f01602080910402602001604051908101604052809291908181526020018280546105199061214e565b80156105665780601f1061053b57610100808354040283529160200191610566565b820191906000526020600020905b81548152906001019060200180831161054957829003601f168201915b5050505050905090565b600061057b82610ebc565b6105ba576040517f08c379a00000000000000000000000000000000000000000000000000000000081526004016105b1906121f1565b60405180910390fd5b6005600083815260200190815260200160002060009054906101000a900473ffffffffffffffffffffffffffffffffffffffff169050919050565b6000610600826109a5565b90508073ffffffffffffffffffffffffffffffffffffffff168373ffffffffffffffffffffffffffffffffffffffff1603610670576040517f08c379a000000000000000000000000000000000000000000000000000000000815260040161066790612283565b60405180910390fd5b8073ffffffffffffffffffffffffffffffffffffffff1661068f610ec9565b73ffffffffffffffffffffffffffffffffffffffff1614806106be57506106bd816106b8610ec9565b610dbe565b5b6106fd576040517f08c379a00000000000000000000000000000000000000000000000000000000081526004016106f490612315565b60405180910390fd5b610708838383610ed1565b505050565b6000600160005461071e9190612364565b905090565b61072e838383610f83565b505050565b600061073e836109bb565b821061077f576040517f08c379a00000000000000000000000000000000000000000000000000000000081526004016107769061240a565b60405180910390fd5b600061078961070d565b90506000806000600190505b8381116108f0576000600360008381526020019081526020016000206040518060400160405290816000820160009054906101000a900473ffffffffffffffffffffffffffffffffffffffff1673ffffffffffffffffffffffffffffffffffffffff1673ffffffffffffffffffffffffffffffffffffffff1681526020016000820160149054906101000a900467ffffffffffffffff1667ffffffffffffffff1667ffffffffffffffff16815250509050600073ffffffffffffffffffffffffffffffffffffffff16816000015173ffffffffffffffffffffffffffffffffffffffff161461088657806000015192505b8773ffffffffffffffffffffffffffffffffffffffff168373ffffffffffffffffffffffffffffffffffffffff16036108dc578684036108cd57819550505050505061092c565b83806108d89061242a565b9450505b5080806108e89061242a565b915050610795565b506040517f08c379a0000000000000000000000000000000000000000000000000000000008152600401610923906124e4565b60405180910390fd5b92915050565b61094d83838360405180602001604052806000815250610cb5565b505050565b600061095c61070d565b821061099d576040517f08c379a000000000000000000000000000000000000000000000000000000000815260040161099490612576565b60405180910390fd5b819050919050565b60006109b08261153a565b600001519050919050565b60008073ffffffffffffffffffffffffffffffffffffffff168273ffffffffffffffffffffffffffffffffffffffff1603610a2b576040517f08c379a0000000000000000000000000000000000000000000000000000000008152600401610a2290612608565b60405180910390fd5b600460008373ffffffffffffffffffffffffffffffffffffffff1673ffffffffffffffffffffffffffffffffffffffff16815260200190815260200160002060000160009054906101000a90046fffffffffffffffffffffffffffffffff166fffffffffffffffffffffffffffffffff169050919050565b606060028054610ab29061214e565b80601f0160208091040260200160405190810160405280929190818152602001828054610ade9061214e565b8015610b2b5780601f10610b0057610100808354040283529160200191610b2b565b820191906000526020600020905b815481529060010190602001808311610b0e57829003601f168201915b5050505050905090565b610b3d610ec9565b73ffffffffffffffffffffffffffffffffffffffff168273ffffffffffffffffffffffffffffffffffffffff1603610baa576040517f08c379a0000000000000000000000000000000000000000000000000000000008152600401610ba190612674565b60405180910390fd5b8060066000610bb7610ec9565b73ffffffffffffffffffffffffffffffffffffffff1673ffffffffffffffffffffffffffffffffffffffff16815260200190815260200160002060008473ffffffffffffffffffffffffffffffffffffffff1673ffffffffffffffffffffffffffffffffffffffff16815260200190815260200160002060006101000a81548160ff0219169083151502179055508173ffffffffffffffffffffffffffffffffffffffff16610c64610ec9565b73ffffffffffffffffffffffffffffffffffffffff167f17307eab39ab6107e8899845ad3d59bd9653f200f220920489ca2b5937696c3183604051610ca99190611c19565b60405180910390a35050565b610cc0848484610f83565b610ccc8484848461173d565b610d0b576040517f08c379a0000000000000000000000000000000000000000000000000000000008152600401610d0290612706565b60405180910390fd5b50505050565b6060610d1c82610ebc565b610d5b576040517f08c379a0000000000000000000000000000000000000000000000000000000008152600401610d5290612798565b60405180910390fd5b6000610d656118c4565b90506000815111610d855760405180602001604052806000815250610db0565b80610d8f846118db565b604051602001610da09291906127f4565b6040516020818303038152906040525b915050919050565b60075481565b6000600660008473ffffffffffffffffffffffffffffffffffffffff1673ffffffffffffffffffffffffffffffffffffffff16815260200190815260200160002060008373ffffffffffffffffffffffffffffffffffffffff1673ffffffffffffffffffffffffffffffffffffffff16815260200190815260200160002060009054906101000a900460ff16905092915050565b60007f01ffc9a7000000000000000000000000000000000000000000000000000000007bffffffffffffffffffffffffffffffffffffffffffffffffffffffff1916827bffffffffffffffffffffffffffffffffffffffffffffffffffffffff1916149050919050565b6000805482109050919050565b600033905090565b826005600084815260200190815260200160002060006101000a81548173ffffffffffffffffffffffffffffffffffffffff021916908373ffffffffffffffffffffffffffffffffffffffff160217905550818373ffffffffffffffffffffffffffffffffffffffff168273ffffffffffffffffffffffffffffffffffffffff167f8c5be1e5ebec7d5bd14f71427d1e84f3dd0314c0f7b2291e5b200ac8c7c3b92560405160405180910390a4505050565b6000610f8e8261153a565b90506000816000015173ffffffffffffffffffffffffffffffffffffffff16610fb5610ec9565b73ffffffffffffffffffffffffffffffffffffffff1614806110115750610fda610ec9565b73ffffffffffffffffffffffffffffffffffffffff16610ff984610570565b73ffffffffffffffffffffffffffffffffffffffff16145b8061102d575061102c8260000151611027610ec9565b610dbe565b5b90508061106f576040517f08c379a00000000000000000000000000000000000000000000000000000000081526004016110669061288a565b60405180910390fd5b8473ffffffffffffffffffffffffffffffffffffffff16826000015173ffffffffffffffffffffffffffffffffffffffff16146110e1576040517f08c379a00000000000000000000000000000000000000000000000000000000081526004016110d89061291c565b60405180910390fd5b600073ffffffffffffffffffffffffffffffffffffffff168473ffffffffffffffffffffffffffffffffffffffff1603611150576040517f08c379a0000000000000000000000000000000000000000000000000000000008152600401611147906129ae565b60405180910390fd5b61115d85858560016119a9565b61116d6000848460000151610ed1565b6001600460008773ffffffffffffffffffffffffffffffffffffffff1673ffffffffffffffffffffffffffffffffffffffff16815260200190815260200160002060000160008282829054906101000a90046fffffffffffffffffffffffffffffffff166111db91906129ea565b92506101000a8154816fffffffffffffffffffffffffffffffff02191690836fffffffffffffffffffffffffffffffff1602179055506001600460008673ffffffffffffffffffffffffffffffffffffffff1673ffffffffffffffffffffffffffffffffffffffff16815260200190815260200160002060000160008282829054906101000a90046fffffffffffffffffffffffffffffffff1661127f9190612a2e565b92506101000a8154816fffffffffffffffffffffffffffffffff02191690836fffffffffffffffffffffffffffffffff16021790555060405180604001604052808573ffffffffffffffffffffffffffffffffffffffff1681526020014267ffffffffffffffff168152506003600085815260200190815260200160002060008201518160000160006101000a81548173ffffffffffffffffffffffffffffffffffffffff021916908373ffffffffffffffffffffffffffffffffffffffff16021790555060208201518160000160146101000a81548167ffffffffffffffff021916908367ffffffffffffffff16021790555090505060006001846113859190612a72565b9050600073ffffffffffffffffffffffffffffffffffffffff166003600083815260200190815260200160002060000160009054906101000a900473ffffffffffffffffffffffffffffffffffffffff1673ffffffffffffffffffffffffffffffffffffffff16036114ca576113fa81610ebc565b156114c9576040518060400160405280846000015173ffffffffffffffffffffffffffffffffffffffff168152602001846020015167ffffffffffffffff168152506003600083815260200190815260200160002060008201518160000160006101000a81548173ffffffffffffffffffffffffffffffffffffffff021916908373ffffffffffffffffffffffffffffffffffffffff16021790555060208201518160000160146101000a81548167ffffffffffffffff021916908367ffffffffffffffff1602179055509050505b5b838573ffffffffffffffffffffffffffffffffffffffff168773ffffffffffffffffffffffffffffffffffffffff167fddf252ad1be2c89b69c2b068fc378daa952ba7f163c4a11628f55a4df523b3ef60405160405180910390a461153286868660016119af565b505050505050565b611542611b2b565b61154b82610ebc565b61158a576040517f08c379a000000000000000000000000000000000000000000000000000000000815260040161158190612b18565b60405180910390fd5b60007f000000000000000000000000000000000000000000000000000000000000000083106115ee5760017f0000000000000000000000000000000000000000000000000000000000000000846115e19190612364565b6115eb9190612a72565b90505b60008390505b8181106116fc576000600360008381526020019081526020016000206040518060400160405290816000820160009054906101000a900473ffffffffffffffffffffffffffffffffffffffff1673ffffffffffffffffffffffffffffffffffffffff1673ffffffffffffffffffffffffffffffffffffffff1681526020016000820160149054906101000a900467ffffffffffffffff1667ffffffffffffffff1667ffffffffffffffff16815250509050600073ffffffffffffffffffffffffffffffffffffffff16816000015173ffffffffffffffffffffffffffffffffffffffff16146116e857809350505050611738565b5080806116f490612b38565b9150506115f4565b506040517f08c379a000000000000000000000000000000000000000000000000000000000815260040161172f90612bd3565b60405180910390fd5b919050565b600061175e8473ffffffffffffffffffffffffffffffffffffffff166119b5565b156118b7578373ffffffffffffffffffffffffffffffffffffffff1663150b7a02611787610ec9565b8786866040518563ffffffff1660e01b81526004016117a99493929190612c48565b6020604051808303816000875af19250505080156117e557506040513d601f19601f820116820180604052508101906117e29190612ca9565b60015b611867573d8060008114611815576040519150601f19603f3d011682016040523d82523d6000602084013e61181a565b606091505b50600081510361185f576040517f08c379a000000000000000000000000000000000000000000000000000000000815260040161185690612706565b60405180910390fd5b805181602001fd5b63150b7a0260e01b7bffffffffffffffffffffffffffffffffffffffffffffffffffffffff1916817bffffffffffffffffffffffffffffffffffffffffffffffffffffffff1916149150506118bc565b600190505b949350505050565b606060405180602001604052806000815250905090565b6060600060016118ea846119d8565b01905060008167ffffffffffffffff81111561190957611908611f31565b5b6040519080825280601f01601f19166020018201604052801561193b5781602001600182028036833780820191505090505b509050600082602001820190505b60011561199e578080600190039150507f3031323334353637383961626364656600000000000000000000000000000000600a86061a8153600a858161199257611991612cd6565b5b04945060008503611949575b819350505050919050565b50505050565b50505050565b6000808273ffffffffffffffffffffffffffffffffffffffff163b119050919050565b600080600090507a184f03e93ff9f4daa797ed6e38ed64bf6a1f0100000000000000008310611a36577a184f03e93ff9f4daa797ed6e38ed64bf6a1f0100000000000000008381611a2c57611a2b612cd6565b5b0492506040810190505b6d04ee2d6d415b85acef81000000008310611a73576d04ee2d6d415b85acef81000000008381611a6957611a68612cd6565b5b0492506020810190505b662386f26fc100008310611aa257662386f26fc100008381611a9857611a97612cd6565b5b0492506010810190505b6305f5e1008310611acb576305f5e1008381611ac157611ac0612cd6565b5b0492506008810190505b6127108310611af0576127108381611ae657611ae5612cd6565b5b0492506004810190505b60648310611b135760648381611b0957611b08612cd6565b5b0492506002810190505b600a8310611b22576001810190505b80915050919050565b6040518060400160405280600073ffffffffffffffffffffffffffffffffffffffff168152602001600067ffffffffffffffff1681525090565b6000604051905090565b600080fd5b600080fd5b60007fffffffff0000000000000000000000000000000000000000000000000000000082169050919050565b611bae81611b79565b8114611bb957600080fd5b50565b600081359050611bcb81611ba5565b92915050565b600060208284031215611be757611be6611b6f565b5b6000611bf584828501611bbc565b91505092915050565b60008115159050919050565b611c1381611bfe565b82525050565b6000602082019050611c2e6000830184611c0a565b92915050565b600081519050919050565b600082825260208201905092915050565b60005b83811015611c6e578082015181840152602081019050611c53565b60008484015250505050565b6000601f19601f8301169050919050565b6000611c9682611c34565b611ca08185611c3f565b9350611cb0818560208601611c50565b611cb981611c7a565b840191505092915050565b60006020820190508181036000830152611cde8184611c8b565b905092915050565b6000819050919050565b611cf981611ce6565b8114611d0457600080fd5b50565b600081359050611d1681611cf0565b92915050565b600060208284031215611d3257611d31611b6f565b5b6000611d4084828501611d07565b91505092915050565b600073ffffffffffffffffffffffffffffffffffffffff82169050919050565b6000611d7482611d49565b9050919050565b611d8481611d69565b82525050565b6000602082019050611d9f6000830184611d7b565b92915050565b611dae81611d69565b8114611db957600080fd5b50565b600081359050611dcb81611da5565b92915050565b60008060408385031215611de857611de7611b6f565b5b6000611df685828601611dbc565b9250506020611e0785828601611d07565b9150509250929050565b611e1a81611ce6565b82525050565b6000602082019050611e356000830184611e11565b92915050565b600080600060608486031215611e5457611e53611b6f565b5b6000611e6286828701611dbc565b9350506020611e7386828701611dbc565b9250506040611e8486828701611d07565b9150509250925092565b600060208284031215611ea457611ea3611b6f565b5b6000611eb284828501611dbc565b91505092915050565b611ec481611bfe565b8114611ecf57600080fd5b50565b600081359050611ee181611ebb565b92915050565b60008060408385031215611efe57611efd611b6f565b5b6000611f0c85828601611dbc565b9250506020611f1d85828601611ed2565b9150509250929050565b600080fd5b600080fd5b7f4e487b7100000000000000000000000000000000000000000000000000000000600052604160045260246000fd5b611f6982611c7a565b810181811067ffffffffffffffff82111715611f8857611f87611f31565b5b80604052505050565b6000611f9b611b65565b9050611fa78282611f60565b919050565b600067ffffffffffffffff821115611fc757611fc6611f31565b5b611fd082611c7a565b9050602081019050919050565b82818337600083830152505050565b6000611fff611ffa84611fac565b611f91565b90508281526020810184848401111561201b5761201a611f2c565b5b612026848285611fdd565b509392505050565b600082601f83011261204357612042611f27565b5b8135612053848260208601611fec565b91505092915050565b6000806000806080858703121561207657612075611b6f565b5b600061208487828801611dbc565b945050602061209587828801611dbc565b93505060406120a687828801611d07565b925050606085013567ffffffffffffffff8111156120c7576120c6611b74565b5b6120d38782880161202e565b91505092959194509250565b600080604083850312156120f6576120f5611b6f565b5b600061210485828601611dbc565b925050602061211585828601611dbc565b9150509250929050565b7f4e487b7100000000000000000000000000000000000000000000000000000000600052602260045260246000fd5b6000600282049050600182168061216657607f821691505b6020821081036121795761217861211f565b5b50919050565b7f455243373231413a20617070726f76656420717565727920666f72206e6f6e6560008201527f78697374656e7420746f6b656e00000000000000000000000000000000000000602082015250565b60006121db602d83611c3f565b91506121e68261217f565b604082019050919050565b6000602082019050818103600083015261220a816121ce565b9050919050565b7f455243373231413a20617070726f76616c20746f2063757272656e74206f776e60008201527f6572000000000000000000000000000000000000000000000000000000000000602082015250565b600061226d602283611c3f565b915061227882612211565b604082019050919050565b6000602082019050818103600083015261229c81612260565b9050919050565b7f455243373231413a20617070726f76652063616c6c6572206973206e6f74206f60008201527f776e6572206e6f7220617070726f76656420666f7220616c6c00000000000000602082015250565b60006122ff603983611c3f565b915061230a826122a3565b604082019050919050565b6000602082019050818103600083015261232e816122f2565b9050919050565b7f4e487b7100000000000000000000000000000000000000000000000000000000600052601160045260246000fd5b600061236f82611ce6565b915061237a83611ce6565b925082820390508181111561239257612391612335565b5b92915050565b7f455243373231413a206f776e657220696e646578206f7574206f6620626f756e60008201527f6473000000000000000000000000000000000000000000000000000000000000602082015250565b60006123f4602283611c3f565b91506123ff82612398565b604082019050919050565b60006020820190508181036000830152612423816123e7565b9050919050565b600061243582611ce6565b91507fffffffffffffffffffffffffffffffffffffffffffffffffffffffffffffffff820361246757612466612335565b5b600182019050919050565b7f455243373231413a20756e61626c6520746f2067657420746f6b656e206f662060008201527f6f776e657220627920696e646578000000000000000000000000000000000000602082015250565b60006124ce602e83611c3f565b91506124d982612472565b604082019050919050565b600060208201905081810360008301526124fd816124c1565b9050919050565b7f455243373231413a20676c6f62616c20696e646578206f7574206f6620626f7560008201527f6e64730000000000000000000000000000000000000000000000000000000000602082015250565b6000612560602383611c3f565b915061256b82612504565b604082019050919050565b6000602082019050818103600083015261258f81612553565b9050919050565b7f455243373231413a2062616c616e636520717565727920666f7220746865207a60008201527f65726f2061646472657373000000000000000000000000000000000000000000602082015250565b60006125f2602b83611c3f565b91506125fd82612596565b604082019050919050565b60006020820190508181036000830152612621816125e5565b9050919050565b7f455243373231413a20617070726f766520746f2063616c6c6572000000000000600082015250565b600061265e601a83611c3f565b915061266982612628565b602082019050919050565b6000602082019050818103600083015261268d81612651565b9050919050565b7f455243373231413a207472616e7366657220746f206e6f6e204552433732315260008201527f6563656976657220696d706c656d656e74657200000000000000000000000000602082015250565b60006126f0603383611c3f565b91506126fb82612694565b604082019050919050565b6000602082019050818103600083015261271f816126e3565b9050919050565b7f4552433732314d657461646174613a2055524920717565727920666f72206e6f60008201527f6e6578697374656e7420746f6b656e0000000000000000000000000000000000602082015250565b6000612782602f83611c3f565b915061278d82612726565b604082019050919050565b600060208201905081810360008301526127b181612775565b9050919050565b600081905092915050565b60006127ce82611c34565b6127d881856127b8565b93506127e8818560208601611c50565b80840191505092915050565b600061280082856127c3565b915061280c82846127c3565b91508190509392505050565b7f455243373231413a207472616e736665722063616c6c6572206973206e6f742060008201527f6f776e6572206e6f7220617070726f7665640000000000000000000000000000602082015250565b6000612874603283611c3f565b915061287f82612818565b604082019050919050565b600060208201905081810360008301526128a381612867565b9050919050565b7f455243373231413a207472616e736665722066726f6d20696e636f727265637460008201527f206f776e65720000000000000000000000000000000000000000000000000000602082015250565b6000612906602683611c3f565b9150612911826128aa565b604082019050919050565b60006020820190508181036000830152612935816128f9565b9050919050565b7f455243373231413a207472616e7366657220746f20746865207a65726f20616460008201527f6472657373000000000000000000000000000000000000000000000000000000602082015250565b6000612998602583611c3f565b91506129a38261293c565b604082019050919050565b600060208201905081810360008301526129c78161298b565b9050919050565b60006fffffffffffffffffffffffffffffffff82169050919050565b60006129f5826129ce565b9150612a00836129ce565b925082820390506fffffffffffffffffffffffffffffffff811115612a2857612a27612335565b5b92915050565b6000612a39826129ce565b9150612a44836129ce565b925082820190506fffffffffffffffffffffffffffffffff811115612a6c57612a6b612335565b5b92915050565b6000612a7d82611ce6565b9150612a8883611ce6565b9250828201905080821115612aa057612a9f612335565b5b92915050565b7f455243373231413a206f776e657220717565727920666f72206e6f6e6578697360008201527f74656e7420746f6b656e00000000000000000000000000000000000000000000602082015250565b6000612b02602a83611c3f565b9150612b0d82612aa6565b604082019050919050565b60006020820190508181036000830152612b3181612af5565b9050919050565b6000612b4382611ce6565b915060008203612b5657612b55612335565b5b600182039050919050565b7f455243373231413a20756e61626c6520746f2064657465726d696e652074686560008201527f206f776e6572206f6620746f6b656e0000000000000000000000000000000000602082015250565b6000612bbd602f83611c3f565b9150612bc882612b61565b604082019050919050565b60006020820190508181036000830152612bec81612bb0565b9050919050565b600081519050919050565b600082825260208201905092915050565b6000612c1a82612bf3565b612c248185612bfe565b9350612c34818560208601611c50565b612c3d81611c7a565b840191505092915050565b6000608082019050612c5d6000830187611d7b565b612c6a6020830186611d7b565b612c776040830185611e11565b8181036060830152612c898184612c0f565b905095945050505050565b600081519050612ca381611ba5565b92915050565b600060208284031215612cbf57612cbe611b6f565b5b6000612ccd84828501612c94565b91505092915050565b7f4e487b7100000000000000000000000000000000000000000000000000000000600052601260045260246000fdfea264697066735822122035c73f9ae1dc41fd10819396a6699e6c072e925e88313736e28aea25fdfa97b264736f6c63430008110033",
  "immutableReferences": {
    "7420": [
      {
        "length": 32,
        "start": 5518
      },
      {
        "length": 32,
        "start": 5559
      }
    ]
  },
  "source": "// SPDX-License-Identifier: MIT\r\n\r\npragma solidity ^0.8.0;\r\n\r\nimport \"../../node_modules/@openzeppelin/contracts/token/ERC721/IERC721.sol\";\r\nimport \"../../node_modules/@openzeppelin/contracts/token/ERC721/IERC721Receiver.sol\";\r\nimport \"../../node_modules/@openzeppelin/contracts/token/ERC721/extensions/IERC721Metadata.sol\";\r\nimport \"../../node_modules/@openzeppelin/contracts/token/ERC721/extensions/IERC721Enumerable.sol\";\r\nimport \"../../node_modules/@openzeppelin/contracts/utils/Address.sol\";\r\nimport \"../../node_modules/@openzeppelin/contracts/utils/Context.sol\";\r\nimport \"../../node_modules/@openzeppelin/contracts/utils/Strings.sol\";\r\nimport \"../../node_modules/@openzeppelin/contracts/utils/introspection/ERC165.sol\";\r\n\r\n// remix  \r\n// import \"openzeppelin-solidity/contracts/token/ERC721/IERC721.sol\";\r\n// import \"openzeppelin-solidity/contracts/token/ERC721/IERC721Receiver.sol\";\r\n// import \"openzeppelin-solidity/contracts/token/ERC721/extensions/IERC721Metadata.sol\";\r\n// import \"openzeppelin-solidity/contracts/token/ERC721/extensions/IERC721Enumerable.sol\";\r\n// import \"openzeppelin-solidity/contracts/utils/Address.sol\";\r\n// import \"openzeppelin-solidity/contracts/utils/Context.sol\";\r\n// import \"openzeppelin-solidity/contracts/utils/Strings.sol\";\r\n// import \"openzeppelin-solidity/contracts/utils/introspection/ERC165.sol\";\r\n\r\n/**\r\n * @dev Implementation of https://eips.ethereum.org/EIPS/eip-721[ERC721] Non-Fungible Token Standard, including\r\n * the Metadata and Enumerable extension. Built to optimize for lower gas during batch mints.\r\n *\r\n * Assumes serials are sequentially minted starting at 0 (e.g. 0, 1, 2, 3..).\r\n *\r\n * Assumes the number of issuable tokens (collection size) is capped and fits in a uint128.\r\n *\r\n * Does not support burning tokens to address(0).\r\n */\r\ncontract ERC721A is\r\n  Context,\r\n  ERC165,\r\n  IERC721,\r\n  IERC721Metadata,\r\n  IERC721Enumerable\r\n{\r\n  using Address for address;\r\n  using Strings for uint256;\r\n\r\n  struct TokenOwnership {\r\n    address addr;\r\n    uint64 startTimestamp;\r\n  }\r\n\r\n  struct AddressData {\r\n    uint128 balance;\r\n    uint128 numberMinted;\r\n  }\r\n\r\n  uint256 private currentIndex = 1;\r\n  \r\n  //  ID 1  \r\n  \r\n\r\n  uint256 internal immutable collectionSize;\r\n  uint256 internal immutable maxBatchSize;\r\n\r\n  // Token name\r\n  string private _name;\r\n\r\n  // Token symbol\r\n  string private _symbol;\r\n\r\n  // Mapping from token ID to ownership details\r\n  // An empty struct value does not necessarily mean the token is unowned. See ownershipOf implementation for details.\r\n  mapping(uint256 => TokenOwnership) private _ownerships;\r\n\r\n  // Mapping owner address to address data\r\n  mapping(address => AddressData) private _addressData;\r\n\r\n  // Mapping from token ID to approved address\r\n  mapping(uint256 => address) private _tokenApprovals;\r\n\r\n  // Mapping from owner to operator approvals\r\n  mapping(address => mapping(address => bool)) private _operatorApprovals;\r\n\r\n  /**\r\n   * @dev\r\n   * `maxBatchSize` refers to how much a minter can mint at a time.\r\n   * `collectionSize_` refers to how many tokens are in the collection.\r\n   */\r\n  constructor(\r\n    string memory name_,\r\n    string memory symbol_,\r\n    uint256 maxBatchSize_,\r\n    uint256 collectionSize_\r\n  ) {\r\n    require(\r\n      collectionSize_ > 0,\r\n      \"ERC721A: collection must have a nonzero supply\"\r\n    );\r\n    require(maxBatchSize_ > 0, \"ERC721A: max batch size must be nonzero\");\r\n    _name = name_;\r\n    _symbol = symbol_;\r\n    maxBatchSize = maxBatchSize_;\r\n    collectionSize = collectionSize_;\r\n  }\r\n\r\n  /**\r\n   * @dev See {IERC721Enumerable-totalSupply}.\r\n   */\r\n  function totalSupply() public view override returns (uint256) {\r\n    return currentIndex - 1; // -1 \r\n  }\r\n\r\n  /**\r\n   * @dev See {IERC721Enumerable-tokenByIndex}.\r\n   */\r\n  function tokenByIndex(uint256 index) public view override returns (uint256) {\r\n    require(index < totalSupply(), \"ERC721A: global index out of bounds\");\r\n    return index;\r\n  }\r\n\r\n  /**\r\n   * @dev See {IERC721Enumerable-tokenOfOwnerByIndex}.\r\n   * This read function is O(collectionSize). If calling from a separate contract, be sure to test gas first.\r\n   * It may also degrade with extremely large collection sizes (e.g >> 10000), test for your use case.\r\n   */\r\n  function tokenOfOwnerByIndex(address owner, uint256 index)\r\n    public\r\n    view\r\n    override\r\n    returns (uint256)\r\n  {\r\n    require(index < balanceOf(owner), \"ERC721A: owner index out of bounds\");\r\n    uint256 numMintedSoFar = totalSupply();\r\n    uint256 tokenIdsIdx = 0;\r\n    address currOwnershipAddr = address(0);\r\n    for (uint256 i = 1; i <= numMintedSoFar; i++) { //  \r\n    // i = 0  i = 1 i <  i <=  \r\n      TokenOwnership memory ownership = _ownerships[i];\r\n      if (ownership.addr != address(0)) {\r\n        currOwnershipAddr = ownership.addr;\r\n      }\r\n      if (currOwnershipAddr == owner) {\r\n        if (tokenIdsIdx == index) {\r\n          return i;\r\n        }\r\n        tokenIdsIdx++;\r\n      }\r\n    }\r\n    revert(\"ERC721A: unable to get token of owner by index\");\r\n  }\r\n\r\n  /**\r\n   * @dev See {IERC165-supportsInterface}.\r\n   */\r\n  function supportsInterface(bytes4 interfaceId)\r\n    public\r\n    view\r\n    virtual\r\n    override(ERC165, IERC165)\r\n    returns (bool)\r\n  {\r\n    return\r\n      interfaceId == type(IERC721).interfaceId ||\r\n      interfaceId == type(IERC721Metadata).interfaceId ||\r\n      interfaceId == type(IERC721Enumerable).interfaceId ||\r\n      super.supportsInterface(interfaceId);\r\n  }\r\n\r\n  /**\r\n   * @dev See {IERC721-balanceOf}.\r\n   */\r\n  function balanceOf(address owner) public view override returns (uint256) {\r\n    require(owner != address(0), \"ERC721A: balance query for the zero address\");\r\n    return uint256(_addressData[owner].balance);\r\n  }\r\n\r\n  function _numberMinted(address owner) internal view returns (uint256) {\r\n    require(\r\n      owner != address(0),\r\n      \"ERC721A: number minted query for the zero address\"\r\n    );\r\n    return uint256(_addressData[owner].numberMinted);\r\n  }\r\n\r\n  function ownershipOf(uint256 tokenId)\r\n    internal\r\n    view\r\n    returns (TokenOwnership memory)\r\n  {\r\n    require(_exists(tokenId), \"ERC721A: owner query for nonexistent token\");\r\n\r\n    uint256 lowestTokenToCheck;\r\n    if (tokenId >= maxBatchSize) {\r\n      lowestTokenToCheck = tokenId - maxBatchSize + 1;\r\n    }\r\n\r\n    for (uint256 curr = tokenId; curr >= lowestTokenToCheck; curr--) {\r\n      TokenOwnership memory ownership = _ownerships[curr];\r\n      if (ownership.addr != address(0)) {\r\n        return ownership;\r\n      }\r\n    }\r\n\r\n    revert(\"ERC721A: unable to determine the owner of token\");\r\n  }\r\n\r\n  /**\r\n   * @dev See {IERC721-ownerOf}.\r\n   */\r\n  function ownerOf(uint256 tokenId) public view override returns (address) {\r\n    return ownershipOf(tokenId).addr;\r\n  }\r\n\r\n  /**\r\n   * @dev See {IERC721Metadata-name}.\r\n   */\r\n  function name() public view virtual override returns (string memory) {\r\n    return _name;\r\n  }\r\n\r\n  /**\r\n   * @dev See {IERC721Metadata-symbol}.\r\n   */\r\n  function symbol() public view virtual override returns (string memory) {\r\n    return _symbol;\r\n  }\r\n\r\n  /**\r\n   * @dev See {IERC721Metadata-tokenURI}.\r\n   */\r\n  function tokenURI(uint256 tokenId)\r\n    public\r\n    view\r\n    virtual\r\n    override\r\n    returns (string memory)\r\n  {\r\n    require(\r\n      _exists(tokenId),\r\n      \"ERC721Metadata: URI query for nonexistent token\"\r\n    );\r\n\r\n    string memory baseURI = _baseURI();\r\n    return\r\n      bytes(baseURI).length > 0\r\n        ? string(abi.encodePacked(baseURI, tokenId.toString()))\r\n        : \"\";\r\n  }\r\n\r\n  /**\r\n   * @dev Base URI for computing {tokenURI}. If set, the resulting URI for each\r\n   * token will be the concatenation of the `baseURI` and the `tokenId`. Empty\r\n   * by default, can be overriden in child contracts.\r\n   */\r\n  function _baseURI() internal view virtual returns (string memory) {\r\n    return \"\";\r\n  }\r\n\r\n  /**\r\n   * @dev See {IERC721-approve}.\r\n   */\r\n  function approve(address to, uint256 tokenId) public override {\r\n    address owner = ERC721A.ownerOf(tokenId);\r\n    require(to != owner, \"ERC721A: approval to current owner\");\r\n\r\n    require(\r\n      _msgSender() == owner || isApprovedForAll(owner, _msgSender()),\r\n      \"ERC721A: approve caller is not owner nor approved for all\"\r\n    );\r\n\r\n    _approve(to, tokenId, owner);\r\n  }\r\n\r\n  /**\r\n   * @dev See {IERC721-getApproved}.\r\n   */\r\n  function getApproved(uint256 tokenId) public view override returns (address) {\r\n    require(_exists(tokenId), \"ERC721A: approved query for nonexistent token\");\r\n\r\n    return _tokenApprovals[tokenId];\r\n  }\r\n\r\n  /**\r\n   * @dev See {IERC721-setApprovalForAll}.\r\n   */\r\n  function setApprovalForAll(address operator, bool approved) public override {\r\n    require(operator != _msgSender(), \"ERC721A: approve to caller\");\r\n\r\n    _operatorApprovals[_msgSender()][operator] = approved;\r\n    emit ApprovalForAll(_msgSender(), operator, approved);\r\n  }\r\n\r\n  /**\r\n   * @dev See {IERC721-isApprovedForAll}.\r\n   */\r\n  function isApprovedForAll(address owner, address operator)\r\n    public\r\n    view\r\n    virtual\r\n    override\r\n    returns (bool)\r\n  {\r\n    return _operatorApprovals[owner][operator];\r\n  }\r\n\r\n  /**\r\n   * @dev See {IERC721-transferFrom}.\r\n   */\r\n  function transferFrom(\r\n    address from,\r\n    address to,\r\n    uint256 tokenId\r\n  ) public override {\r\n    _transfer(from, to, tokenId);\r\n  }\r\n\r\n  /**\r\n   * @dev See {IERC721-safeTransferFrom}.\r\n   */\r\n  function safeTransferFrom(\r\n    address from,\r\n    address to,\r\n    uint256 tokenId\r\n  ) public override {\r\n    safeTransferFrom(from, to, tokenId, \"\");\r\n  }\r\n\r\n  /**\r\n   * @dev See {IERC721-safeTransferFrom}.\r\n   */\r\n  function safeTransferFrom(\r\n    address from,\r\n    address to,\r\n    uint256 tokenId,\r\n    bytes memory _data\r\n  ) public override {\r\n    _transfer(from, to, tokenId);\r\n    require(\r\n      _checkOnERC721Received(from, to, tokenId, _data),\r\n      \"ERC721A: transfer to non ERC721Receiver implementer\"\r\n    );\r\n  }\r\n\r\n  /**\r\n   * @dev Returns whether `tokenId` exists.\r\n   *\r\n   * Tokens can be managed by their owner or approved accounts via {approve} or {setApprovalForAll}.\r\n   *\r\n   * Tokens start existing when they are minted (`_mint`),\r\n   */\r\n  function _exists(uint256 tokenId) internal view returns (bool) {\r\n    return tokenId < currentIndex;\r\n  }\r\n\r\n  function _safeMint(address to, uint256 quantity) internal {\r\n    _safeMint(to, quantity, \"\");\r\n  }\r\n\r\n  /**\r\n   * @dev Mints `quantity` tokens and transfers them to `to`.\r\n   *\r\n   * Requirements:\r\n   *\r\n   * - there must be `quantity` tokens remaining unminted in the total collection.\r\n   * - `to` cannot be the zero address.\r\n   * - `quantity` cannot be larger than the max batch size.\r\n   *\r\n   * Emits a {Transfer} event.\r\n   */\r\n  function _safeMint(\r\n    address to,\r\n    uint256 quantity,\r\n    bytes memory _data\r\n  ) internal {\r\n    uint256 startTokenId = currentIndex ; \r\n    require(to != address(0), \"ERC721A: mint to the zero address\");\r\n    // We know if the first token in the batch doesn't exist, the other ones don't as well, because of serial ordering.\r\n    require(!_exists(startTokenId), \"ERC721A: token already minted\");\r\n    require(quantity <= maxBatchSize, \"ERC721A: quantity to mint too high\");\r\n\r\n    _beforeTokenTransfers(address(0), to, startTokenId, quantity);\r\n\r\n    AddressData memory addressData = _addressData[to];\r\n    _addressData[to] = AddressData(\r\n      addressData.balance + uint128(quantity),\r\n      addressData.numberMinted + uint128(quantity)\r\n    );\r\n    _ownerships[startTokenId] = TokenOwnership(to, uint64(block.timestamp));\r\n\r\n    uint256 updatedIndex = startTokenId;\r\n\r\n    for (uint256 i = 0; i < quantity; i++) {\r\n      emit Transfer(address(0), to, updatedIndex);\r\n      require(\r\n        _checkOnERC721Received(address(0), to, updatedIndex, _data),\r\n        \"ERC721A: transfer to non ERC721Receiver implementer\"\r\n      );\r\n      updatedIndex++;\r\n    }\r\n\r\n    currentIndex = updatedIndex;\r\n    _afterTokenTransfers(address(0), to, startTokenId, quantity);\r\n  }\r\n\r\n  /**\r\n   * @dev Transfers `tokenId` from `from` to `to`.\r\n   *\r\n   * Requirements:\r\n   *\r\n   * - `to` cannot be the zero address.\r\n   * - `tokenId` token must be owned by `from`.\r\n   *\r\n   * Emits a {Transfer} event.\r\n   */\r\n  function _transfer(\r\n    address from,\r\n    address to,\r\n    uint256 tokenId\r\n  ) private {\r\n    TokenOwnership memory prevOwnership = ownershipOf(tokenId);\r\n\r\n    bool isApprovedOrOwner = (_msgSender() == prevOwnership.addr ||\r\n      getApproved(tokenId) == _msgSender() ||\r\n      isApprovedForAll(prevOwnership.addr, _msgSender()));\r\n\r\n    require(\r\n      isApprovedOrOwner,\r\n      \"ERC721A: transfer caller is not owner nor approved\"\r\n    );\r\n\r\n    require(\r\n      prevOwnership.addr == from,\r\n      \"ERC721A: transfer from incorrect owner\"\r\n    );\r\n    require(to != address(0), \"ERC721A: transfer to the zero address\");\r\n\r\n    _beforeTokenTransfers(from, to, tokenId, 1);\r\n\r\n    // Clear approvals from the previous owner\r\n    _approve(address(0), tokenId, prevOwnership.addr);\r\n\r\n    _addressData[from].balance -= 1;\r\n    _addressData[to].balance += 1;\r\n    _ownerships[tokenId] = TokenOwnership(to, uint64(block.timestamp));\r\n\r\n    // If the ownership slot of tokenId+1 is not explicitly set, that means the transfer initiator owns it.\r\n    // Set the slot of tokenId+1 explicitly in storage to maintain correctness for ownerOf(tokenId+1) calls.\r\n    uint256 nextTokenId = tokenId + 1;\r\n    if (_ownerships[nextTokenId].addr == address(0)) {\r\n      if (_exists(nextTokenId)) {\r\n        _ownerships[nextTokenId] = TokenOwnership(\r\n          prevOwnership.addr,\r\n          prevOwnership.startTimestamp\r\n        );\r\n      }\r\n    }\r\n\r\n    emit Transfer(from, to, tokenId);\r\n    _afterTokenTransfers(from, to, tokenId, 1);\r\n  }\r\n\r\n  /**\r\n   * @dev Approve `to` to operate on `tokenId`\r\n   *\r\n   * Emits a {Approval} event.\r\n   */\r\n  function _approve(\r\n    address to,\r\n    uint256 tokenId,\r\n    address owner\r\n  ) private {\r\n    _tokenApprovals[tokenId] = to;\r\n    emit Approval(owner, to, tokenId);\r\n  }\r\n\r\n  uint256 public nextOwnerToExplicitlySet = 0;\r\n\r\n  /**\r\n   * @dev Explicitly set `owners` to eliminate loops in future calls of ownerOf().\r\n   */\r\n  function _setOwnersExplicit(uint256 quantity) internal {\r\n    uint256 oldNextOwnerToSet = nextOwnerToExplicitlySet;\r\n    require(quantity > 0, \"quantity must be nonzero\");\r\n    uint256 endIndex = oldNextOwnerToSet + quantity - 1;\r\n    if (endIndex > collectionSize - 1) {\r\n      endIndex = collectionSize - 1;\r\n    }\r\n    // We know if the last one in the group exists, all in the group exist, due to serial ordering.\r\n    require(_exists(endIndex), \"not enough minted yet for this cleanup\");\r\n    for (uint256 i = oldNextOwnerToSet; i <= endIndex; i++) {\r\n      if (_ownerships[i].addr == address(0)) {\r\n        TokenOwnership memory ownership = ownershipOf(i);\r\n        _ownerships[i] = TokenOwnership(\r\n          ownership.addr,\r\n          ownership.startTimestamp\r\n        );\r\n      }\r\n    }\r\n    nextOwnerToExplicitlySet = endIndex + 1;\r\n  }\r\n\r\n  /**\r\n   * @dev Internal function to invoke {IERC721Receiver-onERC721Received} on a target address.\r\n   * The call is not executed if the target address is not a contract.\r\n   *\r\n   * @param from address representing the previous owner of the given token ID\r\n   * @param to target address that will receive the tokens\r\n   * @param tokenId uint256 ID of the token to be transferred\r\n   * @param _data bytes optional data to send along with the call\r\n   * @return bool whether the call correctly returned the expected magic value\r\n   */\r\n  function _checkOnERC721Received(\r\n    address from,\r\n    address to,\r\n    uint256 tokenId,\r\n    bytes memory _data\r\n  ) private returns (bool) {\r\n    if (to.isContract()) {\r\n      try\r\n        IERC721Receiver(to).onERC721Received(_msgSender(), from, tokenId, _data)\r\n      returns (bytes4 retval) {\r\n        return retval == IERC721Receiver(to).onERC721Received.selector;\r\n      } catch (bytes memory reason) {\r\n        if (reason.length == 0) {\r\n          revert(\"ERC721A: transfer to non ERC721Receiver implementer\");\r\n        } else {\r\n          assembly {\r\n            revert(add(32, reason), mload(reason))\r\n          }\r\n        }\r\n      }\r\n    } else {\r\n      return true;\r\n    }\r\n  }\r\n\r\n  /**\r\n   * @dev Hook that is called before a set of serially-ordered token ids are about to be transferred. This includes minting.\r\n   *\r\n   * startTokenId - the first token id to be transferred\r\n   * quantity - the amount to be transferred\r\n   *\r\n   * Calling conditions:\r\n   *\r\n   * - When `from` and `to` are both non-zero, ``from``'s `tokenId` will be\r\n   * transferred to `to`.\r\n   * - When `from` is zero, `tokenId` will be minted for `to`.\r\n   */\r\n  function _beforeTokenTransfers(\r\n    address from,\r\n    address to,\r\n    uint256 startTokenId,\r\n    uint256 quantity\r\n  ) internal virtual {}\r\n\r\n  /**\r\n   * @dev Hook that is called after a set of serially-ordered token ids have been transferred. This includes\r\n   * minting.\r\n   *\r\n   * startTokenId - the first token id to be transferred\r\n   * quantity - the amount to be transferred\r\n   *\r\n   * Calling conditions:\r\n   *\r\n   * - when `from` and `to` are both non-zero.\r\n   * - `from` and `to` are never both zero.\r\n   */\r\n  function _afterTokenTransfers(\r\n    address from,\r\n    address to,\r\n    uint256 startTokenId,\r\n    uint256 quantity\r\n  ) internal virtual {}\r\n}",
  "sourcePath": "C:\\Users\\KGA_\\Desktop\\nft_1223\\blockChain\\contracts\\standards\\ERC721A.sol",
  "compiler": {
    "name": "solc",
    "version": "0.8.17+commit.8df45f5f.Emscripten.clang"
  },
  "schemaVersion": "3.4.11",
  "updatedAt": "2022-12-23T12:00:40.925Z",
  "devdoc": {
    "details": "Implementation of https://eips.ethereum.org/EIPS/eip-721[ERC721] Non-Fungible Token Standard, including the Metadata and Enumerable extension. Built to optimize for lower gas during batch mints. Assumes serials are sequentially minted starting at 0 (e.g. 0, 1, 2, 3..). Assumes the number of issuable tokens (collection size) is capped and fits in a uint128. Does not support burning tokens to address(0).",
    "kind": "dev",
    "methods": {
      "approve(address,uint256)": {
        "details": "See {IERC721-approve}."
      },
      "balanceOf(address)": {
        "details": "See {IERC721-balanceOf}."
      },
      "constructor": {
        "details": "`maxBatchSize` refers to how much a minter can mint at a time. `collectionSize_` refers to how many tokens are in the collection."
      },
      "getApproved(uint256)": {
        "details": "See {IERC721-getApproved}."
      },
      "isApprovedForAll(address,address)": {
        "details": "See {IERC721-isApprovedForAll}."
      },
      "name()": {
        "details": "See {IERC721Metadata-name}."
      },
      "ownerOf(uint256)": {
        "details": "See {IERC721-ownerOf}."
      },
      "safeTransferFrom(address,address,uint256)": {
        "details": "See {IERC721-safeTransferFrom}."
      },
      "safeTransferFrom(address,address,uint256,bytes)": {
        "details": "See {IERC721-safeTransferFrom}."
      },
      "setApprovalForAll(address,bool)": {
        "details": "See {IERC721-setApprovalForAll}."
      },
      "supportsInterface(bytes4)": {
        "details": "See {IERC165-supportsInterface}."
      },
      "symbol()": {
        "details": "See {IERC721Metadata-symbol}."
      },
      "tokenByIndex(uint256)": {
        "details": "See {IERC721Enumerable-tokenByIndex}."
      },
      "tokenOfOwnerByIndex(address,uint256)": {
        "details": "See {IERC721Enumerable-tokenOfOwnerByIndex}. This read function is O(collectionSize). If calling from a separate contract, be sure to test gas first. It may also degrade with extremely large collection sizes (e.g >> 10000), test for your use case."
      },
      "tokenURI(uint256)": {
        "details": "See {IERC721Metadata-tokenURI}."
      },
      "totalSupply()": {
        "details": "See {IERC721Enumerable-totalSupply}."
      },
      "transferFrom(address,address,uint256)": {
        "details": "See {IERC721-transferFrom}."
      }
    },
    "version": 1
  },
  "userdoc": {
    "kind": "user",
    "methods": {},
    "version": 1
  }
}