{
  "contractName": "MintingNft",
  "abi": [
    {
      "inputs": [
        {
          "internalType": "string",
          "name": "name_",
          "type": "string"
        },
        {
          "internalType": "string",
          "name": "symbol_",
          "type": "string"
        },
        {
          "internalType": "uint256",
          "name": "mintingPrice_",
          "type": "uint256"
        }
      ],
      "stateMutability": "nonpayable",
      "type": "constructor"
    },
    {
      "anonymous": false,
      "inputs": [
        {
          "indexed": true,
          "internalType": "address",
          "name": "owner",
          "type": "address"
        },
        {
          "indexed": true,
          "internalType": "address",
          "name": "approved",
          "type": "address"
        },
        {
          "indexed": true,
          "internalType": "uint256",
          "name": "tokenId",
          "type": "uint256"
        }
      ],
      "name": "Approval",
      "type": "event"
    },
    {
      "anonymous": false,
      "inputs": [
        {
          "indexed": true,
          "internalType": "address",
          "name": "owner",
          "type": "address"
        },
        {
          "indexed": true,
          "internalType": "address",
          "name": "operator",
          "type": "address"
        },
        {
          "indexed": false,
          "internalType": "bool",
          "name": "approved",
          "type": "bool"
        }
      ],
      "name": "ApprovalForAll",
      "type": "event"
    },
    {
      "anonymous": false,
      "inputs": [
        {
          "indexed": true,
          "internalType": "address",
          "name": "owner",
          "type": "address"
        },
        {
          "indexed": true,
          "internalType": "uint256",
          "name": "tokenId",
          "type": "uint256"
        }
      ],
      "name": "MintingToken",
      "type": "event"
    },
    {
      "anonymous": false,
      "inputs": [
        {
          "indexed": true,
          "internalType": "address",
          "name": "previousOwner",
          "type": "address"
        },
        {
          "indexed": true,
          "internalType": "address",
          "name": "newOwner",
          "type": "address"
        }
      ],
      "name": "OwnershipTransferred",
      "type": "event"
    },
    {
      "anonymous": false,
      "inputs": [
        {
          "indexed": true,
          "internalType": "address",
          "name": "from",
          "type": "address"
        },
        {
          "indexed": true,
          "internalType": "address",
          "name": "to",
          "type": "address"
        },
        {
          "indexed": true,
          "internalType": "uint256",
          "name": "tokenId",
          "type": "uint256"
        }
      ],
      "name": "Transfer",
      "type": "event"
    },
    {
      "inputs": [
        {
          "internalType": "address",
          "name": "to",
          "type": "address"
        },
        {
          "internalType": "uint256",
          "name": "tokenId",
          "type": "uint256"
        }
      ],
      "name": "approve",
      "outputs": [],
      "stateMutability": "nonpayable",
      "type": "function"
    },
    {
      "inputs": [
        {
          "internalType": "address",
          "name": "owner",
          "type": "address"
        }
      ],
      "name": "balanceOf",
      "outputs": [
        {
          "internalType": "uint256",
          "name": "",
          "type": "uint256"
        }
      ],
      "stateMutability": "view",
      "type": "function",
      "constant": true
    },
    {
      "inputs": [
        {
          "internalType": "uint256",
          "name": "tokenId",
          "type": "uint256"
        }
      ],
      "name": "getApproved",
      "outputs": [
        {
          "internalType": "address",
          "name": "",
          "type": "address"
        }
      ],
      "stateMutability": "view",
      "type": "function",
      "constant": true
    },
    {
      "inputs": [
        {
          "internalType": "address",
          "name": "owner",
          "type": "address"
        },
        {
          "internalType": "address",
          "name": "operator",
          "type": "address"
        }
      ],
      "name": "isApprovedForAll",
      "outputs": [
        {
          "internalType": "bool",
          "name": "",
          "type": "bool"
        }
      ],
      "stateMutability": "view",
      "type": "function",
      "constant": true
    },
    {
      "inputs": [],
      "name": "name",
      "outputs": [
        {
          "internalType": "string",
          "name": "",
          "type": "string"
        }
      ],
      "stateMutability": "view",
      "type": "function",
      "constant": true
    },
    {
      "inputs": [],
      "name": "owner",
      "outputs": [
        {
          "internalType": "address",
          "name": "",
          "type": "address"
        }
      ],
      "stateMutability": "view",
      "type": "function",
      "constant": true
    },
    {
      "inputs": [
        {
          "internalType": "uint256",
          "name": "tokenId",
          "type": "uint256"
        }
      ],
      "name": "ownerOf",
      "outputs": [
        {
          "internalType": "address",
          "name": "",
          "type": "address"
        }
      ],
      "stateMutability": "view",
      "type": "function",
      "constant": true
    },
    {
      "inputs": [],
      "name": "renounceOwnership",
      "outputs": [],
      "stateMutability": "nonpayable",
      "type": "function"
    },
    {
      "inputs": [
        {
          "internalType": "address",
          "name": "from",
          "type": "address"
        },
        {
          "internalType": "address",
          "name": "to",
          "type": "address"
        },
        {
          "internalType": "uint256",
          "name": "tokenId",
          "type": "uint256"
        }
      ],
      "name": "safeTransferFrom",
      "outputs": [],
      "stateMutability": "nonpayable",
      "type": "function"
    },
    {
      "inputs": [
        {
          "internalType": "address",
          "name": "from",
          "type": "address"
        },
        {
          "internalType": "address",
          "name": "to",
          "type": "address"
        },
        {
          "internalType": "uint256",
          "name": "tokenId",
          "type": "uint256"
        },
        {
          "internalType": "bytes",
          "name": "_data",
          "type": "bytes"
        }
      ],
      "name": "safeTransferFrom",
      "outputs": [],
      "stateMutability": "nonpayable",
      "type": "function"
    },
    {
      "inputs": [
        {
          "internalType": "address",
          "name": "operator",
          "type": "address"
        },
        {
          "internalType": "bool",
          "name": "approved",
          "type": "bool"
        }
      ],
      "name": "setApprovalForAll",
      "outputs": [],
      "stateMutability": "nonpayable",
      "type": "function"
    },
    {
      "inputs": [
        {
          "internalType": "bytes4",
          "name": "interfaceId",
          "type": "bytes4"
        }
      ],
      "name": "supportsInterface",
      "outputs": [
        {
          "internalType": "bool",
          "name": "",
          "type": "bool"
        }
      ],
      "stateMutability": "view",
      "type": "function",
      "constant": true
    },
    {
      "inputs": [],
      "name": "symbol",
      "outputs": [
        {
          "internalType": "string",
          "name": "",
          "type": "string"
        }
      ],
      "stateMutability": "view",
      "type": "function",
      "constant": true
    },
    {
      "inputs": [
        {
          "internalType": "uint256",
          "name": "index",
          "type": "uint256"
        }
      ],
      "name": "tokenByIndex",
      "outputs": [
        {
          "internalType": "uint256",
          "name": "",
          "type": "uint256"
        }
      ],
      "stateMutability": "view",
      "type": "function",
      "constant": true
    },
    {
      "inputs": [
        {
          "internalType": "address",
          "name": "owner",
          "type": "address"
        },
        {
          "internalType": "uint256",
          "name": "index",
          "type": "uint256"
        }
      ],
      "name": "tokenOfOwnerByIndex",
      "outputs": [
        {
          "internalType": "uint256",
          "name": "",
          "type": "uint256"
        }
      ],
      "stateMutability": "view",
      "type": "function",
      "constant": true
    },
    {
      "inputs": [
        {
          "internalType": "uint256",
          "name": "tokenId",
          "type": "uint256"
        }
      ],
      "name": "tokenURI",
      "outputs": [
        {
          "internalType": "string",
          "name": "",
          "type": "string"
        }
      ],
      "stateMutability": "view",
      "type": "function",
      "constant": true
    },
    {
      "inputs": [],
      "name": "totalSupply",
      "outputs": [
        {
          "internalType": "uint256",
          "name": "",
          "type": "uint256"
        }
      ],
      "stateMutability": "view",
      "type": "function",
      "constant": true
    },
    {
      "inputs": [
        {
          "internalType": "address",
          "name": "from",
          "type": "address"
        },
        {
          "internalType": "address",
          "name": "to",
          "type": "address"
        },
        {
          "internalType": "uint256",
          "name": "tokenId",
          "type": "uint256"
        }
      ],
      "name": "transferFrom",
      "outputs": [],
      "stateMutability": "nonpayable",
      "type": "function"
    },
    {
      "inputs": [
        {
          "internalType": "address",
          "name": "newOwner",
          "type": "address"
        }
      ],
      "name": "transferOwnership",
      "outputs": [],
      "stateMutability": "nonpayable",
      "type": "function"
    },
    {
      "inputs": [
        {
          "internalType": "address",
          "name": "_owner",
          "type": "address"
        },
        {
          "internalType": "string",
          "name": "_tokenName",
          "type": "string"
        }
      ],
      "name": "mintToken",
      "outputs": [],
      "stateMutability": "payable",
      "type": "function",
      "payable": true
    },
    {
      "inputs": [
        {
          "internalType": "uint256",
          "name": "_price",
          "type": "uint256"
        }
      ],
      "name": "setMintingPrice",
      "outputs": [],
      "stateMutability": "nonpayable",
      "type": "function"
    }
  ],
  "bytecode": "0x60806040523480156200001157600080fd5b5060405162003d3938038062003d3983398181016040528101906200003791906200032b565b828281600090816200004a919062000606565b5080600190816200005c919062000606565b5050506200007f620000736200008f60201b60201c565b6200009760201b60201c565b80600b81905550505050620006ed565b600033905090565b6000600a60009054906101000a900473ffffffffffffffffffffffffffffffffffffffff16905081600a60006101000a81548173ffffffffffffffffffffffffffffffffffffffff021916908373ffffffffffffffffffffffffffffffffffffffff1602179055508173ffffffffffffffffffffffffffffffffffffffff168173ffffffffffffffffffffffffffffffffffffffff167f8be0079c531659141344cd1fd0a4f28419497f9722a3daafe3b4186f6b6457e060405160405180910390a35050565b6000604051905090565b600080fd5b600080fd5b600080fd5b600080fd5b6000601f19601f8301169050919050565b7f4e487b7100000000000000000000000000000000000000000000000000000000600052604160045260246000fd5b620001c6826200017b565b810181811067ffffffffffffffff82111715620001e857620001e76200018c565b5b80604052505050565b6000620001fd6200015d565b90506200020b8282620001bb565b919050565b600067ffffffffffffffff8211156200022e576200022d6200018c565b5b62000239826200017b565b9050602081019050919050565b60005b838110156200026657808201518184015260208101905062000249565b60008484015250505050565b600062000289620002838462000210565b620001f1565b905082815260208101848484011115620002a857620002a762000176565b5b620002b584828562000246565b509392505050565b600082601f830112620002d557620002d462000171565b5b8151620002e784826020860162000272565b91505092915050565b6000819050919050565b6200030581620002f0565b81146200031157600080fd5b50565b6000815190506200032581620002fa565b92915050565b60008060006060848603121562000347576200034662000167565b5b600084015167ffffffffffffffff8111156200036857620003676200016c565b5b6200037686828701620002bd565b935050602084015167ffffffffffffffff8111156200039a57620003996200016c565b5b620003a886828701620002bd565b9250506040620003bb8682870162000314565b9150509250925092565b600081519050919050565b7f4e487b7100000000000000000000000000000000000000000000000000000000600052602260045260246000fd5b600060028204905060018216806200041857607f821691505b6020821081036200042e576200042d620003d0565b5b50919050565b60008190508160005260206000209050919050565b60006020601f8301049050919050565b600082821b905092915050565b600060088302620004987fffffffffffffffffffffffffffffffffffffffffffffffffffffffffffffffff8262000459565b620004a4868362000459565b95508019841693508086168417925050509392505050565b6000819050919050565b6000620004e7620004e1620004db84620002f0565b620004bc565b620002f0565b9050919050565b6000819050919050565b6200050383620004c6565b6200051b6200051282620004ee565b84845462000466565b825550505050565b600090565b6200053262000523565b6200053f818484620004f8565b505050565b5b8181101562000567576200055b60008262000528565b60018101905062000545565b5050565b601f821115620005b657620005808162000434565b6200058b8462000449565b810160208510156200059b578190505b620005b3620005aa8562000449565b83018262000544565b50505b505050565b600082821c905092915050565b6000620005db60001984600802620005bb565b1980831691505092915050565b6000620005f68383620005c8565b9150826002028217905092915050565b6200061182620003c5565b67ffffffffffffffff8111156200062d576200062c6200018c565b5b620006398254620003ff565b620006468282856200056b565b600060209050601f8311600181146200067e576000841562000669578287015190505b620006758582620005e8565b865550620006e5565b601f1984166200068e8662000434565b60005b82811015620006b85784890151825560018201915060208501945060208101905062000691565b86831015620006d85784890151620006d4601f891682620005c8565b8355505b6001600288020188555050505b505050505050565b61363c80620006fd6000396000f3fe60806040526004361061012a5760003560e01c80636352211e116100ab57806395d89b411161006f57806395d89b41146103f5578063a22cb46514610420578063b88d4fde14610449578063c87b56dd14610472578063e985e9c5146104af578063f2fde38b146104ec5761012a565b80636352211e1461031057806370a082311461034d578063715018a61461038a5780638417b47f146103a15780638da5cb5b146103ca5761012a565b806323b872dd116100f257806323b872dd146102285780632f745c59146102515780633d02d0c91461028e57806342842e0e146102aa5780634f6ccce7146102d35761012a565b806301ffc9a71461012f57806306fdde031461016c578063081812fc14610197578063095ea7b3146101d457806318160ddd146101fd575b600080fd5b34801561013b57600080fd5b50610156600480360381019061015191906121af565b610515565b60405161016391906121f7565b60405180910390f35b34801561017857600080fd5b5061018161058f565b60405161018e91906122a2565b60405180910390f35b3480156101a357600080fd5b506101be60048036038101906101b991906122fa565b610621565b6040516101cb9190612368565b60405180910390f35b3480156101e057600080fd5b506101fb60048036038101906101f691906123af565b6106a6565b005b34801561020957600080fd5b506102126107bd565b60405161021f91906123fe565b60405180910390f35b34801561023457600080fd5b5061024f600480360381019061024a9190612419565b6107ca565b005b34801561025d57600080fd5b50610278600480360381019061027391906123af565b61082a565b60405161028591906123fe565b60405180910390f35b6102a860048036038101906102a391906125a1565b6108cf565b005b3480156102b657600080fd5b506102d160048036038101906102cc9190612419565b6109eb565b005b3480156102df57600080fd5b506102fa60048036038101906102f591906122fa565b610a0b565b60405161030791906123fe565b60405180910390f35b34801561031c57600080fd5b50610337600480360381019061033291906122fa565b610a7c565b6040516103449190612368565b60405180910390f35b34801561035957600080fd5b50610374600480360381019061036f91906125fd565b610b2d565b60405161038191906123fe565b60405180910390f35b34801561039657600080fd5b5061039f610be4565b005b3480156103ad57600080fd5b506103c860048036038101906103c391906122fa565b610c6c565b005b3480156103d657600080fd5b506103df610c76565b6040516103ec9190612368565b60405180910390f35b34801561040157600080fd5b5061040a610ca0565b60405161041791906122a2565b60405180910390f35b34801561042c57600080fd5b5061044760048036038101906104429190612656565b610d32565b005b34801561045557600080fd5b50610470600480360381019061046b9190612737565b610d48565b005b34801561047e57600080fd5b50610499600480360381019061049491906122fa565b610daa565b6040516104a691906122a2565b60405180910390f35b3480156104bb57600080fd5b506104d660048036038101906104d191906127ba565b610e51565b6040516104e391906121f7565b60405180910390f35b3480156104f857600080fd5b50610513600480360381019061050e91906125fd565b610ee5565b005b60007f780e9d63000000000000000000000000000000000000000000000000000000007bffffffffffffffffffffffffffffffffffffffffffffffffffffffff1916827bffffffffffffffffffffffffffffffffffffffffffffffffffffffff19161480610588575061058782610fdc565b5b9050919050565b60606000805461059e90612829565b80601f01602080910402602001604051908101604052809291908181526020018280546105ca90612829565b80156106175780601f106105ec57610100808354040283529160200191610617565b820191906000526020600020905b8154815290600101906020018083116105fa57829003601f168201915b5050505050905090565b600061062c826110be565b61066b576040517f08c379a0000000000000000000000000000000000000000000000000000000008152600401610662906128cc565b60405180910390fd5b6004600083815260200190815260200160002060009054906101000a900473ffffffffffffffffffffffffffffffffffffffff169050919050565b60006106b182610a7c565b90508073ffffffffffffffffffffffffffffffffffffffff168373ffffffffffffffffffffffffffffffffffffffff1603610721576040517f08c379a00000000000000000000000000000000000000000000000000000000081526004016107189061295e565b60405180910390fd5b8073ffffffffffffffffffffffffffffffffffffffff1661074061112a565b73ffffffffffffffffffffffffffffffffffffffff16148061076f575061076e8161076961112a565b610e51565b5b6107ae576040517f08c379a00000000000000000000000000000000000000000000000000000000081526004016107a5906129f0565b60405180910390fd5b6107b88383611132565b505050565b6000600880549050905090565b6107db6107d561112a565b826111eb565b61081a576040517f08c379a000000000000000000000000000000000000000000000000000000000815260040161081190612a82565b60405180910390fd5b6108258383836112c9565b505050565b600061083583610b2d565b8210610876576040517f08c379a000000000000000000000000000000000000000000000000000000000815260040161086d90612b14565b60405180910390fd5b600660008473ffffffffffffffffffffffffffffffffffffffff1673ffffffffffffffffffffffffffffffffffffffff168152602001908152602001600020600083815260200190815260200160002054905092915050565b600b54341015610914576040517f08c379a000000000000000000000000000000000000000000000000000000000815260040161090b90612b80565b60405180910390fd5b606461091e6107bd565b1061095e576040517f08c379a000000000000000000000000000000000000000000000000000000000815260040161095590612bec565b60405180910390fd5b6000816040516020016109719190612c48565b6040516020818303038152906040528051906020012060001c9050808373ffffffffffffffffffffffffffffffffffffffff167f68deb7aa6ea42a0c04acd32ab0c58bb6134c7e51a3d74d827da1118677e47a7160405160405180910390a36109dc6000848361152f565b6109e68382611641565b505050565b610a0683838360405180602001604052806000815250610d48565b505050565b6000610a156107bd565b8210610a56576040517f08c379a0000000000000000000000000000000000000000000000000000000008152600401610a4d90612cd1565b60405180910390fd5b60088281548110610a6a57610a69612cf1565b5b90600052602060002001549050919050565b6000806002600084815260200190815260200160002060009054906101000a900473ffffffffffffffffffffffffffffffffffffffff169050600073ffffffffffffffffffffffffffffffffffffffff168173ffffffffffffffffffffffffffffffffffffffff1603610b24576040517f08c379a0000000000000000000000000000000000000000000000000000000008152600401610b1b90612d92565b60405180910390fd5b80915050919050565b60008073ffffffffffffffffffffffffffffffffffffffff168273ffffffffffffffffffffffffffffffffffffffff1603610b9d576040517f08c379a0000000000000000000000000000000000000000000000000000000008152600401610b9490612e24565b60405180910390fd5b600360008373ffffffffffffffffffffffffffffffffffffffff1673ffffffffffffffffffffffffffffffffffffffff168152602001908152602001600020549050919050565b610bec61112a565b73ffffffffffffffffffffffffffffffffffffffff16610c0a610c76565b73ffffffffffffffffffffffffffffffffffffffff1614610c60576040517f08c379a0000000000000000000000000000000000000000000000000000000008152600401610c5790612e90565b60405180910390fd5b610c6a600061181a565b565b80600b8190555050565b6000600a60009054906101000a900473ffffffffffffffffffffffffffffffffffffffff16905090565b606060018054610caf90612829565b80601f0160208091040260200160405190810160405280929190818152602001828054610cdb90612829565b8015610d285780601f10610cfd57610100808354040283529160200191610d28565b820191906000526020600020905b815481529060010190602001808311610d0b57829003601f168201915b5050505050905090565b610d44610d3d61112a565b83836118e0565b5050565b610d59610d5361112a565b836111eb565b610d98576040517f08c379a0000000000000000000000000000000000000000000000000000000008152600401610d8f90612a82565b60405180910390fd5b610da484848484611a4c565b50505050565b6060610db5826110be565b610df4576040517f08c379a0000000000000000000000000000000000000000000000000000000008152600401610deb90612f22565b60405180910390fd5b6000610dfe611aa8565b90506000815111610e1e5760405180602001604052806000815250610e49565b80610e2884611abf565b604051602001610e39929190612f42565b6040516020818303038152906040525b915050919050565b6000600560008473ffffffffffffffffffffffffffffffffffffffff1673ffffffffffffffffffffffffffffffffffffffff16815260200190815260200160002060008373ffffffffffffffffffffffffffffffffffffffff1673ffffffffffffffffffffffffffffffffffffffff16815260200190815260200160002060009054906101000a900460ff16905092915050565b610eed61112a565b73ffffffffffffffffffffffffffffffffffffffff16610f0b610c76565b73ffffffffffffffffffffffffffffffffffffffff1614610f61576040517f08c379a0000000000000000000000000000000000000000000000000000000008152600401610f5890612e90565b60405180910390fd5b600073ffffffffffffffffffffffffffffffffffffffff168173ffffffffffffffffffffffffffffffffffffffff1603610fd0576040517f08c379a0000000000000000000000000000000000000000000000000000000008152600401610fc790612fd8565b60405180910390fd5b610fd98161181a565b50565b60007f80ac58cd000000000000000000000000000000000000000000000000000000007bffffffffffffffffffffffffffffffffffffffffffffffffffffffff1916827bffffffffffffffffffffffffffffffffffffffffffffffffffffffff191614806110a757507f5b5e139f000000000000000000000000000000000000000000000000000000007bffffffffffffffffffffffffffffffffffffffffffffffffffffffff1916827bffffffffffffffffffffffffffffffffffffffffffffffffffffffff1916145b806110b757506110b682611c1f565b5b9050919050565b60008073ffffffffffffffffffffffffffffffffffffffff166002600084815260200190815260200160002060009054906101000a900473ffffffffffffffffffffffffffffffffffffffff1673ffffffffffffffffffffffffffffffffffffffff1614159050919050565b600033905090565b816004600083815260200190815260200160002060006101000a81548173ffffffffffffffffffffffffffffffffffffffff021916908373ffffffffffffffffffffffffffffffffffffffff160217905550808273ffffffffffffffffffffffffffffffffffffffff166111a583610a7c565b73ffffffffffffffffffffffffffffffffffffffff167f8c5be1e5ebec7d5bd14f71427d1e84f3dd0314c0f7b2291e5b200ac8c7c3b92560405160405180910390a45050565b60006111f6826110be565b611235576040517f08c379a000000000000000000000000000000000000000000000000000000000815260040161122c9061306a565b60405180910390fd5b600061124083610a7c565b90508073ffffffffffffffffffffffffffffffffffffffff168473ffffffffffffffffffffffffffffffffffffffff16148061128257506112818185610e51565b5b806112c057508373ffffffffffffffffffffffffffffffffffffffff166112a884610621565b73ffffffffffffffffffffffffffffffffffffffff16145b91505092915050565b8273ffffffffffffffffffffffffffffffffffffffff166112e982610a7c565b73ffffffffffffffffffffffffffffffffffffffff161461133f576040517f08c379a0000000000000000000000000000000000000000000000000000000008152600401611336906130fc565b60405180910390fd5b600073ffffffffffffffffffffffffffffffffffffffff168273ffffffffffffffffffffffffffffffffffffffff16036113ae576040517f08c379a00000000000000000000000000000000000000000000000000000000081526004016113a59061318e565b60405180910390fd5b6113b983838361152f565b6113c4600082611132565b6001600360008573ffffffffffffffffffffffffffffffffffffffff1673ffffffffffffffffffffffffffffffffffffffff168152602001908152602001600020600082825461141491906131dd565b925050819055506001600360008473ffffffffffffffffffffffffffffffffffffffff1673ffffffffffffffffffffffffffffffffffffffff168152602001908152602001600020600082825461146b9190613211565b92505081905550816002600083815260200190815260200160002060006101000a81548173ffffffffffffffffffffffffffffffffffffffff021916908373ffffffffffffffffffffffffffffffffffffffff160217905550808273ffffffffffffffffffffffffffffffffffffffff168473ffffffffffffffffffffffffffffffffffffffff167fddf252ad1be2c89b69c2b068fc378daa952ba7f163c4a11628f55a4df523b3ef60405160405180910390a461152a838383611c89565b505050565b61153a838383611c8e565b600073ffffffffffffffffffffffffffffffffffffffff168373ffffffffffffffffffffffffffffffffffffffff160361157c5761157781611c93565b6115bb565b8173ffffffffffffffffffffffffffffffffffffffff168373ffffffffffffffffffffffffffffffffffffffff16146115ba576115b98382611cdc565b5b5b600073ffffffffffffffffffffffffffffffffffffffff168273ffffffffffffffffffffffffffffffffffffffff16036115fd576115f881611e49565b61163c565b8273ffffffffffffffffffffffffffffffffffffffff168273ffffffffffffffffffffffffffffffffffffffff161461163b5761163a8282611f1a565b5b5b505050565b600073ffffffffffffffffffffffffffffffffffffffff168273ffffffffffffffffffffffffffffffffffffffff16036116b0576040517f08c379a00000000000000000000000000000000000000000000000000000000081526004016116a790613291565b60405180910390fd5b6116b9816110be565b156116f9576040517f08c379a00000000000000000000000000000000000000000000000000000000081526004016116f0906132fd565b60405180910390fd5b6117056000838361152f565b6001600360008473ffffffffffffffffffffffffffffffffffffffff1673ffffffffffffffffffffffffffffffffffffffff16815260200190815260200160002060008282546117559190613211565b92505081905550816002600083815260200190815260200160002060006101000a81548173ffffffffffffffffffffffffffffffffffffffff021916908373ffffffffffffffffffffffffffffffffffffffff160217905550808273ffffffffffffffffffffffffffffffffffffffff16600073ffffffffffffffffffffffffffffffffffffffff167fddf252ad1be2c89b69c2b068fc378daa952ba7f163c4a11628f55a4df523b3ef60405160405180910390a461181660008383611c89565b5050565b6000600a60009054906101000a900473ffffffffffffffffffffffffffffffffffffffff16905081600a60006101000a81548173ffffffffffffffffffffffffffffffffffffffff021916908373ffffffffffffffffffffffffffffffffffffffff1602179055508173ffffffffffffffffffffffffffffffffffffffff168173ffffffffffffffffffffffffffffffffffffffff167f8be0079c531659141344cd1fd0a4f28419497f9722a3daafe3b4186f6b6457e060405160405180910390a35050565b8173ffffffffffffffffffffffffffffffffffffffff168373ffffffffffffffffffffffffffffffffffffffff160361194e576040517f08c379a000000000000000000000000000000000000000000000000000000000815260040161194590613369565b60405180910390fd5b80600560008573ffffffffffffffffffffffffffffffffffffffff1673ffffffffffffffffffffffffffffffffffffffff16815260200190815260200160002060008473ffffffffffffffffffffffffffffffffffffffff1673ffffffffffffffffffffffffffffffffffffffff16815260200190815260200160002060006101000a81548160ff0219169083151502179055508173ffffffffffffffffffffffffffffffffffffffff168373ffffffffffffffffffffffffffffffffffffffff167f17307eab39ab6107e8899845ad3d59bd9653f200f220920489ca2b5937696c3183604051611a3f91906121f7565b60405180910390a3505050565b611a578484846112c9565b611a6384848484611f99565b611aa2576040517f08c379a0000000000000000000000000000000000000000000000000000000008152600401611a99906133fb565b60405180910390fd5b50505050565b606060405180602001604052806000815250905090565b606060008203611b06576040518060400160405280600181526020017f30000000000000000000000000000000000000000000000000000000000000008152509050611c1a565b600082905060005b60008214611b38578080611b219061341b565b915050600a82611b319190613492565b9150611b0e565b60008167ffffffffffffffff811115611b5457611b53612476565b5b6040519080825280601f01601f191660200182016040528015611b865781602001600182028036833780820191505090505b5090505b60008514611c1357600182611b9f91906131dd565b9150600a85611bae91906134c3565b6030611bba9190613211565b60f81b818381518110611bd057611bcf612cf1565b5b60200101907effffffffffffffffffffffffffffffffffffffffffffffffffffffffffffff1916908160001a905350600a85611c0c9190613492565b9450611b8a565b8093505050505b919050565b60007f01ffc9a7000000000000000000000000000000000000000000000000000000007bffffffffffffffffffffffffffffffffffffffffffffffffffffffff1916827bffffffffffffffffffffffffffffffffffffffffffffffffffffffff1916149050919050565b505050565b505050565b6008805490506009600083815260200190815260200160002081905550600881908060018154018082558091505060019003906000526020600020016000909190919091505550565b60006001611ce984610b2d565b611cf391906131dd565b9050600060076000848152602001908152602001600020549050818114611dd8576000600660008673ffffffffffffffffffffffffffffffffffffffff1673ffffffffffffffffffffffffffffffffffffffff168152602001908152602001600020600084815260200190815260200160002054905080600660008773ffffffffffffffffffffffffffffffffffffffff1673ffffffffffffffffffffffffffffffffffffffff168152602001908152602001600020600084815260200190815260200160002081905550816007600083815260200190815260200160002081905550505b6007600084815260200190815260200160002060009055600660008573ffffffffffffffffffffffffffffffffffffffff1673ffffffffffffffffffffffffffffffffffffffff16815260200190815260200160002060008381526020019081526020016000206000905550505050565b60006001600880549050611e5d91906131dd565b9050600060096000848152602001908152602001600020549050600060088381548110611e8d57611e8c612cf1565b5b906000526020600020015490508060088381548110611eaf57611eae612cf1565b5b906000526020600020018190555081600960008381526020019081526020016000208190555060096000858152602001908152602001600020600090556008805480611efe57611efd6134f4565b5b6001900381819060005260206000200160009055905550505050565b6000611f2583610b2d565b905081600660008573ffffffffffffffffffffffffffffffffffffffff1673ffffffffffffffffffffffffffffffffffffffff168152602001908152602001600020600083815260200190815260200160002081905550806007600084815260200190815260200160002081905550505050565b6000611fba8473ffffffffffffffffffffffffffffffffffffffff16612120565b15612113578373ffffffffffffffffffffffffffffffffffffffff1663150b7a02611fe361112a565b8786866040518563ffffffff1660e01b81526004016120059493929190613578565b6020604051808303816000875af192505050801561204157506040513d601f19601f8201168201806040525081019061203e91906135d9565b60015b6120c3573d8060008114612071576040519150601f19603f3d011682016040523d82523d6000602084013e612076565b606091505b5060008151036120bb576040517f08c379a00000000000000000000000000000000000000000000000000000000081526004016120b2906133fb565b60405180910390fd5b805181602001fd5b63150b7a0260e01b7bffffffffffffffffffffffffffffffffffffffffffffffffffffffff1916817bffffffffffffffffffffffffffffffffffffffffffffffffffffffff191614915050612118565b600190505b949350505050565b6000808273ffffffffffffffffffffffffffffffffffffffff163b119050919050565b6000604051905090565b600080fd5b600080fd5b60007fffffffff0000000000000000000000000000000000000000000000000000000082169050919050565b61218c81612157565b811461219757600080fd5b50565b6000813590506121a981612183565b92915050565b6000602082840312156121c5576121c461214d565b5b60006121d38482850161219a565b91505092915050565b60008115159050919050565b6121f1816121dc565b82525050565b600060208201905061220c60008301846121e8565b92915050565b600081519050919050565b600082825260208201905092915050565b60005b8381101561224c578082015181840152602081019050612231565b60008484015250505050565b6000601f19601f8301169050919050565b600061227482612212565b61227e818561221d565b935061228e81856020860161222e565b61229781612258565b840191505092915050565b600060208201905081810360008301526122bc8184612269565b905092915050565b6000819050919050565b6122d7816122c4565b81146122e257600080fd5b50565b6000813590506122f4816122ce565b92915050565b6000602082840312156123105761230f61214d565b5b600061231e848285016122e5565b91505092915050565b600073ffffffffffffffffffffffffffffffffffffffff82169050919050565b600061235282612327565b9050919050565b61236281612347565b82525050565b600060208201905061237d6000830184612359565b92915050565b61238c81612347565b811461239757600080fd5b50565b6000813590506123a981612383565b92915050565b600080604083850312156123c6576123c561214d565b5b60006123d48582860161239a565b92505060206123e5858286016122e5565b9150509250929050565b6123f8816122c4565b82525050565b600060208201905061241360008301846123ef565b92915050565b6000806000606084860312156124325761243161214d565b5b60006124408682870161239a565b93505060206124518682870161239a565b9250506040612462868287016122e5565b9150509250925092565b600080fd5b600080fd5b7f4e487b7100000000000000000000000000000000000000000000000000000000600052604160045260246000fd5b6124ae82612258565b810181811067ffffffffffffffff821117156124cd576124cc612476565b5b80604052505050565b60006124e0612143565b90506124ec82826124a5565b919050565b600067ffffffffffffffff82111561250c5761250b612476565b5b61251582612258565b9050602081019050919050565b82818337600083830152505050565b600061254461253f846124f1565b6124d6565b9050828152602081018484840111156125605761255f612471565b5b61256b848285612522565b509392505050565b600082601f8301126125885761258761246c565b5b8135612598848260208601612531565b91505092915050565b600080604083850312156125b8576125b761214d565b5b60006125c68582860161239a565b925050602083013567ffffffffffffffff8111156125e7576125e6612152565b5b6125f385828601612573565b9150509250929050565b6000602082840312156126135761261261214d565b5b60006126218482850161239a565b91505092915050565b612633816121dc565b811461263e57600080fd5b50565b6000813590506126508161262a565b92915050565b6000806040838503121561266d5761266c61214d565b5b600061267b8582860161239a565b925050602061268c85828601612641565b9150509250929050565b600067ffffffffffffffff8211156126b1576126b0612476565b5b6126ba82612258565b9050602081019050919050565b60006126da6126d584612696565b6124d6565b9050828152602081018484840111156126f6576126f5612471565b5b612701848285612522565b509392505050565b600082601f83011261271e5761271d61246c565b5b813561272e8482602086016126c7565b91505092915050565b600080600080608085870312156127515761275061214d565b5b600061275f8782880161239a565b94505060206127708782880161239a565b9350506040612781878288016122e5565b925050606085013567ffffffffffffffff8111156127a2576127a1612152565b5b6127ae87828801612709565b91505092959194509250565b600080604083850312156127d1576127d061214d565b5b60006127df8582860161239a565b92505060206127f08582860161239a565b9150509250929050565b7f4e487b7100000000000000000000000000000000000000000000000000000000600052602260045260246000fd5b6000600282049050600182168061284157607f821691505b602082108103612854576128536127fa565b5b50919050565b7f4552433732313a20617070726f76656420717565727920666f72206e6f6e657860008201527f697374656e7420746f6b656e0000000000000000000000000000000000000000602082015250565b60006128b6602c8361221d565b91506128c18261285a565b604082019050919050565b600060208201905081810360008301526128e5816128a9565b9050919050565b7f4552433732313a20617070726f76616c20746f2063757272656e74206f776e6560008201527f7200000000000000000000000000000000000000000000000000000000000000602082015250565b600061294860218361221d565b9150612953826128ec565b604082019050919050565b600060208201905081810360008301526129778161293b565b9050919050565b7f4552433732313a20617070726f76652063616c6c6572206973206e6f74206f7760008201527f6e6572206e6f7220617070726f76656420666f7220616c6c0000000000000000602082015250565b60006129da60388361221d565b91506129e58261297e565b604082019050919050565b60006020820190508181036000830152612a09816129cd565b9050919050565b7f4552433732313a207472616e736665722063616c6c6572206973206e6f74206f60008201527f776e6572206e6f7220617070726f766564000000000000000000000000000000602082015250565b6000612a6c60318361221d565b9150612a7782612a10565b604082019050919050565b60006020820190508181036000830152612a9b81612a5f565b9050919050565b7f455243373231456e756d657261626c653a206f776e657220696e646578206f7560008201527f74206f6620626f756e6473000000000000000000000000000000000000000000602082015250565b6000612afe602b8361221d565b9150612b0982612aa2565b604082019050919050565b60006020820190508181036000830152612b2d81612af1565b9050919050565b7f696e73756666696369656e74206d6f6e657920746f206d696e74000000000000600082015250565b6000612b6a601a8361221d565b9150612b7582612b34565b602082019050919050565b60006020820190508181036000830152612b9981612b5d565b9050919050565b7f657863656564696e6720746865206d6178696d756d2069737375616e63650000600082015250565b6000612bd6601e8361221d565b9150612be182612ba0565b602082019050919050565b60006020820190508181036000830152612c0581612bc9565b9050919050565b600081905092915050565b6000612c2282612212565b612c2c8185612c0c565b9350612c3c81856020860161222e565b80840191505092915050565b6000612c548284612c17565b915081905092915050565b7f455243373231456e756d657261626c653a20676c6f62616c20696e646578206f60008201527f7574206f6620626f756e64730000000000000000000000000000000000000000602082015250565b6000612cbb602c8361221d565b9150612cc682612c5f565b604082019050919050565b60006020820190508181036000830152612cea81612cae565b9050919050565b7f4e487b7100000000000000000000000000000000000000000000000000000000600052603260045260246000fd5b7f4552433732313a206f776e657220717565727920666f72206e6f6e657869737460008201527f656e7420746f6b656e0000000000000000000000000000000000000000000000602082015250565b6000612d7c60298361221d565b9150612d8782612d20565b604082019050919050565b60006020820190508181036000830152612dab81612d6f565b9050919050565b7f4552433732313a2062616c616e636520717565727920666f7220746865207a6560008201527f726f206164647265737300000000000000000000000000000000000000000000602082015250565b6000612e0e602a8361221d565b9150612e1982612db2565b604082019050919050565b60006020820190508181036000830152612e3d81612e01565b9050919050565b7f4f776e61626c653a2063616c6c6572206973206e6f7420746865206f776e6572600082015250565b6000612e7a60208361221d565b9150612e8582612e44565b602082019050919050565b60006020820190508181036000830152612ea981612e6d565b9050919050565b7f4552433732314d657461646174613a2055524920717565727920666f72206e6f60008201527f6e6578697374656e7420746f6b656e0000000000000000000000000000000000602082015250565b6000612f0c602f8361221d565b9150612f1782612eb0565b604082019050919050565b60006020820190508181036000830152612f3b81612eff565b9050919050565b6000612f4e8285612c17565b9150612f5a8284612c17565b91508190509392505050565b7f4f776e61626c653a206e6577206f776e657220697320746865207a65726f206160008201527f6464726573730000000000000000000000000000000000000000000000000000602082015250565b6000612fc260268361221d565b9150612fcd82612f66565b604082019050919050565b60006020820190508181036000830152612ff181612fb5565b9050919050565b7f4552433732313a206f70657261746f7220717565727920666f72206e6f6e657860008201527f697374656e7420746f6b656e0000000000000000000000000000000000000000602082015250565b6000613054602c8361221d565b915061305f82612ff8565b604082019050919050565b6000602082019050818103600083015261308381613047565b9050919050565b7f4552433732313a207472616e736665722066726f6d20696e636f72726563742060008201527f6f776e6572000000000000000000000000000000000000000000000000000000602082015250565b60006130e660258361221d565b91506130f18261308a565b604082019050919050565b60006020820190508181036000830152613115816130d9565b9050919050565b7f4552433732313a207472616e7366657220746f20746865207a65726f2061646460008201527f7265737300000000000000000000000000000000000000000000000000000000602082015250565b600061317860248361221d565b91506131838261311c565b604082019050919050565b600060208201905081810360008301526131a78161316b565b9050919050565b7f4e487b7100000000000000000000000000000000000000000000000000000000600052601160045260246000fd5b60006131e8826122c4565b91506131f3836122c4565b925082820390508181111561320b5761320a6131ae565b5b92915050565b600061321c826122c4565b9150613227836122c4565b925082820190508082111561323f5761323e6131ae565b5b92915050565b7f4552433732313a206d696e7420746f20746865207a65726f2061646472657373600082015250565b600061327b60208361221d565b915061328682613245565b602082019050919050565b600060208201905081810360008301526132aa8161326e565b9050919050565b7f4552433732313a20746f6b656e20616c7265616479206d696e74656400000000600082015250565b60006132e7601c8361221d565b91506132f2826132b1565b602082019050919050565b60006020820190508181036000830152613316816132da565b9050919050565b7f4552433732313a20617070726f766520746f2063616c6c657200000000000000600082015250565b600061335360198361221d565b915061335e8261331d565b602082019050919050565b6000602082019050818103600083015261338281613346565b9050919050565b7f4552433732313a207472616e7366657220746f206e6f6e20455243373231526560008201527f63656976657220696d706c656d656e7465720000000000000000000000000000602082015250565b60006133e560328361221d565b91506133f082613389565b604082019050919050565b60006020820190508181036000830152613414816133d8565b9050919050565b6000613426826122c4565b91507fffffffffffffffffffffffffffffffffffffffffffffffffffffffffffffffff8203613458576134576131ae565b5b600182019050919050565b7f4e487b7100000000000000000000000000000000000000000000000000000000600052601260045260246000fd5b600061349d826122c4565b91506134a8836122c4565b9250826134b8576134b7613463565b5b828204905092915050565b60006134ce826122c4565b91506134d9836122c4565b9250826134e9576134e8613463565b5b828206905092915050565b7f4e487b7100000000000000000000000000000000000000000000000000000000600052603160045260246000fd5b600081519050919050565b600082825260208201905092915050565b600061354a82613523565b613554818561352e565b935061356481856020860161222e565b61356d81612258565b840191505092915050565b600060808201905061358d6000830187612359565b61359a6020830186612359565b6135a760408301856123ef565b81810360608301526135b9818461353f565b905095945050505050565b6000815190506135d381612183565b92915050565b6000602082840312156135ef576135ee61214d565b5b60006135fd848285016135c4565b9150509291505056fea26469706673582212209dd16079dae5ba4e7b18de441c75e62908831c45f65011fd0a16c35685f947f564736f6c63430008110033",
  "immutableReferences": {},
  "source": "// SPDX-License-Identifier: MIT\r\npragma solidity ^0.8.17;\r\n\r\nimport \"../node_modules/openzeppelin-solidity/contracts/access/Ownable.sol\";\r\n\r\n//  \r\nimport \"../node_modules/openzeppelin-solidity/contracts/token/ERC721/extensions/ERC721Enumerable.sol\";\r\n\r\n// NFT   \r\ncontract MintingNft is ERC721Enumerable, Ownable {\r\n\r\n    //    ()\r\n    uint constant private MAX_TOKEN_COUNT = 100;\r\n\r\n    //    (  ..)\r\n    uint private _mintingPrice;\r\n\r\n    constructor(string memory name_, string memory symbol_, uint mintingPrice_) ERC721(name_, symbol_) {\r\n        _mintingPrice = mintingPrice_;\r\n    }\r\n\r\n    //  EOA  \r\n    // owner() public\r\n\r\n    // _allTokens  id \r\n    // _allTokensIndex  id =>    \r\n    // _ownedTokens   => (   =>  id)\r\n    // _ownedTokensIndex  id =>     \r\n\r\n    //   ,   indexed \r\n    event MintingToken(address indexed owner, uint indexed tokenId);\r\n\r\n    function mintToken(address _owner, string memory _tokenName) external payable {\r\n\r\n        // wei   ..\r\n        require(msg.value >= _mintingPrice, \"insufficient money to mint\");\r\n\r\n        //      \r\n        require(totalSupply() < MAX_TOKEN_COUNT, \"exceeding the maximum issuance\");\r\n\r\n        //    tokenId \r\n        uint tokenId = uint(keccak256(abi.encodePacked(_tokenName)));\r\n        emit MintingToken(_owner, tokenId);\r\n\r\n        // ERC721Enumerable   \r\n        _beforeTokenTransfer(address(0), _owner, tokenId);\r\n\r\n        // ERC721   \r\n        _mint(_owner, tokenId);\r\n    }\r\n\r\n    //   ..\r\n    function setMintingPrice(uint _price) external {\r\n        _mintingPrice = _price;\r\n    }\r\n\r\n    //   : baseURI/tokenId\r\n    //      ..\r\n    \r\n}\r\n\r\n// npx truffle init\r\n// npm i openzeppelin-solidity",
  "sourcePath": "C:\\Users\\KGA_\\Desktop\\NFT_1219\\blockChain\\contracts\\MintingNft.sol",
  "compiler": {
    "name": "solc",
    "version": "0.8.17+commit.8df45f5f.Emscripten.clang"
  },
  "schemaVersion": "3.4.11",
  "updatedAt": "2022-12-20T05:17:45.837Z",
  "networkType": "ethereum",
  "devdoc": {
    "kind": "dev",
    "methods": {
      "approve(address,uint256)": {
        "details": "See {IERC721-approve}."
      },
      "balanceOf(address)": {
        "details": "See {IERC721-balanceOf}."
      },
      "getApproved(uint256)": {
        "details": "See {IERC721-getApproved}."
      },
      "isApprovedForAll(address,address)": {
        "details": "See {IERC721-isApprovedForAll}."
      },
      "name()": {
        "details": "See {IERC721Metadata-name}."
      },
      "owner()": {
        "details": "Returns the address of the current owner."
      },
      "ownerOf(uint256)": {
        "details": "See {IERC721-ownerOf}."
      },
      "renounceOwnership()": {
        "details": "Leaves the contract without owner. It will not be possible to call `onlyOwner` functions anymore. Can only be called by the current owner. NOTE: Renouncing ownership will leave the contract without an owner, thereby removing any functionality that is only available to the owner."
      },
      "safeTransferFrom(address,address,uint256)": {
        "details": "See {IERC721-safeTransferFrom}."
      },
      "safeTransferFrom(address,address,uint256,bytes)": {
        "details": "See {IERC721-safeTransferFrom}."
      },
      "setApprovalForAll(address,bool)": {
        "details": "See {IERC721-setApprovalForAll}."
      },
      "supportsInterface(bytes4)": {
        "details": "See {IERC165-supportsInterface}."
      },
      "symbol()": {
        "details": "See {IERC721Metadata-symbol}."
      },
      "tokenByIndex(uint256)": {
        "details": "See {IERC721Enumerable-tokenByIndex}."
      },
      "tokenOfOwnerByIndex(address,uint256)": {
        "details": "See {IERC721Enumerable-tokenOfOwnerByIndex}."
      },
      "tokenURI(uint256)": {
        "details": "See {IERC721Metadata-tokenURI}."
      },
      "totalSupply()": {
        "details": "See {IERC721Enumerable-totalSupply}."
      },
      "transferFrom(address,address,uint256)": {
        "details": "See {IERC721-transferFrom}."
      },
      "transferOwnership(address)": {
        "details": "Transfers ownership of the contract to a new account (`newOwner`). Can only be called by the current owner."
      }
    },
    "version": 1
  },
  "userdoc": {
    "kind": "user",
    "methods": {},
    "version": 1
  }
}