{
  "contractName": "MintingNft",
  "abi": [
    {
      "inputs": [
        {
          "internalType": "string",
          "name": "name_",
          "type": "string"
        },
        {
          "internalType": "string",
          "name": "symbol_",
          "type": "string"
        },
        {
          "internalType": "uint256",
          "name": "mintingLimit_",
          "type": "uint256"
        },
        {
          "internalType": "uint256",
          "name": "mintingPrice_",
          "type": "uint256"
        },
        {
          "internalType": "string",
          "name": "defaultPath_",
          "type": "string"
        }
      ],
      "stateMutability": "nonpayable",
      "type": "constructor"
    },
    {
      "anonymous": false,
      "inputs": [
        {
          "indexed": true,
          "internalType": "address",
          "name": "owner",
          "type": "address"
        },
        {
          "indexed": true,
          "internalType": "address",
          "name": "approved",
          "type": "address"
        },
        {
          "indexed": true,
          "internalType": "uint256",
          "name": "tokenId",
          "type": "uint256"
        }
      ],
      "name": "Approval",
      "type": "event"
    },
    {
      "anonymous": false,
      "inputs": [
        {
          "indexed": true,
          "internalType": "address",
          "name": "owner",
          "type": "address"
        },
        {
          "indexed": true,
          "internalType": "address",
          "name": "operator",
          "type": "address"
        },
        {
          "indexed": false,
          "internalType": "bool",
          "name": "approved",
          "type": "bool"
        }
      ],
      "name": "ApprovalForAll",
      "type": "event"
    },
    {
      "anonymous": false,
      "inputs": [
        {
          "indexed": true,
          "internalType": "address",
          "name": "previousOwner",
          "type": "address"
        },
        {
          "indexed": true,
          "internalType": "address",
          "name": "newOwner",
          "type": "address"
        }
      ],
      "name": "OwnershipTransferred",
      "type": "event"
    },
    {
      "anonymous": false,
      "inputs": [
        {
          "indexed": true,
          "internalType": "address",
          "name": "from",
          "type": "address"
        },
        {
          "indexed": true,
          "internalType": "address",
          "name": "to",
          "type": "address"
        },
        {
          "indexed": true,
          "internalType": "uint256",
          "name": "tokenId",
          "type": "uint256"
        }
      ],
      "name": "Transfer",
      "type": "event"
    },
    {
      "inputs": [
        {
          "internalType": "address",
          "name": "to",
          "type": "address"
        },
        {
          "internalType": "uint256",
          "name": "tokenId",
          "type": "uint256"
        }
      ],
      "name": "approve",
      "outputs": [],
      "stateMutability": "nonpayable",
      "type": "function"
    },
    {
      "inputs": [
        {
          "internalType": "address",
          "name": "owner",
          "type": "address"
        }
      ],
      "name": "balanceOf",
      "outputs": [
        {
          "internalType": "uint256",
          "name": "",
          "type": "uint256"
        }
      ],
      "stateMutability": "view",
      "type": "function"
    },
    {
      "inputs": [
        {
          "internalType": "uint256",
          "name": "tokenId",
          "type": "uint256"
        }
      ],
      "name": "getApproved",
      "outputs": [
        {
          "internalType": "address",
          "name": "",
          "type": "address"
        }
      ],
      "stateMutability": "view",
      "type": "function"
    },
    {
      "inputs": [
        {
          "internalType": "address",
          "name": "owner",
          "type": "address"
        },
        {
          "internalType": "address",
          "name": "operator",
          "type": "address"
        }
      ],
      "name": "isApprovedForAll",
      "outputs": [
        {
          "internalType": "bool",
          "name": "",
          "type": "bool"
        }
      ],
      "stateMutability": "view",
      "type": "function"
    },
    {
      "inputs": [],
      "name": "name",
      "outputs": [
        {
          "internalType": "string",
          "name": "",
          "type": "string"
        }
      ],
      "stateMutability": "view",
      "type": "function"
    },
    {
      "inputs": [],
      "name": "owner",
      "outputs": [
        {
          "internalType": "address",
          "name": "",
          "type": "address"
        }
      ],
      "stateMutability": "view",
      "type": "function"
    },
    {
      "inputs": [
        {
          "internalType": "uint256",
          "name": "tokenId",
          "type": "uint256"
        }
      ],
      "name": "ownerOf",
      "outputs": [
        {
          "internalType": "address",
          "name": "",
          "type": "address"
        }
      ],
      "stateMutability": "view",
      "type": "function"
    },
    {
      "inputs": [],
      "name": "renounceOwnership",
      "outputs": [],
      "stateMutability": "nonpayable",
      "type": "function"
    },
    {
      "inputs": [
        {
          "internalType": "address",
          "name": "from",
          "type": "address"
        },
        {
          "internalType": "address",
          "name": "to",
          "type": "address"
        },
        {
          "internalType": "uint256",
          "name": "tokenId",
          "type": "uint256"
        }
      ],
      "name": "safeTransferFrom",
      "outputs": [],
      "stateMutability": "nonpayable",
      "type": "function"
    },
    {
      "inputs": [
        {
          "internalType": "address",
          "name": "from",
          "type": "address"
        },
        {
          "internalType": "address",
          "name": "to",
          "type": "address"
        },
        {
          "internalType": "uint256",
          "name": "tokenId",
          "type": "uint256"
        },
        {
          "internalType": "bytes",
          "name": "data",
          "type": "bytes"
        }
      ],
      "name": "safeTransferFrom",
      "outputs": [],
      "stateMutability": "nonpayable",
      "type": "function"
    },
    {
      "inputs": [
        {
          "internalType": "address",
          "name": "operator",
          "type": "address"
        },
        {
          "internalType": "bool",
          "name": "approved",
          "type": "bool"
        }
      ],
      "name": "setApprovalForAll",
      "outputs": [],
      "stateMutability": "nonpayable",
      "type": "function"
    },
    {
      "inputs": [
        {
          "internalType": "bytes4",
          "name": "interfaceId",
          "type": "bytes4"
        }
      ],
      "name": "supportsInterface",
      "outputs": [
        {
          "internalType": "bool",
          "name": "",
          "type": "bool"
        }
      ],
      "stateMutability": "view",
      "type": "function"
    },
    {
      "inputs": [],
      "name": "symbol",
      "outputs": [
        {
          "internalType": "string",
          "name": "",
          "type": "string"
        }
      ],
      "stateMutability": "view",
      "type": "function"
    },
    {
      "inputs": [
        {
          "internalType": "uint256",
          "name": "index",
          "type": "uint256"
        }
      ],
      "name": "tokenByIndex",
      "outputs": [
        {
          "internalType": "uint256",
          "name": "",
          "type": "uint256"
        }
      ],
      "stateMutability": "view",
      "type": "function"
    },
    {
      "inputs": [
        {
          "internalType": "address",
          "name": "owner",
          "type": "address"
        },
        {
          "internalType": "uint256",
          "name": "index",
          "type": "uint256"
        }
      ],
      "name": "tokenOfOwnerByIndex",
      "outputs": [
        {
          "internalType": "uint256",
          "name": "",
          "type": "uint256"
        }
      ],
      "stateMutability": "view",
      "type": "function"
    },
    {
      "inputs": [],
      "name": "totalSupply",
      "outputs": [
        {
          "internalType": "uint256",
          "name": "",
          "type": "uint256"
        }
      ],
      "stateMutability": "view",
      "type": "function"
    },
    {
      "inputs": [
        {
          "internalType": "address",
          "name": "from",
          "type": "address"
        },
        {
          "internalType": "address",
          "name": "to",
          "type": "address"
        },
        {
          "internalType": "uint256",
          "name": "tokenId",
          "type": "uint256"
        }
      ],
      "name": "transferFrom",
      "outputs": [],
      "stateMutability": "nonpayable",
      "type": "function"
    },
    {
      "inputs": [
        {
          "internalType": "address",
          "name": "newOwner",
          "type": "address"
        }
      ],
      "name": "transferOwnership",
      "outputs": [],
      "stateMutability": "nonpayable",
      "type": "function"
    },
    {
      "inputs": [
        {
          "internalType": "address",
          "name": "_tokenOwner",
          "type": "address"
        },
        {
          "internalType": "uint256",
          "name": "_tokenId",
          "type": "uint256"
        }
      ],
      "name": "mintToken",
      "outputs": [],
      "stateMutability": "payable",
      "type": "function"
    },
    {
      "inputs": [
        {
          "internalType": "address",
          "name": "_from",
          "type": "address"
        },
        {
          "internalType": "address",
          "name": "_to",
          "type": "address"
        },
        {
          "internalType": "uint256",
          "name": "_tokenId",
          "type": "uint256"
        }
      ],
      "name": "transferToken",
      "outputs": [],
      "stateMutability": "nonpayable",
      "type": "function"
    },
    {
      "inputs": [
        {
          "internalType": "uint256",
          "name": "_price",
          "type": "uint256"
        }
      ],
      "name": "setMintingPrice",
      "outputs": [],
      "stateMutability": "nonpayable",
      "type": "function"
    },
    {
      "inputs": [
        {
          "internalType": "string",
          "name": "defaultPath_",
          "type": "string"
        }
      ],
      "name": "setDefaultPath",
      "outputs": [],
      "stateMutability": "nonpayable",
      "type": "function"
    },
    {
      "inputs": [
        {
          "internalType": "uint256",
          "name": "_tokenId",
          "type": "uint256"
        }
      ],
      "name": "tokenURI",
      "outputs": [
        {
          "internalType": "string",
          "name": "",
          "type": "string"
        }
      ],
      "stateMutability": "view",
      "type": "function"
    },
    {
      "inputs": [
        {
          "internalType": "address",
          "name": "_owner",
          "type": "address"
        }
      ],
      "name": "getMyTokenIds",
      "outputs": [
        {
          "internalType": "uint256[]",
          "name": "",
          "type": "uint256[]"
        }
      ],
      "stateMutability": "view",
      "type": "function"
    },
    {
      "inputs": [],
      "name": "mintingPrice",
      "outputs": [
        {
          "internalType": "uint256",
          "name": "",
          "type": "uint256"
        }
      ],
      "stateMutability": "view",
      "type": "function"
    },
    {
      "inputs": [],
      "name": "defaultPath",
      "outputs": [
        {
          "internalType": "string",
          "name": "",
          "type": "string"
        }
      ],
      "stateMutability": "view",
      "type": "function"
    }
  ],
  "bytecode": "0x60a06040523480156200001157600080fd5b506040516200439c3803806200439c833981810160405281019062000037919062000347565b848481600090816200004a91906200066d565b5080600190816200005c91906200066d565b5050506200007f62000073620000ab60201b60201c565b620000b360201b60201c565b826080818152505081600b8190555080600c90816200009f91906200066d565b50505050505062000754565b600033905090565b6000600a60009054906101000a900473ffffffffffffffffffffffffffffffffffffffff16905081600a60006101000a81548173ffffffffffffffffffffffffffffffffffffffff021916908373ffffffffffffffffffffffffffffffffffffffff1602179055508173ffffffffffffffffffffffffffffffffffffffff168173ffffffffffffffffffffffffffffffffffffffff167f8be0079c531659141344cd1fd0a4f28419497f9722a3daafe3b4186f6b6457e060405160405180910390a35050565b6000604051905090565b600080fd5b600080fd5b600080fd5b600080fd5b6000601f19601f8301169050919050565b7f4e487b7100000000000000000000000000000000000000000000000000000000600052604160045260246000fd5b620001e28262000197565b810181811067ffffffffffffffff82111715620002045762000203620001a8565b5b80604052505050565b60006200021962000179565b9050620002278282620001d7565b919050565b600067ffffffffffffffff8211156200024a5762000249620001a8565b5b620002558262000197565b9050602081019050919050565b60005b838110156200028257808201518184015260208101905062000265565b60008484015250505050565b6000620002a56200029f846200022c565b6200020d565b905082815260208101848484011115620002c457620002c362000192565b5b620002d184828562000262565b509392505050565b600082601f830112620002f157620002f06200018d565b5b8151620003038482602086016200028e565b91505092915050565b6000819050919050565b62000321816200030c565b81146200032d57600080fd5b50565b600081519050620003418162000316565b92915050565b600080600080600060a0868803121562000366576200036562000183565b5b600086015167ffffffffffffffff81111562000387576200038662000188565b5b6200039588828901620002d9565b955050602086015167ffffffffffffffff811115620003b957620003b862000188565b5b620003c788828901620002d9565b9450506040620003da8882890162000330565b9350506060620003ed8882890162000330565b925050608086015167ffffffffffffffff81111562000411576200041062000188565b5b6200041f88828901620002d9565b9150509295509295909350565b600081519050919050565b7f4e487b7100000000000000000000000000000000000000000000000000000000600052602260045260246000fd5b600060028204905060018216806200047f57607f821691505b60208210810362000495576200049462000437565b5b50919050565b60008190508160005260206000209050919050565b60006020601f8301049050919050565b600082821b905092915050565b600060088302620004ff7fffffffffffffffffffffffffffffffffffffffffffffffffffffffffffffffff82620004c0565b6200050b8683620004c0565b95508019841693508086168417925050509392505050565b6000819050919050565b60006200054e6200054862000542846200030c565b62000523565b6200030c565b9050919050565b6000819050919050565b6200056a836200052d565b62000582620005798262000555565b848454620004cd565b825550505050565b600090565b620005996200058a565b620005a68184846200055f565b505050565b5b81811015620005ce57620005c26000826200058f565b600181019050620005ac565b5050565b601f8211156200061d57620005e7816200049b565b620005f284620004b0565b8101602085101562000602578190505b6200061a6200061185620004b0565b830182620005ab565b50505b505050565b600082821c905092915050565b6000620006426000198460080262000622565b1980831691505092915050565b60006200065d83836200062f565b9150826002028217905092915050565b62000678826200042c565b67ffffffffffffffff811115620006945762000693620001a8565b5b620006a0825462000466565b620006ad828285620005d2565b600060209050601f831160018114620006e55760008415620006d0578287015190505b620006dc85826200064f565b8655506200074c565b601f198416620006f5866200049b565b60005b828110156200071f57848901518255600182019150602085019450602081019050620006f8565b868310156200073f57848901516200073b601f8916826200062f565b8355505b6001600288020188555050505b505050505050565b608051613c2c620007706000396000610c910152613c2c6000f3fe6080604052600436106101815760003560e01c8063715018a6116100d1578063b88d4fde1161008a578063e985e9c511610064578063e985e9c514610585578063f2fde38b146105c2578063f5537ede146105eb578063f763240b1461061457610181565b8063b88d4fde146104f6578063c87b56dd1461051f578063dce1d5621461055c57610181565b8063715018a61461041b57806379c65068146104325780638417b47f1461044e5780638da5cb5b1461047757806395d89b41146104a2578063a22cb465146104cd57610181565b80632f745c591161013e57806342842e0e1161011857806342842e0e1461033b5780634f6ccce7146103645780636352211e146103a157806370a08231146103de57610181565b80632f745c59146102a857806335db70b5146102e5578063421a99881461031057610181565b806301ffc9a71461018657806306fdde03146101c3578063081812fc146101ee578063095ea7b31461022b57806318160ddd1461025457806323b872dd1461027f575b600080fd5b34801561019257600080fd5b506101ad60048036038101906101a891906124f7565b610651565b6040516101ba919061253f565b60405180910390f35b3480156101cf57600080fd5b506101d86106cb565b6040516101e591906125ea565b60405180910390f35b3480156101fa57600080fd5b5061021560048036038101906102109190612642565b61075d565b60405161022291906126b0565b60405180910390f35b34801561023757600080fd5b50610252600480360381019061024d91906126f7565b6107a3565b005b34801561026057600080fd5b506102696108ba565b6040516102769190612746565b60405180910390f35b34801561028b57600080fd5b506102a660048036038101906102a19190612761565b6108c7565b005b3480156102b457600080fd5b506102cf60048036038101906102ca91906126f7565b610927565b6040516102dc9190612746565b60405180910390f35b3480156102f157600080fd5b506102fa6109cc565b6040516103079190612746565b60405180910390f35b34801561031c57600080fd5b506103256109d6565b60405161033291906125ea565b60405180910390f35b34801561034757600080fd5b50610362600480360381019061035d9190612761565b610a68565b005b34801561037057600080fd5b5061038b60048036038101906103869190612642565b610a88565b6040516103989190612746565b60405180910390f35b3480156103ad57600080fd5b506103c860048036038101906103c39190612642565b610af9565b6040516103d591906126b0565b60405180910390f35b3480156103ea57600080fd5b50610405600480360381019061040091906127b4565b610b7f565b6040516104129190612746565b60405180910390f35b34801561042757600080fd5b50610430610c36565b005b61044c600480360381019061044791906126f7565b610c4a565b005b34801561045a57600080fd5b5061047560048036038101906104709190612642565b610d64565b005b34801561048357600080fd5b5061048c610dba565b60405161049991906126b0565b60405180910390f35b3480156104ae57600080fd5b506104b7610de4565b6040516104c491906125ea565b60405180910390f35b3480156104d957600080fd5b506104f460048036038101906104ef919061280d565b610e76565b005b34801561050257600080fd5b5061051d60048036038101906105189190612982565b610e8c565b005b34801561052b57600080fd5b5061054660048036038101906105419190612642565b610eee565b60405161055391906125ea565b60405180910390f35b34801561056857600080fd5b50610583600480360381019061057e9190612aa6565b610f1a565b005b34801561059157600080fd5b506105ac60048036038101906105a79190612aef565b610f35565b6040516105b9919061253f565b60405180910390f35b3480156105ce57600080fd5b506105e960048036038101906105e491906127b4565b610fc9565b005b3480156105f757600080fd5b50610612600480360381019061060d9190612761565b61104c565b005b34801561062057600080fd5b5061063b600480360381019061063691906127b4565b6110d3565b6040516106489190612bed565b60405180910390f35b60007f780e9d63000000000000000000000000000000000000000000000000000000007bffffffffffffffffffffffffffffffffffffffffffffffffffffffff1916827bffffffffffffffffffffffffffffffffffffffffffffffffffffffff191614806106c457506106c3826111c4565b5b9050919050565b6060600080546106da90612c3e565b80601f016020809104026020016040519081016040528092919081815260200182805461070690612c3e565b80156107535780601f1061072857610100808354040283529160200191610753565b820191906000526020600020905b81548152906001019060200180831161073657829003601f168201915b5050505050905090565b6000610768826112a6565b6004600083815260200190815260200160002060009054906101000a900473ffffffffffffffffffffffffffffffffffffffff169050919050565b60006107ae82610af9565b90508073ffffffffffffffffffffffffffffffffffffffff168373ffffffffffffffffffffffffffffffffffffffff160361081e576040517f08c379a000000000000000000000000000000000000000000000000000000000815260040161081590612ce1565b60405180910390fd5b8073ffffffffffffffffffffffffffffffffffffffff1661083d6112f1565b73ffffffffffffffffffffffffffffffffffffffff16148061086c575061086b816108666112f1565b610f35565b5b6108ab576040517f08c379a00000000000000000000000000000000000000000000000000000000081526004016108a290612d73565b60405180910390fd5b6108b583836112f9565b505050565b6000600880549050905090565b6108d86108d26112f1565b826113b2565b610917576040517f08c379a000000000000000000000000000000000000000000000000000000000815260040161090e90612e05565b60405180910390fd5b610922838383611447565b505050565b600061093283610b7f565b8210610973576040517f08c379a000000000000000000000000000000000000000000000000000000000815260040161096a90612e97565b60405180910390fd5b600660008473ffffffffffffffffffffffffffffffffffffffff1673ffffffffffffffffffffffffffffffffffffffff168152602001908152602001600020600083815260200190815260200160002054905092915050565b6000600b54905090565b6060600c80546109e590612c3e565b80601f0160208091040260200160405190810160405280929190818152602001828054610a1190612c3e565b8015610a5e5780601f10610a3357610100808354040283529160200191610a5e565b820191906000526020600020905b815481529060010190602001808311610a4157829003601f168201915b5050505050905090565b610a8383838360405180602001604052806000815250610e8c565b505050565b6000610a926108ba565b8210610ad3576040517f08c379a0000000000000000000000000000000000000000000000000000000008152600401610aca90612f29565b60405180910390fd5b60088281548110610ae757610ae6612f49565b5b90600052602060002001549050919050565b600080610b0583611740565b9050600073ffffffffffffffffffffffffffffffffffffffff168173ffffffffffffffffffffffffffffffffffffffff1603610b76576040517f08c379a0000000000000000000000000000000000000000000000000000000008152600401610b6d90612fc4565b60405180910390fd5b80915050919050565b60008073ffffffffffffffffffffffffffffffffffffffff168273ffffffffffffffffffffffffffffffffffffffff1603610bef576040517f08c379a0000000000000000000000000000000000000000000000000000000008152600401610be690613056565b60405180910390fd5b600360008373ffffffffffffffffffffffffffffffffffffffff1673ffffffffffffffffffffffffffffffffffffffff168152602001908152602001600020549050919050565b610c3e61177d565b610c4860006117fb565b565b34600b541115610c8f576040517f08c379a0000000000000000000000000000000000000000000000000000000008152600401610c86906130c2565b60405180910390fd5b7f0000000000000000000000000000000000000000000000000000000000000000610cb86108ba565b10610cf8576040517f08c379a0000000000000000000000000000000000000000000000000000000008152600401610cef9061312e565b60405180910390fd5b610d00610dba565b73ffffffffffffffffffffffffffffffffffffffff166108fc600b549081150290604051600060405180830381858888f19350505050158015610d47573d6000803e3d6000fd5b50610d566000838360016118c1565b610d608282611a1f565b5050565b610d6c61177d565b80600b5403610db0576040517f08c379a0000000000000000000000000000000000000000000000000000000008152600401610da79061319a565b60405180910390fd5b80600b8190555050565b6000600a60009054906101000a900473ffffffffffffffffffffffffffffffffffffffff16905090565b606060018054610df390612c3e565b80601f0160208091040260200160405190810160405280929190818152602001828054610e1f90612c3e565b8015610e6c5780601f10610e4157610100808354040283529160200191610e6c565b820191906000526020600020905b815481529060010190602001808311610e4f57829003601f168201915b5050505050905090565b610e88610e816112f1565b8383611c3c565b5050565b610e9d610e976112f1565b836113b2565b610edc576040517f08c379a0000000000000000000000000000000000000000000000000000000008152600401610ed390612e05565b60405180910390fd5b610ee884848484611da8565b50505050565b6060600c82604051602001610f0492919061327e565b6040516020818303038152906040529050919050565b610f2261177d565b80600c9081610f31919061343d565b5050565b6000600560008473ffffffffffffffffffffffffffffffffffffffff1673ffffffffffffffffffffffffffffffffffffffff16815260200190815260200160002060008373ffffffffffffffffffffffffffffffffffffffff1673ffffffffffffffffffffffffffffffffffffffff16815260200190815260200160002060009054906101000a900460ff16905092915050565b610fd161177d565b600073ffffffffffffffffffffffffffffffffffffffff168173ffffffffffffffffffffffffffffffffffffffff1603611040576040517f08c379a000000000000000000000000000000000000000000000000000000000815260040161103790613581565b60405180910390fd5b611049816117fb565b50565b808273ffffffffffffffffffffffffffffffffffffffff168473ffffffffffffffffffffffffffffffffffffffff167fddf252ad1be2c89b69c2b068fc378daa952ba7f163c4a11628f55a4df523b3ef60405160405180910390a46110b28383836108c7565b6110c08360008360016118c1565b6110ce6000838360016118c1565b505050565b606060006110e083610b7f565b905060008111611125576040517f08c379a000000000000000000000000000000000000000000000000000000000815260040161111c906135ed565b60405180910390fd5b60008167ffffffffffffffff81111561114157611140612857565b5b60405190808252806020026020018201604052801561116f5781602001602082028036833780820191505090505b50905060005b828110156111b9576111878582610927565b82828151811061119a57611199612f49565b5b60200260200101818152505080806111b19061363c565b915050611175565b508092505050919050565b60007f80ac58cd000000000000000000000000000000000000000000000000000000007bffffffffffffffffffffffffffffffffffffffffffffffffffffffff1916827bffffffffffffffffffffffffffffffffffffffffffffffffffffffff1916148061128f57507f5b5e139f000000000000000000000000000000000000000000000000000000007bffffffffffffffffffffffffffffffffffffffffffffffffffffffff1916827bffffffffffffffffffffffffffffffffffffffffffffffffffffffff1916145b8061129f575061129e82611e04565b5b9050919050565b6112af81611e6e565b6112ee576040517f08c379a00000000000000000000000000000000000000000000000000000000081526004016112e590612fc4565b60405180910390fd5b50565b600033905090565b816004600083815260200190815260200160002060006101000a81548173ffffffffffffffffffffffffffffffffffffffff021916908373ffffffffffffffffffffffffffffffffffffffff160217905550808273ffffffffffffffffffffffffffffffffffffffff1661136c83610af9565b73ffffffffffffffffffffffffffffffffffffffff167f8c5be1e5ebec7d5bd14f71427d1e84f3dd0314c0f7b2291e5b200ac8c7c3b92560405160405180910390a45050565b6000806113be83610af9565b90508073ffffffffffffffffffffffffffffffffffffffff168473ffffffffffffffffffffffffffffffffffffffff16148061140057506113ff8185610f35565b5b8061143e57508373ffffffffffffffffffffffffffffffffffffffff166114268461075d565b73ffffffffffffffffffffffffffffffffffffffff16145b91505092915050565b8273ffffffffffffffffffffffffffffffffffffffff1661146782610af9565b73ffffffffffffffffffffffffffffffffffffffff16146114bd576040517f08c379a00000000000000000000000000000000000000000000000000000000081526004016114b4906136f6565b60405180910390fd5b600073ffffffffffffffffffffffffffffffffffffffff168273ffffffffffffffffffffffffffffffffffffffff160361152c576040517f08c379a000000000000000000000000000000000000000000000000000000000815260040161152390613788565b60405180910390fd5b61153983838360016118c1565b8273ffffffffffffffffffffffffffffffffffffffff1661155982610af9565b73ffffffffffffffffffffffffffffffffffffffff16146115af576040517f08c379a00000000000000000000000000000000000000000000000000000000081526004016115a6906136f6565b60405180910390fd5b6004600082815260200190815260200160002060006101000a81549073ffffffffffffffffffffffffffffffffffffffff02191690556001600360008573ffffffffffffffffffffffffffffffffffffffff1673ffffffffffffffffffffffffffffffffffffffff168152602001908152602001600020600082825403925050819055506001600360008473ffffffffffffffffffffffffffffffffffffffff1673ffffffffffffffffffffffffffffffffffffffff16815260200190815260200160002060008282540192505081905550816002600083815260200190815260200160002060006101000a81548173ffffffffffffffffffffffffffffffffffffffff021916908373ffffffffffffffffffffffffffffffffffffffff160217905550808273ffffffffffffffffffffffffffffffffffffffff168473ffffffffffffffffffffffffffffffffffffffff167fddf252ad1be2c89b69c2b068fc378daa952ba7f163c4a11628f55a4df523b3ef60405160405180910390a461173b8383836001611eaf565b505050565b60006002600083815260200190815260200160002060009054906101000a900473ffffffffffffffffffffffffffffffffffffffff169050919050565b6117856112f1565b73ffffffffffffffffffffffffffffffffffffffff166117a3610dba565b73ffffffffffffffffffffffffffffffffffffffff16146117f9576040517f08c379a00000000000000000000000000000000000000000000000000000000081526004016117f0906137f4565b60405180910390fd5b565b6000600a60009054906101000a900473ffffffffffffffffffffffffffffffffffffffff16905081600a60006101000a81548173ffffffffffffffffffffffffffffffffffffffff021916908373ffffffffffffffffffffffffffffffffffffffff1602179055508173ffffffffffffffffffffffffffffffffffffffff168173ffffffffffffffffffffffffffffffffffffffff167f8be0079c531659141344cd1fd0a4f28419497f9722a3daafe3b4186f6b6457e060405160405180910390a35050565b6118cd84848484611eb5565b6001811115611911576040517f08c379a000000000000000000000000000000000000000000000000000000000815260040161190890613886565b60405180910390fd5b6000829050600073ffffffffffffffffffffffffffffffffffffffff168573ffffffffffffffffffffffffffffffffffffffff16036119585761195381611fdb565b611997565b8373ffffffffffffffffffffffffffffffffffffffff168573ffffffffffffffffffffffffffffffffffffffff1614611996576119958582612024565b5b5b600073ffffffffffffffffffffffffffffffffffffffff168473ffffffffffffffffffffffffffffffffffffffff16036119d9576119d481612191565b611a18565b8473ffffffffffffffffffffffffffffffffffffffff168473ffffffffffffffffffffffffffffffffffffffff1614611a1757611a168482612262565b5b5b5050505050565b600073ffffffffffffffffffffffffffffffffffffffff168273ffffffffffffffffffffffffffffffffffffffff1603611a8e576040517f08c379a0000000000000000000000000000000000000000000000000000000008152600401611a85906138f2565b60405180910390fd5b611a9781611e6e565b15611ad7576040517f08c379a0000000000000000000000000000000000000000000000000000000008152600401611ace9061395e565b60405180910390fd5b611ae56000838360016118c1565b611aee81611e6e565b15611b2e576040517f08c379a0000000000000000000000000000000000000000000000000000000008152600401611b259061395e565b60405180910390fd5b6001600360008473ffffffffffffffffffffffffffffffffffffffff1673ffffffffffffffffffffffffffffffffffffffff16815260200190815260200160002060008282540192505081905550816002600083815260200190815260200160002060006101000a81548173ffffffffffffffffffffffffffffffffffffffff021916908373ffffffffffffffffffffffffffffffffffffffff160217905550808273ffffffffffffffffffffffffffffffffffffffff16600073ffffffffffffffffffffffffffffffffffffffff167fddf252ad1be2c89b69c2b068fc378daa952ba7f163c4a11628f55a4df523b3ef60405160405180910390a4611c38600083836001611eaf565b5050565b8173ffffffffffffffffffffffffffffffffffffffff168373ffffffffffffffffffffffffffffffffffffffff1603611caa576040517f08c379a0000000000000000000000000000000000000000000000000000000008152600401611ca1906139ca565b60405180910390fd5b80600560008573ffffffffffffffffffffffffffffffffffffffff1673ffffffffffffffffffffffffffffffffffffffff16815260200190815260200160002060008473ffffffffffffffffffffffffffffffffffffffff1673ffffffffffffffffffffffffffffffffffffffff16815260200190815260200160002060006101000a81548160ff0219169083151502179055508173ffffffffffffffffffffffffffffffffffffffff168373ffffffffffffffffffffffffffffffffffffffff167f17307eab39ab6107e8899845ad3d59bd9653f200f220920489ca2b5937696c3183604051611d9b919061253f565b60405180910390a3505050565b611db3848484611447565b611dbf848484846122e1565b611dfe576040517f08c379a0000000000000000000000000000000000000000000000000000000008152600401611df590613a5c565b60405180910390fd5b50505050565b60007f01ffc9a7000000000000000000000000000000000000000000000000000000007bffffffffffffffffffffffffffffffffffffffffffffffffffffffff1916827bffffffffffffffffffffffffffffffffffffffffffffffffffffffff1916149050919050565b60008073ffffffffffffffffffffffffffffffffffffffff16611e9083611740565b73ffffffffffffffffffffffffffffffffffffffff1614159050919050565b50505050565b6001811115611fd557600073ffffffffffffffffffffffffffffffffffffffff168473ffffffffffffffffffffffffffffffffffffffff1614611f495780600360008673ffffffffffffffffffffffffffffffffffffffff1673ffffffffffffffffffffffffffffffffffffffff1681526020019081526020016000206000828254611f419190613a7c565b925050819055505b600073ffffffffffffffffffffffffffffffffffffffff168373ffffffffffffffffffffffffffffffffffffffff1614611fd45780600360008573ffffffffffffffffffffffffffffffffffffffff1673ffffffffffffffffffffffffffffffffffffffff1681526020019081526020016000206000828254611fcc9190613ab0565b925050819055505b5b50505050565b6008805490506009600083815260200190815260200160002081905550600881908060018154018082558091505060019003906000526020600020016000909190919091505550565b6000600161203184610b7f565b61203b9190613a7c565b9050600060076000848152602001908152602001600020549050818114612120576000600660008673ffffffffffffffffffffffffffffffffffffffff1673ffffffffffffffffffffffffffffffffffffffff168152602001908152602001600020600084815260200190815260200160002054905080600660008773ffffffffffffffffffffffffffffffffffffffff1673ffffffffffffffffffffffffffffffffffffffff168152602001908152602001600020600084815260200190815260200160002081905550816007600083815260200190815260200160002081905550505b6007600084815260200190815260200160002060009055600660008573ffffffffffffffffffffffffffffffffffffffff1673ffffffffffffffffffffffffffffffffffffffff16815260200190815260200160002060008381526020019081526020016000206000905550505050565b600060016008805490506121a59190613a7c565b90506000600960008481526020019081526020016000205490506000600883815481106121d5576121d4612f49565b5b9060005260206000200154905080600883815481106121f7576121f6612f49565b5b90600052602060002001819055508160096000838152602001908152602001600020819055506009600085815260200190815260200160002060009055600880548061224657612245613ae4565b5b6001900381819060005260206000200160009055905550505050565b600061226d83610b7f565b905081600660008573ffffffffffffffffffffffffffffffffffffffff1673ffffffffffffffffffffffffffffffffffffffff168152602001908152602001600020600083815260200190815260200160002081905550806007600084815260200190815260200160002081905550505050565b60006123028473ffffffffffffffffffffffffffffffffffffffff16612468565b1561245b578373ffffffffffffffffffffffffffffffffffffffff1663150b7a0261232b6112f1565b8786866040518563ffffffff1660e01b815260040161234d9493929190613b68565b6020604051808303816000875af192505050801561238957506040513d601f19601f820116820180604052508101906123869190613bc9565b60015b61240b573d80600081146123b9576040519150601f19603f3d011682016040523d82523d6000602084013e6123be565b606091505b506000815103612403576040517f08c379a00000000000000000000000000000000000000000000000000000000081526004016123fa90613a5c565b60405180910390fd5b805181602001fd5b63150b7a0260e01b7bffffffffffffffffffffffffffffffffffffffffffffffffffffffff1916817bffffffffffffffffffffffffffffffffffffffffffffffffffffffff191614915050612460565b600190505b949350505050565b6000808273ffffffffffffffffffffffffffffffffffffffff163b119050919050565b6000604051905090565b600080fd5b600080fd5b60007fffffffff0000000000000000000000000000000000000000000000000000000082169050919050565b6124d48161249f565b81146124df57600080fd5b50565b6000813590506124f1816124cb565b92915050565b60006020828403121561250d5761250c612495565b5b600061251b848285016124e2565b91505092915050565b60008115159050919050565b61253981612524565b82525050565b60006020820190506125546000830184612530565b92915050565b600081519050919050565b600082825260208201905092915050565b60005b83811015612594578082015181840152602081019050612579565b60008484015250505050565b6000601f19601f8301169050919050565b60006125bc8261255a565b6125c68185612565565b93506125d6818560208601612576565b6125df816125a0565b840191505092915050565b6000602082019050818103600083015261260481846125b1565b905092915050565b6000819050919050565b61261f8161260c565b811461262a57600080fd5b50565b60008135905061263c81612616565b92915050565b60006020828403121561265857612657612495565b5b60006126668482850161262d565b91505092915050565b600073ffffffffffffffffffffffffffffffffffffffff82169050919050565b600061269a8261266f565b9050919050565b6126aa8161268f565b82525050565b60006020820190506126c560008301846126a1565b92915050565b6126d48161268f565b81146126df57600080fd5b50565b6000813590506126f1816126cb565b92915050565b6000806040838503121561270e5761270d612495565b5b600061271c858286016126e2565b925050602061272d8582860161262d565b9150509250929050565b6127408161260c565b82525050565b600060208201905061275b6000830184612737565b92915050565b60008060006060848603121561277a57612779612495565b5b6000612788868287016126e2565b9350506020612799868287016126e2565b92505060406127aa8682870161262d565b9150509250925092565b6000602082840312156127ca576127c9612495565b5b60006127d8848285016126e2565b91505092915050565b6127ea81612524565b81146127f557600080fd5b50565b600081359050612807816127e1565b92915050565b6000806040838503121561282457612823612495565b5b6000612832858286016126e2565b9250506020612843858286016127f8565b9150509250929050565b600080fd5b600080fd5b7f4e487b7100000000000000000000000000000000000000000000000000000000600052604160045260246000fd5b61288f826125a0565b810181811067ffffffffffffffff821117156128ae576128ad612857565b5b80604052505050565b60006128c161248b565b90506128cd8282612886565b919050565b600067ffffffffffffffff8211156128ed576128ec612857565b5b6128f6826125a0565b9050602081019050919050565b82818337600083830152505050565b6000612925612920846128d2565b6128b7565b90508281526020810184848401111561294157612940612852565b5b61294c848285612903565b509392505050565b600082601f8301126129695761296861284d565b5b8135612979848260208601612912565b91505092915050565b6000806000806080858703121561299c5761299b612495565b5b60006129aa878288016126e2565b94505060206129bb878288016126e2565b93505060406129cc8782880161262d565b925050606085013567ffffffffffffffff8111156129ed576129ec61249a565b5b6129f987828801612954565b91505092959194509250565b600067ffffffffffffffff821115612a2057612a1f612857565b5b612a29826125a0565b9050602081019050919050565b6000612a49612a4484612a05565b6128b7565b905082815260208101848484011115612a6557612a64612852565b5b612a70848285612903565b509392505050565b600082601f830112612a8d57612a8c61284d565b5b8135612a9d848260208601612a36565b91505092915050565b600060208284031215612abc57612abb612495565b5b600082013567ffffffffffffffff811115612ada57612ad961249a565b5b612ae684828501612a78565b91505092915050565b60008060408385031215612b0657612b05612495565b5b6000612b14858286016126e2565b9250506020612b25858286016126e2565b9150509250929050565b600081519050919050565b600082825260208201905092915050565b6000819050602082019050919050565b612b648161260c565b82525050565b6000612b768383612b5b565b60208301905092915050565b6000602082019050919050565b6000612b9a82612b2f565b612ba48185612b3a565b9350612baf83612b4b565b8060005b83811015612be0578151612bc78882612b6a565b9750612bd283612b82565b925050600181019050612bb3565b5085935050505092915050565b60006020820190508181036000830152612c078184612b8f565b905092915050565b7f4e487b7100000000000000000000000000000000000000000000000000000000600052602260045260246000fd5b60006002820490506001821680612c5657607f821691505b602082108103612c6957612c68612c0f565b5b50919050565b7f4552433732313a20617070726f76616c20746f2063757272656e74206f776e6560008201527f7200000000000000000000000000000000000000000000000000000000000000602082015250565b6000612ccb602183612565565b9150612cd682612c6f565b604082019050919050565b60006020820190508181036000830152612cfa81612cbe565b9050919050565b7f4552433732313a20617070726f76652063616c6c6572206973206e6f7420746f60008201527f6b656e206f776e6572206f7220617070726f76656420666f7220616c6c000000602082015250565b6000612d5d603d83612565565b9150612d6882612d01565b604082019050919050565b60006020820190508181036000830152612d8c81612d50565b9050919050565b7f4552433732313a2063616c6c6572206973206e6f7420746f6b656e206f776e6560008201527f72206f7220617070726f76656400000000000000000000000000000000000000602082015250565b6000612def602d83612565565b9150612dfa82612d93565b604082019050919050565b60006020820190508181036000830152612e1e81612de2565b9050919050565b7f455243373231456e756d657261626c653a206f776e657220696e646578206f7560008201527f74206f6620626f756e6473000000000000000000000000000000000000000000602082015250565b6000612e81602b83612565565b9150612e8c82612e25565b604082019050919050565b60006020820190508181036000830152612eb081612e74565b9050919050565b7f455243373231456e756d657261626c653a20676c6f62616c20696e646578206f60008201527f7574206f6620626f756e64730000000000000000000000000000000000000000602082015250565b6000612f13602c83612565565b9150612f1e82612eb7565b604082019050919050565b60006020820190508181036000830152612f4281612f06565b9050919050565b7f4e487b7100000000000000000000000000000000000000000000000000000000600052603260045260246000fd5b7f4552433732313a20696e76616c696420746f6b656e2049440000000000000000600082015250565b6000612fae601883612565565b9150612fb982612f78565b602082019050919050565b60006020820190508181036000830152612fdd81612fa1565b9050919050565b7f4552433732313a2061646472657373207a65726f206973206e6f74206120766160008201527f6c6964206f776e65720000000000000000000000000000000000000000000000602082015250565b6000613040602983612565565b915061304b82612fe4565b604082019050919050565b6000602082019050818103600083015261306f81613033565b9050919050565b7f696e73756666696369656e74206d6f6e657920746f206d696e74000000000000600082015250565b60006130ac601a83612565565b91506130b782613076565b602082019050919050565b600060208201905081810360008301526130db8161309f565b9050919050565b7f657863656564696e6720746865206d6178696d756d2069737375616e63650000600082015250565b6000613118601e83612565565b9150613123826130e2565b602082019050919050565b600060208201905081810360008301526131478161310b565b9050919050565b7f73616d652061732070726576696f757320707269636500000000000000000000600082015250565b6000613184601683612565565b915061318f8261314e565b602082019050919050565b600060208201905081810360008301526131b381613177565b9050919050565b600081905092915050565b60008190508160005260206000209050919050565b600081546131e781612c3e565b6131f181866131ba565b9450600182166000811461320c576001811461322157613254565b60ff1983168652811515820286019350613254565b61322a856131c5565b60005b8381101561324c5781548189015260018201915060208101905061322d565b838801955050505b50505092915050565b6000819050919050565b6132786132738261260c565b61325d565b82525050565b600061328a82856131da565b91506132968284613267565b6020820191508190509392505050565b60006020601f8301049050919050565b600082821b905092915050565b6000600883026132f37fffffffffffffffffffffffffffffffffffffffffffffffffffffffffffffffff826132b6565b6132fd86836132b6565b95508019841693508086168417925050509392505050565b6000819050919050565b600061333a6133356133308461260c565b613315565b61260c565b9050919050565b6000819050919050565b6133548361331f565b61336861336082613341565b8484546132c3565b825550505050565b600090565b61337d613370565b61338881848461334b565b505050565b5b818110156133ac576133a1600082613375565b60018101905061338e565b5050565b601f8211156133f1576133c2816131c5565b6133cb846132a6565b810160208510156133da578190505b6133ee6133e6856132a6565b83018261338d565b50505b505050565b600082821c905092915050565b6000613414600019846008026133f6565b1980831691505092915050565b600061342d8383613403565b9150826002028217905092915050565b6134468261255a565b67ffffffffffffffff81111561345f5761345e612857565b5b6134698254612c3e565b6134748282856133b0565b600060209050601f8311600181146134a75760008415613495578287015190505b61349f8582613421565b865550613507565b601f1984166134b5866131c5565b60005b828110156134dd578489015182556001820191506020850194506020810190506134b8565b868310156134fa57848901516134f6601f891682613403565b8355505b6001600288020188555050505b505050505050565b7f4f776e61626c653a206e6577206f776e657220697320746865207a65726f206160008201527f6464726573730000000000000000000000000000000000000000000000000000602082015250565b600061356b602683612565565b91506135768261350f565b604082019050919050565b6000602082019050818103600083015261359a8161355e565b9050919050565b7f6e6f20746f6b656e000000000000000000000000000000000000000000000000600082015250565b60006135d7600883612565565b91506135e2826135a1565b602082019050919050565b60006020820190508181036000830152613606816135ca565b9050919050565b7f4e487b7100000000000000000000000000000000000000000000000000000000600052601160045260246000fd5b60006136478261260c565b91507fffffffffffffffffffffffffffffffffffffffffffffffffffffffffffffffff82036136795761367861360d565b5b600182019050919050565b7f4552433732313a207472616e736665722066726f6d20696e636f72726563742060008201527f6f776e6572000000000000000000000000000000000000000000000000000000602082015250565b60006136e0602583612565565b91506136eb82613684565b604082019050919050565b6000602082019050818103600083015261370f816136d3565b9050919050565b7f4552433732313a207472616e7366657220746f20746865207a65726f2061646460008201527f7265737300000000000000000000000000000000000000000000000000000000602082015250565b6000613772602483612565565b915061377d82613716565b604082019050919050565b600060208201905081810360008301526137a181613765565b9050919050565b7f4f776e61626c653a2063616c6c6572206973206e6f7420746865206f776e6572600082015250565b60006137de602083612565565b91506137e9826137a8565b602082019050919050565b6000602082019050818103600083015261380d816137d1565b9050919050565b7f455243373231456e756d657261626c653a20636f6e736563757469766520747260008201527f616e7366657273206e6f7420737570706f727465640000000000000000000000602082015250565b6000613870603583612565565b915061387b82613814565b604082019050919050565b6000602082019050818103600083015261389f81613863565b9050919050565b7f4552433732313a206d696e7420746f20746865207a65726f2061646472657373600082015250565b60006138dc602083612565565b91506138e7826138a6565b602082019050919050565b6000602082019050818103600083015261390b816138cf565b9050919050565b7f4552433732313a20746f6b656e20616c7265616479206d696e74656400000000600082015250565b6000613948601c83612565565b915061395382613912565b602082019050919050565b600060208201905081810360008301526139778161393b565b9050919050565b7f4552433732313a20617070726f766520746f2063616c6c657200000000000000600082015250565b60006139b4601983612565565b91506139bf8261397e565b602082019050919050565b600060208201905081810360008301526139e3816139a7565b9050919050565b7f4552433732313a207472616e7366657220746f206e6f6e20455243373231526560008201527f63656976657220696d706c656d656e7465720000000000000000000000000000602082015250565b6000613a46603283612565565b9150613a51826139ea565b604082019050919050565b60006020820190508181036000830152613a7581613a39565b9050919050565b6000613a878261260c565b9150613a928361260c565b9250828203905081811115613aaa57613aa961360d565b5b92915050565b6000613abb8261260c565b9150613ac68361260c565b9250828201905080821115613ade57613add61360d565b5b92915050565b7f4e487b7100000000000000000000000000000000000000000000000000000000600052603160045260246000fd5b600081519050919050565b600082825260208201905092915050565b6000613b3a82613b13565b613b448185613b1e565b9350613b54818560208601612576565b613b5d816125a0565b840191505092915050565b6000608082019050613b7d60008301876126a1565b613b8a60208301866126a1565b613b976040830185612737565b8181036060830152613ba98184613b2f565b905095945050505050565b600081519050613bc3816124cb565b92915050565b600060208284031215613bdf57613bde612495565b5b6000613bed84828501613bb4565b9150509291505056fea264697066735822122033cc80d41a24bf1655ff2a72c71f21789392d4a4694835adad8706248c472db664736f6c63430008110033",
  "immutableReferences": {
    "5192": [
      {
        "length": 32,
        "start": 3217
      }
    ]
  },
  "source": "// SPDX-License-Identifier: MIT\npragma solidity ^0.8.17;\n\n//  \nimport \"../node_modules/@openzeppelin/contracts/token/ERC721/extensions/ERC721Enumerable.sol\";\nimport \"../node_modules/@openzeppelin/contracts/access/Ownable.sol\";\n\n// remix  \n// import \"@openzeppelin/contracts/access/Ownable.sol\";\n// import \"@openzeppelin/contracts/token/ERC721/extensions/ERC721Enumerable.sol\";\n\n// NFT   \ncontract MintingNft is ERC721Enumerable, Ownable {\n\n    //   \n    uint immutable private _mintingLimit;\n\n    //        (wei )\n    uint private _mintingPrice;\n\n    //   \n    string private _defaultPath;\n\n    constructor(string memory name_, string memory symbol_, uint mintingLimit_, uint mintingPrice_, string memory defaultPath_) ERC721(name_, symbol_) {\n        _mintingLimit = mintingLimit_;\n        _mintingPrice = mintingPrice_;\n        _defaultPath = defaultPath_;\n    }\n\n    //  EOA  \n    // owner() public\n\n    // json   tokenId  \n    function mintToken(address _tokenOwner, uint _tokenId) external payable {\n\n        // wei \n        require(_mintingPrice <= msg.value, \"insufficient money to mint\");\n\n        //      \n        require(totalSupply() < _mintingLimit, \"exceeding the maximum issuance\");\n\n        payable(owner()).transfer(_mintingPrice);\n\n        // ERC721Enumerable   \n        //         ..\n        _beforeTokenTransfer(address(0), _tokenOwner, _tokenId, 1);\n\n        // event indexed  ..\n        // ERC721    ( id    event  )\n        _mint(_tokenOwner, _tokenId);\n    }\n\n    //    \n    function transferToken(address _from, address _to, uint _tokenId) external {\n        \n        emit Transfer(_from, _to, _tokenId);\n\n        transferFrom(_from, _to, _tokenId);\n\n        _beforeTokenTransfer(_from, address(0), _tokenId, 1);\n        _beforeTokenTransfer(address(0), _to, _tokenId, 1);\n    }\n\n    // _allTokens   id \n    // _allTokensIndex  id =>    \n    // _ownedTokens   => (   =>  id)\n    // _ownedTokensIndex  id =>     \n\n    // wei \n    function setMintingPrice(uint _price) external onlyOwner {\n\n        require(_mintingPrice != _price, \"same as previous price\");\n\n        _mintingPrice = _price;\n    }\n\n    function setDefaultPath(string memory defaultPath_) external onlyOwner {\n        _defaultPath = defaultPath_;\n    }\n    \n    //     JSON        \n    function tokenURI(uint _tokenId) public view override returns (string memory) {\n        return string(abi.encodePacked(_defaultPath, _tokenId));\n    }\n\n    //    \n    //       1 setApprovalForAll(address TrandingNft, true)   \n    function getMyTokenIds(address _owner) external view returns (uint[] memory) {\n        \n        //   \n        uint count = balanceOf(_owner);\n        \n        require(count > 0, \"no token\");\n\n        uint[] memory tokenIds = new uint[](count);\n        \n        // for    ..\n        for (uint index = 0; index < count; index++)\n\n            // push  \n            tokenIds[index] = tokenOfOwnerByIndex(_owner, index);\n\n        return tokenIds;\n    }\n    \n    //      \n    // function msgSender() external view returns (address) {\n    //     return _msgSender();\n    // }\n\n    function mintingPrice() external view returns (uint) {\n        return _mintingPrice;\n    }\n\n    //    : defaultPath() / tokenId\n    function defaultPath() external view returns (string memory) {\n        return _defaultPath;\n    }\n\n    //   \n    // set => view => public => external => private\n\n    // totalSupply()   \n    // tokenByIndex(_index)      id  \n    \n    // onwerOf(_tokenId)     \n    // blanceOf(_owner)      \n    // tokenOfOwnerByIndex(_owner, _index)        id  \n}\n\n// npx truffle init\n// npm i openzeppelin-solidity\n// openzeppelin-solidity vs @openzeppelin/contracts\n// remixd -s . --remix-ide https://remix.ethereum.org",
  "sourcePath": "/Users/nominseob/Desktop/academy/Project/NFT_TeamProject/blockChain/contracts/MintingNft.sol",
  "compiler": {
    "name": "solc",
    "version": "0.8.17+commit.8df45f5f.Emscripten.clang"
  },
  "schemaVersion": "3.4.11",
  "updatedAt": "2022-12-23T11:45:24.843Z",
  "devdoc": {
    "kind": "dev",
    "methods": {
      "approve(address,uint256)": {
        "details": "See {IERC721-approve}."
      },
      "balanceOf(address)": {
        "details": "See {IERC721-balanceOf}."
      },
      "getApproved(uint256)": {
        "details": "See {IERC721-getApproved}."
      },
      "isApprovedForAll(address,address)": {
        "details": "See {IERC721-isApprovedForAll}."
      },
      "name()": {
        "details": "See {IERC721Metadata-name}."
      },
      "owner()": {
        "details": "Returns the address of the current owner."
      },
      "ownerOf(uint256)": {
        "details": "See {IERC721-ownerOf}."
      },
      "renounceOwnership()": {
        "details": "Leaves the contract without owner. It will not be possible to call `onlyOwner` functions anymore. Can only be called by the current owner. NOTE: Renouncing ownership will leave the contract without an owner, thereby removing any functionality that is only available to the owner."
      },
      "safeTransferFrom(address,address,uint256)": {
        "details": "See {IERC721-safeTransferFrom}."
      },
      "safeTransferFrom(address,address,uint256,bytes)": {
        "details": "See {IERC721-safeTransferFrom}."
      },
      "setApprovalForAll(address,bool)": {
        "details": "See {IERC721-setApprovalForAll}."
      },
      "supportsInterface(bytes4)": {
        "details": "See {IERC165-supportsInterface}."
      },
      "symbol()": {
        "details": "See {IERC721Metadata-symbol}."
      },
      "tokenByIndex(uint256)": {
        "details": "See {IERC721Enumerable-tokenByIndex}."
      },
      "tokenOfOwnerByIndex(address,uint256)": {
        "details": "See {IERC721Enumerable-tokenOfOwnerByIndex}."
      },
      "totalSupply()": {
        "details": "See {IERC721Enumerable-totalSupply}."
      },
      "transferFrom(address,address,uint256)": {
        "details": "See {IERC721-transferFrom}."
      },
      "transferOwnership(address)": {
        "details": "Transfers ownership of the contract to a new account (`newOwner`). Can only be called by the current owner."
      }
    },
    "version": 1
  },
  "userdoc": {
    "kind": "user",
    "methods": {},
    "version": 1
  }
}