{
  "contractName": "TestToken",
  "abi": [
    {
      "inputs": [
        {
          "internalType": "uint256",
          "name": "maxBatchSize_",
          "type": "uint256"
        },
        {
          "internalType": "uint256",
          "name": "collectionSize_",
          "type": "uint256"
        }
      ],
      "stateMutability": "nonpayable",
      "type": "constructor"
    },
    {
      "anonymous": false,
      "inputs": [
        {
          "indexed": true,
          "internalType": "address",
          "name": "owner",
          "type": "address"
        },
        {
          "indexed": true,
          "internalType": "address",
          "name": "approved",
          "type": "address"
        },
        {
          "indexed": true,
          "internalType": "uint256",
          "name": "tokenId",
          "type": "uint256"
        }
      ],
      "name": "Approval",
      "type": "event"
    },
    {
      "anonymous": false,
      "inputs": [
        {
          "indexed": true,
          "internalType": "address",
          "name": "owner",
          "type": "address"
        },
        {
          "indexed": true,
          "internalType": "address",
          "name": "operator",
          "type": "address"
        },
        {
          "indexed": false,
          "internalType": "bool",
          "name": "approved",
          "type": "bool"
        }
      ],
      "name": "ApprovalForAll",
      "type": "event"
    },
    {
      "anonymous": false,
      "inputs": [
        {
          "indexed": false,
          "internalType": "address",
          "name": "minter",
          "type": "address"
        },
        {
          "indexed": false,
          "internalType": "uint256",
          "name": "quantity",
          "type": "uint256"
        },
        {
          "indexed": false,
          "internalType": "uint256",
          "name": "totalSupply",
          "type": "uint256"
        }
      ],
      "name": "MintTestToken",
      "type": "event"
    },
    {
      "anonymous": false,
      "inputs": [
        {
          "indexed": true,
          "internalType": "address",
          "name": "previousOwner",
          "type": "address"
        },
        {
          "indexed": true,
          "internalType": "address",
          "name": "newOwner",
          "type": "address"
        }
      ],
      "name": "OwnershipTransferred",
      "type": "event"
    },
    {
      "anonymous": false,
      "inputs": [
        {
          "indexed": false,
          "internalType": "uint256",
          "name": "mintPrice",
          "type": "uint256"
        },
        {
          "indexed": false,
          "internalType": "bool",
          "name": "isMintOn",
          "type": "bool"
        }
      ],
      "name": "SetMintOn",
      "type": "event"
    },
    {
      "anonymous": false,
      "inputs": [
        {
          "indexed": true,
          "internalType": "address",
          "name": "from",
          "type": "address"
        },
        {
          "indexed": true,
          "internalType": "address",
          "name": "to",
          "type": "address"
        },
        {
          "indexed": true,
          "internalType": "uint256",
          "name": "tokenId",
          "type": "uint256"
        }
      ],
      "name": "Transfer",
      "type": "event"
    },
    {
      "inputs": [
        {
          "internalType": "address",
          "name": "to",
          "type": "address"
        },
        {
          "internalType": "uint256",
          "name": "tokenId",
          "type": "uint256"
        }
      ],
      "name": "approve",
      "outputs": [],
      "stateMutability": "nonpayable",
      "type": "function"
    },
    {
      "inputs": [
        {
          "internalType": "address",
          "name": "owner",
          "type": "address"
        }
      ],
      "name": "balanceOf",
      "outputs": [
        {
          "internalType": "uint256",
          "name": "",
          "type": "uint256"
        }
      ],
      "stateMutability": "view",
      "type": "function",
      "constant": true
    },
    {
      "inputs": [
        {
          "internalType": "uint256",
          "name": "tokenId",
          "type": "uint256"
        }
      ],
      "name": "getApproved",
      "outputs": [
        {
          "internalType": "address",
          "name": "",
          "type": "address"
        }
      ],
      "stateMutability": "view",
      "type": "function",
      "constant": true
    },
    {
      "inputs": [
        {
          "internalType": "address",
          "name": "owner",
          "type": "address"
        },
        {
          "internalType": "address",
          "name": "operator",
          "type": "address"
        }
      ],
      "name": "isApprovedForAll",
      "outputs": [
        {
          "internalType": "bool",
          "name": "",
          "type": "bool"
        }
      ],
      "stateMutability": "view",
      "type": "function",
      "constant": true
    },
    {
      "inputs": [],
      "name": "maxAmountPerMint",
      "outputs": [
        {
          "internalType": "uint256",
          "name": "",
          "type": "uint256"
        }
      ],
      "stateMutability": "view",
      "type": "function",
      "constant": true
    },
    {
      "inputs": [],
      "name": "mintPrice",
      "outputs": [
        {
          "internalType": "uint256",
          "name": "",
          "type": "uint256"
        }
      ],
      "stateMutability": "view",
      "type": "function",
      "constant": true
    },
    {
      "inputs": [],
      "name": "name",
      "outputs": [
        {
          "internalType": "string",
          "name": "",
          "type": "string"
        }
      ],
      "stateMutability": "view",
      "type": "function",
      "constant": true
    },
    {
      "inputs": [],
      "name": "nextOwnerToExplicitlySet",
      "outputs": [
        {
          "internalType": "uint256",
          "name": "",
          "type": "uint256"
        }
      ],
      "stateMutability": "view",
      "type": "function",
      "constant": true
    },
    {
      "inputs": [],
      "name": "owner",
      "outputs": [
        {
          "internalType": "address",
          "name": "",
          "type": "address"
        }
      ],
      "stateMutability": "view",
      "type": "function",
      "constant": true
    },
    {
      "inputs": [
        {
          "internalType": "uint256",
          "name": "tokenId",
          "type": "uint256"
        }
      ],
      "name": "ownerOf",
      "outputs": [
        {
          "internalType": "address",
          "name": "",
          "type": "address"
        }
      ],
      "stateMutability": "view",
      "type": "function",
      "constant": true
    },
    {
      "inputs": [],
      "name": "renounceOwnership",
      "outputs": [],
      "stateMutability": "nonpayable",
      "type": "function"
    },
    {
      "inputs": [
        {
          "internalType": "address",
          "name": "from",
          "type": "address"
        },
        {
          "internalType": "address",
          "name": "to",
          "type": "address"
        },
        {
          "internalType": "uint256",
          "name": "tokenId",
          "type": "uint256"
        }
      ],
      "name": "safeTransferFrom",
      "outputs": [],
      "stateMutability": "nonpayable",
      "type": "function"
    },
    {
      "inputs": [
        {
          "internalType": "address",
          "name": "from",
          "type": "address"
        },
        {
          "internalType": "address",
          "name": "to",
          "type": "address"
        },
        {
          "internalType": "uint256",
          "name": "tokenId",
          "type": "uint256"
        },
        {
          "internalType": "bytes",
          "name": "_data",
          "type": "bytes"
        }
      ],
      "name": "safeTransferFrom",
      "outputs": [],
      "stateMutability": "nonpayable",
      "type": "function"
    },
    {
      "inputs": [
        {
          "internalType": "address",
          "name": "operator",
          "type": "address"
        },
        {
          "internalType": "bool",
          "name": "approved",
          "type": "bool"
        }
      ],
      "name": "setApprovalForAll",
      "outputs": [],
      "stateMutability": "nonpayable",
      "type": "function"
    },
    {
      "inputs": [
        {
          "internalType": "bytes4",
          "name": "interfaceId",
          "type": "bytes4"
        }
      ],
      "name": "supportsInterface",
      "outputs": [
        {
          "internalType": "bool",
          "name": "",
          "type": "bool"
        }
      ],
      "stateMutability": "view",
      "type": "function",
      "constant": true
    },
    {
      "inputs": [],
      "name": "symbol",
      "outputs": [
        {
          "internalType": "string",
          "name": "",
          "type": "string"
        }
      ],
      "stateMutability": "view",
      "type": "function",
      "constant": true
    },
    {
      "inputs": [
        {
          "internalType": "uint256",
          "name": "index",
          "type": "uint256"
        }
      ],
      "name": "tokenByIndex",
      "outputs": [
        {
          "internalType": "uint256",
          "name": "",
          "type": "uint256"
        }
      ],
      "stateMutability": "view",
      "type": "function",
      "constant": true
    },
    {
      "inputs": [
        {
          "internalType": "address",
          "name": "owner",
          "type": "address"
        },
        {
          "internalType": "uint256",
          "name": "index",
          "type": "uint256"
        }
      ],
      "name": "tokenOfOwnerByIndex",
      "outputs": [
        {
          "internalType": "uint256",
          "name": "",
          "type": "uint256"
        }
      ],
      "stateMutability": "view",
      "type": "function",
      "constant": true
    },
    {
      "inputs": [
        {
          "internalType": "uint256",
          "name": "tokenId",
          "type": "uint256"
        }
      ],
      "name": "tokenURI",
      "outputs": [
        {
          "internalType": "string",
          "name": "",
          "type": "string"
        }
      ],
      "stateMutability": "view",
      "type": "function",
      "constant": true
    },
    {
      "inputs": [],
      "name": "totalSupply",
      "outputs": [
        {
          "internalType": "uint256",
          "name": "",
          "type": "uint256"
        }
      ],
      "stateMutability": "view",
      "type": "function",
      "constant": true
    },
    {
      "inputs": [
        {
          "internalType": "address",
          "name": "from",
          "type": "address"
        },
        {
          "internalType": "address",
          "name": "to",
          "type": "address"
        },
        {
          "internalType": "uint256",
          "name": "tokenId",
          "type": "uint256"
        }
      ],
      "name": "transferFrom",
      "outputs": [],
      "stateMutability": "nonpayable",
      "type": "function"
    },
    {
      "inputs": [
        {
          "internalType": "address",
          "name": "newOwner",
          "type": "address"
        }
      ],
      "name": "transferOwnership",
      "outputs": [],
      "stateMutability": "nonpayable",
      "type": "function"
    },
    {
      "inputs": [
        {
          "internalType": "uint256",
          "name": "price",
          "type": "uint256"
        }
      ],
      "name": "setMintOn",
      "outputs": [],
      "stateMutability": "nonpayable",
      "type": "function"
    },
    {
      "inputs": [],
      "name": "isMintOn",
      "outputs": [
        {
          "internalType": "bool",
          "name": "",
          "type": "bool"
        }
      ],
      "stateMutability": "view",
      "type": "function",
      "constant": true
    },
    {
      "inputs": [
        {
          "internalType": "uint256",
          "name": "quantity",
          "type": "uint256"
        }
      ],
      "name": "mintTestToken",
      "outputs": [],
      "stateMutability": "payable",
      "type": "function",
      "payable": true
    },
    {
      "inputs": [
        {
          "internalType": "string",
          "name": "baseURI",
          "type": "string"
        }
      ],
      "name": "setBaseURI",
      "outputs": [],
      "stateMutability": "nonpayable",
      "type": "function"
    },
    {
      "inputs": [],
      "name": "withdrawAll",
      "outputs": [],
      "stateMutability": "nonpayable",
      "type": "function"
    },
    {
      "inputs": [],
      "name": "maxSupply",
      "outputs": [
        {
          "internalType": "uint256",
          "name": "",
          "type": "uint256"
        }
      ],
      "stateMutability": "view",
      "type": "function",
      "constant": true
    },
    {
      "inputs": [
        {
          "internalType": "address",
          "name": "owner",
          "type": "address"
        }
      ],
      "name": "tokensOfOwner",
      "outputs": [
        {
          "internalType": "uint256[]",
          "name": "",
          "type": "uint256[]"
        }
      ],
      "stateMutability": "view",
      "type": "function",
      "constant": true
    }
  ],
  "bytecode": "0x60e0604052600160005560006007556040518060400160405280601681526020017f687474703a2f2f6c6f63616c686f73743a343030302f00000000000000000000815250600b90816200005491906200053a565b503480156200006257600080fd5b506040516200515b3803806200515b833981810160405281019062000088919062000657565b6040518060400160405280600481526020017f53656f70000000000000000000000000000000000000000000000000000000008152506040518060400160405280600381526020017f53455000000000000000000000000000000000000000000000000000000000008152508383600081116200013c576040517f08c379a0000000000000000000000000000000000000000000000000000000008152600401620001339062000725565b60405180910390fd5b6000821162000182576040517f08c379a00000000000000000000000000000000000000000000000000000000081526004016200017990620007bd565b60405180910390fd5b83600190816200019391906200053a565b508260029081620001a591906200053a565b508160a08181525050806080818152505050505050620001da620001ce620001f260201b60201c565b620001fa60201b60201c565b60016009819055508160c081815250505050620007df565b600033905090565b6000600860009054906101000a900473ffffffffffffffffffffffffffffffffffffffff16905081600860006101000a81548173ffffffffffffffffffffffffffffffffffffffff021916908373ffffffffffffffffffffffffffffffffffffffff1602179055508173ffffffffffffffffffffffffffffffffffffffff168173ffffffffffffffffffffffffffffffffffffffff167f8be0079c531659141344cd1fd0a4f28419497f9722a3daafe3b4186f6b6457e060405160405180910390a35050565b600081519050919050565b7f4e487b7100000000000000000000000000000000000000000000000000000000600052604160045260246000fd5b7f4e487b7100000000000000000000000000000000000000000000000000000000600052602260045260246000fd5b600060028204905060018216806200034257607f821691505b602082108103620003585762000357620002fa565b5b50919050565b60008190508160005260206000209050919050565b60006020601f8301049050919050565b600082821b905092915050565b600060088302620003c27fffffffffffffffffffffffffffffffffffffffffffffffffffffffffffffffff8262000383565b620003ce868362000383565b95508019841693508086168417925050509392505050565b6000819050919050565b6000819050919050565b60006200041b620004156200040f84620003e6565b620003f0565b620003e6565b9050919050565b6000819050919050565b6200043783620003fa565b6200044f620004468262000422565b84845462000390565b825550505050565b600090565b6200046662000457565b620004738184846200042c565b505050565b5b818110156200049b576200048f6000826200045c565b60018101905062000479565b5050565b601f821115620004ea57620004b4816200035e565b620004bf8462000373565b81016020851015620004cf578190505b620004e7620004de8562000373565b83018262000478565b50505b505050565b600082821c905092915050565b60006200050f60001984600802620004ef565b1980831691505092915050565b60006200052a8383620004fc565b9150826002028217905092915050565b6200054582620002c0565b67ffffffffffffffff811115620005615762000560620002cb565b5b6200056d825462000329565b6200057a8282856200049f565b600060209050601f831160018114620005b257600084156200059d578287015190505b620005a985826200051c565b86555062000619565b601f198416620005c2866200035e565b60005b82811015620005ec57848901518255600182019150602085019450602081019050620005c5565b868310156200060c578489015162000608601f891682620004fc565b8355505b6001600288020188555050505b505050505050565b600080fd5b6200063181620003e6565b81146200063d57600080fd5b50565b600081519050620006518162000626565b92915050565b6000806040838503121562000671576200067062000621565b5b6000620006818582860162000640565b9250506020620006948582860162000640565b9150509250929050565b600082825260208201905092915050565b7f455243373231413a20636f6c6c656374696f6e206d757374206861766520612060008201527f6e6f6e7a65726f20737570706c79000000000000000000000000000000000000602082015250565b60006200070d602e836200069e565b91506200071a82620006af565b604082019050919050565b600060208201905081810360008301526200074081620006fe565b9050919050565b7f455243373231413a206d61782062617463682073697a65206d7573742062652060008201527f6e6f6e7a65726f00000000000000000000000000000000000000000000000000602082015250565b6000620007a56027836200069e565b9150620007b28262000747565b604082019050919050565b60006020820190508181036000830152620007d88162000796565b9050919050565b60805160a05160c0516149306200082b60003960008181610aa20152610e31015260008181611f3401528181611f5d01526125d3015260008181610e94015261163901526149306000f3fe6080604052600436106101c25760003560e01c80636edfed2e116100f7578063a22cb46511610095578063d5abeb0111610064578063d5abeb0114610645578063d7224ba014610670578063e985e9c51461069b578063f2fde38b146106d8576101c2565b8063a22cb4651461058d578063aa7f90b0146105b6578063b88d4fde146105df578063c87b56dd14610608576101c2565b80638462151c116100d15780638462151c146104e3578063853828b6146105205780638da5cb5b1461053757806395d89b4114610562576101c2565b80636edfed2e1461047357806370a082311461048f578063715018a6146104cc576101c2565b80632f745c591161016457806355f804b31161013e57806355f804b3146103b75780636352211e146103e05780636817c76c1461041d5780636e06062414610448576101c2565b80632f745c591461031457806342842e0e146103515780634f6ccce71461037a576101c2565b8063095ea7b3116101a0578063095ea7b31461026c57806318160ddd1461029557806323b872dd146102c057806327acc76d146102e9576101c2565b806301ffc9a7146101c757806306fdde0314610204578063081812fc1461022f575b600080fd5b3480156101d357600080fd5b506101ee60048036038101906101e99190612c0d565b610701565b6040516101fb9190612c55565b60405180910390f35b34801561021057600080fd5b5061021961084b565b6040516102269190612d00565b60405180910390f35b34801561023b57600080fd5b5061025660048036038101906102519190612d58565b6108dd565b6040516102639190612dc6565b60405180910390f35b34801561027857600080fd5b50610293600480360381019061028e9190612e0d565b610962565b005b3480156102a157600080fd5b506102aa610a7a565b6040516102b79190612e5c565b60405180910390f35b3480156102cc57600080fd5b506102e760048036038101906102e29190612e77565b610a90565b005b3480156102f557600080fd5b506102fe610aa0565b60405161030b9190612e5c565b60405180910390f35b34801561032057600080fd5b5061033b60048036038101906103369190612e0d565b610ac4565b6040516103489190612e5c565b60405180910390f35b34801561035d57600080fd5b5061037860048036038101906103739190612e77565b610cc3565b005b34801561038657600080fd5b506103a1600480360381019061039c9190612d58565b610ce3565b6040516103ae9190612e5c565b60405180910390f35b3480156103c357600080fd5b506103de60048036038101906103d99190612fff565b610d36565b005b3480156103ec57600080fd5b5061040760048036038101906104029190612d58565b610d51565b6040516104149190612dc6565b60405180910390f35b34801561042957600080fd5b50610432610d67565b60405161043f9190612e5c565b60405180910390f35b34801561045457600080fd5b5061045d610d6d565b60405161046a9190612c55565b60405180910390f35b61048d60048036038101906104889190612d58565b610d7a565b005b34801561049b57600080fd5b506104b660048036038101906104b19190613048565b610fa5565b6040516104c39190612e5c565b60405180910390f35b3480156104d857600080fd5b506104e161108d565b005b3480156104ef57600080fd5b5061050a60048036038101906105059190613048565b6110a1565b6040516105179190613133565b60405180910390f35b34801561052c57600080fd5b50610535611155565b005b34801561054357600080fd5b5061054c61125f565b6040516105599190612dc6565b60405180910390f35b34801561056e57600080fd5b50610577611289565b6040516105849190612d00565b60405180910390f35b34801561059957600080fd5b506105b460048036038101906105af9190613181565b61131b565b005b3480156105c257600080fd5b506105dd60048036038101906105d89190612d58565b61149b565b005b3480156105eb57600080fd5b5061060660048036038101906106019190613262565b611532565b005b34801561061457600080fd5b5061062f600480360381019061062a9190612d58565b61158e565b60405161063c9190612d00565b60405180910390f35b34801561065157600080fd5b5061065a611635565b6040516106679190612e5c565b60405180910390f35b34801561067c57600080fd5b5061068561165d565b6040516106929190612e5c565b60405180910390f35b3480156106a757600080fd5b506106c260048036038101906106bd91906132e5565b611663565b6040516106cf9190612c55565b60405180910390f35b3480156106e457600080fd5b506106ff60048036038101906106fa9190613048565b6116f7565b005b60007f80ac58cd000000000000000000000000000000000000000000000000000000007bffffffffffffffffffffffffffffffffffffffffffffffffffffffff1916827bffffffffffffffffffffffffffffffffffffffffffffffffffffffff191614806107cc57507f5b5e139f000000000000000000000000000000000000000000000000000000007bffffffffffffffffffffffffffffffffffffffffffffffffffffffff1916827bffffffffffffffffffffffffffffffffffffffffffffffffffffffff1916145b8061083457507f780e9d63000000000000000000000000000000000000000000000000000000007bffffffffffffffffffffffffffffffffffffffffffffffffffffffff1916827bffffffffffffffffffffffffffffffffffffffffffffffffffffffff1916145b8061084457506108438261177a565b5b9050919050565b60606001805461085a90613354565b80601f016020809104026020016040519081016040528092919081815260200182805461088690613354565b80156108d35780601f106108a8576101008083540402835291602001916108d3565b820191906000526020600020905b8154815290600101906020018083116108b657829003601f168201915b5050505050905090565b60006108e8826117e4565b610927576040517f08c379a000000000000000000000000000000000000000000000000000000000815260040161091e906133f7565b60405180910390fd5b6005600083815260200190815260200160002060009054906101000a900473ffffffffffffffffffffffffffffffffffffffff169050919050565b600061096d82610d51565b90508073ffffffffffffffffffffffffffffffffffffffff168373ffffffffffffffffffffffffffffffffffffffff16036109dd576040517f08c379a00000000000000000000000000000000000000000000000000000000081526004016109d490613489565b60405180910390fd5b8073ffffffffffffffffffffffffffffffffffffffff166109fc6117f1565b73ffffffffffffffffffffffffffffffffffffffff161480610a2b5750610a2a81610a256117f1565b611663565b5b610a6a576040517f08c379a0000000000000000000000000000000000000000000000000000000008152600401610a619061351b565b60405180910390fd5b610a758383836117f9565b505050565b60006001600054610a8b919061356a565b905090565b610a9b8383836118ab565b505050565b7f000000000000000000000000000000000000000000000000000000000000000081565b6000610acf83610fa5565b8210610b10576040517f08c379a0000000000000000000000000000000000000000000000000000000008152600401610b0790613610565b60405180910390fd5b6000610b1a610a7a565b90506000806000600190505b838111610c81576000600360008381526020019081526020016000206040518060400160405290816000820160009054906101000a900473ffffffffffffffffffffffffffffffffffffffff1673ffffffffffffffffffffffffffffffffffffffff1673ffffffffffffffffffffffffffffffffffffffff1681526020016000820160149054906101000a900467ffffffffffffffff1667ffffffffffffffff1667ffffffffffffffff16815250509050600073ffffffffffffffffffffffffffffffffffffffff16816000015173ffffffffffffffffffffffffffffffffffffffff1614610c1757806000015192505b8773ffffffffffffffffffffffffffffffffffffffff168373ffffffffffffffffffffffffffffffffffffffff1603610c6d57868403610c5e578195505050505050610cbd565b8380610c6990613630565b9450505b508080610c7990613630565b915050610b26565b506040517f08c379a0000000000000000000000000000000000000000000000000000000008152600401610cb4906136ea565b60405180910390fd5b92915050565b610cde83838360405180602001604052806000815250611532565b505050565b6000610ced610a7a565b8210610d2e576040517f08c379a0000000000000000000000000000000000000000000000000000000008152600401610d259061377c565b60405180910390fd5b819050919050565b610d3e611e62565b80600b9081610d4d9190613948565b5050565b6000610d5c82611ee0565b600001519050919050565b600a5481565b600080600a541415905090565b3373ffffffffffffffffffffffffffffffffffffffff163273ffffffffffffffffffffffffffffffffffffffff1614610de8576040517f08c379a0000000000000000000000000000000000000000000000000000000008152600401610ddf90613a66565b60405180910390fd5b610df0610d6d565b610e2f576040517f08c379a0000000000000000000000000000000000000000000000000000000008152600401610e2690613ad2565b60405180910390fd5b7f0000000000000000000000000000000000000000000000000000000000000000811115610e92576040517f08c379a0000000000000000000000000000000000000000000000000000000008152600401610e8990613b3e565b60405180910390fd5b7f000000000000000000000000000000000000000000000000000000000000000081610ebc610a7a565b610ec69190613b5e565b1115610f07576040517f08c379a0000000000000000000000000000000000000000000000000000000008152600401610efe90613bde565b60405180910390fd5b600a5481610f159190613bfe565b3414610f56576040517f08c379a0000000000000000000000000000000000000000000000000000000008152600401610f4d90613c8c565b60405180910390fd5b610f6033826120e3565b7fd9c99e30d5f0d6f7dd3ef921d6895beddfc3b60646cfcd6996791c5166e2c79e3382610f8b610a7a565b604051610f9a93929190613cac565b60405180910390a150565b60008073ffffffffffffffffffffffffffffffffffffffff168273ffffffffffffffffffffffffffffffffffffffff1603611015576040517f08c379a000000000000000000000000000000000000000000000000000000000815260040161100c90613d55565b60405180910390fd5b600460008373ffffffffffffffffffffffffffffffffffffffff1673ffffffffffffffffffffffffffffffffffffffff16815260200190815260200160002060000160009054906101000a90046fffffffffffffffffffffffffffffffff166fffffffffffffffffffffffffffffffff169050919050565b611095611e62565b61109f6000612101565b565b606060006110ae83610fa5565b905060008167ffffffffffffffff8111156110cc576110cb612ed4565b5b6040519080825280602002602001820160405280156110fa5781602001602082028036833780820191505090505b50905060005b8281101561114a5760006111148683610ac4565b90508083838151811061112a57611129613d75565b5b60200260200101818152505050808061114290613630565b915050611100565b508092505050919050565b61115d611e62565b6111656121c7565b600047116111a8576040517f08c379a000000000000000000000000000000000000000000000000000000000815260040161119f90613df0565b60405180910390fd5b60003373ffffffffffffffffffffffffffffffffffffffff16476040516111ce90613e41565b60006040518083038185875af1925050503d806000811461120b576040519150601f19603f3d011682016040523d82523d6000602084013e611210565b606091505b5050905080611254576040517f08c379a000000000000000000000000000000000000000000000000000000000815260040161124b90613ea2565b60405180910390fd5b5061125d612216565b565b6000600860009054906101000a900473ffffffffffffffffffffffffffffffffffffffff16905090565b60606002805461129890613354565b80601f01602080910402602001604051908101604052809291908181526020018280546112c490613354565b80156113115780601f106112e657610100808354040283529160200191611311565b820191906000526020600020905b8154815290600101906020018083116112f457829003601f168201915b5050505050905090565b6113236117f1565b73ffffffffffffffffffffffffffffffffffffffff168273ffffffffffffffffffffffffffffffffffffffff1603611390576040517f08c379a000000000000000000000000000000000000000000000000000000000815260040161138790613f0e565b60405180910390fd5b806006600061139d6117f1565b73ffffffffffffffffffffffffffffffffffffffff1673ffffffffffffffffffffffffffffffffffffffff16815260200190815260200160002060008473ffffffffffffffffffffffffffffffffffffffff1673ffffffffffffffffffffffffffffffffffffffff16815260200190815260200160002060006101000a81548160ff0219169083151502179055508173ffffffffffffffffffffffffffffffffffffffff1661144a6117f1565b73ffffffffffffffffffffffffffffffffffffffff167f17307eab39ab6107e8899845ad3d59bd9653f200f220920489ca2b5937696c318360405161148f9190612c55565b60405180910390a35050565b6114a3611e62565b600081116114e6576040517f08c379a00000000000000000000000000000000000000000000000000000000081526004016114dd90613f7a565b60405180910390fd5b80600a819055507fa90bff0aceea45301d0f327bedcaa08f4704297dfd3c9937dcdd580a6435b9d8600a54611519610d6d565b604051611527929190613f9a565b60405180910390a150565b61153d8484846118ab565b61154984848484612220565b611588576040517f08c379a000000000000000000000000000000000000000000000000000000000815260040161157f90614035565b60405180910390fd5b50505050565b6060611599826117e4565b6115d8576040517f08c379a00000000000000000000000000000000000000000000000000000000081526004016115cf906140c7565b60405180910390fd5b60006115e26123a7565b90506000815111611602576040518060200160405280600081525061162d565b8061160c84612439565b60405160200161161d929190614123565b6040516020818303038152906040525b915050919050565b60007f0000000000000000000000000000000000000000000000000000000000000000905090565b60075481565b6000600660008473ffffffffffffffffffffffffffffffffffffffff1673ffffffffffffffffffffffffffffffffffffffff16815260200190815260200160002060008373ffffffffffffffffffffffffffffffffffffffff1673ffffffffffffffffffffffffffffffffffffffff16815260200190815260200160002060009054906101000a900460ff16905092915050565b6116ff611e62565b600073ffffffffffffffffffffffffffffffffffffffff168173ffffffffffffffffffffffffffffffffffffffff160361176e576040517f08c379a0000000000000000000000000000000000000000000000000000000008152600401611765906141b9565b60405180910390fd5b61177781612101565b50565b60007f01ffc9a7000000000000000000000000000000000000000000000000000000007bffffffffffffffffffffffffffffffffffffffffffffffffffffffff1916827bffffffffffffffffffffffffffffffffffffffffffffffffffffffff1916149050919050565b6000805482109050919050565b600033905090565b826005600084815260200190815260200160002060006101000a81548173ffffffffffffffffffffffffffffffffffffffff021916908373ffffffffffffffffffffffffffffffffffffffff160217905550818373ffffffffffffffffffffffffffffffffffffffff168273ffffffffffffffffffffffffffffffffffffffff167f8c5be1e5ebec7d5bd14f71427d1e84f3dd0314c0f7b2291e5b200ac8c7c3b92560405160405180910390a4505050565b60006118b682611ee0565b90506000816000015173ffffffffffffffffffffffffffffffffffffffff166118dd6117f1565b73ffffffffffffffffffffffffffffffffffffffff16148061193957506119026117f1565b73ffffffffffffffffffffffffffffffffffffffff16611921846108dd565b73ffffffffffffffffffffffffffffffffffffffff16145b806119555750611954826000015161194f6117f1565b611663565b5b905080611997576040517f08c379a000000000000000000000000000000000000000000000000000000000815260040161198e9061424b565b60405180910390fd5b8473ffffffffffffffffffffffffffffffffffffffff16826000015173ffffffffffffffffffffffffffffffffffffffff1614611a09576040517f08c379a0000000000000000000000000000000000000000000000000000000008152600401611a00906142dd565b60405180910390fd5b600073ffffffffffffffffffffffffffffffffffffffff168473ffffffffffffffffffffffffffffffffffffffff1603611a78576040517f08c379a0000000000000000000000000000000000000000000000000000000008152600401611a6f9061436f565b60405180910390fd5b611a858585856001612507565b611a9560008484600001516117f9565b6001600460008773ffffffffffffffffffffffffffffffffffffffff1673ffffffffffffffffffffffffffffffffffffffff16815260200190815260200160002060000160008282829054906101000a90046fffffffffffffffffffffffffffffffff16611b0391906143ab565b92506101000a8154816fffffffffffffffffffffffffffffffff02191690836fffffffffffffffffffffffffffffffff1602179055506001600460008673ffffffffffffffffffffffffffffffffffffffff1673ffffffffffffffffffffffffffffffffffffffff16815260200190815260200160002060000160008282829054906101000a90046fffffffffffffffffffffffffffffffff16611ba791906143ef565b92506101000a8154816fffffffffffffffffffffffffffffffff02191690836fffffffffffffffffffffffffffffffff16021790555060405180604001604052808573ffffffffffffffffffffffffffffffffffffffff1681526020014267ffffffffffffffff168152506003600085815260200190815260200160002060008201518160000160006101000a81548173ffffffffffffffffffffffffffffffffffffffff021916908373ffffffffffffffffffffffffffffffffffffffff16021790555060208201518160000160146101000a81548167ffffffffffffffff021916908367ffffffffffffffff1602179055509050506000600184611cad9190613b5e565b9050600073ffffffffffffffffffffffffffffffffffffffff166003600083815260200190815260200160002060000160009054906101000a900473ffffffffffffffffffffffffffffffffffffffff1673ffffffffffffffffffffffffffffffffffffffff1603611df257611d22816117e4565b15611df1576040518060400160405280846000015173ffffffffffffffffffffffffffffffffffffffff168152602001846020015167ffffffffffffffff168152506003600083815260200190815260200160002060008201518160000160006101000a81548173ffffffffffffffffffffffffffffffffffffffff021916908373ffffffffffffffffffffffffffffffffffffffff16021790555060208201518160000160146101000a81548167ffffffffffffffff021916908367ffffffffffffffff1602179055509050505b5b838573ffffffffffffffffffffffffffffffffffffffff168773ffffffffffffffffffffffffffffffffffffffff167fddf252ad1be2c89b69c2b068fc378daa952ba7f163c4a11628f55a4df523b3ef60405160405180910390a4611e5a868686600161250d565b505050505050565b611e6a6117f1565b73ffffffffffffffffffffffffffffffffffffffff16611e8861125f565b73ffffffffffffffffffffffffffffffffffffffff1614611ede576040517f08c379a0000000000000000000000000000000000000000000000000000000008152600401611ed59061447f565b60405180910390fd5b565b611ee8612b67565b611ef1826117e4565b611f30576040517f08c379a0000000000000000000000000000000000000000000000000000000008152600401611f2790614511565b60405180910390fd5b60007f00000000000000000000000000000000000000000000000000000000000000008310611f945760017f000000000000000000000000000000000000000000000000000000000000000084611f87919061356a565b611f919190613b5e565b90505b60008390505b8181106120a2576000600360008381526020019081526020016000206040518060400160405290816000820160009054906101000a900473ffffffffffffffffffffffffffffffffffffffff1673ffffffffffffffffffffffffffffffffffffffff1673ffffffffffffffffffffffffffffffffffffffff1681526020016000820160149054906101000a900467ffffffffffffffff1667ffffffffffffffff1667ffffffffffffffff16815250509050600073ffffffffffffffffffffffffffffffffffffffff16816000015173ffffffffffffffffffffffffffffffffffffffff161461208e578093505050506120de565b50808061209a90614531565b915050611f9a565b506040517f08c379a00000000000000000000000000000000000000000000000000000000081526004016120d5906145cc565b60405180910390fd5b919050565b6120fd828260405180602001604052806000815250612513565b5050565b6000600860009054906101000a900473ffffffffffffffffffffffffffffffffffffffff16905081600860006101000a81548173ffffffffffffffffffffffffffffffffffffffff021916908373ffffffffffffffffffffffffffffffffffffffff1602179055508173ffffffffffffffffffffffffffffffffffffffff168173ffffffffffffffffffffffffffffffffffffffff167f8be0079c531659141344cd1fd0a4f28419497f9722a3daafe3b4186f6b6457e060405160405180910390a35050565b60026009540361220c576040517f08c379a000000000000000000000000000000000000000000000000000000000815260040161220390614638565b60405180910390fd5b6002600981905550565b6001600981905550565b60006122418473ffffffffffffffffffffffffffffffffffffffff166129f1565b1561239a578373ffffffffffffffffffffffffffffffffffffffff1663150b7a0261226a6117f1565b8786866040518563ffffffff1660e01b815260040161228c94939291906146ad565b6020604051808303816000875af19250505080156122c857506040513d601f19601f820116820180604052508101906122c5919061470e565b60015b61234a573d80600081146122f8576040519150601f19603f3d011682016040523d82523d6000602084013e6122fd565b606091505b506000815103612342576040517f08c379a000000000000000000000000000000000000000000000000000000000815260040161233990614035565b60405180910390fd5b805181602001fd5b63150b7a0260e01b7bffffffffffffffffffffffffffffffffffffffffffffffffffffffff1916817bffffffffffffffffffffffffffffffffffffffffffffffffffffffff19161491505061239f565b600190505b949350505050565b6060600b80546123b690613354565b80601f01602080910402602001604051908101604052809291908181526020018280546123e290613354565b801561242f5780601f106124045761010080835404028352916020019161242f565b820191906000526020600020905b81548152906001019060200180831161241257829003601f168201915b5050505050905090565b60606000600161244884612a14565b01905060008167ffffffffffffffff81111561246757612466612ed4565b5b6040519080825280601f01601f1916602001820160405280156124995781602001600182028036833780820191505090505b509050600082602001820190505b6001156124fc578080600190039150507f3031323334353637383961626364656600000000000000000000000000000000600a86061a8153600a85816124f0576124ef61473b565b5b049450600085036124a7575b819350505050919050565b50505050565b50505050565b600080549050600073ffffffffffffffffffffffffffffffffffffffff168473ffffffffffffffffffffffffffffffffffffffff1603612588576040517f08c379a000000000000000000000000000000000000000000000000000000000815260040161257f906147dc565b60405180910390fd5b612591816117e4565b156125d1576040517f08c379a00000000000000000000000000000000000000000000000000000000081526004016125c890614848565b60405180910390fd5b7f0000000000000000000000000000000000000000000000000000000000000000831115612634576040517f08c379a000000000000000000000000000000000000000000000000000000000815260040161262b906148da565b60405180910390fd5b6126416000858386612507565b6000600460008673ffffffffffffffffffffffffffffffffffffffff1673ffffffffffffffffffffffffffffffffffffffff1681526020019081526020016000206040518060400160405290816000820160009054906101000a90046fffffffffffffffffffffffffffffffff166fffffffffffffffffffffffffffffffff166fffffffffffffffffffffffffffffffff1681526020016000820160109054906101000a90046fffffffffffffffffffffffffffffffff166fffffffffffffffffffffffffffffffff166fffffffffffffffffffffffffffffffff16815250509050604051806040016040528085836000015161273e91906143ef565b6fffffffffffffffffffffffffffffffff16815260200185836020015161276591906143ef565b6fffffffffffffffffffffffffffffffff16815250600460008773ffffffffffffffffffffffffffffffffffffffff1673ffffffffffffffffffffffffffffffffffffffff16815260200190815260200160002060008201518160000160006101000a8154816fffffffffffffffffffffffffffffffff02191690836fffffffffffffffffffffffffffffffff16021790555060208201518160000160106101000a8154816fffffffffffffffffffffffffffffffff02191690836fffffffffffffffffffffffffffffffff16021790555090505060405180604001604052808673ffffffffffffffffffffffffffffffffffffffff1681526020014267ffffffffffffffff168152506003600084815260200190815260200160002060008201518160000160006101000a81548173ffffffffffffffffffffffffffffffffffffffff021916908373ffffffffffffffffffffffffffffffffffffffff16021790555060208201518160000160146101000a81548167ffffffffffffffff021916908367ffffffffffffffff160217905550905050600082905060005b858110156129d457818773ffffffffffffffffffffffffffffffffffffffff16600073ffffffffffffffffffffffffffffffffffffffff167fddf252ad1be2c89b69c2b068fc378daa952ba7f163c4a11628f55a4df523b3ef60405160405180910390a46129746000888488612220565b6129b3576040517f08c379a00000000000000000000000000000000000000000000000000000000081526004016129aa90614035565b60405180910390fd5b81806129be90613630565b92505080806129cc90613630565b915050612903565b50806000819055506129e9600087858861250d565b505050505050565b6000808273ffffffffffffffffffffffffffffffffffffffff163b119050919050565b600080600090507a184f03e93ff9f4daa797ed6e38ed64bf6a1f0100000000000000008310612a72577a184f03e93ff9f4daa797ed6e38ed64bf6a1f0100000000000000008381612a6857612a6761473b565b5b0492506040810190505b6d04ee2d6d415b85acef81000000008310612aaf576d04ee2d6d415b85acef81000000008381612aa557612aa461473b565b5b0492506020810190505b662386f26fc100008310612ade57662386f26fc100008381612ad457612ad361473b565b5b0492506010810190505b6305f5e1008310612b07576305f5e1008381612afd57612afc61473b565b5b0492506008810190505b6127108310612b2c576127108381612b2257612b2161473b565b5b0492506004810190505b60648310612b4f5760648381612b4557612b4461473b565b5b0492506002810190505b600a8310612b5e576001810190505b80915050919050565b6040518060400160405280600073ffffffffffffffffffffffffffffffffffffffff168152602001600067ffffffffffffffff1681525090565b6000604051905090565b600080fd5b600080fd5b60007fffffffff0000000000000000000000000000000000000000000000000000000082169050919050565b612bea81612bb5565b8114612bf557600080fd5b50565b600081359050612c0781612be1565b92915050565b600060208284031215612c2357612c22612bab565b5b6000612c3184828501612bf8565b91505092915050565b60008115159050919050565b612c4f81612c3a565b82525050565b6000602082019050612c6a6000830184612c46565b92915050565b600081519050919050565b600082825260208201905092915050565b60005b83811015612caa578082015181840152602081019050612c8f565b60008484015250505050565b6000601f19601f8301169050919050565b6000612cd282612c70565b612cdc8185612c7b565b9350612cec818560208601612c8c565b612cf581612cb6565b840191505092915050565b60006020820190508181036000830152612d1a8184612cc7565b905092915050565b6000819050919050565b612d3581612d22565b8114612d4057600080fd5b50565b600081359050612d5281612d2c565b92915050565b600060208284031215612d6e57612d6d612bab565b5b6000612d7c84828501612d43565b91505092915050565b600073ffffffffffffffffffffffffffffffffffffffff82169050919050565b6000612db082612d85565b9050919050565b612dc081612da5565b82525050565b6000602082019050612ddb6000830184612db7565b92915050565b612dea81612da5565b8114612df557600080fd5b50565b600081359050612e0781612de1565b92915050565b60008060408385031215612e2457612e23612bab565b5b6000612e3285828601612df8565b9250506020612e4385828601612d43565b9150509250929050565b612e5681612d22565b82525050565b6000602082019050612e716000830184612e4d565b92915050565b600080600060608486031215612e9057612e8f612bab565b5b6000612e9e86828701612df8565b9350506020612eaf86828701612df8565b9250506040612ec086828701612d43565b9150509250925092565b600080fd5b600080fd5b7f4e487b7100000000000000000000000000000000000000000000000000000000600052604160045260246000fd5b612f0c82612cb6565b810181811067ffffffffffffffff82111715612f2b57612f2a612ed4565b5b80604052505050565b6000612f3e612ba1565b9050612f4a8282612f03565b919050565b600067ffffffffffffffff821115612f6a57612f69612ed4565b5b612f7382612cb6565b9050602081019050919050565b82818337600083830152505050565b6000612fa2612f9d84612f4f565b612f34565b905082815260208101848484011115612fbe57612fbd612ecf565b5b612fc9848285612f80565b509392505050565b600082601f830112612fe657612fe5612eca565b5b8135612ff6848260208601612f8f565b91505092915050565b60006020828403121561301557613014612bab565b5b600082013567ffffffffffffffff81111561303357613032612bb0565b5b61303f84828501612fd1565b91505092915050565b60006020828403121561305e5761305d612bab565b5b600061306c84828501612df8565b91505092915050565b600081519050919050565b600082825260208201905092915050565b6000819050602082019050919050565b6130aa81612d22565b82525050565b60006130bc83836130a1565b60208301905092915050565b6000602082019050919050565b60006130e082613075565b6130ea8185613080565b93506130f583613091565b8060005b8381101561312657815161310d88826130b0565b9750613118836130c8565b9250506001810190506130f9565b5085935050505092915050565b6000602082019050818103600083015261314d81846130d5565b905092915050565b61315e81612c3a565b811461316957600080fd5b50565b60008135905061317b81613155565b92915050565b6000806040838503121561319857613197612bab565b5b60006131a685828601612df8565b92505060206131b78582860161316c565b9150509250929050565b600067ffffffffffffffff8211156131dc576131db612ed4565b5b6131e582612cb6565b9050602081019050919050565b6000613205613200846131c1565b612f34565b90508281526020810184848401111561322157613220612ecf565b5b61322c848285612f80565b509392505050565b600082601f83011261324957613248612eca565b5b81356132598482602086016131f2565b91505092915050565b6000806000806080858703121561327c5761327b612bab565b5b600061328a87828801612df8565b945050602061329b87828801612df8565b93505060406132ac87828801612d43565b925050606085013567ffffffffffffffff8111156132cd576132cc612bb0565b5b6132d987828801613234565b91505092959194509250565b600080604083850312156132fc576132fb612bab565b5b600061330a85828601612df8565b925050602061331b85828601612df8565b9150509250929050565b7f4e487b7100000000000000000000000000000000000000000000000000000000600052602260045260246000fd5b6000600282049050600182168061336c57607f821691505b60208210810361337f5761337e613325565b5b50919050565b7f455243373231413a20617070726f76656420717565727920666f72206e6f6e6560008201527f78697374656e7420746f6b656e00000000000000000000000000000000000000602082015250565b60006133e1602d83612c7b565b91506133ec82613385565b604082019050919050565b60006020820190508181036000830152613410816133d4565b9050919050565b7f455243373231413a20617070726f76616c20746f2063757272656e74206f776e60008201527f6572000000000000000000000000000000000000000000000000000000000000602082015250565b6000613473602283612c7b565b915061347e82613417565b604082019050919050565b600060208201905081810360008301526134a281613466565b9050919050565b7f455243373231413a20617070726f76652063616c6c6572206973206e6f74206f60008201527f776e6572206e6f7220617070726f76656420666f7220616c6c00000000000000602082015250565b6000613505603983612c7b565b9150613510826134a9565b604082019050919050565b60006020820190508181036000830152613534816134f8565b9050919050565b7f4e487b7100000000000000000000000000000000000000000000000000000000600052601160045260246000fd5b600061357582612d22565b915061358083612d22565b92508282039050818111156135985761359761353b565b5b92915050565b7f455243373231413a206f776e657220696e646578206f7574206f6620626f756e60008201527f6473000000000000000000000000000000000000000000000000000000000000602082015250565b60006135fa602283612c7b565b91506136058261359e565b604082019050919050565b60006020820190508181036000830152613629816135ed565b9050919050565b600061363b82612d22565b91507fffffffffffffffffffffffffffffffffffffffffffffffffffffffffffffffff820361366d5761366c61353b565b5b600182019050919050565b7f455243373231413a20756e61626c6520746f2067657420746f6b656e206f662060008201527f6f776e657220627920696e646578000000000000000000000000000000000000602082015250565b60006136d4602e83612c7b565b91506136df82613678565b604082019050919050565b60006020820190508181036000830152613703816136c7565b9050919050565b7f455243373231413a20676c6f62616c20696e646578206f7574206f6620626f7560008201527f6e64730000000000000000000000000000000000000000000000000000000000602082015250565b6000613766602383612c7b565b91506137718261370a565b604082019050919050565b6000602082019050818103600083015261379581613759565b9050919050565b60008190508160005260206000209050919050565b60006020601f8301049050919050565b600082821b905092915050565b6000600883026137fe7fffffffffffffffffffffffffffffffffffffffffffffffffffffffffffffffff826137c1565b61380886836137c1565b95508019841693508086168417925050509392505050565b6000819050919050565b600061384561384061383b84612d22565b613820565b612d22565b9050919050565b6000819050919050565b61385f8361382a565b61387361386b8261384c565b8484546137ce565b825550505050565b600090565b61388861387b565b613893818484613856565b505050565b5b818110156138b7576138ac600082613880565b600181019050613899565b5050565b601f8211156138fc576138cd8161379c565b6138d6846137b1565b810160208510156138e5578190505b6138f96138f1856137b1565b830182613898565b50505b505050565b600082821c905092915050565b600061391f60001984600802613901565b1980831691505092915050565b6000613938838361390e565b9150826002028217905092915050565b61395182612c70565b67ffffffffffffffff81111561396a57613969612ed4565b5b6139748254613354565b61397f8282856138bb565b600060209050601f8311600181146139b257600084156139a0578287015190505b6139aa858261392c565b865550613a12565b601f1984166139c08661379c565b60005b828110156139e8578489015182556001820191506020850194506020810190506139c3565b86831015613a055784890151613a01601f89168261390e565b8355505b6001600288020188555050505b505050505050565b7f5468652063616c6c657220697320616e6f7468657220636f6e74726163740000600082015250565b6000613a50601e83612c7b565b9150613a5b82613a1a565b602082019050919050565b60006020820190508181036000830152613a7f81613a43565b9050919050565b7f73616c6520686173206e6f7420626567756e2079657400000000000000000000600082015250565b6000613abc601683612c7b565b9150613ac782613a86565b602082019050919050565b60006020820190508181036000830152613aeb81613aaf565b9050919050565b7f63616e206e6f74206d696e74207468697320616d6f756e74206174206f6e6365600082015250565b6000613b28602083612c7b565b9150613b3382613af2565b602082019050919050565b60006020820190508181036000830152613b5781613b1b565b9050919050565b6000613b6982612d22565b9150613b7483612d22565b9250828201905080821115613b8c57613b8b61353b565b5b92915050565b7f6e6f7420656e6f7567682072656d61696e696720616d6f756e74730000000000600082015250565b6000613bc8601b83612c7b565b9150613bd382613b92565b602082019050919050565b60006020820190508181036000830152613bf781613bbb565b9050919050565b6000613c0982612d22565b9150613c1483612d22565b9250828202613c2281612d22565b91508282048414831517613c3957613c3861353b565b5b5092915050565b7f70617920646f73656e2774206d61746368210000000000000000000000000000600082015250565b6000613c76601283612c7b565b9150613c8182613c40565b602082019050919050565b60006020820190508181036000830152613ca581613c69565b9050919050565b6000606082019050613cc16000830186612db7565b613cce6020830185612e4d565b613cdb6040830184612e4d565b949350505050565b7f455243373231413a2062616c616e636520717565727920666f7220746865207a60008201527f65726f2061646472657373000000000000000000000000000000000000000000602082015250565b6000613d3f602b83612c7b565b9150613d4a82613ce3565b604082019050919050565b60006020820190508181036000830152613d6e81613d32565b9050919050565b7f4e487b7100000000000000000000000000000000000000000000000000000000600052603260045260246000fd5b7f62616c616e6365206973207a65726f0000000000000000000000000000000000600082015250565b6000613dda600f83612c7b565b9150613de582613da4565b602082019050919050565b60006020820190508181036000830152613e0981613dcd565b9050919050565b600081905092915050565b50565b6000613e2b600083613e10565b9150613e3682613e1b565b600082019050919050565b6000613e4c82613e1e565b9150819050919050565b7f57697468647261776c204661696c640000000000000000000000000000000000600082015250565b6000613e8c600f83612c7b565b9150613e9782613e56565b602082019050919050565b60006020820190508181036000830152613ebb81613e7f565b9050919050565b7f455243373231413a20617070726f766520746f2063616c6c6572000000000000600082015250565b6000613ef8601a83612c7b565b9150613f0382613ec2565b602082019050919050565b60006020820190508181036000830152613f2781613eeb565b9050919050565b7f73616c65207072696365206d7573742067726561746572207468616e20300000600082015250565b6000613f64601e83612c7b565b9150613f6f82613f2e565b602082019050919050565b60006020820190508181036000830152613f9381613f57565b9050919050565b6000604082019050613faf6000830185612e4d565b613fbc6020830184612c46565b9392505050565b7f455243373231413a207472616e7366657220746f206e6f6e204552433732315260008201527f6563656976657220696d706c656d656e74657200000000000000000000000000602082015250565b600061401f603383612c7b565b915061402a82613fc3565b604082019050919050565b6000602082019050818103600083015261404e81614012565b9050919050565b7f4552433732314d657461646174613a2055524920717565727920666f72206e6f60008201527f6e6578697374656e7420746f6b656e0000000000000000000000000000000000602082015250565b60006140b1602f83612c7b565b91506140bc82614055565b604082019050919050565b600060208201905081810360008301526140e0816140a4565b9050919050565b600081905092915050565b60006140fd82612c70565b61410781856140e7565b9350614117818560208601612c8c565b80840191505092915050565b600061412f82856140f2565b915061413b82846140f2565b91508190509392505050565b7f4f776e61626c653a206e6577206f776e657220697320746865207a65726f206160008201527f6464726573730000000000000000000000000000000000000000000000000000602082015250565b60006141a3602683612c7b565b91506141ae82614147565b604082019050919050565b600060208201905081810360008301526141d281614196565b9050919050565b7f455243373231413a207472616e736665722063616c6c6572206973206e6f742060008201527f6f776e6572206e6f7220617070726f7665640000000000000000000000000000602082015250565b6000614235603283612c7b565b9150614240826141d9565b604082019050919050565b6000602082019050818103600083015261426481614228565b9050919050565b7f455243373231413a207472616e736665722066726f6d20696e636f727265637460008201527f206f776e65720000000000000000000000000000000000000000000000000000602082015250565b60006142c7602683612c7b565b91506142d28261426b565b604082019050919050565b600060208201905081810360008301526142f6816142ba565b9050919050565b7f455243373231413a207472616e7366657220746f20746865207a65726f20616460008201527f6472657373000000000000000000000000000000000000000000000000000000602082015250565b6000614359602583612c7b565b9150614364826142fd565b604082019050919050565b600060208201905081810360008301526143888161434c565b9050919050565b60006fffffffffffffffffffffffffffffffff82169050919050565b60006143b68261438f565b91506143c18361438f565b925082820390506fffffffffffffffffffffffffffffffff8111156143e9576143e861353b565b5b92915050565b60006143fa8261438f565b91506144058361438f565b925082820190506fffffffffffffffffffffffffffffffff81111561442d5761442c61353b565b5b92915050565b7f4f776e61626c653a2063616c6c6572206973206e6f7420746865206f776e6572600082015250565b6000614469602083612c7b565b915061447482614433565b602082019050919050565b600060208201905081810360008301526144988161445c565b9050919050565b7f455243373231413a206f776e657220717565727920666f72206e6f6e6578697360008201527f74656e7420746f6b656e00000000000000000000000000000000000000000000602082015250565b60006144fb602a83612c7b565b91506145068261449f565b604082019050919050565b6000602082019050818103600083015261452a816144ee565b9050919050565b600061453c82612d22565b91506000820361454f5761454e61353b565b5b600182039050919050565b7f455243373231413a20756e61626c6520746f2064657465726d696e652074686560008201527f206f776e6572206f6620746f6b656e0000000000000000000000000000000000602082015250565b60006145b6602f83612c7b565b91506145c18261455a565b604082019050919050565b600060208201905081810360008301526145e5816145a9565b9050919050565b7f5265656e7472616e637947756172643a207265656e7472616e742063616c6c00600082015250565b6000614622601f83612c7b565b915061462d826145ec565b602082019050919050565b6000602082019050818103600083015261465181614615565b9050919050565b600081519050919050565b600082825260208201905092915050565b600061467f82614658565b6146898185614663565b9350614699818560208601612c8c565b6146a281612cb6565b840191505092915050565b60006080820190506146c26000830187612db7565b6146cf6020830186612db7565b6146dc6040830185612e4d565b81810360608301526146ee8184614674565b905095945050505050565b60008151905061470881612be1565b92915050565b60006020828403121561472457614723612bab565b5b6000614732848285016146f9565b91505092915050565b7f4e487b7100000000000000000000000000000000000000000000000000000000600052601260045260246000fd5b7f455243373231413a206d696e7420746f20746865207a65726f2061646472657360008201527f7300000000000000000000000000000000000000000000000000000000000000602082015250565b60006147c6602183612c7b565b91506147d18261476a565b604082019050919050565b600060208201905081810360008301526147f5816147b9565b9050919050565b7f455243373231413a20746f6b656e20616c7265616479206d696e746564000000600082015250565b6000614832601d83612c7b565b915061483d826147fc565b602082019050919050565b6000602082019050818103600083015261486181614825565b9050919050565b7f455243373231413a207175616e7469747920746f206d696e7420746f6f20686960008201527f6768000000000000000000000000000000000000000000000000000000000000602082015250565b60006148c4602283612c7b565b91506148cf82614868565b604082019050919050565b600060208201905081810360008301526148f3816148b7565b905091905056fea2646970667358221220f8d72658a3f09c7b1a74058947017e8ed9627a3f843c7226c540fae9177a577f64736f6c63430008110033",
  "immutableReferences": {
    "5454": [
      {
        "length": 32,
        "start": 2722
      },
      {
        "length": 32,
        "start": 3633
      }
    ],
    "6718": [
      {
        "length": 32,
        "start": 3732
      },
      {
        "length": 32,
        "start": 5689
      }
    ],
    "6720": [
      {
        "length": 32,
        "start": 7988
      },
      {
        "length": 32,
        "start": 8029
      },
      {
        "length": 32,
        "start": 9683
      }
    ]
  },
  "source": "// SPDX-License-Identifier: MIT\r\npragma solidity ^0.8.17;\r\n\r\nimport \"./standards/ERC721A.sol\";\r\nimport \"../node_modules/@openzeppelin/contracts/utils/Strings.sol\";\r\nimport \"../node_modules/@openzeppelin/contracts/access/Ownable.sol\";\r\nimport \"../node_modules/@openzeppelin/contracts/security/ReentrancyGuard.sol\";\r\n\r\n// remix  \r\n// import \"./standards/ERC721A.sol\";\r\n// import \"openzeppelin-solidity/contracts/utils/Strings.sol\";\r\n// import \"openzeppelin-solidity/contracts/access/Ownable.sol\";\r\n// import \"openzeppelin-solidity/contracts/security/ReentrancyGuard.sol\";\r\n\r\n// import \"../node_modules/@openzeppelin/contracts/utils/Context.sol\";\r\n// import \"../node_modules/@openzeppelin/contracts/token/ERC721/ERC721.sol\";\r\n\r\ncontract TestToken is  ERC721A, Ownable, ReentrancyGuard {\r\n    using Strings for uint256; // Strings \r\n    uint256 public immutable maxAmountPerMint; \r\n    uint256 public mintPrice;\r\n\r\n    event MintTestToken(address minter, uint256 quantity, uint256 totalSupply);\r\n    event SetMintOn(uint256 mintPrice, bool isMintOn);\r\n\r\n    constructor(uint256 maxBatchSize_, uint256 collectionSize_) ERC721A(\"Seop\", \"SEP\", maxBatchSize_, collectionSize_) {\r\n     maxAmountPerMint = maxBatchSize_;\r\n    }\r\n\r\n    modifier callerIsUser() {\r\n      //  CA EOA  \r\n      require(tx.origin == msg.sender, \"The caller is another contract\");\r\n      _;\r\n    }\r\n\r\n    function setMintOn(uint256 price) external onlyOwner {\r\n      // wei \r\n      require(price > 0,\"sale price must greater than 0\");\r\n      mintPrice = price;\r\n      emit SetMintOn(mintPrice, isMintOn());\r\n    }\r\n\r\n    function isMintOn() public view returns(bool) {\r\n      return mintPrice != 0; \r\n    }\r\n\r\n    function mintTestToken(uint256 quantity) external payable callerIsUser {\r\n      require(isMintOn(),\"sale has not begun yet\");\r\n      require(quantity <= maxAmountPerMint, \"can not mint this amount at once\"); //    \r\n      require(ERC721A.totalSupply() + quantity <= ERC721A.collectionSize, \"not enough remainig amounts\"); //   \r\n      require(msg.value == quantity * mintPrice, \"pay dosen't match!\");\r\n      ERC721A._safeMint(msg.sender, quantity);\r\n      emit MintTestToken(msg.sender, quantity, ERC721A.totalSupply());\r\n    }\r\n\r\n    string private _baseTokenURI = \"http://localhost:4000/\";\r\n\r\n  //   function tokenURI(uint256 tokenId)\r\n  //   public\r\n  //   view\r\n  //   override\r\n  //   returns (string memory)\r\n  // {\r\n  //   require(\r\n  //     _exists(tokenId),\r\n  //     \"ERC721Metadata: URI query for nonexistent token\"\r\n  //   );\r\n\r\n  //   string memory baseURI = _baseURI();\r\n  //   return\r\n  //     bytes(baseURI).length > 0\r\n  //       ? string(abi.encodePacked(baseURI, tokenId.toString()))\r\n  //       : \"\";\r\n  // }\r\n\r\n    function _baseURI() internal override view returns(string memory){\r\n      return _baseTokenURI;\r\n    }\r\n  \r\n    function setBaseURI(string memory baseURI) external onlyOwner {\r\n      _baseTokenURI = baseURI;\r\n    }\r\n    // tokenURI ERC721A   \r\n    //  _baseURI    baseURI \r\n    // tokenURI  _baseURI    tokenURI  return.\r\n\r\n    function withdrawAll() external onlyOwner nonReentrant {\r\n      require(address(this).balance > 0, \"balance is zero\");\r\n      // nonReentrant modifier  ?     .\r\n      // payable(msg.sender).transfer(address(this).balance);\r\n      (bool success, ) = msg.sender.call{value:address(this).balance}(\"\");\r\n      require(success, \"Withdrawl Faild\");\r\n    }\r\n\r\n    function maxSupply() view external returns(uint256) {\r\n      return ERC721A.collectionSize;\r\n    }\r\n    \r\n    function tokensOfOwner(address owner) view external returns(uint256[] memory) {\r\n      uint256 ownerBalance = ERC721A.balanceOf(owner);\r\n      uint256[] memory tokens = new uint256[](ownerBalance); //  \r\n      for (uint256 ind = 0; ind < ownerBalance; ind++) {\r\n        uint256 tokenId = tokenOfOwnerByIndex(owner, ind); // ERC721A \r\n        tokens[ind] = tokenId;\r\n      }\r\n      return tokens;\r\n    }\r\n\r\n}\r\n",
  "sourcePath": "C:\\Users\\KGA_\\Desktop\\nft_1222\\blockChain\\contracts\\TestToken.sol",
  "compiler": {
    "name": "solc",
    "version": "0.8.17+commit.8df45f5f.Emscripten.clang"
  },
  "schemaVersion": "3.4.11",
  "updatedAt": "2022-12-22T07:16:31.049Z",
  "networkType": "ethereum",
  "devdoc": {
    "kind": "dev",
    "methods": {
      "approve(address,uint256)": {
        "details": "See {IERC721-approve}."
      },
      "balanceOf(address)": {
        "details": "See {IERC721-balanceOf}."
      },
      "getApproved(uint256)": {
        "details": "See {IERC721-getApproved}."
      },
      "isApprovedForAll(address,address)": {
        "details": "See {IERC721-isApprovedForAll}."
      },
      "name()": {
        "details": "See {IERC721Metadata-name}."
      },
      "owner()": {
        "details": "Returns the address of the current owner."
      },
      "ownerOf(uint256)": {
        "details": "See {IERC721-ownerOf}."
      },
      "renounceOwnership()": {
        "details": "Leaves the contract without owner. It will not be possible to call `onlyOwner` functions anymore. Can only be called by the current owner. NOTE: Renouncing ownership will leave the contract without an owner, thereby removing any functionality that is only available to the owner."
      },
      "safeTransferFrom(address,address,uint256)": {
        "details": "See {IERC721-safeTransferFrom}."
      },
      "safeTransferFrom(address,address,uint256,bytes)": {
        "details": "See {IERC721-safeTransferFrom}."
      },
      "setApprovalForAll(address,bool)": {
        "details": "See {IERC721-setApprovalForAll}."
      },
      "supportsInterface(bytes4)": {
        "details": "See {IERC165-supportsInterface}."
      },
      "symbol()": {
        "details": "See {IERC721Metadata-symbol}."
      },
      "tokenByIndex(uint256)": {
        "details": "See {IERC721Enumerable-tokenByIndex}."
      },
      "tokenOfOwnerByIndex(address,uint256)": {
        "details": "See {IERC721Enumerable-tokenOfOwnerByIndex}. This read function is O(collectionSize). If calling from a separate contract, be sure to test gas first. It may also degrade with extremely large collection sizes (e.g >> 10000), test for your use case."
      },
      "tokenURI(uint256)": {
        "details": "See {IERC721Metadata-tokenURI}."
      },
      "totalSupply()": {
        "details": "See {IERC721Enumerable-totalSupply}."
      },
      "transferFrom(address,address,uint256)": {
        "details": "See {IERC721-transferFrom}."
      },
      "transferOwnership(address)": {
        "details": "Transfers ownership of the contract to a new account (`newOwner`). Can only be called by the current owner."
      }
    },
    "version": 1
  },
  "userdoc": {
    "kind": "user",
    "methods": {},
    "version": 1
  }
}