{
  "contractName": "TestToken",
  "abi": [
    {
      "inputs": [
        {
          "internalType": "uint256",
          "name": "maxBatchSize_",
          "type": "uint256"
        },
        {
          "internalType": "uint256",
          "name": "collectionSize_",
          "type": "uint256"
        }
      ],
      "stateMutability": "nonpayable",
      "type": "constructor"
    },
    {
      "anonymous": false,
      "inputs": [
        {
          "indexed": true,
          "internalType": "address",
          "name": "owner",
          "type": "address"
        },
        {
          "indexed": true,
          "internalType": "address",
          "name": "approved",
          "type": "address"
        },
        {
          "indexed": true,
          "internalType": "uint256",
          "name": "tokenId",
          "type": "uint256"
        }
      ],
      "name": "Approval",
      "type": "event"
    },
    {
      "anonymous": false,
      "inputs": [
        {
          "indexed": true,
          "internalType": "address",
          "name": "owner",
          "type": "address"
        },
        {
          "indexed": true,
          "internalType": "address",
          "name": "operator",
          "type": "address"
        },
        {
          "indexed": false,
          "internalType": "bool",
          "name": "approved",
          "type": "bool"
        }
      ],
      "name": "ApprovalForAll",
      "type": "event"
    },
    {
      "anonymous": false,
      "inputs": [
        {
          "indexed": false,
          "internalType": "address",
          "name": "minter",
          "type": "address"
        },
        {
          "indexed": false,
          "internalType": "uint256",
          "name": "quantity",
          "type": "uint256"
        },
        {
          "indexed": false,
          "internalType": "uint256",
          "name": "totalSupply",
          "type": "uint256"
        }
      ],
      "name": "MintTestToken",
      "type": "event"
    },
    {
      "anonymous": false,
      "inputs": [
        {
          "indexed": true,
          "internalType": "address",
          "name": "previousOwner",
          "type": "address"
        },
        {
          "indexed": true,
          "internalType": "address",
          "name": "newOwner",
          "type": "address"
        }
      ],
      "name": "OwnershipTransferred",
      "type": "event"
    },
    {
      "anonymous": false,
      "inputs": [
        {
          "indexed": true,
          "internalType": "address",
          "name": "from",
          "type": "address"
        },
        {
          "indexed": true,
          "internalType": "address",
          "name": "to",
          "type": "address"
        },
        {
          "indexed": true,
          "internalType": "uint256",
          "name": "tokenId",
          "type": "uint256"
        }
      ],
      "name": "Transfer",
      "type": "event"
    },
    {
      "inputs": [],
      "name": "_owner",
      "outputs": [
        {
          "internalType": "address",
          "name": "",
          "type": "address"
        }
      ],
      "stateMutability": "view",
      "type": "function",
      "constant": true
    },
    {
      "inputs": [
        {
          "internalType": "address",
          "name": "to",
          "type": "address"
        },
        {
          "internalType": "uint256",
          "name": "tokenId",
          "type": "uint256"
        }
      ],
      "name": "approve",
      "outputs": [],
      "stateMutability": "nonpayable",
      "type": "function"
    },
    {
      "inputs": [
        {
          "internalType": "address",
          "name": "owner",
          "type": "address"
        }
      ],
      "name": "balanceOf",
      "outputs": [
        {
          "internalType": "uint256",
          "name": "",
          "type": "uint256"
        }
      ],
      "stateMutability": "view",
      "type": "function",
      "constant": true
    },
    {
      "inputs": [
        {
          "internalType": "uint256",
          "name": "tokenId",
          "type": "uint256"
        }
      ],
      "name": "getApproved",
      "outputs": [
        {
          "internalType": "address",
          "name": "",
          "type": "address"
        }
      ],
      "stateMutability": "view",
      "type": "function",
      "constant": true
    },
    {
      "inputs": [
        {
          "internalType": "address",
          "name": "owner",
          "type": "address"
        },
        {
          "internalType": "address",
          "name": "operator",
          "type": "address"
        }
      ],
      "name": "isApprovedForAll",
      "outputs": [
        {
          "internalType": "bool",
          "name": "",
          "type": "bool"
        }
      ],
      "stateMutability": "view",
      "type": "function",
      "constant": true
    },
    {
      "inputs": [],
      "name": "maxAmountPerMint",
      "outputs": [
        {
          "internalType": "uint256",
          "name": "",
          "type": "uint256"
        }
      ],
      "stateMutability": "view",
      "type": "function",
      "constant": true
    },
    {
      "inputs": [],
      "name": "mintPrice",
      "outputs": [
        {
          "internalType": "uint256",
          "name": "",
          "type": "uint256"
        }
      ],
      "stateMutability": "view",
      "type": "function",
      "constant": true
    },
    {
      "inputs": [],
      "name": "name",
      "outputs": [
        {
          "internalType": "string",
          "name": "",
          "type": "string"
        }
      ],
      "stateMutability": "view",
      "type": "function",
      "constant": true
    },
    {
      "inputs": [],
      "name": "nextOwnerToExplicitlySet",
      "outputs": [
        {
          "internalType": "uint256",
          "name": "",
          "type": "uint256"
        }
      ],
      "stateMutability": "view",
      "type": "function",
      "constant": true
    },
    {
      "inputs": [],
      "name": "owner",
      "outputs": [
        {
          "internalType": "address",
          "name": "",
          "type": "address"
        }
      ],
      "stateMutability": "view",
      "type": "function",
      "constant": true
    },
    {
      "inputs": [
        {
          "internalType": "uint256",
          "name": "tokenId",
          "type": "uint256"
        }
      ],
      "name": "ownerOf",
      "outputs": [
        {
          "internalType": "address",
          "name": "",
          "type": "address"
        }
      ],
      "stateMutability": "view",
      "type": "function",
      "constant": true
    },
    {
      "inputs": [],
      "name": "renounceOwnership",
      "outputs": [],
      "stateMutability": "nonpayable",
      "type": "function"
    },
    {
      "inputs": [
        {
          "internalType": "address",
          "name": "from",
          "type": "address"
        },
        {
          "internalType": "address",
          "name": "to",
          "type": "address"
        },
        {
          "internalType": "uint256",
          "name": "tokenId",
          "type": "uint256"
        }
      ],
      "name": "safeTransferFrom",
      "outputs": [],
      "stateMutability": "nonpayable",
      "type": "function"
    },
    {
      "inputs": [
        {
          "internalType": "address",
          "name": "from",
          "type": "address"
        },
        {
          "internalType": "address",
          "name": "to",
          "type": "address"
        },
        {
          "internalType": "uint256",
          "name": "tokenId",
          "type": "uint256"
        },
        {
          "internalType": "bytes",
          "name": "_data",
          "type": "bytes"
        }
      ],
      "name": "safeTransferFrom",
      "outputs": [],
      "stateMutability": "nonpayable",
      "type": "function"
    },
    {
      "inputs": [
        {
          "internalType": "address",
          "name": "operator",
          "type": "address"
        },
        {
          "internalType": "bool",
          "name": "approved",
          "type": "bool"
        }
      ],
      "name": "setApprovalForAll",
      "outputs": [],
      "stateMutability": "nonpayable",
      "type": "function"
    },
    {
      "inputs": [
        {
          "internalType": "bytes4",
          "name": "interfaceId",
          "type": "bytes4"
        }
      ],
      "name": "supportsInterface",
      "outputs": [
        {
          "internalType": "bool",
          "name": "",
          "type": "bool"
        }
      ],
      "stateMutability": "view",
      "type": "function",
      "constant": true
    },
    {
      "inputs": [],
      "name": "symbol",
      "outputs": [
        {
          "internalType": "string",
          "name": "",
          "type": "string"
        }
      ],
      "stateMutability": "view",
      "type": "function",
      "constant": true
    },
    {
      "inputs": [
        {
          "internalType": "uint256",
          "name": "index",
          "type": "uint256"
        }
      ],
      "name": "tokenByIndex",
      "outputs": [
        {
          "internalType": "uint256",
          "name": "",
          "type": "uint256"
        }
      ],
      "stateMutability": "view",
      "type": "function",
      "constant": true
    },
    {
      "inputs": [
        {
          "internalType": "address",
          "name": "owner",
          "type": "address"
        },
        {
          "internalType": "uint256",
          "name": "index",
          "type": "uint256"
        }
      ],
      "name": "tokenOfOwnerByIndex",
      "outputs": [
        {
          "internalType": "uint256",
          "name": "",
          "type": "uint256"
        }
      ],
      "stateMutability": "view",
      "type": "function",
      "constant": true
    },
    {
      "inputs": [
        {
          "internalType": "uint256",
          "name": "tokenId",
          "type": "uint256"
        }
      ],
      "name": "tokenURI",
      "outputs": [
        {
          "internalType": "string",
          "name": "",
          "type": "string"
        }
      ],
      "stateMutability": "view",
      "type": "function",
      "constant": true
    },
    {
      "inputs": [],
      "name": "totalSupply",
      "outputs": [
        {
          "internalType": "uint256",
          "name": "",
          "type": "uint256"
        }
      ],
      "stateMutability": "view",
      "type": "function",
      "constant": true
    },
    {
      "inputs": [
        {
          "internalType": "address",
          "name": "from",
          "type": "address"
        },
        {
          "internalType": "address",
          "name": "to",
          "type": "address"
        },
        {
          "internalType": "uint256",
          "name": "tokenId",
          "type": "uint256"
        }
      ],
      "name": "transferFrom",
      "outputs": [],
      "stateMutability": "nonpayable",
      "type": "function"
    },
    {
      "inputs": [
        {
          "internalType": "address",
          "name": "newOwner",
          "type": "address"
        }
      ],
      "name": "transferOwnership",
      "outputs": [],
      "stateMutability": "nonpayable",
      "type": "function"
    },
    {
      "inputs": [
        {
          "internalType": "uint256",
          "name": "price",
          "type": "uint256"
        }
      ],
      "name": "setMintOn",
      "outputs": [],
      "stateMutability": "nonpayable",
      "type": "function"
    },
    {
      "inputs": [],
      "name": "isMintOn",
      "outputs": [
        {
          "internalType": "bool",
          "name": "",
          "type": "bool"
        }
      ],
      "stateMutability": "view",
      "type": "function",
      "constant": true
    },
    {
      "inputs": [
        {
          "internalType": "uint256",
          "name": "quantity",
          "type": "uint256"
        }
      ],
      "name": "mintTestToken",
      "outputs": [],
      "stateMutability": "payable",
      "type": "function",
      "payable": true
    },
    {
      "inputs": [
        {
          "internalType": "string",
          "name": "baseURI",
          "type": "string"
        }
      ],
      "name": "setBaseURI",
      "outputs": [],
      "stateMutability": "nonpayable",
      "type": "function"
    },
    {
      "inputs": [],
      "name": "withdrawAll",
      "outputs": [],
      "stateMutability": "nonpayable",
      "type": "function"
    },
    {
      "inputs": [],
      "name": "maxSupply",
      "outputs": [
        {
          "internalType": "uint256",
          "name": "",
          "type": "uint256"
        }
      ],
      "stateMutability": "view",
      "type": "function",
      "constant": true
    }
  ],
  "bytecode": "0x60e06040526000805560006007556040518060400160405280601781526020017f68747470733a2f2f6c6f63616c686f73743a343030302f000000000000000000815250600b908162000053919062000539565b503480156200006157600080fd5b5060405162004e8138038062004e81833981810160405281019062000087919062000656565b6040518060400160405280600581526020017f417a756b690000000000000000000000000000000000000000000000000000008152506040518060400160405280600581526020017f415a554b490000000000000000000000000000000000000000000000000000008152508383600081116200013b576040517f08c379a0000000000000000000000000000000000000000000000000000000008152600401620001329062000724565b60405180910390fd5b6000821162000181576040517f08c379a00000000000000000000000000000000000000000000000000000000081526004016200017890620007bc565b60405180910390fd5b836001908162000192919062000539565b508260029081620001a4919062000539565b508160a08181525050806080818152505050505050620001d9620001cd620001f160201b60201c565b620001f960201b60201c565b60016009819055508160c081815250505050620007de565b600033905090565b6000600860009054906101000a900473ffffffffffffffffffffffffffffffffffffffff16905081600860006101000a81548173ffffffffffffffffffffffffffffffffffffffff021916908373ffffffffffffffffffffffffffffffffffffffff1602179055508173ffffffffffffffffffffffffffffffffffffffff168173ffffffffffffffffffffffffffffffffffffffff167f8be0079c531659141344cd1fd0a4f28419497f9722a3daafe3b4186f6b6457e060405160405180910390a35050565b600081519050919050565b7f4e487b7100000000000000000000000000000000000000000000000000000000600052604160045260246000fd5b7f4e487b7100000000000000000000000000000000000000000000000000000000600052602260045260246000fd5b600060028204905060018216806200034157607f821691505b602082108103620003575762000356620002f9565b5b50919050565b60008190508160005260206000209050919050565b60006020601f8301049050919050565b600082821b905092915050565b600060088302620003c17fffffffffffffffffffffffffffffffffffffffffffffffffffffffffffffffff8262000382565b620003cd868362000382565b95508019841693508086168417925050509392505050565b6000819050919050565b6000819050919050565b60006200041a620004146200040e84620003e5565b620003ef565b620003e5565b9050919050565b6000819050919050565b6200043683620003f9565b6200044e620004458262000421565b8484546200038f565b825550505050565b600090565b6200046562000456565b620004728184846200042b565b505050565b5b818110156200049a576200048e6000826200045b565b60018101905062000478565b5050565b601f821115620004e957620004b3816200035d565b620004be8462000372565b81016020851015620004ce578190505b620004e6620004dd8562000372565b83018262000477565b50505b505050565b600082821c905092915050565b60006200050e60001984600802620004ee565b1980831691505092915050565b6000620005298383620004fb565b9150826002028217905092915050565b6200054482620002bf565b67ffffffffffffffff81111562000560576200055f620002ca565b5b6200056c825462000328565b620005798282856200049e565b600060209050601f831160018114620005b157600084156200059c578287015190505b620005a885826200051b565b86555062000618565b601f198416620005c1866200035d565b60005b82811015620005eb57848901518255600182019150602085019450602081019050620005c4565b868310156200060b578489015162000607601f891682620004fb565b8355505b6001600288020188555050505b505050505050565b600080fd5b6200063081620003e5565b81146200063c57600080fd5b50565b600081519050620006508162000625565b92915050565b6000806040838503121562000670576200066f62000620565b5b600062000680858286016200063f565b925050602062000693858286016200063f565b9150509250929050565b600082825260208201905092915050565b7f455243373231413a20636f6c6c656374696f6e206d757374206861766520612060008201527f6e6f6e7a65726f20737570706c79000000000000000000000000000000000000602082015250565b60006200070c602e836200069d565b91506200071982620006ae565b604082019050919050565b600060208201905081810360008301526200073f81620006fd565b9050919050565b7f455243373231413a206d61782062617463682073697a65206d7573742062652060008201527f6e6f6e7a65726f00000000000000000000000000000000000000000000000000602082015250565b6000620007a46027836200069d565b9150620007b18262000746565b604082019050919050565b60006020820190508181036000830152620007d78162000795565b9050919050565b60805160a05160c0516146576200082a60003960008181610a830152610e0f015260008181611dff01528181611e28015261249e015260008181610e72015261150401526146576000f3fe6080604052600436106101c25760003560e01c80636edfed2e116100f7578063aa7f90b011610095578063d5abeb0111610064578063d5abeb0114610633578063d7224ba01461065e578063e985e9c514610689578063f2fde38b146106c6576101c2565b8063aa7f90b014610579578063b2bdfa7b146105a2578063b88d4fde146105cd578063c87b56dd146105f6576101c2565b8063853828b6116100d1578063853828b6146104e35780638da5cb5b146104fa57806395d89b4114610525578063a22cb46514610550576101c2565b80636edfed2e1461047357806370a082311461048f578063715018a6146104cc576101c2565b80632f745c591161016457806355f804b31161013e57806355f804b3146103b75780636352211e146103e05780636817c76c1461041d5780636e06062414610448576101c2565b80632f745c591461031457806342842e0e146103515780634f6ccce71461037a576101c2565b8063095ea7b3116101a0578063095ea7b31461026c57806318160ddd1461029557806323b872dd146102c057806327acc76d146102e9576101c2565b806301ffc9a7146101c757806306fdde0314610204578063081812fc1461022f575b600080fd5b3480156101d357600080fd5b506101ee60048036038101906101e99190612ad8565b6106ef565b6040516101fb9190612b20565b60405180910390f35b34801561021057600080fd5b50610219610839565b6040516102269190612bcb565b60405180910390f35b34801561023b57600080fd5b5061025660048036038101906102519190612c23565b6108cb565b6040516102639190612c91565b60405180910390f35b34801561027857600080fd5b50610293600480360381019061028e9190612cd8565b610950565b005b3480156102a157600080fd5b506102aa610a68565b6040516102b79190612d27565b60405180910390f35b3480156102cc57600080fd5b506102e760048036038101906102e29190612d42565b610a71565b005b3480156102f557600080fd5b506102fe610a81565b60405161030b9190612d27565b60405180910390f35b34801561032057600080fd5b5061033b60048036038101906103369190612cd8565b610aa5565b6040516103489190612d27565b60405180910390f35b34801561035d57600080fd5b5061037860048036038101906103739190612d42565b610ca1565b005b34801561038657600080fd5b506103a1600480360381019061039c9190612c23565b610cc1565b6040516103ae9190612d27565b60405180910390f35b3480156103c357600080fd5b506103de60048036038101906103d99190612eca565b610d14565b005b3480156103ec57600080fd5b5061040760048036038101906104029190612c23565b610d2f565b6040516104149190612c91565b60405180910390f35b34801561042957600080fd5b50610432610d45565b60405161043f9190612d27565b60405180910390f35b34801561045457600080fd5b5061045d610d4b565b60405161046a9190612b20565b60405180910390f35b61048d60048036038101906104889190612c23565b610d58565b005b34801561049b57600080fd5b506104b660048036038101906104b19190612f13565b610f83565b6040516104c39190612d27565b60405180910390f35b3480156104d857600080fd5b506104e161106b565b005b3480156104ef57600080fd5b506104f861107f565b005b34801561050657600080fd5b5061050f611146565b60405161051c9190612c91565b60405180910390f35b34801561053157600080fd5b5061053a611170565b6040516105479190612bcb565b60405180910390f35b34801561055c57600080fd5b5061057760048036038101906105729190612f6c565b611202565b005b34801561058557600080fd5b506105a0600480360381019061059b9190612c23565b611382565b005b3480156105ae57600080fd5b506105b76113d7565b6040516105c49190612c91565b60405180910390f35b3480156105d957600080fd5b506105f460048036038101906105ef919061304d565b6113fd565b005b34801561060257600080fd5b5061061d60048036038101906106189190612c23565b611459565b60405161062a9190612bcb565b60405180910390f35b34801561063f57600080fd5b50610648611500565b6040516106559190612d27565b60405180910390f35b34801561066a57600080fd5b50610673611528565b6040516106809190612d27565b60405180910390f35b34801561069557600080fd5b506106b060048036038101906106ab91906130d0565b61152e565b6040516106bd9190612b20565b60405180910390f35b3480156106d257600080fd5b506106ed60048036038101906106e89190612f13565b6115c2565b005b60007f80ac58cd000000000000000000000000000000000000000000000000000000007bffffffffffffffffffffffffffffffffffffffffffffffffffffffff1916827bffffffffffffffffffffffffffffffffffffffffffffffffffffffff191614806107ba57507f5b5e139f000000000000000000000000000000000000000000000000000000007bffffffffffffffffffffffffffffffffffffffffffffffffffffffff1916827bffffffffffffffffffffffffffffffffffffffffffffffffffffffff1916145b8061082257507f780e9d63000000000000000000000000000000000000000000000000000000007bffffffffffffffffffffffffffffffffffffffffffffffffffffffff1916827bffffffffffffffffffffffffffffffffffffffffffffffffffffffff1916145b80610832575061083182611645565b5b9050919050565b6060600180546108489061313f565b80601f01602080910402602001604051908101604052809291908181526020018280546108749061313f565b80156108c15780601f10610896576101008083540402835291602001916108c1565b820191906000526020600020905b8154815290600101906020018083116108a457829003601f168201915b5050505050905090565b60006108d6826116af565b610915576040517f08c379a000000000000000000000000000000000000000000000000000000000815260040161090c906131e2565b60405180910390fd5b6005600083815260200190815260200160002060009054906101000a900473ffffffffffffffffffffffffffffffffffffffff169050919050565b600061095b82610d2f565b90508073ffffffffffffffffffffffffffffffffffffffff168373ffffffffffffffffffffffffffffffffffffffff16036109cb576040517f08c379a00000000000000000000000000000000000000000000000000000000081526004016109c290613274565b60405180910390fd5b8073ffffffffffffffffffffffffffffffffffffffff166109ea6116bc565b73ffffffffffffffffffffffffffffffffffffffff161480610a195750610a1881610a136116bc565b61152e565b5b610a58576040517f08c379a0000000000000000000000000000000000000000000000000000000008152600401610a4f90613306565b60405180910390fd5b610a638383836116c4565b505050565b60008054905090565b610a7c838383611776565b505050565b7f000000000000000000000000000000000000000000000000000000000000000081565b6000610ab083610f83565b8210610af1576040517f08c379a0000000000000000000000000000000000000000000000000000000008152600401610ae890613398565b60405180910390fd5b6000610afb610a68565b905060008060005b83811015610c5f576000600360008381526020019081526020016000206040518060400160405290816000820160009054906101000a900473ffffffffffffffffffffffffffffffffffffffff1673ffffffffffffffffffffffffffffffffffffffff1673ffffffffffffffffffffffffffffffffffffffff1681526020016000820160149054906101000a900467ffffffffffffffff1667ffffffffffffffff1667ffffffffffffffff16815250509050600073ffffffffffffffffffffffffffffffffffffffff16816000015173ffffffffffffffffffffffffffffffffffffffff1614610bf557806000015192505b8773ffffffffffffffffffffffffffffffffffffffff168373ffffffffffffffffffffffffffffffffffffffff1603610c4b57868403610c3c578195505050505050610c9b565b8380610c47906133e7565b9450505b508080610c57906133e7565b915050610b03565b506040517f08c379a0000000000000000000000000000000000000000000000000000000008152600401610c92906134a1565b60405180910390fd5b92915050565b610cbc838383604051806020016040528060008152506113fd565b505050565b6000610ccb610a68565b8210610d0c576040517f08c379a0000000000000000000000000000000000000000000000000000000008152600401610d0390613533565b60405180910390fd5b819050919050565b610d1c611d2d565b80600b9081610d2b91906136ff565b5050565b6000610d3a82611dab565b600001519050919050565b600a5481565b600080600a541415905090565b3373ffffffffffffffffffffffffffffffffffffffff163273ffffffffffffffffffffffffffffffffffffffff1614610dc6576040517f08c379a0000000000000000000000000000000000000000000000000000000008152600401610dbd9061381d565b60405180910390fd5b610dce610d4b565b610e0d576040517f08c379a0000000000000000000000000000000000000000000000000000000008152600401610e0490613889565b60405180910390fd5b7f0000000000000000000000000000000000000000000000000000000000000000811115610e70576040517f08c379a0000000000000000000000000000000000000000000000000000000008152600401610e67906138f5565b60405180910390fd5b7f000000000000000000000000000000000000000000000000000000000000000081610e9a610a68565b610ea49190613915565b1115610ee5576040517f08c379a0000000000000000000000000000000000000000000000000000000008152600401610edc90613995565b60405180910390fd5b600a5481610ef391906139b5565b3414610f34576040517f08c379a0000000000000000000000000000000000000000000000000000000008152600401610f2b90613a43565b60405180910390fd5b610f3e3382611fae565b7fd9c99e30d5f0d6f7dd3ef921d6895beddfc3b60646cfcd6996791c5166e2c79e3382610f69610a68565b604051610f7893929190613a63565b60405180910390a150565b60008073ffffffffffffffffffffffffffffffffffffffff168273ffffffffffffffffffffffffffffffffffffffff1603610ff3576040517f08c379a0000000000000000000000000000000000000000000000000000000008152600401610fea90613b0c565b60405180910390fd5b600460008373ffffffffffffffffffffffffffffffffffffffff1673ffffffffffffffffffffffffffffffffffffffff16815260200190815260200160002060000160009054906101000a90046fffffffffffffffffffffffffffffffff166fffffffffffffffffffffffffffffffff169050919050565b611073611d2d565b61107d6000611fcc565b565b611087611d2d565b61108f612092565b60003373ffffffffffffffffffffffffffffffffffffffff16476040516110b590613b5d565b60006040518083038185875af1925050503d80600081146110f2576040519150601f19603f3d011682016040523d82523d6000602084013e6110f7565b606091505b505090508061113b576040517f08c379a000000000000000000000000000000000000000000000000000000000815260040161113290613bbe565b60405180910390fd5b506111446120e1565b565b6000600860009054906101000a900473ffffffffffffffffffffffffffffffffffffffff16905090565b60606002805461117f9061313f565b80601f01602080910402602001604051908101604052809291908181526020018280546111ab9061313f565b80156111f85780601f106111cd576101008083540402835291602001916111f8565b820191906000526020600020905b8154815290600101906020018083116111db57829003601f168201915b5050505050905090565b61120a6116bc565b73ffffffffffffffffffffffffffffffffffffffff168273ffffffffffffffffffffffffffffffffffffffff1603611277576040517f08c379a000000000000000000000000000000000000000000000000000000000815260040161126e90613c2a565b60405180910390fd5b80600660006112846116bc565b73ffffffffffffffffffffffffffffffffffffffff1673ffffffffffffffffffffffffffffffffffffffff16815260200190815260200160002060008473ffffffffffffffffffffffffffffffffffffffff1673ffffffffffffffffffffffffffffffffffffffff16815260200190815260200160002060006101000a81548160ff0219169083151502179055508173ffffffffffffffffffffffffffffffffffffffff166113316116bc565b73ffffffffffffffffffffffffffffffffffffffff167f17307eab39ab6107e8899845ad3d59bd9653f200f220920489ca2b5937696c31836040516113769190612b20565b60405180910390a35050565b61138a611d2d565b600081116113cd576040517f08c379a00000000000000000000000000000000000000000000000000000000081526004016113c490613c96565b60405180910390fd5b80600a8190555050565b600860009054906101000a900473ffffffffffffffffffffffffffffffffffffffff1681565b611408848484611776565b611414848484846120eb565b611453576040517f08c379a000000000000000000000000000000000000000000000000000000000815260040161144a90613d28565b60405180910390fd5b50505050565b6060611464826116af565b6114a3576040517f08c379a000000000000000000000000000000000000000000000000000000000815260040161149a90613dba565b60405180910390fd5b60006114ad612272565b905060008151116114cd57604051806020016040528060008152506114f8565b806114d784612304565b6040516020016114e8929190613e16565b6040516020818303038152906040525b915050919050565b60007f0000000000000000000000000000000000000000000000000000000000000000905090565b60075481565b6000600660008473ffffffffffffffffffffffffffffffffffffffff1673ffffffffffffffffffffffffffffffffffffffff16815260200190815260200160002060008373ffffffffffffffffffffffffffffffffffffffff1673ffffffffffffffffffffffffffffffffffffffff16815260200190815260200160002060009054906101000a900460ff16905092915050565b6115ca611d2d565b600073ffffffffffffffffffffffffffffffffffffffff168173ffffffffffffffffffffffffffffffffffffffff1603611639576040517f08c379a000000000000000000000000000000000000000000000000000000000815260040161163090613eac565b60405180910390fd5b61164281611fcc565b50565b60007f01ffc9a7000000000000000000000000000000000000000000000000000000007bffffffffffffffffffffffffffffffffffffffffffffffffffffffff1916827bffffffffffffffffffffffffffffffffffffffffffffffffffffffff1916149050919050565b6000805482109050919050565b600033905090565b826005600084815260200190815260200160002060006101000a81548173ffffffffffffffffffffffffffffffffffffffff021916908373ffffffffffffffffffffffffffffffffffffffff160217905550818373ffffffffffffffffffffffffffffffffffffffff168273ffffffffffffffffffffffffffffffffffffffff167f8c5be1e5ebec7d5bd14f71427d1e84f3dd0314c0f7b2291e5b200ac8c7c3b92560405160405180910390a4505050565b600061178182611dab565b90506000816000015173ffffffffffffffffffffffffffffffffffffffff166117a86116bc565b73ffffffffffffffffffffffffffffffffffffffff16148061180457506117cd6116bc565b73ffffffffffffffffffffffffffffffffffffffff166117ec846108cb565b73ffffffffffffffffffffffffffffffffffffffff16145b80611820575061181f826000015161181a6116bc565b61152e565b5b905080611862576040517f08c379a000000000000000000000000000000000000000000000000000000000815260040161185990613f3e565b60405180910390fd5b8473ffffffffffffffffffffffffffffffffffffffff16826000015173ffffffffffffffffffffffffffffffffffffffff16146118d4576040517f08c379a00000000000000000000000000000000000000000000000000000000081526004016118cb90613fd0565b60405180910390fd5b600073ffffffffffffffffffffffffffffffffffffffff168473ffffffffffffffffffffffffffffffffffffffff1603611943576040517f08c379a000000000000000000000000000000000000000000000000000000000815260040161193a90614062565b60405180910390fd5b61195085858560016123d2565b61196060008484600001516116c4565b6001600460008773ffffffffffffffffffffffffffffffffffffffff1673ffffffffffffffffffffffffffffffffffffffff16815260200190815260200160002060000160008282829054906101000a90046fffffffffffffffffffffffffffffffff166119ce919061409e565b92506101000a8154816fffffffffffffffffffffffffffffffff02191690836fffffffffffffffffffffffffffffffff1602179055506001600460008673ffffffffffffffffffffffffffffffffffffffff1673ffffffffffffffffffffffffffffffffffffffff16815260200190815260200160002060000160008282829054906101000a90046fffffffffffffffffffffffffffffffff16611a7291906140e2565b92506101000a8154816fffffffffffffffffffffffffffffffff02191690836fffffffffffffffffffffffffffffffff16021790555060405180604001604052808573ffffffffffffffffffffffffffffffffffffffff1681526020014267ffffffffffffffff168152506003600085815260200190815260200160002060008201518160000160006101000a81548173ffffffffffffffffffffffffffffffffffffffff021916908373ffffffffffffffffffffffffffffffffffffffff16021790555060208201518160000160146101000a81548167ffffffffffffffff021916908367ffffffffffffffff1602179055509050506000600184611b789190613915565b9050600073ffffffffffffffffffffffffffffffffffffffff166003600083815260200190815260200160002060000160009054906101000a900473ffffffffffffffffffffffffffffffffffffffff1673ffffffffffffffffffffffffffffffffffffffff1603611cbd57611bed816116af565b15611cbc576040518060400160405280846000015173ffffffffffffffffffffffffffffffffffffffff168152602001846020015167ffffffffffffffff168152506003600083815260200190815260200160002060008201518160000160006101000a81548173ffffffffffffffffffffffffffffffffffffffff021916908373ffffffffffffffffffffffffffffffffffffffff16021790555060208201518160000160146101000a81548167ffffffffffffffff021916908367ffffffffffffffff1602179055509050505b5b838573ffffffffffffffffffffffffffffffffffffffff168773ffffffffffffffffffffffffffffffffffffffff167fddf252ad1be2c89b69c2b068fc378daa952ba7f163c4a11628f55a4df523b3ef60405160405180910390a4611d2586868660016123d8565b505050505050565b611d356116bc565b73ffffffffffffffffffffffffffffffffffffffff16611d53611146565b73ffffffffffffffffffffffffffffffffffffffff1614611da9576040517f08c379a0000000000000000000000000000000000000000000000000000000008152600401611da090614172565b60405180910390fd5b565b611db3612a32565b611dbc826116af565b611dfb576040517f08c379a0000000000000000000000000000000000000000000000000000000008152600401611df290614204565b60405180910390fd5b60007f00000000000000000000000000000000000000000000000000000000000000008310611e5f5760017f000000000000000000000000000000000000000000000000000000000000000084611e529190614224565b611e5c9190613915565b90505b60008390505b818110611f6d576000600360008381526020019081526020016000206040518060400160405290816000820160009054906101000a900473ffffffffffffffffffffffffffffffffffffffff1673ffffffffffffffffffffffffffffffffffffffff1673ffffffffffffffffffffffffffffffffffffffff1681526020016000820160149054906101000a900467ffffffffffffffff1667ffffffffffffffff1667ffffffffffffffff16815250509050600073ffffffffffffffffffffffffffffffffffffffff16816000015173ffffffffffffffffffffffffffffffffffffffff1614611f5957809350505050611fa9565b508080611f6590614258565b915050611e65565b506040517f08c379a0000000000000000000000000000000000000000000000000000000008152600401611fa0906142f3565b60405180910390fd5b919050565b611fc88282604051806020016040528060008152506123de565b5050565b6000600860009054906101000a900473ffffffffffffffffffffffffffffffffffffffff16905081600860006101000a81548173ffffffffffffffffffffffffffffffffffffffff021916908373ffffffffffffffffffffffffffffffffffffffff1602179055508173ffffffffffffffffffffffffffffffffffffffff168173ffffffffffffffffffffffffffffffffffffffff167f8be0079c531659141344cd1fd0a4f28419497f9722a3daafe3b4186f6b6457e060405160405180910390a35050565b6002600954036120d7576040517f08c379a00000000000000000000000000000000000000000000000000000000081526004016120ce9061435f565b60405180910390fd5b6002600981905550565b6001600981905550565b600061210c8473ffffffffffffffffffffffffffffffffffffffff166128bc565b15612265578373ffffffffffffffffffffffffffffffffffffffff1663150b7a026121356116bc565b8786866040518563ffffffff1660e01b815260040161215794939291906143d4565b6020604051808303816000875af192505050801561219357506040513d601f19601f820116820180604052508101906121909190614435565b60015b612215573d80600081146121c3576040519150601f19603f3d011682016040523d82523d6000602084013e6121c8565b606091505b50600081510361220d576040517f08c379a000000000000000000000000000000000000000000000000000000000815260040161220490613d28565b60405180910390fd5b805181602001fd5b63150b7a0260e01b7bffffffffffffffffffffffffffffffffffffffffffffffffffffffff1916817bffffffffffffffffffffffffffffffffffffffffffffffffffffffff19161491505061226a565b600190505b949350505050565b6060600b80546122819061313f565b80601f01602080910402602001604051908101604052809291908181526020018280546122ad9061313f565b80156122fa5780601f106122cf576101008083540402835291602001916122fa565b820191906000526020600020905b8154815290600101906020018083116122dd57829003601f168201915b5050505050905090565b606060006001612313846128df565b01905060008167ffffffffffffffff81111561233257612331612d9f565b5b6040519080825280601f01601f1916602001820160405280156123645781602001600182028036833780820191505090505b509050600082602001820190505b6001156123c7578080600190039150507f3031323334353637383961626364656600000000000000000000000000000000600a86061a8153600a85816123bb576123ba614462565b5b04945060008503612372575b819350505050919050565b50505050565b50505050565b600080549050600073ffffffffffffffffffffffffffffffffffffffff168473ffffffffffffffffffffffffffffffffffffffff1603612453576040517f08c379a000000000000000000000000000000000000000000000000000000000815260040161244a90614503565b60405180910390fd5b61245c816116af565b1561249c576040517f08c379a00000000000000000000000000000000000000000000000000000000081526004016124939061456f565b60405180910390fd5b7f00000000000000000000000000000000000000000000000000000000000000008311156124ff576040517f08c379a00000000000000000000000000000000000000000000000000000000081526004016124f690614601565b60405180910390fd5b61250c60008583866123d2565b6000600460008673ffffffffffffffffffffffffffffffffffffffff1673ffffffffffffffffffffffffffffffffffffffff1681526020019081526020016000206040518060400160405290816000820160009054906101000a90046fffffffffffffffffffffffffffffffff166fffffffffffffffffffffffffffffffff166fffffffffffffffffffffffffffffffff1681526020016000820160109054906101000a90046fffffffffffffffffffffffffffffffff166fffffffffffffffffffffffffffffffff166fffffffffffffffffffffffffffffffff16815250509050604051806040016040528085836000015161260991906140e2565b6fffffffffffffffffffffffffffffffff16815260200185836020015161263091906140e2565b6fffffffffffffffffffffffffffffffff16815250600460008773ffffffffffffffffffffffffffffffffffffffff1673ffffffffffffffffffffffffffffffffffffffff16815260200190815260200160002060008201518160000160006101000a8154816fffffffffffffffffffffffffffffffff02191690836fffffffffffffffffffffffffffffffff16021790555060208201518160000160106101000a8154816fffffffffffffffffffffffffffffffff02191690836fffffffffffffffffffffffffffffffff16021790555090505060405180604001604052808673ffffffffffffffffffffffffffffffffffffffff1681526020014267ffffffffffffffff168152506003600084815260200190815260200160002060008201518160000160006101000a81548173ffffffffffffffffffffffffffffffffffffffff021916908373ffffffffffffffffffffffffffffffffffffffff16021790555060208201518160000160146101000a81548167ffffffffffffffff021916908367ffffffffffffffff160217905550905050600082905060005b8581101561289f57818773ffffffffffffffffffffffffffffffffffffffff16600073ffffffffffffffffffffffffffffffffffffffff167fddf252ad1be2c89b69c2b068fc378daa952ba7f163c4a11628f55a4df523b3ef60405160405180910390a461283f60008884886120eb565b61287e576040517f08c379a000000000000000000000000000000000000000000000000000000000815260040161287590613d28565b60405180910390fd5b8180612889906133e7565b9250508080612897906133e7565b9150506127ce565b50806000819055506128b460008785886123d8565b505050505050565b6000808273ffffffffffffffffffffffffffffffffffffffff163b119050919050565b600080600090507a184f03e93ff9f4daa797ed6e38ed64bf6a1f010000000000000000831061293d577a184f03e93ff9f4daa797ed6e38ed64bf6a1f010000000000000000838161293357612932614462565b5b0492506040810190505b6d04ee2d6d415b85acef8100000000831061297a576d04ee2d6d415b85acef810000000083816129705761296f614462565b5b0492506020810190505b662386f26fc1000083106129a957662386f26fc10000838161299f5761299e614462565b5b0492506010810190505b6305f5e10083106129d2576305f5e10083816129c8576129c7614462565b5b0492506008810190505b61271083106129f75761271083816129ed576129ec614462565b5b0492506004810190505b60648310612a1a5760648381612a1057612a0f614462565b5b0492506002810190505b600a8310612a29576001810190505b80915050919050565b6040518060400160405280600073ffffffffffffffffffffffffffffffffffffffff168152602001600067ffffffffffffffff1681525090565b6000604051905090565b600080fd5b600080fd5b60007fffffffff0000000000000000000000000000000000000000000000000000000082169050919050565b612ab581612a80565b8114612ac057600080fd5b50565b600081359050612ad281612aac565b92915050565b600060208284031215612aee57612aed612a76565b5b6000612afc84828501612ac3565b91505092915050565b60008115159050919050565b612b1a81612b05565b82525050565b6000602082019050612b356000830184612b11565b92915050565b600081519050919050565b600082825260208201905092915050565b60005b83811015612b75578082015181840152602081019050612b5a565b60008484015250505050565b6000601f19601f8301169050919050565b6000612b9d82612b3b565b612ba78185612b46565b9350612bb7818560208601612b57565b612bc081612b81565b840191505092915050565b60006020820190508181036000830152612be58184612b92565b905092915050565b6000819050919050565b612c0081612bed565b8114612c0b57600080fd5b50565b600081359050612c1d81612bf7565b92915050565b600060208284031215612c3957612c38612a76565b5b6000612c4784828501612c0e565b91505092915050565b600073ffffffffffffffffffffffffffffffffffffffff82169050919050565b6000612c7b82612c50565b9050919050565b612c8b81612c70565b82525050565b6000602082019050612ca66000830184612c82565b92915050565b612cb581612c70565b8114612cc057600080fd5b50565b600081359050612cd281612cac565b92915050565b60008060408385031215612cef57612cee612a76565b5b6000612cfd85828601612cc3565b9250506020612d0e85828601612c0e565b9150509250929050565b612d2181612bed565b82525050565b6000602082019050612d3c6000830184612d18565b92915050565b600080600060608486031215612d5b57612d5a612a76565b5b6000612d6986828701612cc3565b9350506020612d7a86828701612cc3565b9250506040612d8b86828701612c0e565b9150509250925092565b600080fd5b600080fd5b7f4e487b7100000000000000000000000000000000000000000000000000000000600052604160045260246000fd5b612dd782612b81565b810181811067ffffffffffffffff82111715612df657612df5612d9f565b5b80604052505050565b6000612e09612a6c565b9050612e158282612dce565b919050565b600067ffffffffffffffff821115612e3557612e34612d9f565b5b612e3e82612b81565b9050602081019050919050565b82818337600083830152505050565b6000612e6d612e6884612e1a565b612dff565b905082815260208101848484011115612e8957612e88612d9a565b5b612e94848285612e4b565b509392505050565b600082601f830112612eb157612eb0612d95565b5b8135612ec1848260208601612e5a565b91505092915050565b600060208284031215612ee057612edf612a76565b5b600082013567ffffffffffffffff811115612efe57612efd612a7b565b5b612f0a84828501612e9c565b91505092915050565b600060208284031215612f2957612f28612a76565b5b6000612f3784828501612cc3565b91505092915050565b612f4981612b05565b8114612f5457600080fd5b50565b600081359050612f6681612f40565b92915050565b60008060408385031215612f8357612f82612a76565b5b6000612f9185828601612cc3565b9250506020612fa285828601612f57565b9150509250929050565b600067ffffffffffffffff821115612fc757612fc6612d9f565b5b612fd082612b81565b9050602081019050919050565b6000612ff0612feb84612fac565b612dff565b90508281526020810184848401111561300c5761300b612d9a565b5b613017848285612e4b565b509392505050565b600082601f83011261303457613033612d95565b5b8135613044848260208601612fdd565b91505092915050565b6000806000806080858703121561306757613066612a76565b5b600061307587828801612cc3565b945050602061308687828801612cc3565b935050604061309787828801612c0e565b925050606085013567ffffffffffffffff8111156130b8576130b7612a7b565b5b6130c48782880161301f565b91505092959194509250565b600080604083850312156130e7576130e6612a76565b5b60006130f585828601612cc3565b925050602061310685828601612cc3565b9150509250929050565b7f4e487b7100000000000000000000000000000000000000000000000000000000600052602260045260246000fd5b6000600282049050600182168061315757607f821691505b60208210810361316a57613169613110565b5b50919050565b7f455243373231413a20617070726f76656420717565727920666f72206e6f6e6560008201527f78697374656e7420746f6b656e00000000000000000000000000000000000000602082015250565b60006131cc602d83612b46565b91506131d782613170565b604082019050919050565b600060208201905081810360008301526131fb816131bf565b9050919050565b7f455243373231413a20617070726f76616c20746f2063757272656e74206f776e60008201527f6572000000000000000000000000000000000000000000000000000000000000602082015250565b600061325e602283612b46565b915061326982613202565b604082019050919050565b6000602082019050818103600083015261328d81613251565b9050919050565b7f455243373231413a20617070726f76652063616c6c6572206973206e6f74206f60008201527f776e6572206e6f7220617070726f76656420666f7220616c6c00000000000000602082015250565b60006132f0603983612b46565b91506132fb82613294565b604082019050919050565b6000602082019050818103600083015261331f816132e3565b9050919050565b7f455243373231413a206f776e657220696e646578206f7574206f6620626f756e60008201527f6473000000000000000000000000000000000000000000000000000000000000602082015250565b6000613382602283612b46565b915061338d82613326565b604082019050919050565b600060208201905081810360008301526133b181613375565b9050919050565b7f4e487b7100000000000000000000000000000000000000000000000000000000600052601160045260246000fd5b60006133f282612bed565b91507fffffffffffffffffffffffffffffffffffffffffffffffffffffffffffffffff8203613424576134236133b8565b5b600182019050919050565b7f455243373231413a20756e61626c6520746f2067657420746f6b656e206f662060008201527f6f776e657220627920696e646578000000000000000000000000000000000000602082015250565b600061348b602e83612b46565b91506134968261342f565b604082019050919050565b600060208201905081810360008301526134ba8161347e565b9050919050565b7f455243373231413a20676c6f62616c20696e646578206f7574206f6620626f7560008201527f6e64730000000000000000000000000000000000000000000000000000000000602082015250565b600061351d602383612b46565b9150613528826134c1565b604082019050919050565b6000602082019050818103600083015261354c81613510565b9050919050565b60008190508160005260206000209050919050565b60006020601f8301049050919050565b600082821b905092915050565b6000600883026135b57fffffffffffffffffffffffffffffffffffffffffffffffffffffffffffffffff82613578565b6135bf8683613578565b95508019841693508086168417925050509392505050565b6000819050919050565b60006135fc6135f76135f284612bed565b6135d7565b612bed565b9050919050565b6000819050919050565b613616836135e1565b61362a61362282613603565b848454613585565b825550505050565b600090565b61363f613632565b61364a81848461360d565b505050565b5b8181101561366e57613663600082613637565b600181019050613650565b5050565b601f8211156136b35761368481613553565b61368d84613568565b8101602085101561369c578190505b6136b06136a885613568565b83018261364f565b50505b505050565b600082821c905092915050565b60006136d6600019846008026136b8565b1980831691505092915050565b60006136ef83836136c5565b9150826002028217905092915050565b61370882612b3b565b67ffffffffffffffff81111561372157613720612d9f565b5b61372b825461313f565b613736828285613672565b600060209050601f8311600181146137695760008415613757578287015190505b61376185826136e3565b8655506137c9565b601f19841661377786613553565b60005b8281101561379f5784890151825560018201915060208501945060208101905061377a565b868310156137bc57848901516137b8601f8916826136c5565b8355505b6001600288020188555050505b505050505050565b7f5468652063616c6c657220697320616e6f7468657220636f6e74726163740000600082015250565b6000613807601e83612b46565b9150613812826137d1565b602082019050919050565b60006020820190508181036000830152613836816137fa565b9050919050565b7f73616c6520686173206e6f7420626567756e2079657400000000000000000000600082015250565b6000613873601683612b46565b915061387e8261383d565b602082019050919050565b600060208201905081810360008301526138a281613866565b9050919050565b7f63616e206e6f74206d696e74207468697320616d6f756e74206174206f6e6365600082015250565b60006138df602083612b46565b91506138ea826138a9565b602082019050919050565b6000602082019050818103600083015261390e816138d2565b9050919050565b600061392082612bed565b915061392b83612bed565b9250828201905080821115613943576139426133b8565b5b92915050565b7f6e6f7420656e6f7567682072656d61696e696720616d6f756e74730000000000600082015250565b600061397f601b83612b46565b915061398a82613949565b602082019050919050565b600060208201905081810360008301526139ae81613972565b9050919050565b60006139c082612bed565b91506139cb83612bed565b92508282026139d981612bed565b915082820484148315176139f0576139ef6133b8565b5b5092915050565b7f70617920646f73656e2774206d61746368210000000000000000000000000000600082015250565b6000613a2d601283612b46565b9150613a38826139f7565b602082019050919050565b60006020820190508181036000830152613a5c81613a20565b9050919050565b6000606082019050613a786000830186612c82565b613a856020830185612d18565b613a926040830184612d18565b949350505050565b7f455243373231413a2062616c616e636520717565727920666f7220746865207a60008201527f65726f2061646472657373000000000000000000000000000000000000000000602082015250565b6000613af6602b83612b46565b9150613b0182613a9a565b604082019050919050565b60006020820190508181036000830152613b2581613ae9565b9050919050565b600081905092915050565b50565b6000613b47600083613b2c565b9150613b5282613b37565b600082019050919050565b6000613b6882613b3a565b9150819050919050565b7f57697468647261776c204661696c640000000000000000000000000000000000600082015250565b6000613ba8600f83612b46565b9150613bb382613b72565b602082019050919050565b60006020820190508181036000830152613bd781613b9b565b9050919050565b7f455243373231413a20617070726f766520746f2063616c6c6572000000000000600082015250565b6000613c14601a83612b46565b9150613c1f82613bde565b602082019050919050565b60006020820190508181036000830152613c4381613c07565b9050919050565b7f73616c65207072696365206d7573742067726561746572207468616e20300000600082015250565b6000613c80601e83612b46565b9150613c8b82613c4a565b602082019050919050565b60006020820190508181036000830152613caf81613c73565b9050919050565b7f455243373231413a207472616e7366657220746f206e6f6e204552433732315260008201527f6563656976657220696d706c656d656e74657200000000000000000000000000602082015250565b6000613d12603383612b46565b9150613d1d82613cb6565b604082019050919050565b60006020820190508181036000830152613d4181613d05565b9050919050565b7f4552433732314d657461646174613a2055524920717565727920666f72206e6f60008201527f6e6578697374656e7420746f6b656e0000000000000000000000000000000000602082015250565b6000613da4602f83612b46565b9150613daf82613d48565b604082019050919050565b60006020820190508181036000830152613dd381613d97565b9050919050565b600081905092915050565b6000613df082612b3b565b613dfa8185613dda565b9350613e0a818560208601612b57565b80840191505092915050565b6000613e228285613de5565b9150613e2e8284613de5565b91508190509392505050565b7f4f776e61626c653a206e6577206f776e657220697320746865207a65726f206160008201527f6464726573730000000000000000000000000000000000000000000000000000602082015250565b6000613e96602683612b46565b9150613ea182613e3a565b604082019050919050565b60006020820190508181036000830152613ec581613e89565b9050919050565b7f455243373231413a207472616e736665722063616c6c6572206973206e6f742060008201527f6f776e6572206e6f7220617070726f7665640000000000000000000000000000602082015250565b6000613f28603283612b46565b9150613f3382613ecc565b604082019050919050565b60006020820190508181036000830152613f5781613f1b565b9050919050565b7f455243373231413a207472616e736665722066726f6d20696e636f727265637460008201527f206f776e65720000000000000000000000000000000000000000000000000000602082015250565b6000613fba602683612b46565b9150613fc582613f5e565b604082019050919050565b60006020820190508181036000830152613fe981613fad565b9050919050565b7f455243373231413a207472616e7366657220746f20746865207a65726f20616460008201527f6472657373000000000000000000000000000000000000000000000000000000602082015250565b600061404c602583612b46565b915061405782613ff0565b604082019050919050565b6000602082019050818103600083015261407b8161403f565b9050919050565b60006fffffffffffffffffffffffffffffffff82169050919050565b60006140a982614082565b91506140b483614082565b925082820390506fffffffffffffffffffffffffffffffff8111156140dc576140db6133b8565b5b92915050565b60006140ed82614082565b91506140f883614082565b925082820190506fffffffffffffffffffffffffffffffff8111156141205761411f6133b8565b5b92915050565b7f4f776e61626c653a2063616c6c6572206973206e6f7420746865206f776e6572600082015250565b600061415c602083612b46565b915061416782614126565b602082019050919050565b6000602082019050818103600083015261418b8161414f565b9050919050565b7f455243373231413a206f776e657220717565727920666f72206e6f6e6578697360008201527f74656e7420746f6b656e00000000000000000000000000000000000000000000602082015250565b60006141ee602a83612b46565b91506141f982614192565b604082019050919050565b6000602082019050818103600083015261421d816141e1565b9050919050565b600061422f82612bed565b915061423a83612bed565b9250828203905081811115614252576142516133b8565b5b92915050565b600061426382612bed565b915060008203614276576142756133b8565b5b600182039050919050565b7f455243373231413a20756e61626c6520746f2064657465726d696e652074686560008201527f206f776e6572206f6620746f6b656e0000000000000000000000000000000000602082015250565b60006142dd602f83612b46565b91506142e882614281565b604082019050919050565b6000602082019050818103600083015261430c816142d0565b9050919050565b7f5265656e7472616e637947756172643a207265656e7472616e742063616c6c00600082015250565b6000614349601f83612b46565b915061435482614313565b602082019050919050565b600060208201905081810360008301526143788161433c565b9050919050565b600081519050919050565b600082825260208201905092915050565b60006143a68261437f565b6143b0818561438a565b93506143c0818560208601612b57565b6143c981612b81565b840191505092915050565b60006080820190506143e96000830187612c82565b6143f66020830186612c82565b6144036040830185612d18565b8181036060830152614415818461439b565b905095945050505050565b60008151905061442f81612aac565b92915050565b60006020828403121561444b5761444a612a76565b5b600061445984828501614420565b91505092915050565b7f4e487b7100000000000000000000000000000000000000000000000000000000600052601260045260246000fd5b7f455243373231413a206d696e7420746f20746865207a65726f2061646472657360008201527f7300000000000000000000000000000000000000000000000000000000000000602082015250565b60006144ed602183612b46565b91506144f882614491565b604082019050919050565b6000602082019050818103600083015261451c816144e0565b9050919050565b7f455243373231413a20746f6b656e20616c7265616479206d696e746564000000600082015250565b6000614559601d83612b46565b915061456482614523565b602082019050919050565b600060208201905081810360008301526145888161454c565b9050919050565b7f455243373231413a207175616e7469747920746f206d696e7420746f6f20686960008201527f6768000000000000000000000000000000000000000000000000000000000000602082015250565b60006145eb602283612b46565b91506145f68261458f565b604082019050919050565b6000602082019050818103600083015261461a816145de565b905091905056fea2646970667358221220e099a8dba26dba8dcc0668ca9960ef8c4e0fdbbc0e26de67ef10113e9294fef064736f6c63430008110033",
  "immutableReferences": {
    "19": [
      {
        "length": 32,
        "start": 2691
      },
      {
        "length": 32,
        "start": 3599
      }
    ],
    "2040": [
      {
        "length": 32,
        "start": 3698
      },
      {
        "length": 32,
        "start": 5380
      }
    ],
    "2042": [
      {
        "length": 32,
        "start": 7679
      },
      {
        "length": 32,
        "start": 7720
      },
      {
        "length": 32,
        "start": 9374
      }
    ]
  },
  "source": "// SPDX-License-Identifier: MIT\npragma solidity ^0.8.17;\n\n// import \"../node_modules/@openzeppelin/contracts/token/ERC721/ERC721.sol\";\nimport \"../standards/ERC721A.sol\";\nimport \"../node_modules/@openzeppelin/contracts/utils/Strings.sol\";\nimport \"../node_modules/@openzeppelin/contracts/access/Ownable.sol\";\nimport \"../node_modules/@openzeppelin/contracts/security/ReentrancyGuard.sol\";\n// import \"../node_modules/@openzeppelin/contracts/utils/Context.sol\";\n\n\ncontract TestToken is  ERC721A, Ownable, ReentrancyGuard {\n    using Strings for uint256; // Strings \n    uint256 public immutable maxAmountPerMint;\n    uint256 public mintPrice;\n\n    event MintTestToken(address minter, uint256 quantity, uint256 totalSupply);\n\n    constructor(uint256 maxBatchSize_, uint256 collectionSize_) ERC721A(\"Azuki\", \"AZUKI\", maxBatchSize_, collectionSize_) {\n     maxAmountPerMint = maxBatchSize_;\n    }\n\n    modifier callerIsUser() {\n      //  CA EOA  \n      require(tx.origin == msg.sender, \"The caller is another contract\");\n      _;\n    }\n\n    function setMintOn(uint256 price) external onlyOwner {\n      // wei \n      require(price > 0,\"sale price must greater than 0\");\n      mintPrice = price;\n    }\n\n    function isMintOn() public view returns(bool) {\n      return mintPrice != 0; \n    }\n\n    function mintTestToken(uint256 quantity) external payable callerIsUser {\n      require(isMintOn(),\"sale has not begun yet\");\n      require(quantity <= maxAmountPerMint, \"can not mint this amount at once\"); //    \n      require(ERC721A.totalSupply() + quantity <= ERC721A.collectionSize, \"not enough remainig amounts\"); //   \n      require(msg.value == quantity * mintPrice, \"pay dosen't match!\");\n      ERC721A._safeMint(msg.sender, quantity);\n      emit MintTestToken(msg.sender, quantity, ERC721A.totalSupply());\n    }\n\n    string private _baseTokenURI = \"https://localhost:4000/\";\n\n  //   function tokenURI(uint256 tokenId)\n  //   public\n  //   view\n  //   override\n  //   returns (string memory)\n  // {\n  //   require(\n  //     _exists(tokenId),\n  //     \"ERC721Metadata: URI query for nonexistent token\"\n  //   );\n\n  //   string memory baseURI = _baseURI();\n  //   return\n  //     bytes(baseURI).length > 0\n  //       ? string(abi.encodePacked(baseURI, tokenId.toString()))\n  //       : \"\";\n  // }\n\n    function _baseURI() internal override view returns(string memory){\n      return _baseTokenURI;\n    }\n  \n    function setBaseURI(string memory baseURI) external onlyOwner {\n      _baseTokenURI = baseURI;\n    }\n    // tokenURI ERC721A   \n    //  _baseURI    baseURI \n    // tokenURI  _baseURI    tokenURI  return.\n\n    function withdrawAll() external onlyOwner nonReentrant {\n      // payable(msg.sender).transfer(address(this).balance);\n      (bool success, ) = msg.sender.call{value:address(this).balance}(\"\");\n      require(success, \"Withdrawl Faild\");\n    }\n\n    function maxSupply() view external returns(uint256){\n      return ERC721A.collectionSize;\n    }\n    \n\n}\n",
  "sourcePath": "/Users/ssup/Desktop/BlockChain Academy/Project/NFT_TeamProject/blockChain/contracts/TestToken.sol",
  "compiler": {
    "name": "solc",
    "version": "0.8.17+commit.8df45f5f.Emscripten.clang"
  },
  "schemaVersion": "3.4.11",
  "updatedAt": "2022-12-20T10:27:08.449Z",
  "networkType": "ethereum",
  "devdoc": {
    "kind": "dev",
    "methods": {
      "approve(address,uint256)": {
        "details": "See {IERC721-approve}."
      },
      "balanceOf(address)": {
        "details": "See {IERC721-balanceOf}."
      },
      "getApproved(uint256)": {
        "details": "See {IERC721-getApproved}."
      },
      "isApprovedForAll(address,address)": {
        "details": "See {IERC721-isApprovedForAll}."
      },
      "name()": {
        "details": "See {IERC721Metadata-name}."
      },
      "owner()": {
        "details": "Returns the address of the current owner."
      },
      "ownerOf(uint256)": {
        "details": "See {IERC721-ownerOf}."
      },
      "renounceOwnership()": {
        "details": "Leaves the contract without owner. It will not be possible to call `onlyOwner` functions anymore. Can only be called by the current owner. NOTE: Renouncing ownership will leave the contract without an owner, thereby removing any functionality that is only available to the owner."
      },
      "safeTransferFrom(address,address,uint256)": {
        "details": "See {IERC721-safeTransferFrom}."
      },
      "safeTransferFrom(address,address,uint256,bytes)": {
        "details": "See {IERC721-safeTransferFrom}."
      },
      "setApprovalForAll(address,bool)": {
        "details": "See {IERC721-setApprovalForAll}."
      },
      "supportsInterface(bytes4)": {
        "details": "See {IERC165-supportsInterface}."
      },
      "symbol()": {
        "details": "See {IERC721Metadata-symbol}."
      },
      "tokenByIndex(uint256)": {
        "details": "See {IERC721Enumerable-tokenByIndex}."
      },
      "tokenOfOwnerByIndex(address,uint256)": {
        "details": "See {IERC721Enumerable-tokenOfOwnerByIndex}. This read function is O(collectionSize). If calling from a separate contract, be sure to test gas first. It may also degrade with extremely large collection sizes (e.g >> 10000), test for your use case."
      },
      "tokenURI(uint256)": {
        "details": "See {IERC721Metadata-tokenURI}."
      },
      "totalSupply()": {
        "details": "See {IERC721Enumerable-totalSupply}."
      },
      "transferFrom(address,address,uint256)": {
        "details": "See {IERC721-transferFrom}."
      },
      "transferOwnership(address)": {
        "details": "Transfers ownership of the contract to a new account (`newOwner`). Can only be called by the current owner."
      }
    },
    "version": 1
  },
  "userdoc": {
    "kind": "user",
    "methods": {},
    "version": 1
  }
}