{
  "contractName": "TestTrade",
  "abi": [
    {
      "inputs": [
        {
          "internalType": "address",
          "name": "tokenAddress_",
          "type": "address"
        }
      ],
      "stateMutability": "nonpayable",
      "type": "constructor"
    },
    {
      "anonymous": false,
      "inputs": [
        {
          "indexed": false,
          "internalType": "uint256",
          "name": "tokenId",
          "type": "uint256"
        },
        {
          "indexed": false,
          "internalType": "uint256",
          "name": "bidPrice",
          "type": "uint256"
        },
        {
          "indexed": false,
          "internalType": "address",
          "name": "bider",
          "type": "address"
        }
      ],
      "name": "BidOnAuction",
      "type": "event"
    },
    {
      "anonymous": false,
      "inputs": [
        {
          "indexed": false,
          "internalType": "uint256",
          "name": "tokenId",
          "type": "uint256"
        },
        {
          "indexed": false,
          "internalType": "address",
          "name": "caller",
          "type": "address"
        }
      ],
      "name": "ClaimMatchedAuction",
      "type": "event"
    },
    {
      "anonymous": false,
      "inputs": [
        {
          "indexed": true,
          "internalType": "address",
          "name": "previousOwner",
          "type": "address"
        },
        {
          "indexed": true,
          "internalType": "address",
          "name": "newOwner",
          "type": "address"
        }
      ],
      "name": "OwnershipTransferred",
      "type": "event"
    },
    {
      "anonymous": false,
      "inputs": [
        {
          "indexed": false,
          "internalType": "uint256",
          "name": "tokenId",
          "type": "uint256"
        },
        {
          "indexed": false,
          "internalType": "address",
          "name": "failedBider",
          "type": "address"
        }
      ],
      "name": "RefundBid",
      "type": "event"
    },
    {
      "inputs": [],
      "name": "Token",
      "outputs": [
        {
          "internalType": "contract TestToken",
          "name": "",
          "type": "address"
        }
      ],
      "stateMutability": "view",
      "type": "function",
      "constant": true
    },
    {
      "inputs": [],
      "name": "owner",
      "outputs": [
        {
          "internalType": "address",
          "name": "",
          "type": "address"
        }
      ],
      "stateMutability": "view",
      "type": "function",
      "constant": true
    },
    {
      "inputs": [],
      "name": "renounceOwnership",
      "outputs": [],
      "stateMutability": "nonpayable",
      "type": "function"
    },
    {
      "inputs": [],
      "name": "saleFeeRate",
      "outputs": [
        {
          "internalType": "uint256",
          "name": "",
          "type": "uint256"
        }
      ],
      "stateMutability": "view",
      "type": "function",
      "constant": true
    },
    {
      "inputs": [
        {
          "internalType": "address",
          "name": "newOwner",
          "type": "address"
        }
      ],
      "name": "transferOwnership",
      "outputs": [],
      "stateMutability": "nonpayable",
      "type": "function"
    },
    {
      "inputs": [
        {
          "internalType": "uint256",
          "name": "rate",
          "type": "uint256"
        }
      ],
      "name": "setSaleFeeRate",
      "outputs": [],
      "stateMutability": "nonpayable",
      "type": "function"
    },
    {
      "inputs": [],
      "name": "onSaleList",
      "outputs": [
        {
          "internalType": "uint256[]",
          "name": "",
          "type": "uint256[]"
        }
      ],
      "stateMutability": "view",
      "type": "function",
      "constant": true
    },
    {
      "inputs": [
        {
          "internalType": "uint256",
          "name": "tokenId",
          "type": "uint256"
        }
      ],
      "name": "priceOfOnSale",
      "outputs": [
        {
          "internalType": "uint256",
          "name": "",
          "type": "uint256"
        }
      ],
      "stateMutability": "view",
      "type": "function",
      "constant": true
    },
    {
      "inputs": [
        {
          "internalType": "uint256",
          "name": "tokenId",
          "type": "uint256"
        },
        {
          "internalType": "uint256",
          "name": "price",
          "type": "uint256"
        }
      ],
      "name": "registerForSale",
      "outputs": [],
      "stateMutability": "nonpayable",
      "type": "function"
    },
    {
      "inputs": [
        {
          "internalType": "uint256",
          "name": "tokenId",
          "type": "uint256"
        }
      ],
      "name": "cancleSale",
      "outputs": [],
      "stateMutability": "nonpayable",
      "type": "function"
    },
    {
      "inputs": [
        {
          "internalType": "uint256",
          "name": "tokenId",
          "type": "uint256"
        }
      ],
      "name": "purchase",
      "outputs": [],
      "stateMutability": "payable",
      "type": "function",
      "payable": true
    },
    {
      "inputs": [],
      "name": "onAuctionList",
      "outputs": [
        {
          "internalType": "uint256[]",
          "name": "",
          "type": "uint256[]"
        }
      ],
      "stateMutability": "view",
      "type": "function",
      "constant": true
    },
    {
      "inputs": [
        {
          "internalType": "uint256",
          "name": "tokenId",
          "type": "uint256"
        }
      ],
      "name": "dataOfOnAuction",
      "outputs": [
        {
          "components": [
            {
              "internalType": "uint256",
              "name": "lastBidPrice",
              "type": "uint256"
            },
            {
              "internalType": "uint256",
              "name": "endTime",
              "type": "uint256"
            },
            {
              "internalType": "address",
              "name": "bider",
              "type": "address"
            }
          ],
          "internalType": "struct TestTrade.AuctionInfo",
          "name": "",
          "type": "tuple"
        }
      ],
      "stateMutability": "view",
      "type": "function",
      "constant": true
    },
    {
      "inputs": [
        {
          "internalType": "uint256",
          "name": "tokenId",
          "type": "uint256"
        },
        {
          "internalType": "uint256",
          "name": "minimumPrice",
          "type": "uint256"
        },
        {
          "internalType": "uint256",
          "name": "lastingMinutes",
          "type": "uint256"
        }
      ],
      "name": "registerForAuction",
      "outputs": [],
      "stateMutability": "nonpayable",
      "type": "function"
    },
    {
      "inputs": [
        {
          "internalType": "uint256",
          "name": "tokenId",
          "type": "uint256"
        }
      ],
      "name": "bidOnAcution",
      "outputs": [],
      "stateMutability": "payable",
      "type": "function",
      "payable": true
    },
    {
      "inputs": [
        {
          "internalType": "uint256",
          "name": "tokenId",
          "type": "uint256"
        }
      ],
      "name": "cancleFailedAuction",
      "outputs": [],
      "stateMutability": "nonpayable",
      "type": "function"
    },
    {
      "inputs": [
        {
          "internalType": "uint256",
          "name": "tokenId",
          "type": "uint256"
        }
      ],
      "name": "claimMatchedAuction",
      "outputs": [],
      "stateMutability": "nonpayable",
      "type": "function"
    },
    {
      "inputs": [],
      "name": "notClaimedAuctionList",
      "outputs": [
        {
          "internalType": "uint256[]",
          "name": "",
          "type": "uint256[]"
        }
      ],
      "stateMutability": "view",
      "type": "function",
      "constant": true
    },
    {
      "inputs": [
        {
          "internalType": "address",
          "name": "owner",
          "type": "address"
        }
      ],
      "name": "onBidList",
      "outputs": [
        {
          "internalType": "uint256[]",
          "name": "",
          "type": "uint256[]"
        }
      ],
      "stateMutability": "view",
      "type": "function",
      "constant": true
    },
    {
      "inputs": [],
      "name": "withdrawFees",
      "outputs": [],
      "stateMutability": "nonpayable",
      "type": "function"
    }
  ],
  "bytecode": "0x608060405260056002553480156200001657600080fd5b5060405162003d7338038062003d7383398181016040528101906200003c9190620001da565b6200005c62000050620000a460201b60201c565b620000ac60201b60201c565b80600160006101000a81548173ffffffffffffffffffffffffffffffffffffffff021916908373ffffffffffffffffffffffffffffffffffffffff160217905550506200020c565b600033905090565b60008060009054906101000a900473ffffffffffffffffffffffffffffffffffffffff169050816000806101000a81548173ffffffffffffffffffffffffffffffffffffffff021916908373ffffffffffffffffffffffffffffffffffffffff1602179055508173ffffffffffffffffffffffffffffffffffffffff168173ffffffffffffffffffffffffffffffffffffffff167f8be0079c531659141344cd1fd0a4f28419497f9722a3daafe3b4186f6b6457e060405160405180910390a35050565b600080fd5b600073ffffffffffffffffffffffffffffffffffffffff82169050919050565b6000620001a28262000175565b9050919050565b620001b48162000195565b8114620001c057600080fd5b50565b600081519050620001d481620001a9565b92915050565b600060208284031215620001f357620001f262000170565b5b60006200020384828501620001c3565b91505092915050565b613b57806200021c6000396000f3fe60806040526004361061011f5760003560e01c806386cd9b83116100a0578063e033c22911610064578063e033c229146103ad578063efef39a1146103c9578063f06d0a82146103e5578063f2fde38b1461040e578063f5c6a2cf146104375761011f565b806386cd9b83146102c85780638da5cb5b14610305578063c241267614610330578063cee64c651461035b578063d43115c3146103845761011f565b80635255f0d6116100e75780635255f0d6146101f55780635870ea5e1461023257806366066c771461025d578063715018a61461028857806382ef5ee51461029f5761011f565b80630957c2d9146101245780632afc9511146101615780633a1cff7f1461018a578063476343ee146101b35780634a5c46ed146101ca575b600080fd5b34801561013057600080fd5b5061014b60048036038101906101469190612821565b610462565b6040516101589190612916565b60405180910390f35b34801561016d57600080fd5b5061018860048036038101906101839190612964565b6105b5565b005b34801561019657600080fd5b506101b160048036038101906101ac9190612964565b6109ee565b005b3480156101bf57600080fd5b506101c8610a00565b005b3480156101d657600080fd5b506101df610b18565b6040516101ec91906129a0565b60405180910390f35b34801561020157600080fd5b5061021c60048036038101906102179190612964565b610b1e565b6040516102299190612a0c565b60405180910390f35b34801561023e57600080fd5b50610247610c0d565b6040516102549190612916565b60405180910390f35b34801561026957600080fd5b50610272610e02565b60405161027f9190612916565b60405180910390f35b34801561029457600080fd5b5061029d610f8f565b005b3480156102ab57600080fd5b506102c660048036038101906102c19190612a27565b610fa3565b005b3480156102d457600080fd5b506102ef60048036038101906102ea9190612964565b611200565b6040516102fc91906129a0565b60405180910390f35b34801561031157600080fd5b5061031a611272565b6040516103279190612a76565b60405180910390f35b34801561033c57600080fd5b5061034561129b565b6040516103529190612af0565b60405180910390f35b34801561036757600080fd5b50610382600480360381019061037d9190612b0b565b6112c1565b005b34801561039057600080fd5b506103ab60048036038101906103a69190612964565b611650565b005b6103c760048036038101906103c29190612964565b611653565b005b6103e360048036038101906103de9190612964565b6119e5565b005b3480156103f157600080fd5b5061040c60048036038101906104079190612964565b611d07565b005b34801561041a57600080fd5b5061043560048036038101906104309190612821565b611e82565b005b34801561044357600080fd5b5061044c611f05565b6040516104599190612916565b60405180910390f35b6060600061046f83612060565b67ffffffffffffffff81111561048857610487612b5e565b5b6040519080825280602002602001820160405280156104b65781602001602082028036833780820191505090505b50905060006104c3612141565b905060006104cf610e02565b90506000805b838110156105a85760008382815181106104f2576104f1612b8d565b5b602002602001015190508773ffffffffffffffffffffffffffffffffffffffff166004600083815260200190815260200160002060020160009054906101000a900473ffffffffffffffffffffffffffffffffffffffff1673ffffffffffffffffffffffffffffffffffffffff1603610594578086848151811061057957610578612b8d565b5b602002602001018181525050828061059090612beb565b9350505b5080806105a090612beb565b9150506104d5565b5083945050505050919050565b60006004600083815260200190815260200160002060010154905060006004600084815260200190815260200160002060000154905060006004600085815260200190815260200160002060020160009054906101000a900473ffffffffffffffffffffffffffffffffffffffff1690506000600160009054906101000a900473ffffffffffffffffffffffffffffffffffffffff1673ffffffffffffffffffffffffffffffffffffffff16636352211e866040518263ffffffff1660e01b815260040161068391906129a0565b602060405180830381865afa1580156106a0573d6000803e3d6000fd5b505050506040513d601f19601f820116820180604052508101906106c49190612c48565b9050428410610708576040517f08c379a00000000000000000000000000000000000000000000000000000000081526004016106ff90612cd2565b60405180910390fd5b6000830361074b576040517f08c379a000000000000000000000000000000000000000000000000000000000815260040161074290612d64565b60405180910390fd5b8173ffffffffffffffffffffffffffffffffffffffff163373ffffffffffffffffffffffffffffffffffffffff1614806107b057508073ffffffffffffffffffffffffffffffffffffffff163373ffffffffffffffffffffffffffffffffffffffff16145b6107ef576040517f08c379a00000000000000000000000000000000000000000000000000000000081526004016107e690612df6565b60405180910390fd5b6000606460025460646108029190612e16565b8561080d9190612e4a565b6108179190612ebb565b905060008273ffffffffffffffffffffffffffffffffffffffff168260405161083f90612f1d565b60006040518083038185875af1925050503d806000811461087c576040519150601f19603f3d011682016040523d82523d6000602084013e610881565b606091505b50509050806108c5576040517f08c379a00000000000000000000000000000000000000000000000000000000081526004016108bc90612f7e565b60405180910390fd5b600160009054906101000a900473ffffffffffffffffffffffffffffffffffffffff1673ffffffffffffffffffffffffffffffffffffffff166342842e0e84338a6040518463ffffffff1660e01b815260040161092493929190612f9e565b600060405180830381600087803b15801561093e57600080fd5b505af1158015610952573d6000803e3d6000fd5b5050505060006004600089815260200190815260200160002060020160006101000a81548173ffffffffffffffffffffffffffffffffffffffff021916908373ffffffffffffffffffffffffffffffffffffffff1602179055507f1b8a46b4ba92d15058e2a028d473fc5037835f1f8466a1a4a538634ac081d15487336040516109dd929190612fd5565b60405180910390a150505050505050565b6109f6612259565b8060028190555050565b610a08612259565b6000610a126122d7565b905060008147610a229190612e16565b905060008111610a67576040517f08c379a0000000000000000000000000000000000000000000000000000000008152600401610a5e90613070565b60405180910390fd5b60003373ffffffffffffffffffffffffffffffffffffffff1682604051610a8d90612f1d565b60006040518083038185875af1925050503d8060008114610aca576040519150601f19603f3d011682016040523d82523d6000602084013e610acf565b606091505b5050905080610b13576040517f08c379a0000000000000000000000000000000000000000000000000000000008152600401610b0a906130dc565b60405180910390fd5b505050565b60025481565b610b26612787565b42600460008481526020019081526020016000206001015411610b7e576040517f08c379a0000000000000000000000000000000000000000000000000000000008152600401610b7590613148565b60405180910390fd5b6004600083815260200190815260200160002060405180606001604052908160008201548152602001600182015481526020016002820160009054906101000a900473ffffffffffffffffffffffffffffffffffffffff1673ffffffffffffffffffffffffffffffffffffffff1673ffffffffffffffffffffffffffffffffffffffff16815250509050919050565b60606000610c19612386565b67ffffffffffffffff811115610c3257610c31612b5e565b5b604051908082528060200260200182016040528015610c605781602001602082028036833780820191505090505b509050600080600190505b600160009054906101000a900473ffffffffffffffffffffffffffffffffffffffff1673ffffffffffffffffffffffffffffffffffffffff166318160ddd6040518163ffffffff1660e01b8152600401602060405180830381865afa158015610cd8573d6000803e3d6000fd5b505050506040513d601f19601f82011682018060405250810190610cfc919061317d565b8111610df95760006004600083815260200190815260200160002060000154905060006004600084815260200190815260200160002060010154905060006004600085815260200190815260200160002060020160009054906101000a900473ffffffffffffffffffffffffffffffffffffffff169050600073ffffffffffffffffffffffffffffffffffffffff168173ffffffffffffffffffffffffffffffffffffffff1614158015610daf57504282105b15610de35783868681518110610dc857610dc7612b8d565b5b6020026020010181815250508480610ddf90612beb565b9550505b5050508080610df190612beb565b915050610c6b565b50819250505090565b60606000610e0e612141565b67ffffffffffffffff811115610e2757610e26612b5e565b5b604051908082528060200260200182016040528015610e555781602001602082028036833780820191505090505b509050600080600190505b600160009054906101000a900473ffffffffffffffffffffffffffffffffffffffff1673ffffffffffffffffffffffffffffffffffffffff166318160ddd6040518163ffffffff1660e01b8152600401602060405180830381865afa158015610ecd573d6000803e3d6000fd5b505050506040513d601f19601f82011682018060405250810190610ef1919061317d565b8111610f865760006004600083815260200190815260200160002060000154905060006004600084815260200190815260200160002060010154905060008214158015610f3d57504281115b15610f715782858581518110610f5657610f55612b8d565b5b6020026020010181815250508380610f6d90612beb565b9450505b50508080610f7e90612beb565b915050610e60565b50819250505090565b610f97612259565b610fa160006124ea565b565b3373ffffffffffffffffffffffffffffffffffffffff16600160009054906101000a900473ffffffffffffffffffffffffffffffffffffffff1673ffffffffffffffffffffffffffffffffffffffff16636352211e846040518263ffffffff1660e01b815260040161101591906129a0565b602060405180830381865afa158015611032573d6000803e3d6000fd5b505050506040513d601f19601f820116820180604052508101906110569190612c48565b73ffffffffffffffffffffffffffffffffffffffff16146110ac576040517f08c379a00000000000000000000000000000000000000000000000000000000081526004016110a3906131f6565b60405180910390fd5b600081116110ef576040517f08c379a00000000000000000000000000000000000000000000000000000000081526004016110e690613262565b60405180910390fd5b426110f983610b1e565b602001511061113d576040517f08c379a0000000000000000000000000000000000000000000000000000000008152600401611134906132ce565b60405180910390fd5b600160009054906101000a900473ffffffffffffffffffffffffffffffffffffffff1673ffffffffffffffffffffffffffffffffffffffff1663e985e9c533306040518363ffffffff1660e01b815260040161119a9291906132ee565b602060405180830381865afa1580156111b7573d6000803e3d6000fd5b505050506040513d601f19601f820116820180604052508101906111db919061334f565b6111e457600080fd5b8060036000848152602001908152602001600020819055505050565b600080600360008481526020019081526020016000205411611257576040517f08c379a000000000000000000000000000000000000000000000000000000000815260040161124e906133c8565b60405180910390fd5b60036000838152602001908152602001600020549050919050565b60008060009054906101000a900473ffffffffffffffffffffffffffffffffffffffff16905090565b600160009054906101000a900473ffffffffffffffffffffffffffffffffffffffff1681565b3373ffffffffffffffffffffffffffffffffffffffff16600160009054906101000a900473ffffffffffffffffffffffffffffffffffffffff1673ffffffffffffffffffffffffffffffffffffffff16636352211e856040518263ffffffff1660e01b815260040161133391906129a0565b602060405180830381865afa158015611350573d6000803e3d6000fd5b505050506040513d601f19601f820116820180604052508101906113749190612c48565b73ffffffffffffffffffffffffffffffffffffffff16146113ca576040517f08c379a00000000000000000000000000000000000000000000000000000000081526004016113c1906131f6565b60405180910390fd5b66038d7ea4c68000821015611414576040517f08c379a000000000000000000000000000000000000000000000000000000000815260040161140b9061345a565b60405180910390fd5b600061141f84611200565b1115611460576040517f08c379a0000000000000000000000000000000000000000000000000000000008152600401611457906134c6565b60405180910390fd5b4261146a84610b1e565b60200151106114ae576040517f08c379a00000000000000000000000000000000000000000000000000000000081526004016114a590613532565b60405180910390fd5b600160009054906101000a900473ffffffffffffffffffffffffffffffffffffffff1673ffffffffffffffffffffffffffffffffffffffff1663e985e9c533306040518363ffffffff1660e01b815260040161150b9291906132ee565b602060405180830381865afa158015611528573d6000803e3d6000fd5b505050506040513d601f19601f8201168201806040525081019061154c919061334f565b61158b576040517f08c379a00000000000000000000000000000000000000000000000000000000081526004016115829061359e565b60405180910390fd5b6000603c8261159a9190612e4a565b426115a591906135be565b90506040518060600160405280848152602001828152602001600073ffffffffffffffffffffffffffffffffffffffff1681525060046000868152602001908152602001600020600082015181600001556020820151816001015560408201518160020160006101000a81548173ffffffffffffffffffffffffffffffffffffffff021916908373ffffffffffffffffffffffffffffffffffffffff16021790555090505050505050565b50565b60006004600083815260200190815260200160002060000154905060006004600084815260200190815260200160002060010154905060006004600085815260200190815260200160002060020160009054906101000a900473ffffffffffffffffffffffffffffffffffffffff169050814210611706576040517f08c379a00000000000000000000000000000000000000000000000000000000081526004016116fd9061363e565b60405180910390fd5b3373ffffffffffffffffffffffffffffffffffffffff16600160009054906101000a900473ffffffffffffffffffffffffffffffffffffffff1673ffffffffffffffffffffffffffffffffffffffff16636352211e866040518263ffffffff1660e01b815260040161177891906129a0565b602060405180830381865afa158015611795573d6000803e3d6000fd5b505050506040513d601f19601f820116820180604052508101906117b99190612c48565b73ffffffffffffffffffffffffffffffffffffffff160361180f576040517f08c379a0000000000000000000000000000000000000000000000000000000008152600401611806906136aa565b60405180910390fd5b60008311611852576040517f08c379a000000000000000000000000000000000000000000000000000000000815260040161184990613716565b60405180910390fd5b823411611894576040517f08c379a000000000000000000000000000000000000000000000000000000000815260040161188b906137a8565b60405180910390fd5b600066038d7ea4c6800084346118aa9190612e16565b6118b491906137c8565b146118f4576040517f08c379a00000000000000000000000000000000000000000000000000000000081526004016118eb9061381c565b60405180910390fd5b600073ffffffffffffffffffffffffffffffffffffffff168173ffffffffffffffffffffffffffffffffffffffff1614611934576119338482856125ae565b5b346004600086815260200190815260200160002060000181905550336004600086815260200190815260200160002060020160006101000a81548173ffffffffffffffffffffffffffffffffffffffff021916908373ffffffffffffffffffffffffffffffffffffffff1602179055507f2e8aa4a142971e5869dd16ff8b28d697bb44ae2491e376ddaa14d601be1c0f858434836040516119d79392919061383c565b60405180910390a150505050565b6000600360008381526020019081526020016000205490506000600160009054906101000a900473ffffffffffffffffffffffffffffffffffffffff1673ffffffffffffffffffffffffffffffffffffffff16636352211e846040518263ffffffff1660e01b8152600401611a5a91906129a0565b602060405180830381865afa158015611a77573d6000803e3d6000fd5b505050506040513d601f19601f82011682018060405250810190611a9b9190612c48565b90503373ffffffffffffffffffffffffffffffffffffffff168173ffffffffffffffffffffffffffffffffffffffff1603611b0b576040517f08c379a0000000000000000000000000000000000000000000000000000000008152600401611b02906138bf565b60405180910390fd5b60008211611b4e576040517f08c379a0000000000000000000000000000000000000000000000000000000008152600401611b459061392b565b60405180910390fd5b813414611b90576040517f08c379a0000000000000000000000000000000000000000000000000000000008152600401611b8790613997565b60405180910390fd5b600060646002546064611ba39190612e16565b84611bae9190612e4a565b611bb89190612ebb565b905060008273ffffffffffffffffffffffffffffffffffffffff1682604051611be090612f1d565b60006040518083038185875af1925050503d8060008114611c1d576040519150601f19603f3d011682016040523d82523d6000602084013e611c22565b606091505b5050905080611c66576040517f08c379a0000000000000000000000000000000000000000000000000000000008152600401611c5d90612f7e565b60405180910390fd5b600160009054906101000a900473ffffffffffffffffffffffffffffffffffffffff1673ffffffffffffffffffffffffffffffffffffffff166342842e0e8433886040518463ffffffff1660e01b8152600401611cc593929190612f9e565b600060405180830381600087803b158015611cdf57600080fd5b505af1158015611cf3573d6000803e3d6000fd5b50505050611d0085611d07565b5050505050565b3373ffffffffffffffffffffffffffffffffffffffff16600160009054906101000a900473ffffffffffffffffffffffffffffffffffffffff1673ffffffffffffffffffffffffffffffffffffffff16636352211e836040518263ffffffff1660e01b8152600401611d7991906129a0565b602060405180830381865afa158015611d96573d6000803e3d6000fd5b505050506040513d601f19601f82011682018060405250810190611dba9190612c48565b73ffffffffffffffffffffffffffffffffffffffff1614611e10576040517f08c379a0000000000000000000000000000000000000000000000000000000008152600401611e07906131f6565b60405180910390fd5b6000600360008381526020019081526020016000205411611e66576040517f08c379a0000000000000000000000000000000000000000000000000000000008152600401611e5d906133c8565b60405180910390fd5b6000600360008381526020019081526020016000208190555050565b611e8a612259565b600073ffffffffffffffffffffffffffffffffffffffff168173ffffffffffffffffffffffffffffffffffffffff1603611ef9576040517f08c379a0000000000000000000000000000000000000000000000000000000008152600401611ef090613a29565b60405180910390fd5b611f02816124ea565b50565b60606000611f11612699565b67ffffffffffffffff811115611f2a57611f29612b5e565b5b604051908082528060200260200182016040528015611f585781602001602082028036833780820191505090505b509050600080600190505b600160009054906101000a900473ffffffffffffffffffffffffffffffffffffffff1673ffffffffffffffffffffffffffffffffffffffff166318160ddd6040518163ffffffff1660e01b8152600401602060405180830381865afa158015611fd0573d6000803e3d6000fd5b505050506040513d601f19601f82011682018060405250810190611ff4919061317d565b8111612057576000600360008381526020019081526020016000205414612044578083838151811061202957612028612b8d565b5b602002602001018181525050818061204090612beb565b9250505b808061204f90612beb565b915050611f63565b50819250505090565b600080600090506000612071612141565b9050600061207d610e02565b905060005b8281101561213557600082828151811061209f5761209e612b8d565b5b602002602001015190508673ffffffffffffffffffffffffffffffffffffffff166004600083815260200190815260200160002060020160009054906101000a900473ffffffffffffffffffffffffffffffffffffffff1673ffffffffffffffffffffffffffffffffffffffff160361212157848061211d90612beb565b9550505b50808061212d90612beb565b915050612082565b50829350505050919050565b6000806000600190505b600160009054906101000a900473ffffffffffffffffffffffffffffffffffffffff1673ffffffffffffffffffffffffffffffffffffffff166318160ddd6040518163ffffffff1660e01b8152600401602060405180830381865afa1580156121b8573d6000803e3d6000fd5b505050506040513d601f19601f820116820180604052508101906121dc919061317d565b8111612251576000600460008381526020019081526020016000206000015490506000600460008481526020019081526020016000206001015490506000821415801561222857504281115b1561223c57838061223890612beb565b9450505b5050808061224990612beb565b91505061214b565b508091505090565b61226161277f565b73ffffffffffffffffffffffffffffffffffffffff1661227f611272565b73ffffffffffffffffffffffffffffffffffffffff16146122d5576040517f08c379a00000000000000000000000000000000000000000000000000000000081526004016122cc90613a95565b60405180910390fd5b565b6000806122e2610c0d565b9050600080600090505b825181101561237d57600083828151811061230a57612309612b8d565b5b602002602001015190506000600460008381526020019081526020016000206000015490506000606460025460646123429190612e16565b8361234d9190612e4a565b6123579190612ebb565b9050808561236591906135be565b9450505050808061237590612beb565b9150506122ec565b50809250505090565b6000806000600190505b600160009054906101000a900473ffffffffffffffffffffffffffffffffffffffff1673ffffffffffffffffffffffffffffffffffffffff166318160ddd6040518163ffffffff1660e01b8152600401602060405180830381865afa1580156123fd573d6000803e3d6000fd5b505050506040513d601f19601f82011682018060405250810190612421919061317d565b81116124e25760006004600083815260200190815260200160002060010154905060006004600084815260200190815260200160002060020160009054906101000a900473ffffffffffffffffffffffffffffffffffffffff169050600073ffffffffffffffffffffffffffffffffffffffff168173ffffffffffffffffffffffffffffffffffffffff16141580156124b957504282105b156124cd5783806124c990612beb565b9450505b505080806124da90612beb565b915050612390565b508091505090565b60008060009054906101000a900473ffffffffffffffffffffffffffffffffffffffff169050816000806101000a81548173ffffffffffffffffffffffffffffffffffffffff021916908373ffffffffffffffffffffffffffffffffffffffff1602179055508173ffffffffffffffffffffffffffffffffffffffff168173ffffffffffffffffffffffffffffffffffffffff167f8be0079c531659141344cd1fd0a4f28419497f9722a3daafe3b4186f6b6457e060405160405180910390a35050565b60008273ffffffffffffffffffffffffffffffffffffffff16826040516125d490612f1d565b60006040518083038185875af1925050503d8060008114612611576040519150601f19603f3d011682016040523d82523d6000602084013e612616565b606091505b505090508061265a576040517f08c379a000000000000000000000000000000000000000000000000000000000815260040161265190613b01565b60405180910390fd5b7f1e935a7fb28a0412065cab7ad70c27cf05afe9a9e9d7ab2d424d099c373ac381848460405161268b929190612fd5565b60405180910390a150505050565b6000806000600190505b600160009054906101000a900473ffffffffffffffffffffffffffffffffffffffff1673ffffffffffffffffffffffffffffffffffffffff166318160ddd6040518163ffffffff1660e01b8152600401602060405180830381865afa158015612710573d6000803e3d6000fd5b505050506040513d601f19601f82011682018060405250810190612734919061317d565b811161277757600060036000838152602001908152602001600020541461276457818061276090612beb565b9250505b808061276f90612beb565b9150506126a3565b508091505090565b600033905090565b60405180606001604052806000815260200160008152602001600073ffffffffffffffffffffffffffffffffffffffff1681525090565b600080fd5b600073ffffffffffffffffffffffffffffffffffffffff82169050919050565b60006127ee826127c3565b9050919050565b6127fe816127e3565b811461280957600080fd5b50565b60008135905061281b816127f5565b92915050565b600060208284031215612837576128366127be565b5b60006128458482850161280c565b91505092915050565b600081519050919050565b600082825260208201905092915050565b6000819050602082019050919050565b6000819050919050565b61288d8161287a565b82525050565b600061289f8383612884565b60208301905092915050565b6000602082019050919050565b60006128c38261284e565b6128cd8185612859565b93506128d88361286a565b8060005b838110156129095781516128f08882612893565b97506128fb836128ab565b9250506001810190506128dc565b5085935050505092915050565b6000602082019050818103600083015261293081846128b8565b905092915050565b6129418161287a565b811461294c57600080fd5b50565b60008135905061295e81612938565b92915050565b60006020828403121561297a576129796127be565b5b60006129888482850161294f565b91505092915050565b61299a8161287a565b82525050565b60006020820190506129b56000830184612991565b92915050565b6129c4816127e3565b82525050565b6060820160008201516129e06000850182612884565b5060208201516129f36020850182612884565b506040820151612a0660408501826129bb565b50505050565b6000606082019050612a2160008301846129ca565b92915050565b60008060408385031215612a3e57612a3d6127be565b5b6000612a4c8582860161294f565b9250506020612a5d8582860161294f565b9150509250929050565b612a70816127e3565b82525050565b6000602082019050612a8b6000830184612a67565b92915050565b6000819050919050565b6000612ab6612ab1612aac846127c3565b612a91565b6127c3565b9050919050565b6000612ac882612a9b565b9050919050565b6000612ada82612abd565b9050919050565b612aea81612acf565b82525050565b6000602082019050612b056000830184612ae1565b92915050565b600080600060608486031215612b2457612b236127be565b5b6000612b328682870161294f565b9350506020612b438682870161294f565b9250506040612b548682870161294f565b9150509250925092565b7f4e487b7100000000000000000000000000000000000000000000000000000000600052604160045260246000fd5b7f4e487b7100000000000000000000000000000000000000000000000000000000600052603260045260246000fd5b7f4e487b7100000000000000000000000000000000000000000000000000000000600052601160045260246000fd5b6000612bf68261287a565b91507fffffffffffffffffffffffffffffffffffffffffffffffffffffffffffffffff8203612c2857612c27612bbc565b5b600182019050919050565b600081519050612c42816127f5565b92915050565b600060208284031215612c5e57612c5d6127be565b5b6000612c6c84828501612c33565b91505092915050565b600082825260208201905092915050565b7f61756374696f6e206e6f7420656e646564000000000000000000000000000000600082015250565b6000612cbc601183612c75565b9150612cc782612c86565b602082019050919050565b60006020820190508181036000830152612ceb81612caf565b9050919050565b7f7468697320746f6b656e20646964206e6f742072656769737465726564206f6e60008201527f2061756374696f6e000000000000000000000000000000000000000000000000602082015250565b6000612d4e602883612c75565b9150612d5982612cf2565b604082019050919050565b60006020820190508181036000830152612d7d81612d41565b9050919050565b7f63616c6c6572206973206e6f742068696768657374206269646572206e6f722060008201527f73656c6c65720000000000000000000000000000000000000000000000000000602082015250565b6000612de0602683612c75565b9150612deb82612d84565b604082019050919050565b60006020820190508181036000830152612e0f81612dd3565b9050919050565b6000612e218261287a565b9150612e2c8361287a565b9250828203905081811115612e4457612e43612bbc565b5b92915050565b6000612e558261287a565b9150612e608361287a565b9250828202612e6e8161287a565b91508282048414831517612e8557612e84612bbc565b5b5092915050565b7f4e487b7100000000000000000000000000000000000000000000000000000000600052601260045260246000fd5b6000612ec68261287a565b9150612ed18361287a565b925082612ee157612ee0612e8c565b5b828204905092915050565b600081905092915050565b50565b6000612f07600083612eec565b9150612f1282612ef7565b600082019050919050565b6000612f2882612efa565b9150819050919050565b7f7061796d656e74206661696c6564000000000000000000000000000000000000600082015250565b6000612f68600e83612c75565b9150612f7382612f32565b602082019050919050565b60006020820190508181036000830152612f9781612f5b565b9050919050565b6000606082019050612fb36000830186612a67565b612fc06020830185612a67565b612fcd6040830184612991565b949350505050565b6000604082019050612fea6000830185612991565b612ff76020830184612a67565b9392505050565b7f62616c616e636520776974686f7574206e6f74436c61696d65644d6f6e65792060008201527f6973207a65726f00000000000000000000000000000000000000000000000000602082015250565b600061305a602783612c75565b915061306582612ffe565b604082019050919050565b600060208201905081810360008301526130898161304d565b9050919050565b7f7769746864726177206661696c65640000000000000000000000000000000000600082015250565b60006130c6600f83612c75565b91506130d182613090565b602082019050919050565b600060208201905081810360008301526130f5816130b9565b9050919050565b7f7468697320746f6b656e206973206e6f74206f6e2041756374696f6e00000000600082015250565b6000613132601c83612c75565b915061313d826130fc565b602082019050919050565b6000602082019050818103600083015261316181613125565b9050919050565b60008151905061317781612938565b92915050565b600060208284031215613193576131926127be565b5b60006131a184828501613168565b91505092915050565b7f63616c6c6572206973206e6f74206f776e657200000000000000000000000000600082015250565b60006131e0601383612c75565b91506131eb826131aa565b602082019050919050565b6000602082019050818103600083015261320f816131d3565b9050919050565b7f7072696365206d7573742062652067726561746572207468616e207a65726f00600082015250565b600061324c601f83612c75565b915061325782613216565b602082019050919050565b6000602082019050818103600083015261327b8161323f565b9050919050565b7f7468697320746f6b656e206973206f6e2061756374696f6e0000000000000000600082015250565b60006132b8601883612c75565b91506132c382613282565b602082019050919050565b600060208201905081810360008301526132e7816132ab565b9050919050565b60006040820190506133036000830185612a67565b6133106020830184612a67565b9392505050565b60008115159050919050565b61332c81613317565b811461333757600080fd5b50565b60008151905061334981613323565b92915050565b600060208284031215613365576133646127be565b5b60006133738482850161333a565b91505092915050565b7f7468697320746f6b656e206973206e6f74206f6e2073616c6500000000000000600082015250565b60006133b2601983612c75565b91506133bd8261337c565b602082019050919050565b600060208201905081810360008301526133e1816133a5565b9050919050565b7f6d696e696d756d5072696365206d75737420626520677265617465722074686160008201527f6e7320302e303031206574686572000000000000000000000000000000000000602082015250565b6000613444602e83612c75565b915061344f826133e8565b604082019050919050565b6000602082019050818103600083015261347381613437565b9050919050565b7f7468697320746f6b656e20697320616c7265616479206f6e2053616c65000000600082015250565b60006134b0601d83612c75565b91506134bb8261347a565b602082019050919050565b600060208201905081810360008301526134df816134a3565b9050919050565b7f7468697320746f6b656e20697320616c7265616479206f6e2061756374696f6e600082015250565b600061351c602083612c75565b9150613527826134e6565b602082019050919050565b6000602082019050818103600083015261354b8161350f565b9050919050565b7f6e6f7420617070726f7665640000000000000000000000000000000000000000600082015250565b6000613588600c83612c75565b915061359382613552565b602082019050919050565b600060208201905081810360008301526135b78161357b565b9050919050565b60006135c98261287a565b91506135d48361287a565b92508282019050808211156135ec576135eb612bbc565b5b92915050565b7f746869732061637574696f6e20656e6465640000000000000000000000000000600082015250565b6000613628601283612c75565b9150613633826135f2565b602082019050919050565b600060208201905081810360008301526136578161361b565b9050919050565b7f6f776e65722063616e6e6f7420626964206f6e206f776e730000000000000000600082015250565b6000613694601883612c75565b915061369f8261365e565b602082019050919050565b600060208201905081810360008301526136c381613687565b9050919050565b7f7468697320746f6b656e206973206e6f74206f6e2061756374696f6e00000000600082015250565b6000613700601c83612c75565b915061370b826136ca565b602082019050919050565b6000602082019050818103600083015261372f816136f3565b9050919050565b7f626964206d7573742062652067726561746572207468616e206c61737420626960008201527f6400000000000000000000000000000000000000000000000000000000000000602082015250565b6000613792602183612c75565b915061379d82613736565b604082019050919050565b600060208201905081810360008301526137c181613785565b9050919050565b60006137d38261287a565b91506137de8361287a565b9250826137ee576137ed612e8c565b5b828206905092915050565b6000613806600083612c75565b915061381182612ef7565b600082019050919050565b60006020820190508181036000830152613835816137f9565b9050919050565b60006060820190506138516000830186612991565b61385e6020830185612991565b61386b6040830184612a67565b949350505050565b7f6f776e65722063616e6e6f7420627579206f776e730000000000000000000000600082015250565b60006138a9601583612c75565b91506138b482613873565b602082019050919050565b600060208201905081810360008301526138d88161389c565b9050919050565b7f74686973206e6674206973206e6f74206f6e2073616c65000000000000000000600082015250565b6000613915601783612c75565b9150613920826138df565b602082019050919050565b6000602082019050818103600083015261394481613908565b9050919050565b7f7061796d656e7420646f73656e2774206d617463680000000000000000000000600082015250565b6000613981601583612c75565b915061398c8261394b565b602082019050919050565b600060208201905081810360008301526139b081613974565b9050919050565b7f4f776e61626c653a206e6577206f776e657220697320746865207a65726f206160008201527f6464726573730000000000000000000000000000000000000000000000000000602082015250565b6000613a13602683612c75565b9150613a1e826139b7565b604082019050919050565b60006020820190508181036000830152613a4281613a06565b9050919050565b7f4f776e61626c653a2063616c6c6572206973206e6f7420746865206f776e6572600082015250565b6000613a7f602083612c75565b9150613a8a82613a49565b602082019050919050565b60006020820190508181036000830152613aae81613a72565b9050919050565b7f726566756e64206661696c656400000000000000000000000000000000000000600082015250565b6000613aeb600d83612c75565b9150613af682613ab5565b602082019050919050565b60006020820190508181036000830152613b1a81613ade565b905091905056fea26469706673582212201e3faabf79dc9567ad7955673dd8f500733e26cf459027ed818102fe9d87665364736f6c63430008110033",
  "immutableReferences": {},
  "source": "// SPDX-License-Identifier: MIT\npragma solidity ^0.8.17;\n\nimport \"./TestToken.sol\";\n\nimport \"../node_modules/@openzeppelin/contracts/access/Ownable.sol\";\n// remix  \n// import \"openzeppelin-solidity/contracts/access/Ownable.sol\";\n\ncontract TestTrade is Ownable{\n    TestToken public Token;\n\n    uint256 public saleFeeRate = 5; //\n\n    struct AuctionInfo {\n        uint256 lastBidPrice; //    \n        uint256 endTime;\n        address bider; //    address(0)\n    }\n\n    mapping(uint => uint) private _tokensOnSale;\n    // tokenId to price\n    mapping(uint => AuctionInfo) private _tokensOnAuction;\n    // tokenId to AuctionInfo\n\n    constructor(address tokenAddress_) {\n        Token = TestToken(tokenAddress_);\n    }\n\n    event BidOnAuction(uint256 tokenId, uint256 bidPrice , address bider);\n    event RefundBid(uint256 tokenId, address failedBider);\n\n    //  \n    function setSaleFeeRate(uint256 rate) external onlyOwner {\n        saleFeeRate = rate;\n    } \n\n    //   ()\n    function _countOnSale() private view returns(uint256) {\n        uint256 count;\n\n        for(uint tokenId = 1; tokenId <= Token.totalSupply(); tokenId++) {\n            if(_tokensOnSale[tokenId] != 0) count ++;\n        }\n\n        return count;\n    }\n\n    //   ( )\n    function onSaleList() external view returns(uint256[] memory){\n        uint256[] memory tokensOnSale = new uint256[](_countOnSale()); //  \n        uint256 index = 0;\n\n        for(uint tokenId = 1; tokenId <= Token.totalSupply(); tokenId++) {\n            if(_tokensOnSale[tokenId] != 0) {\n                tokensOnSale[index] = tokenId;\n                index ++;\n            }\n        }\n\n        return tokensOnSale;\n    }\n\n    //    ( )\n    function priceOfOnSale(uint256 tokenId) public view  returns(uint256)  {\n        require(_tokensOnSale[tokenId] > 0, \"this token is not on sale\");\n        return _tokensOnSale[tokenId];\n        //  0  (   )\n    }  \n\n    // ( )\n    function registerForSale(uint256 tokenId, uint256 price) external {\n        // require(_callerIsOwner(tokenId), \"caller is not owner\");\n        require(Token.ownerOf(tokenId) == msg.sender, \"caller is not owner\");\n        require(price > 0, \"price must be greater than zero\");\n        require(dataOfOnAuction(tokenId).endTime < block.timestamp, \"this token is on auction\"); //   \n        //  Nft  setApprovalForAll(address operator, bool approved)\n        //  operator  CA   .\n        require(Token.isApprovedForAll(msg.sender, address(this)));\n\n        _tokensOnSale[tokenId] = price;\n    }\n\n    //  ( )\n    function cancleSale(uint256 tokenId) public {\n        require(Token.ownerOf(tokenId) == msg.sender, \"caller is not owner\");\n        require(_tokensOnSale[tokenId] > 0, \"this token is not on sale\");\n        _tokensOnSale[tokenId] = 0; //  0    \n        // Token.setApprovalForAll(address(this), false); // approve   \n        //    require operater != msg.sender   \n        //    CA  ...\n        //       setApprovalForAll(  CA, false)  .\n        //          ,\n    }\n\n    // ( )\n    function purchase(uint256 tokenId) external payable {\n        uint256 price = _tokensOnSale[tokenId];\n        address tokenOwner = Token.ownerOf(tokenId);\n\n        require(tokenOwner != msg.sender, \"owner cannot buy owns\");\n        require(price > 0, \"this nft is not on sale\");\n        require(msg.value == price, \"payment dosen't match\");\n        //   transferFrom    \n        //            ?\n\n        uint256 incomeAfterFee = price * (100 - saleFeeRate) / 100;\n        (bool success, ) = tokenOwner.call{value: incomeAfterFee}(\"\");\n        require(success, \"payment failed\");\n\n        Token.safeTransferFrom(tokenOwner, msg.sender, tokenId);\n        cancleSale(tokenId);\n    }\n\n\n    //    ( )\n    function _countOnAuction() private view returns(uint256) {\n        uint256 count;\n\n        for(uint tokenId = 1; tokenId <= Token.totalSupply(); tokenId++) {\n            uint256 lastBidPrice = _tokensOnAuction[tokenId].lastBidPrice;\n            uint256 endTime = _tokensOnAuction[tokenId].endTime;\n\n            if(lastBidPrice != 0 && endTime > block.timestamp) {\n                count ++;\n            } // lastBidPrice 0   \n              // endTime  block.timestamp    .\n        }\n\n        return count;\n    }\n\n    //    ( )\n    function onAuctionList() public view returns(uint256[] memory){\n        uint256[] memory tokensOnAuction = new uint256[](_countOnAuction()); //  \n        uint256 index = 0;\n\n        for(uint tokenId = 1; tokenId <= Token.totalSupply(); tokenId++) {\n            uint256 lastBidPrice = _tokensOnAuction[tokenId].lastBidPrice;\n            uint256 endTime = _tokensOnAuction[tokenId].endTime;\n\n            if(lastBidPrice != 0 && endTime > block.timestamp) {\n                tokensOnAuction[index] = tokenId;\n                index ++;\n            } // lastBidPrice 0   \n              // endTime  block.timestamp    .\n        }\n\n        return tokensOnAuction;\n    }\n\n    //    ()\n    function dataOfOnAuction(uint256 tokenId) public view returns(AuctionInfo memory){\n        require(_tokensOnAuction[tokenId].endTime > block.timestamp, \"this token is not on Auction\");\n        return _tokensOnAuction[tokenId];\n    }\n\n    // ()\n    function registerForAuction(uint256 tokenId, uint256 minimumPrice, uint256 lastingMinutes) external {\n        require(Token.ownerOf(tokenId) == msg.sender, \"caller is not owner\");\n        require(minimumPrice >= 0.001 ether, \"minimumPrice must be greater thans 0.001 ether\"); //     \n        require(priceOfOnSale(tokenId) <= 0, \"this token is already on Sale\"); //    \n        require(dataOfOnAuction(tokenId).endTime < block.timestamp, \"this token is already on auction\"); //   \n        //  Nft   setApprovalForAll(address operator, bool approved)\n        //  operator   CA    .\n        require(Token.isApprovedForAll(msg.sender, address(this)), \"not approved\");\n\n        uint256 endTime = block.timestamp + lastingMinutes * 60;\n\n        _tokensOnAuction[tokenId] = AuctionInfo(minimumPrice, endTime, address(0)); //      address(0) \n    }\n\n    //  ()\n    function bidOnAcution(uint256 tokenId) external payable {\n        uint256 lastBidPrice = _tokensOnAuction[tokenId].lastBidPrice;\n        uint256 endTime = _tokensOnAuction[tokenId].endTime;\n        address bider = _tokensOnAuction[tokenId].bider;\n        // {uint256 lastBidPrice, uint256 endTime, address bider} = _tokensOnAuction[tokenId];\n\n        require(block.timestamp < endTime, \"this acution ended\"); //   \n        require(Token.ownerOf(tokenId) != msg.sender, \"owner cannot bid on owns\"); //   \n        require(lastBidPrice > 0 , \"this token is not on auction\"); //  \n        require(msg.value > lastBidPrice, \"bid must be greater than last bid\"); //     \n        require((msg.value - lastBidPrice) % 0.001 ether == 0, \"\"); //  0.001 \n\n        if(bider != address(0)) { //   \n            _refundBid(tokenId ,bider ,lastBidPrice); //  \n        }\n\n        _tokensOnAuction[tokenId].lastBidPrice = msg.value;\n        _tokensOnAuction[tokenId].bider = msg.sender;\n\n        emit BidOnAuction(tokenId, msg.value , bider);\n    }\n\n    //   ()\n    function _refundBid(uint256 tokenId ,address to, uint256 bidPrice) private {\n        // payable(to).transfer(bidPrice);\n        (bool success, ) = to.call{value: bidPrice}(\"\");\n        require(success, \"refund failed\");\n\n        emit RefundBid(tokenId, to);\n    }   \n\n    //   (  )\n    function cancleFailedAuction(uint tokenId) external {\n        //   endTime  block.timestamp     \n        //      \n        //         \n\n        //   approve  ?\n\n        // uint256 lastBidPrice = _tokensOnAuction[tokenId].lastBidPrice;\n        // uint256 endTime = _tokensOnAuction[tokenId].endTime;\n        // address bider = _tokensOnAuction[tokenId].bider;\n\n        // require(endTime > block.timestamp, \"auction not ended yet\"); //  \n        // require(lastBidPrice > 0, \"acution already ended\"); //   \n    }\n\n    //  (NFT)  ()\n    //    \n    //    .\n    event ClaimMatchedAuction(uint256 tokenId, address caller);\n    function claimMatchedAuction(uint256 tokenId) external {\n        uint256 endTime = _tokensOnAuction[tokenId].endTime;\n        uint256 lastBidPrice = _tokensOnAuction[tokenId].lastBidPrice;\n        address bider = _tokensOnAuction[tokenId].bider;\n        address tokenOwner = Token.ownerOf(tokenId);\n\n        require(endTime < block.timestamp, \"auction not ended\");\n        require(lastBidPrice != 0, \"this token did not registered on auction\");\n        require(msg.sender == bider || msg.sender == tokenOwner , \"caller is not highest bider nor seller\");\n\n        //    \n        uint256 incomeAfterFee = lastBidPrice * (100 - saleFeeRate) / 100;\n        (bool success, ) = tokenOwner.call{value: incomeAfterFee}(\"\");\n        require(success, \"payment failed\");\n\n        //   \n        Token.safeTransferFrom(tokenOwner, msg.sender, tokenId); //    \n        _tokensOnAuction[tokenId].bider = address(0); \n        // _tokensOnAuction[tokenId].lastBidPrice = 0; //  \n        // _tokensOnAuction[tokenId].endTime = 0; //  endTime   block.timestamp   \n\n        emit ClaimMatchedAuction(tokenId, msg.sender); //      \n    }\n\n    //    \n    function _countNotClaimedAuction() private view returns(uint256) {\n        uint256 count;\n\n        for(uint tokenId = 1; tokenId <= Token.totalSupply(); tokenId++) {\n            // uint256 lastBidPrice = _tokensOnAuction[tokenId].lastBidPrice;\n            uint256 endTime = _tokensOnAuction[tokenId].endTime;\n            address bider = _tokensOnAuction[tokenId].bider;\n\n            // if(lastBidPrice != 0 && bider != address(0) && endTime < block.timestamp) {\n            //     count ++;\n            // } \n            if(bider != address(0) && endTime < block.timestamp) {\n                count ++;\n            } \n            //  bider address(0) \n            //   bider address(0)    .\n            //    bider  address(0) \n            //             .\n        }\n\n        return count;\n    }\n\n    //    \n    function notClaimedAuctionList() public view returns(uint256[] memory){\n        uint256[] memory tokensNotClaimedOnAuction = new uint256[](_countNotClaimedAuction()); //  \n        uint256 index = 0;\n\n        for(uint tokenId = 1; tokenId <= Token.totalSupply(); tokenId++) {\n            uint256 lastBidPrice = _tokensOnAuction[tokenId].lastBidPrice;\n            uint256 endTime = _tokensOnAuction[tokenId].endTime;\n            address bider = _tokensOnAuction[tokenId].bider;\n\n            if(bider != address(0) && endTime < block.timestamp) {\n                tokensNotClaimedOnAuction[index] = tokenId;\n                index ++;\n            } \n            //   bider lastBidPrice  default   .\n        }\n\n        return tokensNotClaimedOnAuction;\n    }\n\n\n    //  (  ) ( )\n    function _countOnBid(address owner) private view returns(uint256) {\n        uint256 count = 0;\n        uint256 countOnAuction = _countOnAuction();\n        uint256[] memory listOnAuction = onAuctionList();\n\n        for(uint i = 0; i < countOnAuction; i++) {\n            uint256 tokenId = listOnAuction[i];\n            if(_tokensOnAuction[tokenId].bider == owner) {\n                count ++;\n            } \n        }\n        return count;\n    }\n\n    //  (  )  ( )\n    function onBidList(address owner) external view returns(uint256[] memory){\n        uint256[] memory tokensOnBid = new uint256[](_countOnBid(owner)); //  \n        uint256 countOnAuction = _countOnAuction();\n        uint256[] memory listOnAuction = onAuctionList();\n        uint256 index = 0;\n\n        for(uint i = 0; i < countOnAuction; i++){\n            uint256 tokenId = listOnAuction[i];\n            if(_tokensOnAuction[tokenId].bider == owner){\n                tokensOnBid[index] = tokenId;\n                index ++;\n            }\n        }\n        return tokensOnBid;\n    }\n\n    //    \n    function _notClaimedMoney() private view returns(uint256) {\n        uint256[] memory tokensNotClaimedOnAuction = notClaimedAuctionList();\n        uint256 notClaimedMoney;\n\n        for (uint i = 0; i < tokensNotClaimedOnAuction.length; i++ ) {\n            uint256 tokenId = tokensNotClaimedOnAuction[i];\n            uint256 lastBidPrice = _tokensOnAuction[tokenId].lastBidPrice;\n            uint256 afterFee = lastBidPrice * (100 - saleFeeRate) / 100;\n            notClaimedMoney += afterFee;\n        }\n\n        return notClaimedMoney;\n    }\n\n    //  \n    function withdrawFees() external onlyOwner {\n        //              \n        uint256 notClaimedMoney = _notClaimedMoney();\n        uint256 balanceExceptNotClaimedMoney = address(this).balance - notClaimedMoney;\n\n        require(balanceExceptNotClaimedMoney > 0, \"balance without notClaimedMoney is zero\");\n\n        (bool success, ) = msg.sender.call{value: balanceExceptNotClaimedMoney}(\"\");\n        require(success, \"withdraw failed\");\n    }\n\n}\n\n",
  "sourcePath": "/Users/nominseob/Desktop/academy/Project/NFT_TeamProject/blockChain/contracts/TestTrade.sol",
  "compiler": {
    "name": "solc",
    "version": "0.8.17+commit.8df45f5f.Emscripten.clang"
  },
  "schemaVersion": "3.4.11",
  "updatedAt": "2022-12-23T18:38:47.395Z",
  "networkType": "ethereum",
  "devdoc": {
    "kind": "dev",
    "methods": {
      "owner()": {
        "details": "Returns the address of the current owner."
      },
      "renounceOwnership()": {
        "details": "Leaves the contract without owner. It will not be possible to call `onlyOwner` functions anymore. Can only be called by the current owner. NOTE: Renouncing ownership will leave the contract without an owner, thereby removing any functionality that is only available to the owner."
      },
      "transferOwnership(address)": {
        "details": "Transfers ownership of the contract to a new account (`newOwner`). Can only be called by the current owner."
      }
    },
    "version": 1
  },
  "userdoc": {
    "kind": "user",
    "methods": {},
    "version": 1
  }
}