{
  "contractName": "TestToken",
  "abi": [
    {
      "inputs": [
        {
          "internalType": "uint256",
          "name": "maxBatchSize_",
          "type": "uint256"
        },
        {
          "internalType": "uint256",
          "name": "collectionSize_",
          "type": "uint256"
        }
      ],
      "stateMutability": "nonpayable",
      "type": "constructor"
    },
    {
      "anonymous": false,
      "inputs": [
        {
          "indexed": true,
          "internalType": "address",
          "name": "owner",
          "type": "address"
        },
        {
          "indexed": true,
          "internalType": "address",
          "name": "approved",
          "type": "address"
        },
        {
          "indexed": true,
          "internalType": "uint256",
          "name": "tokenId",
          "type": "uint256"
        }
      ],
      "name": "Approval",
      "type": "event"
    },
    {
      "anonymous": false,
      "inputs": [
        {
          "indexed": true,
          "internalType": "address",
          "name": "owner",
          "type": "address"
        },
        {
          "indexed": true,
          "internalType": "address",
          "name": "operator",
          "type": "address"
        },
        {
          "indexed": false,
          "internalType": "bool",
          "name": "approved",
          "type": "bool"
        }
      ],
      "name": "ApprovalForAll",
      "type": "event"
    },
    {
      "anonymous": false,
      "inputs": [
        {
          "indexed": false,
          "internalType": "address",
          "name": "minter",
          "type": "address"
        },
        {
          "indexed": false,
          "internalType": "uint256",
          "name": "quantity",
          "type": "uint256"
        },
        {
          "indexed": false,
          "internalType": "uint256",
          "name": "totalSupply",
          "type": "uint256"
        }
      ],
      "name": "MintTestToken",
      "type": "event"
    },
    {
      "anonymous": false,
      "inputs": [
        {
          "indexed": true,
          "internalType": "address",
          "name": "previousOwner",
          "type": "address"
        },
        {
          "indexed": true,
          "internalType": "address",
          "name": "newOwner",
          "type": "address"
        }
      ],
      "name": "OwnershipTransferred",
      "type": "event"
    },
    {
      "anonymous": false,
      "inputs": [
        {
          "indexed": false,
          "internalType": "uint256",
          "name": "mintPrice",
          "type": "uint256"
        },
        {
          "indexed": false,
          "internalType": "bool",
          "name": "isMintOn",
          "type": "bool"
        }
      ],
      "name": "SetMintOn",
      "type": "event"
    },
    {
      "anonymous": false,
      "inputs": [
        {
          "indexed": true,
          "internalType": "address",
          "name": "from",
          "type": "address"
        },
        {
          "indexed": true,
          "internalType": "address",
          "name": "to",
          "type": "address"
        },
        {
          "indexed": true,
          "internalType": "uint256",
          "name": "tokenId",
          "type": "uint256"
        }
      ],
      "name": "Transfer",
      "type": "event"
    },
    {
      "inputs": [
        {
          "internalType": "address",
          "name": "to",
          "type": "address"
        },
        {
          "internalType": "uint256",
          "name": "tokenId",
          "type": "uint256"
        }
      ],
      "name": "approve",
      "outputs": [],
      "stateMutability": "nonpayable",
      "type": "function"
    },
    {
      "inputs": [
        {
          "internalType": "address",
          "name": "owner",
          "type": "address"
        }
      ],
      "name": "balanceOf",
      "outputs": [
        {
          "internalType": "uint256",
          "name": "",
          "type": "uint256"
        }
      ],
      "stateMutability": "view",
      "type": "function",
      "constant": true
    },
    {
      "inputs": [
        {
          "internalType": "uint256",
          "name": "tokenId",
          "type": "uint256"
        }
      ],
      "name": "getApproved",
      "outputs": [
        {
          "internalType": "address",
          "name": "",
          "type": "address"
        }
      ],
      "stateMutability": "view",
      "type": "function",
      "constant": true
    },
    {
      "inputs": [
        {
          "internalType": "address",
          "name": "owner",
          "type": "address"
        },
        {
          "internalType": "address",
          "name": "operator",
          "type": "address"
        }
      ],
      "name": "isApprovedForAll",
      "outputs": [
        {
          "internalType": "bool",
          "name": "",
          "type": "bool"
        }
      ],
      "stateMutability": "view",
      "type": "function",
      "constant": true
    },
    {
      "inputs": [],
      "name": "maxAmountPerMint",
      "outputs": [
        {
          "internalType": "uint256",
          "name": "",
          "type": "uint256"
        }
      ],
      "stateMutability": "view",
      "type": "function",
      "constant": true
    },
    {
      "inputs": [],
      "name": "mintPrice",
      "outputs": [
        {
          "internalType": "uint256",
          "name": "",
          "type": "uint256"
        }
      ],
      "stateMutability": "view",
      "type": "function",
      "constant": true
    },
    {
      "inputs": [],
      "name": "name",
      "outputs": [
        {
          "internalType": "string",
          "name": "",
          "type": "string"
        }
      ],
      "stateMutability": "view",
      "type": "function",
      "constant": true
    },
    {
      "inputs": [],
      "name": "nextOwnerToExplicitlySet",
      "outputs": [
        {
          "internalType": "uint256",
          "name": "",
          "type": "uint256"
        }
      ],
      "stateMutability": "view",
      "type": "function",
      "constant": true
    },
    {
      "inputs": [],
      "name": "owner",
      "outputs": [
        {
          "internalType": "address",
          "name": "",
          "type": "address"
        }
      ],
      "stateMutability": "view",
      "type": "function",
      "constant": true
    },
    {
      "inputs": [
        {
          "internalType": "uint256",
          "name": "tokenId",
          "type": "uint256"
        }
      ],
      "name": "ownerOf",
      "outputs": [
        {
          "internalType": "address",
          "name": "",
          "type": "address"
        }
      ],
      "stateMutability": "view",
      "type": "function",
      "constant": true
    },
    {
      "inputs": [],
      "name": "renounceOwnership",
      "outputs": [],
      "stateMutability": "nonpayable",
      "type": "function"
    },
    {
      "inputs": [
        {
          "internalType": "address",
          "name": "from",
          "type": "address"
        },
        {
          "internalType": "address",
          "name": "to",
          "type": "address"
        },
        {
          "internalType": "uint256",
          "name": "tokenId",
          "type": "uint256"
        }
      ],
      "name": "safeTransferFrom",
      "outputs": [],
      "stateMutability": "nonpayable",
      "type": "function"
    },
    {
      "inputs": [
        {
          "internalType": "address",
          "name": "from",
          "type": "address"
        },
        {
          "internalType": "address",
          "name": "to",
          "type": "address"
        },
        {
          "internalType": "uint256",
          "name": "tokenId",
          "type": "uint256"
        },
        {
          "internalType": "bytes",
          "name": "_data",
          "type": "bytes"
        }
      ],
      "name": "safeTransferFrom",
      "outputs": [],
      "stateMutability": "nonpayable",
      "type": "function"
    },
    {
      "inputs": [
        {
          "internalType": "address",
          "name": "operator",
          "type": "address"
        },
        {
          "internalType": "bool",
          "name": "approved",
          "type": "bool"
        }
      ],
      "name": "setApprovalForAll",
      "outputs": [],
      "stateMutability": "nonpayable",
      "type": "function"
    },
    {
      "inputs": [
        {
          "internalType": "bytes4",
          "name": "interfaceId",
          "type": "bytes4"
        }
      ],
      "name": "supportsInterface",
      "outputs": [
        {
          "internalType": "bool",
          "name": "",
          "type": "bool"
        }
      ],
      "stateMutability": "view",
      "type": "function",
      "constant": true
    },
    {
      "inputs": [],
      "name": "symbol",
      "outputs": [
        {
          "internalType": "string",
          "name": "",
          "type": "string"
        }
      ],
      "stateMutability": "view",
      "type": "function",
      "constant": true
    },
    {
      "inputs": [
        {
          "internalType": "uint256",
          "name": "index",
          "type": "uint256"
        }
      ],
      "name": "tokenByIndex",
      "outputs": [
        {
          "internalType": "uint256",
          "name": "",
          "type": "uint256"
        }
      ],
      "stateMutability": "view",
      "type": "function",
      "constant": true
    },
    {
      "inputs": [
        {
          "internalType": "address",
          "name": "owner",
          "type": "address"
        },
        {
          "internalType": "uint256",
          "name": "index",
          "type": "uint256"
        }
      ],
      "name": "tokenOfOwnerByIndex",
      "outputs": [
        {
          "internalType": "uint256",
          "name": "",
          "type": "uint256"
        }
      ],
      "stateMutability": "view",
      "type": "function",
      "constant": true
    },
    {
      "inputs": [
        {
          "internalType": "uint256",
          "name": "tokenId",
          "type": "uint256"
        }
      ],
      "name": "tokenURI",
      "outputs": [
        {
          "internalType": "string",
          "name": "",
          "type": "string"
        }
      ],
      "stateMutability": "view",
      "type": "function",
      "constant": true
    },
    {
      "inputs": [],
      "name": "totalSupply",
      "outputs": [
        {
          "internalType": "uint256",
          "name": "",
          "type": "uint256"
        }
      ],
      "stateMutability": "view",
      "type": "function",
      "constant": true
    },
    {
      "inputs": [
        {
          "internalType": "address",
          "name": "from",
          "type": "address"
        },
        {
          "internalType": "address",
          "name": "to",
          "type": "address"
        },
        {
          "internalType": "uint256",
          "name": "tokenId",
          "type": "uint256"
        }
      ],
      "name": "transferFrom",
      "outputs": [],
      "stateMutability": "nonpayable",
      "type": "function"
    },
    {
      "inputs": [
        {
          "internalType": "address",
          "name": "newOwner",
          "type": "address"
        }
      ],
      "name": "transferOwnership",
      "outputs": [],
      "stateMutability": "nonpayable",
      "type": "function"
    },
    {
      "inputs": [
        {
          "internalType": "uint256",
          "name": "price",
          "type": "uint256"
        }
      ],
      "name": "setMintOn",
      "outputs": [],
      "stateMutability": "nonpayable",
      "type": "function"
    },
    {
      "inputs": [
        {
          "internalType": "uint256",
          "name": "price",
          "type": "uint256"
        }
      ],
      "name": "setMintOff",
      "outputs": [],
      "stateMutability": "nonpayable",
      "type": "function"
    },
    {
      "inputs": [],
      "name": "isMintOn",
      "outputs": [
        {
          "internalType": "bool",
          "name": "",
          "type": "bool"
        }
      ],
      "stateMutability": "view",
      "type": "function",
      "constant": true
    },
    {
      "inputs": [
        {
          "internalType": "uint256",
          "name": "quantity",
          "type": "uint256"
        }
      ],
      "name": "mintTestToken",
      "outputs": [],
      "stateMutability": "payable",
      "type": "function",
      "payable": true
    },
    {
      "inputs": [
        {
          "internalType": "string",
          "name": "baseURI",
          "type": "string"
        }
      ],
      "name": "setBaseURI",
      "outputs": [],
      "stateMutability": "nonpayable",
      "type": "function"
    },
    {
      "inputs": [],
      "name": "withdrawAll",
      "outputs": [],
      "stateMutability": "nonpayable",
      "type": "function"
    },
    {
      "inputs": [],
      "name": "maxSupply",
      "outputs": [
        {
          "internalType": "uint256",
          "name": "",
          "type": "uint256"
        }
      ],
      "stateMutability": "view",
      "type": "function",
      "constant": true
    },
    {
      "inputs": [
        {
          "internalType": "address",
          "name": "owner",
          "type": "address"
        }
      ],
      "name": "tokensOfOwner",
      "outputs": [
        {
          "internalType": "uint256[]",
          "name": "",
          "type": "uint256[]"
        }
      ],
      "stateMutability": "view",
      "type": "function",
      "constant": true
    }
  ],
  "bytecode": "0x60e0604052600160005560006007556040518060400160405280601681526020017f687474703a2f2f6c6f63616c686f73743a343030302f00000000000000000000815250600b90816200005491906200053a565b503480156200006257600080fd5b506040516200525138038062005251833981810160405281019062000088919062000657565b6040518060400160405280600481526020017f53656f70000000000000000000000000000000000000000000000000000000008152506040518060400160405280600381526020017f53455000000000000000000000000000000000000000000000000000000000008152508383600081116200013c576040517f08c379a0000000000000000000000000000000000000000000000000000000008152600401620001339062000725565b60405180910390fd5b6000821162000182576040517f08c379a00000000000000000000000000000000000000000000000000000000081526004016200017990620007bd565b60405180910390fd5b83600190816200019391906200053a565b508260029081620001a591906200053a565b508160a08181525050806080818152505050505050620001da620001ce620001f260201b60201c565b620001fa60201b60201c565b60016009819055508160c081815250505050620007df565b600033905090565b6000600860009054906101000a900473ffffffffffffffffffffffffffffffffffffffff16905081600860006101000a81548173ffffffffffffffffffffffffffffffffffffffff021916908373ffffffffffffffffffffffffffffffffffffffff1602179055508173ffffffffffffffffffffffffffffffffffffffff168173ffffffffffffffffffffffffffffffffffffffff167f8be0079c531659141344cd1fd0a4f28419497f9722a3daafe3b4186f6b6457e060405160405180910390a35050565b600081519050919050565b7f4e487b7100000000000000000000000000000000000000000000000000000000600052604160045260246000fd5b7f4e487b7100000000000000000000000000000000000000000000000000000000600052602260045260246000fd5b600060028204905060018216806200034257607f821691505b602082108103620003585762000357620002fa565b5b50919050565b60008190508160005260206000209050919050565b60006020601f8301049050919050565b600082821b905092915050565b600060088302620003c27fffffffffffffffffffffffffffffffffffffffffffffffffffffffffffffffff8262000383565b620003ce868362000383565b95508019841693508086168417925050509392505050565b6000819050919050565b6000819050919050565b60006200041b620004156200040f84620003e6565b620003f0565b620003e6565b9050919050565b6000819050919050565b6200043783620003fa565b6200044f620004468262000422565b84845462000390565b825550505050565b600090565b6200046662000457565b620004738184846200042c565b505050565b5b818110156200049b576200048f6000826200045c565b60018101905062000479565b5050565b601f821115620004ea57620004b4816200035e565b620004bf8462000373565b81016020851015620004cf578190505b620004e7620004de8562000373565b83018262000478565b50505b505050565b600082821c905092915050565b60006200050f60001984600802620004ef565b1980831691505092915050565b60006200052a8383620004fc565b9150826002028217905092915050565b6200054582620002c0565b67ffffffffffffffff811115620005615762000560620002cb565b5b6200056d825462000329565b6200057a8282856200049f565b600060209050601f831160018114620005b257600084156200059d578287015190505b620005a985826200051c565b86555062000619565b601f198416620005c2866200035e565b60005b82811015620005ec57848901518255600182019150602085019450602081019050620005c5565b868310156200060c578489015162000608601f891682620004fc565b8355505b6001600288020188555050505b505050505050565b600080fd5b6200063181620003e6565b81146200063d57600080fd5b50565b600081519050620006518162000626565b92915050565b6000806040838503121562000671576200067062000621565b5b6000620006818582860162000640565b9250506020620006948582860162000640565b9150509250929050565b600082825260208201905092915050565b7f455243373231413a20636f6c6c656374696f6e206d757374206861766520612060008201527f6e6f6e7a65726f20737570706c79000000000000000000000000000000000000602082015250565b60006200070d602e836200069e565b91506200071a82620006af565b604082019050919050565b600060208201905081810360008301526200074081620006fe565b9050919050565b7f455243373231413a206d61782062617463682073697a65206d7573742062652060008201527f6e6f6e7a65726f00000000000000000000000000000000000000000000000000602082015250565b6000620007a56027836200069e565b9150620007b28262000747565b604082019050919050565b60006020820190508181036000830152620007d88162000796565b9050919050565b60805160a05160c051614a266200082b60003960008181610ad60152610ebb015260008181611fbe01528181611fe7015261265d015260008181610f1e01526116c30152614a266000f3fe6080604052600436106101cd5760003560e01c80636edfed2e116100f7578063a22cb46511610095578063d5abeb0111610064578063d5abeb0114610679578063d7224ba0146106a4578063e985e9c5146106cf578063f2fde38b1461070c576101cd565b8063a22cb465146105c1578063aa7f90b0146105ea578063b88d4fde14610613578063c87b56dd1461063c576101cd565b80638462151c116100d15780638462151c14610517578063853828b6146105545780638da5cb5b1461056b57806395d89b4114610596576101cd565b80636edfed2e146104a757806370a08231146104c3578063715018a614610500576101cd565b8063289065da1161016f57806355f804b31161013e57806355f804b3146103eb5780636352211e146104145780636817c76c146104515780636e0606241461047c576101cd565b8063289065da1461031f5780632f745c591461034857806342842e0e146103855780634f6ccce7146103ae576101cd565b8063095ea7b3116101ab578063095ea7b31461027757806318160ddd146102a057806323b872dd146102cb57806327acc76d146102f4576101cd565b806301ffc9a7146101d257806306fdde031461020f578063081812fc1461023a575b600080fd5b3480156101de57600080fd5b506101f960048036038101906101f49190612c97565b610735565b6040516102069190612cdf565b60405180910390f35b34801561021b57600080fd5b5061022461087f565b6040516102319190612d8a565b60405180910390f35b34801561024657600080fd5b50610261600480360381019061025c9190612de2565b610911565b60405161026e9190612e50565b60405180910390f35b34801561028357600080fd5b5061029e60048036038101906102999190612e97565b610996565b005b3480156102ac57600080fd5b506102b5610aae565b6040516102c29190612ee6565b60405180910390f35b3480156102d757600080fd5b506102f260048036038101906102ed9190612f01565b610ac4565b005b34801561030057600080fd5b50610309610ad4565b6040516103169190612ee6565b60405180910390f35b34801561032b57600080fd5b5061034660048036038101906103419190612de2565b610af8565b005b34801561035457600080fd5b5061036f600480360381019061036a9190612e97565b610b4e565b60405161037c9190612ee6565b60405180910390f35b34801561039157600080fd5b506103ac60048036038101906103a79190612f01565b610d4d565b005b3480156103ba57600080fd5b506103d560048036038101906103d09190612de2565b610d6d565b6040516103e29190612ee6565b60405180910390f35b3480156103f757600080fd5b50610412600480360381019061040d9190613089565b610dc0565b005b34801561042057600080fd5b5061043b60048036038101906104369190612de2565b610ddb565b6040516104489190612e50565b60405180910390f35b34801561045d57600080fd5b50610466610df1565b6040516104739190612ee6565b60405180910390f35b34801561048857600080fd5b50610491610df7565b60405161049e9190612cdf565b60405180910390f35b6104c160048036038101906104bc9190612de2565b610e04565b005b3480156104cf57600080fd5b506104ea60048036038101906104e591906130d2565b61102f565b6040516104f79190612ee6565b60405180910390f35b34801561050c57600080fd5b50610515611117565b005b34801561052357600080fd5b5061053e600480360381019061053991906130d2565b61112b565b60405161054b91906131bd565b60405180910390f35b34801561056057600080fd5b506105696111df565b005b34801561057757600080fd5b506105806112e9565b60405161058d9190612e50565b60405180910390f35b3480156105a257600080fd5b506105ab611313565b6040516105b89190612d8a565b60405180910390f35b3480156105cd57600080fd5b506105e860048036038101906105e3919061320b565b6113a5565b005b3480156105f657600080fd5b50610611600480360381019061060c9190612de2565b611525565b005b34801561061f57600080fd5b5061063a600480360381019061063591906132ec565b6115bc565b005b34801561064857600080fd5b50610663600480360381019061065e9190612de2565b611618565b6040516106709190612d8a565b60405180910390f35b34801561068557600080fd5b5061068e6116bf565b60405161069b9190612ee6565b60405180910390f35b3480156106b057600080fd5b506106b96116e7565b6040516106c69190612ee6565b60405180910390f35b3480156106db57600080fd5b506106f660048036038101906106f1919061336f565b6116ed565b6040516107039190612cdf565b60405180910390f35b34801561071857600080fd5b50610733600480360381019061072e91906130d2565b611781565b005b60007f80ac58cd000000000000000000000000000000000000000000000000000000007bffffffffffffffffffffffffffffffffffffffffffffffffffffffff1916827bffffffffffffffffffffffffffffffffffffffffffffffffffffffff1916148061080057507f5b5e139f000000000000000000000000000000000000000000000000000000007bffffffffffffffffffffffffffffffffffffffffffffffffffffffff1916827bffffffffffffffffffffffffffffffffffffffffffffffffffffffff1916145b8061086857507f780e9d63000000000000000000000000000000000000000000000000000000007bffffffffffffffffffffffffffffffffffffffffffffffffffffffff1916827bffffffffffffffffffffffffffffffffffffffffffffffffffffffff1916145b80610878575061087782611804565b5b9050919050565b60606001805461088e906133de565b80601f01602080910402602001604051908101604052809291908181526020018280546108ba906133de565b80156109075780601f106108dc57610100808354040283529160200191610907565b820191906000526020600020905b8154815290600101906020018083116108ea57829003601f168201915b5050505050905090565b600061091c8261186e565b61095b576040517f08c379a000000000000000000000000000000000000000000000000000000000815260040161095290613481565b60405180910390fd5b6005600083815260200190815260200160002060009054906101000a900473ffffffffffffffffffffffffffffffffffffffff169050919050565b60006109a182610ddb565b90508073ffffffffffffffffffffffffffffffffffffffff168373ffffffffffffffffffffffffffffffffffffffff1603610a11576040517f08c379a0000000000000000000000000000000000000000000000000000000008152600401610a0890613513565b60405180910390fd5b8073ffffffffffffffffffffffffffffffffffffffff16610a3061187b565b73ffffffffffffffffffffffffffffffffffffffff161480610a5f5750610a5e81610a5961187b565b6116ed565b5b610a9e576040517f08c379a0000000000000000000000000000000000000000000000000000000008152600401610a95906135a5565b60405180910390fd5b610aa9838383611883565b505050565b60006001600054610abf91906135f4565b905090565b610acf838383611935565b505050565b7f000000000000000000000000000000000000000000000000000000000000000081565b610b00611eec565b60008114610b43576040517f08c379a0000000000000000000000000000000000000000000000000000000008152600401610b3a90613674565b60405180910390fd5b6000600a8190555050565b6000610b598361102f565b8210610b9a576040517f08c379a0000000000000000000000000000000000000000000000000000000008152600401610b9190613706565b60405180910390fd5b6000610ba4610aae565b90506000806000600190505b838111610d0b576000600360008381526020019081526020016000206040518060400160405290816000820160009054906101000a900473ffffffffffffffffffffffffffffffffffffffff1673ffffffffffffffffffffffffffffffffffffffff1673ffffffffffffffffffffffffffffffffffffffff1681526020016000820160149054906101000a900467ffffffffffffffff1667ffffffffffffffff1667ffffffffffffffff16815250509050600073ffffffffffffffffffffffffffffffffffffffff16816000015173ffffffffffffffffffffffffffffffffffffffff1614610ca157806000015192505b8773ffffffffffffffffffffffffffffffffffffffff168373ffffffffffffffffffffffffffffffffffffffff1603610cf757868403610ce8578195505050505050610d47565b8380610cf390613726565b9450505b508080610d0390613726565b915050610bb0565b506040517f08c379a0000000000000000000000000000000000000000000000000000000008152600401610d3e906137e0565b60405180910390fd5b92915050565b610d68838383604051806020016040528060008152506115bc565b505050565b6000610d77610aae565b8210610db8576040517f08c379a0000000000000000000000000000000000000000000000000000000008152600401610daf90613872565b60405180910390fd5b819050919050565b610dc8611eec565b80600b9081610dd79190613a3e565b5050565b6000610de682611f6a565b600001519050919050565b600a5481565b600080600a541415905090565b3373ffffffffffffffffffffffffffffffffffffffff163273ffffffffffffffffffffffffffffffffffffffff1614610e72576040517f08c379a0000000000000000000000000000000000000000000000000000000008152600401610e6990613b5c565b60405180910390fd5b610e7a610df7565b610eb9576040517f08c379a0000000000000000000000000000000000000000000000000000000008152600401610eb090613bc8565b60405180910390fd5b7f0000000000000000000000000000000000000000000000000000000000000000811115610f1c576040517f08c379a0000000000000000000000000000000000000000000000000000000008152600401610f1390613c34565b60405180910390fd5b7f000000000000000000000000000000000000000000000000000000000000000081610f46610aae565b610f509190613c54565b1115610f91576040517f08c379a0000000000000000000000000000000000000000000000000000000008152600401610f8890613cd4565b60405180910390fd5b600a5481610f9f9190613cf4565b3414610fe0576040517f08c379a0000000000000000000000000000000000000000000000000000000008152600401610fd790613d82565b60405180910390fd5b610fea338261216d565b7fd9c99e30d5f0d6f7dd3ef921d6895beddfc3b60646cfcd6996791c5166e2c79e3382611015610aae565b60405161102493929190613da2565b60405180910390a150565b60008073ffffffffffffffffffffffffffffffffffffffff168273ffffffffffffffffffffffffffffffffffffffff160361109f576040517f08c379a000000000000000000000000000000000000000000000000000000000815260040161109690613e4b565b60405180910390fd5b600460008373ffffffffffffffffffffffffffffffffffffffff1673ffffffffffffffffffffffffffffffffffffffff16815260200190815260200160002060000160009054906101000a90046fffffffffffffffffffffffffffffffff166fffffffffffffffffffffffffffffffff169050919050565b61111f611eec565b611129600061218b565b565b606060006111388361102f565b905060008167ffffffffffffffff81111561115657611155612f5e565b5b6040519080825280602002602001820160405280156111845781602001602082028036833780820191505090505b50905060005b828110156111d457600061119e8683610b4e565b9050808383815181106111b4576111b3613e6b565b5b6020026020010181815250505080806111cc90613726565b91505061118a565b508092505050919050565b6111e7611eec565b6111ef612251565b60004711611232576040517f08c379a000000000000000000000000000000000000000000000000000000000815260040161122990613ee6565b60405180910390fd5b60003373ffffffffffffffffffffffffffffffffffffffff164760405161125890613f37565b60006040518083038185875af1925050503d8060008114611295576040519150601f19603f3d011682016040523d82523d6000602084013e61129a565b606091505b50509050806112de576040517f08c379a00000000000000000000000000000000000000000000000000000000081526004016112d590613f98565b60405180910390fd5b506112e76122a0565b565b6000600860009054906101000a900473ffffffffffffffffffffffffffffffffffffffff16905090565b606060028054611322906133de565b80601f016020809104026020016040519081016040528092919081815260200182805461134e906133de565b801561139b5780601f106113705761010080835404028352916020019161139b565b820191906000526020600020905b81548152906001019060200180831161137e57829003601f168201915b5050505050905090565b6113ad61187b565b73ffffffffffffffffffffffffffffffffffffffff168273ffffffffffffffffffffffffffffffffffffffff160361141a576040517f08c379a000000000000000000000000000000000000000000000000000000000815260040161141190614004565b60405180910390fd5b806006600061142761187b565b73ffffffffffffffffffffffffffffffffffffffff1673ffffffffffffffffffffffffffffffffffffffff16815260200190815260200160002060008473ffffffffffffffffffffffffffffffffffffffff1673ffffffffffffffffffffffffffffffffffffffff16815260200190815260200160002060006101000a81548160ff0219169083151502179055508173ffffffffffffffffffffffffffffffffffffffff166114d461187b565b73ffffffffffffffffffffffffffffffffffffffff167f17307eab39ab6107e8899845ad3d59bd9653f200f220920489ca2b5937696c31836040516115199190612cdf565b60405180910390a35050565b61152d611eec565b60008111611570576040517f08c379a000000000000000000000000000000000000000000000000000000000815260040161156790614070565b60405180910390fd5b80600a819055507fa90bff0aceea45301d0f327bedcaa08f4704297dfd3c9937dcdd580a6435b9d8600a546115a3610df7565b6040516115b1929190614090565b60405180910390a150565b6115c7848484611935565b6115d3848484846122aa565b611612576040517f08c379a00000000000000000000000000000000000000000000000000000000081526004016116099061412b565b60405180910390fd5b50505050565b60606116238261186e565b611662576040517f08c379a0000000000000000000000000000000000000000000000000000000008152600401611659906141bd565b60405180910390fd5b600061166c612431565b9050600081511161168c57604051806020016040528060008152506116b7565b80611696846124c3565b6040516020016116a7929190614219565b6040516020818303038152906040525b915050919050565b60007f0000000000000000000000000000000000000000000000000000000000000000905090565b60075481565b6000600660008473ffffffffffffffffffffffffffffffffffffffff1673ffffffffffffffffffffffffffffffffffffffff16815260200190815260200160002060008373ffffffffffffffffffffffffffffffffffffffff1673ffffffffffffffffffffffffffffffffffffffff16815260200190815260200160002060009054906101000a900460ff16905092915050565b611789611eec565b600073ffffffffffffffffffffffffffffffffffffffff168173ffffffffffffffffffffffffffffffffffffffff16036117f8576040517f08c379a00000000000000000000000000000000000000000000000000000000081526004016117ef906142af565b60405180910390fd5b6118018161218b565b50565b60007f01ffc9a7000000000000000000000000000000000000000000000000000000007bffffffffffffffffffffffffffffffffffffffffffffffffffffffff1916827bffffffffffffffffffffffffffffffffffffffffffffffffffffffff1916149050919050565b6000805482109050919050565b600033905090565b826005600084815260200190815260200160002060006101000a81548173ffffffffffffffffffffffffffffffffffffffff021916908373ffffffffffffffffffffffffffffffffffffffff160217905550818373ffffffffffffffffffffffffffffffffffffffff168273ffffffffffffffffffffffffffffffffffffffff167f8c5be1e5ebec7d5bd14f71427d1e84f3dd0314c0f7b2291e5b200ac8c7c3b92560405160405180910390a4505050565b600061194082611f6a565b90506000816000015173ffffffffffffffffffffffffffffffffffffffff1661196761187b565b73ffffffffffffffffffffffffffffffffffffffff1614806119c3575061198c61187b565b73ffffffffffffffffffffffffffffffffffffffff166119ab84610911565b73ffffffffffffffffffffffffffffffffffffffff16145b806119df57506119de82600001516119d961187b565b6116ed565b5b905080611a21576040517f08c379a0000000000000000000000000000000000000000000000000000000008152600401611a1890614341565b60405180910390fd5b8473ffffffffffffffffffffffffffffffffffffffff16826000015173ffffffffffffffffffffffffffffffffffffffff1614611a93576040517f08c379a0000000000000000000000000000000000000000000000000000000008152600401611a8a906143d3565b60405180910390fd5b600073ffffffffffffffffffffffffffffffffffffffff168473ffffffffffffffffffffffffffffffffffffffff1603611b02576040517f08c379a0000000000000000000000000000000000000000000000000000000008152600401611af990614465565b60405180910390fd5b611b0f8585856001612591565b611b1f6000848460000151611883565b6001600460008773ffffffffffffffffffffffffffffffffffffffff1673ffffffffffffffffffffffffffffffffffffffff16815260200190815260200160002060000160008282829054906101000a90046fffffffffffffffffffffffffffffffff16611b8d91906144a1565b92506101000a8154816fffffffffffffffffffffffffffffffff02191690836fffffffffffffffffffffffffffffffff1602179055506001600460008673ffffffffffffffffffffffffffffffffffffffff1673ffffffffffffffffffffffffffffffffffffffff16815260200190815260200160002060000160008282829054906101000a90046fffffffffffffffffffffffffffffffff16611c3191906144e5565b92506101000a8154816fffffffffffffffffffffffffffffffff02191690836fffffffffffffffffffffffffffffffff16021790555060405180604001604052808573ffffffffffffffffffffffffffffffffffffffff1681526020014267ffffffffffffffff168152506003600085815260200190815260200160002060008201518160000160006101000a81548173ffffffffffffffffffffffffffffffffffffffff021916908373ffffffffffffffffffffffffffffffffffffffff16021790555060208201518160000160146101000a81548167ffffffffffffffff021916908367ffffffffffffffff1602179055509050506000600184611d379190613c54565b9050600073ffffffffffffffffffffffffffffffffffffffff166003600083815260200190815260200160002060000160009054906101000a900473ffffffffffffffffffffffffffffffffffffffff1673ffffffffffffffffffffffffffffffffffffffff1603611e7c57611dac8161186e565b15611e7b576040518060400160405280846000015173ffffffffffffffffffffffffffffffffffffffff168152602001846020015167ffffffffffffffff168152506003600083815260200190815260200160002060008201518160000160006101000a81548173ffffffffffffffffffffffffffffffffffffffff021916908373ffffffffffffffffffffffffffffffffffffffff16021790555060208201518160000160146101000a81548167ffffffffffffffff021916908367ffffffffffffffff1602179055509050505b5b838573ffffffffffffffffffffffffffffffffffffffff168773ffffffffffffffffffffffffffffffffffffffff167fddf252ad1be2c89b69c2b068fc378daa952ba7f163c4a11628f55a4df523b3ef60405160405180910390a4611ee48686866001612597565b505050505050565b611ef461187b565b73ffffffffffffffffffffffffffffffffffffffff16611f126112e9565b73ffffffffffffffffffffffffffffffffffffffff1614611f68576040517f08c379a0000000000000000000000000000000000000000000000000000000008152600401611f5f90614575565b60405180910390fd5b565b611f72612bf1565b611f7b8261186e565b611fba576040517f08c379a0000000000000000000000000000000000000000000000000000000008152600401611fb190614607565b60405180910390fd5b60007f0000000000000000000000000000000000000000000000000000000000000000831061201e5760017f00000000000000000000000000000000000000000000000000000000000000008461201191906135f4565b61201b9190613c54565b90505b60008390505b81811061212c576000600360008381526020019081526020016000206040518060400160405290816000820160009054906101000a900473ffffffffffffffffffffffffffffffffffffffff1673ffffffffffffffffffffffffffffffffffffffff1673ffffffffffffffffffffffffffffffffffffffff1681526020016000820160149054906101000a900467ffffffffffffffff1667ffffffffffffffff1667ffffffffffffffff16815250509050600073ffffffffffffffffffffffffffffffffffffffff16816000015173ffffffffffffffffffffffffffffffffffffffff161461211857809350505050612168565b50808061212490614627565b915050612024565b506040517f08c379a000000000000000000000000000000000000000000000000000000000815260040161215f906146c2565b60405180910390fd5b919050565b61218782826040518060200160405280600081525061259d565b5050565b6000600860009054906101000a900473ffffffffffffffffffffffffffffffffffffffff16905081600860006101000a81548173ffffffffffffffffffffffffffffffffffffffff021916908373ffffffffffffffffffffffffffffffffffffffff1602179055508173ffffffffffffffffffffffffffffffffffffffff168173ffffffffffffffffffffffffffffffffffffffff167f8be0079c531659141344cd1fd0a4f28419497f9722a3daafe3b4186f6b6457e060405160405180910390a35050565b600260095403612296576040517f08c379a000000000000000000000000000000000000000000000000000000000815260040161228d9061472e565b60405180910390fd5b6002600981905550565b6001600981905550565b60006122cb8473ffffffffffffffffffffffffffffffffffffffff16612a7b565b15612424578373ffffffffffffffffffffffffffffffffffffffff1663150b7a026122f461187b565b8786866040518563ffffffff1660e01b815260040161231694939291906147a3565b6020604051808303816000875af192505050801561235257506040513d601f19601f8201168201806040525081019061234f9190614804565b60015b6123d4573d8060008114612382576040519150601f19603f3d011682016040523d82523d6000602084013e612387565b606091505b5060008151036123cc576040517f08c379a00000000000000000000000000000000000000000000000000000000081526004016123c39061412b565b60405180910390fd5b805181602001fd5b63150b7a0260e01b7bffffffffffffffffffffffffffffffffffffffffffffffffffffffff1916817bffffffffffffffffffffffffffffffffffffffffffffffffffffffff191614915050612429565b600190505b949350505050565b6060600b8054612440906133de565b80601f016020809104026020016040519081016040528092919081815260200182805461246c906133de565b80156124b95780601f1061248e576101008083540402835291602001916124b9565b820191906000526020600020905b81548152906001019060200180831161249c57829003601f168201915b5050505050905090565b6060600060016124d284612a9e565b01905060008167ffffffffffffffff8111156124f1576124f0612f5e565b5b6040519080825280601f01601f1916602001820160405280156125235781602001600182028036833780820191505090505b509050600082602001820190505b600115612586578080600190039150507f3031323334353637383961626364656600000000000000000000000000000000600a86061a8153600a858161257a57612579614831565b5b04945060008503612531575b819350505050919050565b50505050565b50505050565b600080549050600073ffffffffffffffffffffffffffffffffffffffff168473ffffffffffffffffffffffffffffffffffffffff1603612612576040517f08c379a0000000000000000000000000000000000000000000000000000000008152600401612609906148d2565b60405180910390fd5b61261b8161186e565b1561265b576040517f08c379a00000000000000000000000000000000000000000000000000000000081526004016126529061493e565b60405180910390fd5b7f00000000000000000000000000000000000000000000000000000000000000008311156126be576040517f08c379a00000000000000000000000000000000000000000000000000000000081526004016126b5906149d0565b60405180910390fd5b6126cb6000858386612591565b6000600460008673ffffffffffffffffffffffffffffffffffffffff1673ffffffffffffffffffffffffffffffffffffffff1681526020019081526020016000206040518060400160405290816000820160009054906101000a90046fffffffffffffffffffffffffffffffff166fffffffffffffffffffffffffffffffff166fffffffffffffffffffffffffffffffff1681526020016000820160109054906101000a90046fffffffffffffffffffffffffffffffff166fffffffffffffffffffffffffffffffff166fffffffffffffffffffffffffffffffff1681525050905060405180604001604052808583600001516127c891906144e5565b6fffffffffffffffffffffffffffffffff1681526020018583602001516127ef91906144e5565b6fffffffffffffffffffffffffffffffff16815250600460008773ffffffffffffffffffffffffffffffffffffffff1673ffffffffffffffffffffffffffffffffffffffff16815260200190815260200160002060008201518160000160006101000a8154816fffffffffffffffffffffffffffffffff02191690836fffffffffffffffffffffffffffffffff16021790555060208201518160000160106101000a8154816fffffffffffffffffffffffffffffffff02191690836fffffffffffffffffffffffffffffffff16021790555090505060405180604001604052808673ffffffffffffffffffffffffffffffffffffffff1681526020014267ffffffffffffffff168152506003600084815260200190815260200160002060008201518160000160006101000a81548173ffffffffffffffffffffffffffffffffffffffff021916908373ffffffffffffffffffffffffffffffffffffffff16021790555060208201518160000160146101000a81548167ffffffffffffffff021916908367ffffffffffffffff160217905550905050600082905060005b85811015612a5e57818773ffffffffffffffffffffffffffffffffffffffff16600073ffffffffffffffffffffffffffffffffffffffff167fddf252ad1be2c89b69c2b068fc378daa952ba7f163c4a11628f55a4df523b3ef60405160405180910390a46129fe60008884886122aa565b612a3d576040517f08c379a0000000000000000000000000000000000000000000000000000000008152600401612a349061412b565b60405180910390fd5b8180612a4890613726565b9250508080612a5690613726565b91505061298d565b5080600081905550612a736000878588612597565b505050505050565b6000808273ffffffffffffffffffffffffffffffffffffffff163b119050919050565b600080600090507a184f03e93ff9f4daa797ed6e38ed64bf6a1f0100000000000000008310612afc577a184f03e93ff9f4daa797ed6e38ed64bf6a1f0100000000000000008381612af257612af1614831565b5b0492506040810190505b6d04ee2d6d415b85acef81000000008310612b39576d04ee2d6d415b85acef81000000008381612b2f57612b2e614831565b5b0492506020810190505b662386f26fc100008310612b6857662386f26fc100008381612b5e57612b5d614831565b5b0492506010810190505b6305f5e1008310612b91576305f5e1008381612b8757612b86614831565b5b0492506008810190505b6127108310612bb6576127108381612bac57612bab614831565b5b0492506004810190505b60648310612bd95760648381612bcf57612bce614831565b5b0492506002810190505b600a8310612be8576001810190505b80915050919050565b6040518060400160405280600073ffffffffffffffffffffffffffffffffffffffff168152602001600067ffffffffffffffff1681525090565b6000604051905090565b600080fd5b600080fd5b60007fffffffff0000000000000000000000000000000000000000000000000000000082169050919050565b612c7481612c3f565b8114612c7f57600080fd5b50565b600081359050612c9181612c6b565b92915050565b600060208284031215612cad57612cac612c35565b5b6000612cbb84828501612c82565b91505092915050565b60008115159050919050565b612cd981612cc4565b82525050565b6000602082019050612cf46000830184612cd0565b92915050565b600081519050919050565b600082825260208201905092915050565b60005b83811015612d34578082015181840152602081019050612d19565b60008484015250505050565b6000601f19601f8301169050919050565b6000612d5c82612cfa565b612d668185612d05565b9350612d76818560208601612d16565b612d7f81612d40565b840191505092915050565b60006020820190508181036000830152612da48184612d51565b905092915050565b6000819050919050565b612dbf81612dac565b8114612dca57600080fd5b50565b600081359050612ddc81612db6565b92915050565b600060208284031215612df857612df7612c35565b5b6000612e0684828501612dcd565b91505092915050565b600073ffffffffffffffffffffffffffffffffffffffff82169050919050565b6000612e3a82612e0f565b9050919050565b612e4a81612e2f565b82525050565b6000602082019050612e656000830184612e41565b92915050565b612e7481612e2f565b8114612e7f57600080fd5b50565b600081359050612e9181612e6b565b92915050565b60008060408385031215612eae57612ead612c35565b5b6000612ebc85828601612e82565b9250506020612ecd85828601612dcd565b9150509250929050565b612ee081612dac565b82525050565b6000602082019050612efb6000830184612ed7565b92915050565b600080600060608486031215612f1a57612f19612c35565b5b6000612f2886828701612e82565b9350506020612f3986828701612e82565b9250506040612f4a86828701612dcd565b9150509250925092565b600080fd5b600080fd5b7f4e487b7100000000000000000000000000000000000000000000000000000000600052604160045260246000fd5b612f9682612d40565b810181811067ffffffffffffffff82111715612fb557612fb4612f5e565b5b80604052505050565b6000612fc8612c2b565b9050612fd48282612f8d565b919050565b600067ffffffffffffffff821115612ff457612ff3612f5e565b5b612ffd82612d40565b9050602081019050919050565b82818337600083830152505050565b600061302c61302784612fd9565b612fbe565b90508281526020810184848401111561304857613047612f59565b5b61305384828561300a565b509392505050565b600082601f8301126130705761306f612f54565b5b8135613080848260208601613019565b91505092915050565b60006020828403121561309f5761309e612c35565b5b600082013567ffffffffffffffff8111156130bd576130bc612c3a565b5b6130c98482850161305b565b91505092915050565b6000602082840312156130e8576130e7612c35565b5b60006130f684828501612e82565b91505092915050565b600081519050919050565b600082825260208201905092915050565b6000819050602082019050919050565b61313481612dac565b82525050565b6000613146838361312b565b60208301905092915050565b6000602082019050919050565b600061316a826130ff565b613174818561310a565b935061317f8361311b565b8060005b838110156131b0578151613197888261313a565b97506131a283613152565b925050600181019050613183565b5085935050505092915050565b600060208201905081810360008301526131d7818461315f565b905092915050565b6131e881612cc4565b81146131f357600080fd5b50565b600081359050613205816131df565b92915050565b6000806040838503121561322257613221612c35565b5b600061323085828601612e82565b9250506020613241858286016131f6565b9150509250929050565b600067ffffffffffffffff82111561326657613265612f5e565b5b61326f82612d40565b9050602081019050919050565b600061328f61328a8461324b565b612fbe565b9050828152602081018484840111156132ab576132aa612f59565b5b6132b684828561300a565b509392505050565b600082601f8301126132d3576132d2612f54565b5b81356132e384826020860161327c565b91505092915050565b6000806000806080858703121561330657613305612c35565b5b600061331487828801612e82565b945050602061332587828801612e82565b935050604061333687828801612dcd565b925050606085013567ffffffffffffffff81111561335757613356612c3a565b5b613363878288016132be565b91505092959194509250565b6000806040838503121561338657613385612c35565b5b600061339485828601612e82565b92505060206133a585828601612e82565b9150509250929050565b7f4e487b7100000000000000000000000000000000000000000000000000000000600052602260045260246000fd5b600060028204905060018216806133f657607f821691505b602082108103613409576134086133af565b5b50919050565b7f455243373231413a20617070726f76656420717565727920666f72206e6f6e6560008201527f78697374656e7420746f6b656e00000000000000000000000000000000000000602082015250565b600061346b602d83612d05565b91506134768261340f565b604082019050919050565b6000602082019050818103600083015261349a8161345e565b9050919050565b7f455243373231413a20617070726f76616c20746f2063757272656e74206f776e60008201527f6572000000000000000000000000000000000000000000000000000000000000602082015250565b60006134fd602283612d05565b9150613508826134a1565b604082019050919050565b6000602082019050818103600083015261352c816134f0565b9050919050565b7f455243373231413a20617070726f76652063616c6c6572206973206e6f74206f60008201527f776e6572206e6f7220617070726f76656420666f7220616c6c00000000000000602082015250565b600061358f603983612d05565b915061359a82613533565b604082019050919050565b600060208201905081810360008301526135be81613582565b9050919050565b7f4e487b7100000000000000000000000000000000000000000000000000000000600052601160045260246000fd5b60006135ff82612dac565b915061360a83612dac565b9250828203905081811115613622576136216135c5565b5b92915050565b7f7365742070726963652030000000000000000000000000000000000000000000600082015250565b600061365e600b83612d05565b915061366982613628565b602082019050919050565b6000602082019050818103600083015261368d81613651565b9050919050565b7f455243373231413a206f776e657220696e646578206f7574206f6620626f756e60008201527f6473000000000000000000000000000000000000000000000000000000000000602082015250565b60006136f0602283612d05565b91506136fb82613694565b604082019050919050565b6000602082019050818103600083015261371f816136e3565b9050919050565b600061373182612dac565b91507fffffffffffffffffffffffffffffffffffffffffffffffffffffffffffffffff8203613763576137626135c5565b5b600182019050919050565b7f455243373231413a20756e61626c6520746f2067657420746f6b656e206f662060008201527f6f776e657220627920696e646578000000000000000000000000000000000000602082015250565b60006137ca602e83612d05565b91506137d58261376e565b604082019050919050565b600060208201905081810360008301526137f9816137bd565b9050919050565b7f455243373231413a20676c6f62616c20696e646578206f7574206f6620626f7560008201527f6e64730000000000000000000000000000000000000000000000000000000000602082015250565b600061385c602383612d05565b915061386782613800565b604082019050919050565b6000602082019050818103600083015261388b8161384f565b9050919050565b60008190508160005260206000209050919050565b60006020601f8301049050919050565b600082821b905092915050565b6000600883026138f47fffffffffffffffffffffffffffffffffffffffffffffffffffffffffffffffff826138b7565b6138fe86836138b7565b95508019841693508086168417925050509392505050565b6000819050919050565b600061393b61393661393184612dac565b613916565b612dac565b9050919050565b6000819050919050565b61395583613920565b61396961396182613942565b8484546138c4565b825550505050565b600090565b61397e613971565b61398981848461394c565b505050565b5b818110156139ad576139a2600082613976565b60018101905061398f565b5050565b601f8211156139f2576139c381613892565b6139cc846138a7565b810160208510156139db578190505b6139ef6139e7856138a7565b83018261398e565b50505b505050565b600082821c905092915050565b6000613a15600019846008026139f7565b1980831691505092915050565b6000613a2e8383613a04565b9150826002028217905092915050565b613a4782612cfa565b67ffffffffffffffff811115613a6057613a5f612f5e565b5b613a6a82546133de565b613a758282856139b1565b600060209050601f831160018114613aa85760008415613a96578287015190505b613aa08582613a22565b865550613b08565b601f198416613ab686613892565b60005b82811015613ade57848901518255600182019150602085019450602081019050613ab9565b86831015613afb5784890151613af7601f891682613a04565b8355505b6001600288020188555050505b505050505050565b7f5468652063616c6c657220697320616e6f7468657220636f6e74726163740000600082015250565b6000613b46601e83612d05565b9150613b5182613b10565b602082019050919050565b60006020820190508181036000830152613b7581613b39565b9050919050565b7f73616c6520686173206e6f7420626567756e2079657400000000000000000000600082015250565b6000613bb2601683612d05565b9150613bbd82613b7c565b602082019050919050565b60006020820190508181036000830152613be181613ba5565b9050919050565b7f63616e206e6f74206d696e74207468697320616d6f756e74206174206f6e6365600082015250565b6000613c1e602083612d05565b9150613c2982613be8565b602082019050919050565b60006020820190508181036000830152613c4d81613c11565b9050919050565b6000613c5f82612dac565b9150613c6a83612dac565b9250828201905080821115613c8257613c816135c5565b5b92915050565b7f6e6f7420656e6f7567682072656d61696e696720616d6f756e74730000000000600082015250565b6000613cbe601b83612d05565b9150613cc982613c88565b602082019050919050565b60006020820190508181036000830152613ced81613cb1565b9050919050565b6000613cff82612dac565b9150613d0a83612dac565b9250828202613d1881612dac565b91508282048414831517613d2f57613d2e6135c5565b5b5092915050565b7f70617920646f73656e2774206d61746368210000000000000000000000000000600082015250565b6000613d6c601283612d05565b9150613d7782613d36565b602082019050919050565b60006020820190508181036000830152613d9b81613d5f565b9050919050565b6000606082019050613db76000830186612e41565b613dc46020830185612ed7565b613dd16040830184612ed7565b949350505050565b7f455243373231413a2062616c616e636520717565727920666f7220746865207a60008201527f65726f2061646472657373000000000000000000000000000000000000000000602082015250565b6000613e35602b83612d05565b9150613e4082613dd9565b604082019050919050565b60006020820190508181036000830152613e6481613e28565b9050919050565b7f4e487b7100000000000000000000000000000000000000000000000000000000600052603260045260246000fd5b7f62616c616e6365206973207a65726f0000000000000000000000000000000000600082015250565b6000613ed0600f83612d05565b9150613edb82613e9a565b602082019050919050565b60006020820190508181036000830152613eff81613ec3565b9050919050565b600081905092915050565b50565b6000613f21600083613f06565b9150613f2c82613f11565b600082019050919050565b6000613f4282613f14565b9150819050919050565b7f5769746864726177616c204661696c6564000000000000000000000000000000600082015250565b6000613f82601183612d05565b9150613f8d82613f4c565b602082019050919050565b60006020820190508181036000830152613fb181613f75565b9050919050565b7f455243373231413a20617070726f766520746f2063616c6c6572000000000000600082015250565b6000613fee601a83612d05565b9150613ff982613fb8565b602082019050919050565b6000602082019050818103600083015261401d81613fe1565b9050919050565b7f73616c65207072696365206d7573742067726561746572207468616e20300000600082015250565b600061405a601e83612d05565b915061406582614024565b602082019050919050565b600060208201905081810360008301526140898161404d565b9050919050565b60006040820190506140a56000830185612ed7565b6140b26020830184612cd0565b9392505050565b7f455243373231413a207472616e7366657220746f206e6f6e204552433732315260008201527f6563656976657220696d706c656d656e74657200000000000000000000000000602082015250565b6000614115603383612d05565b9150614120826140b9565b604082019050919050565b6000602082019050818103600083015261414481614108565b9050919050565b7f4552433732314d657461646174613a2055524920717565727920666f72206e6f60008201527f6e6578697374656e7420746f6b656e0000000000000000000000000000000000602082015250565b60006141a7602f83612d05565b91506141b28261414b565b604082019050919050565b600060208201905081810360008301526141d68161419a565b9050919050565b600081905092915050565b60006141f382612cfa565b6141fd81856141dd565b935061420d818560208601612d16565b80840191505092915050565b600061422582856141e8565b915061423182846141e8565b91508190509392505050565b7f4f776e61626c653a206e6577206f776e657220697320746865207a65726f206160008201527f6464726573730000000000000000000000000000000000000000000000000000602082015250565b6000614299602683612d05565b91506142a48261423d565b604082019050919050565b600060208201905081810360008301526142c88161428c565b9050919050565b7f455243373231413a207472616e736665722063616c6c6572206973206e6f742060008201527f6f776e6572206e6f7220617070726f7665640000000000000000000000000000602082015250565b600061432b603283612d05565b9150614336826142cf565b604082019050919050565b6000602082019050818103600083015261435a8161431e565b9050919050565b7f455243373231413a207472616e736665722066726f6d20696e636f727265637460008201527f206f776e65720000000000000000000000000000000000000000000000000000602082015250565b60006143bd602683612d05565b91506143c882614361565b604082019050919050565b600060208201905081810360008301526143ec816143b0565b9050919050565b7f455243373231413a207472616e7366657220746f20746865207a65726f20616460008201527f6472657373000000000000000000000000000000000000000000000000000000602082015250565b600061444f602583612d05565b915061445a826143f3565b604082019050919050565b6000602082019050818103600083015261447e81614442565b9050919050565b60006fffffffffffffffffffffffffffffffff82169050919050565b60006144ac82614485565b91506144b783614485565b925082820390506fffffffffffffffffffffffffffffffff8111156144df576144de6135c5565b5b92915050565b60006144f082614485565b91506144fb83614485565b925082820190506fffffffffffffffffffffffffffffffff811115614523576145226135c5565b5b92915050565b7f4f776e61626c653a2063616c6c6572206973206e6f7420746865206f776e6572600082015250565b600061455f602083612d05565b915061456a82614529565b602082019050919050565b6000602082019050818103600083015261458e81614552565b9050919050565b7f455243373231413a206f776e657220717565727920666f72206e6f6e6578697360008201527f74656e7420746f6b656e00000000000000000000000000000000000000000000602082015250565b60006145f1602a83612d05565b91506145fc82614595565b604082019050919050565b60006020820190508181036000830152614620816145e4565b9050919050565b600061463282612dac565b915060008203614645576146446135c5565b5b600182039050919050565b7f455243373231413a20756e61626c6520746f2064657465726d696e652074686560008201527f206f776e6572206f6620746f6b656e0000000000000000000000000000000000602082015250565b60006146ac602f83612d05565b91506146b782614650565b604082019050919050565b600060208201905081810360008301526146db8161469f565b9050919050565b7f5265656e7472616e637947756172643a207265656e7472616e742063616c6c00600082015250565b6000614718601f83612d05565b9150614723826146e2565b602082019050919050565b600060208201905081810360008301526147478161470b565b9050919050565b600081519050919050565b600082825260208201905092915050565b60006147758261474e565b61477f8185614759565b935061478f818560208601612d16565b61479881612d40565b840191505092915050565b60006080820190506147b86000830187612e41565b6147c56020830186612e41565b6147d26040830185612ed7565b81810360608301526147e4818461476a565b905095945050505050565b6000815190506147fe81612c6b565b92915050565b60006020828403121561481a57614819612c35565b5b6000614828848285016147ef565b91505092915050565b7f4e487b7100000000000000000000000000000000000000000000000000000000600052601260045260246000fd5b7f455243373231413a206d696e7420746f20746865207a65726f2061646472657360008201527f7300000000000000000000000000000000000000000000000000000000000000602082015250565b60006148bc602183612d05565b91506148c782614860565b604082019050919050565b600060208201905081810360008301526148eb816148af565b9050919050565b7f455243373231413a20746f6b656e20616c7265616479206d696e746564000000600082015250565b6000614928601d83612d05565b9150614933826148f2565b602082019050919050565b600060208201905081810360008301526149578161491b565b9050919050565b7f455243373231413a207175616e7469747920746f206d696e7420746f6f20686960008201527f6768000000000000000000000000000000000000000000000000000000000000602082015250565b60006149ba602283612d05565b91506149c58261495e565b604082019050919050565b600060208201905081810360008301526149e9816149ad565b905091905056fea2646970667358221220f5c39b5e04cafc2adc1c04ab4350c358eec8d8afebe1d655982a4e0fe3359f7b64736f6c63430008110033",
  "immutableReferences": {
    "5454": [
      {
        "length": 32,
        "start": 2774
      },
      {
        "length": 32,
        "start": 3771
      }
    ],
    "7433": [
      {
        "length": 32,
        "start": 3870
      },
      {
        "length": 32,
        "start": 5827
      }
    ],
    "7435": [
      {
        "length": 32,
        "start": 8126
      },
      {
        "length": 32,
        "start": 8167
      },
      {
        "length": 32,
        "start": 9821
      }
    ]
  },
  "source": "// SPDX-License-Identifier: MIT\r\npragma solidity ^0.8.17;\r\n\r\nimport \"./standards/ERC721A.sol\";\r\nimport \"../node_modules/@openzeppelin/contracts/utils/Strings.sol\";\r\nimport \"../node_modules/@openzeppelin/contracts/access/Ownable.sol\";\r\nimport \"../node_modules/@openzeppelin/contracts/security/ReentrancyGuard.sol\";\r\n\r\n// remix  \r\n// import \"./standards/ERC721A.sol\";\r\n// import \"openzeppelin-solidity/contracts/utils/Strings.sol\";\r\n// import \"openzeppelin-solidity/contracts/access/Ownable.sol\";\r\n// import \"openzeppelin-solidity/contracts/security/ReentrancyGuard.sol\";\r\n\r\ncontract TestToken is  ERC721A, Ownable, ReentrancyGuard {\r\n    using Strings for uint256; // Strings \r\n    uint256 public immutable maxAmountPerMint; \r\n    uint256 public mintPrice;\r\n\r\n    event MintTestToken(address minter, uint256 quantity, uint256 totalSupply);\r\n    event SetMintOn(uint256 mintPrice, bool isMintOn);\r\n\r\n    constructor(uint256 maxBatchSize_, uint256 collectionSize_) ERC721A(\"Seop\", \"SEP\", maxBatchSize_, collectionSize_) {\r\n     maxAmountPerMint = maxBatchSize_;\r\n    }\r\n\r\n    modifier callerIsUser() {\r\n      //  CA EOA  \r\n      require(tx.origin == msg.sender, \"The caller is another contract\");\r\n      _;\r\n    }\r\n\r\n    function setMintOn(uint256 price) external onlyOwner {\r\n      // wei \r\n      require(price > 0,\"sale price must greater than 0\");\r\n      mintPrice = price;\r\n      emit SetMintOn(mintPrice, isMintOn());\r\n    }\r\n\r\n    function setMintOff(uint256 price) external onlyOwner {\r\n      require (price == 0, \"set price 0\");\r\n      mintPrice = 0;\r\n    }\r\n\r\n    function isMintOn() public view returns(bool) {\r\n      return mintPrice != 0; \r\n    }\r\n\r\n    function mintTestToken(uint256 quantity) external payable callerIsUser {\r\n      require(isMintOn(),\"sale has not begun yet\");\r\n      require(quantity <= maxAmountPerMint, \"can not mint this amount at once\"); //    \r\n      require(ERC721A.totalSupply() + quantity <= ERC721A.collectionSize, \"not enough remainig amounts\"); //   \r\n      require(msg.value == quantity * mintPrice, \"pay dosen't match!\");\r\n      ERC721A._safeMint(msg.sender, quantity);\r\n      emit MintTestToken(msg.sender, quantity, ERC721A.totalSupply());\r\n    }\r\n\r\n    string private _baseTokenURI = \"http://localhost:4000/\";\r\n\r\n  //   function tokenURI(uint256 tokenId)\r\n  //   public\r\n  //   view\r\n  //   override\r\n  //   returns (string memory)\r\n  // {\r\n  //   require(\r\n  //     _exists(tokenId),\r\n  //     \"ERC721Metadata: URI query for nonexistent token\"\r\n  //   );\r\n\r\n  //   string memory baseURI = _baseURI();\r\n  //   return\r\n  //     bytes(baseURI).length > 0\r\n  //       ? string(abi.encodePacked(baseURI, tokenId.toString()))\r\n  //       : \"\";\r\n  // }\r\n\r\n    function _baseURI() internal override view returns(string memory){\r\n      return _baseTokenURI;\r\n    }\r\n  \r\n    function setBaseURI(string memory baseURI) external onlyOwner {\r\n      _baseTokenURI = baseURI;\r\n    }\r\n    // tokenURI ERC721A   \r\n    //  _baseURI    baseURI \r\n    // tokenURI  _baseURI    tokenURI  return.\r\n\r\n    function withdrawAll() external onlyOwner nonReentrant {\r\n      require(address(this).balance > 0, \"balance is zero\");\r\n      // nonReentrant modifier  ?     .\r\n      // payable(msg.sender).transfer(address(this).balance);\r\n      (bool success, ) = msg.sender.call{value:address(this).balance}(\"\");\r\n      require(success, \"Withdrawal Failed\");\r\n    }\r\n\r\n    function maxSupply() view external returns(uint256) {\r\n      return ERC721A.collectionSize;\r\n    }\r\n    \r\n    function tokensOfOwner(address owner) view external returns(uint256[] memory) {\r\n      uint256 ownerBalance = ERC721A.balanceOf(owner);\r\n      uint256[] memory tokens = new uint256[](ownerBalance); //  \r\n      for (uint256 ind = 0; ind < ownerBalance; ind++) {\r\n        uint256 tokenId = tokenOfOwnerByIndex(owner, ind); // ERC721A \r\n        tokens[ind] = tokenId;\r\n      }\r\n      return tokens;\r\n    }\r\n\r\n}\r\n",
  "sourcePath": "C:\\Users\\KGA_\\Desktop\\nft_1223\\blockChain\\contracts\\TestToken.sol",
  "compiler": {
    "name": "solc",
    "version": "0.8.17+commit.8df45f5f.Emscripten.clang"
  },
  "schemaVersion": "3.4.11",
  "updatedAt": "2022-12-24T06:51:18.325Z",
  "networkType": "ethereum",
  "devdoc": {
    "kind": "dev",
    "methods": {
      "approve(address,uint256)": {
        "details": "See {IERC721-approve}."
      },
      "balanceOf(address)": {
        "details": "See {IERC721-balanceOf}."
      },
      "getApproved(uint256)": {
        "details": "See {IERC721-getApproved}."
      },
      "isApprovedForAll(address,address)": {
        "details": "See {IERC721-isApprovedForAll}."
      },
      "name()": {
        "details": "See {IERC721Metadata-name}."
      },
      "owner()": {
        "details": "Returns the address of the current owner."
      },
      "ownerOf(uint256)": {
        "details": "See {IERC721-ownerOf}."
      },
      "renounceOwnership()": {
        "details": "Leaves the contract without owner. It will not be possible to call `onlyOwner` functions anymore. Can only be called by the current owner. NOTE: Renouncing ownership will leave the contract without an owner, thereby removing any functionality that is only available to the owner."
      },
      "safeTransferFrom(address,address,uint256)": {
        "details": "See {IERC721-safeTransferFrom}."
      },
      "safeTransferFrom(address,address,uint256,bytes)": {
        "details": "See {IERC721-safeTransferFrom}."
      },
      "setApprovalForAll(address,bool)": {
        "details": "See {IERC721-setApprovalForAll}."
      },
      "supportsInterface(bytes4)": {
        "details": "See {IERC165-supportsInterface}."
      },
      "symbol()": {
        "details": "See {IERC721Metadata-symbol}."
      },
      "tokenByIndex(uint256)": {
        "details": "See {IERC721Enumerable-tokenByIndex}."
      },
      "tokenOfOwnerByIndex(address,uint256)": {
        "details": "See {IERC721Enumerable-tokenOfOwnerByIndex}. This read function is O(collectionSize). If calling from a separate contract, be sure to test gas first. It may also degrade with extremely large collection sizes (e.g >> 10000), test for your use case."
      },
      "tokenURI(uint256)": {
        "details": "See {IERC721Metadata-tokenURI}."
      },
      "totalSupply()": {
        "details": "See {IERC721Enumerable-totalSupply}."
      },
      "transferFrom(address,address,uint256)": {
        "details": "See {IERC721-transferFrom}."
      },
      "transferOwnership(address)": {
        "details": "Transfers ownership of the contract to a new account (`newOwner`). Can only be called by the current owner."
      }
    },
    "version": 1
  },
  "userdoc": {
    "kind": "user",
    "methods": {},
    "version": 1
  }
}