{
  "contractName": "TestTrade",
  "abi": [
    {
      "inputs": [
        {
          "internalType": "address",
          "name": "tokenAddress_",
          "type": "address"
        }
      ],
      "stateMutability": "nonpayable",
      "type": "constructor"
    },
    {
      "anonymous": false,
      "inputs": [
        {
          "indexed": false,
          "internalType": "uint256",
          "name": "tokenId",
          "type": "uint256"
        },
        {
          "indexed": false,
          "internalType": "uint256",
          "name": "bidPrice",
          "type": "uint256"
        },
        {
          "indexed": false,
          "internalType": "address",
          "name": "bider",
          "type": "address"
        }
      ],
      "name": "BidOnAuction",
      "type": "event"
    },
    {
      "anonymous": false,
      "inputs": [
        {
          "indexed": false,
          "internalType": "uint256",
          "name": "tokenId",
          "type": "uint256"
        },
        {
          "indexed": false,
          "internalType": "address",
          "name": "caller",
          "type": "address"
        }
      ],
      "name": "ClaimMatchedAuction",
      "type": "event"
    },
    {
      "anonymous": false,
      "inputs": [
        {
          "indexed": true,
          "internalType": "address",
          "name": "previousOwner",
          "type": "address"
        },
        {
          "indexed": true,
          "internalType": "address",
          "name": "newOwner",
          "type": "address"
        }
      ],
      "name": "OwnershipTransferred",
      "type": "event"
    },
    {
      "anonymous": false,
      "inputs": [
        {
          "indexed": false,
          "internalType": "uint256",
          "name": "tokenId",
          "type": "uint256"
        },
        {
          "indexed": false,
          "internalType": "address",
          "name": "failedBider",
          "type": "address"
        }
      ],
      "name": "RefundBid",
      "type": "event"
    },
    {
      "anonymous": false,
      "inputs": [
        {
          "indexed": false,
          "internalType": "uint256",
          "name": "tokenId",
          "type": "uint256"
        }
      ],
      "name": "RegisterForAuction",
      "type": "event"
    },
    {
      "inputs": [],
      "name": "Token",
      "outputs": [
        {
          "internalType": "contract TestToken",
          "name": "",
          "type": "address"
        }
      ],
      "stateMutability": "view",
      "type": "function",
      "constant": true
    },
    {
      "inputs": [],
      "name": "owner",
      "outputs": [
        {
          "internalType": "address",
          "name": "",
          "type": "address"
        }
      ],
      "stateMutability": "view",
      "type": "function",
      "constant": true
    },
    {
      "inputs": [],
      "name": "renounceOwnership",
      "outputs": [],
      "stateMutability": "nonpayable",
      "type": "function"
    },
    {
      "inputs": [],
      "name": "saleFeeRate",
      "outputs": [
        {
          "internalType": "uint256",
          "name": "",
          "type": "uint256"
        }
      ],
      "stateMutability": "view",
      "type": "function",
      "constant": true
    },
    {
      "inputs": [
        {
          "internalType": "address",
          "name": "newOwner",
          "type": "address"
        }
      ],
      "name": "transferOwnership",
      "outputs": [],
      "stateMutability": "nonpayable",
      "type": "function"
    },
    {
      "inputs": [],
      "name": "getCA",
      "outputs": [
        {
          "internalType": "address",
          "name": "",
          "type": "address"
        }
      ],
      "stateMutability": "view",
      "type": "function",
      "constant": true
    },
    {
      "inputs": [
        {
          "internalType": "uint256",
          "name": "rate",
          "type": "uint256"
        }
      ],
      "name": "setSaleFeeRate",
      "outputs": [],
      "stateMutability": "nonpayable",
      "type": "function"
    },
    {
      "inputs": [
        {
          "internalType": "uint256",
          "name": "price",
          "type": "uint256"
        }
      ],
      "name": "calculateFee",
      "outputs": [
        {
          "internalType": "uint256",
          "name": "",
          "type": "uint256"
        }
      ],
      "stateMutability": "view",
      "type": "function",
      "constant": true
    },
    {
      "inputs": [
        {
          "internalType": "uint256",
          "name": "price",
          "type": "uint256"
        }
      ],
      "name": "afterFee",
      "outputs": [
        {
          "internalType": "uint256",
          "name": "",
          "type": "uint256"
        }
      ],
      "stateMutability": "view",
      "type": "function",
      "constant": true
    },
    {
      "inputs": [
        {
          "internalType": "uint256",
          "name": "tokenId",
          "type": "uint256"
        }
      ],
      "name": "isOnSale",
      "outputs": [
        {
          "internalType": "bool",
          "name": "",
          "type": "bool"
        }
      ],
      "stateMutability": "view",
      "type": "function",
      "constant": true
    },
    {
      "inputs": [],
      "name": "onSaleList",
      "outputs": [
        {
          "internalType": "uint256[]",
          "name": "",
          "type": "uint256[]"
        }
      ],
      "stateMutability": "view",
      "type": "function",
      "constant": true
    },
    {
      "inputs": [
        {
          "internalType": "uint256",
          "name": "tokenId",
          "type": "uint256"
        }
      ],
      "name": "priceOfOnSale",
      "outputs": [
        {
          "internalType": "uint256",
          "name": "",
          "type": "uint256"
        }
      ],
      "stateMutability": "view",
      "type": "function",
      "constant": true
    },
    {
      "inputs": [
        {
          "internalType": "uint256",
          "name": "tokenId",
          "type": "uint256"
        },
        {
          "internalType": "uint256",
          "name": "price",
          "type": "uint256"
        }
      ],
      "name": "registerForSale",
      "outputs": [],
      "stateMutability": "nonpayable",
      "type": "function"
    },
    {
      "inputs": [
        {
          "internalType": "uint256",
          "name": "tokenId",
          "type": "uint256"
        }
      ],
      "name": "cancleSale",
      "outputs": [],
      "stateMutability": "nonpayable",
      "type": "function"
    },
    {
      "inputs": [
        {
          "internalType": "uint256",
          "name": "tokenId",
          "type": "uint256"
        }
      ],
      "name": "purchase",
      "outputs": [],
      "stateMutability": "payable",
      "type": "function",
      "payable": true
    },
    {
      "inputs": [],
      "name": "onAuctionList",
      "outputs": [
        {
          "internalType": "uint256[]",
          "name": "",
          "type": "uint256[]"
        }
      ],
      "stateMutability": "view",
      "type": "function",
      "constant": true
    },
    {
      "inputs": [
        {
          "internalType": "uint256",
          "name": "tokenId",
          "type": "uint256"
        }
      ],
      "name": "dataOfOnAuction",
      "outputs": [
        {
          "components": [
            {
              "internalType": "uint256",
              "name": "lastBidPrice",
              "type": "uint256"
            },
            {
              "internalType": "uint256",
              "name": "endTime",
              "type": "uint256"
            },
            {
              "internalType": "address",
              "name": "bider",
              "type": "address"
            }
          ],
          "internalType": "struct TestTrade.AuctionInfo",
          "name": "",
          "type": "tuple"
        }
      ],
      "stateMutability": "view",
      "type": "function",
      "constant": true
    },
    {
      "inputs": [
        {
          "internalType": "uint256",
          "name": "tokenId",
          "type": "uint256"
        }
      ],
      "name": "isOnAuction",
      "outputs": [
        {
          "internalType": "bool",
          "name": "",
          "type": "bool"
        }
      ],
      "stateMutability": "view",
      "type": "function",
      "constant": true
    },
    {
      "inputs": [
        {
          "internalType": "uint256",
          "name": "tokenId",
          "type": "uint256"
        },
        {
          "internalType": "uint256",
          "name": "minimumPrice",
          "type": "uint256"
        },
        {
          "internalType": "uint256",
          "name": "lastingMinutes",
          "type": "uint256"
        }
      ],
      "name": "registerForAuction",
      "outputs": [],
      "stateMutability": "nonpayable",
      "type": "function"
    },
    {
      "inputs": [
        {
          "internalType": "uint256",
          "name": "tokenId",
          "type": "uint256"
        }
      ],
      "name": "bidOnAcution",
      "outputs": [],
      "stateMutability": "payable",
      "type": "function",
      "payable": true
    },
    {
      "inputs": [
        {
          "internalType": "uint256",
          "name": "tokenId",
          "type": "uint256"
        }
      ],
      "name": "cancleFailedAuction",
      "outputs": [],
      "stateMutability": "nonpayable",
      "type": "function"
    },
    {
      "inputs": [
        {
          "internalType": "uint256",
          "name": "tokenId",
          "type": "uint256"
        }
      ],
      "name": "claimMatchedAuction",
      "outputs": [],
      "stateMutability": "nonpayable",
      "type": "function"
    },
    {
      "inputs": [
        {
          "internalType": "uint256",
          "name": "tokenId",
          "type": "uint256"
        }
      ],
      "name": "isNeedToClaim",
      "outputs": [
        {
          "internalType": "bool",
          "name": "",
          "type": "bool"
        }
      ],
      "stateMutability": "view",
      "type": "function",
      "constant": true
    },
    {
      "inputs": [],
      "name": "notClaimedAuctionList",
      "outputs": [
        {
          "internalType": "uint256[]",
          "name": "",
          "type": "uint256[]"
        }
      ],
      "stateMutability": "view",
      "type": "function",
      "constant": true
    },
    {
      "inputs": [
        {
          "internalType": "address",
          "name": "owner",
          "type": "address"
        }
      ],
      "name": "onBidList",
      "outputs": [
        {
          "internalType": "uint256[]",
          "name": "",
          "type": "uint256[]"
        }
      ],
      "stateMutability": "view",
      "type": "function",
      "constant": true
    },
    {
      "inputs": [
        {
          "internalType": "uint256",
          "name": "tokenId",
          "type": "uint256"
        }
      ],
      "name": "feeOfMatchedAuctionToken",
      "outputs": [
        {
          "internalType": "uint256",
          "name": "",
          "type": "uint256"
        }
      ],
      "stateMutability": "view",
      "type": "function",
      "constant": true
    },
    {
      "inputs": [
        {
          "internalType": "uint256",
          "name": "tokenId",
          "type": "uint256"
        }
      ],
      "name": "afterFeeOfNotClaimedToken",
      "outputs": [
        {
          "internalType": "uint256",
          "name": "",
          "type": "uint256"
        }
      ],
      "stateMutability": "view",
      "type": "function",
      "constant": true
    },
    {
      "inputs": [],
      "name": "withdrawFees",
      "outputs": [],
      "stateMutability": "nonpayable",
      "type": "function"
    }
  ],
  "bytecode": "0x608060405260056002553480156200001657600080fd5b50604051620040af380380620040af83398181016040528101906200003c9190620001da565b6200005c62000050620000a460201b60201c565b620000ac60201b60201c565b80600160006101000a81548173ffffffffffffffffffffffffffffffffffffffff021916908373ffffffffffffffffffffffffffffffffffffffff160217905550506200020c565b600033905090565b60008060009054906101000a900473ffffffffffffffffffffffffffffffffffffffff169050816000806101000a81548173ffffffffffffffffffffffffffffffffffffffff021916908373ffffffffffffffffffffffffffffffffffffffff1602179055508173ffffffffffffffffffffffffffffffffffffffff168173ffffffffffffffffffffffffffffffffffffffff167f8be0079c531659141344cd1fd0a4f28419497f9722a3daafe3b4186f6b6457e060405160405180910390a35050565b600080fd5b600073ffffffffffffffffffffffffffffffffffffffff82169050919050565b6000620001a28262000175565b9050919050565b620001b48162000195565b8114620001c057600080fd5b50565b600081519050620001d481620001a9565b92915050565b600060208284031215620001f357620001f262000170565b5b60006200020384828501620001c3565b91505092915050565b613e93806200021c6000396000f3fe6080604052600436106101b75760003560e01c80638da5cb5b116100ec578063efef39a11161008a578063f2fde38b11610064578063f2fde38b14610614578063f5c6a2cf1461063d578063f832bae114610668578063fd8cf888146106a5576101b7565b8063efef39a114610592578063f06d0a82146105ae578063f0f2805f146105d7576101b7565b8063cee64c65116100c6578063cee64c65146104e7578063d43115c314610510578063e033c22914610539578063e9498c3514610555576101b7565b80638da5cb5b1461045457806399a5d7471461047f578063c2412676146104bc576101b7565b80634a5c46ed1161015957806366066c771161013357806366066c77146103ac578063715018a6146103d757806382ef5ee5146103ee57806386cd9b8314610417576101b7565b80634a5c46ed146103195780635255f0d6146103445780635870ea5e14610381576101b7565b806337e246ad1161019557806337e246ad1461025f5780633a1cff7f1461029c578063476343ee146102c557806347bee9ba146102dc576101b7565b8063082a621c146101bc5780630957c2d9146101f95780632afc951114610236575b600080fd5b3480156101c857600080fd5b506101e360048036038101906101de9190612a79565b6106d0565b6040516101f09190612ab5565b60405180910390f35b34801561020557600080fd5b50610220600480360381019061021b9190612b2e565b610708565b60405161022d9190612c19565b60405180910390f35b34801561024257600080fd5b5061025d60048036038101906102589190612a79565b61085b565b005b34801561026b57600080fd5b5061028660048036038101906102819190612a79565b610ce6565b6040516102939190612c56565b60405180910390f35b3480156102a857600080fd5b506102c360048036038101906102be9190612a79565b610d08565b005b3480156102d157600080fd5b506102da610d1a565b005b3480156102e857600080fd5b5061030360048036038101906102fe9190612a79565b610e32565b6040516103109190612c56565b60405180910390f35b34801561032557600080fd5b5061032e610ece565b60405161033b9190612ab5565b60405180910390f35b34801561035057600080fd5b5061036b60048036038101906103669190612a79565b610ed4565b6040516103789190612cc2565b60405180910390f35b34801561038d57600080fd5b50610396610fc3565b6040516103a39190612c19565b60405180910390f35b3480156103b857600080fd5b506103c1611111565b6040516103ce9190612c19565b60405180910390f35b3480156103e357600080fd5b506103ec61125f565b005b3480156103fa57600080fd5b5061041560048036038101906104109190612cdd565b611273565b005b34801561042357600080fd5b5061043e60048036038101906104399190612a79565b6114cb565b60405161044b9190612ab5565b60405180910390f35b34801561046057600080fd5b5061046961153d565b6040516104769190612d2c565b60405180910390f35b34801561048b57600080fd5b506104a660048036038101906104a19190612a79565b611566565b6040516104b39190612ab5565b60405180910390f35b3480156104c857600080fd5b506104d1611589565b6040516104de9190612da6565b60405180910390f35b3480156104f357600080fd5b5061050e60048036038101906105099190612dc1565b6115af565b005b34801561051c57600080fd5b5061053760048036038101906105329190612a79565b61197c565b005b610553600480360381019061054e9190612a79565b61197f565b005b34801561056157600080fd5b5061057c60048036038101906105779190612a79565b611d11565b6040516105899190612ab5565b60405180910390f35b6105ac60048036038101906105a79190612a79565b611d2e565b005b3480156105ba57600080fd5b506105d560048036038101906105d09190612a79565b612033565b005b3480156105e357600080fd5b506105fe60048036038101906105f99190612a79565b6121ae565b60405161060b9190612c56565b60405180910390f35b34801561062057600080fd5b5061063b60048036038101906106369190612b2e565b6121ce565b005b34801561064957600080fd5b50610652612251565b60405161065f9190612c19565b60405180910390f35b34801561067457600080fd5b5061068f600480360381019061068a9190612a79565b61239f565b60405161069c9190612ab5565b60405180910390f35b3480156106b157600080fd5b506106ba6123cc565b6040516106c79190612d2c565b60405180910390f35b600080600460008481526020019081526020016000206000015490506106f58361239f565b816107009190612e43565b915050919050565b60606000610715836123d4565b67ffffffffffffffff81111561072e5761072d612e77565b5b60405190808252806020026020018201604052801561075c5781602001602082028036833780820191505090505b50905060006107696124b5565b90506000610775611111565b90506000805b8381101561084e57600083828151811061079857610797612ea6565b5b602002602001015190508773ffffffffffffffffffffffffffffffffffffffff166004600083815260200190815260200160002060020160009054906101000a900473ffffffffffffffffffffffffffffffffffffffff1673ffffffffffffffffffffffffffffffffffffffff160361083a578086848151811061081f5761081e612ea6565b5b602002602001018181525050828061083690612ed5565b9350505b50808061084690612ed5565b91505061077b565b5083945050505050919050565b60006004600083815260200190815260200160002060010154905060006004600084815260200190815260200160002060000154905060006004600085815260200190815260200160002060020160009054906101000a900473ffffffffffffffffffffffffffffffffffffffff1690506000600160009054906101000a900473ffffffffffffffffffffffffffffffffffffffff1673ffffffffffffffffffffffffffffffffffffffff16636352211e866040518263ffffffff1660e01b81526004016109299190612ab5565b602060405180830381865afa158015610946573d6000803e3d6000fd5b505050506040513d601f19601f8201168201806040525081019061096a9190612f32565b90504284106109ae576040517f08c379a00000000000000000000000000000000000000000000000000000000081526004016109a590612fbc565b60405180910390fd5b600083036109f1576040517f08c379a00000000000000000000000000000000000000000000000000000000081526004016109e89061304e565b60405180910390fd5b600073ffffffffffffffffffffffffffffffffffffffff168273ffffffffffffffffffffffffffffffffffffffff1603610a60576040517f08c379a0000000000000000000000000000000000000000000000000000000008152600401610a57906130e0565b60405180910390fd5b8173ffffffffffffffffffffffffffffffffffffffff163373ffffffffffffffffffffffffffffffffffffffff161480610ac557508073ffffffffffffffffffffffffffffffffffffffff163373ffffffffffffffffffffffffffffffffffffffff16145b610b04576040517f08c379a0000000000000000000000000000000000000000000000000000000008152600401610afb90613172565b60405180910390fd5b6000610b0f84611d11565b905060008273ffffffffffffffffffffffffffffffffffffffff1682604051610b37906131c3565b60006040518083038185875af1925050503d8060008114610b74576040519150601f19603f3d011682016040523d82523d6000602084013e610b79565b606091505b5050905080610bbd576040517f08c379a0000000000000000000000000000000000000000000000000000000008152600401610bb490613224565b60405180910390fd5b600160009054906101000a900473ffffffffffffffffffffffffffffffffffffffff1673ffffffffffffffffffffffffffffffffffffffff166342842e0e84868a6040518463ffffffff1660e01b8152600401610c1c93929190613244565b600060405180830381600087803b158015610c3657600080fd5b505af1158015610c4a573d6000803e3d6000fd5b5050505060006004600089815260200190815260200160002060020160006101000a81548173ffffffffffffffffffffffffffffffffffffffff021916908373ffffffffffffffffffffffffffffffffffffffff1602179055507f1b8a46b4ba92d15058e2a028d473fc5037835f1f8466a1a4a538634ac081d1548733604051610cd592919061327b565b60405180910390a150505050505050565b6000426004600084815260200190815260200160002060010154119050919050565b610d1061258e565b8060028190555050565b610d2261258e565b6000610d2c61260c565b905060008147610d3c9190612e43565b905060008111610d81576040517f08c379a0000000000000000000000000000000000000000000000000000000008152600401610d7890613316565b60405180910390fd5b60003373ffffffffffffffffffffffffffffffffffffffff1682604051610da7906131c3565b60006040518083038185875af1925050503d8060008114610de4576040519150601f19603f3d011682016040523d82523d6000602084013e610de9565b606091505b5050905080610e2d576040517f08c379a0000000000000000000000000000000000000000000000000000000008152600401610e2490613382565b60405180910390fd5b505050565b6000806004600084815260200190815260200160002060010154905060006004600085815260200190815260200160002060020160009054906101000a900473ffffffffffffffffffffffffffffffffffffffff169050600073ffffffffffffffffffffffffffffffffffffffff168173ffffffffffffffffffffffffffffffffffffffff1614158015610ec557504282105b92505050919050565b60025481565b610edc612a07565b42600460008481526020019081526020016000206001015411610f34576040517f08c379a0000000000000000000000000000000000000000000000000000000008152600401610f2b906133ee565b60405180910390fd5b6004600083815260200190815260200160002060405180606001604052908160008201548152602001600182015481526020016002820160009054906101000a900473ffffffffffffffffffffffffffffffffffffffff1673ffffffffffffffffffffffffffffffffffffffff1673ffffffffffffffffffffffffffffffffffffffff16815250509050919050565b60606000610fcf61269e565b67ffffffffffffffff811115610fe857610fe7612e77565b5b6040519080825280602002602001820160405280156110165781602001602082028036833780820191505090505b509050600080600190505b600160009054906101000a900473ffffffffffffffffffffffffffffffffffffffff1673ffffffffffffffffffffffffffffffffffffffff166318160ddd6040518163ffffffff1660e01b8152600401602060405180830381865afa15801561108e573d6000803e3d6000fd5b505050506040513d601f19601f820116820180604052508101906110b29190613423565b8111611108576110c181610e32565b156110f557808383815181106110da576110d9612ea6565b5b60200260200101818152505081806110f190612ed5565b9250505b808061110090612ed5565b915050611021565b50819250505090565b6060600061111d6124b5565b67ffffffffffffffff81111561113657611135612e77565b5b6040519080825280602002602001820160405280156111645781602001602082028036833780820191505090505b509050600080600190505b600160009054906101000a900473ffffffffffffffffffffffffffffffffffffffff1673ffffffffffffffffffffffffffffffffffffffff166318160ddd6040518163ffffffff1660e01b8152600401602060405180830381865afa1580156111dc573d6000803e3d6000fd5b505050506040513d601f19601f820116820180604052508101906112009190613423565b81116112565761120f81610ce6565b15611243578083838151811061122857611227612ea6565b5b602002602001018181525050818061123f90612ed5565b9250505b808061124e90612ed5565b91505061116f565b50819250505090565b61126761258e565b6112716000612777565b565b3373ffffffffffffffffffffffffffffffffffffffff16600160009054906101000a900473ffffffffffffffffffffffffffffffffffffffff1673ffffffffffffffffffffffffffffffffffffffff16636352211e846040518263ffffffff1660e01b81526004016112e59190612ab5565b602060405180830381865afa158015611302573d6000803e3d6000fd5b505050506040513d601f19601f820116820180604052508101906113269190612f32565b73ffffffffffffffffffffffffffffffffffffffff161461137c576040517f08c379a00000000000000000000000000000000000000000000000000000000081526004016113739061349c565b60405180910390fd5b600081116113bf576040517f08c379a00000000000000000000000000000000000000000000000000000000081526004016113b690613508565b60405180910390fd5b6113c882610ce6565b15611408576040517f08c379a00000000000000000000000000000000000000000000000000000000081526004016113ff90613574565b60405180910390fd5b600160009054906101000a900473ffffffffffffffffffffffffffffffffffffffff1673ffffffffffffffffffffffffffffffffffffffff1663e985e9c533306040518363ffffffff1660e01b8152600401611465929190613594565b602060405180830381865afa158015611482573d6000803e3d6000fd5b505050506040513d601f19601f820116820180604052508101906114a691906135e9565b6114af57600080fd5b8060036000848152602001908152602001600020819055505050565b600080600360008481526020019081526020016000205411611522576040517f08c379a000000000000000000000000000000000000000000000000000000000815260040161151990613662565b60405180910390fd5b60036000838152602001908152602001600020549050919050565b60008060009054906101000a900473ffffffffffffffffffffffffffffffffffffffff16905090565b60006064600254836115789190613682565b61158291906136f3565b9050919050565b600160009054906101000a900473ffffffffffffffffffffffffffffffffffffffff1681565b3373ffffffffffffffffffffffffffffffffffffffff16600160009054906101000a900473ffffffffffffffffffffffffffffffffffffffff1673ffffffffffffffffffffffffffffffffffffffff16636352211e856040518263ffffffff1660e01b81526004016116219190612ab5565b602060405180830381865afa15801561163e573d6000803e3d6000fd5b505050506040513d601f19601f820116820180604052508101906116629190612f32565b73ffffffffffffffffffffffffffffffffffffffff16146116b8576040517f08c379a00000000000000000000000000000000000000000000000000000000081526004016116af9061349c565b60405180910390fd5b66038d7ea4c68000821015611702576040517f08c379a00000000000000000000000000000000000000000000000000000000081526004016116f990613796565b60405180910390fd5b61170b836121ae565b1561174b576040517f08c379a000000000000000000000000000000000000000000000000000000000815260040161174290613802565b60405180910390fd5b426004600085815260200190815260200160002060010154106117a3576040517f08c379a000000000000000000000000000000000000000000000000000000000815260040161179a9061386e565b60405180910390fd5b600160009054906101000a900473ffffffffffffffffffffffffffffffffffffffff1673ffffffffffffffffffffffffffffffffffffffff1663e985e9c533306040518363ffffffff1660e01b8152600401611800929190613594565b602060405180830381865afa15801561181d573d6000803e3d6000fd5b505050506040513d601f19601f8201168201806040525081019061184191906135e9565b611880576040517f08c379a0000000000000000000000000000000000000000000000000000000008152600401611877906138da565b60405180910390fd5b6000603c8261188f9190613682565b4261189a91906138fa565b90506040518060600160405280848152602001828152602001600073ffffffffffffffffffffffffffffffffffffffff1681525060046000868152602001908152602001600020600082015181600001556020820151816001015560408201518160020160006101000a81548173ffffffffffffffffffffffffffffffffffffffff021916908373ffffffffffffffffffffffffffffffffffffffff1602179055509050507f8f9bdaa92ac45cc3a1570f596a0c879e145abf5b70d2c26946e884184cd965198460405161196e9190612ab5565b60405180910390a150505050565b50565b60006004600083815260200190815260200160002060000154905060006004600084815260200190815260200160002060010154905060006004600085815260200190815260200160002060020160009054906101000a900473ffffffffffffffffffffffffffffffffffffffff169050814210611a32576040517f08c379a0000000000000000000000000000000000000000000000000000000008152600401611a299061397a565b60405180910390fd5b3373ffffffffffffffffffffffffffffffffffffffff16600160009054906101000a900473ffffffffffffffffffffffffffffffffffffffff1673ffffffffffffffffffffffffffffffffffffffff16636352211e866040518263ffffffff1660e01b8152600401611aa49190612ab5565b602060405180830381865afa158015611ac1573d6000803e3d6000fd5b505050506040513d601f19601f82011682018060405250810190611ae59190612f32565b73ffffffffffffffffffffffffffffffffffffffff1603611b3b576040517f08c379a0000000000000000000000000000000000000000000000000000000008152600401611b32906139e6565b60405180910390fd5b60008311611b7e576040517f08c379a0000000000000000000000000000000000000000000000000000000008152600401611b7590613a52565b60405180910390fd5b823411611bc0576040517f08c379a0000000000000000000000000000000000000000000000000000000008152600401611bb790613ae4565b60405180910390fd5b600066038d7ea4c680008434611bd69190612e43565b611be09190613b04565b14611c20576040517f08c379a0000000000000000000000000000000000000000000000000000000008152600401611c1790613b58565b60405180910390fd5b600073ffffffffffffffffffffffffffffffffffffffff168173ffffffffffffffffffffffffffffffffffffffff1614611c6057611c5f84828561283b565b5b346004600086815260200190815260200160002060000181905550336004600086815260200190815260200160002060020160006101000a81548173ffffffffffffffffffffffffffffffffffffffff021916908373ffffffffffffffffffffffffffffffffffffffff1602179055507f2e8aa4a142971e5869dd16ff8b28d697bb44ae2491e376ddaa14d601be1c0f85843483604051611d0393929190613b78565b60405180910390a150505050565b6000611d1c82611566565b82611d279190612e43565b9050919050565b6000600360008381526020019081526020016000205490506000600160009054906101000a900473ffffffffffffffffffffffffffffffffffffffff1673ffffffffffffffffffffffffffffffffffffffff16636352211e846040518263ffffffff1660e01b8152600401611da39190612ab5565b602060405180830381865afa158015611dc0573d6000803e3d6000fd5b505050506040513d601f19601f82011682018060405250810190611de49190612f32565b90503373ffffffffffffffffffffffffffffffffffffffff168173ffffffffffffffffffffffffffffffffffffffff1603611e54576040517f08c379a0000000000000000000000000000000000000000000000000000000008152600401611e4b90613bfb565b60405180910390fd5b60008211611e97576040517f08c379a0000000000000000000000000000000000000000000000000000000008152600401611e8e90613c67565b60405180910390fd5b813414611ed9576040517f08c379a0000000000000000000000000000000000000000000000000000000008152600401611ed090613cd3565b60405180910390fd5b6000611ee483611d11565b905060008273ffffffffffffffffffffffffffffffffffffffff1682604051611f0c906131c3565b60006040518083038185875af1925050503d8060008114611f49576040519150601f19603f3d011682016040523d82523d6000602084013e611f4e565b606091505b5050905080611f92576040517f08c379a0000000000000000000000000000000000000000000000000000000008152600401611f8990613224565b60405180910390fd5b600160009054906101000a900473ffffffffffffffffffffffffffffffffffffffff1673ffffffffffffffffffffffffffffffffffffffff166342842e0e8433886040518463ffffffff1660e01b8152600401611ff193929190613244565b600060405180830381600087803b15801561200b57600080fd5b505af115801561201f573d6000803e3d6000fd5b5050505061202c85612033565b5050505050565b3373ffffffffffffffffffffffffffffffffffffffff16600160009054906101000a900473ffffffffffffffffffffffffffffffffffffffff1673ffffffffffffffffffffffffffffffffffffffff16636352211e836040518263ffffffff1660e01b81526004016120a59190612ab5565b602060405180830381865afa1580156120c2573d6000803e3d6000fd5b505050506040513d601f19601f820116820180604052508101906120e69190612f32565b73ffffffffffffffffffffffffffffffffffffffff161461213c576040517f08c379a00000000000000000000000000000000000000000000000000000000081526004016121339061349c565b60405180910390fd5b6000600360008381526020019081526020016000205411612192576040517f08c379a000000000000000000000000000000000000000000000000000000000815260040161218990613662565b60405180910390fd5b6000600360008381526020019081526020016000208190555050565b600080600360008481526020019081526020016000205414159050919050565b6121d661258e565b600073ffffffffffffffffffffffffffffffffffffffff168173ffffffffffffffffffffffffffffffffffffffff1603612245576040517f08c379a000000000000000000000000000000000000000000000000000000000815260040161223c90613d65565b60405180910390fd5b61224e81612777565b50565b6060600061225d612926565b67ffffffffffffffff81111561227657612275612e77565b5b6040519080825280602002602001820160405280156122a45781602001602082028036833780820191505090505b509050600080600190505b600160009054906101000a900473ffffffffffffffffffffffffffffffffffffffff1673ffffffffffffffffffffffffffffffffffffffff166318160ddd6040518163ffffffff1660e01b8152600401602060405180830381865afa15801561231c573d6000803e3d6000fd5b505050506040513d601f19601f820116820180604052508101906123409190613423565b81116123965761234f816121ae565b15612383578083838151811061236857612367612ea6565b5b602002602001018181525050818061237f90612ed5565b9250505b808061238e90612ed5565b9150506122af565b50819250505090565b600080600460008481526020019081526020016000206000015490506123c481611566565b915050919050565b600030905090565b6000806000905060006123e56124b5565b905060006123f1611111565b905060005b828110156124a957600082828151811061241357612412612ea6565b5b602002602001015190508673ffffffffffffffffffffffffffffffffffffffff166004600083815260200190815260200160002060020160009054906101000a900473ffffffffffffffffffffffffffffffffffffffff1673ffffffffffffffffffffffffffffffffffffffff160361249557848061249190612ed5565b9550505b5080806124a190612ed5565b9150506123f6565b50829350505050919050565b6000806000600190505b600160009054906101000a900473ffffffffffffffffffffffffffffffffffffffff1673ffffffffffffffffffffffffffffffffffffffff166318160ddd6040518163ffffffff1660e01b8152600401602060405180830381865afa15801561252c573d6000803e3d6000fd5b505050506040513d601f19601f820116820180604052508101906125509190613423565b81116125865761255f81610ce6565b1561257357818061256f90612ed5565b9250505b808061257e90612ed5565b9150506124bf565b508091505090565b6125966129ff565b73ffffffffffffffffffffffffffffffffffffffff166125b461153d565b73ffffffffffffffffffffffffffffffffffffffff161461260a576040517f08c379a000000000000000000000000000000000000000000000000000000000815260040161260190613dd1565b60405180910390fd5b565b600080612617610fc3565b9050600080600090505b825181101561269557600083828151811061263f5761263e612ea6565b5b60200260200101519050600060046000838152602001908152602001600020600001549050600061266f82611d11565b9050808561267d91906138fa565b9450505050808061268d90612ed5565b915050612621565b50809250505090565b6000806000600190505b600160009054906101000a900473ffffffffffffffffffffffffffffffffffffffff1673ffffffffffffffffffffffffffffffffffffffff166318160ddd6040518163ffffffff1660e01b8152600401602060405180830381865afa158015612715573d6000803e3d6000fd5b505050506040513d601f19601f820116820180604052508101906127399190613423565b811161276f5761274881610e32565b1561275c57818061275890612ed5565b9250505b808061276790612ed5565b9150506126a8565b508091505090565b60008060009054906101000a900473ffffffffffffffffffffffffffffffffffffffff169050816000806101000a81548173ffffffffffffffffffffffffffffffffffffffff021916908373ffffffffffffffffffffffffffffffffffffffff1602179055508173ffffffffffffffffffffffffffffffffffffffff168173ffffffffffffffffffffffffffffffffffffffff167f8be0079c531659141344cd1fd0a4f28419497f9722a3daafe3b4186f6b6457e060405160405180910390a35050565b60008273ffffffffffffffffffffffffffffffffffffffff1682604051612861906131c3565b60006040518083038185875af1925050503d806000811461289e576040519150601f19603f3d011682016040523d82523d6000602084013e6128a3565b606091505b50509050806128e7576040517f08c379a00000000000000000000000000000000000000000000000000000000081526004016128de90613e3d565b60405180910390fd5b7f1e935a7fb28a0412065cab7ad70c27cf05afe9a9e9d7ab2d424d099c373ac381848460405161291892919061327b565b60405180910390a150505050565b6000806000600190505b600160009054906101000a900473ffffffffffffffffffffffffffffffffffffffff1673ffffffffffffffffffffffffffffffffffffffff166318160ddd6040518163ffffffff1660e01b8152600401602060405180830381865afa15801561299d573d6000803e3d6000fd5b505050506040513d601f19601f820116820180604052508101906129c19190613423565b81116129f7576129d0816121ae565b156129e45781806129e090612ed5565b9250505b80806129ef90612ed5565b915050612930565b508091505090565b600033905090565b60405180606001604052806000815260200160008152602001600073ffffffffffffffffffffffffffffffffffffffff1681525090565b600080fd5b6000819050919050565b612a5681612a43565b8114612a6157600080fd5b50565b600081359050612a7381612a4d565b92915050565b600060208284031215612a8f57612a8e612a3e565b5b6000612a9d84828501612a64565b91505092915050565b612aaf81612a43565b82525050565b6000602082019050612aca6000830184612aa6565b92915050565b600073ffffffffffffffffffffffffffffffffffffffff82169050919050565b6000612afb82612ad0565b9050919050565b612b0b81612af0565b8114612b1657600080fd5b50565b600081359050612b2881612b02565b92915050565b600060208284031215612b4457612b43612a3e565b5b6000612b5284828501612b19565b91505092915050565b600081519050919050565b600082825260208201905092915050565b6000819050602082019050919050565b612b9081612a43565b82525050565b6000612ba28383612b87565b60208301905092915050565b6000602082019050919050565b6000612bc682612b5b565b612bd08185612b66565b9350612bdb83612b77565b8060005b83811015612c0c578151612bf38882612b96565b9750612bfe83612bae565b925050600181019050612bdf565b5085935050505092915050565b60006020820190508181036000830152612c338184612bbb565b905092915050565b60008115159050919050565b612c5081612c3b565b82525050565b6000602082019050612c6b6000830184612c47565b92915050565b612c7a81612af0565b82525050565b606082016000820151612c966000850182612b87565b506020820151612ca96020850182612b87565b506040820151612cbc6040850182612c71565b50505050565b6000606082019050612cd76000830184612c80565b92915050565b60008060408385031215612cf457612cf3612a3e565b5b6000612d0285828601612a64565b9250506020612d1385828601612a64565b9150509250929050565b612d2681612af0565b82525050565b6000602082019050612d416000830184612d1d565b92915050565b6000819050919050565b6000612d6c612d67612d6284612ad0565b612d47565b612ad0565b9050919050565b6000612d7e82612d51565b9050919050565b6000612d9082612d73565b9050919050565b612da081612d85565b82525050565b6000602082019050612dbb6000830184612d97565b92915050565b600080600060608486031215612dda57612dd9612a3e565b5b6000612de886828701612a64565b9350506020612df986828701612a64565b9250506040612e0a86828701612a64565b9150509250925092565b7f4e487b7100000000000000000000000000000000000000000000000000000000600052601160045260246000fd5b6000612e4e82612a43565b9150612e5983612a43565b9250828203905081811115612e7157612e70612e14565b5b92915050565b7f4e487b7100000000000000000000000000000000000000000000000000000000600052604160045260246000fd5b7f4e487b7100000000000000000000000000000000000000000000000000000000600052603260045260246000fd5b6000612ee082612a43565b91507fffffffffffffffffffffffffffffffffffffffffffffffffffffffffffffffff8203612f1257612f11612e14565b5b600182019050919050565b600081519050612f2c81612b02565b92915050565b600060208284031215612f4857612f47612a3e565b5b6000612f5684828501612f1d565b91505092915050565b600082825260208201905092915050565b7f61756374696f6e206e6f7420656e646564000000000000000000000000000000600082015250565b6000612fa6601183612f5f565b9150612fb182612f70565b602082019050919050565b60006020820190508181036000830152612fd581612f99565b9050919050565b7f7468697320746f6b656e20646964206e6f742072656769737465726564206f6e60008201527f2061756374696f6e000000000000000000000000000000000000000000000000602082015250565b6000613038602883612f5f565b915061304382612fdc565b604082019050919050565b600060208201905081810360008301526130678161302b565b9050919050565b7f616c726561647920636c61696d6564206f72206661696c65642061756374696f60008201527f6e00000000000000000000000000000000000000000000000000000000000000602082015250565b60006130ca602183612f5f565b91506130d58261306e565b604082019050919050565b600060208201905081810360008301526130f9816130bd565b9050919050565b7f63616c6c6572206973206e6f742068696768657374206269646572206e6f722060008201527f73656c6c65720000000000000000000000000000000000000000000000000000602082015250565b600061315c602683612f5f565b915061316782613100565b604082019050919050565b6000602082019050818103600083015261318b8161314f565b9050919050565b600081905092915050565b50565b60006131ad600083613192565b91506131b88261319d565b600082019050919050565b60006131ce826131a0565b9150819050919050565b7f7061796d656e74206661696c6564000000000000000000000000000000000000600082015250565b600061320e600e83612f5f565b9150613219826131d8565b602082019050919050565b6000602082019050818103600083015261323d81613201565b9050919050565b60006060820190506132596000830186612d1d565b6132666020830185612d1d565b6132736040830184612aa6565b949350505050565b60006040820190506132906000830185612aa6565b61329d6020830184612d1d565b9392505050565b7f62616c616e636520776974686f7574206e6f74436c61696d65644d6f6e65792060008201527f6973207a65726f00000000000000000000000000000000000000000000000000602082015250565b6000613300602783612f5f565b915061330b826132a4565b604082019050919050565b6000602082019050818103600083015261332f816132f3565b9050919050565b7f7769746864726177206661696c65640000000000000000000000000000000000600082015250565b600061336c600f83612f5f565b915061337782613336565b602082019050919050565b6000602082019050818103600083015261339b8161335f565b9050919050565b7f7468697320746f6b656e206973206e6f74206f6e2041756374696f6e00000000600082015250565b60006133d8601c83612f5f565b91506133e3826133a2565b602082019050919050565b60006020820190508181036000830152613407816133cb565b9050919050565b60008151905061341d81612a4d565b92915050565b60006020828403121561343957613438612a3e565b5b60006134478482850161340e565b91505092915050565b7f63616c6c6572206973206e6f74206f776e657200000000000000000000000000600082015250565b6000613486601383612f5f565b915061349182613450565b602082019050919050565b600060208201905081810360008301526134b581613479565b9050919050565b7f7072696365206d7573742062652067726561746572207468616e207a65726f00600082015250565b60006134f2601f83612f5f565b91506134fd826134bc565b602082019050919050565b60006020820190508181036000830152613521816134e5565b9050919050565b7f7468697320746f6b656e206973206f6e2061756374696f6e0000000000000000600082015250565b600061355e601883612f5f565b915061356982613528565b602082019050919050565b6000602082019050818103600083015261358d81613551565b9050919050565b60006040820190506135a96000830185612d1d565b6135b66020830184612d1d565b9392505050565b6135c681612c3b565b81146135d157600080fd5b50565b6000815190506135e3816135bd565b92915050565b6000602082840312156135ff576135fe612a3e565b5b600061360d848285016135d4565b91505092915050565b7f7468697320746f6b656e206973206e6f74206f6e2073616c6500000000000000600082015250565b600061364c601983612f5f565b915061365782613616565b602082019050919050565b6000602082019050818103600083015261367b8161363f565b9050919050565b600061368d82612a43565b915061369883612a43565b92508282026136a681612a43565b915082820484148315176136bd576136bc612e14565b5b5092915050565b7f4e487b7100000000000000000000000000000000000000000000000000000000600052601260045260246000fd5b60006136fe82612a43565b915061370983612a43565b925082613719576137186136c4565b5b828204905092915050565b7f6d696e696d756d5072696365206d75737420626520677265617465722074686160008201527f6e7320302e303031206574686572000000000000000000000000000000000000602082015250565b6000613780602e83612f5f565b915061378b82613724565b604082019050919050565b600060208201905081810360008301526137af81613773565b9050919050565b7f7468697320746f6b656e20697320616c7265616479206f6e2053616c65000000600082015250565b60006137ec601d83612f5f565b91506137f7826137b6565b602082019050919050565b6000602082019050818103600083015261381b816137df565b9050919050565b7f7468697320746f6b656e20697320616c7265616479206f6e2061756374696f6e600082015250565b6000613858602083612f5f565b915061386382613822565b602082019050919050565b600060208201905081810360008301526138878161384b565b9050919050565b7f6e6f7420617070726f7665640000000000000000000000000000000000000000600082015250565b60006138c4600c83612f5f565b91506138cf8261388e565b602082019050919050565b600060208201905081810360008301526138f3816138b7565b9050919050565b600061390582612a43565b915061391083612a43565b925082820190508082111561392857613927612e14565b5b92915050565b7f746869732061637574696f6e20656e6465640000000000000000000000000000600082015250565b6000613964601283612f5f565b915061396f8261392e565b602082019050919050565b6000602082019050818103600083015261399381613957565b9050919050565b7f6f776e65722063616e6e6f7420626964206f6e206f776e730000000000000000600082015250565b60006139d0601883612f5f565b91506139db8261399a565b602082019050919050565b600060208201905081810360008301526139ff816139c3565b9050919050565b7f7468697320746f6b656e206973206e6f74206f6e2061756374696f6e00000000600082015250565b6000613a3c601c83612f5f565b9150613a4782613a06565b602082019050919050565b60006020820190508181036000830152613a6b81613a2f565b9050919050565b7f626964206d7573742062652067726561746572207468616e206c61737420626960008201527f6400000000000000000000000000000000000000000000000000000000000000602082015250565b6000613ace602183612f5f565b9150613ad982613a72565b604082019050919050565b60006020820190508181036000830152613afd81613ac1565b9050919050565b6000613b0f82612a43565b9150613b1a83612a43565b925082613b2a57613b296136c4565b5b828206905092915050565b6000613b42600083612f5f565b9150613b4d8261319d565b600082019050919050565b60006020820190508181036000830152613b7181613b35565b9050919050565b6000606082019050613b8d6000830186612aa6565b613b9a6020830185612aa6565b613ba76040830184612d1d565b949350505050565b7f6f776e65722063616e6e6f7420627579206f776e730000000000000000000000600082015250565b6000613be5601583612f5f565b9150613bf082613baf565b602082019050919050565b60006020820190508181036000830152613c1481613bd8565b9050919050565b7f74686973206e6674206973206e6f74206f6e2073616c65000000000000000000600082015250565b6000613c51601783612f5f565b9150613c5c82613c1b565b602082019050919050565b60006020820190508181036000830152613c8081613c44565b9050919050565b7f7061796d656e7420646f73656e2774206d617463680000000000000000000000600082015250565b6000613cbd601583612f5f565b9150613cc882613c87565b602082019050919050565b60006020820190508181036000830152613cec81613cb0565b9050919050565b7f4f776e61626c653a206e6577206f776e657220697320746865207a65726f206160008201527f6464726573730000000000000000000000000000000000000000000000000000602082015250565b6000613d4f602683612f5f565b9150613d5a82613cf3565b604082019050919050565b60006020820190508181036000830152613d7e81613d42565b9050919050565b7f4f776e61626c653a2063616c6c6572206973206e6f7420746865206f776e6572600082015250565b6000613dbb602083612f5f565b9150613dc682613d85565b602082019050919050565b60006020820190508181036000830152613dea81613dae565b9050919050565b7f726566756e64206661696c656400000000000000000000000000000000000000600082015250565b6000613e27600d83612f5f565b9150613e3282613df1565b602082019050919050565b60006020820190508181036000830152613e5681613e1a565b905091905056fea26469706673582212204712429dadc65fb9e059d12bb2cce9e5a81851a72f9e43019ba8a9f0ba47bfc164736f6c63430008110033",
  "immutableReferences": {},
  "source": "// SPDX-License-Identifier: MIT\r\npragma solidity ^0.8.17;\r\n\r\nimport \"./TestToken.sol\";\r\n\r\nimport \"../node_modules/@openzeppelin/contracts/access/Ownable.sol\";\r\n// remix  \r\n// import \"openzeppelin-solidity/contracts/access/Ownable.sol\";\r\n\r\ncontract TestTrade is Ownable{\r\n    TestToken public Token;\r\n\r\n    uint256 public saleFeeRate = 5; //\r\n\r\n    struct AuctionInfo {\r\n        uint256 lastBidPrice; //    \r\n        uint256 endTime;\r\n        address bider; //    address(0)\r\n    }\r\n\r\n    mapping(uint => uint) private _tokensOnSale;\r\n    // tokenId to price\r\n    mapping(uint => AuctionInfo) private _tokensOnAuction;\r\n    // tokenId to AuctionInfo\r\n\r\n    constructor(address tokenAddress_) {\r\n        Token = TestToken(tokenAddress_);\r\n    }\r\n\r\n    event RegisterForAuction(uint256 tokenId);\r\n    event BidOnAuction(uint256 tokenId, uint256 bidPrice , address bider);\r\n    event RefundBid(uint256 tokenId, address failedBider);\r\n    event ClaimMatchedAuction(uint256 tokenId, address caller);\r\n\r\n    // CA \r\n    function getCA() external view returns(address){\r\n      return(address(this));\r\n    }\r\n\r\n    //  \r\n    function setSaleFeeRate(uint256 rate) external onlyOwner {\r\n        saleFeeRate = rate;\r\n    } \r\n\r\n    //    \r\n    function calculateFee(uint256 price) public view returns(uint256) {\r\n        return price * saleFeeRate / 100;\r\n    }\r\n\r\n    //     \r\n    function afterFee(uint256 price) public view returns(uint256) {\r\n        return price - calculateFee(price);\r\n    }\r\n\r\n    //   \r\n    function isOnSale(uint256 tokenId) public view returns(bool) {\r\n        return (_tokensOnSale[tokenId] != 0);\r\n        //  true  false\r\n    }\r\n\r\n    //   ()\r\n    function _countOnSale() private view returns(uint256) {\r\n        uint256 count;\r\n\r\n        for(uint tokenId = 1; tokenId <= Token.totalSupply(); tokenId++) {\r\n            if(isOnSale(tokenId)) count ++;\r\n        }\r\n\r\n        return count;\r\n    }\r\n\r\n    //   ( )\r\n    function onSaleList() external view returns(uint256[] memory){\r\n        uint256[] memory tokensOnSale = new uint256[](_countOnSale()); //  \r\n        uint256 index = 0;\r\n\r\n        for(uint tokenId = 1; tokenId <= Token.totalSupply(); tokenId++) {\r\n            if(isOnSale(tokenId)) {\r\n                tokensOnSale[index] = tokenId;\r\n                index ++;\r\n            }\r\n        }\r\n\r\n        return tokensOnSale;\r\n    }\r\n\r\n    //    ( )\r\n    function priceOfOnSale(uint256 tokenId) public view  returns(uint256)  {\r\n        require(_tokensOnSale[tokenId] > 0, \"this token is not on sale\");\r\n        return _tokensOnSale[tokenId];\r\n        //  0  (   )\r\n    }  \r\n\r\n    // ( )\r\n    function registerForSale(uint256 tokenId, uint256 price) external {\r\n        require(Token.ownerOf(tokenId) == msg.sender, \"caller is not owner\");\r\n        require(price > 0, \"price must be greater than zero\");\r\n        require(!isOnAuction(tokenId), \"this token is on auction\"); //   \r\n        //  Nft  setApprovalForAll(address operator, bool approved)\r\n        //  operator  CA   .\r\n        require(Token.isApprovedForAll(msg.sender, address(this)));\r\n\r\n        _tokensOnSale[tokenId] = price;\r\n    }\r\n\r\n    //  ( )\r\n    function cancleSale(uint256 tokenId) public {\r\n        require(Token.ownerOf(tokenId) == msg.sender, \"caller is not owner\");\r\n        require(_tokensOnSale[tokenId] > 0, \"this token is not on sale\");\r\n        _tokensOnSale[tokenId] = 0; //  0    \r\n        // Token.setApprovalForAll(address(this), false); // approve   \r\n        //    require operater != msg.sender   \r\n        //    CA  ...\r\n        //       setApprovalForAll(  CA, false)  .\r\n        //          ,\r\n    }\r\n\r\n    // ( )\r\n    function purchase(uint256 tokenId) external payable {\r\n        uint256 price = _tokensOnSale[tokenId];\r\n        address tokenOwner = Token.ownerOf(tokenId);\r\n\r\n        require(tokenOwner != msg.sender, \"owner cannot buy owns\");\r\n        require(price > 0, \"this nft is not on sale\");\r\n        require(msg.value == price, \"payment dosen't match\");\r\n        //   transferFrom    \r\n        //            ?\r\n\r\n        uint256 incomeAfterFee = afterFee(price);\r\n        (bool success, ) = tokenOwner.call{value: incomeAfterFee}(\"\");\r\n        require(success, \"payment failed\");\r\n\r\n        Token.safeTransferFrom(tokenOwner, msg.sender, tokenId);\r\n        //      cancleSale \r\n        // require(Token.ownerOf(tokenId) == msg.sender, \"caller is not owner\");   .\r\n        cancleSale(tokenId);\r\n    }\r\n\r\n\r\n    //    ( )\r\n    function _countOnAuction() private view returns(uint256) {\r\n        uint256 count;\r\n\r\n        for(uint tokenId = 1; tokenId <= Token.totalSupply(); tokenId++) {\r\n            if(isOnAuction(tokenId)) {\r\n                count ++;\r\n            }\r\n            // endTime  block.timestamp    .\r\n        }\r\n\r\n        return count;\r\n    }\r\n\r\n    //    ( )\r\n    function onAuctionList() public view returns(uint256[] memory){\r\n        uint256[] memory tokensOnAuction = new uint256[](_countOnAuction()); //  \r\n        uint256 index = 0;\r\n\r\n        for(uint tokenId = 1; tokenId <= Token.totalSupply(); tokenId++) {\r\n            if(isOnAuction(tokenId)) {\r\n                tokensOnAuction[index] = tokenId;\r\n                index ++;\r\n            } \r\n            // endTime  block.timestamp    .\r\n        }\r\n\r\n        return tokensOnAuction;\r\n    }\r\n\r\n    //    ()\r\n    function dataOfOnAuction(uint256 tokenId) public view returns(AuctionInfo memory){\r\n        require(_tokensOnAuction[tokenId].endTime > block.timestamp, \"this token is not on Auction\");\r\n        return _tokensOnAuction[tokenId];\r\n    }\r\n\r\n    //   \r\n    function isOnAuction(uint256 tokenId) public view returns(bool) {\r\n        return (_tokensOnAuction[tokenId].endTime > block.timestamp);\r\n        //     true\r\n    }\r\n\r\n    // ()\r\n    function registerForAuction(uint256 tokenId, uint256 minimumPrice, uint256 lastingMinutes) external {\r\n        require(Token.ownerOf(tokenId) == msg.sender, \"caller is not owner\");\r\n        require(minimumPrice >= 0.001 ether, \"minimumPrice must be greater thans 0.001 ether\"); //     \r\n        require(!isOnSale(tokenId), \"this token is already on Sale\"); //    \r\n        require(_tokensOnAuction[tokenId].endTime < block.timestamp, \"this token is already on auction\"); //   \r\n        //  Nft   setApprovalForAll(address operator, bool approved)\r\n        //  operator   CA    .\r\n        require(Token.isApprovedForAll(msg.sender, address(this)), \"not approved\");\r\n\r\n        uint256 endTime = block.timestamp + lastingMinutes * 60;\r\n\r\n        _tokensOnAuction[tokenId] = AuctionInfo(minimumPrice, endTime, address(0)); //      address(0) \r\n\r\n        emit RegisterForAuction(tokenId);\r\n    }\r\n\r\n    //  ()\r\n    function bidOnAcution(uint256 tokenId) external payable {\r\n        uint256 lastBidPrice = _tokensOnAuction[tokenId].lastBidPrice;\r\n        uint256 endTime = _tokensOnAuction[tokenId].endTime;\r\n        address bider = _tokensOnAuction[tokenId].bider;\r\n        // {uint256 lastBidPrice, uint256 endTime, address bider} = _tokensOnAuction[tokenId];\r\n\r\n        require(block.timestamp < endTime, \"this acution ended\"); //   \r\n        require(Token.ownerOf(tokenId) != msg.sender, \"owner cannot bid on owns\"); //   \r\n        require(lastBidPrice > 0 , \"this token is not on auction\"); //  \r\n        require(msg.value > lastBidPrice, \"bid must be greater than last bid\"); //     \r\n        require((msg.value - lastBidPrice) % 0.001 ether == 0, \"\"); //  0.001 \r\n\r\n        if(bider != address(0)) { //   \r\n            _refundBid(tokenId ,bider ,lastBidPrice); //  \r\n        }\r\n\r\n        _tokensOnAuction[tokenId].lastBidPrice = msg.value;\r\n        _tokensOnAuction[tokenId].bider = msg.sender;\r\n\r\n        emit BidOnAuction(tokenId, msg.value , bider);\r\n    }\r\n\r\n    //   ()\r\n    function _refundBid(uint256 tokenId ,address to, uint256 bidPrice) private {\r\n        // payable(to).transfer(bidPrice);\r\n        (bool success, ) = to.call{value: bidPrice}(\"\");\r\n        require(success, \"refund failed\");\r\n\r\n        emit RefundBid(tokenId, to);\r\n    }   \r\n\r\n    //   (  )\r\n    function cancleFailedAuction(uint tokenId) external {\r\n        //   endTime  block.timestamp     \r\n        //      \r\n        //         \r\n\r\n        //   approve  ?\r\n\r\n        // uint256 lastBidPrice = _tokensOnAuction[tokenId].lastBidPrice;\r\n        // uint256 endTime = _tokensOnAuction[tokenId].endTime;\r\n        // address bider = _tokensOnAuction[tokenId].bider;\r\n\r\n        // require(endTime > block.timestamp, \"auction not ended yet\"); //  \r\n        // require(lastBidPrice > 0, \"acution already ended\"); //   \r\n    }\r\n\r\n    //  (NFT)  ()\r\n    //    \r\n    //    .\r\n    function claimMatchedAuction(uint256 tokenId) external {\r\n        uint256 endTime = _tokensOnAuction[tokenId].endTime;\r\n        uint256 lastBidPrice = _tokensOnAuction[tokenId].lastBidPrice;\r\n        address bider = _tokensOnAuction[tokenId].bider;\r\n        address tokenOwner = Token.ownerOf(tokenId);\r\n\r\n        require(endTime < block.timestamp, \"auction not ended\");\r\n        require(lastBidPrice != 0, \"this token did not registered on auction\");\r\n        require(bider != address(0), \"already claimed or failed auction\");\r\n        require(msg.sender == bider || msg.sender == tokenOwner , \"caller is not highest bider nor seller\");\r\n\r\n        //    \r\n        uint256 incomeAfterFee = afterFee(lastBidPrice);\r\n        (bool success, ) = tokenOwner.call{value: incomeAfterFee}(\"\");\r\n        require(success, \"payment failed\");\r\n\r\n        //   \r\n        Token.safeTransferFrom(tokenOwner, bider, tokenId); //    \r\n        _tokensOnAuction[tokenId].bider = address(0); \r\n        // _tokensOnAuction[tokenId].lastBidPrice = 0; //  \r\n        // _tokensOnAuction[tokenId].endTime = 0; //  endTime   block.timestamp   \r\n\r\n        emit ClaimMatchedAuction(tokenId, msg.sender); //      \r\n    }\r\n\r\n    //   \r\n    function isNeedToClaim(uint256 tokenId) public view returns(bool){\r\n        uint256 endTime = _tokensOnAuction[tokenId].endTime;\r\n        address bider = _tokensOnAuction[tokenId].bider;\r\n\r\n        return(bider != address(0) && endTime < block.timestamp);\r\n        //  true  false\r\n        //  bider address(0) \r\n        //   bider address(0)    .\r\n        //    bider  address(0) \r\n        //             .\r\n    }\r\n\r\n    //    \r\n    function _countNotClaimedAuction() private view returns(uint256) {\r\n        uint256 count;\r\n\r\n        for(uint tokenId = 1; tokenId <= Token.totalSupply(); tokenId++) {\r\n            if(isNeedToClaim(tokenId)) {\r\n                count ++;\r\n            } \r\n        }\r\n\r\n        return count;\r\n    }\r\n\r\n    //    \r\n    function notClaimedAuctionList() public view returns(uint256[] memory){\r\n        uint256[] memory tokensNotClaimedOnAuction = new uint256[](_countNotClaimedAuction()); //  \r\n        uint256 index = 0;\r\n\r\n        for(uint tokenId = 1; tokenId <= Token.totalSupply(); tokenId++) {\r\n            if(isNeedToClaim(tokenId)) {\r\n                tokensNotClaimedOnAuction[index] = tokenId;\r\n                index ++;\r\n            } \r\n        }\r\n\r\n        return tokensNotClaimedOnAuction;\r\n    }\r\n\r\n\r\n    //  (  ) ( )\r\n    function _countOnBid(address owner) private view returns(uint256) {\r\n        uint256 count = 0;\r\n        uint256 countOnAuction = _countOnAuction();\r\n        uint256[] memory listOnAuction = onAuctionList();\r\n\r\n        for(uint i = 0; i < countOnAuction; i++) {\r\n            uint256 tokenId = listOnAuction[i];\r\n            if(_tokensOnAuction[tokenId].bider == owner) {\r\n                count ++;\r\n            } \r\n        }\r\n        return count;\r\n    }\r\n\r\n    //  (  )  ( )\r\n    function onBidList(address owner) external view returns(uint256[] memory){\r\n        uint256[] memory tokensOnBid = new uint256[](_countOnBid(owner)); //  \r\n        uint256 countOnAuction = _countOnAuction();\r\n        uint256[] memory listOnAuction = onAuctionList();\r\n        uint256 index = 0;\r\n\r\n        for(uint i = 0; i < countOnAuction; i++){\r\n            uint256 tokenId = listOnAuction[i];\r\n            if(_tokensOnAuction[tokenId].bider == owner){\r\n                tokensOnBid[index] = tokenId;\r\n                index ++;\r\n            }\r\n        }\r\n        return tokensOnBid;\r\n    }\r\n\r\n    //      \r\n    function feeOfMatchedAuctionToken(uint256 tokenId) public view returns(uint256) {\r\n        uint256 lastBidPrice = _tokensOnAuction[tokenId].lastBidPrice;\r\n        return calculateFee(lastBidPrice);\r\n    }\r\n\r\n    //   ()  \r\n    function afterFeeOfNotClaimedToken(uint256 tokenId) public view returns (uint256) {\r\n        uint256 lastBidPrice = _tokensOnAuction[tokenId].lastBidPrice;\r\n        return lastBidPrice - feeOfMatchedAuctionToken(tokenId);\r\n    }\r\n\r\n    //    ( )\r\n    function _notClaimedMoney() private view returns(uint256) {\r\n        uint256[] memory tokensNotClaimedOnAuction = notClaimedAuctionList();\r\n        uint256 notClaimedMoney;\r\n\r\n        for (uint i = 0; i < tokensNotClaimedOnAuction.length; i++ ) {\r\n            uint256 tokenId = tokensNotClaimedOnAuction[i];\r\n            uint256 lastBidPrice = _tokensOnAuction[tokenId].lastBidPrice;\r\n            uint256 priceAfterFee = afterFee(lastBidPrice);\r\n            notClaimedMoney += priceAfterFee;\r\n        }\r\n\r\n        return notClaimedMoney;\r\n    }\r\n\r\n\r\n    //  \r\n    function withdrawFees() external onlyOwner {\r\n        //              \r\n        uint256 notClaimedMoney = _notClaimedMoney();\r\n        uint256 balanceExceptNotClaimedMoney = address(this).balance - notClaimedMoney;\r\n\r\n        require(balanceExceptNotClaimedMoney > 0, \"balance without notClaimedMoney is zero\");\r\n\r\n        (bool success, ) = msg.sender.call{value: balanceExceptNotClaimedMoney}(\"\");\r\n        require(success, \"withdraw failed\");\r\n    }\r\n\r\n}\r\n\r\n",
  "sourcePath": "C:\\Users\\Administrator\\Desktop\\nftP\\blockChain\\contracts\\TestTrade.sol",
  "compiler": {
    "name": "solc",
    "version": "0.8.17+commit.8df45f5f.Emscripten.clang"
  },
  "schemaVersion": "3.4.11",
  "updatedAt": "2022-12-25T12:16:21.168Z",
  "networkType": "ethereum",
  "devdoc": {
    "kind": "dev",
    "methods": {
      "owner()": {
        "details": "Returns the address of the current owner."
      },
      "renounceOwnership()": {
        "details": "Leaves the contract without owner. It will not be possible to call `onlyOwner` functions anymore. Can only be called by the current owner. NOTE: Renouncing ownership will leave the contract without an owner, thereby removing any functionality that is only available to the owner."
      },
      "transferOwnership(address)": {
        "details": "Transfers ownership of the contract to a new account (`newOwner`). Can only be called by the current owner."
      }
    },
    "version": 1
  },
  "userdoc": {
    "kind": "user",
    "methods": {},
    "version": 1
  }
}