{
  "contractName": "TestTrade",
  "abi": [
    {
      "inputs": [
        {
          "internalType": "address",
          "name": "tokenAddress_",
          "type": "address"
        }
      ],
      "stateMutability": "nonpayable",
      "type": "constructor"
    },
    {
      "anonymous": false,
      "inputs": [
        {
          "indexed": false,
          "internalType": "uint256",
          "name": "tokenId",
          "type": "uint256"
        },
        {
          "indexed": false,
          "internalType": "uint256",
          "name": "bidPrice",
          "type": "uint256"
        },
        {
          "indexed": false,
          "internalType": "address",
          "name": "bider",
          "type": "address"
        }
      ],
      "name": "BidOnAuction",
      "type": "event"
    },
    {
      "anonymous": false,
      "inputs": [
        {
          "indexed": false,
          "internalType": "uint256",
          "name": "tokenId",
          "type": "uint256"
        },
        {
          "indexed": false,
          "internalType": "address",
          "name": "caller",
          "type": "address"
        }
      ],
      "name": "ClaimMatchedAuction",
      "type": "event"
    },
    {
      "anonymous": false,
      "inputs": [
        {
          "indexed": true,
          "internalType": "address",
          "name": "previousOwner",
          "type": "address"
        },
        {
          "indexed": true,
          "internalType": "address",
          "name": "newOwner",
          "type": "address"
        }
      ],
      "name": "OwnershipTransferred",
      "type": "event"
    },
    {
      "anonymous": false,
      "inputs": [
        {
          "indexed": false,
          "internalType": "uint256",
          "name": "tokenId",
          "type": "uint256"
        },
        {
          "indexed": false,
          "internalType": "address",
          "name": "failedBider",
          "type": "address"
        }
      ],
      "name": "RefundBid",
      "type": "event"
    },
    {
      "anonymous": false,
      "inputs": [
        {
          "indexed": false,
          "internalType": "uint256",
          "name": "tokenId",
          "type": "uint256"
        }
      ],
      "name": "RegisterForAuction",
      "type": "event"
    },
    {
      "inputs": [],
      "name": "Token",
      "outputs": [
        {
          "internalType": "contract TestToken",
          "name": "",
          "type": "address"
        }
      ],
      "stateMutability": "view",
      "type": "function",
      "constant": true
    },
    {
      "inputs": [],
      "name": "owner",
      "outputs": [
        {
          "internalType": "address",
          "name": "",
          "type": "address"
        }
      ],
      "stateMutability": "view",
      "type": "function",
      "constant": true
    },
    {
      "inputs": [],
      "name": "renounceOwnership",
      "outputs": [],
      "stateMutability": "nonpayable",
      "type": "function"
    },
    {
      "inputs": [],
      "name": "saleFeeRate",
      "outputs": [
        {
          "internalType": "uint256",
          "name": "",
          "type": "uint256"
        }
      ],
      "stateMutability": "view",
      "type": "function",
      "constant": true
    },
    {
      "inputs": [
        {
          "internalType": "address",
          "name": "newOwner",
          "type": "address"
        }
      ],
      "name": "transferOwnership",
      "outputs": [],
      "stateMutability": "nonpayable",
      "type": "function"
    },
    {
      "inputs": [],
      "name": "getCA",
      "outputs": [
        {
          "internalType": "address",
          "name": "",
          "type": "address"
        }
      ],
      "stateMutability": "view",
      "type": "function",
      "constant": true
    },
    {
      "inputs": [
        {
          "internalType": "uint256",
          "name": "rate",
          "type": "uint256"
        }
      ],
      "name": "setSaleFeeRate",
      "outputs": [],
      "stateMutability": "nonpayable",
      "type": "function"
    },
    {
      "inputs": [
        {
          "internalType": "uint256",
          "name": "price",
          "type": "uint256"
        }
      ],
      "name": "calculateFee",
      "outputs": [
        {
          "internalType": "uint256",
          "name": "",
          "type": "uint256"
        }
      ],
      "stateMutability": "view",
      "type": "function",
      "constant": true
    },
    {
      "inputs": [
        {
          "internalType": "uint256",
          "name": "price",
          "type": "uint256"
        }
      ],
      "name": "afterFee",
      "outputs": [
        {
          "internalType": "uint256",
          "name": "",
          "type": "uint256"
        }
      ],
      "stateMutability": "view",
      "type": "function",
      "constant": true
    },
    {
      "inputs": [
        {
          "internalType": "uint256",
          "name": "tokenId",
          "type": "uint256"
        }
      ],
      "name": "isOnSale",
      "outputs": [
        {
          "internalType": "bool",
          "name": "",
          "type": "bool"
        }
      ],
      "stateMutability": "view",
      "type": "function",
      "constant": true
    },
    {
      "inputs": [],
      "name": "onSaleList",
      "outputs": [
        {
          "internalType": "uint256[]",
          "name": "",
          "type": "uint256[]"
        }
      ],
      "stateMutability": "view",
      "type": "function",
      "constant": true
    },
    {
      "inputs": [
        {
          "internalType": "uint256",
          "name": "tokenId",
          "type": "uint256"
        }
      ],
      "name": "priceOfOnSale",
      "outputs": [
        {
          "internalType": "uint256",
          "name": "",
          "type": "uint256"
        }
      ],
      "stateMutability": "view",
      "type": "function",
      "constant": true
    },
    {
      "inputs": [
        {
          "internalType": "uint256",
          "name": "tokenId",
          "type": "uint256"
        },
        {
          "internalType": "uint256",
          "name": "price",
          "type": "uint256"
        }
      ],
      "name": "registerForSale",
      "outputs": [],
      "stateMutability": "nonpayable",
      "type": "function"
    },
    {
      "inputs": [
        {
          "internalType": "uint256",
          "name": "tokenId",
          "type": "uint256"
        }
      ],
      "name": "cancleSale",
      "outputs": [],
      "stateMutability": "nonpayable",
      "type": "function"
    },
    {
      "inputs": [
        {
          "internalType": "uint256",
          "name": "tokenId",
          "type": "uint256"
        }
      ],
      "name": "purchase",
      "outputs": [],
      "stateMutability": "payable",
      "type": "function",
      "payable": true
    },
    {
      "inputs": [],
      "name": "onAuctionList",
      "outputs": [
        {
          "internalType": "uint256[]",
          "name": "",
          "type": "uint256[]"
        }
      ],
      "stateMutability": "view",
      "type": "function",
      "constant": true
    },
    {
      "inputs": [
        {
          "internalType": "uint256",
          "name": "tokenId",
          "type": "uint256"
        }
      ],
      "name": "dataOfOnAuction",
      "outputs": [
        {
          "components": [
            {
              "internalType": "uint256",
              "name": "lastBidPrice",
              "type": "uint256"
            },
            {
              "internalType": "uint256",
              "name": "endTime",
              "type": "uint256"
            },
            {
              "internalType": "address",
              "name": "bider",
              "type": "address"
            }
          ],
          "internalType": "struct TestTrade.AuctionInfo",
          "name": "",
          "type": "tuple"
        }
      ],
      "stateMutability": "view",
      "type": "function",
      "constant": true
    },
    {
      "inputs": [
        {
          "internalType": "uint256",
          "name": "tokenId",
          "type": "uint256"
        }
      ],
      "name": "isOnAuction",
      "outputs": [
        {
          "internalType": "bool",
          "name": "",
          "type": "bool"
        }
      ],
      "stateMutability": "view",
      "type": "function",
      "constant": true
    },
    {
      "inputs": [
        {
          "internalType": "uint256",
          "name": "tokenId",
          "type": "uint256"
        },
        {
          "internalType": "uint256",
          "name": "minimumPrice",
          "type": "uint256"
        },
        {
          "internalType": "uint256",
          "name": "lastingMinutes",
          "type": "uint256"
        }
      ],
      "name": "registerForAuction",
      "outputs": [],
      "stateMutability": "nonpayable",
      "type": "function"
    },
    {
      "inputs": [
        {
          "internalType": "uint256",
          "name": "tokenId",
          "type": "uint256"
        }
      ],
      "name": "bidOnAcution",
      "outputs": [],
      "stateMutability": "payable",
      "type": "function",
      "payable": true
    },
    {
      "inputs": [
        {
          "internalType": "uint256",
          "name": "tokenId",
          "type": "uint256"
        }
      ],
      "name": "cancleFailedAuction",
      "outputs": [],
      "stateMutability": "nonpayable",
      "type": "function"
    },
    {
      "inputs": [
        {
          "internalType": "uint256",
          "name": "tokenId",
          "type": "uint256"
        }
      ],
      "name": "claimMatchedAuction",
      "outputs": [],
      "stateMutability": "nonpayable",
      "type": "function"
    },
    {
      "inputs": [
        {
          "internalType": "uint256",
          "name": "tokenId",
          "type": "uint256"
        }
      ],
      "name": "isNeedToClaim",
      "outputs": [
        {
          "internalType": "bool",
          "name": "",
          "type": "bool"
        }
      ],
      "stateMutability": "view",
      "type": "function",
      "constant": true
    },
    {
      "inputs": [],
      "name": "notClaimedAuctionList",
      "outputs": [
        {
          "internalType": "uint256[]",
          "name": "",
          "type": "uint256[]"
        }
      ],
      "stateMutability": "view",
      "type": "function",
      "constant": true
    },
    {
      "inputs": [
        {
          "internalType": "address",
          "name": "owner",
          "type": "address"
        }
      ],
      "name": "_countNotClaimedTokenOfBider",
      "outputs": [
        {
          "internalType": "uint256",
          "name": "",
          "type": "uint256"
        }
      ],
      "stateMutability": "view",
      "type": "function",
      "constant": true
    },
    {
      "inputs": [
        {
          "internalType": "address",
          "name": "owner",
          "type": "address"
        }
      ],
      "name": "notClaimedTokensOfBiderList",
      "outputs": [
        {
          "internalType": "uint256[]",
          "name": "",
          "type": "uint256[]"
        }
      ],
      "stateMutability": "view",
      "type": "function",
      "constant": true
    },
    {
      "inputs": [
        {
          "internalType": "address",
          "name": "owner",
          "type": "address"
        }
      ],
      "name": "onBidList",
      "outputs": [
        {
          "internalType": "uint256[]",
          "name": "",
          "type": "uint256[]"
        }
      ],
      "stateMutability": "view",
      "type": "function",
      "constant": true
    },
    {
      "inputs": [
        {
          "internalType": "uint256",
          "name": "tokenId",
          "type": "uint256"
        }
      ],
      "name": "feeOfMatchedAuctionToken",
      "outputs": [
        {
          "internalType": "uint256",
          "name": "",
          "type": "uint256"
        }
      ],
      "stateMutability": "view",
      "type": "function",
      "constant": true
    },
    {
      "inputs": [
        {
          "internalType": "uint256",
          "name": "tokenId",
          "type": "uint256"
        }
      ],
      "name": "afterFeeOfNotClaimedToken",
      "outputs": [
        {
          "internalType": "uint256",
          "name": "",
          "type": "uint256"
        }
      ],
      "stateMutability": "view",
      "type": "function",
      "constant": true
    },
    {
      "inputs": [],
      "name": "withdrawFees",
      "outputs": [],
      "stateMutability": "nonpayable",
      "type": "function"
    }
  ],
  "bytecode": "0x608060405260056002553480156200001657600080fd5b50604051620042af380380620042af83398181016040528101906200003c9190620001da565b6200005c62000050620000a460201b60201c565b620000ac60201b60201c565b80600160006101000a81548173ffffffffffffffffffffffffffffffffffffffff021916908373ffffffffffffffffffffffffffffffffffffffff160217905550506200020c565b600033905090565b60008060009054906101000a900473ffffffffffffffffffffffffffffffffffffffff169050816000806101000a81548173ffffffffffffffffffffffffffffffffffffffff021916908373ffffffffffffffffffffffffffffffffffffffff1602179055508173ffffffffffffffffffffffffffffffffffffffff168173ffffffffffffffffffffffffffffffffffffffff167f8be0079c531659141344cd1fd0a4f28419497f9722a3daafe3b4186f6b6457e060405160405180910390a35050565b600080fd5b600073ffffffffffffffffffffffffffffffffffffffff82169050919050565b6000620001a28262000175565b9050919050565b620001b48162000195565b8114620001c057600080fd5b50565b600081519050620001d481620001a9565b92915050565b600060208284031215620001f357620001f262000170565b5b60006200020384828501620001c3565b91505092915050565b614093806200021c6000396000f3fe6080604052600436106101cd5760003560e01c806386cd9b83116100f7578063e9498c3511610095578063f2fde38b11610064578063f2fde38b146106a4578063f5c6a2cf146106cd578063f832bae1146106f8578063fd8cf88814610735576101cd565b8063e9498c35146105e5578063efef39a114610622578063f06d0a821461063e578063f0f2805f14610667576101cd565b8063c2412676116100d1578063c24126761461054c578063cee64c6514610577578063d43115c3146105a0578063e033c229146105c9576101cd565b806386cd9b83146104a75780638da5cb5b146104e457806399a5d7471461050f576101cd565b8063476343ee1161016f5780635870ea5e1161013e5780635870ea5e1461041157806366066c771461043c578063715018a61461046757806382ef5ee51461047e576101cd565b8063476343ee1461035557806347bee9ba1461036c5780634a5c46ed146103a95780635255f0d6146103d4576101cd565b80632afc9511116101ab5780632afc95111461028957806337e246ad146102b25780633a1cff7f146102ef5780633daa93b314610318576101cd565b8063082a621c146101d25780630957c2d91461020f57806317e2bbf61461024c575b600080fd5b3480156101de57600080fd5b506101f960048036038101906101f49190612ce5565b610760565b6040516102069190612d21565b60405180910390f35b34801561021b57600080fd5b5061023660048036038101906102319190612d9a565b610798565b6040516102439190612e85565b60405180910390f35b34801561025857600080fd5b50610273600480360381019061026e9190612d9a565b6108eb565b6040516102809190612d21565b60405180910390f35b34801561029557600080fd5b506102b060048036038101906102ab9190612ce5565b6109cc565b005b3480156102be57600080fd5b506102d960048036038101906102d49190612ce5565b610e57565b6040516102e69190612ec2565b60405180910390f35b3480156102fb57600080fd5b5061031660048036038101906103119190612ce5565b610e79565b005b34801561032457600080fd5b5061033f600480360381019061033a9190612d9a565b610e8b565b60405161034c9190612e85565b60405180910390f35b34801561036157600080fd5b5061036a610fde565b005b34801561037857600080fd5b50610393600480360381019061038e9190612ce5565b6110f6565b6040516103a09190612ec2565b60405180910390f35b3480156103b557600080fd5b506103be611192565b6040516103cb9190612d21565b60405180910390f35b3480156103e057600080fd5b506103fb60048036038101906103f69190612ce5565b611198565b6040516104089190612f2e565b60405180910390f35b34801561041d57600080fd5b5061042661122f565b6040516104339190612e85565b60405180910390f35b34801561044857600080fd5b5061045161137d565b60405161045e9190612e85565b60405180910390f35b34801561047357600080fd5b5061047c6114cb565b005b34801561048a57600080fd5b506104a560048036038101906104a09190612f49565b6114df565b005b3480156104b357600080fd5b506104ce60048036038101906104c99190612ce5565b611737565b6040516104db9190612d21565b60405180910390f35b3480156104f057600080fd5b506104f96117a9565b6040516105069190612f98565b60405180910390f35b34801561051b57600080fd5b5061053660048036038101906105319190612ce5565b6117d2565b6040516105439190612d21565b60405180910390f35b34801561055857600080fd5b506105616117f5565b60405161056e9190613012565b60405180910390f35b34801561058357600080fd5b5061059e6004803603810190610599919061302d565b61181b565b005b3480156105ac57600080fd5b506105c760048036038101906105c29190612ce5565b611be8565b005b6105e360048036038101906105de9190612ce5565b611beb565b005b3480156105f157600080fd5b5061060c60048036038101906106079190612ce5565b611f7d565b6040516106199190612d21565b60405180910390f35b61063c60048036038101906106379190612ce5565b611f9a565b005b34801561064a57600080fd5b5061066560048036038101906106609190612ce5565b61229f565b005b34801561067357600080fd5b5061068e60048036038101906106899190612ce5565b61241a565b60405161069b9190612ec2565b60405180910390f35b3480156106b057600080fd5b506106cb60048036038101906106c69190612d9a565b61243a565b005b3480156106d957600080fd5b506106e26124bd565b6040516106ef9190612e85565b60405180910390f35b34801561070457600080fd5b5061071f600480360381019061071a9190612ce5565b61260b565b60405161072c9190612d21565b60405180910390f35b34801561074157600080fd5b5061074a612638565b6040516107579190612f98565b60405180910390f35b600080600460008481526020019081526020016000206000015490506107858361260b565b8161079091906130af565b915050919050565b606060006107a583612640565b67ffffffffffffffff8111156107be576107bd6130e3565b5b6040519080825280602002602001820160405280156107ec5781602001602082028036833780820191505090505b50905060006107f9612721565b9050600061080561137d565b90506000805b838110156108de57600083828151811061082857610827613112565b5b602002602001015190508773ffffffffffffffffffffffffffffffffffffffff166004600083815260200190815260200160002060020160009054906101000a900473ffffffffffffffffffffffffffffffffffffffff1673ffffffffffffffffffffffffffffffffffffffff16036108ca57808684815181106108af576108ae613112565b5b60200260200101818152505082806108c690613141565b9350505b5080806108d690613141565b91505061080b565b5083945050505050919050565b6000806000905060006108fc6127fa565b9050600061090861122f565b905060005b828110156109c057600082828151811061092a57610929613112565b5b602002602001015190508673ffffffffffffffffffffffffffffffffffffffff166004600083815260200190815260200160002060020160009054906101000a900473ffffffffffffffffffffffffffffffffffffffff1673ffffffffffffffffffffffffffffffffffffffff16036109ac5784806109a890613141565b9550505b5080806109b890613141565b91505061090d565b50829350505050919050565b60006004600083815260200190815260200160002060010154905060006004600084815260200190815260200160002060000154905060006004600085815260200190815260200160002060020160009054906101000a900473ffffffffffffffffffffffffffffffffffffffff1690506000600160009054906101000a900473ffffffffffffffffffffffffffffffffffffffff1673ffffffffffffffffffffffffffffffffffffffff16636352211e866040518263ffffffff1660e01b8152600401610a9a9190612d21565b602060405180830381865afa158015610ab7573d6000803e3d6000fd5b505050506040513d601f19601f82011682018060405250810190610adb919061319e565b9050428410610b1f576040517f08c379a0000000000000000000000000000000000000000000000000000000008152600401610b1690613228565b60405180910390fd5b60008303610b62576040517f08c379a0000000000000000000000000000000000000000000000000000000008152600401610b59906132ba565b60405180910390fd5b600073ffffffffffffffffffffffffffffffffffffffff168273ffffffffffffffffffffffffffffffffffffffff1603610bd1576040517f08c379a0000000000000000000000000000000000000000000000000000000008152600401610bc89061334c565b60405180910390fd5b8173ffffffffffffffffffffffffffffffffffffffff163373ffffffffffffffffffffffffffffffffffffffff161480610c3657508073ffffffffffffffffffffffffffffffffffffffff163373ffffffffffffffffffffffffffffffffffffffff16145b610c75576040517f08c379a0000000000000000000000000000000000000000000000000000000008152600401610c6c906133de565b60405180910390fd5b6000610c8084611f7d565b905060008273ffffffffffffffffffffffffffffffffffffffff1682604051610ca89061342f565b60006040518083038185875af1925050503d8060008114610ce5576040519150601f19603f3d011682016040523d82523d6000602084013e610cea565b606091505b5050905080610d2e576040517f08c379a0000000000000000000000000000000000000000000000000000000008152600401610d2590613490565b60405180910390fd5b600160009054906101000a900473ffffffffffffffffffffffffffffffffffffffff1673ffffffffffffffffffffffffffffffffffffffff166342842e0e84868a6040518463ffffffff1660e01b8152600401610d8d939291906134b0565b600060405180830381600087803b158015610da757600080fd5b505af1158015610dbb573d6000803e3d6000fd5b5050505060006004600089815260200190815260200160002060020160006101000a81548173ffffffffffffffffffffffffffffffffffffffff021916908373ffffffffffffffffffffffffffffffffffffffff1602179055507f1b8a46b4ba92d15058e2a028d473fc5037835f1f8466a1a4a538634ac081d1548733604051610e469291906134e7565b60405180910390a150505050505050565b6000426004600084815260200190815260200160002060010154119050919050565b610e816128d3565b8060028190555050565b60606000610e98836108eb565b67ffffffffffffffff811115610eb157610eb06130e3565b5b604051908082528060200260200182016040528015610edf5781602001602082028036833780820191505090505b5090506000610eec61122f565b90506000610ef86127fa565b90506000805b82811015610fd1576000848281518110610f1b57610f1a613112565b5b602002602001015190508773ffffffffffffffffffffffffffffffffffffffff166004600083815260200190815260200160002060020160009054906101000a900473ffffffffffffffffffffffffffffffffffffffff1673ffffffffffffffffffffffffffffffffffffffff1603610fbd5780868481518110610fa257610fa1613112565b5b6020026020010181815250508280610fb990613141565b9350505b508080610fc990613141565b915050610efe565b5083945050505050919050565b610fe66128d3565b6000610ff0612951565b90506000814761100091906130af565b905060008111611045576040517f08c379a000000000000000000000000000000000000000000000000000000000815260040161103c90613582565b60405180910390fd5b60003373ffffffffffffffffffffffffffffffffffffffff168260405161106b9061342f565b60006040518083038185875af1925050503d80600081146110a8576040519150601f19603f3d011682016040523d82523d6000602084013e6110ad565b606091505b50509050806110f1576040517f08c379a00000000000000000000000000000000000000000000000000000000081526004016110e8906135ee565b60405180910390fd5b505050565b6000806004600084815260200190815260200160002060010154905060006004600085815260200190815260200160002060020160009054906101000a900473ffffffffffffffffffffffffffffffffffffffff169050600073ffffffffffffffffffffffffffffffffffffffff168173ffffffffffffffffffffffffffffffffffffffff161415801561118957504282105b92505050919050565b60025481565b6111a0612c73565b6004600083815260200190815260200160002060405180606001604052908160008201548152602001600182015481526020016002820160009054906101000a900473ffffffffffffffffffffffffffffffffffffffff1673ffffffffffffffffffffffffffffffffffffffff1673ffffffffffffffffffffffffffffffffffffffff16815250509050919050565b6060600061123b6127fa565b67ffffffffffffffff811115611254576112536130e3565b5b6040519080825280602002602001820160405280156112825781602001602082028036833780820191505090505b509050600080600190505b600160009054906101000a900473ffffffffffffffffffffffffffffffffffffffff1673ffffffffffffffffffffffffffffffffffffffff166318160ddd6040518163ffffffff1660e01b8152600401602060405180830381865afa1580156112fa573d6000803e3d6000fd5b505050506040513d601f19601f8201168201806040525081019061131e9190613623565b81116113745761132d816110f6565b15611361578083838151811061134657611345613112565b5b602002602001018181525050818061135d90613141565b9250505b808061136c90613141565b91505061128d565b50819250505090565b60606000611389612721565b67ffffffffffffffff8111156113a2576113a16130e3565b5b6040519080825280602002602001820160405280156113d05781602001602082028036833780820191505090505b509050600080600190505b600160009054906101000a900473ffffffffffffffffffffffffffffffffffffffff1673ffffffffffffffffffffffffffffffffffffffff166318160ddd6040518163ffffffff1660e01b8152600401602060405180830381865afa158015611448573d6000803e3d6000fd5b505050506040513d601f19601f8201168201806040525081019061146c9190613623565b81116114c25761147b81610e57565b156114af578083838151811061149457611493613112565b5b60200260200101818152505081806114ab90613141565b9250505b80806114ba90613141565b9150506113db565b50819250505090565b6114d36128d3565b6114dd60006129e3565b565b3373ffffffffffffffffffffffffffffffffffffffff16600160009054906101000a900473ffffffffffffffffffffffffffffffffffffffff1673ffffffffffffffffffffffffffffffffffffffff16636352211e846040518263ffffffff1660e01b81526004016115519190612d21565b602060405180830381865afa15801561156e573d6000803e3d6000fd5b505050506040513d601f19601f82011682018060405250810190611592919061319e565b73ffffffffffffffffffffffffffffffffffffffff16146115e8576040517f08c379a00000000000000000000000000000000000000000000000000000000081526004016115df9061369c565b60405180910390fd5b6000811161162b576040517f08c379a000000000000000000000000000000000000000000000000000000000815260040161162290613708565b60405180910390fd5b61163482610e57565b15611674576040517f08c379a000000000000000000000000000000000000000000000000000000000815260040161166b90613774565b60405180910390fd5b600160009054906101000a900473ffffffffffffffffffffffffffffffffffffffff1673ffffffffffffffffffffffffffffffffffffffff1663e985e9c533306040518363ffffffff1660e01b81526004016116d1929190613794565b602060405180830381865afa1580156116ee573d6000803e3d6000fd5b505050506040513d601f19601f8201168201806040525081019061171291906137e9565b61171b57600080fd5b8060036000848152602001908152602001600020819055505050565b60008060036000848152602001908152602001600020541161178e576040517f08c379a000000000000000000000000000000000000000000000000000000000815260040161178590613862565b60405180910390fd5b60036000838152602001908152602001600020549050919050565b60008060009054906101000a900473ffffffffffffffffffffffffffffffffffffffff16905090565b60006064600254836117e49190613882565b6117ee91906138f3565b9050919050565b600160009054906101000a900473ffffffffffffffffffffffffffffffffffffffff1681565b3373ffffffffffffffffffffffffffffffffffffffff16600160009054906101000a900473ffffffffffffffffffffffffffffffffffffffff1673ffffffffffffffffffffffffffffffffffffffff16636352211e856040518263ffffffff1660e01b815260040161188d9190612d21565b602060405180830381865afa1580156118aa573d6000803e3d6000fd5b505050506040513d601f19601f820116820180604052508101906118ce919061319e565b73ffffffffffffffffffffffffffffffffffffffff1614611924576040517f08c379a000000000000000000000000000000000000000000000000000000000815260040161191b9061369c565b60405180910390fd5b66038d7ea4c6800082101561196e576040517f08c379a000000000000000000000000000000000000000000000000000000000815260040161196590613996565b60405180910390fd5b6119778361241a565b156119b7576040517f08c379a00000000000000000000000000000000000000000000000000000000081526004016119ae90613a02565b60405180910390fd5b42600460008581526020019081526020016000206001015410611a0f576040517f08c379a0000000000000000000000000000000000000000000000000000000008152600401611a0690613a6e565b60405180910390fd5b600160009054906101000a900473ffffffffffffffffffffffffffffffffffffffff1673ffffffffffffffffffffffffffffffffffffffff1663e985e9c533306040518363ffffffff1660e01b8152600401611a6c929190613794565b602060405180830381865afa158015611a89573d6000803e3d6000fd5b505050506040513d601f19601f82011682018060405250810190611aad91906137e9565b611aec576040517f08c379a0000000000000000000000000000000000000000000000000000000008152600401611ae390613ada565b60405180910390fd5b6000603c82611afb9190613882565b42611b069190613afa565b90506040518060600160405280848152602001828152602001600073ffffffffffffffffffffffffffffffffffffffff1681525060046000868152602001908152602001600020600082015181600001556020820151816001015560408201518160020160006101000a81548173ffffffffffffffffffffffffffffffffffffffff021916908373ffffffffffffffffffffffffffffffffffffffff1602179055509050507f8f9bdaa92ac45cc3a1570f596a0c879e145abf5b70d2c26946e884184cd9651984604051611bda9190612d21565b60405180910390a150505050565b50565b60006004600083815260200190815260200160002060000154905060006004600084815260200190815260200160002060010154905060006004600085815260200190815260200160002060020160009054906101000a900473ffffffffffffffffffffffffffffffffffffffff169050814210611c9e576040517f08c379a0000000000000000000000000000000000000000000000000000000008152600401611c9590613b7a565b60405180910390fd5b3373ffffffffffffffffffffffffffffffffffffffff16600160009054906101000a900473ffffffffffffffffffffffffffffffffffffffff1673ffffffffffffffffffffffffffffffffffffffff16636352211e866040518263ffffffff1660e01b8152600401611d109190612d21565b602060405180830381865afa158015611d2d573d6000803e3d6000fd5b505050506040513d601f19601f82011682018060405250810190611d51919061319e565b73ffffffffffffffffffffffffffffffffffffffff1603611da7576040517f08c379a0000000000000000000000000000000000000000000000000000000008152600401611d9e90613be6565b60405180910390fd5b60008311611dea576040517f08c379a0000000000000000000000000000000000000000000000000000000008152600401611de190613c52565b60405180910390fd5b823411611e2c576040517f08c379a0000000000000000000000000000000000000000000000000000000008152600401611e2390613ce4565b60405180910390fd5b600066038d7ea4c680008434611e4291906130af565b611e4c9190613d04565b14611e8c576040517f08c379a0000000000000000000000000000000000000000000000000000000008152600401611e8390613d58565b60405180910390fd5b600073ffffffffffffffffffffffffffffffffffffffff168173ffffffffffffffffffffffffffffffffffffffff1614611ecc57611ecb848285612aa7565b5b346004600086815260200190815260200160002060000181905550336004600086815260200190815260200160002060020160006101000a81548173ffffffffffffffffffffffffffffffffffffffff021916908373ffffffffffffffffffffffffffffffffffffffff1602179055507f2e8aa4a142971e5869dd16ff8b28d697bb44ae2491e376ddaa14d601be1c0f85843433604051611f6f93929190613d78565b60405180910390a150505050565b6000611f88826117d2565b82611f9391906130af565b9050919050565b6000600360008381526020019081526020016000205490506000600160009054906101000a900473ffffffffffffffffffffffffffffffffffffffff1673ffffffffffffffffffffffffffffffffffffffff16636352211e846040518263ffffffff1660e01b815260040161200f9190612d21565b602060405180830381865afa15801561202c573d6000803e3d6000fd5b505050506040513d601f19601f82011682018060405250810190612050919061319e565b90503373ffffffffffffffffffffffffffffffffffffffff168173ffffffffffffffffffffffffffffffffffffffff16036120c0576040517f08c379a00000000000000000000000000000000000000000000000000000000081526004016120b790613dfb565b60405180910390fd5b60008211612103576040517f08c379a00000000000000000000000000000000000000000000000000000000081526004016120fa90613e67565b60405180910390fd5b813414612145576040517f08c379a000000000000000000000000000000000000000000000000000000000815260040161213c90613ed3565b60405180910390fd5b600061215083611f7d565b905060008273ffffffffffffffffffffffffffffffffffffffff16826040516121789061342f565b60006040518083038185875af1925050503d80600081146121b5576040519150601f19603f3d011682016040523d82523d6000602084013e6121ba565b606091505b50509050806121fe576040517f08c379a00000000000000000000000000000000000000000000000000000000081526004016121f590613490565b60405180910390fd5b600160009054906101000a900473ffffffffffffffffffffffffffffffffffffffff1673ffffffffffffffffffffffffffffffffffffffff166342842e0e8433886040518463ffffffff1660e01b815260040161225d939291906134b0565b600060405180830381600087803b15801561227757600080fd5b505af115801561228b573d6000803e3d6000fd5b505050506122988561229f565b5050505050565b3373ffffffffffffffffffffffffffffffffffffffff16600160009054906101000a900473ffffffffffffffffffffffffffffffffffffffff1673ffffffffffffffffffffffffffffffffffffffff16636352211e836040518263ffffffff1660e01b81526004016123119190612d21565b602060405180830381865afa15801561232e573d6000803e3d6000fd5b505050506040513d601f19601f82011682018060405250810190612352919061319e565b73ffffffffffffffffffffffffffffffffffffffff16146123a8576040517f08c379a000000000000000000000000000000000000000000000000000000000815260040161239f9061369c565b60405180910390fd5b60006003600083815260200190815260200160002054116123fe576040517f08c379a00000000000000000000000000000000000000000000000000000000081526004016123f590613862565b60405180910390fd5b6000600360008381526020019081526020016000208190555050565b600080600360008481526020019081526020016000205414159050919050565b6124426128d3565b600073ffffffffffffffffffffffffffffffffffffffff168173ffffffffffffffffffffffffffffffffffffffff16036124b1576040517f08c379a00000000000000000000000000000000000000000000000000000000081526004016124a890613f65565b60405180910390fd5b6124ba816129e3565b50565b606060006124c9612b92565b67ffffffffffffffff8111156124e2576124e16130e3565b5b6040519080825280602002602001820160405280156125105781602001602082028036833780820191505090505b509050600080600190505b600160009054906101000a900473ffffffffffffffffffffffffffffffffffffffff1673ffffffffffffffffffffffffffffffffffffffff166318160ddd6040518163ffffffff1660e01b8152600401602060405180830381865afa158015612588573d6000803e3d6000fd5b505050506040513d601f19601f820116820180604052508101906125ac9190613623565b8111612602576125bb8161241a565b156125ef57808383815181106125d4576125d3613112565b5b60200260200101818152505081806125eb90613141565b9250505b80806125fa90613141565b91505061251b565b50819250505090565b60008060046000848152602001908152602001600020600001549050612630816117d2565b915050919050565b600030905090565b600080600090506000612651612721565b9050600061265d61137d565b905060005b8281101561271557600082828151811061267f5761267e613112565b5b602002602001015190508673ffffffffffffffffffffffffffffffffffffffff166004600083815260200190815260200160002060020160009054906101000a900473ffffffffffffffffffffffffffffffffffffffff1673ffffffffffffffffffffffffffffffffffffffff16036127015784806126fd90613141565b9550505b50808061270d90613141565b915050612662565b50829350505050919050565b6000806000600190505b600160009054906101000a900473ffffffffffffffffffffffffffffffffffffffff1673ffffffffffffffffffffffffffffffffffffffff166318160ddd6040518163ffffffff1660e01b8152600401602060405180830381865afa158015612798573d6000803e3d6000fd5b505050506040513d601f19601f820116820180604052508101906127bc9190613623565b81116127f2576127cb81610e57565b156127df5781806127db90613141565b9250505b80806127ea90613141565b91505061272b565b508091505090565b6000806000600190505b600160009054906101000a900473ffffffffffffffffffffffffffffffffffffffff1673ffffffffffffffffffffffffffffffffffffffff166318160ddd6040518163ffffffff1660e01b8152600401602060405180830381865afa158015612871573d6000803e3d6000fd5b505050506040513d601f19601f820116820180604052508101906128959190613623565b81116128cb576128a4816110f6565b156128b85781806128b490613141565b9250505b80806128c390613141565b915050612804565b508091505090565b6128db612c6b565b73ffffffffffffffffffffffffffffffffffffffff166128f96117a9565b73ffffffffffffffffffffffffffffffffffffffff161461294f576040517f08c379a000000000000000000000000000000000000000000000000000000000815260040161294690613fd1565b60405180910390fd5b565b60008061295c61122f565b9050600080600090505b82518110156129da57600083828151811061298457612983613112565b5b6020026020010151905060006004600083815260200190815260200160002060000154905060006129b482611f7d565b905080856129c29190613afa565b945050505080806129d290613141565b915050612966565b50809250505090565b60008060009054906101000a900473ffffffffffffffffffffffffffffffffffffffff169050816000806101000a81548173ffffffffffffffffffffffffffffffffffffffff021916908373ffffffffffffffffffffffffffffffffffffffff1602179055508173ffffffffffffffffffffffffffffffffffffffff168173ffffffffffffffffffffffffffffffffffffffff167f8be0079c531659141344cd1fd0a4f28419497f9722a3daafe3b4186f6b6457e060405160405180910390a35050565b60008273ffffffffffffffffffffffffffffffffffffffff1682604051612acd9061342f565b60006040518083038185875af1925050503d8060008114612b0a576040519150601f19603f3d011682016040523d82523d6000602084013e612b0f565b606091505b5050905080612b53576040517f08c379a0000000000000000000000000000000000000000000000000000000008152600401612b4a9061403d565b60405180910390fd5b7f1e935a7fb28a0412065cab7ad70c27cf05afe9a9e9d7ab2d424d099c373ac3818484604051612b849291906134e7565b60405180910390a150505050565b6000806000600190505b600160009054906101000a900473ffffffffffffffffffffffffffffffffffffffff1673ffffffffffffffffffffffffffffffffffffffff166318160ddd6040518163ffffffff1660e01b8152600401602060405180830381865afa158015612c09573d6000803e3d6000fd5b505050506040513d601f19601f82011682018060405250810190612c2d9190613623565b8111612c6357612c3c8161241a565b15612c50578180612c4c90613141565b9250505b8080612c5b90613141565b915050612b9c565b508091505090565b600033905090565b60405180606001604052806000815260200160008152602001600073ffffffffffffffffffffffffffffffffffffffff1681525090565b600080fd5b6000819050919050565b612cc281612caf565b8114612ccd57600080fd5b50565b600081359050612cdf81612cb9565b92915050565b600060208284031215612cfb57612cfa612caa565b5b6000612d0984828501612cd0565b91505092915050565b612d1b81612caf565b82525050565b6000602082019050612d366000830184612d12565b92915050565b600073ffffffffffffffffffffffffffffffffffffffff82169050919050565b6000612d6782612d3c565b9050919050565b612d7781612d5c565b8114612d8257600080fd5b50565b600081359050612d9481612d6e565b92915050565b600060208284031215612db057612daf612caa565b5b6000612dbe84828501612d85565b91505092915050565b600081519050919050565b600082825260208201905092915050565b6000819050602082019050919050565b612dfc81612caf565b82525050565b6000612e0e8383612df3565b60208301905092915050565b6000602082019050919050565b6000612e3282612dc7565b612e3c8185612dd2565b9350612e4783612de3565b8060005b83811015612e78578151612e5f8882612e02565b9750612e6a83612e1a565b925050600181019050612e4b565b5085935050505092915050565b60006020820190508181036000830152612e9f8184612e27565b905092915050565b60008115159050919050565b612ebc81612ea7565b82525050565b6000602082019050612ed76000830184612eb3565b92915050565b612ee681612d5c565b82525050565b606082016000820151612f026000850182612df3565b506020820151612f156020850182612df3565b506040820151612f286040850182612edd565b50505050565b6000606082019050612f436000830184612eec565b92915050565b60008060408385031215612f6057612f5f612caa565b5b6000612f6e85828601612cd0565b9250506020612f7f85828601612cd0565b9150509250929050565b612f9281612d5c565b82525050565b6000602082019050612fad6000830184612f89565b92915050565b6000819050919050565b6000612fd8612fd3612fce84612d3c565b612fb3565b612d3c565b9050919050565b6000612fea82612fbd565b9050919050565b6000612ffc82612fdf565b9050919050565b61300c81612ff1565b82525050565b60006020820190506130276000830184613003565b92915050565b60008060006060848603121561304657613045612caa565b5b600061305486828701612cd0565b935050602061306586828701612cd0565b925050604061307686828701612cd0565b9150509250925092565b7f4e487b7100000000000000000000000000000000000000000000000000000000600052601160045260246000fd5b60006130ba82612caf565b91506130c583612caf565b92508282039050818111156130dd576130dc613080565b5b92915050565b7f4e487b7100000000000000000000000000000000000000000000000000000000600052604160045260246000fd5b7f4e487b7100000000000000000000000000000000000000000000000000000000600052603260045260246000fd5b600061314c82612caf565b91507fffffffffffffffffffffffffffffffffffffffffffffffffffffffffffffffff820361317e5761317d613080565b5b600182019050919050565b60008151905061319881612d6e565b92915050565b6000602082840312156131b4576131b3612caa565b5b60006131c284828501613189565b91505092915050565b600082825260208201905092915050565b7f61756374696f6e206e6f7420656e646564000000000000000000000000000000600082015250565b60006132126011836131cb565b915061321d826131dc565b602082019050919050565b6000602082019050818103600083015261324181613205565b9050919050565b7f7468697320746f6b656e20646964206e6f742072656769737465726564206f6e60008201527f2061756374696f6e000000000000000000000000000000000000000000000000602082015250565b60006132a46028836131cb565b91506132af82613248565b604082019050919050565b600060208201905081810360008301526132d381613297565b9050919050565b7f616c726561647920636c61696d6564206f72206661696c65642061756374696f60008201527f6e00000000000000000000000000000000000000000000000000000000000000602082015250565b60006133366021836131cb565b9150613341826132da565b604082019050919050565b6000602082019050818103600083015261336581613329565b9050919050565b7f63616c6c6572206973206e6f742068696768657374206269646572206e6f722060008201527f73656c6c65720000000000000000000000000000000000000000000000000000602082015250565b60006133c86026836131cb565b91506133d38261336c565b604082019050919050565b600060208201905081810360008301526133f7816133bb565b9050919050565b600081905092915050565b50565b60006134196000836133fe565b915061342482613409565b600082019050919050565b600061343a8261340c565b9150819050919050565b7f7061796d656e74206661696c6564000000000000000000000000000000000000600082015250565b600061347a600e836131cb565b915061348582613444565b602082019050919050565b600060208201905081810360008301526134a98161346d565b9050919050565b60006060820190506134c56000830186612f89565b6134d26020830185612f89565b6134df6040830184612d12565b949350505050565b60006040820190506134fc6000830185612d12565b6135096020830184612f89565b9392505050565b7f62616c616e636520776974686f7574206e6f74436c61696d65644d6f6e65792060008201527f6973207a65726f00000000000000000000000000000000000000000000000000602082015250565b600061356c6027836131cb565b915061357782613510565b604082019050919050565b6000602082019050818103600083015261359b8161355f565b9050919050565b7f7769746864726177206661696c65640000000000000000000000000000000000600082015250565b60006135d8600f836131cb565b91506135e3826135a2565b602082019050919050565b60006020820190508181036000830152613607816135cb565b9050919050565b60008151905061361d81612cb9565b92915050565b60006020828403121561363957613638612caa565b5b60006136478482850161360e565b91505092915050565b7f63616c6c6572206973206e6f74206f776e657200000000000000000000000000600082015250565b60006136866013836131cb565b915061369182613650565b602082019050919050565b600060208201905081810360008301526136b581613679565b9050919050565b7f7072696365206d7573742062652067726561746572207468616e207a65726f00600082015250565b60006136f2601f836131cb565b91506136fd826136bc565b602082019050919050565b60006020820190508181036000830152613721816136e5565b9050919050565b7f7468697320746f6b656e206973206f6e2061756374696f6e0000000000000000600082015250565b600061375e6018836131cb565b915061376982613728565b602082019050919050565b6000602082019050818103600083015261378d81613751565b9050919050565b60006040820190506137a96000830185612f89565b6137b66020830184612f89565b9392505050565b6137c681612ea7565b81146137d157600080fd5b50565b6000815190506137e3816137bd565b92915050565b6000602082840312156137ff576137fe612caa565b5b600061380d848285016137d4565b91505092915050565b7f7468697320746f6b656e206973206e6f74206f6e2073616c6500000000000000600082015250565b600061384c6019836131cb565b915061385782613816565b602082019050919050565b6000602082019050818103600083015261387b8161383f565b9050919050565b600061388d82612caf565b915061389883612caf565b92508282026138a681612caf565b915082820484148315176138bd576138bc613080565b5b5092915050565b7f4e487b7100000000000000000000000000000000000000000000000000000000600052601260045260246000fd5b60006138fe82612caf565b915061390983612caf565b925082613919576139186138c4565b5b828204905092915050565b7f6d696e696d756d5072696365206d75737420626520677265617465722074686160008201527f6e7320302e303031206574686572000000000000000000000000000000000000602082015250565b6000613980602e836131cb565b915061398b82613924565b604082019050919050565b600060208201905081810360008301526139af81613973565b9050919050565b7f7468697320746f6b656e20697320616c7265616479206f6e2053616c65000000600082015250565b60006139ec601d836131cb565b91506139f7826139b6565b602082019050919050565b60006020820190508181036000830152613a1b816139df565b9050919050565b7f7468697320746f6b656e20697320616c7265616479206f6e2061756374696f6e600082015250565b6000613a586020836131cb565b9150613a6382613a22565b602082019050919050565b60006020820190508181036000830152613a8781613a4b565b9050919050565b7f6e6f7420617070726f7665640000000000000000000000000000000000000000600082015250565b6000613ac4600c836131cb565b9150613acf82613a8e565b602082019050919050565b60006020820190508181036000830152613af381613ab7565b9050919050565b6000613b0582612caf565b9150613b1083612caf565b9250828201905080821115613b2857613b27613080565b5b92915050565b7f746869732061637574696f6e20656e6465640000000000000000000000000000600082015250565b6000613b646012836131cb565b9150613b6f82613b2e565b602082019050919050565b60006020820190508181036000830152613b9381613b57565b9050919050565b7f6f776e65722063616e6e6f7420626964206f6e206f776e730000000000000000600082015250565b6000613bd06018836131cb565b9150613bdb82613b9a565b602082019050919050565b60006020820190508181036000830152613bff81613bc3565b9050919050565b7f7468697320746f6b656e206973206e6f74206f6e2061756374696f6e00000000600082015250565b6000613c3c601c836131cb565b9150613c4782613c06565b602082019050919050565b60006020820190508181036000830152613c6b81613c2f565b9050919050565b7f626964206d7573742062652067726561746572207468616e206c61737420626960008201527f6400000000000000000000000000000000000000000000000000000000000000602082015250565b6000613cce6021836131cb565b9150613cd982613c72565b604082019050919050565b60006020820190508181036000830152613cfd81613cc1565b9050919050565b6000613d0f82612caf565b9150613d1a83612caf565b925082613d2a57613d296138c4565b5b828206905092915050565b6000613d426000836131cb565b9150613d4d82613409565b600082019050919050565b60006020820190508181036000830152613d7181613d35565b9050919050565b6000606082019050613d8d6000830186612d12565b613d9a6020830185612d12565b613da76040830184612f89565b949350505050565b7f6f776e65722063616e6e6f7420627579206f776e730000000000000000000000600082015250565b6000613de56015836131cb565b9150613df082613daf565b602082019050919050565b60006020820190508181036000830152613e1481613dd8565b9050919050565b7f74686973206e6674206973206e6f74206f6e2073616c65000000000000000000600082015250565b6000613e516017836131cb565b9150613e5c82613e1b565b602082019050919050565b60006020820190508181036000830152613e8081613e44565b9050919050565b7f7061796d656e7420646f73656e2774206d617463680000000000000000000000600082015250565b6000613ebd6015836131cb565b9150613ec882613e87565b602082019050919050565b60006020820190508181036000830152613eec81613eb0565b9050919050565b7f4f776e61626c653a206e6577206f776e657220697320746865207a65726f206160008201527f6464726573730000000000000000000000000000000000000000000000000000602082015250565b6000613f4f6026836131cb565b9150613f5a82613ef3565b604082019050919050565b60006020820190508181036000830152613f7e81613f42565b9050919050565b7f4f776e61626c653a2063616c6c6572206973206e6f7420746865206f776e6572600082015250565b6000613fbb6020836131cb565b9150613fc682613f85565b602082019050919050565b60006020820190508181036000830152613fea81613fae565b9050919050565b7f726566756e64206661696c656400000000000000000000000000000000000000600082015250565b6000614027600d836131cb565b915061403282613ff1565b602082019050919050565b600060208201905081810360008301526140568161401a565b905091905056fea2646970667358221220f18272602e88873950bc78f09b3bb9390d126c754d7ba69870509b411ecd986164736f6c63430008110033",
  "immutableReferences": {},
  "source": "// SPDX-License-Identifier: MIT\npragma solidity ^0.8.17;\n\nimport \"./TestToken.sol\";\n\nimport \"../node_modules/@openzeppelin/contracts/access/Ownable.sol\";\n// remix  \n// import \"openzeppelin-solidity/contracts/access/Ownable.sol\";\n\ncontract TestTrade is Ownable{\n    TestToken public Token;\n\n    uint256 public saleFeeRate = 5; //\n\n    struct AuctionInfo {\n        uint256 lastBidPrice; //    \n        uint256 endTime;\n        address bider; //    address(0)\n    }\n\n    mapping(uint => uint) private _tokensOnSale;\n    // tokenId to price\n    mapping(uint => AuctionInfo) private _tokensOnAuction;\n    // tokenId to AuctionInfo\n\n    constructor(address tokenAddress_) {\n        Token = TestToken(tokenAddress_);\n    }\n\n    event RegisterForAuction(uint256 tokenId);\n    event BidOnAuction(uint256 tokenId, uint256 bidPrice , address bider);\n    event RefundBid(uint256 tokenId, address failedBider);\n    event ClaimMatchedAuction(uint256 tokenId, address caller);\n\n    // CA \n    function getCA() external view returns(address){\n      return(address(this));\n    }\n\n    //  \n    function setSaleFeeRate(uint256 rate) external onlyOwner {\n        saleFeeRate = rate;\n    } \n\n    //    \n    function calculateFee(uint256 price) public view returns(uint256) {\n        return price * saleFeeRate / 100;\n    }\n\n    //     \n    function afterFee(uint256 price) public view returns(uint256) {\n        return price - calculateFee(price);\n    }\n\n    //   \n    function isOnSale(uint256 tokenId) public view returns(bool) {\n        return (_tokensOnSale[tokenId] != 0);\n        //  true  false\n    }\n\n    //   ()\n    function _countOnSale() private view returns(uint256) {\n        uint256 count;\n\n        for(uint tokenId = 1; tokenId <= Token.totalSupply(); tokenId++) {\n            if(isOnSale(tokenId)) count ++;\n        }\n\n        return count;\n    }\n\n    //   ( )\n    function onSaleList() external view returns(uint256[] memory){\n        uint256[] memory tokensOnSale = new uint256[](_countOnSale()); //  \n        uint256 index = 0;\n\n        for(uint tokenId = 1; tokenId <= Token.totalSupply(); tokenId++) {\n            if(isOnSale(tokenId)) {\n                tokensOnSale[index] = tokenId;\n                index ++;\n            }\n        }\n\n        return tokensOnSale;\n    }\n\n    //    ( )\n    function priceOfOnSale(uint256 tokenId) public view  returns(uint256)  {\n        require(_tokensOnSale[tokenId] > 0, \"this token is not on sale\");\n        return _tokensOnSale[tokenId];\n        //  0  (   )\n    }  \n\n    // ( )\n    function registerForSale(uint256 tokenId, uint256 price) external {\n        require(Token.ownerOf(tokenId) == msg.sender, \"caller is not owner\");\n        require(price > 0, \"price must be greater than zero\");\n        require(!isOnAuction(tokenId), \"this token is on auction\"); //   \n        //  Nft  setApprovalForAll(address operator, bool approved)\n        //  operator  CA   .\n        require(Token.isApprovedForAll(msg.sender, address(this)));\n\n        _tokensOnSale[tokenId] = price;\n    }\n\n    //  ( )\n    function cancleSale(uint256 tokenId) public {\n        require(Token.ownerOf(tokenId) == msg.sender, \"caller is not owner\");\n        require(_tokensOnSale[tokenId] > 0, \"this token is not on sale\");\n        _tokensOnSale[tokenId] = 0; //  0    \n        // Token.setApprovalForAll(address(this), false); // approve   \n        //    require operater != msg.sender   \n        //    CA  ...\n        //       setApprovalForAll(  CA, false)  .\n        //          ,\n    }\n\n    // ( )\n    function purchase(uint256 tokenId) external payable {\n        uint256 price = _tokensOnSale[tokenId];\n        address tokenOwner = Token.ownerOf(tokenId);\n\n        require(tokenOwner != msg.sender, \"owner cannot buy owns\");\n        require(price > 0, \"this nft is not on sale\");\n        require(msg.value == price, \"payment dosen't match\");\n        //   transferFrom    \n        //            ?\n\n        uint256 incomeAfterFee = afterFee(price);\n        (bool success, ) = tokenOwner.call{value: incomeAfterFee}(\"\");\n        require(success, \"payment failed\");\n\n        Token.safeTransferFrom(tokenOwner, msg.sender, tokenId);\n        //      cancleSale \n        // require(Token.ownerOf(tokenId) == msg.sender, \"caller is not owner\");   .\n        cancleSale(tokenId);\n    }\n\n\n    //    ( )\n    function _countOnAuction() private view returns(uint256) {\n        uint256 count;\n\n        for(uint tokenId = 1; tokenId <= Token.totalSupply(); tokenId++) {\n            if(isOnAuction(tokenId)) {\n                count ++;\n            }\n            // endTime  block.timestamp    .\n        }\n\n        return count;\n    }\n\n    //    ( )\n    function onAuctionList() public view returns(uint256[] memory){\n        uint256[] memory tokensOnAuction = new uint256[](_countOnAuction()); //  \n        uint256 index = 0;\n\n        for(uint tokenId = 1; tokenId <= Token.totalSupply(); tokenId++) {\n            if(isOnAuction(tokenId)) {\n                tokensOnAuction[index] = tokenId;\n                index ++;\n            } \n            // endTime  block.timestamp    .\n        }\n\n        return tokensOnAuction;\n    }\n\n    //    ()\n    function dataOfOnAuction(uint256 tokenId) public view returns(AuctionInfo memory){\n        // require(_tokensOnAuction[tokenId].endTime > block.timestamp, \"this token is not on Auction\");\n        return _tokensOnAuction[tokenId];\n    }\n\n    //   \n    function isOnAuction(uint256 tokenId) public view returns(bool) {\n        return (_tokensOnAuction[tokenId].endTime > block.timestamp);\n        //     true\n    }\n\n    // ()\n    function registerForAuction(uint256 tokenId, uint256 minimumPrice, uint256 lastingMinutes) external {\n        require(Token.ownerOf(tokenId) == msg.sender, \"caller is not owner\");\n        require(minimumPrice >= 0.001 ether, \"minimumPrice must be greater thans 0.001 ether\"); //     \n        require(!isOnSale(tokenId), \"this token is already on Sale\"); //    \n        require(_tokensOnAuction[tokenId].endTime < block.timestamp, \"this token is already on auction\"); //   \n        //  Nft   setApprovalForAll(address operator, bool approved)\n        //  operator   CA    .\n        require(Token.isApprovedForAll(msg.sender, address(this)), \"not approved\");\n\n        uint256 endTime = block.timestamp + lastingMinutes * 60;\n\n        _tokensOnAuction[tokenId] = AuctionInfo(minimumPrice, endTime, address(0)); //      address(0) \n\n        emit RegisterForAuction(tokenId);\n    }\n\n    //  ()\n    function bidOnAcution(uint256 tokenId) external payable {\n        uint256 lastBidPrice = _tokensOnAuction[tokenId].lastBidPrice;\n        uint256 endTime = _tokensOnAuction[tokenId].endTime;\n        address bider = _tokensOnAuction[tokenId].bider;\n        // {uint256 lastBidPrice, uint256 endTime, address bider} = _tokensOnAuction[tokenId];\n\n        require(block.timestamp < endTime, \"this acution ended\"); //   \n        require(Token.ownerOf(tokenId) != msg.sender, \"owner cannot bid on owns\"); //   \n        require(lastBidPrice > 0 , \"this token is not on auction\"); //  \n        require(msg.value > lastBidPrice, \"bid must be greater than last bid\"); //     \n        require((msg.value - lastBidPrice) % 0.001 ether == 0, \"\"); //  0.001 \n\n        if(bider != address(0)) { //   \n            _refundBid(tokenId ,bider ,lastBidPrice); //  \n        }\n\n        _tokensOnAuction[tokenId].lastBidPrice = msg.value;\n        _tokensOnAuction[tokenId].bider = msg.sender;\n\n        emit BidOnAuction(tokenId, msg.value , msg.sender);\n    }\n\n    //   ()\n    function _refundBid(uint256 tokenId ,address to, uint256 bidPrice) private {\n        // payable(to).transfer(bidPrice);\n        (bool success, ) = to.call{value: bidPrice}(\"\");\n        require(success, \"refund failed\");\n\n        emit RefundBid(tokenId, to);\n    }   \n\n    //   (  )\n    function cancleFailedAuction(uint tokenId) external {\n        //   endTime  block.timestamp     \n        //      \n        //         \n\n        //   approve  ?\n\n        // uint256 lastBidPrice = _tokensOnAuction[tokenId].lastBidPrice;\n        // uint256 endTime = _tokensOnAuction[tokenId].endTime;\n        // address bider = _tokensOnAuction[tokenId].bider;\n\n        // require(endTime > block.timestamp, \"auction not ended yet\"); //  \n        // require(lastBidPrice > 0, \"acution already ended\"); //   \n    }\n\n    //  (NFT)  ()\n    //    \n    //    .\n    function claimMatchedAuction(uint256 tokenId) external {\n        uint256 endTime = _tokensOnAuction[tokenId].endTime;\n        uint256 lastBidPrice = _tokensOnAuction[tokenId].lastBidPrice;\n        address bider = _tokensOnAuction[tokenId].bider;\n        address tokenOwner = Token.ownerOf(tokenId);\n\n        require(endTime < block.timestamp, \"auction not ended\");\n        require(lastBidPrice != 0, \"this token did not registered on auction\");\n        require(bider != address(0), \"already claimed or failed auction\");\n        require(msg.sender == bider || msg.sender == tokenOwner , \"caller is not highest bider nor seller\");\n\n        //    \n        uint256 incomeAfterFee = afterFee(lastBidPrice);\n        (bool success, ) = tokenOwner.call{value: incomeAfterFee}(\"\");\n        require(success, \"payment failed\");\n\n        //   \n        Token.safeTransferFrom(tokenOwner, bider, tokenId); //    \n        _tokensOnAuction[tokenId].bider = address(0); \n        // _tokensOnAuction[tokenId].lastBidPrice = 0; //  \n        // _tokensOnAuction[tokenId].endTime = 0; //  endTime   block.timestamp   \n\n        emit ClaimMatchedAuction(tokenId, msg.sender); //      \n    }\n\n    //   \n    function isNeedToClaim(uint256 tokenId) public view returns(bool){\n        uint256 endTime = _tokensOnAuction[tokenId].endTime;\n        address bider = _tokensOnAuction[tokenId].bider;\n\n        return(bider != address(0) && endTime < block.timestamp);\n        //  true  false\n        //  bider address(0) \n        //   bider address(0)    .\n        //    bider  address(0) \n        //             .\n    }\n\n    //    \n    function _countNotClaimedAuction() private view returns(uint256) {\n        uint256 count;\n\n        for(uint tokenId = 1; tokenId <= Token.totalSupply(); tokenId++) {\n            if(isNeedToClaim(tokenId)) {\n                count ++;\n            } \n        }\n\n        return count;\n    }\n\n    //    \n    function notClaimedAuctionList() public view returns(uint256[] memory){\n        uint256[] memory tokensNotClaimedOnAuction = new uint256[](_countNotClaimedAuction()); //  \n        uint256 index = 0;\n\n        for(uint tokenId = 1; tokenId <= Token.totalSupply(); tokenId++) {\n            if(isNeedToClaim(tokenId)) {\n                tokensNotClaimedOnAuction[index] = tokenId;\n                index ++;\n            } \n        }\n\n        return tokensNotClaimedOnAuction;\n    }\n\n    //       - \n    function _countNotClaimedTokenOfBider(address owner) public view returns(uint256) {\n        uint256 count = 0;\n        uint256 countNotClaimedAuction = _countNotClaimedAuction();\n        uint256[] memory tokensNotClaimedOnAuction = notClaimedAuctionList();\n\n        for(uint256 i = 0; i < countNotClaimedAuction; i++) {\n            uint256 tokenId = tokensNotClaimedOnAuction[i]; \n            if(_tokensOnAuction[tokenId].bider == owner) {\n                count++;\n            }\n        }\n\n        return count;\n    }\n    \n    //       - \n    function notClaimedTokensOfBiderList(address owner) public view returns(uint256[] memory) {\n        uint256[] memory notClaimedtokensOfBider = new uint256[](_countNotClaimedTokenOfBider(owner)); //  \n        uint256[] memory tokensNotClaimedOnAuction = notClaimedAuctionList();\n        uint256 countNotClaimedAuction = _countNotClaimedAuction();\n        uint256 index = 0;\n\n        for(uint256 i = 0; i < countNotClaimedAuction; i++) {\n            uint256 tokenId = tokensNotClaimedOnAuction[i]; \n            if(_tokensOnAuction[tokenId].bider == owner) {\n                notClaimedtokensOfBider[index] = tokenId;\n                index ++;\n            }\n        }\n\n        return notClaimedtokensOfBider;\n    }\n\n\n    //  (  ) ( ) - \n    function _countOnBid(address owner) private view returns(uint256) {\n        uint256 count = 0;\n        uint256 countOnAuction = _countOnAuction();\n        uint256[] memory listOnAuction = onAuctionList();\n\n        for(uint i = 0; i < countOnAuction; i++) {\n            uint256 tokenId = listOnAuction[i];\n            if(_tokensOnAuction[tokenId].bider == owner) {\n                count ++;\n            } \n        }\n        return count;\n    }\n\n    //  (  )  ( ) - \n    function onBidList(address owner) external view returns(uint256[] memory){\n        uint256[] memory tokensOnBid = new uint256[](_countOnBid(owner)); //  \n        uint256 countOnAuction = _countOnAuction();\n        uint256[] memory listOnAuction = onAuctionList();\n        uint256 index = 0;\n\n        for(uint i = 0; i < countOnAuction; i++){\n            uint256 tokenId = listOnAuction[i];\n            if(_tokensOnAuction[tokenId].bider == owner){\n                tokensOnBid[index] = tokenId;\n                index ++;\n            }\n        }\n        return tokensOnBid;\n    }\n\n    //      \n    function feeOfMatchedAuctionToken(uint256 tokenId) public view returns(uint256) {\n        uint256 lastBidPrice = _tokensOnAuction[tokenId].lastBidPrice;\n        return calculateFee(lastBidPrice);\n    }\n\n    //   ()  \n    function afterFeeOfNotClaimedToken(uint256 tokenId) public view returns (uint256) {\n        uint256 lastBidPrice = _tokensOnAuction[tokenId].lastBidPrice;\n        return lastBidPrice - feeOfMatchedAuctionToken(tokenId);\n    }\n\n    //    ( )\n    function _notClaimedMoney() private view returns(uint256) {\n        uint256[] memory tokensNotClaimedOnAuction = notClaimedAuctionList();\n        uint256 notClaimedMoney;\n\n        for (uint i = 0; i < tokensNotClaimedOnAuction.length; i++ ) {\n            uint256 tokenId = tokensNotClaimedOnAuction[i];\n            uint256 lastBidPrice = _tokensOnAuction[tokenId].lastBidPrice;\n            uint256 priceAfterFee = afterFee(lastBidPrice);\n            notClaimedMoney += priceAfterFee;\n        }\n\n        return notClaimedMoney;\n    }\n\n\n    //  \n    function withdrawFees() external onlyOwner {\n        //              \n        uint256 notClaimedMoney = _notClaimedMoney();\n        uint256 balanceExceptNotClaimedMoney = address(this).balance - notClaimedMoney;\n\n        require(balanceExceptNotClaimedMoney > 0, \"balance without notClaimedMoney is zero\");\n\n        (bool success, ) = msg.sender.call{value: balanceExceptNotClaimedMoney}(\"\");\n        require(success, \"withdraw failed\");\n    }\n\n}\n\n",
  "sourcePath": "/Users/nominseob/Desktop/academy/Project/NFT_TeamProject/blockChain/contracts/TestTrade.sol",
  "compiler": {
    "name": "solc",
    "version": "0.8.17+commit.8df45f5f.Emscripten.clang"
  },
  "schemaVersion": "3.4.11",
  "updatedAt": "2022-12-25T13:46:45.651Z",
  "networkType": "ethereum",
  "devdoc": {
    "kind": "dev",
    "methods": {
      "owner()": {
        "details": "Returns the address of the current owner."
      },
      "renounceOwnership()": {
        "details": "Leaves the contract without owner. It will not be possible to call `onlyOwner` functions anymore. Can only be called by the current owner. NOTE: Renouncing ownership will leave the contract without an owner, thereby removing any functionality that is only available to the owner."
      },
      "transferOwnership(address)": {
        "details": "Transfers ownership of the contract to a new account (`newOwner`). Can only be called by the current owner."
      }
    },
    "version": 1
  },
  "userdoc": {
    "kind": "user",
    "methods": {},
    "version": 1
  }
}