{
  "contractName": "TestTrade",
  "abi": [
    {
      "inputs": [
        {
          "internalType": "address",
          "name": "tokenAddress_",
          "type": "address"
        }
      ],
      "stateMutability": "nonpayable",
      "type": "constructor"
    },
    {
      "anonymous": false,
      "inputs": [
        {
          "indexed": true,
          "internalType": "address",
          "name": "previousOwner",
          "type": "address"
        },
        {
          "indexed": true,
          "internalType": "address",
          "name": "newOwner",
          "type": "address"
        }
      ],
      "name": "OwnershipTransferred",
      "type": "event"
    },
    {
      "inputs": [],
      "name": "Token",
      "outputs": [
        {
          "internalType": "contract TestToken",
          "name": "",
          "type": "address"
        }
      ],
      "stateMutability": "view",
      "type": "function"
    },
    {
      "inputs": [],
      "name": "owner",
      "outputs": [
        {
          "internalType": "address",
          "name": "",
          "type": "address"
        }
      ],
      "stateMutability": "view",
      "type": "function"
    },
    {
      "inputs": [],
      "name": "renounceOwnership",
      "outputs": [],
      "stateMutability": "nonpayable",
      "type": "function"
    },
    {
      "inputs": [],
      "name": "saleFeeRate",
      "outputs": [
        {
          "internalType": "uint256",
          "name": "",
          "type": "uint256"
        }
      ],
      "stateMutability": "view",
      "type": "function"
    },
    {
      "inputs": [
        {
          "internalType": "address",
          "name": "newOwner",
          "type": "address"
        }
      ],
      "name": "transferOwnership",
      "outputs": [],
      "stateMutability": "nonpayable",
      "type": "function"
    },
    {
      "inputs": [
        {
          "internalType": "uint256",
          "name": "rate",
          "type": "uint256"
        }
      ],
      "name": "setSaleFeeRate",
      "outputs": [],
      "stateMutability": "nonpayable",
      "type": "function"
    },
    {
      "inputs": [],
      "name": "onSaleList",
      "outputs": [
        {
          "internalType": "uint256[]",
          "name": "",
          "type": "uint256[]"
        }
      ],
      "stateMutability": "view",
      "type": "function"
    },
    {
      "inputs": [
        {
          "internalType": "uint256",
          "name": "tokenId",
          "type": "uint256"
        }
      ],
      "name": "onSalePrice",
      "outputs": [
        {
          "internalType": "uint256",
          "name": "",
          "type": "uint256"
        }
      ],
      "stateMutability": "view",
      "type": "function"
    },
    {
      "inputs": [
        {
          "internalType": "uint256",
          "name": "tokenId",
          "type": "uint256"
        },
        {
          "internalType": "uint256",
          "name": "price",
          "type": "uint256"
        }
      ],
      "name": "registerForSale",
      "outputs": [],
      "stateMutability": "nonpayable",
      "type": "function"
    },
    {
      "inputs": [
        {
          "internalType": "uint256",
          "name": "tokenId",
          "type": "uint256"
        }
      ],
      "name": "purchase",
      "outputs": [],
      "stateMutability": "payable",
      "type": "function"
    },
    {
      "inputs": [
        {
          "internalType": "uint256",
          "name": "tokenId",
          "type": "uint256"
        }
      ],
      "name": "cancleSale",
      "outputs": [],
      "stateMutability": "nonpayable",
      "type": "function"
    },
    {
      "inputs": [],
      "name": "onAuctionList",
      "outputs": [
        {
          "internalType": "uint256[]",
          "name": "",
          "type": "uint256[]"
        }
      ],
      "stateMutability": "view",
      "type": "function"
    },
    {
      "inputs": [
        {
          "internalType": "uint256",
          "name": "tokenId",
          "type": "uint256"
        },
        {
          "internalType": "uint256",
          "name": "minimumPrice",
          "type": "uint256"
        },
        {
          "internalType": "uint256",
          "name": "lastingMinutes",
          "type": "uint256"
        }
      ],
      "name": "registerForAuction",
      "outputs": [],
      "stateMutability": "nonpayable",
      "type": "function"
    },
    {
      "inputs": [
        {
          "internalType": "uint256",
          "name": "tokenId",
          "type": "uint256"
        }
      ],
      "name": "bidOnAcution",
      "outputs": [],
      "stateMutability": "payable",
      "type": "function"
    },
    {
      "inputs": [],
      "name": "cancleFailedAuction",
      "outputs": [],
      "stateMutability": "nonpayable",
      "type": "function"
    },
    {
      "inputs": [],
      "name": "refundBid",
      "outputs": [],
      "stateMutability": "nonpayable",
      "type": "function"
    },
    {
      "inputs": [],
      "name": "claimTokenForWinner",
      "outputs": [],
      "stateMutability": "nonpayable",
      "type": "function"
    }
  ],
  "bytecode": "0x608060405260056002553480156200001657600080fd5b50604051620022763803806200227683398181016040528101906200003c9190620001da565b6200005c62000050620000a460201b60201c565b620000ac60201b60201c565b80600160006101000a81548173ffffffffffffffffffffffffffffffffffffffff021916908373ffffffffffffffffffffffffffffffffffffffff160217905550506200020c565b600033905090565b60008060009054906101000a900473ffffffffffffffffffffffffffffffffffffffff169050816000806101000a81548173ffffffffffffffffffffffffffffffffffffffff021916908373ffffffffffffffffffffffffffffffffffffffff1602179055508173ffffffffffffffffffffffffffffffffffffffff168173ffffffffffffffffffffffffffffffffffffffff167f8be0079c531659141344cd1fd0a4f28419497f9722a3daafe3b4186f6b6457e060405160405180910390a35050565b600080fd5b600073ffffffffffffffffffffffffffffffffffffffff82169050919050565b6000620001a28262000175565b9050919050565b620001b48162000195565b8114620001c057600080fd5b50565b600081519050620001d481620001a9565b92915050565b600060208284031215620001f357620001f262000170565b5b60006200020384828501620001c3565b91505092915050565b61205a806200021c6000396000f3fe6080604052600436106100fe5760003560e01c806382ef5ee511610095578063e033c22911610064578063e033c229146102c3578063efef39a1146102df578063f06d0a82146102fb578063f2fde38b14610324578063f5c6a2cf1461034d576100fe565b806382ef5ee51461021b5780638da5cb5b14610244578063c24126761461026f578063cee64c651461029a576100fe565b80634a5c46ed116100d15780634a5c46ed1461017157806363a555f31461019c57806366066c77146101d9578063715018a614610204576100fe565b806312368328146101035780633a1cff7f1461011a5780633aea10a61461014357806341dda7831461015a575b600080fd5b34801561010f57600080fd5b50610118610378565b005b34801561012657600080fd5b50610141600480360381019061013c91906114b4565b61037a565b005b34801561014f57600080fd5b5061015861038c565b005b34801561016657600080fd5b5061016f61038e565b005b34801561017d57600080fd5b50610186610390565b60405161019391906114f0565b60405180910390f35b3480156101a857600080fd5b506101c360048036038101906101be91906114b4565b610396565b6040516101d091906114f0565b60405180910390f35b3480156101e557600080fd5b506101ee6103b3565b6040516101fb91906115c9565b60405180910390f35b34801561021057600080fd5b50610219610511565b005b34801561022757600080fd5b50610242600480360381019061023d91906115eb565b610525565b005b34801561025057600080fd5b506102596106fe565b604051610266919061166c565b60405180910390f35b34801561027b57600080fd5b50610284610727565b60405161029191906116e6565b60405180910390f35b3480156102a657600080fd5b506102c160048036038101906102bc9190611701565b61074d565b005b6102dd60048036038101906102d891906114b4565b6109cf565b005b6102f960048036038101906102f491906114b4565b610c34565b005b34801561030757600080fd5b50610322600480360381019061031d91906114b4565b610f66565b005b34801561033057600080fd5b5061034b60048036038101906103469190611780565b610f82565b005b34801561035957600080fd5b50610362611005565b60405161036f91906115c9565b60405180910390f35b565b610382611160565b8060028190555050565b565b565b60025481565b600060036000838152602001908152602001600020549050919050565b606060006103bf6111de565b67ffffffffffffffff8111156103d8576103d76117ad565b5b6040519080825280602002602001820160405280156104065781602001602082028036833780820191505090505b509050600080600190505b600160009054906101000a900473ffffffffffffffffffffffffffffffffffffffff1673ffffffffffffffffffffffffffffffffffffffff166318160ddd6040518163ffffffff1660e01b8152600401602060405180830381865afa15801561047e573d6000803e3d6000fd5b505050506040513d601f19601f820116820180604052508101906104a291906117f1565b81116105085760006004600083815260200190815260200160002060000154146104f557808383815181106104da576104d961181e565b5b60200260200101818152505081806104f19061187c565b9250505b80806105009061187c565b915050610411565b50819250505090565b610519611160565b61052360006112c7565b565b3373ffffffffffffffffffffffffffffffffffffffff16600160009054906101000a900473ffffffffffffffffffffffffffffffffffffffff1673ffffffffffffffffffffffffffffffffffffffff16636352211e846040518263ffffffff1660e01b815260040161059791906114f0565b602060405180830381865afa1580156105b4573d6000803e3d6000fd5b505050506040513d601f19601f820116820180604052508101906105d891906118d9565b73ffffffffffffffffffffffffffffffffffffffff161461062e576040517f08c379a000000000000000000000000000000000000000000000000000000000815260040161062590611963565b60405180910390fd5b6000811161063b57600080fd5b600160009054906101000a900473ffffffffffffffffffffffffffffffffffffffff1673ffffffffffffffffffffffffffffffffffffffff1663e985e9c533306040518363ffffffff1660e01b8152600401610698929190611983565b602060405180830381865afa1580156106b5573d6000803e3d6000fd5b505050506040513d601f19601f820116820180604052508101906106d991906119e4565b6106e257600080fd5b8060036000848152602001908152602001600020819055505050565b60008060009054906101000a900473ffffffffffffffffffffffffffffffffffffffff16905090565b600160009054906101000a900473ffffffffffffffffffffffffffffffffffffffff1681565b3373ffffffffffffffffffffffffffffffffffffffff16600160009054906101000a900473ffffffffffffffffffffffffffffffffffffffff1673ffffffffffffffffffffffffffffffffffffffff16636352211e856040518263ffffffff1660e01b81526004016107bf91906114f0565b602060405180830381865afa1580156107dc573d6000803e3d6000fd5b505050506040513d601f19601f8201168201806040525081019061080091906118d9565b73ffffffffffffffffffffffffffffffffffffffff1614610856576040517f08c379a000000000000000000000000000000000000000000000000000000000815260040161084d90611963565b60405180910390fd5b6000821161086357600080fd5b600160009054906101000a900473ffffffffffffffffffffffffffffffffffffffff1673ffffffffffffffffffffffffffffffffffffffff1663e985e9c533306040518363ffffffff1660e01b81526004016108c0929190611983565b602060405180830381865afa1580156108dd573d6000803e3d6000fd5b505050506040513d601f19601f8201168201806040525081019061090191906119e4565b61090a57600080fd5b6000603c826109199190611a11565b426109249190611a53565b90506040518060600160405280848152602001828152602001600073ffffffffffffffffffffffffffffffffffffffff1681525060046000868152602001908152602001600020600082015181600001556020820151816001015560408201518160020160006101000a81548173ffffffffffffffffffffffffffffffffffffffff021916908373ffffffffffffffffffffffffffffffffffffffff16021790555090505050505050565b60006004600083815260200190815260200160002060000154905060006004600084815260200190815260200160002060010154905060006004600085815260200190815260200160002060020160009054906101000a900473ffffffffffffffffffffffffffffffffffffffff1690503373ffffffffffffffffffffffffffffffffffffffff16600160009054906101000a900473ffffffffffffffffffffffffffffffffffffffff1673ffffffffffffffffffffffffffffffffffffffff16636352211e866040518263ffffffff1660e01b8152600401610ab291906114f0565b602060405180830381865afa158015610acf573d6000803e3d6000fd5b505050506040513d601f19601f82011682018060405250810190610af391906118d9565b73ffffffffffffffffffffffffffffffffffffffff1603610b49576040517f08c379a0000000000000000000000000000000000000000000000000000000008152600401610b4090611ad3565b60405180910390fd5b60008311610b8c576040517f08c379a0000000000000000000000000000000000000000000000000000000008152600401610b8390611b3f565b60405180910390fd5b823411610bce576040517f08c379a0000000000000000000000000000000000000000000000000000000008152600401610bc590611bd1565b60405180910390fd5b600066038d7ea4c680008434610be49190611bf1565b610bee9190611c54565b14610c2e576040517f08c379a0000000000000000000000000000000000000000000000000000000008152600401610c2590611cab565b60405180910390fd5b50505050565b6000600360008381526020019081526020016000205490506000600160009054906101000a900473ffffffffffffffffffffffffffffffffffffffff1673ffffffffffffffffffffffffffffffffffffffff16636352211e846040518263ffffffff1660e01b8152600401610ca991906114f0565b602060405180830381865afa158015610cc6573d6000803e3d6000fd5b505050506040513d601f19601f82011682018060405250810190610cea91906118d9565b90503373ffffffffffffffffffffffffffffffffffffffff168173ffffffffffffffffffffffffffffffffffffffff1603610d5a576040517f08c379a0000000000000000000000000000000000000000000000000000000008152600401610d5190611d17565b60405180910390fd5b60008211610d9d576040517f08c379a0000000000000000000000000000000000000000000000000000000008152600401610d9490611d83565b60405180910390fd5b813414610ddf576040517f08c379a0000000000000000000000000000000000000000000000000000000008152600401610dd690611def565b60405180910390fd5b600060646002546064610df29190611bf1565b84610dfd9190611a11565b610e079190611e0f565b905060003373ffffffffffffffffffffffffffffffffffffffff1682604051610e2f90611e6e565b60006040518083038185875af1925050503d8060008114610e6c576040519150601f19603f3d011682016040523d82523d6000602084013e610e71565b606091505b5050905080610eb5576040517f08c379a0000000000000000000000000000000000000000000000000000000008152600401610eac90611ecf565b60405180910390fd5b600160009054906101000a900473ffffffffffffffffffffffffffffffffffffffff1673ffffffffffffffffffffffffffffffffffffffff166342842e0e8433886040518463ffffffff1660e01b8152600401610f1493929190611eef565b600060405180830381600087803b158015610f2e57600080fd5b505af1158015610f42573d6000803e3d6000fd5b50505050600060036000878152602001908152602001600020819055505050505050565b6000600360008381526020019081526020016000208190555050565b610f8a611160565b600073ffffffffffffffffffffffffffffffffffffffff168173ffffffffffffffffffffffffffffffffffffffff1603610ff9576040517f08c379a0000000000000000000000000000000000000000000000000000000008152600401610ff090611f98565b60405180910390fd5b611002816112c7565b50565b6060600061101161138b565b67ffffffffffffffff81111561102a576110296117ad565b5b6040519080825280602002602001820160405280156110585781602001602082028036833780820191505090505b509050600080600190505b600160009054906101000a900473ffffffffffffffffffffffffffffffffffffffff1673ffffffffffffffffffffffffffffffffffffffff166318160ddd6040518163ffffffff1660e01b8152600401602060405180830381865afa1580156110d0573d6000803e3d6000fd5b505050506040513d601f19601f820116820180604052508101906110f491906117f1565b811161115757600060036000838152602001908152602001600020541461114457808383815181106111295761112861181e565b5b60200260200101818152505081806111409061187c565b9250505b808061114f9061187c565b915050611063565b50819250505090565b611168611471565b73ffffffffffffffffffffffffffffffffffffffff166111866106fe565b73ffffffffffffffffffffffffffffffffffffffff16146111dc576040517f08c379a00000000000000000000000000000000000000000000000000000000081526004016111d390612004565b60405180910390fd5b565b6000806000600190505b600160009054906101000a900473ffffffffffffffffffffffffffffffffffffffff1673ffffffffffffffffffffffffffffffffffffffff166318160ddd6040518163ffffffff1660e01b8152600401602060405180830381865afa158015611255573d6000803e3d6000fd5b505050506040513d601f19601f8201168201806040525081019061127991906117f1565b81116112bf5760006004600083815260200190815260200160002060000154146112ac5781806112a89061187c565b9250505b80806112b79061187c565b9150506111e8565b508091505090565b60008060009054906101000a900473ffffffffffffffffffffffffffffffffffffffff169050816000806101000a81548173ffffffffffffffffffffffffffffffffffffffff021916908373ffffffffffffffffffffffffffffffffffffffff1602179055508173ffffffffffffffffffffffffffffffffffffffff168173ffffffffffffffffffffffffffffffffffffffff167f8be0079c531659141344cd1fd0a4f28419497f9722a3daafe3b4186f6b6457e060405160405180910390a35050565b6000806000600190505b600160009054906101000a900473ffffffffffffffffffffffffffffffffffffffff1673ffffffffffffffffffffffffffffffffffffffff166318160ddd6040518163ffffffff1660e01b8152600401602060405180830381865afa158015611402573d6000803e3d6000fd5b505050506040513d601f19601f8201168201806040525081019061142691906117f1565b81116114695760006003600083815260200190815260200160002054146114565781806114529061187c565b9250505b80806114619061187c565b915050611395565b508091505090565b600033905090565b600080fd5b6000819050919050565b6114918161147e565b811461149c57600080fd5b50565b6000813590506114ae81611488565b92915050565b6000602082840312156114ca576114c9611479565b5b60006114d88482850161149f565b91505092915050565b6114ea8161147e565b82525050565b600060208201905061150560008301846114e1565b92915050565b600081519050919050565b600082825260208201905092915050565b6000819050602082019050919050565b6115408161147e565b82525050565b60006115528383611537565b60208301905092915050565b6000602082019050919050565b60006115768261150b565b6115808185611516565b935061158b83611527565b8060005b838110156115bc5781516115a38882611546565b97506115ae8361155e565b92505060018101905061158f565b5085935050505092915050565b600060208201905081810360008301526115e3818461156b565b905092915050565b6000806040838503121561160257611601611479565b5b60006116108582860161149f565b92505060206116218582860161149f565b9150509250929050565b600073ffffffffffffffffffffffffffffffffffffffff82169050919050565b60006116568261162b565b9050919050565b6116668161164b565b82525050565b6000602082019050611681600083018461165d565b92915050565b6000819050919050565b60006116ac6116a76116a28461162b565b611687565b61162b565b9050919050565b60006116be82611691565b9050919050565b60006116d0826116b3565b9050919050565b6116e0816116c5565b82525050565b60006020820190506116fb60008301846116d7565b92915050565b60008060006060848603121561171a57611719611479565b5b60006117288682870161149f565b93505060206117398682870161149f565b925050604061174a8682870161149f565b9150509250925092565b61175d8161164b565b811461176857600080fd5b50565b60008135905061177a81611754565b92915050565b60006020828403121561179657611795611479565b5b60006117a48482850161176b565b91505092915050565b7f4e487b7100000000000000000000000000000000000000000000000000000000600052604160045260246000fd5b6000815190506117eb81611488565b92915050565b60006020828403121561180757611806611479565b5b6000611815848285016117dc565b91505092915050565b7f4e487b7100000000000000000000000000000000000000000000000000000000600052603260045260246000fd5b7f4e487b7100000000000000000000000000000000000000000000000000000000600052601160045260246000fd5b60006118878261147e565b91507fffffffffffffffffffffffffffffffffffffffffffffffffffffffffffffffff82036118b9576118b861184d565b5b600182019050919050565b6000815190506118d381611754565b92915050565b6000602082840312156118ef576118ee611479565b5b60006118fd848285016118c4565b91505092915050565b600082825260208201905092915050565b7f63616c6c6572206973206e6f74206f776e657200000000000000000000000000600082015250565b600061194d601383611906565b915061195882611917565b602082019050919050565b6000602082019050818103600083015261197c81611940565b9050919050565b6000604082019050611998600083018561165d565b6119a5602083018461165d565b9392505050565b60008115159050919050565b6119c1816119ac565b81146119cc57600080fd5b50565b6000815190506119de816119b8565b92915050565b6000602082840312156119fa576119f9611479565b5b6000611a08848285016119cf565b91505092915050565b6000611a1c8261147e565b9150611a278361147e565b9250828202611a358161147e565b91508282048414831517611a4c57611a4b61184d565b5b5092915050565b6000611a5e8261147e565b9150611a698361147e565b9250828201905080821115611a8157611a8061184d565b5b92915050565b7f6f776e65722063616e6e6f7420626964206f6e206f776e730000000000000000600082015250565b6000611abd601883611906565b9150611ac882611a87565b602082019050919050565b60006020820190508181036000830152611aec81611ab0565b9050919050565b7f7468697320746f6b656e206973206e6f74206f6e2061756374696f6e00000000600082015250565b6000611b29601c83611906565b9150611b3482611af3565b602082019050919050565b60006020820190508181036000830152611b5881611b1c565b9050919050565b7f626964206d7573742062652067726561746572207468616e206c61737420626960008201527f6400000000000000000000000000000000000000000000000000000000000000602082015250565b6000611bbb602183611906565b9150611bc682611b5f565b604082019050919050565b60006020820190508181036000830152611bea81611bae565b9050919050565b6000611bfc8261147e565b9150611c078361147e565b9250828203905081811115611c1f57611c1e61184d565b5b92915050565b7f4e487b7100000000000000000000000000000000000000000000000000000000600052601260045260246000fd5b6000611c5f8261147e565b9150611c6a8361147e565b925082611c7a57611c79611c25565b5b828206905092915050565b50565b6000611c95600083611906565b9150611ca082611c85565b600082019050919050565b60006020820190508181036000830152611cc481611c88565b9050919050565b7f6f776e65722063616e6e6f7420627579206f776e730000000000000000000000600082015250565b6000611d01601583611906565b9150611d0c82611ccb565b602082019050919050565b60006020820190508181036000830152611d3081611cf4565b9050919050565b7f74686973206e6674206973206e6f74206f6e2073616c65000000000000000000600082015250565b6000611d6d601783611906565b9150611d7882611d37565b602082019050919050565b60006020820190508181036000830152611d9c81611d60565b9050919050565b7f7061796d656e7420646f73656e2774206d617463680000000000000000000000600082015250565b6000611dd9601583611906565b9150611de482611da3565b602082019050919050565b60006020820190508181036000830152611e0881611dcc565b9050919050565b6000611e1a8261147e565b9150611e258361147e565b925082611e3557611e34611c25565b5b828204905092915050565b600081905092915050565b6000611e58600083611e40565b9150611e6382611c85565b600082019050919050565b6000611e7982611e4b565b9150819050919050565b7f7061796d656e74206661696c6564000000000000000000000000000000000000600082015250565b6000611eb9600e83611906565b9150611ec482611e83565b602082019050919050565b60006020820190508181036000830152611ee881611eac565b9050919050565b6000606082019050611f04600083018661165d565b611f11602083018561165d565b611f1e60408301846114e1565b949350505050565b7f4f776e61626c653a206e6577206f776e657220697320746865207a65726f206160008201527f6464726573730000000000000000000000000000000000000000000000000000602082015250565b6000611f82602683611906565b9150611f8d82611f26565b604082019050919050565b60006020820190508181036000830152611fb181611f75565b9050919050565b7f4f776e61626c653a2063616c6c6572206973206e6f7420746865206f776e6572600082015250565b6000611fee602083611906565b9150611ff982611fb8565b602082019050919050565b6000602082019050818103600083015261201d81611fe1565b905091905056fea2646970667358221220120c3050ed91220ca6badd14c3803d0a4e460333182eaccde5b979c80e87491864736f6c63430008110033",
  "immutableReferences": {},
  "source": "// SPDX-License-Identifier: MIT\r\npragma solidity ^0.8.17;\r\n\r\nimport \"./TestToken.sol\";\r\nimport \"../node_modules/@openzeppelin/contracts/access/Ownable.sol\";\r\n\r\n// remix  \r\n// import \"openzeppelin-solidity/contracts/access/Ownable.sol\";\r\n\r\ncontract TestTrade is Ownable{\r\n    TestToken public Token;\r\n\r\n    uint256 public saleFeeRate = 5; //\r\n    // uint256 private _onSaleIndex = 0; // onSale  \r\n    // uint256 private _onAuctionIndex = 0; // onACUTION  \r\n\r\n    struct AuctionInfo {\r\n        uint256 lastBidPrice; //    \r\n        uint256 endTime;\r\n        address bider; //    address(0)\r\n    }\r\n\r\n    mapping(uint => uint) private _tokensOnSale;\r\n    // tokenId to price\r\n    mapping(uint => AuctionInfo) private _tokensOnAuction;\r\n    // tokenId to AuctionInfo\r\n\r\n    constructor(address tokenAddress_) {\r\n        Token = TestToken(tokenAddress_);\r\n    }\r\n\r\n    //  \r\n    function setSaleFeeRate(uint256 rate) external onlyOwner {\r\n        saleFeeRate = rate;\r\n    } \r\n\r\n    //   \r\n    function _countOnSale() private view returns(uint256) {\r\n        uint256 count;\r\n\r\n        for(uint tokenId = 1; tokenId <= Token.totalSupply(); tokenId++) {\r\n            if(_tokensOnSale[tokenId] != 0) count ++;\r\n        }\r\n\r\n        return count;\r\n    }\r\n\r\n    //   \r\n    function onSaleList() external view returns(uint256[] memory){\r\n        uint256[] memory tokensOnSale = new uint256[](_countOnSale()); //  \r\n        uint256 index = 0;\r\n\r\n        for(uint tokenId = 1; tokenId <= Token.totalSupply(); tokenId++) {\r\n            if(_tokensOnSale[tokenId] != 0) {\r\n                tokensOnSale[index] = tokenId;\r\n                index ++;\r\n            }\r\n        }\r\n\r\n        return tokensOnSale;\r\n    }\r\n\r\n    //   \r\n    function onSalePrice(uint256 tokenId) external view  returns(uint256)  {\r\n        return _tokensOnSale[tokenId];\r\n    }  \r\n\r\n    //   \r\n    function registerForSale(uint256 tokenId, uint256 price) external {\r\n        // require(_callerIsOwner(tokenId), \"caller is not owner\");\r\n        require(Token.ownerOf(tokenId) == msg.sender, \"caller is not owner\");\r\n        require(price > 0);\r\n        // Nft  setApprovalForAll(address operator, bool approved)  operator   CA    .\r\n        require(Token.isApprovedForAll(msg.sender, address(this)));\r\n\r\n        _tokensOnSale[tokenId] = price;\r\n        // _onSaleIndex += 1;\r\n    }\r\n\r\n    // \r\n    function purchase(uint256 tokenId) external payable {\r\n        uint256 price = _tokensOnSale[tokenId];\r\n        address tokenOwner = Token.ownerOf(tokenId);\r\n\r\n        require(tokenOwner != msg.sender, \"owner cannot buy owns\");\r\n        require(price > 0, \"this nft is not on sale\");\r\n        require(msg.value == price, \"payment dosen't match\");\r\n\r\n        uint256 incomeAfterFee = price * (100 - saleFeeRate) / 100;\r\n        (bool success, ) = msg.sender.call{value: incomeAfterFee}(\"\");\r\n        require(success, \"payment failed\");\r\n\r\n        Token.safeTransferFrom(tokenOwner, msg.sender, tokenId);\r\n        _tokensOnSale[tokenId] = 0; //  0    \r\n        // _onSaleIndex -= 0;\r\n    }\r\n\r\n    //  \r\n    function cancleSale(uint256 tokenId) external {\r\n        _tokensOnSale[tokenId] = 0; //  0    \r\n    }\r\n\r\n    //    ( )\r\n    function _countOnAuction() private view returns(uint256) {\r\n        uint256 count;\r\n\r\n        for(uint tokenId = 1; tokenId <= Token.totalSupply(); tokenId++) {\r\n            if(_tokensOnAuction[tokenId].lastBidPrice != 0) count ++; // lastBidPrice 0   \r\n        }\r\n\r\n        return count;\r\n    }\r\n\r\n    //    ( )\r\n    function onAuctionList() external view returns(uint256[] memory){\r\n        uint256[] memory tokensOnAuction = new uint256[](_countOnAuction()); //  \r\n        uint256 index = 0;\r\n\r\n        for(uint tokenId = 1; tokenId <= Token.totalSupply(); tokenId++) {\r\n            if(_tokensOnAuction[tokenId].lastBidPrice != 0) {\r\n                tokensOnAuction[index] = tokenId;\r\n                index ++;\r\n            }\r\n        }\r\n\r\n        return tokensOnAuction;\r\n    }\r\n\r\n    // \r\n    function registerForAuction(uint256 tokenId, uint256 minimumPrice, uint256 lastingMinutes) external {\r\n        // require(_callerIsOwner(tokenId), \"caller is not owner\");\r\n        require(Token.ownerOf(tokenId) == msg.sender, \"caller is not owner\");\r\n        require(minimumPrice > 0);\r\n        require(Token.isApprovedForAll(msg.sender, address(this)));\r\n\r\n        uint256 endTime = block.timestamp + lastingMinutes * 60;\r\n\r\n        _tokensOnAuction[tokenId] = AuctionInfo(minimumPrice, endTime, address(0)); //      address(0) \r\n        // _onAuctionIndex += 1;\r\n    }\r\n\r\n    //  \r\n    // struct AuctionInfo {\r\n    //     uint256 lastBidPrice; //    \r\n    //     uint256 endTime;\r\n    //     address bider; //    address(0)\r\n    // }\r\n    function bidOnAcution(uint256 tokenId) external payable{\r\n        uint256 lastBidPrice = _tokensOnAuction[tokenId].lastBidPrice;\r\n        uint256 endTime = _tokensOnAuction[tokenId].endTime;\r\n        address bider = _tokensOnAuction[tokenId].bider;\r\n        // {uint256 lastBidPrice, uint256 endTime, address bider} = _tokensOnAuction[tokenId];\r\n\r\n        require(Token.ownerOf(tokenId) != msg.sender, \"owner cannot bid on owns\"); //   \r\n        require(lastBidPrice > 0 , \"this token is not on auction\"); //  \r\n        require(msg.value > lastBidPrice, \"bid must be greater than last bid\"); //     \r\n        require((msg.value - lastBidPrice) % 0.001 ether == 0, \"\");\r\n\r\n    }\r\n\r\n    //   \r\n    function cancleFailedAuction() external {\r\n\r\n    }\r\n\r\n    //   \r\n    function refundBid() external {\r\n\r\n    }\r\n\r\n    //  NFT  \r\n    function claimTokenForWinner() external {\r\n        \r\n    }\r\n\r\n\r\n\r\n\r\n    // function _callerIsOwner(uint256 tokenId) private view returns(bool) {\r\n    //     return Token.ownerOf(tokenId) == msg.sender;\r\n    // }\r\n\r\n\r\n}",
  "sourcePath": "C:\\Users\\KGA_\\Desktop\\nft_1222\\blockChain\\contracts\\TestTrade.sol",
  "compiler": {
    "name": "solc",
    "version": "0.8.17+commit.8df45f5f.Emscripten.clang"
  },
  "schemaVersion": "3.4.11",
  "updatedAt": "2022-12-22T07:16:24.927Z",
  "devdoc": {
    "kind": "dev",
    "methods": {
      "owner()": {
        "details": "Returns the address of the current owner."
      },
      "renounceOwnership()": {
        "details": "Leaves the contract without owner. It will not be possible to call `onlyOwner` functions anymore. Can only be called by the current owner. NOTE: Renouncing ownership will leave the contract without an owner, thereby removing any functionality that is only available to the owner."
      },
      "transferOwnership(address)": {
        "details": "Transfers ownership of the contract to a new account (`newOwner`). Can only be called by the current owner."
      }
    },
    "version": 1
  },
  "userdoc": {
    "kind": "user",
    "methods": {},
    "version": 1
  }
}