{
  "contractName": "TestToken",
  "abi": [
    {
      "inputs": [
        {
          "internalType": "uint256",
          "name": "maxBatchSize_",
          "type": "uint256"
        },
        {
          "internalType": "uint256",
          "name": "collectionSize_",
          "type": "uint256"
        }
      ],
      "stateMutability": "nonpayable",
      "type": "constructor"
    },
    {
      "anonymous": false,
      "inputs": [
        {
          "indexed": true,
          "internalType": "address",
          "name": "owner",
          "type": "address"
        },
        {
          "indexed": true,
          "internalType": "address",
          "name": "approved",
          "type": "address"
        },
        {
          "indexed": true,
          "internalType": "uint256",
          "name": "tokenId",
          "type": "uint256"
        }
      ],
      "name": "Approval",
      "type": "event"
    },
    {
      "anonymous": false,
      "inputs": [
        {
          "indexed": true,
          "internalType": "address",
          "name": "owner",
          "type": "address"
        },
        {
          "indexed": true,
          "internalType": "address",
          "name": "operator",
          "type": "address"
        },
        {
          "indexed": false,
          "internalType": "bool",
          "name": "approved",
          "type": "bool"
        }
      ],
      "name": "ApprovalForAll",
      "type": "event"
    },
    {
      "anonymous": false,
      "inputs": [
        {
          "indexed": false,
          "internalType": "address",
          "name": "minter",
          "type": "address"
        },
        {
          "indexed": false,
          "internalType": "uint256",
          "name": "quantity",
          "type": "uint256"
        },
        {
          "indexed": false,
          "internalType": "uint256",
          "name": "totalSupply",
          "type": "uint256"
        }
      ],
      "name": "MintTestToken",
      "type": "event"
    },
    {
      "anonymous": false,
      "inputs": [
        {
          "indexed": true,
          "internalType": "address",
          "name": "previousOwner",
          "type": "address"
        },
        {
          "indexed": true,
          "internalType": "address",
          "name": "newOwner",
          "type": "address"
        }
      ],
      "name": "OwnershipTransferred",
      "type": "event"
    },
    {
      "anonymous": false,
      "inputs": [
        {
          "indexed": false,
          "internalType": "uint256",
          "name": "mintPrice",
          "type": "uint256"
        },
        {
          "indexed": false,
          "internalType": "bool",
          "name": "isMintOn",
          "type": "bool"
        }
      ],
      "name": "SetMintOn",
      "type": "event"
    },
    {
      "anonymous": false,
      "inputs": [
        {
          "indexed": true,
          "internalType": "address",
          "name": "from",
          "type": "address"
        },
        {
          "indexed": true,
          "internalType": "address",
          "name": "to",
          "type": "address"
        },
        {
          "indexed": true,
          "internalType": "uint256",
          "name": "tokenId",
          "type": "uint256"
        }
      ],
      "name": "Transfer",
      "type": "event"
    },
    {
      "inputs": [
        {
          "internalType": "address",
          "name": "to",
          "type": "address"
        },
        {
          "internalType": "uint256",
          "name": "tokenId",
          "type": "uint256"
        }
      ],
      "name": "approve",
      "outputs": [],
      "stateMutability": "nonpayable",
      "type": "function"
    },
    {
      "inputs": [
        {
          "internalType": "address",
          "name": "owner",
          "type": "address"
        }
      ],
      "name": "balanceOf",
      "outputs": [
        {
          "internalType": "uint256",
          "name": "",
          "type": "uint256"
        }
      ],
      "stateMutability": "view",
      "type": "function",
      "constant": true
    },
    {
      "inputs": [
        {
          "internalType": "uint256",
          "name": "tokenId",
          "type": "uint256"
        }
      ],
      "name": "getApproved",
      "outputs": [
        {
          "internalType": "address",
          "name": "",
          "type": "address"
        }
      ],
      "stateMutability": "view",
      "type": "function",
      "constant": true
    },
    {
      "inputs": [
        {
          "internalType": "address",
          "name": "owner",
          "type": "address"
        },
        {
          "internalType": "address",
          "name": "operator",
          "type": "address"
        }
      ],
      "name": "isApprovedForAll",
      "outputs": [
        {
          "internalType": "bool",
          "name": "",
          "type": "bool"
        }
      ],
      "stateMutability": "view",
      "type": "function",
      "constant": true
    },
    {
      "inputs": [],
      "name": "maxAmountPerMint",
      "outputs": [
        {
          "internalType": "uint256",
          "name": "",
          "type": "uint256"
        }
      ],
      "stateMutability": "view",
      "type": "function",
      "constant": true
    },
    {
      "inputs": [],
      "name": "mintPrice",
      "outputs": [
        {
          "internalType": "uint256",
          "name": "",
          "type": "uint256"
        }
      ],
      "stateMutability": "view",
      "type": "function",
      "constant": true
    },
    {
      "inputs": [],
      "name": "name",
      "outputs": [
        {
          "internalType": "string",
          "name": "",
          "type": "string"
        }
      ],
      "stateMutability": "view",
      "type": "function",
      "constant": true
    },
    {
      "inputs": [],
      "name": "nextOwnerToExplicitlySet",
      "outputs": [
        {
          "internalType": "uint256",
          "name": "",
          "type": "uint256"
        }
      ],
      "stateMutability": "view",
      "type": "function",
      "constant": true
    },
    {
      "inputs": [],
      "name": "owner",
      "outputs": [
        {
          "internalType": "address",
          "name": "",
          "type": "address"
        }
      ],
      "stateMutability": "view",
      "type": "function",
      "constant": true
    },
    {
      "inputs": [
        {
          "internalType": "uint256",
          "name": "tokenId",
          "type": "uint256"
        }
      ],
      "name": "ownerOf",
      "outputs": [
        {
          "internalType": "address",
          "name": "",
          "type": "address"
        }
      ],
      "stateMutability": "view",
      "type": "function",
      "constant": true
    },
    {
      "inputs": [],
      "name": "renounceOwnership",
      "outputs": [],
      "stateMutability": "nonpayable",
      "type": "function"
    },
    {
      "inputs": [
        {
          "internalType": "address",
          "name": "from",
          "type": "address"
        },
        {
          "internalType": "address",
          "name": "to",
          "type": "address"
        },
        {
          "internalType": "uint256",
          "name": "tokenId",
          "type": "uint256"
        }
      ],
      "name": "safeTransferFrom",
      "outputs": [],
      "stateMutability": "nonpayable",
      "type": "function"
    },
    {
      "inputs": [
        {
          "internalType": "address",
          "name": "from",
          "type": "address"
        },
        {
          "internalType": "address",
          "name": "to",
          "type": "address"
        },
        {
          "internalType": "uint256",
          "name": "tokenId",
          "type": "uint256"
        },
        {
          "internalType": "bytes",
          "name": "_data",
          "type": "bytes"
        }
      ],
      "name": "safeTransferFrom",
      "outputs": [],
      "stateMutability": "nonpayable",
      "type": "function"
    },
    {
      "inputs": [
        {
          "internalType": "address",
          "name": "operator",
          "type": "address"
        },
        {
          "internalType": "bool",
          "name": "approved",
          "type": "bool"
        }
      ],
      "name": "setApprovalForAll",
      "outputs": [],
      "stateMutability": "nonpayable",
      "type": "function"
    },
    {
      "inputs": [
        {
          "internalType": "bytes4",
          "name": "interfaceId",
          "type": "bytes4"
        }
      ],
      "name": "supportsInterface",
      "outputs": [
        {
          "internalType": "bool",
          "name": "",
          "type": "bool"
        }
      ],
      "stateMutability": "view",
      "type": "function",
      "constant": true
    },
    {
      "inputs": [],
      "name": "symbol",
      "outputs": [
        {
          "internalType": "string",
          "name": "",
          "type": "string"
        }
      ],
      "stateMutability": "view",
      "type": "function",
      "constant": true
    },
    {
      "inputs": [
        {
          "internalType": "uint256",
          "name": "index",
          "type": "uint256"
        }
      ],
      "name": "tokenByIndex",
      "outputs": [
        {
          "internalType": "uint256",
          "name": "",
          "type": "uint256"
        }
      ],
      "stateMutability": "view",
      "type": "function",
      "constant": true
    },
    {
      "inputs": [
        {
          "internalType": "address",
          "name": "owner",
          "type": "address"
        },
        {
          "internalType": "uint256",
          "name": "index",
          "type": "uint256"
        }
      ],
      "name": "tokenOfOwnerByIndex",
      "outputs": [
        {
          "internalType": "uint256",
          "name": "",
          "type": "uint256"
        }
      ],
      "stateMutability": "view",
      "type": "function",
      "constant": true
    },
    {
      "inputs": [
        {
          "internalType": "uint256",
          "name": "tokenId",
          "type": "uint256"
        }
      ],
      "name": "tokenURI",
      "outputs": [
        {
          "internalType": "string",
          "name": "",
          "type": "string"
        }
      ],
      "stateMutability": "view",
      "type": "function",
      "constant": true
    },
    {
      "inputs": [],
      "name": "totalSupply",
      "outputs": [
        {
          "internalType": "uint256",
          "name": "",
          "type": "uint256"
        }
      ],
      "stateMutability": "view",
      "type": "function",
      "constant": true
    },
    {
      "inputs": [
        {
          "internalType": "address",
          "name": "from",
          "type": "address"
        },
        {
          "internalType": "address",
          "name": "to",
          "type": "address"
        },
        {
          "internalType": "uint256",
          "name": "tokenId",
          "type": "uint256"
        }
      ],
      "name": "transferFrom",
      "outputs": [],
      "stateMutability": "nonpayable",
      "type": "function"
    },
    {
      "inputs": [
        {
          "internalType": "address",
          "name": "newOwner",
          "type": "address"
        }
      ],
      "name": "transferOwnership",
      "outputs": [],
      "stateMutability": "nonpayable",
      "type": "function"
    },
    {
      "inputs": [],
      "name": "getCA",
      "outputs": [
        {
          "internalType": "address",
          "name": "",
          "type": "address"
        }
      ],
      "stateMutability": "view",
      "type": "function",
      "constant": true
    },
    {
      "inputs": [
        {
          "internalType": "uint256",
          "name": "price",
          "type": "uint256"
        }
      ],
      "name": "setMintOn",
      "outputs": [],
      "stateMutability": "nonpayable",
      "type": "function"
    },
    {
      "inputs": [
        {
          "internalType": "uint256",
          "name": "price",
          "type": "uint256"
        }
      ],
      "name": "setMintOff",
      "outputs": [],
      "stateMutability": "nonpayable",
      "type": "function"
    },
    {
      "inputs": [],
      "name": "isMintOn",
      "outputs": [
        {
          "internalType": "bool",
          "name": "",
          "type": "bool"
        }
      ],
      "stateMutability": "view",
      "type": "function",
      "constant": true
    },
    {
      "inputs": [
        {
          "internalType": "uint256",
          "name": "quantity",
          "type": "uint256"
        }
      ],
      "name": "mintTestToken",
      "outputs": [],
      "stateMutability": "payable",
      "type": "function",
      "payable": true
    },
    {
      "inputs": [
        {
          "internalType": "string",
          "name": "baseURI",
          "type": "string"
        }
      ],
      "name": "setBaseURI",
      "outputs": [],
      "stateMutability": "nonpayable",
      "type": "function"
    },
    {
      "inputs": [],
      "name": "withdrawAll",
      "outputs": [],
      "stateMutability": "nonpayable",
      "type": "function"
    },
    {
      "inputs": [],
      "name": "maxSupply",
      "outputs": [
        {
          "internalType": "uint256",
          "name": "",
          "type": "uint256"
        }
      ],
      "stateMutability": "view",
      "type": "function",
      "constant": true
    },
    {
      "inputs": [
        {
          "internalType": "address",
          "name": "owner",
          "type": "address"
        }
      ],
      "name": "tokensOfOwner",
      "outputs": [
        {
          "internalType": "uint256[]",
          "name": "",
          "type": "uint256[]"
        }
      ],
      "stateMutability": "view",
      "type": "function",
      "constant": true
    }
  ],
  "bytecode": "0x60e0604052600160005560006007556040518060400160405280601681526020017f687474703a2f2f6c6f63616c686f73743a343030302f00000000000000000000815250600b90816200005491906200053a565b503480156200006257600080fd5b50604051620053f0380380620053f0833981810160405281019062000088919062000657565b6040518060400160405280600481526020017f53656f70000000000000000000000000000000000000000000000000000000008152506040518060400160405280600381526020017f53455000000000000000000000000000000000000000000000000000000000008152508383600081116200013c576040517f08c379a0000000000000000000000000000000000000000000000000000000008152600401620001339062000725565b60405180910390fd5b6000821162000182576040517f08c379a00000000000000000000000000000000000000000000000000000000081526004016200017990620007bd565b60405180910390fd5b83600190816200019391906200053a565b508260029081620001a591906200053a565b508160a08181525050806080818152505050505050620001da620001ce620001f260201b60201c565b620001fa60201b60201c565b60016009819055508160c081815250505050620007df565b600033905090565b6000600860009054906101000a900473ffffffffffffffffffffffffffffffffffffffff16905081600860006101000a81548173ffffffffffffffffffffffffffffffffffffffff021916908373ffffffffffffffffffffffffffffffffffffffff1602179055508173ffffffffffffffffffffffffffffffffffffffff168173ffffffffffffffffffffffffffffffffffffffff167f8be0079c531659141344cd1fd0a4f28419497f9722a3daafe3b4186f6b6457e060405160405180910390a35050565b600081519050919050565b7f4e487b7100000000000000000000000000000000000000000000000000000000600052604160045260246000fd5b7f4e487b7100000000000000000000000000000000000000000000000000000000600052602260045260246000fd5b600060028204905060018216806200034257607f821691505b602082108103620003585762000357620002fa565b5b50919050565b60008190508160005260206000209050919050565b60006020601f8301049050919050565b600082821b905092915050565b600060088302620003c27fffffffffffffffffffffffffffffffffffffffffffffffffffffffffffffffff8262000383565b620003ce868362000383565b95508019841693508086168417925050509392505050565b6000819050919050565b6000819050919050565b60006200041b620004156200040f84620003e6565b620003f0565b620003e6565b9050919050565b6000819050919050565b6200043783620003fa565b6200044f620004468262000422565b84845462000390565b825550505050565b600090565b6200046662000457565b620004738184846200042c565b505050565b5b818110156200049b576200048f6000826200045c565b60018101905062000479565b5050565b601f821115620004ea57620004b4816200035e565b620004bf8462000373565b81016020851015620004cf578190505b620004e7620004de8562000373565b83018262000478565b50505b505050565b600082821c905092915050565b60006200050f60001984600802620004ef565b1980831691505092915050565b60006200052a8383620004fc565b9150826002028217905092915050565b6200054582620002c0565b67ffffffffffffffff811115620005615762000560620002cb565b5b6200056d825462000329565b6200057a8282856200049f565b600060209050601f831160018114620005b257600084156200059d578287015190505b620005a985826200051c565b86555062000619565b601f198416620005c2866200035e565b60005b82811015620005ec57848901518255600182019150602085019450602081019050620005c5565b868310156200060c578489015162000608601f891682620004fc565b8355505b6001600288020188555050505b505050505050565b600080fd5b6200063181620003e6565b81146200063d57600080fd5b50565b600081519050620006518162000626565b92915050565b6000806040838503121562000671576200067062000621565b5b6000620006818582860162000640565b9250506020620006948582860162000640565b9150509250929050565b600082825260208201905092915050565b7f455243373231413a20636f6c6c656374696f6e206d757374206861766520612060008201527f6e6f6e7a65726f20737570706c79000000000000000000000000000000000000602082015250565b60006200070d602e836200069e565b91506200071a82620006af565b604082019050919050565b600060208201905081810360008301526200074081620006fe565b9050919050565b7f455243373231413a206d61782062617463682073697a65206d7573742062652060008201527f6e6f6e7a65726f00000000000000000000000000000000000000000000000000602082015250565b6000620007a56027836200069e565b9150620007b28262000747565b604082019050919050565b60006020820190508181036000830152620007d88162000796565b9050919050565b60805160a05160c051614bc56200082b60003960008181610b0c0152610f36015260008181612085015281816120ae0152612724015260008181610f9901526117820152614bc56000f3fe6080604052600436106101d85760003560e01c80636edfed2e11610102578063aa7f90b011610095578063d7224ba011610064578063d7224ba0146106af578063e985e9c5146106da578063f2fde38b14610717578063fd8cf88814610740576101d8565b8063aa7f90b0146105f5578063b88d4fde1461061e578063c87b56dd14610647578063d5abeb0114610684576101d8565b8063853828b6116100d1578063853828b61461055f5780638da5cb5b1461057657806395d89b41146105a1578063a22cb465146105cc576101d8565b80636edfed2e146104b257806370a08231146104ce578063715018a61461050b5780638462151c14610522576101d8565b8063289065da1161017a57806355f804b31161014957806355f804b3146103f65780636352211e1461041f5780636817c76c1461045c5780636e06062414610487576101d8565b8063289065da1461032a5780632f745c591461035357806342842e0e146103905780634f6ccce7146103b9576101d8565b8063095ea7b3116101b6578063095ea7b31461028257806318160ddd146102ab57806323b872dd146102d657806327acc76d146102ff576101d8565b806301ffc9a7146101dd57806306fdde031461021a578063081812fc14610245575b600080fd5b3480156101e957600080fd5b5061020460048036038101906101ff9190612d5e565b61076b565b6040516102119190612da6565b60405180910390f35b34801561022657600080fd5b5061022f6108b5565b60405161023c9190612e51565b60405180910390f35b34801561025157600080fd5b5061026c60048036038101906102679190612ea9565b610947565b6040516102799190612f17565b60405180910390f35b34801561028e57600080fd5b506102a960048036038101906102a49190612f5e565b6109cc565b005b3480156102b757600080fd5b506102c0610ae4565b6040516102cd9190612fad565b60405180910390f35b3480156102e257600080fd5b506102fd60048036038101906102f89190612fc8565b610afa565b005b34801561030b57600080fd5b50610314610b0a565b6040516103219190612fad565b60405180910390f35b34801561033657600080fd5b50610351600480360381019061034c9190612ea9565b610b2e565b005b34801561035f57600080fd5b5061037a60048036038101906103759190612f5e565b610bc9565b6040516103879190612fad565b60405180910390f35b34801561039c57600080fd5b506103b760048036038101906103b29190612fc8565b610dc8565b005b3480156103c557600080fd5b506103e060048036038101906103db9190612ea9565b610de8565b6040516103ed9190612fad565b60405180910390f35b34801561040257600080fd5b5061041d60048036038101906104189190613150565b610e3b565b005b34801561042b57600080fd5b5061044660048036038101906104419190612ea9565b610e56565b6040516104539190612f17565b60405180910390f35b34801561046857600080fd5b50610471610e6c565b60405161047e9190612fad565b60405180910390f35b34801561049357600080fd5b5061049c610e72565b6040516104a99190612da6565b60405180910390f35b6104cc60048036038101906104c79190612ea9565b610e7f565b005b3480156104da57600080fd5b506104f560048036038101906104f09190613199565b6110aa565b6040516105029190612fad565b60405180910390f35b34801561051757600080fd5b50610520611192565b005b34801561052e57600080fd5b5061054960048036038101906105449190613199565b6111a6565b6040516105569190613284565b60405180910390f35b34801561056b57600080fd5b5061057461125a565b005b34801561058257600080fd5b5061058b611364565b6040516105989190612f17565b60405180910390f35b3480156105ad57600080fd5b506105b661138e565b6040516105c39190612e51565b60405180910390f35b3480156105d857600080fd5b506105f360048036038101906105ee91906132d2565b611420565b005b34801561060157600080fd5b5061061c60048036038101906106179190612ea9565b6115a0565b005b34801561062a57600080fd5b50610645600480360381019061064091906133b3565b61167b565b005b34801561065357600080fd5b5061066e60048036038101906106699190612ea9565b6116d7565b60405161067b9190612e51565b60405180910390f35b34801561069057600080fd5b5061069961177e565b6040516106a69190612fad565b60405180910390f35b3480156106bb57600080fd5b506106c46117a6565b6040516106d19190612fad565b60405180910390f35b3480156106e657600080fd5b5061070160048036038101906106fc9190613436565b6117ac565b60405161070e9190612da6565b60405180910390f35b34801561072357600080fd5b5061073e60048036038101906107399190613199565b611840565b005b34801561074c57600080fd5b506107556118c3565b6040516107629190612f17565b60405180910390f35b60007f80ac58cd000000000000000000000000000000000000000000000000000000007bffffffffffffffffffffffffffffffffffffffffffffffffffffffff1916827bffffffffffffffffffffffffffffffffffffffffffffffffffffffff1916148061083657507f5b5e139f000000000000000000000000000000000000000000000000000000007bffffffffffffffffffffffffffffffffffffffffffffffffffffffff1916827bffffffffffffffffffffffffffffffffffffffffffffffffffffffff1916145b8061089e57507f780e9d63000000000000000000000000000000000000000000000000000000007bffffffffffffffffffffffffffffffffffffffffffffffffffffffff1916827bffffffffffffffffffffffffffffffffffffffffffffffffffffffff1916145b806108ae57506108ad826118cb565b5b9050919050565b6060600180546108c4906134a5565b80601f01602080910402602001604051908101604052809291908181526020018280546108f0906134a5565b801561093d5780601f106109125761010080835404028352916020019161093d565b820191906000526020600020905b81548152906001019060200180831161092057829003601f168201915b5050505050905090565b600061095282611935565b610991576040517f08c379a000000000000000000000000000000000000000000000000000000000815260040161098890613548565b60405180910390fd5b6005600083815260200190815260200160002060009054906101000a900473ffffffffffffffffffffffffffffffffffffffff169050919050565b60006109d782610e56565b90508073ffffffffffffffffffffffffffffffffffffffff168373ffffffffffffffffffffffffffffffffffffffff1603610a47576040517f08c379a0000000000000000000000000000000000000000000000000000000008152600401610a3e906135da565b60405180910390fd5b8073ffffffffffffffffffffffffffffffffffffffff16610a66611942565b73ffffffffffffffffffffffffffffffffffffffff161480610a955750610a9481610a8f611942565b6117ac565b5b610ad4576040517f08c379a0000000000000000000000000000000000000000000000000000000008152600401610acb9061366c565b60405180910390fd5b610adf83838361194a565b505050565b60006001600054610af591906136bb565b905090565b610b058383836119fc565b505050565b7f000000000000000000000000000000000000000000000000000000000000000081565b610b36611fb3565b6000600a5403610b7b576040517f08c379a0000000000000000000000000000000000000000000000000000000008152600401610b729061373b565b60405180910390fd5b60008114610bbe576040517f08c379a0000000000000000000000000000000000000000000000000000000008152600401610bb5906137a7565b60405180910390fd5b6000600a8190555050565b6000610bd4836110aa565b8210610c15576040517f08c379a0000000000000000000000000000000000000000000000000000000008152600401610c0c90613839565b60405180910390fd5b6000610c1f610ae4565b90506000806000600190505b838111610d86576000600360008381526020019081526020016000206040518060400160405290816000820160009054906101000a900473ffffffffffffffffffffffffffffffffffffffff1673ffffffffffffffffffffffffffffffffffffffff1673ffffffffffffffffffffffffffffffffffffffff1681526020016000820160149054906101000a900467ffffffffffffffff1667ffffffffffffffff1667ffffffffffffffff16815250509050600073ffffffffffffffffffffffffffffffffffffffff16816000015173ffffffffffffffffffffffffffffffffffffffff1614610d1c57806000015192505b8773ffffffffffffffffffffffffffffffffffffffff168373ffffffffffffffffffffffffffffffffffffffff1603610d7257868403610d63578195505050505050610dc2565b8380610d6e90613859565b9450505b508080610d7e90613859565b915050610c2b565b506040517f08c379a0000000000000000000000000000000000000000000000000000000008152600401610db990613913565b60405180910390fd5b92915050565b610de38383836040518060200160405280600081525061167b565b505050565b6000610df2610ae4565b8210610e33576040517f08c379a0000000000000000000000000000000000000000000000000000000008152600401610e2a906139a5565b60405180910390fd5b819050919050565b610e43611fb3565b80600b9081610e529190613b71565b5050565b6000610e6182612031565b600001519050919050565b600a5481565b600080600a541415905090565b3373ffffffffffffffffffffffffffffffffffffffff163273ffffffffffffffffffffffffffffffffffffffff1614610eed576040517f08c379a0000000000000000000000000000000000000000000000000000000008152600401610ee490613c8f565b60405180910390fd5b610ef5610e72565b610f34576040517f08c379a0000000000000000000000000000000000000000000000000000000008152600401610f2b90613cfb565b60405180910390fd5b7f0000000000000000000000000000000000000000000000000000000000000000811115610f97576040517f08c379a0000000000000000000000000000000000000000000000000000000008152600401610f8e90613d67565b60405180910390fd5b7f000000000000000000000000000000000000000000000000000000000000000081610fc1610ae4565b610fcb9190613d87565b111561100c576040517f08c379a000000000000000000000000000000000000000000000000000000000815260040161100390613e07565b60405180910390fd5b600a548161101a9190613e27565b341461105b576040517f08c379a000000000000000000000000000000000000000000000000000000000815260040161105290613eb5565b60405180910390fd5b6110653382612234565b7fd9c99e30d5f0d6f7dd3ef921d6895beddfc3b60646cfcd6996791c5166e2c79e3382611090610ae4565b60405161109f93929190613ed5565b60405180910390a150565b60008073ffffffffffffffffffffffffffffffffffffffff168273ffffffffffffffffffffffffffffffffffffffff160361111a576040517f08c379a000000000000000000000000000000000000000000000000000000000815260040161111190613f7e565b60405180910390fd5b600460008373ffffffffffffffffffffffffffffffffffffffff1673ffffffffffffffffffffffffffffffffffffffff16815260200190815260200160002060000160009054906101000a90046fffffffffffffffffffffffffffffffff166fffffffffffffffffffffffffffffffff169050919050565b61119a611fb3565b6111a46000612252565b565b606060006111b3836110aa565b905060008167ffffffffffffffff8111156111d1576111d0613025565b5b6040519080825280602002602001820160405280156111ff5781602001602082028036833780820191505090505b50905060005b8281101561124f5760006112198683610bc9565b90508083838151811061122f5761122e613f9e565b5b60200260200101818152505050808061124790613859565b915050611205565b508092505050919050565b611262611fb3565b61126a612318565b600047116112ad576040517f08c379a00000000000000000000000000000000000000000000000000000000081526004016112a490614019565b60405180910390fd5b60003373ffffffffffffffffffffffffffffffffffffffff16476040516112d39061406a565b60006040518083038185875af1925050503d8060008114611310576040519150601f19603f3d011682016040523d82523d6000602084013e611315565b606091505b5050905080611359576040517f08c379a0000000000000000000000000000000000000000000000000000000008152600401611350906140cb565b60405180910390fd5b50611362612367565b565b6000600860009054906101000a900473ffffffffffffffffffffffffffffffffffffffff16905090565b60606002805461139d906134a5565b80601f01602080910402602001604051908101604052809291908181526020018280546113c9906134a5565b80156114165780601f106113eb57610100808354040283529160200191611416565b820191906000526020600020905b8154815290600101906020018083116113f957829003601f168201915b5050505050905090565b611428611942565b73ffffffffffffffffffffffffffffffffffffffff168273ffffffffffffffffffffffffffffffffffffffff1603611495576040517f08c379a000000000000000000000000000000000000000000000000000000000815260040161148c90614137565b60405180910390fd5b80600660006114a2611942565b73ffffffffffffffffffffffffffffffffffffffff1673ffffffffffffffffffffffffffffffffffffffff16815260200190815260200160002060008473ffffffffffffffffffffffffffffffffffffffff1673ffffffffffffffffffffffffffffffffffffffff16815260200190815260200160002060006101000a81548160ff0219169083151502179055508173ffffffffffffffffffffffffffffffffffffffff1661154f611942565b73ffffffffffffffffffffffffffffffffffffffff167f17307eab39ab6107e8899845ad3d59bd9653f200f220920489ca2b5937696c31836040516115949190612da6565b60405180910390a35050565b6115a8611fb3565b600081116115eb576040517f08c379a00000000000000000000000000000000000000000000000000000000081526004016115e2906141a3565b60405180910390fd5b600a54810361162f576040517f08c379a00000000000000000000000000000000000000000000000000000000081526004016116269061420f565b60405180910390fd5b80600a819055507fa90bff0aceea45301d0f327bedcaa08f4704297dfd3c9937dcdd580a6435b9d8600a54611662610e72565b60405161167092919061422f565b60405180910390a150565b6116868484846119fc565b61169284848484612371565b6116d1576040517f08c379a00000000000000000000000000000000000000000000000000000000081526004016116c8906142ca565b60405180910390fd5b50505050565b60606116e282611935565b611721576040517f08c379a00000000000000000000000000000000000000000000000000000000081526004016117189061435c565b60405180910390fd5b600061172b6124f8565b9050600081511161174b5760405180602001604052806000815250611776565b806117558461258a565b6040516020016117669291906143b8565b6040516020818303038152906040525b915050919050565b60007f0000000000000000000000000000000000000000000000000000000000000000905090565b60075481565b6000600660008473ffffffffffffffffffffffffffffffffffffffff1673ffffffffffffffffffffffffffffffffffffffff16815260200190815260200160002060008373ffffffffffffffffffffffffffffffffffffffff1673ffffffffffffffffffffffffffffffffffffffff16815260200190815260200160002060009054906101000a900460ff16905092915050565b611848611fb3565b600073ffffffffffffffffffffffffffffffffffffffff168173ffffffffffffffffffffffffffffffffffffffff16036118b7576040517f08c379a00000000000000000000000000000000000000000000000000000000081526004016118ae9061444e565b60405180910390fd5b6118c081612252565b50565b600030905090565b60007f01ffc9a7000000000000000000000000000000000000000000000000000000007bffffffffffffffffffffffffffffffffffffffffffffffffffffffff1916827bffffffffffffffffffffffffffffffffffffffffffffffffffffffff1916149050919050565b6000805482109050919050565b600033905090565b826005600084815260200190815260200160002060006101000a81548173ffffffffffffffffffffffffffffffffffffffff021916908373ffffffffffffffffffffffffffffffffffffffff160217905550818373ffffffffffffffffffffffffffffffffffffffff168273ffffffffffffffffffffffffffffffffffffffff167f8c5be1e5ebec7d5bd14f71427d1e84f3dd0314c0f7b2291e5b200ac8c7c3b92560405160405180910390a4505050565b6000611a0782612031565b90506000816000015173ffffffffffffffffffffffffffffffffffffffff16611a2e611942565b73ffffffffffffffffffffffffffffffffffffffff161480611a8a5750611a53611942565b73ffffffffffffffffffffffffffffffffffffffff16611a7284610947565b73ffffffffffffffffffffffffffffffffffffffff16145b80611aa65750611aa58260000151611aa0611942565b6117ac565b5b905080611ae8576040517f08c379a0000000000000000000000000000000000000000000000000000000008152600401611adf906144e0565b60405180910390fd5b8473ffffffffffffffffffffffffffffffffffffffff16826000015173ffffffffffffffffffffffffffffffffffffffff1614611b5a576040517f08c379a0000000000000000000000000000000000000000000000000000000008152600401611b5190614572565b60405180910390fd5b600073ffffffffffffffffffffffffffffffffffffffff168473ffffffffffffffffffffffffffffffffffffffff1603611bc9576040517f08c379a0000000000000000000000000000000000000000000000000000000008152600401611bc090614604565b60405180910390fd5b611bd68585856001612658565b611be6600084846000015161194a565b6001600460008773ffffffffffffffffffffffffffffffffffffffff1673ffffffffffffffffffffffffffffffffffffffff16815260200190815260200160002060000160008282829054906101000a90046fffffffffffffffffffffffffffffffff16611c549190614640565b92506101000a8154816fffffffffffffffffffffffffffffffff02191690836fffffffffffffffffffffffffffffffff1602179055506001600460008673ffffffffffffffffffffffffffffffffffffffff1673ffffffffffffffffffffffffffffffffffffffff16815260200190815260200160002060000160008282829054906101000a90046fffffffffffffffffffffffffffffffff16611cf89190614684565b92506101000a8154816fffffffffffffffffffffffffffffffff02191690836fffffffffffffffffffffffffffffffff16021790555060405180604001604052808573ffffffffffffffffffffffffffffffffffffffff1681526020014267ffffffffffffffff168152506003600085815260200190815260200160002060008201518160000160006101000a81548173ffffffffffffffffffffffffffffffffffffffff021916908373ffffffffffffffffffffffffffffffffffffffff16021790555060208201518160000160146101000a81548167ffffffffffffffff021916908367ffffffffffffffff1602179055509050506000600184611dfe9190613d87565b9050600073ffffffffffffffffffffffffffffffffffffffff166003600083815260200190815260200160002060000160009054906101000a900473ffffffffffffffffffffffffffffffffffffffff1673ffffffffffffffffffffffffffffffffffffffff1603611f4357611e7381611935565b15611f42576040518060400160405280846000015173ffffffffffffffffffffffffffffffffffffffff168152602001846020015167ffffffffffffffff168152506003600083815260200190815260200160002060008201518160000160006101000a81548173ffffffffffffffffffffffffffffffffffffffff021916908373ffffffffffffffffffffffffffffffffffffffff16021790555060208201518160000160146101000a81548167ffffffffffffffff021916908367ffffffffffffffff1602179055509050505b5b838573ffffffffffffffffffffffffffffffffffffffff168773ffffffffffffffffffffffffffffffffffffffff167fddf252ad1be2c89b69c2b068fc378daa952ba7f163c4a11628f55a4df523b3ef60405160405180910390a4611fab868686600161265e565b505050505050565b611fbb611942565b73ffffffffffffffffffffffffffffffffffffffff16611fd9611364565b73ffffffffffffffffffffffffffffffffffffffff161461202f576040517f08c379a000000000000000000000000000000000000000000000000000000000815260040161202690614714565b60405180910390fd5b565b612039612cb8565b61204282611935565b612081576040517f08c379a0000000000000000000000000000000000000000000000000000000008152600401612078906147a6565b60405180910390fd5b60007f000000000000000000000000000000000000000000000000000000000000000083106120e55760017f0000000000000000000000000000000000000000000000000000000000000000846120d891906136bb565b6120e29190613d87565b90505b60008390505b8181106121f3576000600360008381526020019081526020016000206040518060400160405290816000820160009054906101000a900473ffffffffffffffffffffffffffffffffffffffff1673ffffffffffffffffffffffffffffffffffffffff1673ffffffffffffffffffffffffffffffffffffffff1681526020016000820160149054906101000a900467ffffffffffffffff1667ffffffffffffffff1667ffffffffffffffff16815250509050600073ffffffffffffffffffffffffffffffffffffffff16816000015173ffffffffffffffffffffffffffffffffffffffff16146121df5780935050505061222f565b5080806121eb906147c6565b9150506120eb565b506040517f08c379a000000000000000000000000000000000000000000000000000000000815260040161222690614861565b60405180910390fd5b919050565b61224e828260405180602001604052806000815250612664565b5050565b6000600860009054906101000a900473ffffffffffffffffffffffffffffffffffffffff16905081600860006101000a81548173ffffffffffffffffffffffffffffffffffffffff021916908373ffffffffffffffffffffffffffffffffffffffff1602179055508173ffffffffffffffffffffffffffffffffffffffff168173ffffffffffffffffffffffffffffffffffffffff167f8be0079c531659141344cd1fd0a4f28419497f9722a3daafe3b4186f6b6457e060405160405180910390a35050565b60026009540361235d576040517f08c379a0000000000000000000000000000000000000000000000000000000008152600401612354906148cd565b60405180910390fd5b6002600981905550565b6001600981905550565b60006123928473ffffffffffffffffffffffffffffffffffffffff16612b42565b156124eb578373ffffffffffffffffffffffffffffffffffffffff1663150b7a026123bb611942565b8786866040518563ffffffff1660e01b81526004016123dd9493929190614942565b6020604051808303816000875af192505050801561241957506040513d601f19601f8201168201806040525081019061241691906149a3565b60015b61249b573d8060008114612449576040519150601f19603f3d011682016040523d82523d6000602084013e61244e565b606091505b506000815103612493576040517f08c379a000000000000000000000000000000000000000000000000000000000815260040161248a906142ca565b60405180910390fd5b805181602001fd5b63150b7a0260e01b7bffffffffffffffffffffffffffffffffffffffffffffffffffffffff1916817bffffffffffffffffffffffffffffffffffffffffffffffffffffffff1916149150506124f0565b600190505b949350505050565b6060600b8054612507906134a5565b80601f0160208091040260200160405190810160405280929190818152602001828054612533906134a5565b80156125805780601f1061255557610100808354040283529160200191612580565b820191906000526020600020905b81548152906001019060200180831161256357829003601f168201915b5050505050905090565b60606000600161259984612b65565b01905060008167ffffffffffffffff8111156125b8576125b7613025565b5b6040519080825280601f01601f1916602001820160405280156125ea5781602001600182028036833780820191505090505b509050600082602001820190505b60011561264d578080600190039150507f3031323334353637383961626364656600000000000000000000000000000000600a86061a8153600a8581612641576126406149d0565b5b049450600085036125f8575b819350505050919050565b50505050565b50505050565b600080549050600073ffffffffffffffffffffffffffffffffffffffff168473ffffffffffffffffffffffffffffffffffffffff16036126d9576040517f08c379a00000000000000000000000000000000000000000000000000000000081526004016126d090614a71565b60405180910390fd5b6126e281611935565b15612722576040517f08c379a000000000000000000000000000000000000000000000000000000000815260040161271990614add565b60405180910390fd5b7f0000000000000000000000000000000000000000000000000000000000000000831115612785576040517f08c379a000000000000000000000000000000000000000000000000000000000815260040161277c90614b6f565b60405180910390fd5b6127926000858386612658565b6000600460008673ffffffffffffffffffffffffffffffffffffffff1673ffffffffffffffffffffffffffffffffffffffff1681526020019081526020016000206040518060400160405290816000820160009054906101000a90046fffffffffffffffffffffffffffffffff166fffffffffffffffffffffffffffffffff166fffffffffffffffffffffffffffffffff1681526020016000820160109054906101000a90046fffffffffffffffffffffffffffffffff166fffffffffffffffffffffffffffffffff166fffffffffffffffffffffffffffffffff16815250509050604051806040016040528085836000015161288f9190614684565b6fffffffffffffffffffffffffffffffff1681526020018583602001516128b69190614684565b6fffffffffffffffffffffffffffffffff16815250600460008773ffffffffffffffffffffffffffffffffffffffff1673ffffffffffffffffffffffffffffffffffffffff16815260200190815260200160002060008201518160000160006101000a8154816fffffffffffffffffffffffffffffffff02191690836fffffffffffffffffffffffffffffffff16021790555060208201518160000160106101000a8154816fffffffffffffffffffffffffffffffff02191690836fffffffffffffffffffffffffffffffff16021790555090505060405180604001604052808673ffffffffffffffffffffffffffffffffffffffff1681526020014267ffffffffffffffff168152506003600084815260200190815260200160002060008201518160000160006101000a81548173ffffffffffffffffffffffffffffffffffffffff021916908373ffffffffffffffffffffffffffffffffffffffff16021790555060208201518160000160146101000a81548167ffffffffffffffff021916908367ffffffffffffffff160217905550905050600082905060005b85811015612b2557818773ffffffffffffffffffffffffffffffffffffffff16600073ffffffffffffffffffffffffffffffffffffffff167fddf252ad1be2c89b69c2b068fc378daa952ba7f163c4a11628f55a4df523b3ef60405160405180910390a4612ac56000888488612371565b612b04576040517f08c379a0000000000000000000000000000000000000000000000000000000008152600401612afb906142ca565b60405180910390fd5b8180612b0f90613859565b9250508080612b1d90613859565b915050612a54565b5080600081905550612b3a600087858861265e565b505050505050565b6000808273ffffffffffffffffffffffffffffffffffffffff163b119050919050565b600080600090507a184f03e93ff9f4daa797ed6e38ed64bf6a1f0100000000000000008310612bc3577a184f03e93ff9f4daa797ed6e38ed64bf6a1f0100000000000000008381612bb957612bb86149d0565b5b0492506040810190505b6d04ee2d6d415b85acef81000000008310612c00576d04ee2d6d415b85acef81000000008381612bf657612bf56149d0565b5b0492506020810190505b662386f26fc100008310612c2f57662386f26fc100008381612c2557612c246149d0565b5b0492506010810190505b6305f5e1008310612c58576305f5e1008381612c4e57612c4d6149d0565b5b0492506008810190505b6127108310612c7d576127108381612c7357612c726149d0565b5b0492506004810190505b60648310612ca05760648381612c9657612c956149d0565b5b0492506002810190505b600a8310612caf576001810190505b80915050919050565b6040518060400160405280600073ffffffffffffffffffffffffffffffffffffffff168152602001600067ffffffffffffffff1681525090565b6000604051905090565b600080fd5b600080fd5b60007fffffffff0000000000000000000000000000000000000000000000000000000082169050919050565b612d3b81612d06565b8114612d4657600080fd5b50565b600081359050612d5881612d32565b92915050565b600060208284031215612d7457612d73612cfc565b5b6000612d8284828501612d49565b91505092915050565b60008115159050919050565b612da081612d8b565b82525050565b6000602082019050612dbb6000830184612d97565b92915050565b600081519050919050565b600082825260208201905092915050565b60005b83811015612dfb578082015181840152602081019050612de0565b60008484015250505050565b6000601f19601f8301169050919050565b6000612e2382612dc1565b612e2d8185612dcc565b9350612e3d818560208601612ddd565b612e4681612e07565b840191505092915050565b60006020820190508181036000830152612e6b8184612e18565b905092915050565b6000819050919050565b612e8681612e73565b8114612e9157600080fd5b50565b600081359050612ea381612e7d565b92915050565b600060208284031215612ebf57612ebe612cfc565b5b6000612ecd84828501612e94565b91505092915050565b600073ffffffffffffffffffffffffffffffffffffffff82169050919050565b6000612f0182612ed6565b9050919050565b612f1181612ef6565b82525050565b6000602082019050612f2c6000830184612f08565b92915050565b612f3b81612ef6565b8114612f4657600080fd5b50565b600081359050612f5881612f32565b92915050565b60008060408385031215612f7557612f74612cfc565b5b6000612f8385828601612f49565b9250506020612f9485828601612e94565b9150509250929050565b612fa781612e73565b82525050565b6000602082019050612fc26000830184612f9e565b92915050565b600080600060608486031215612fe157612fe0612cfc565b5b6000612fef86828701612f49565b935050602061300086828701612f49565b925050604061301186828701612e94565b9150509250925092565b600080fd5b600080fd5b7f4e487b7100000000000000000000000000000000000000000000000000000000600052604160045260246000fd5b61305d82612e07565b810181811067ffffffffffffffff8211171561307c5761307b613025565b5b80604052505050565b600061308f612cf2565b905061309b8282613054565b919050565b600067ffffffffffffffff8211156130bb576130ba613025565b5b6130c482612e07565b9050602081019050919050565b82818337600083830152505050565b60006130f36130ee846130a0565b613085565b90508281526020810184848401111561310f5761310e613020565b5b61311a8482856130d1565b509392505050565b600082601f8301126131375761313661301b565b5b81356131478482602086016130e0565b91505092915050565b60006020828403121561316657613165612cfc565b5b600082013567ffffffffffffffff81111561318457613183612d01565b5b61319084828501613122565b91505092915050565b6000602082840312156131af576131ae612cfc565b5b60006131bd84828501612f49565b91505092915050565b600081519050919050565b600082825260208201905092915050565b6000819050602082019050919050565b6131fb81612e73565b82525050565b600061320d83836131f2565b60208301905092915050565b6000602082019050919050565b6000613231826131c6565b61323b81856131d1565b9350613246836131e2565b8060005b8381101561327757815161325e8882613201565b975061326983613219565b92505060018101905061324a565b5085935050505092915050565b6000602082019050818103600083015261329e8184613226565b905092915050565b6132af81612d8b565b81146132ba57600080fd5b50565b6000813590506132cc816132a6565b92915050565b600080604083850312156132e9576132e8612cfc565b5b60006132f785828601612f49565b9250506020613308858286016132bd565b9150509250929050565b600067ffffffffffffffff82111561332d5761332c613025565b5b61333682612e07565b9050602081019050919050565b600061335661335184613312565b613085565b90508281526020810184848401111561337257613371613020565b5b61337d8482856130d1565b509392505050565b600082601f83011261339a5761339961301b565b5b81356133aa848260208601613343565b91505092915050565b600080600080608085870312156133cd576133cc612cfc565b5b60006133db87828801612f49565b94505060206133ec87828801612f49565b93505060406133fd87828801612e94565b925050606085013567ffffffffffffffff81111561341e5761341d612d01565b5b61342a87828801613385565b91505092959194509250565b6000806040838503121561344d5761344c612cfc565b5b600061345b85828601612f49565b925050602061346c85828601612f49565b9150509250929050565b7f4e487b7100000000000000000000000000000000000000000000000000000000600052602260045260246000fd5b600060028204905060018216806134bd57607f821691505b6020821081036134d0576134cf613476565b5b50919050565b7f455243373231413a20617070726f76656420717565727920666f72206e6f6e6560008201527f78697374656e7420746f6b656e00000000000000000000000000000000000000602082015250565b6000613532602d83612dcc565b915061353d826134d6565b604082019050919050565b6000602082019050818103600083015261356181613525565b9050919050565b7f455243373231413a20617070726f76616c20746f2063757272656e74206f776e60008201527f6572000000000000000000000000000000000000000000000000000000000000602082015250565b60006135c4602283612dcc565b91506135cf82613568565b604082019050919050565b600060208201905081810360008301526135f3816135b7565b9050919050565b7f455243373231413a20617070726f76652063616c6c6572206973206e6f74206f60008201527f776e6572206e6f7220617070726f76656420666f7220616c6c00000000000000602082015250565b6000613656603983612dcc565b9150613661826135fa565b604082019050919050565b6000602082019050818103600083015261368581613649565b9050919050565b7f4e487b7100000000000000000000000000000000000000000000000000000000600052601160045260246000fd5b60006136c682612e73565b91506136d183612e73565b92508282039050818111156136e9576136e861368c565b5b92915050565b7f6d696e7420686173206e6f742073746172746564207965740000000000000000600082015250565b6000613725601883612dcc565b9150613730826136ef565b602082019050919050565b6000602082019050818103600083015261375481613718565b9050919050565b7f7365742070726963652030000000000000000000000000000000000000000000600082015250565b6000613791600b83612dcc565b915061379c8261375b565b602082019050919050565b600060208201905081810360008301526137c081613784565b9050919050565b7f455243373231413a206f776e657220696e646578206f7574206f6620626f756e60008201527f6473000000000000000000000000000000000000000000000000000000000000602082015250565b6000613823602283612dcc565b915061382e826137c7565b604082019050919050565b6000602082019050818103600083015261385281613816565b9050919050565b600061386482612e73565b91507fffffffffffffffffffffffffffffffffffffffffffffffffffffffffffffffff82036138965761389561368c565b5b600182019050919050565b7f455243373231413a20756e61626c6520746f2067657420746f6b656e206f662060008201527f6f776e657220627920696e646578000000000000000000000000000000000000602082015250565b60006138fd602e83612dcc565b9150613908826138a1565b604082019050919050565b6000602082019050818103600083015261392c816138f0565b9050919050565b7f455243373231413a20676c6f62616c20696e646578206f7574206f6620626f7560008201527f6e64730000000000000000000000000000000000000000000000000000000000602082015250565b600061398f602383612dcc565b915061399a82613933565b604082019050919050565b600060208201905081810360008301526139be81613982565b9050919050565b60008190508160005260206000209050919050565b60006020601f8301049050919050565b600082821b905092915050565b600060088302613a277fffffffffffffffffffffffffffffffffffffffffffffffffffffffffffffffff826139ea565b613a3186836139ea565b95508019841693508086168417925050509392505050565b6000819050919050565b6000613a6e613a69613a6484612e73565b613a49565b612e73565b9050919050565b6000819050919050565b613a8883613a53565b613a9c613a9482613a75565b8484546139f7565b825550505050565b600090565b613ab1613aa4565b613abc818484613a7f565b505050565b5b81811015613ae057613ad5600082613aa9565b600181019050613ac2565b5050565b601f821115613b2557613af6816139c5565b613aff846139da565b81016020851015613b0e578190505b613b22613b1a856139da565b830182613ac1565b50505b505050565b600082821c905092915050565b6000613b4860001984600802613b2a565b1980831691505092915050565b6000613b618383613b37565b9150826002028217905092915050565b613b7a82612dc1565b67ffffffffffffffff811115613b9357613b92613025565b5b613b9d82546134a5565b613ba8828285613ae4565b600060209050601f831160018114613bdb5760008415613bc9578287015190505b613bd38582613b55565b865550613c3b565b601f198416613be9866139c5565b60005b82811015613c1157848901518255600182019150602085019450602081019050613bec565b86831015613c2e5784890151613c2a601f891682613b37565b8355505b6001600288020188555050505b505050505050565b7f5468652063616c6c657220697320616e6f7468657220636f6e74726163740000600082015250565b6000613c79601e83612dcc565b9150613c8482613c43565b602082019050919050565b60006020820190508181036000830152613ca881613c6c565b9050919050565b7f73616c6520686173206e6f7420626567756e2079657400000000000000000000600082015250565b6000613ce5601683612dcc565b9150613cf082613caf565b602082019050919050565b60006020820190508181036000830152613d1481613cd8565b9050919050565b7f63616e206e6f74206d696e74207468697320616d6f756e74206174206f6e6365600082015250565b6000613d51602083612dcc565b9150613d5c82613d1b565b602082019050919050565b60006020820190508181036000830152613d8081613d44565b9050919050565b6000613d9282612e73565b9150613d9d83612e73565b9250828201905080821115613db557613db461368c565b5b92915050565b7f6e6f7420656e6f7567682072656d61696e696720616d6f756e74730000000000600082015250565b6000613df1601b83612dcc565b9150613dfc82613dbb565b602082019050919050565b60006020820190508181036000830152613e2081613de4565b9050919050565b6000613e3282612e73565b9150613e3d83612e73565b9250828202613e4b81612e73565b91508282048414831517613e6257613e6161368c565b5b5092915050565b7f70617920646f73656e2774206d61746368210000000000000000000000000000600082015250565b6000613e9f601283612dcc565b9150613eaa82613e69565b602082019050919050565b60006020820190508181036000830152613ece81613e92565b9050919050565b6000606082019050613eea6000830186612f08565b613ef76020830185612f9e565b613f046040830184612f9e565b949350505050565b7f455243373231413a2062616c616e636520717565727920666f7220746865207a60008201527f65726f2061646472657373000000000000000000000000000000000000000000602082015250565b6000613f68602b83612dcc565b9150613f7382613f0c565b604082019050919050565b60006020820190508181036000830152613f9781613f5b565b9050919050565b7f4e487b7100000000000000000000000000000000000000000000000000000000600052603260045260246000fd5b7f62616c616e6365206973207a65726f0000000000000000000000000000000000600082015250565b6000614003600f83612dcc565b915061400e82613fcd565b602082019050919050565b6000602082019050818103600083015261403281613ff6565b9050919050565b600081905092915050565b50565b6000614054600083614039565b915061405f82614044565b600082019050919050565b600061407582614047565b9150819050919050565b7f5769746864726177616c204661696c6564000000000000000000000000000000600082015250565b60006140b5601183612dcc565b91506140c08261407f565b602082019050919050565b600060208201905081810360008301526140e4816140a8565b9050919050565b7f455243373231413a20617070726f766520746f2063616c6c6572000000000000600082015250565b6000614121601a83612dcc565b915061412c826140eb565b602082019050919050565b6000602082019050818103600083015261415081614114565b9050919050565b7f73616c65207072696365206d7573742067726561746572207468616e20300000600082015250565b600061418d601e83612dcc565b915061419882614157565b602082019050919050565b600060208201905081810360008301526141bc81614180565b9050919050565b7f73657420646966666572656e7420707269636500000000000000000000000000600082015250565b60006141f9601383612dcc565b9150614204826141c3565b602082019050919050565b60006020820190508181036000830152614228816141ec565b9050919050565b60006040820190506142446000830185612f9e565b6142516020830184612d97565b9392505050565b7f455243373231413a207472616e7366657220746f206e6f6e204552433732315260008201527f6563656976657220696d706c656d656e74657200000000000000000000000000602082015250565b60006142b4603383612dcc565b91506142bf82614258565b604082019050919050565b600060208201905081810360008301526142e3816142a7565b9050919050565b7f4552433732314d657461646174613a2055524920717565727920666f72206e6f60008201527f6e6578697374656e7420746f6b656e0000000000000000000000000000000000602082015250565b6000614346602f83612dcc565b9150614351826142ea565b604082019050919050565b6000602082019050818103600083015261437581614339565b9050919050565b600081905092915050565b600061439282612dc1565b61439c818561437c565b93506143ac818560208601612ddd565b80840191505092915050565b60006143c48285614387565b91506143d08284614387565b91508190509392505050565b7f4f776e61626c653a206e6577206f776e657220697320746865207a65726f206160008201527f6464726573730000000000000000000000000000000000000000000000000000602082015250565b6000614438602683612dcc565b9150614443826143dc565b604082019050919050565b600060208201905081810360008301526144678161442b565b9050919050565b7f455243373231413a207472616e736665722063616c6c6572206973206e6f742060008201527f6f776e6572206e6f7220617070726f7665640000000000000000000000000000602082015250565b60006144ca603283612dcc565b91506144d58261446e565b604082019050919050565b600060208201905081810360008301526144f9816144bd565b9050919050565b7f455243373231413a207472616e736665722066726f6d20696e636f727265637460008201527f206f776e65720000000000000000000000000000000000000000000000000000602082015250565b600061455c602683612dcc565b915061456782614500565b604082019050919050565b6000602082019050818103600083015261458b8161454f565b9050919050565b7f455243373231413a207472616e7366657220746f20746865207a65726f20616460008201527f6472657373000000000000000000000000000000000000000000000000000000602082015250565b60006145ee602583612dcc565b91506145f982614592565b604082019050919050565b6000602082019050818103600083015261461d816145e1565b9050919050565b60006fffffffffffffffffffffffffffffffff82169050919050565b600061464b82614624565b915061465683614624565b925082820390506fffffffffffffffffffffffffffffffff81111561467e5761467d61368c565b5b92915050565b600061468f82614624565b915061469a83614624565b925082820190506fffffffffffffffffffffffffffffffff8111156146c2576146c161368c565b5b92915050565b7f4f776e61626c653a2063616c6c6572206973206e6f7420746865206f776e6572600082015250565b60006146fe602083612dcc565b9150614709826146c8565b602082019050919050565b6000602082019050818103600083015261472d816146f1565b9050919050565b7f455243373231413a206f776e657220717565727920666f72206e6f6e6578697360008201527f74656e7420746f6b656e00000000000000000000000000000000000000000000602082015250565b6000614790602a83612dcc565b915061479b82614734565b604082019050919050565b600060208201905081810360008301526147bf81614783565b9050919050565b60006147d182612e73565b9150600082036147e4576147e361368c565b5b600182039050919050565b7f455243373231413a20756e61626c6520746f2064657465726d696e652074686560008201527f206f776e6572206f6620746f6b656e0000000000000000000000000000000000602082015250565b600061484b602f83612dcc565b9150614856826147ef565b604082019050919050565b6000602082019050818103600083015261487a8161483e565b9050919050565b7f5265656e7472616e637947756172643a207265656e7472616e742063616c6c00600082015250565b60006148b7601f83612dcc565b91506148c282614881565b602082019050919050565b600060208201905081810360008301526148e6816148aa565b9050919050565b600081519050919050565b600082825260208201905092915050565b6000614914826148ed565b61491e81856148f8565b935061492e818560208601612ddd565b61493781612e07565b840191505092915050565b60006080820190506149576000830187612f08565b6149646020830186612f08565b6149716040830185612f9e565b81810360608301526149838184614909565b905095945050505050565b60008151905061499d81612d32565b92915050565b6000602082840312156149b9576149b8612cfc565b5b60006149c78482850161498e565b91505092915050565b7f4e487b7100000000000000000000000000000000000000000000000000000000600052601260045260246000fd5b7f455243373231413a206d696e7420746f20746865207a65726f2061646472657360008201527f7300000000000000000000000000000000000000000000000000000000000000602082015250565b6000614a5b602183612dcc565b9150614a66826149ff565b604082019050919050565b60006020820190508181036000830152614a8a81614a4e565b9050919050565b7f455243373231413a20746f6b656e20616c7265616479206d696e746564000000600082015250565b6000614ac7601d83612dcc565b9150614ad282614a91565b602082019050919050565b60006020820190508181036000830152614af681614aba565b9050919050565b7f455243373231413a207175616e7469747920746f206d696e7420746f6f20686960008201527f6768000000000000000000000000000000000000000000000000000000000000602082015250565b6000614b59602283612dcc565b9150614b6482614afd565b604082019050919050565b60006020820190508181036000830152614b8881614b4c565b905091905056fea2646970667358221220998c60b4209e9f85b44423bd3687ffaeb35eb61986d71cf81211b29847e3dbfb64736f6c63430008110033",
  "immutableReferences": {
    "5199": [
      {
        "length": 32,
        "start": 2828
      },
      {
        "length": 32,
        "start": 3894
      }
    ],
    "6839": [
      {
        "length": 32,
        "start": 3993
      },
      {
        "length": 32,
        "start": 6018
      }
    ],
    "6841": [
      {
        "length": 32,
        "start": 8325
      },
      {
        "length": 32,
        "start": 8366
      },
      {
        "length": 32,
        "start": 10020
      }
    ]
  },
  "source": "// SPDX-License-Identifier: MIT\r\npragma solidity ^0.8.17;\r\n\r\nimport \"./standards/ERC721A.sol\";\r\nimport \"../node_modules/@openzeppelin/contracts/utils/Strings.sol\";\r\nimport \"../node_modules/@openzeppelin/contracts/access/Ownable.sol\";\r\nimport \"../node_modules/@openzeppelin/contracts/security/ReentrancyGuard.sol\";\r\n\r\n// remix  \r\n// import \"./standards/ERC721A.sol\";\r\n// import \"openzeppelin-solidity/contracts/utils/Strings.sol\";\r\n// import \"openzeppelin-solidity/contracts/access/Ownable.sol\";\r\n// import \"openzeppelin-solidity/contracts/security/ReentrancyGuard.sol\";\r\n\r\ncontract TestToken is  ERC721A, Ownable, ReentrancyGuard {\r\n    using Strings for uint256; // Strings \r\n    uint256 public immutable maxAmountPerMint; \r\n    uint256 public mintPrice;\r\n\r\n    event MintTestToken(address minter, uint256 quantity, uint256 totalSupply);\r\n    event SetMintOn(uint256 mintPrice, bool isMintOn);\r\n\r\n    constructor(uint256 maxBatchSize_, uint256 collectionSize_) ERC721A(\"Seop\", \"SEP\", maxBatchSize_, collectionSize_) {\r\n     maxAmountPerMint = maxBatchSize_;\r\n    }\r\n\r\n    modifier callerIsUser() {\r\n      //  CA EOA  \r\n      require(tx.origin == msg.sender, \"The caller is another contract\");\r\n      _;\r\n    }\r\n\r\n    function getCA() external view returns(address){\r\n      return(address(this));\r\n    }\r\n\r\n    function setMintOn(uint256 price) external onlyOwner {\r\n      // wei \r\n      require(price > 0,\"sale price must greater than 0\");\r\n      require(price != mintPrice,\"set different price\");\r\n      mintPrice = price;\r\n      emit SetMintOn(mintPrice, isMintOn());\r\n    }\r\n\r\n    function setMintOff(uint256 price) external onlyOwner {\r\n      require (mintPrice != 0, \"mint has not started yet\");\r\n      require (price == 0, \"set price 0\");\r\n      mintPrice = 0;\r\n    }\r\n\r\n    function isMintOn() public view returns(bool) {\r\n      return mintPrice != 0; \r\n    }\r\n\r\n    function mintTestToken(uint256 quantity) external payable callerIsUser {\r\n      require(isMintOn(),\"sale has not begun yet\");\r\n      require(quantity <= maxAmountPerMint, \"can not mint this amount at once\"); //    \r\n      require(ERC721A.totalSupply() + quantity <= ERC721A.collectionSize, \"not enough remainig amounts\"); //   \r\n      require(msg.value == quantity * mintPrice, \"pay dosen't match!\");\r\n      ERC721A._safeMint(msg.sender, quantity);\r\n      emit MintTestToken(msg.sender, quantity, ERC721A.totalSupply());\r\n    }\r\n\r\n    string private _baseTokenURI = \"http://localhost:4000/\";\r\n\r\n  //   function tokenURI(uint256 tokenId)\r\n  //   public\r\n  //   view\r\n  //   override\r\n  //   returns (string memory)\r\n  // {\r\n  //   require(\r\n  //     _exists(tokenId),\r\n  //     \"ERC721Metadata: URI query for nonexistent token\"\r\n  //   );\r\n\r\n  //   string memory baseURI = _baseURI();\r\n  //   return\r\n  //     bytes(baseURI).length > 0\r\n  //       ? string(abi.encodePacked(baseURI, tokenId.toString()))\r\n  //       : \"\";\r\n  // }\r\n\r\n    function _baseURI() internal override view returns(string memory){\r\n      return _baseTokenURI;\r\n    }\r\n  \r\n    function setBaseURI(string memory baseURI) external onlyOwner {\r\n      _baseTokenURI = baseURI;\r\n    }\r\n    // tokenURI ERC721A   \r\n    //  _baseURI    baseURI \r\n    // tokenURI  _baseURI    tokenURI  return.\r\n\r\n    function withdrawAll() external onlyOwner nonReentrant {\r\n      require(address(this).balance > 0, \"balance is zero\");\r\n      // nonReentrant modifier  ?     .\r\n      // payable(msg.sender).transfer(address(this).balance);\r\n      (bool success, ) = msg.sender.call{value:address(this).balance}(\"\");\r\n      require(success, \"Withdrawal Failed\");\r\n    }\r\n\r\n    function maxSupply() view external returns(uint256) {\r\n      return ERC721A.collectionSize;\r\n    }\r\n    \r\n    function tokensOfOwner(address owner) view external returns(uint256[] memory) {\r\n      uint256 ownerBalance = ERC721A.balanceOf(owner);\r\n      uint256[] memory tokens = new uint256[](ownerBalance); //  \r\n      for (uint256 ind = 0; ind < ownerBalance; ind++) {\r\n        uint256 tokenId = tokenOfOwnerByIndex(owner, ind); // ERC721A \r\n        tokens[ind] = tokenId;\r\n      }\r\n      return tokens;\r\n    }\r\n\r\n}\r\n",
  "sourcePath": "C:\\Users\\Administrator\\Desktop\\nftP\\blockChain\\contracts\\TestToken.sol",
  "compiler": {
    "name": "solc",
    "version": "0.8.17+commit.8df45f5f.Emscripten.clang"
  },
  "schemaVersion": "3.4.11",
  "updatedAt": "2022-12-25T12:16:20.967Z",
  "networkType": "ethereum",
  "devdoc": {
    "kind": "dev",
    "methods": {
      "approve(address,uint256)": {
        "details": "See {IERC721-approve}."
      },
      "balanceOf(address)": {
        "details": "See {IERC721-balanceOf}."
      },
      "getApproved(uint256)": {
        "details": "See {IERC721-getApproved}."
      },
      "isApprovedForAll(address,address)": {
        "details": "See {IERC721-isApprovedForAll}."
      },
      "name()": {
        "details": "See {IERC721Metadata-name}."
      },
      "owner()": {
        "details": "Returns the address of the current owner."
      },
      "ownerOf(uint256)": {
        "details": "See {IERC721-ownerOf}."
      },
      "renounceOwnership()": {
        "details": "Leaves the contract without owner. It will not be possible to call `onlyOwner` functions anymore. Can only be called by the current owner. NOTE: Renouncing ownership will leave the contract without an owner, thereby removing any functionality that is only available to the owner."
      },
      "safeTransferFrom(address,address,uint256)": {
        "details": "See {IERC721-safeTransferFrom}."
      },
      "safeTransferFrom(address,address,uint256,bytes)": {
        "details": "See {IERC721-safeTransferFrom}."
      },
      "setApprovalForAll(address,bool)": {
        "details": "See {IERC721-setApprovalForAll}."
      },
      "supportsInterface(bytes4)": {
        "details": "See {IERC165-supportsInterface}."
      },
      "symbol()": {
        "details": "See {IERC721Metadata-symbol}."
      },
      "tokenByIndex(uint256)": {
        "details": "See {IERC721Enumerable-tokenByIndex}."
      },
      "tokenOfOwnerByIndex(address,uint256)": {
        "details": "See {IERC721Enumerable-tokenOfOwnerByIndex}. This read function is O(collectionSize). If calling from a separate contract, be sure to test gas first. It may also degrade with extremely large collection sizes (e.g >> 10000), test for your use case."
      },
      "tokenURI(uint256)": {
        "details": "See {IERC721Metadata-tokenURI}."
      },
      "totalSupply()": {
        "details": "See {IERC721Enumerable-totalSupply}."
      },
      "transferFrom(address,address,uint256)": {
        "details": "See {IERC721-transferFrom}."
      },
      "transferOwnership(address)": {
        "details": "Transfers ownership of the contract to a new account (`newOwner`). Can only be called by the current owner."
      }
    },
    "version": 1
  },
  "userdoc": {
    "kind": "user",
    "methods": {},
    "version": 1
  }
}