{
  "contractName": "TestTrade",
  "abi": [
    {
      "inputs": [
        {
          "internalType": "address",
          "name": "tokenAddress_",
          "type": "address"
        }
      ],
      "stateMutability": "nonpayable",
      "type": "constructor"
    },
    {
      "anonymous": false,
      "inputs": [
        {
          "indexed": false,
          "internalType": "uint256",
          "name": "tokenId",
          "type": "uint256"
        },
        {
          "indexed": false,
          "internalType": "uint256",
          "name": "bidPrice",
          "type": "uint256"
        },
        {
          "indexed": false,
          "internalType": "address",
          "name": "bider",
          "type": "address"
        }
      ],
      "name": "BidOnAuction",
      "type": "event"
    },
    {
      "anonymous": false,
      "inputs": [
        {
          "indexed": true,
          "internalType": "address",
          "name": "previousOwner",
          "type": "address"
        },
        {
          "indexed": true,
          "internalType": "address",
          "name": "newOwner",
          "type": "address"
        }
      ],
      "name": "OwnershipTransferred",
      "type": "event"
    },
    {
      "anonymous": false,
      "inputs": [
        {
          "indexed": false,
          "internalType": "uint256",
          "name": "tokenId",
          "type": "uint256"
        },
        {
          "indexed": false,
          "internalType": "address",
          "name": "failedBider",
          "type": "address"
        }
      ],
      "name": "RefundBid",
      "type": "event"
    },
    {
      "inputs": [],
      "name": "Token",
      "outputs": [
        {
          "internalType": "contract TestToken",
          "name": "",
          "type": "address"
        }
      ],
      "stateMutability": "view",
      "type": "function"
    },
    {
      "inputs": [],
      "name": "owner",
      "outputs": [
        {
          "internalType": "address",
          "name": "",
          "type": "address"
        }
      ],
      "stateMutability": "view",
      "type": "function"
    },
    {
      "inputs": [],
      "name": "renounceOwnership",
      "outputs": [],
      "stateMutability": "nonpayable",
      "type": "function"
    },
    {
      "inputs": [],
      "name": "saleFeeRate",
      "outputs": [
        {
          "internalType": "uint256",
          "name": "",
          "type": "uint256"
        }
      ],
      "stateMutability": "view",
      "type": "function"
    },
    {
      "inputs": [
        {
          "internalType": "address",
          "name": "newOwner",
          "type": "address"
        }
      ],
      "name": "transferOwnership",
      "outputs": [],
      "stateMutability": "nonpayable",
      "type": "function"
    },
    {
      "inputs": [
        {
          "internalType": "uint256",
          "name": "rate",
          "type": "uint256"
        }
      ],
      "name": "setSaleFeeRate",
      "outputs": [],
      "stateMutability": "nonpayable",
      "type": "function"
    },
    {
      "inputs": [],
      "name": "onSaleList",
      "outputs": [
        {
          "internalType": "uint256[]",
          "name": "",
          "type": "uint256[]"
        }
      ],
      "stateMutability": "view",
      "type": "function"
    },
    {
      "inputs": [
        {
          "internalType": "uint256",
          "name": "tokenId",
          "type": "uint256"
        }
      ],
      "name": "onSalePrice",
      "outputs": [
        {
          "internalType": "uint256",
          "name": "",
          "type": "uint256"
        }
      ],
      "stateMutability": "view",
      "type": "function"
    },
    {
      "inputs": [
        {
          "internalType": "uint256",
          "name": "tokenId",
          "type": "uint256"
        },
        {
          "internalType": "uint256",
          "name": "price",
          "type": "uint256"
        }
      ],
      "name": "registerForSale",
      "outputs": [],
      "stateMutability": "nonpayable",
      "type": "function"
    },
    {
      "inputs": [
        {
          "internalType": "uint256",
          "name": "tokenId",
          "type": "uint256"
        }
      ],
      "name": "purchase",
      "outputs": [],
      "stateMutability": "payable",
      "type": "function"
    },
    {
      "inputs": [
        {
          "internalType": "uint256",
          "name": "tokenId",
          "type": "uint256"
        }
      ],
      "name": "cancleSale",
      "outputs": [],
      "stateMutability": "nonpayable",
      "type": "function"
    },
    {
      "inputs": [],
      "name": "onAuctionList",
      "outputs": [
        {
          "internalType": "uint256[]",
          "name": "",
          "type": "uint256[]"
        }
      ],
      "stateMutability": "view",
      "type": "function"
    },
    {
      "inputs": [
        {
          "internalType": "uint256",
          "name": "tokenId",
          "type": "uint256"
        },
        {
          "internalType": "uint256",
          "name": "minimumPrice",
          "type": "uint256"
        },
        {
          "internalType": "uint256",
          "name": "lastingMinutes",
          "type": "uint256"
        }
      ],
      "name": "registerForAuction",
      "outputs": [],
      "stateMutability": "nonpayable",
      "type": "function"
    },
    {
      "inputs": [
        {
          "internalType": "uint256",
          "name": "tokenId",
          "type": "uint256"
        }
      ],
      "name": "bidOnAcution",
      "outputs": [],
      "stateMutability": "payable",
      "type": "function"
    },
    {
      "inputs": [
        {
          "internalType": "uint256",
          "name": "tokenId",
          "type": "uint256"
        }
      ],
      "name": "cancleFailedAuction",
      "outputs": [],
      "stateMutability": "nonpayable",
      "type": "function"
    },
    {
      "inputs": [
        {
          "internalType": "address",
          "name": "owner",
          "type": "address"
        }
      ],
      "name": "onBidList",
      "outputs": [
        {
          "internalType": "uint256[]",
          "name": "",
          "type": "uint256[]"
        }
      ],
      "stateMutability": "view",
      "type": "function"
    },
    {
      "inputs": [
        {
          "internalType": "uint256",
          "name": "tokenId",
          "type": "uint256"
        }
      ],
      "name": "claimTokenForWinner",
      "outputs": [],
      "stateMutability": "nonpayable",
      "type": "function"
    },
    {
      "inputs": [],
      "name": "withdrawFees",
      "outputs": [],
      "stateMutability": "nonpayable",
      "type": "function"
    }
  ],
  "bytecode": "0x608060405260056002553480156200001657600080fd5b5060405162002c4538038062002c4583398181016040528101906200003c9190620001da565b6200005c62000050620000a460201b60201c565b620000ac60201b60201c565b80600160006101000a81548173ffffffffffffffffffffffffffffffffffffffff021916908373ffffffffffffffffffffffffffffffffffffffff160217905550506200020c565b600033905090565b60008060009054906101000a900473ffffffffffffffffffffffffffffffffffffffff169050816000806101000a81548173ffffffffffffffffffffffffffffffffffffffff021916908373ffffffffffffffffffffffffffffffffffffffff1602179055508173ffffffffffffffffffffffffffffffffffffffff168173ffffffffffffffffffffffffffffffffffffffff167f8be0079c531659141344cd1fd0a4f28419497f9722a3daafe3b4186f6b6457e060405160405180910390a35050565b600080fd5b600073ffffffffffffffffffffffffffffffffffffffff82169050919050565b6000620001a28262000175565b9050919050565b620001b48162000195565b8114620001c057600080fd5b50565b600081519050620001d481620001a9565b92915050565b600060208284031215620001f357620001f262000170565b5b60006200020384828501620001c3565b91505092915050565b612a29806200021c6000396000f3fe6080604052600436106101095760003560e01c8063c241267611610095578063efef39a111610064578063efef39a114610322578063f06d0a821461033e578063f2fde38b14610367578063f5c6a2cf14610390578063fd1a7d31146103bb57610109565b8063c241267614610289578063cee64c65146102b4578063d43115c3146102dd578063e033c2291461030657610109565b806363a555f3116100dc57806363a555f3146101b657806366066c77146101f3578063715018a61461021e57806382ef5ee5146102355780638da5cb5b1461025e57610109565b80630957c2d91461010e5780633a1cff7f1461014b578063476343ee146101745780634a5c46ed1461018b575b600080fd5b34801561011a57600080fd5b5061013560048036038101906101309190611d07565b6103e4565b6040516101429190611dfc565b60405180910390f35b34801561015757600080fd5b50610172600480360381019061016d9190611e4a565b610537565b005b34801561018057600080fd5b50610189610549565b005b34801561019757600080fd5b506101a0610553565b6040516101ad9190611e86565b60405180910390f35b3480156101c257600080fd5b506101dd60048036038101906101d89190611e4a565b610559565b6040516101ea9190611e86565b60405180910390f35b3480156101ff57600080fd5b50610208610576565b6040516102159190611dfc565b60405180910390f35b34801561022a57600080fd5b50610233610703565b005b34801561024157600080fd5b5061025c60048036038101906102579190611ea1565b610717565b005b34801561026a57600080fd5b506102736108f0565b6040516102809190611ef0565b60405180910390f35b34801561029557600080fd5b5061029e610919565b6040516102ab9190611f6a565b60405180910390f35b3480156102c057600080fd5b506102db60048036038101906102d69190611f85565b61093f565b005b3480156102e957600080fd5b5061030460048036038101906102ff9190611e4a565b610bc1565b005b610320600480360381019061031b9190611e4a565b610bc4565b005b61033c60048036038101906103379190611e4a565b610f56565b005b34801561034a57600080fd5b5061036560048036038101906103609190611e4a565b611288565b005b34801561037357600080fd5b5061038e60048036038101906103899190611d07565b6112a4565b005b34801561039c57600080fd5b506103a5611327565b6040516103b29190611dfc565b60405180910390f35b3480156103c757600080fd5b506103e260048036038101906103dd9190611e4a565b611482565b005b606060006103f1836117f6565b67ffffffffffffffff81111561040a57610409611fd8565b5b6040519080825280602002602001820160405280156104385781602001602082028036833780820191505090505b50905060006104456118d7565b90506000610451610576565b90506000805b8381101561052a57600083828151811061047457610473612007565b5b602002602001015190508773ffffffffffffffffffffffffffffffffffffffff166004600083815260200190815260200160002060020160009054906101000a900473ffffffffffffffffffffffffffffffffffffffff1673ffffffffffffffffffffffffffffffffffffffff160361051657808684815181106104fb576104fa612007565b5b602002602001018181525050828061051290612065565b9350505b50808061052290612065565b915050610457565b5083945050505050919050565b61053f6119ef565b8060028190555050565b6105516119ef565b565b60025481565b600060036000838152602001908152602001600020549050919050565b606060006105826118d7565b67ffffffffffffffff81111561059b5761059a611fd8565b5b6040519080825280602002602001820160405280156105c95781602001602082028036833780820191505090505b509050600080600190505b600160009054906101000a900473ffffffffffffffffffffffffffffffffffffffff1673ffffffffffffffffffffffffffffffffffffffff166318160ddd6040518163ffffffff1660e01b8152600401602060405180830381865afa158015610641573d6000803e3d6000fd5b505050506040513d601f19601f8201168201806040525081019061066591906120c2565b81116106fa57600060046000838152602001908152602001600020600001549050600060046000848152602001908152602001600020600101549050600082141580156106b157504281105b156106e557828585815181106106ca576106c9612007565b5b60200260200101818152505083806106e190612065565b9450505b505080806106f290612065565b9150506105d4565b50819250505090565b61070b6119ef565b6107156000611a6d565b565b3373ffffffffffffffffffffffffffffffffffffffff16600160009054906101000a900473ffffffffffffffffffffffffffffffffffffffff1673ffffffffffffffffffffffffffffffffffffffff16636352211e846040518263ffffffff1660e01b81526004016107899190611e86565b602060405180830381865afa1580156107a6573d6000803e3d6000fd5b505050506040513d601f19601f820116820180604052508101906107ca9190612104565b73ffffffffffffffffffffffffffffffffffffffff1614610820576040517f08c379a00000000000000000000000000000000000000000000000000000000081526004016108179061218e565b60405180910390fd5b6000811161082d57600080fd5b600160009054906101000a900473ffffffffffffffffffffffffffffffffffffffff1673ffffffffffffffffffffffffffffffffffffffff1663e985e9c533306040518363ffffffff1660e01b815260040161088a9291906121ae565b602060405180830381865afa1580156108a7573d6000803e3d6000fd5b505050506040513d601f19601f820116820180604052508101906108cb919061220f565b6108d457600080fd5b8060036000848152602001908152602001600020819055505050565b60008060009054906101000a900473ffffffffffffffffffffffffffffffffffffffff16905090565b600160009054906101000a900473ffffffffffffffffffffffffffffffffffffffff1681565b3373ffffffffffffffffffffffffffffffffffffffff16600160009054906101000a900473ffffffffffffffffffffffffffffffffffffffff1673ffffffffffffffffffffffffffffffffffffffff16636352211e856040518263ffffffff1660e01b81526004016109b19190611e86565b602060405180830381865afa1580156109ce573d6000803e3d6000fd5b505050506040513d601f19601f820116820180604052508101906109f29190612104565b73ffffffffffffffffffffffffffffffffffffffff1614610a48576040517f08c379a0000000000000000000000000000000000000000000000000000000008152600401610a3f9061218e565b60405180910390fd5b60008211610a5557600080fd5b600160009054906101000a900473ffffffffffffffffffffffffffffffffffffffff1673ffffffffffffffffffffffffffffffffffffffff1663e985e9c533306040518363ffffffff1660e01b8152600401610ab29291906121ae565b602060405180830381865afa158015610acf573d6000803e3d6000fd5b505050506040513d601f19601f82011682018060405250810190610af3919061220f565b610afc57600080fd5b6000603c82610b0b919061223c565b42610b16919061227e565b90506040518060600160405280848152602001828152602001600073ffffffffffffffffffffffffffffffffffffffff1681525060046000868152602001908152602001600020600082015181600001556020820151816001015560408201518160020160006101000a81548173ffffffffffffffffffffffffffffffffffffffff021916908373ffffffffffffffffffffffffffffffffffffffff16021790555090505050505050565b50565b60006004600083815260200190815260200160002060000154905060006004600084815260200190815260200160002060010154905060006004600085815260200190815260200160002060020160009054906101000a900473ffffffffffffffffffffffffffffffffffffffff169050814210610c77576040517f08c379a0000000000000000000000000000000000000000000000000000000008152600401610c6e906122fe565b60405180910390fd5b3373ffffffffffffffffffffffffffffffffffffffff16600160009054906101000a900473ffffffffffffffffffffffffffffffffffffffff1673ffffffffffffffffffffffffffffffffffffffff16636352211e866040518263ffffffff1660e01b8152600401610ce99190611e86565b602060405180830381865afa158015610d06573d6000803e3d6000fd5b505050506040513d601f19601f82011682018060405250810190610d2a9190612104565b73ffffffffffffffffffffffffffffffffffffffff1603610d80576040517f08c379a0000000000000000000000000000000000000000000000000000000008152600401610d779061236a565b60405180910390fd5b60008311610dc3576040517f08c379a0000000000000000000000000000000000000000000000000000000008152600401610dba906123d6565b60405180910390fd5b823411610e05576040517f08c379a0000000000000000000000000000000000000000000000000000000008152600401610dfc90612468565b60405180910390fd5b600066038d7ea4c680008434610e1b9190612488565b610e2591906124eb565b14610e65576040517f08c379a0000000000000000000000000000000000000000000000000000000008152600401610e5c90612542565b60405180910390fd5b600073ffffffffffffffffffffffffffffffffffffffff168173ffffffffffffffffffffffffffffffffffffffff1614610ea557610ea4848285611b31565b5b346004600086815260200190815260200160002060000181905550336004600086815260200190815260200160002060020160006101000a81548173ffffffffffffffffffffffffffffffffffffffff021916908373ffffffffffffffffffffffffffffffffffffffff1602179055507f2e8aa4a142971e5869dd16ff8b28d697bb44ae2491e376ddaa14d601be1c0f85843483604051610f4893929190612562565b60405180910390a150505050565b6000600360008381526020019081526020016000205490506000600160009054906101000a900473ffffffffffffffffffffffffffffffffffffffff1673ffffffffffffffffffffffffffffffffffffffff16636352211e846040518263ffffffff1660e01b8152600401610fcb9190611e86565b602060405180830381865afa158015610fe8573d6000803e3d6000fd5b505050506040513d601f19601f8201168201806040525081019061100c9190612104565b90503373ffffffffffffffffffffffffffffffffffffffff168173ffffffffffffffffffffffffffffffffffffffff160361107c576040517f08c379a0000000000000000000000000000000000000000000000000000000008152600401611073906125e5565b60405180910390fd5b600082116110bf576040517f08c379a00000000000000000000000000000000000000000000000000000000081526004016110b690612651565b60405180910390fd5b813414611101576040517f08c379a00000000000000000000000000000000000000000000000000000000081526004016110f8906126bd565b60405180910390fd5b6000606460025460646111149190612488565b8461111f919061223c565b61112991906126dd565b905060008273ffffffffffffffffffffffffffffffffffffffff16826040516111519061273c565b60006040518083038185875af1925050503d806000811461118e576040519150601f19603f3d011682016040523d82523d6000602084013e611193565b606091505b50509050806111d7576040517f08c379a00000000000000000000000000000000000000000000000000000000081526004016111ce9061279d565b60405180910390fd5b600160009054906101000a900473ffffffffffffffffffffffffffffffffffffffff1673ffffffffffffffffffffffffffffffffffffffff166342842e0e8433886040518463ffffffff1660e01b8152600401611236939291906127bd565b600060405180830381600087803b15801561125057600080fd5b505af1158015611264573d6000803e3d6000fd5b50505050600060036000878152602001908152602001600020819055505050505050565b6000600360008381526020019081526020016000208190555050565b6112ac6119ef565b600073ffffffffffffffffffffffffffffffffffffffff168173ffffffffffffffffffffffffffffffffffffffff160361131b576040517f08c379a000000000000000000000000000000000000000000000000000000000815260040161131290612866565b60405180910390fd5b61132481611a6d565b50565b60606000611333611bb6565b67ffffffffffffffff81111561134c5761134b611fd8565b5b60405190808252806020026020018201604052801561137a5781602001602082028036833780820191505090505b509050600080600190505b600160009054906101000a900473ffffffffffffffffffffffffffffffffffffffff1673ffffffffffffffffffffffffffffffffffffffff166318160ddd6040518163ffffffff1660e01b8152600401602060405180830381865afa1580156113f2573d6000803e3d6000fd5b505050506040513d601f19601f8201168201806040525081019061141691906120c2565b8111611479576000600360008381526020019081526020016000205414611466578083838151811061144b5761144a612007565b5b602002602001018181525050818061146290612065565b9250505b808061147190612065565b915050611385565b50819250505090565b60006004600083815260200190815260200160002060010154905060006004600084815260200190815260200160002060000154905060006004600085815260200190815260200160002060020160009054906101000a900473ffffffffffffffffffffffffffffffffffffffff1690506000600160009054906101000a900473ffffffffffffffffffffffffffffffffffffffff1673ffffffffffffffffffffffffffffffffffffffff16636352211e866040518263ffffffff1660e01b81526004016115509190611e86565b602060405180830381865afa15801561156d573d6000803e3d6000fd5b505050506040513d601f19601f820116820180604052508101906115919190612104565b90504284106115d5576040517f08c379a00000000000000000000000000000000000000000000000000000000081526004016115cc906128d2565b60405180910390fd5b60008303611618576040517f08c379a000000000000000000000000000000000000000000000000000000000815260040161160f906123d6565b60405180910390fd5b3373ffffffffffffffffffffffffffffffffffffffff168273ffffffffffffffffffffffffffffffffffffffff1614611686576040517f08c379a000000000000000000000000000000000000000000000000000000000815260040161167d9061293e565b60405180910390fd5b6000606460025460646116999190612488565b856116a4919061223c565b6116ae91906126dd565b905060008273ffffffffffffffffffffffffffffffffffffffff16826040516116d69061273c565b60006040518083038185875af1925050503d8060008114611713576040519150601f19603f3d011682016040523d82523d6000602084013e611718565b606091505b505090508061175c576040517f08c379a00000000000000000000000000000000000000000000000000000000081526004016117539061279d565b60405180910390fd5b600160009054906101000a900473ffffffffffffffffffffffffffffffffffffffff1673ffffffffffffffffffffffffffffffffffffffff166342842e0e84338a6040518463ffffffff1660e01b81526004016117bb939291906127bd565b600060405180830381600087803b1580156117d557600080fd5b505af11580156117e9573d6000803e3d6000fd5b5050505050505050505050565b6000806000905060006118076118d7565b90506000611813610576565b905060005b828110156118cb57600082828151811061183557611834612007565b5b602002602001015190508673ffffffffffffffffffffffffffffffffffffffff166004600083815260200190815260200160002060020160009054906101000a900473ffffffffffffffffffffffffffffffffffffffff1673ffffffffffffffffffffffffffffffffffffffff16036118b75784806118b390612065565b9550505b5080806118c390612065565b915050611818565b50829350505050919050565b6000806000600190505b600160009054906101000a900473ffffffffffffffffffffffffffffffffffffffff1673ffffffffffffffffffffffffffffffffffffffff166318160ddd6040518163ffffffff1660e01b8152600401602060405180830381865afa15801561194e573d6000803e3d6000fd5b505050506040513d601f19601f8201168201806040525081019061197291906120c2565b81116119e757600060046000838152602001908152602001600020600001549050600060046000848152602001908152602001600020600101549050600082141580156119be57504281105b156119d25783806119ce90612065565b9450505b505080806119df90612065565b9150506118e1565b508091505090565b6119f7611c9c565b73ffffffffffffffffffffffffffffffffffffffff16611a156108f0565b73ffffffffffffffffffffffffffffffffffffffff1614611a6b576040517f08c379a0000000000000000000000000000000000000000000000000000000008152600401611a62906129aa565b60405180910390fd5b565b60008060009054906101000a900473ffffffffffffffffffffffffffffffffffffffff169050816000806101000a81548173ffffffffffffffffffffffffffffffffffffffff021916908373ffffffffffffffffffffffffffffffffffffffff1602179055508173ffffffffffffffffffffffffffffffffffffffff168173ffffffffffffffffffffffffffffffffffffffff167f8be0079c531659141344cd1fd0a4f28419497f9722a3daafe3b4186f6b6457e060405160405180910390a35050565b8173ffffffffffffffffffffffffffffffffffffffff166108fc829081150290604051600060405180830381858888f19350505050158015611b77573d6000803e3d6000fd5b507f1e935a7fb28a0412065cab7ad70c27cf05afe9a9e9d7ab2d424d099c373ac3818383604051611ba99291906129ca565b60405180910390a1505050565b6000806000600190505b600160009054906101000a900473ffffffffffffffffffffffffffffffffffffffff1673ffffffffffffffffffffffffffffffffffffffff166318160ddd6040518163ffffffff1660e01b8152600401602060405180830381865afa158015611c2d573d6000803e3d6000fd5b505050506040513d601f19601f82011682018060405250810190611c5191906120c2565b8111611c94576000600360008381526020019081526020016000205414611c81578180611c7d90612065565b9250505b8080611c8c90612065565b915050611bc0565b508091505090565b600033905090565b600080fd5b600073ffffffffffffffffffffffffffffffffffffffff82169050919050565b6000611cd482611ca9565b9050919050565b611ce481611cc9565b8114611cef57600080fd5b50565b600081359050611d0181611cdb565b92915050565b600060208284031215611d1d57611d1c611ca4565b5b6000611d2b84828501611cf2565b91505092915050565b600081519050919050565b600082825260208201905092915050565b6000819050602082019050919050565b6000819050919050565b611d7381611d60565b82525050565b6000611d858383611d6a565b60208301905092915050565b6000602082019050919050565b6000611da982611d34565b611db38185611d3f565b9350611dbe83611d50565b8060005b83811015611def578151611dd68882611d79565b9750611de183611d91565b925050600181019050611dc2565b5085935050505092915050565b60006020820190508181036000830152611e168184611d9e565b905092915050565b611e2781611d60565b8114611e3257600080fd5b50565b600081359050611e4481611e1e565b92915050565b600060208284031215611e6057611e5f611ca4565b5b6000611e6e84828501611e35565b91505092915050565b611e8081611d60565b82525050565b6000602082019050611e9b6000830184611e77565b92915050565b60008060408385031215611eb857611eb7611ca4565b5b6000611ec685828601611e35565b9250506020611ed785828601611e35565b9150509250929050565b611eea81611cc9565b82525050565b6000602082019050611f056000830184611ee1565b92915050565b6000819050919050565b6000611f30611f2b611f2684611ca9565b611f0b565b611ca9565b9050919050565b6000611f4282611f15565b9050919050565b6000611f5482611f37565b9050919050565b611f6481611f49565b82525050565b6000602082019050611f7f6000830184611f5b565b92915050565b600080600060608486031215611f9e57611f9d611ca4565b5b6000611fac86828701611e35565b9350506020611fbd86828701611e35565b9250506040611fce86828701611e35565b9150509250925092565b7f4e487b7100000000000000000000000000000000000000000000000000000000600052604160045260246000fd5b7f4e487b7100000000000000000000000000000000000000000000000000000000600052603260045260246000fd5b7f4e487b7100000000000000000000000000000000000000000000000000000000600052601160045260246000fd5b600061207082611d60565b91507fffffffffffffffffffffffffffffffffffffffffffffffffffffffffffffffff82036120a2576120a1612036565b5b600182019050919050565b6000815190506120bc81611e1e565b92915050565b6000602082840312156120d8576120d7611ca4565b5b60006120e6848285016120ad565b91505092915050565b6000815190506120fe81611cdb565b92915050565b60006020828403121561211a57612119611ca4565b5b6000612128848285016120ef565b91505092915050565b600082825260208201905092915050565b7f63616c6c6572206973206e6f74206f776e657200000000000000000000000000600082015250565b6000612178601383612131565b915061218382612142565b602082019050919050565b600060208201905081810360008301526121a78161216b565b9050919050565b60006040820190506121c36000830185611ee1565b6121d06020830184611ee1565b9392505050565b60008115159050919050565b6121ec816121d7565b81146121f757600080fd5b50565b600081519050612209816121e3565b92915050565b60006020828403121561222557612224611ca4565b5b6000612233848285016121fa565b91505092915050565b600061224782611d60565b915061225283611d60565b925082820261226081611d60565b9150828204841483151761227757612276612036565b5b5092915050565b600061228982611d60565b915061229483611d60565b92508282019050808211156122ac576122ab612036565b5b92915050565b7f746869732061637574696f6e20656e6465640000000000000000000000000000600082015250565b60006122e8601283612131565b91506122f3826122b2565b602082019050919050565b60006020820190508181036000830152612317816122db565b9050919050565b7f6f776e65722063616e6e6f7420626964206f6e206f776e730000000000000000600082015250565b6000612354601883612131565b915061235f8261231e565b602082019050919050565b6000602082019050818103600083015261238381612347565b9050919050565b7f7468697320746f6b656e206973206e6f74206f6e2061756374696f6e00000000600082015250565b60006123c0601c83612131565b91506123cb8261238a565b602082019050919050565b600060208201905081810360008301526123ef816123b3565b9050919050565b7f626964206d7573742062652067726561746572207468616e206c61737420626960008201527f6400000000000000000000000000000000000000000000000000000000000000602082015250565b6000612452602183612131565b915061245d826123f6565b604082019050919050565b6000602082019050818103600083015261248181612445565b9050919050565b600061249382611d60565b915061249e83611d60565b92508282039050818111156124b6576124b5612036565b5b92915050565b7f4e487b7100000000000000000000000000000000000000000000000000000000600052601260045260246000fd5b60006124f682611d60565b915061250183611d60565b925082612511576125106124bc565b5b828206905092915050565b50565b600061252c600083612131565b91506125378261251c565b600082019050919050565b6000602082019050818103600083015261255b8161251f565b9050919050565b60006060820190506125776000830186611e77565b6125846020830185611e77565b6125916040830184611ee1565b949350505050565b7f6f776e65722063616e6e6f7420627579206f776e730000000000000000000000600082015250565b60006125cf601583612131565b91506125da82612599565b602082019050919050565b600060208201905081810360008301526125fe816125c2565b9050919050565b7f74686973206e6674206973206e6f74206f6e2073616c65000000000000000000600082015250565b600061263b601783612131565b915061264682612605565b602082019050919050565b6000602082019050818103600083015261266a8161262e565b9050919050565b7f7061796d656e7420646f73656e2774206d617463680000000000000000000000600082015250565b60006126a7601583612131565b91506126b282612671565b602082019050919050565b600060208201905081810360008301526126d68161269a565b9050919050565b60006126e882611d60565b91506126f383611d60565b925082612703576127026124bc565b5b828204905092915050565b600081905092915050565b600061272660008361270e565b91506127318261251c565b600082019050919050565b600061274782612719565b9150819050919050565b7f7061796d656e74206661696c6564000000000000000000000000000000000000600082015250565b6000612787600e83612131565b915061279282612751565b602082019050919050565b600060208201905081810360008301526127b68161277a565b9050919050565b60006060820190506127d26000830186611ee1565b6127df6020830185611ee1565b6127ec6040830184611e77565b949350505050565b7f4f776e61626c653a206e6577206f776e657220697320746865207a65726f206160008201527f6464726573730000000000000000000000000000000000000000000000000000602082015250565b6000612850602683612131565b915061285b826127f4565b604082019050919050565b6000602082019050818103600083015261287f81612843565b9050919050565b7f61756374696f6e206e6f7420656e646564000000000000000000000000000000600082015250565b60006128bc601183612131565b91506128c782612886565b602082019050919050565b600060208201905081810360008301526128eb816128af565b9050919050565b7f63616c6c6572206973206e6f7420686967686573742062696465720000000000600082015250565b6000612928601b83612131565b9150612933826128f2565b602082019050919050565b600060208201905081810360008301526129578161291b565b9050919050565b7f4f776e61626c653a2063616c6c6572206973206e6f7420746865206f776e6572600082015250565b6000612994602083612131565b915061299f8261295e565b602082019050919050565b600060208201905081810360008301526129c381612987565b9050919050565b60006040820190506129df6000830185611e77565b6129ec6020830184611ee1565b939250505056fea2646970667358221220425a18209d33ada5051ffd76db8ee0840a6e4f36472b7cd903821211485296cc64736f6c63430008110033",
  "immutableReferences": {},
  "source": "// SPDX-License-Identifier: MIT\r\npragma solidity ^0.8.17;\r\n\r\nimport \"./TestToken.sol\";\r\nimport \"../node_modules/@openzeppelin/contracts/access/Ownable.sol\";\r\n\r\n// remix  \r\n// import \"openzeppelin-solidity/contracts/access/Ownable.sol\";\r\n\r\ncontract TestTrade is Ownable{\r\n    TestToken public Token;\r\n\r\n    uint256 public saleFeeRate = 5; //\r\n    // uint256 private _onSaleIndex = 0; // onSale  \r\n    // uint256 private _onAuctionIndex = 0; // onACUTION  \r\n\r\n    struct AuctionInfo {\r\n        uint256 lastBidPrice; //    \r\n        uint256 endTime;\r\n        address bider; //    address(0)\r\n    }\r\n\r\n    mapping(uint => uint) private _tokensOnSale;\r\n    // tokenId to price\r\n    mapping(uint => AuctionInfo) private _tokensOnAuction;\r\n    // tokenId to AuctionInfo\r\n\r\n    constructor(address tokenAddress_) {\r\n        Token = TestToken(tokenAddress_);\r\n    }\r\n\r\n    event BidOnAuction(uint256 tokenId, uint256 bidPrice , address bider);\r\n    event RefundBid(uint256 tokenId, address failedBider);\r\n\r\n    //  \r\n    function setSaleFeeRate(uint256 rate) external onlyOwner {\r\n        saleFeeRate = rate;\r\n    } \r\n\r\n    //   \r\n    function _countOnSale() private view returns(uint256) {\r\n        uint256 count;\r\n\r\n        for(uint tokenId = 1; tokenId <= Token.totalSupply(); tokenId++) {\r\n            if(_tokensOnSale[tokenId] != 0) count ++;\r\n        }\r\n\r\n        return count;\r\n    }\r\n\r\n    //   \r\n    function onSaleList() external view returns(uint256[] memory){\r\n        uint256[] memory tokensOnSale = new uint256[](_countOnSale()); //  \r\n        uint256 index = 0;\r\n\r\n        for(uint tokenId = 1; tokenId <= Token.totalSupply(); tokenId++) {\r\n            if(_tokensOnSale[tokenId] != 0) {\r\n                tokensOnSale[index] = tokenId;\r\n                index ++;\r\n            }\r\n        }\r\n\r\n        return tokensOnSale;\r\n    }\r\n\r\n    //   \r\n    function onSalePrice(uint256 tokenId) external view  returns(uint256)  {\r\n        return _tokensOnSale[tokenId];\r\n    }  \r\n\r\n    //   \r\n    function registerForSale(uint256 tokenId, uint256 price) external {\r\n        // require(_callerIsOwner(tokenId), \"caller is not owner\");\r\n        require(Token.ownerOf(tokenId) == msg.sender, \"caller is not owner\");\r\n        require(price > 0);\r\n        //  Nft  setApprovalForAll(address operator, bool approved)\r\n        //  operator  CA   .\r\n        require(Token.isApprovedForAll(msg.sender, address(this)));\r\n\r\n        _tokensOnSale[tokenId] = price;\r\n        // _onSaleIndex += 1;\r\n\r\n    }\r\n\r\n    // \r\n    function purchase(uint256 tokenId) external payable {\r\n        uint256 price = _tokensOnSale[tokenId];\r\n        address tokenOwner = Token.ownerOf(tokenId);\r\n\r\n        require(tokenOwner != msg.sender, \"owner cannot buy owns\");\r\n        require(price > 0, \"this nft is not on sale\");\r\n        require(msg.value == price, \"payment dosen't match\");\r\n        //   transferFrom    \r\n        //            ?\r\n\r\n        uint256 incomeAfterFee = price * (100 - saleFeeRate) / 100;\r\n        (bool success, ) = tokenOwner.call{value: incomeAfterFee}(\"\");\r\n        require(success, \"payment failed\");\r\n\r\n        Token.safeTransferFrom(tokenOwner, msg.sender, tokenId);\r\n        _tokensOnSale[tokenId] = 0; //  0    \r\n        // _onSaleIndex -= 0;\r\n    }\r\n\r\n    //  \r\n    function cancleSale(uint256 tokenId) external {\r\n        _tokensOnSale[tokenId] = 0; //  0    \r\n    }\r\n\r\n    //    ( )\r\n    function _countOnAuction() private view returns(uint256) {\r\n        uint256 count;\r\n\r\n        for(uint tokenId = 1; tokenId <= Token.totalSupply(); tokenId++) {\r\n            uint256 lastBidPrice = _tokensOnAuction[tokenId].lastBidPrice;\r\n            uint256 endTime = _tokensOnAuction[tokenId].endTime;\r\n\r\n            if(lastBidPrice != 0 && endTime < block.timestamp) {\r\n                count ++;\r\n            } // lastBidPrice 0   \r\n              // endTime  block.timestamp    .\r\n        }\r\n\r\n        return count;\r\n    }\r\n\r\n    //    ( )\r\n    function onAuctionList() public view returns(uint256[] memory){\r\n        uint256[] memory tokensOnAuction = new uint256[](_countOnAuction()); //  \r\n        uint256 index = 0;\r\n\r\n        for(uint tokenId = 1; tokenId <= Token.totalSupply(); tokenId++) {\r\n            uint256 lastBidPrice = _tokensOnAuction[tokenId].lastBidPrice;\r\n            uint256 endTime = _tokensOnAuction[tokenId].endTime;\r\n\r\n            if(lastBidPrice != 0 && endTime < block.timestamp) {\r\n                tokensOnAuction[index] = tokenId;\r\n                index ++;\r\n            } // lastBidPrice 0   \r\n              // endTime  block.timestamp    .\r\n        }\r\n\r\n        return tokensOnAuction;\r\n    }\r\n\r\n    // \r\n    function registerForAuction(uint256 tokenId, uint256 minimumPrice, uint256 lastingMinutes) external {\r\n        // require(_callerIsOwner(tokenId), \"caller is not owner\");\r\n        require(Token.ownerOf(tokenId) == msg.sender, \"caller is not owner\");\r\n        require(minimumPrice > 0);\r\n        //  Nft   setApprovalForAll(address operator, bool approved)\r\n        //  operator   CA    .\r\n        require(Token.isApprovedForAll(msg.sender, address(this)));\r\n\r\n        uint256 endTime = block.timestamp + lastingMinutes * 60;\r\n\r\n        _tokensOnAuction[tokenId] = AuctionInfo(minimumPrice, endTime, address(0)); //      address(0) \r\n        // _onAuctionIndex += 1;\r\n    }\r\n\r\n    //  \r\n    function bidOnAcution(uint256 tokenId) external payable {\r\n        uint256 lastBidPrice = _tokensOnAuction[tokenId].lastBidPrice;\r\n        uint256 endTime = _tokensOnAuction[tokenId].endTime;\r\n        address bider = _tokensOnAuction[tokenId].bider;\r\n        // {uint256 lastBidPrice, uint256 endTime, address bider} = _tokensOnAuction[tokenId];\r\n\r\n        require(block.timestamp < endTime, \"this acution ended\"); //   \r\n        require(Token.ownerOf(tokenId) != msg.sender, \"owner cannot bid on owns\"); //   \r\n        require(lastBidPrice > 0 , \"this token is not on auction\"); //  \r\n        require(msg.value > lastBidPrice, \"bid must be greater than last bid\"); //     \r\n        require((msg.value - lastBidPrice) % 0.001 ether == 0, \"\"); //  0.001 \r\n\r\n        if(bider != address(0)) { //   \r\n            _refundBid(tokenId ,bider ,lastBidPrice); //  \r\n        }\r\n\r\n        _tokensOnAuction[tokenId].lastBidPrice = msg.value;\r\n        _tokensOnAuction[tokenId].bider = msg.sender;\r\n\r\n        emit BidOnAuction(tokenId, msg.value , bider);\r\n    }\r\n\r\n    //   \r\n    function _refundBid(uint256 tokenId ,address to, uint256 bidPrice) private {\r\n        payable(to).transfer(bidPrice);\r\n\r\n        emit RefundBid(tokenId, to);\r\n    }   \r\n\r\n    //   (  )\r\n    function cancleFailedAuction(uint tokenId) external {\r\n        //   endTime  block.timestamp     \r\n        //      \r\n        //         \r\n\r\n        // uint256 lastBidPrice = _tokensOnAuction[tokenId].lastBidPrice;\r\n        // uint256 endTime = _tokensOnAuction[tokenId].endTime;\r\n        // address bider = _tokensOnAuction[tokenId].bider;\r\n\r\n        // require(endTime > block.timestamp, \"auction not ended yet\"); //  \r\n        // require(lastBidPrice > 0, \"acution already ended\"); //   \r\n    }\r\n\r\n    //  (  ) \r\n    function _countOnBid(address owner) private view returns(uint256) {\r\n        uint256 count = 0;\r\n        uint256 countOnAuction = _countOnAuction();\r\n        uint256[] memory listOnAuction = onAuctionList();\r\n\r\n        for(uint i = 0; i < countOnAuction; i++) {\r\n            uint256 tokenId = listOnAuction[i];\r\n            if(_tokensOnAuction[tokenId].bider == owner) {\r\n                count ++;\r\n            } \r\n        }\r\n        return count;\r\n    }\r\n\r\n    //  (  )  \r\n    function onBidList(address owner) external view returns(uint256[] memory){\r\n        uint256[] memory tokensOnBid = new uint256[](_countOnBid(owner)); //  \r\n        uint256 countOnAuction = _countOnAuction();\r\n        uint256[] memory listOnAuction = onAuctionList();\r\n        uint256 index = 0;\r\n\r\n        for(uint i = 0; i < countOnAuction; i++){\r\n            uint256 tokenId = listOnAuction[i];\r\n            if(_tokensOnAuction[tokenId].bider == owner){\r\n                tokensOnBid[index] = tokenId;\r\n                index ++;\r\n            }\r\n        }\r\n\r\n        // for(uint tokenId = 1; tokenId <= Token.totalSupply(); tokenId++) {\r\n        //     if(_tokensOnBid[tokenId].bider == owner) {\r\n        //         tokensOnBid[index] = tokenId;\r\n        //         index ++;\r\n        //     } \r\n        // }\r\n\r\n        return tokensOnBid;\r\n    }\r\n\r\n    //  (NFT)  ()\r\n    function claimTokenForWinner(uint256 tokenId) external {\r\n        uint256 endTime = _tokensOnAuction[tokenId].endTime;\r\n        uint256 lastBidPrice = _tokensOnAuction[tokenId].lastBidPrice;\r\n        address bider = _tokensOnAuction[tokenId].bider;\r\n        address tokenOwner = Token.ownerOf(tokenId);\r\n\r\n        require(endTime < block.timestamp, \"auction not ended\");\r\n        require(lastBidPrice != 0, \"this token is not on auction\");\r\n        require(bider == msg.sender, \"caller is not highest bider\");\r\n\r\n         uint256 incomeAfterFee = lastBidPrice * (100 - saleFeeRate) / 100;\r\n        (bool success, ) = tokenOwner.call{value: incomeAfterFee}(\"\");\r\n        require(success, \"payment failed\");\r\n\r\n        Token.safeTransferFrom(tokenOwner, msg.sender, tokenId);\r\n        // _tokensOnAuction[tokenId].endTime = 0; \r\n        // _tokensOnAuction[tokenId].lastBidPrice = 0;\r\n        // _tokensOnAuction[tokenId].bider = addres(0); //   ?\r\n    }\r\n\r\n// struct AuctionInfo {\r\n//         uint256 lastBidPrice; //    \r\n//         uint256 endTime;\r\n//         address bider; //    address(0)\r\n//     }\r\n    function withdrawFees() external onlyOwner {\r\n        //      \r\n    }\r\n\r\n\r\n\r\n\r\n    // function _callerIsOwner(uint256 tokenId) private view returns(bool) {\r\n    //     return Token.ownerOf(tokenId) == msg.sender;\r\n    // }\r\n\r\n\r\n}",
  "sourcePath": "C:\\Users\\KGA_\\Desktop\\nft_1222\\blockChain\\contracts\\TestTrade.sol",
  "compiler": {
    "name": "solc",
    "version": "0.8.17+commit.8df45f5f.Emscripten.clang"
  },
  "schemaVersion": "3.4.11",
  "updatedAt": "2022-12-23T04:11:27.895Z",
  "devdoc": {
    "kind": "dev",
    "methods": {
      "owner()": {
        "details": "Returns the address of the current owner."
      },
      "renounceOwnership()": {
        "details": "Leaves the contract without owner. It will not be possible to call `onlyOwner` functions anymore. Can only be called by the current owner. NOTE: Renouncing ownership will leave the contract without an owner, thereby removing any functionality that is only available to the owner."
      },
      "transferOwnership(address)": {
        "details": "Transfers ownership of the contract to a new account (`newOwner`). Can only be called by the current owner."
      }
    },
    "version": 1
  },
  "userdoc": {
    "kind": "user",
    "methods": {},
    "version": 1
  }
}