{
  "contractName": "TestTrade",
  "abi": [
    {
      "inputs": [
        {
          "internalType": "address",
          "name": "tokenAddress_",
          "type": "address"
        }
      ],
      "stateMutability": "nonpayable",
      "type": "constructor"
    },
    {
      "anonymous": false,
      "inputs": [
        {
          "indexed": false,
          "internalType": "uint256",
          "name": "tokenId",
          "type": "uint256"
        },
        {
          "indexed": false,
          "internalType": "uint256",
          "name": "bidPrice",
          "type": "uint256"
        },
        {
          "indexed": false,
          "internalType": "address",
          "name": "bider",
          "type": "address"
        }
      ],
      "name": "BidOnAuction",
      "type": "event"
    },
    {
      "anonymous": false,
      "inputs": [
        {
          "indexed": false,
          "internalType": "uint256",
          "name": "tokenId",
          "type": "uint256"
        },
        {
          "indexed": false,
          "internalType": "address",
          "name": "caller",
          "type": "address"
        }
      ],
      "name": "ClaimMatchedAuction",
      "type": "event"
    },
    {
      "anonymous": false,
      "inputs": [
        {
          "indexed": true,
          "internalType": "address",
          "name": "previousOwner",
          "type": "address"
        },
        {
          "indexed": true,
          "internalType": "address",
          "name": "newOwner",
          "type": "address"
        }
      ],
      "name": "OwnershipTransferred",
      "type": "event"
    },
    {
      "anonymous": false,
      "inputs": [
        {
          "indexed": false,
          "internalType": "uint256",
          "name": "tokenId",
          "type": "uint256"
        },
        {
          "indexed": false,
          "internalType": "address",
          "name": "failedBider",
          "type": "address"
        }
      ],
      "name": "RefundBid",
      "type": "event"
    },
    {
      "anonymous": false,
      "inputs": [
        {
          "indexed": false,
          "internalType": "uint256",
          "name": "tokenId",
          "type": "uint256"
        }
      ],
      "name": "RegisterForAuction",
      "type": "event"
    },
    {
      "inputs": [],
      "name": "Token",
      "outputs": [
        {
          "internalType": "contract TestToken",
          "name": "",
          "type": "address"
        }
      ],
      "stateMutability": "view",
      "type": "function",
      "constant": true
    },
    {
      "inputs": [],
      "name": "owner",
      "outputs": [
        {
          "internalType": "address",
          "name": "",
          "type": "address"
        }
      ],
      "stateMutability": "view",
      "type": "function",
      "constant": true
    },
    {
      "inputs": [],
      "name": "renounceOwnership",
      "outputs": [],
      "stateMutability": "nonpayable",
      "type": "function"
    },
    {
      "inputs": [],
      "name": "saleFeeRate",
      "outputs": [
        {
          "internalType": "uint256",
          "name": "",
          "type": "uint256"
        }
      ],
      "stateMutability": "view",
      "type": "function",
      "constant": true
    },
    {
      "inputs": [
        {
          "internalType": "address",
          "name": "newOwner",
          "type": "address"
        }
      ],
      "name": "transferOwnership",
      "outputs": [],
      "stateMutability": "nonpayable",
      "type": "function"
    },
    {
      "inputs": [],
      "name": "getCA",
      "outputs": [
        {
          "internalType": "address",
          "name": "",
          "type": "address"
        }
      ],
      "stateMutability": "view",
      "type": "function",
      "constant": true
    },
    {
      "inputs": [
        {
          "internalType": "uint256",
          "name": "rate",
          "type": "uint256"
        }
      ],
      "name": "setSaleFeeRate",
      "outputs": [],
      "stateMutability": "nonpayable",
      "type": "function"
    },
    {
      "inputs": [],
      "name": "onSaleList",
      "outputs": [
        {
          "internalType": "uint256[]",
          "name": "",
          "type": "uint256[]"
        }
      ],
      "stateMutability": "view",
      "type": "function",
      "constant": true
    },
    {
      "inputs": [
        {
          "internalType": "uint256",
          "name": "tokenId",
          "type": "uint256"
        }
      ],
      "name": "priceOfOnSale",
      "outputs": [
        {
          "internalType": "uint256",
          "name": "",
          "type": "uint256"
        }
      ],
      "stateMutability": "view",
      "type": "function",
      "constant": true
    },
    {
      "inputs": [
        {
          "internalType": "uint256",
          "name": "tokenId",
          "type": "uint256"
        },
        {
          "internalType": "uint256",
          "name": "price",
          "type": "uint256"
        }
      ],
      "name": "registerForSale",
      "outputs": [],
      "stateMutability": "nonpayable",
      "type": "function"
    },
    {
      "inputs": [
        {
          "internalType": "uint256",
          "name": "tokenId",
          "type": "uint256"
        }
      ],
      "name": "cancleSale",
      "outputs": [],
      "stateMutability": "nonpayable",
      "type": "function"
    },
    {
      "inputs": [
        {
          "internalType": "uint256",
          "name": "tokenId",
          "type": "uint256"
        }
      ],
      "name": "purchase",
      "outputs": [],
      "stateMutability": "payable",
      "type": "function",
      "payable": true
    },
    {
      "inputs": [],
      "name": "onAuctionList",
      "outputs": [
        {
          "internalType": "uint256[]",
          "name": "",
          "type": "uint256[]"
        }
      ],
      "stateMutability": "view",
      "type": "function",
      "constant": true
    },
    {
      "inputs": [
        {
          "internalType": "uint256",
          "name": "tokenId",
          "type": "uint256"
        }
      ],
      "name": "dataOfOnAuction",
      "outputs": [
        {
          "components": [
            {
              "internalType": "uint256",
              "name": "lastBidPrice",
              "type": "uint256"
            },
            {
              "internalType": "uint256",
              "name": "endTime",
              "type": "uint256"
            },
            {
              "internalType": "address",
              "name": "bider",
              "type": "address"
            }
          ],
          "internalType": "struct TestTrade.AuctionInfo",
          "name": "",
          "type": "tuple"
        }
      ],
      "stateMutability": "view",
      "type": "function",
      "constant": true
    },
    {
      "inputs": [
        {
          "internalType": "uint256",
          "name": "tokenId",
          "type": "uint256"
        },
        {
          "internalType": "uint256",
          "name": "minimumPrice",
          "type": "uint256"
        },
        {
          "internalType": "uint256",
          "name": "lastingMinutes",
          "type": "uint256"
        }
      ],
      "name": "registerForAuction",
      "outputs": [],
      "stateMutability": "nonpayable",
      "type": "function"
    },
    {
      "inputs": [
        {
          "internalType": "uint256",
          "name": "tokenId",
          "type": "uint256"
        }
      ],
      "name": "bidOnAcution",
      "outputs": [],
      "stateMutability": "payable",
      "type": "function",
      "payable": true
    },
    {
      "inputs": [
        {
          "internalType": "uint256",
          "name": "tokenId",
          "type": "uint256"
        }
      ],
      "name": "cancleFailedAuction",
      "outputs": [],
      "stateMutability": "nonpayable",
      "type": "function"
    },
    {
      "inputs": [
        {
          "internalType": "uint256",
          "name": "tokenId",
          "type": "uint256"
        }
      ],
      "name": "claimMatchedAuction",
      "outputs": [],
      "stateMutability": "nonpayable",
      "type": "function"
    },
    {
      "inputs": [],
      "name": "notClaimedAuctionList",
      "outputs": [
        {
          "internalType": "uint256[]",
          "name": "",
          "type": "uint256[]"
        }
      ],
      "stateMutability": "view",
      "type": "function",
      "constant": true
    },
    {
      "inputs": [
        {
          "internalType": "address",
          "name": "owner",
          "type": "address"
        }
      ],
      "name": "onBidList",
      "outputs": [
        {
          "internalType": "uint256[]",
          "name": "",
          "type": "uint256[]"
        }
      ],
      "stateMutability": "view",
      "type": "function",
      "constant": true
    },
    {
      "inputs": [],
      "name": "withdrawFees",
      "outputs": [],
      "stateMutability": "nonpayable",
      "type": "function"
    }
  ],
  "bytecode": "0x608060405260056002553480156200001657600080fd5b5060405162003dfe38038062003dfe83398181016040528101906200003c9190620001da565b6200005c62000050620000a460201b60201c565b620000ac60201b60201c565b80600160006101000a81548173ffffffffffffffffffffffffffffffffffffffff021916908373ffffffffffffffffffffffffffffffffffffffff160217905550506200020c565b600033905090565b60008060009054906101000a900473ffffffffffffffffffffffffffffffffffffffff169050816000806101000a81548173ffffffffffffffffffffffffffffffffffffffff021916908373ffffffffffffffffffffffffffffffffffffffff1602179055508173ffffffffffffffffffffffffffffffffffffffff168173ffffffffffffffffffffffffffffffffffffffff167f8be0079c531659141344cd1fd0a4f28419497f9722a3daafe3b4186f6b6457e060405160405180910390a35050565b600080fd5b600073ffffffffffffffffffffffffffffffffffffffff82169050919050565b6000620001a28262000175565b9050919050565b620001b48162000195565b8114620001c057600080fd5b50565b600081519050620001d481620001a9565b92915050565b600060208284031215620001f357620001f262000170565b5b60006200020384828501620001c3565b91505092915050565b613be2806200021c6000396000f3fe60806040526004361061012a5760003560e01c806386cd9b83116100ab578063e033c2291161006f578063e033c229146103b8578063efef39a1146103d4578063f06d0a82146103f0578063f2fde38b14610419578063f5c6a2cf14610442578063fd8cf8881461046d5761012a565b806386cd9b83146102d35780638da5cb5b14610310578063c24126761461033b578063cee64c6514610366578063d43115c31461038f5761012a565b80635255f0d6116100f25780635255f0d6146102005780635870ea5e1461023d57806366066c7714610268578063715018a61461029357806382ef5ee5146102aa5761012a565b80630957c2d91461012f5780632afc95111461016c5780633a1cff7f14610195578063476343ee146101be5780634a5c46ed146101d5575b600080fd5b34801561013b57600080fd5b50610156600480360381019061015191906128ac565b610498565b60405161016391906129a1565b60405180910390f35b34801561017857600080fd5b50610193600480360381019061018e91906129ef565b6105eb565b005b3480156101a157600080fd5b506101bc60048036038101906101b791906129ef565b610a24565b005b3480156101ca57600080fd5b506101d3610a36565b005b3480156101e157600080fd5b506101ea610b4e565b6040516101f79190612a2b565b60405180910390f35b34801561020c57600080fd5b50610227600480360381019061022291906129ef565b610b54565b6040516102349190612a97565b60405180910390f35b34801561024957600080fd5b50610252610c43565b60405161025f91906129a1565b60405180910390f35b34801561027457600080fd5b5061027d610e1c565b60405161028a91906129a1565b60405180910390f35b34801561029f57600080fd5b506102a8610fa9565b005b3480156102b657600080fd5b506102d160048036038101906102cc9190612ab2565b610fbd565b005b3480156102df57600080fd5b506102fa60048036038101906102f591906129ef565b611215565b6040516103079190612a2b565b60405180910390f35b34801561031c57600080fd5b50610325611287565b6040516103329190612b01565b60405180910390f35b34801561034757600080fd5b506103506112b0565b60405161035d9190612b7b565b60405180910390f35b34801561037257600080fd5b5061038d60048036038101906103889190612b96565b6112d6565b005b34801561039b57600080fd5b506103b660048036038101906103b191906129ef565b6116b1565b005b6103d260048036038101906103cd91906129ef565b6116b4565b005b6103ee60048036038101906103e991906129ef565b611a46565b005b3480156103fc57600080fd5b50610417600480360381019061041291906129ef565b611d68565b005b34801561042557600080fd5b50610440600480360381019061043b91906128ac565b611ee3565b005b34801561044e57600080fd5b50610457611f66565b60405161046491906129a1565b60405180910390f35b34801561047957600080fd5b506104826120c1565b60405161048f9190612b01565b60405180910390f35b606060006104a5836120c9565b67ffffffffffffffff8111156104be576104bd612be9565b5b6040519080825280602002602001820160405280156104ec5781602001602082028036833780820191505090505b50905060006104f96121aa565b90506000610505610e1c565b90506000805b838110156105de57600083828151811061052857610527612c18565b5b602002602001015190508773ffffffffffffffffffffffffffffffffffffffff166004600083815260200190815260200160002060020160009054906101000a900473ffffffffffffffffffffffffffffffffffffffff1673ffffffffffffffffffffffffffffffffffffffff16036105ca57808684815181106105af576105ae612c18565b5b60200260200101818152505082806105c690612c76565b9350505b5080806105d690612c76565b91505061050b565b5083945050505050919050565b60006004600083815260200190815260200160002060010154905060006004600084815260200190815260200160002060000154905060006004600085815260200190815260200160002060020160009054906101000a900473ffffffffffffffffffffffffffffffffffffffff1690506000600160009054906101000a900473ffffffffffffffffffffffffffffffffffffffff1673ffffffffffffffffffffffffffffffffffffffff16636352211e866040518263ffffffff1660e01b81526004016106b99190612a2b565b602060405180830381865afa1580156106d6573d6000803e3d6000fd5b505050506040513d601f19601f820116820180604052508101906106fa9190612cd3565b905042841061073e576040517f08c379a000000000000000000000000000000000000000000000000000000000815260040161073590612d5d565b60405180910390fd5b60008303610781576040517f08c379a000000000000000000000000000000000000000000000000000000000815260040161077890612def565b60405180910390fd5b8173ffffffffffffffffffffffffffffffffffffffff163373ffffffffffffffffffffffffffffffffffffffff1614806107e657508073ffffffffffffffffffffffffffffffffffffffff163373ffffffffffffffffffffffffffffffffffffffff16145b610825576040517f08c379a000000000000000000000000000000000000000000000000000000000815260040161081c90612e81565b60405180910390fd5b6000606460025460646108389190612ea1565b856108439190612ed5565b61084d9190612f46565b905060008273ffffffffffffffffffffffffffffffffffffffff168260405161087590612fa8565b60006040518083038185875af1925050503d80600081146108b2576040519150601f19603f3d011682016040523d82523d6000602084013e6108b7565b606091505b50509050806108fb576040517f08c379a00000000000000000000000000000000000000000000000000000000081526004016108f290613009565b60405180910390fd5b600160009054906101000a900473ffffffffffffffffffffffffffffffffffffffff1673ffffffffffffffffffffffffffffffffffffffff166342842e0e84338a6040518463ffffffff1660e01b815260040161095a93929190613029565b600060405180830381600087803b15801561097457600080fd5b505af1158015610988573d6000803e3d6000fd5b5050505060006004600089815260200190815260200160002060020160006101000a81548173ffffffffffffffffffffffffffffffffffffffff021916908373ffffffffffffffffffffffffffffffffffffffff1602179055507f1b8a46b4ba92d15058e2a028d473fc5037835f1f8466a1a4a538634ac081d1548733604051610a13929190613060565b60405180910390a150505050505050565b610a2c6122c2565b8060028190555050565b610a3e6122c2565b6000610a48612340565b905060008147610a589190612ea1565b905060008111610a9d576040517f08c379a0000000000000000000000000000000000000000000000000000000008152600401610a94906130fb565b60405180910390fd5b60003373ffffffffffffffffffffffffffffffffffffffff1682604051610ac390612fa8565b60006040518083038185875af1925050503d8060008114610b00576040519150601f19603f3d011682016040523d82523d6000602084013e610b05565b606091505b5050905080610b49576040517f08c379a0000000000000000000000000000000000000000000000000000000008152600401610b4090613167565b60405180910390fd5b505050565b60025481565b610b5c612812565b42600460008481526020019081526020016000206001015411610bb4576040517f08c379a0000000000000000000000000000000000000000000000000000000008152600401610bab906131d3565b60405180910390fd5b6004600083815260200190815260200160002060405180606001604052908160008201548152602001600182015481526020016002820160009054906101000a900473ffffffffffffffffffffffffffffffffffffffff1673ffffffffffffffffffffffffffffffffffffffff1673ffffffffffffffffffffffffffffffffffffffff16815250509050919050565b60606000610c4f6123ef565b67ffffffffffffffff811115610c6857610c67612be9565b5b604051908082528060200260200182016040528015610c965781602001602082028036833780820191505090505b509050600080600190505b600160009054906101000a900473ffffffffffffffffffffffffffffffffffffffff1673ffffffffffffffffffffffffffffffffffffffff166318160ddd6040518163ffffffff1660e01b8152600401602060405180830381865afa158015610d0e573d6000803e3d6000fd5b505050506040513d601f19601f82011682018060405250810190610d329190613208565b8111610e135760006004600083815260200190815260200160002060010154905060006004600084815260200190815260200160002060020160009054906101000a900473ffffffffffffffffffffffffffffffffffffffff169050600073ffffffffffffffffffffffffffffffffffffffff168173ffffffffffffffffffffffffffffffffffffffff1614158015610dca57504282105b15610dfe5782858581518110610de357610de2612c18565b5b6020026020010181815250508380610dfa90612c76565b9450505b50508080610e0b90612c76565b915050610ca1565b50819250505090565b60606000610e286121aa565b67ffffffffffffffff811115610e4157610e40612be9565b5b604051908082528060200260200182016040528015610e6f5781602001602082028036833780820191505090505b509050600080600190505b600160009054906101000a900473ffffffffffffffffffffffffffffffffffffffff1673ffffffffffffffffffffffffffffffffffffffff166318160ddd6040518163ffffffff1660e01b8152600401602060405180830381865afa158015610ee7573d6000803e3d6000fd5b505050506040513d601f19601f82011682018060405250810190610f0b9190613208565b8111610fa05760006004600083815260200190815260200160002060000154905060006004600084815260200190815260200160002060010154905060008214158015610f5757504281115b15610f8b5782858581518110610f7057610f6f612c18565b5b6020026020010181815250508380610f8790612c76565b9450505b50508080610f9890612c76565b915050610e7a565b50819250505090565b610fb16122c2565b610fbb6000612553565b565b3373ffffffffffffffffffffffffffffffffffffffff16600160009054906101000a900473ffffffffffffffffffffffffffffffffffffffff1673ffffffffffffffffffffffffffffffffffffffff16636352211e846040518263ffffffff1660e01b815260040161102f9190612a2b565b602060405180830381865afa15801561104c573d6000803e3d6000fd5b505050506040513d601f19601f820116820180604052508101906110709190612cd3565b73ffffffffffffffffffffffffffffffffffffffff16146110c6576040517f08c379a00000000000000000000000000000000000000000000000000000000081526004016110bd90613281565b60405180910390fd5b60008111611109576040517f08c379a0000000000000000000000000000000000000000000000000000000008152600401611100906132ed565b60405180910390fd5b61111282612617565b15611152576040517f08c379a000000000000000000000000000000000000000000000000000000000815260040161114990613359565b60405180910390fd5b600160009054906101000a900473ffffffffffffffffffffffffffffffffffffffff1673ffffffffffffffffffffffffffffffffffffffff1663e985e9c533306040518363ffffffff1660e01b81526004016111af929190613379565b602060405180830381865afa1580156111cc573d6000803e3d6000fd5b505050506040513d601f19601f820116820180604052508101906111f091906133da565b6111f957600080fd5b8060036000848152602001908152602001600020819055505050565b60008060036000848152602001908152602001600020541161126c576040517f08c379a000000000000000000000000000000000000000000000000000000000815260040161126390613453565b60405180910390fd5b60036000838152602001908152602001600020549050919050565b60008060009054906101000a900473ffffffffffffffffffffffffffffffffffffffff16905090565b600160009054906101000a900473ffffffffffffffffffffffffffffffffffffffff1681565b3373ffffffffffffffffffffffffffffffffffffffff16600160009054906101000a900473ffffffffffffffffffffffffffffffffffffffff1673ffffffffffffffffffffffffffffffffffffffff16636352211e856040518263ffffffff1660e01b81526004016113489190612a2b565b602060405180830381865afa158015611365573d6000803e3d6000fd5b505050506040513d601f19601f820116820180604052508101906113899190612cd3565b73ffffffffffffffffffffffffffffffffffffffff16146113df576040517f08c379a00000000000000000000000000000000000000000000000000000000081526004016113d690613281565b60405180910390fd5b66038d7ea4c68000821015611429576040517f08c379a0000000000000000000000000000000000000000000000000000000008152600401611420906134e5565b60405180910390fd5b600060036000858152602001908152602001600020541115611480576040517f08c379a000000000000000000000000000000000000000000000000000000000815260040161147790613551565b60405180910390fd5b426004600085815260200190815260200160002060010154106114d8576040517f08c379a00000000000000000000000000000000000000000000000000000000081526004016114cf906135bd565b60405180910390fd5b600160009054906101000a900473ffffffffffffffffffffffffffffffffffffffff1673ffffffffffffffffffffffffffffffffffffffff1663e985e9c533306040518363ffffffff1660e01b8152600401611535929190613379565b602060405180830381865afa158015611552573d6000803e3d6000fd5b505050506040513d601f19601f8201168201806040525081019061157691906133da565b6115b5576040517f08c379a00000000000000000000000000000000000000000000000000000000081526004016115ac90613629565b60405180910390fd5b6000603c826115c49190612ed5565b426115cf9190613649565b90506040518060600160405280848152602001828152602001600073ffffffffffffffffffffffffffffffffffffffff1681525060046000868152602001908152602001600020600082015181600001556020820151816001015560408201518160020160006101000a81548173ffffffffffffffffffffffffffffffffffffffff021916908373ffffffffffffffffffffffffffffffffffffffff1602179055509050507f8f9bdaa92ac45cc3a1570f596a0c879e145abf5b70d2c26946e884184cd96519846040516116a39190612a2b565b60405180910390a150505050565b50565b60006004600083815260200190815260200160002060000154905060006004600084815260200190815260200160002060010154905060006004600085815260200190815260200160002060020160009054906101000a900473ffffffffffffffffffffffffffffffffffffffff169050814210611767576040517f08c379a000000000000000000000000000000000000000000000000000000000815260040161175e906136c9565b60405180910390fd5b3373ffffffffffffffffffffffffffffffffffffffff16600160009054906101000a900473ffffffffffffffffffffffffffffffffffffffff1673ffffffffffffffffffffffffffffffffffffffff16636352211e866040518263ffffffff1660e01b81526004016117d99190612a2b565b602060405180830381865afa1580156117f6573d6000803e3d6000fd5b505050506040513d601f19601f8201168201806040525081019061181a9190612cd3565b73ffffffffffffffffffffffffffffffffffffffff1603611870576040517f08c379a000000000000000000000000000000000000000000000000000000000815260040161186790613735565b60405180910390fd5b600083116118b3576040517f08c379a00000000000000000000000000000000000000000000000000000000081526004016118aa906137a1565b60405180910390fd5b8234116118f5576040517f08c379a00000000000000000000000000000000000000000000000000000000081526004016118ec90613833565b60405180910390fd5b600066038d7ea4c68000843461190b9190612ea1565b6119159190613853565b14611955576040517f08c379a000000000000000000000000000000000000000000000000000000000815260040161194c906138a7565b60405180910390fd5b600073ffffffffffffffffffffffffffffffffffffffff168173ffffffffffffffffffffffffffffffffffffffff161461199557611994848285612639565b5b346004600086815260200190815260200160002060000181905550336004600086815260200190815260200160002060020160006101000a81548173ffffffffffffffffffffffffffffffffffffffff021916908373ffffffffffffffffffffffffffffffffffffffff1602179055507f2e8aa4a142971e5869dd16ff8b28d697bb44ae2491e376ddaa14d601be1c0f85843483604051611a38939291906138c7565b60405180910390a150505050565b6000600360008381526020019081526020016000205490506000600160009054906101000a900473ffffffffffffffffffffffffffffffffffffffff1673ffffffffffffffffffffffffffffffffffffffff16636352211e846040518263ffffffff1660e01b8152600401611abb9190612a2b565b602060405180830381865afa158015611ad8573d6000803e3d6000fd5b505050506040513d601f19601f82011682018060405250810190611afc9190612cd3565b90503373ffffffffffffffffffffffffffffffffffffffff168173ffffffffffffffffffffffffffffffffffffffff1603611b6c576040517f08c379a0000000000000000000000000000000000000000000000000000000008152600401611b639061394a565b60405180910390fd5b60008211611baf576040517f08c379a0000000000000000000000000000000000000000000000000000000008152600401611ba6906139b6565b60405180910390fd5b813414611bf1576040517f08c379a0000000000000000000000000000000000000000000000000000000008152600401611be890613a22565b60405180910390fd5b600060646002546064611c049190612ea1565b84611c0f9190612ed5565b611c199190612f46565b905060008273ffffffffffffffffffffffffffffffffffffffff1682604051611c4190612fa8565b60006040518083038185875af1925050503d8060008114611c7e576040519150601f19603f3d011682016040523d82523d6000602084013e611c83565b606091505b5050905080611cc7576040517f08c379a0000000000000000000000000000000000000000000000000000000008152600401611cbe90613009565b60405180910390fd5b600160009054906101000a900473ffffffffffffffffffffffffffffffffffffffff1673ffffffffffffffffffffffffffffffffffffffff166342842e0e8433886040518463ffffffff1660e01b8152600401611d2693929190613029565b600060405180830381600087803b158015611d4057600080fd5b505af1158015611d54573d6000803e3d6000fd5b50505050611d6185611d68565b5050505050565b3373ffffffffffffffffffffffffffffffffffffffff16600160009054906101000a900473ffffffffffffffffffffffffffffffffffffffff1673ffffffffffffffffffffffffffffffffffffffff16636352211e836040518263ffffffff1660e01b8152600401611dda9190612a2b565b602060405180830381865afa158015611df7573d6000803e3d6000fd5b505050506040513d601f19601f82011682018060405250810190611e1b9190612cd3565b73ffffffffffffffffffffffffffffffffffffffff1614611e71576040517f08c379a0000000000000000000000000000000000000000000000000000000008152600401611e6890613281565b60405180910390fd5b6000600360008381526020019081526020016000205411611ec7576040517f08c379a0000000000000000000000000000000000000000000000000000000008152600401611ebe90613453565b60405180910390fd5b6000600360008381526020019081526020016000208190555050565b611eeb6122c2565b600073ffffffffffffffffffffffffffffffffffffffff168173ffffffffffffffffffffffffffffffffffffffff1603611f5a576040517f08c379a0000000000000000000000000000000000000000000000000000000008152600401611f5190613ab4565b60405180910390fd5b611f6381612553565b50565b60606000611f72612724565b67ffffffffffffffff811115611f8b57611f8a612be9565b5b604051908082528060200260200182016040528015611fb95781602001602082028036833780820191505090505b509050600080600190505b600160009054906101000a900473ffffffffffffffffffffffffffffffffffffffff1673ffffffffffffffffffffffffffffffffffffffff166318160ddd6040518163ffffffff1660e01b8152600401602060405180830381865afa158015612031573d6000803e3d6000fd5b505050506040513d601f19601f820116820180604052508101906120559190613208565b81116120b85760006003600083815260200190815260200160002054146120a5578083838151811061208a57612089612c18565b5b60200260200101818152505081806120a190612c76565b9250505b80806120b090612c76565b915050611fc4565b50819250505090565b600030905090565b6000806000905060006120da6121aa565b905060006120e6610e1c565b905060005b8281101561219e57600082828151811061210857612107612c18565b5b602002602001015190508673ffffffffffffffffffffffffffffffffffffffff166004600083815260200190815260200160002060020160009054906101000a900473ffffffffffffffffffffffffffffffffffffffff1673ffffffffffffffffffffffffffffffffffffffff160361218a57848061218690612c76565b9550505b50808061219690612c76565b9150506120eb565b50829350505050919050565b6000806000600190505b600160009054906101000a900473ffffffffffffffffffffffffffffffffffffffff1673ffffffffffffffffffffffffffffffffffffffff166318160ddd6040518163ffffffff1660e01b8152600401602060405180830381865afa158015612221573d6000803e3d6000fd5b505050506040513d601f19601f820116820180604052508101906122459190613208565b81116122ba576000600460008381526020019081526020016000206000015490506000600460008481526020019081526020016000206001015490506000821415801561229157504281115b156122a55783806122a190612c76565b9450505b505080806122b290612c76565b9150506121b4565b508091505090565b6122ca61280a565b73ffffffffffffffffffffffffffffffffffffffff166122e8611287565b73ffffffffffffffffffffffffffffffffffffffff161461233e576040517f08c379a000000000000000000000000000000000000000000000000000000000815260040161233590613b20565b60405180910390fd5b565b60008061234b610c43565b9050600080600090505b82518110156123e657600083828151811061237357612372612c18565b5b602002602001015190506000600460008381526020019081526020016000206000015490506000606460025460646123ab9190612ea1565b836123b69190612ed5565b6123c09190612f46565b905080856123ce9190613649565b945050505080806123de90612c76565b915050612355565b50809250505090565b6000806000600190505b600160009054906101000a900473ffffffffffffffffffffffffffffffffffffffff1673ffffffffffffffffffffffffffffffffffffffff166318160ddd6040518163ffffffff1660e01b8152600401602060405180830381865afa158015612466573d6000803e3d6000fd5b505050506040513d601f19601f8201168201806040525081019061248a9190613208565b811161254b5760006004600083815260200190815260200160002060010154905060006004600084815260200190815260200160002060020160009054906101000a900473ffffffffffffffffffffffffffffffffffffffff169050600073ffffffffffffffffffffffffffffffffffffffff168173ffffffffffffffffffffffffffffffffffffffff161415801561252257504282105b1561253657838061253290612c76565b9450505b5050808061254390612c76565b9150506123f9565b508091505090565b60008060009054906101000a900473ffffffffffffffffffffffffffffffffffffffff169050816000806101000a81548173ffffffffffffffffffffffffffffffffffffffff021916908373ffffffffffffffffffffffffffffffffffffffff1602179055508173ffffffffffffffffffffffffffffffffffffffff168173ffffffffffffffffffffffffffffffffffffffff167f8be0079c531659141344cd1fd0a4f28419497f9722a3daafe3b4186f6b6457e060405160405180910390a35050565b6000426004600084815260200190815260200160002060010154119050919050565b60008273ffffffffffffffffffffffffffffffffffffffff168260405161265f90612fa8565b60006040518083038185875af1925050503d806000811461269c576040519150601f19603f3d011682016040523d82523d6000602084013e6126a1565b606091505b50509050806126e5576040517f08c379a00000000000000000000000000000000000000000000000000000000081526004016126dc90613b8c565b60405180910390fd5b7f1e935a7fb28a0412065cab7ad70c27cf05afe9a9e9d7ab2d424d099c373ac3818484604051612716929190613060565b60405180910390a150505050565b6000806000600190505b600160009054906101000a900473ffffffffffffffffffffffffffffffffffffffff1673ffffffffffffffffffffffffffffffffffffffff166318160ddd6040518163ffffffff1660e01b8152600401602060405180830381865afa15801561279b573d6000803e3d6000fd5b505050506040513d601f19601f820116820180604052508101906127bf9190613208565b81116128025760006003600083815260200190815260200160002054146127ef5781806127eb90612c76565b9250505b80806127fa90612c76565b91505061272e565b508091505090565b600033905090565b60405180606001604052806000815260200160008152602001600073ffffffffffffffffffffffffffffffffffffffff1681525090565b600080fd5b600073ffffffffffffffffffffffffffffffffffffffff82169050919050565b60006128798261284e565b9050919050565b6128898161286e565b811461289457600080fd5b50565b6000813590506128a681612880565b92915050565b6000602082840312156128c2576128c1612849565b5b60006128d084828501612897565b91505092915050565b600081519050919050565b600082825260208201905092915050565b6000819050602082019050919050565b6000819050919050565b61291881612905565b82525050565b600061292a838361290f565b60208301905092915050565b6000602082019050919050565b600061294e826128d9565b61295881856128e4565b9350612963836128f5565b8060005b8381101561299457815161297b888261291e565b975061298683612936565b925050600181019050612967565b5085935050505092915050565b600060208201905081810360008301526129bb8184612943565b905092915050565b6129cc81612905565b81146129d757600080fd5b50565b6000813590506129e9816129c3565b92915050565b600060208284031215612a0557612a04612849565b5b6000612a13848285016129da565b91505092915050565b612a2581612905565b82525050565b6000602082019050612a406000830184612a1c565b92915050565b612a4f8161286e565b82525050565b606082016000820151612a6b600085018261290f565b506020820151612a7e602085018261290f565b506040820151612a916040850182612a46565b50505050565b6000606082019050612aac6000830184612a55565b92915050565b60008060408385031215612ac957612ac8612849565b5b6000612ad7858286016129da565b9250506020612ae8858286016129da565b9150509250929050565b612afb8161286e565b82525050565b6000602082019050612b166000830184612af2565b92915050565b6000819050919050565b6000612b41612b3c612b378461284e565b612b1c565b61284e565b9050919050565b6000612b5382612b26565b9050919050565b6000612b6582612b48565b9050919050565b612b7581612b5a565b82525050565b6000602082019050612b906000830184612b6c565b92915050565b600080600060608486031215612baf57612bae612849565b5b6000612bbd868287016129da565b9350506020612bce868287016129da565b9250506040612bdf868287016129da565b9150509250925092565b7f4e487b7100000000000000000000000000000000000000000000000000000000600052604160045260246000fd5b7f4e487b7100000000000000000000000000000000000000000000000000000000600052603260045260246000fd5b7f4e487b7100000000000000000000000000000000000000000000000000000000600052601160045260246000fd5b6000612c8182612905565b91507fffffffffffffffffffffffffffffffffffffffffffffffffffffffffffffffff8203612cb357612cb2612c47565b5b600182019050919050565b600081519050612ccd81612880565b92915050565b600060208284031215612ce957612ce8612849565b5b6000612cf784828501612cbe565b91505092915050565b600082825260208201905092915050565b7f61756374696f6e206e6f7420656e646564000000000000000000000000000000600082015250565b6000612d47601183612d00565b9150612d5282612d11565b602082019050919050565b60006020820190508181036000830152612d7681612d3a565b9050919050565b7f7468697320746f6b656e20646964206e6f742072656769737465726564206f6e60008201527f2061756374696f6e000000000000000000000000000000000000000000000000602082015250565b6000612dd9602883612d00565b9150612de482612d7d565b604082019050919050565b60006020820190508181036000830152612e0881612dcc565b9050919050565b7f63616c6c6572206973206e6f742068696768657374206269646572206e6f722060008201527f73656c6c65720000000000000000000000000000000000000000000000000000602082015250565b6000612e6b602683612d00565b9150612e7682612e0f565b604082019050919050565b60006020820190508181036000830152612e9a81612e5e565b9050919050565b6000612eac82612905565b9150612eb783612905565b9250828203905081811115612ecf57612ece612c47565b5b92915050565b6000612ee082612905565b9150612eeb83612905565b9250828202612ef981612905565b91508282048414831517612f1057612f0f612c47565b5b5092915050565b7f4e487b7100000000000000000000000000000000000000000000000000000000600052601260045260246000fd5b6000612f5182612905565b9150612f5c83612905565b925082612f6c57612f6b612f17565b5b828204905092915050565b600081905092915050565b50565b6000612f92600083612f77565b9150612f9d82612f82565b600082019050919050565b6000612fb382612f85565b9150819050919050565b7f7061796d656e74206661696c6564000000000000000000000000000000000000600082015250565b6000612ff3600e83612d00565b9150612ffe82612fbd565b602082019050919050565b6000602082019050818103600083015261302281612fe6565b9050919050565b600060608201905061303e6000830186612af2565b61304b6020830185612af2565b6130586040830184612a1c565b949350505050565b60006040820190506130756000830185612a1c565b6130826020830184612af2565b9392505050565b7f62616c616e636520776974686f7574206e6f74436c61696d65644d6f6e65792060008201527f6973207a65726f00000000000000000000000000000000000000000000000000602082015250565b60006130e5602783612d00565b91506130f082613089565b604082019050919050565b60006020820190508181036000830152613114816130d8565b9050919050565b7f7769746864726177206661696c65640000000000000000000000000000000000600082015250565b6000613151600f83612d00565b915061315c8261311b565b602082019050919050565b6000602082019050818103600083015261318081613144565b9050919050565b7f7468697320746f6b656e206973206e6f74206f6e2041756374696f6e00000000600082015250565b60006131bd601c83612d00565b91506131c882613187565b602082019050919050565b600060208201905081810360008301526131ec816131b0565b9050919050565b600081519050613202816129c3565b92915050565b60006020828403121561321e5761321d612849565b5b600061322c848285016131f3565b91505092915050565b7f63616c6c6572206973206e6f74206f776e657200000000000000000000000000600082015250565b600061326b601383612d00565b915061327682613235565b602082019050919050565b6000602082019050818103600083015261329a8161325e565b9050919050565b7f7072696365206d7573742062652067726561746572207468616e207a65726f00600082015250565b60006132d7601f83612d00565b91506132e2826132a1565b602082019050919050565b60006020820190508181036000830152613306816132ca565b9050919050565b7f7468697320746f6b656e206973206f6e2061756374696f6e0000000000000000600082015250565b6000613343601883612d00565b915061334e8261330d565b602082019050919050565b6000602082019050818103600083015261337281613336565b9050919050565b600060408201905061338e6000830185612af2565b61339b6020830184612af2565b9392505050565b60008115159050919050565b6133b7816133a2565b81146133c257600080fd5b50565b6000815190506133d4816133ae565b92915050565b6000602082840312156133f0576133ef612849565b5b60006133fe848285016133c5565b91505092915050565b7f7468697320746f6b656e206973206e6f74206f6e2073616c6500000000000000600082015250565b600061343d601983612d00565b915061344882613407565b602082019050919050565b6000602082019050818103600083015261346c81613430565b9050919050565b7f6d696e696d756d5072696365206d75737420626520677265617465722074686160008201527f6e7320302e303031206574686572000000000000000000000000000000000000602082015250565b60006134cf602e83612d00565b91506134da82613473565b604082019050919050565b600060208201905081810360008301526134fe816134c2565b9050919050565b7f7468697320746f6b656e20697320616c7265616479206f6e2053616c65000000600082015250565b600061353b601d83612d00565b915061354682613505565b602082019050919050565b6000602082019050818103600083015261356a8161352e565b9050919050565b7f7468697320746f6b656e20697320616c7265616479206f6e2061756374696f6e600082015250565b60006135a7602083612d00565b91506135b282613571565b602082019050919050565b600060208201905081810360008301526135d68161359a565b9050919050565b7f6e6f7420617070726f7665640000000000000000000000000000000000000000600082015250565b6000613613600c83612d00565b915061361e826135dd565b602082019050919050565b6000602082019050818103600083015261364281613606565b9050919050565b600061365482612905565b915061365f83612905565b925082820190508082111561367757613676612c47565b5b92915050565b7f746869732061637574696f6e20656e6465640000000000000000000000000000600082015250565b60006136b3601283612d00565b91506136be8261367d565b602082019050919050565b600060208201905081810360008301526136e2816136a6565b9050919050565b7f6f776e65722063616e6e6f7420626964206f6e206f776e730000000000000000600082015250565b600061371f601883612d00565b915061372a826136e9565b602082019050919050565b6000602082019050818103600083015261374e81613712565b9050919050565b7f7468697320746f6b656e206973206e6f74206f6e2061756374696f6e00000000600082015250565b600061378b601c83612d00565b915061379682613755565b602082019050919050565b600060208201905081810360008301526137ba8161377e565b9050919050565b7f626964206d7573742062652067726561746572207468616e206c61737420626960008201527f6400000000000000000000000000000000000000000000000000000000000000602082015250565b600061381d602183612d00565b9150613828826137c1565b604082019050919050565b6000602082019050818103600083015261384c81613810565b9050919050565b600061385e82612905565b915061386983612905565b92508261387957613878612f17565b5b828206905092915050565b6000613891600083612d00565b915061389c82612f82565b600082019050919050565b600060208201905081810360008301526138c081613884565b9050919050565b60006060820190506138dc6000830186612a1c565b6138e96020830185612a1c565b6138f66040830184612af2565b949350505050565b7f6f776e65722063616e6e6f7420627579206f776e730000000000000000000000600082015250565b6000613934601583612d00565b915061393f826138fe565b602082019050919050565b6000602082019050818103600083015261396381613927565b9050919050565b7f74686973206e6674206973206e6f74206f6e2073616c65000000000000000000600082015250565b60006139a0601783612d00565b91506139ab8261396a565b602082019050919050565b600060208201905081810360008301526139cf81613993565b9050919050565b7f7061796d656e7420646f73656e2774206d617463680000000000000000000000600082015250565b6000613a0c601583612d00565b9150613a17826139d6565b602082019050919050565b60006020820190508181036000830152613a3b816139ff565b9050919050565b7f4f776e61626c653a206e6577206f776e657220697320746865207a65726f206160008201527f6464726573730000000000000000000000000000000000000000000000000000602082015250565b6000613a9e602683612d00565b9150613aa982613a42565b604082019050919050565b60006020820190508181036000830152613acd81613a91565b9050919050565b7f4f776e61626c653a2063616c6c6572206973206e6f7420746865206f776e6572600082015250565b6000613b0a602083612d00565b9150613b1582613ad4565b602082019050919050565b60006020820190508181036000830152613b3981613afd565b9050919050565b7f726566756e64206661696c656400000000000000000000000000000000000000600082015250565b6000613b76600d83612d00565b9150613b8182613b40565b602082019050919050565b60006020820190508181036000830152613ba581613b69565b905091905056fea26469706673582212207d6d4f0ca388da28bcb1446bec83d8ea1252a9ad387ba89b405c233203b6eb7964736f6c63430008110033",
  "immutableReferences": {},
  "source": "// SPDX-License-Identifier: MIT\npragma solidity ^0.8.17;\n\nimport \"./TestToken.sol\";\n\nimport \"../node_modules/@openzeppelin/contracts/access/Ownable.sol\";\n// remix  \n// import \"openzeppelin-solidity/contracts/access/Ownable.sol\";\n\ncontract TestTrade is Ownable{\n    TestToken public Token;\n\n    uint256 public saleFeeRate = 5; //\n\n    struct AuctionInfo {\n        uint256 lastBidPrice; //    \n        uint256 endTime;\n        address bider; //    address(0)\n    }\n\n    mapping(uint => uint) private _tokensOnSale;\n    // tokenId to price\n    mapping(uint => AuctionInfo) private _tokensOnAuction;\n    // tokenId to AuctionInfo\n\n    constructor(address tokenAddress_) {\n        Token = TestToken(tokenAddress_);\n    }\n\n    event RegisterForAuction(uint256 tokenId);\n    event BidOnAuction(uint256 tokenId, uint256 bidPrice , address bider);\n    event RefundBid(uint256 tokenId, address failedBider);\n\n    // CA \n    function getCA() external view returns(address){\n      return(address(this));\n    }\n\n    //  \n    function setSaleFeeRate(uint256 rate) external onlyOwner {\n        saleFeeRate = rate;\n    } \n\n    //   ()\n    function _countOnSale() private view returns(uint256) {\n        uint256 count;\n\n        for(uint tokenId = 1; tokenId <= Token.totalSupply(); tokenId++) {\n            if(_tokensOnSale[tokenId] != 0) count ++;\n        }\n\n        return count;\n    }\n\n    //   ( )\n    function onSaleList() external view returns(uint256[] memory){\n        uint256[] memory tokensOnSale = new uint256[](_countOnSale()); //  \n        uint256 index = 0;\n\n        for(uint tokenId = 1; tokenId <= Token.totalSupply(); tokenId++) {\n            if(_tokensOnSale[tokenId] != 0) {\n                tokensOnSale[index] = tokenId;\n                index ++;\n            }\n        }\n\n        return tokensOnSale;\n    }\n\n    //    ( )\n    function priceOfOnSale(uint256 tokenId) public view  returns(uint256)  {\n        require(_tokensOnSale[tokenId] > 0, \"this token is not on sale\");\n        return _tokensOnSale[tokenId];\n        //  0  (   )\n    }  \n\n    // ( )\n    function registerForSale(uint256 tokenId, uint256 price) external {\n        require(Token.ownerOf(tokenId) == msg.sender, \"caller is not owner\");\n        require(price > 0, \"price must be greater than zero\");\n        require(!_isOnAuction(tokenId), \"this token is on auction\"); //   \n        //  Nft  setApprovalForAll(address operator, bool approved)\n        //  operator  CA   .\n        require(Token.isApprovedForAll(msg.sender, address(this)));\n\n        _tokensOnSale[tokenId] = price;\n    }\n\n    //  ( )\n    function cancleSale(uint256 tokenId) public {\n        require(Token.ownerOf(tokenId) == msg.sender, \"caller is not owner\");\n        require(_tokensOnSale[tokenId] > 0, \"this token is not on sale\");\n        _tokensOnSale[tokenId] = 0; //  0    \n        // Token.setApprovalForAll(address(this), false); // approve   \n        //    require operater != msg.sender   \n        //    CA  ...\n        //       setApprovalForAll(  CA, false)  .\n        //          ,\n    }\n\n    // ( )\n    function purchase(uint256 tokenId) external payable {\n        uint256 price = _tokensOnSale[tokenId];\n        address tokenOwner = Token.ownerOf(tokenId);\n\n        require(tokenOwner != msg.sender, \"owner cannot buy owns\");\n        require(price > 0, \"this nft is not on sale\");\n        require(msg.value == price, \"payment dosen't match\");\n        //   transferFrom    \n        //            ?\n\n        uint256 incomeAfterFee = price * (100 - saleFeeRate) / 100;\n        (bool success, ) = tokenOwner.call{value: incomeAfterFee}(\"\");\n        require(success, \"payment failed\");\n\n        Token.safeTransferFrom(tokenOwner, msg.sender, tokenId);\n        //      cancleSale \n        // require(Token.ownerOf(tokenId) == msg.sender, \"caller is not owner\");   .\n        cancleSale(tokenId);\n    }\n\n\n    //    ( )\n    function _countOnAuction() private view returns(uint256) {\n        uint256 count;\n\n        for(uint tokenId = 1; tokenId <= Token.totalSupply(); tokenId++) {\n            uint256 lastBidPrice = _tokensOnAuction[tokenId].lastBidPrice;\n            uint256 endTime = _tokensOnAuction[tokenId].endTime;\n\n            if(lastBidPrice != 0 && endTime > block.timestamp) {\n                count ++;\n            } // lastBidPrice 0   \n              // endTime  block.timestamp    .\n        }\n\n        return count;\n    }\n\n    //    ( )\n    function onAuctionList() public view returns(uint256[] memory){\n        uint256[] memory tokensOnAuction = new uint256[](_countOnAuction()); //  \n        uint256 index = 0;\n\n        for(uint tokenId = 1; tokenId <= Token.totalSupply(); tokenId++) {\n            uint256 lastBidPrice = _tokensOnAuction[tokenId].lastBidPrice;\n            uint256 endTime = _tokensOnAuction[tokenId].endTime;\n\n            if(lastBidPrice != 0 && endTime > block.timestamp) {\n                tokensOnAuction[index] = tokenId;\n                index ++;\n            } // lastBidPrice 0   \n              // endTime  block.timestamp    .\n        }\n\n        return tokensOnAuction;\n    }\n\n    //    ()\n    function dataOfOnAuction(uint256 tokenId) public view returns(AuctionInfo memory){\n        require(_tokensOnAuction[tokenId].endTime > block.timestamp, \"this token is not on Auction\");\n        return _tokensOnAuction[tokenId];\n    }\n\n    //   \n    function _isOnAuction(uint256 tokenId) private view returns(bool) {\n        return (_tokensOnAuction[tokenId].endTime > block.timestamp);\n        //     true\n    }\n\n    // ()\n    function registerForAuction(uint256 tokenId, uint256 minimumPrice, uint256 lastingMinutes) external {\n        require(Token.ownerOf(tokenId) == msg.sender, \"caller is not owner\");\n        require(minimumPrice >= 0.001 ether, \"minimumPrice must be greater thans 0.001 ether\"); //     \n        require(_tokensOnSale[tokenId] <= 0, \"this token is already on Sale\"); //    \n        require(_tokensOnAuction[tokenId].endTime < block.timestamp, \"this token is already on auction\"); //   \n        //  Nft   setApprovalForAll(address operator, bool approved)\n        //  operator   CA    .\n        require(Token.isApprovedForAll(msg.sender, address(this)), \"not approved\");\n\n        uint256 endTime = block.timestamp + lastingMinutes * 60;\n\n        _tokensOnAuction[tokenId] = AuctionInfo(minimumPrice, endTime, address(0)); //      address(0) \n\n        emit RegisterForAuction(tokenId);\n    }\n\n    //  ()\n    function bidOnAcution(uint256 tokenId) external payable {\n        uint256 lastBidPrice = _tokensOnAuction[tokenId].lastBidPrice;\n        uint256 endTime = _tokensOnAuction[tokenId].endTime;\n        address bider = _tokensOnAuction[tokenId].bider;\n        // {uint256 lastBidPrice, uint256 endTime, address bider} = _tokensOnAuction[tokenId];\n\n        require(block.timestamp < endTime, \"this acution ended\"); //   \n        require(Token.ownerOf(tokenId) != msg.sender, \"owner cannot bid on owns\"); //   \n        require(lastBidPrice > 0 , \"this token is not on auction\"); //  \n        require(msg.value > lastBidPrice, \"bid must be greater than last bid\"); //     \n        require((msg.value - lastBidPrice) % 0.001 ether == 0, \"\"); //  0.001 \n\n        if(bider != address(0)) { //   \n            _refundBid(tokenId ,bider ,lastBidPrice); //  \n        }\n\n        _tokensOnAuction[tokenId].lastBidPrice = msg.value;\n        _tokensOnAuction[tokenId].bider = msg.sender;\n\n        emit BidOnAuction(tokenId, msg.value , bider);\n    }\n\n    //   ()\n    function _refundBid(uint256 tokenId ,address to, uint256 bidPrice) private {\n        // payable(to).transfer(bidPrice);\n        (bool success, ) = to.call{value: bidPrice}(\"\");\n        require(success, \"refund failed\");\n\n        emit RefundBid(tokenId, to);\n    }   \n\n    //   (  )\n    function cancleFailedAuction(uint tokenId) external {\n        //   endTime  block.timestamp     \n        //      \n        //         \n\n        //   approve  ?\n\n        // uint256 lastBidPrice = _tokensOnAuction[tokenId].lastBidPrice;\n        // uint256 endTime = _tokensOnAuction[tokenId].endTime;\n        // address bider = _tokensOnAuction[tokenId].bider;\n\n        // require(endTime > block.timestamp, \"auction not ended yet\"); //  \n        // require(lastBidPrice > 0, \"acution already ended\"); //   \n    }\n\n    //  (NFT)  ()\n    //    \n    //    .\n    event ClaimMatchedAuction(uint256 tokenId, address caller);\n    function claimMatchedAuction(uint256 tokenId) external {\n        uint256 endTime = _tokensOnAuction[tokenId].endTime;\n        uint256 lastBidPrice = _tokensOnAuction[tokenId].lastBidPrice;\n        address bider = _tokensOnAuction[tokenId].bider;\n        address tokenOwner = Token.ownerOf(tokenId);\n\n        require(endTime < block.timestamp, \"auction not ended\");\n        require(lastBidPrice != 0, \"this token did not registered on auction\");\n        require(msg.sender == bider || msg.sender == tokenOwner , \"caller is not highest bider nor seller\");\n\n        //    \n        uint256 incomeAfterFee = lastBidPrice * (100 - saleFeeRate) / 100;\n        (bool success, ) = tokenOwner.call{value: incomeAfterFee}(\"\");\n        require(success, \"payment failed\");\n\n        //   \n        Token.safeTransferFrom(tokenOwner, msg.sender, tokenId); //    \n        _tokensOnAuction[tokenId].bider = address(0); \n        // _tokensOnAuction[tokenId].lastBidPrice = 0; //  \n        // _tokensOnAuction[tokenId].endTime = 0; //  endTime   block.timestamp   \n\n        emit ClaimMatchedAuction(tokenId, msg.sender); //      \n    }\n\n    //    \n    function _countNotClaimedAuction() private view returns(uint256) {\n        uint256 count;\n\n        for(uint tokenId = 1; tokenId <= Token.totalSupply(); tokenId++) {\n            // uint256 lastBidPrice = _tokensOnAuction[tokenId].lastBidPrice;\n            uint256 endTime = _tokensOnAuction[tokenId].endTime;\n            address bider = _tokensOnAuction[tokenId].bider;\n\n            // if(lastBidPrice != 0 && bider != address(0) && endTime < block.timestamp) {\n            //     count ++;\n            // } \n            if(bider != address(0) && endTime < block.timestamp) {\n                count ++;\n            } \n            //  bider address(0) \n            //   bider address(0)    .\n            //    bider  address(0) \n            //             .\n        }\n\n        return count;\n    }\n\n    //    \n    function notClaimedAuctionList() public view returns(uint256[] memory){\n        uint256[] memory tokensNotClaimedOnAuction = new uint256[](_countNotClaimedAuction()); //  \n        uint256 index = 0;\n\n        for(uint tokenId = 1; tokenId <= Token.totalSupply(); tokenId++) {\n            uint256 endTime = _tokensOnAuction[tokenId].endTime;\n            address bider = _tokensOnAuction[tokenId].bider;\n\n            if(bider != address(0) && endTime < block.timestamp) {\n                tokensNotClaimedOnAuction[index] = tokenId;\n                index ++;\n            } \n            //   bider lastBidPrice  default   .\n        }\n\n        return tokensNotClaimedOnAuction;\n    }\n\n\n    //  (  ) ( )\n    function _countOnBid(address owner) private view returns(uint256) {\n        uint256 count = 0;\n        uint256 countOnAuction = _countOnAuction();\n        uint256[] memory listOnAuction = onAuctionList();\n\n        for(uint i = 0; i < countOnAuction; i++) {\n            uint256 tokenId = listOnAuction[i];\n            if(_tokensOnAuction[tokenId].bider == owner) {\n                count ++;\n            } \n        }\n        return count;\n    }\n\n    //  (  )  ( )\n    function onBidList(address owner) external view returns(uint256[] memory){\n        uint256[] memory tokensOnBid = new uint256[](_countOnBid(owner)); //  \n        uint256 countOnAuction = _countOnAuction();\n        uint256[] memory listOnAuction = onAuctionList();\n        uint256 index = 0;\n\n        for(uint i = 0; i < countOnAuction; i++){\n            uint256 tokenId = listOnAuction[i];\n            if(_tokensOnAuction[tokenId].bider == owner){\n                tokensOnBid[index] = tokenId;\n                index ++;\n            }\n        }\n        return tokensOnBid;\n    }\n\n    //    \n    function _notClaimedMoney() private view returns(uint256) {\n        uint256[] memory tokensNotClaimedOnAuction = notClaimedAuctionList();\n        uint256 notClaimedMoney;\n\n        for (uint i = 0; i < tokensNotClaimedOnAuction.length; i++ ) {\n            uint256 tokenId = tokensNotClaimedOnAuction[i];\n            uint256 lastBidPrice = _tokensOnAuction[tokenId].lastBidPrice;\n            uint256 afterFee = lastBidPrice * (100 - saleFeeRate) / 100;\n            notClaimedMoney += afterFee;\n        }\n\n        return notClaimedMoney;\n    }\n\n    //  \n    function withdrawFees() external onlyOwner {\n        //              \n        uint256 notClaimedMoney = _notClaimedMoney();\n        uint256 balanceExceptNotClaimedMoney = address(this).balance - notClaimedMoney;\n\n        require(balanceExceptNotClaimedMoney > 0, \"balance without notClaimedMoney is zero\");\n\n        (bool success, ) = msg.sender.call{value: balanceExceptNotClaimedMoney}(\"\");\n        require(success, \"withdraw failed\");\n    }\n\n}\n\n",
  "sourcePath": "/Users/nominseob/Desktop/academy/Project/NFT_TeamProject/blockChain/contracts/TestTrade.sol",
  "compiler": {
    "name": "solc",
    "version": "0.8.17+commit.8df45f5f.Emscripten.clang"
  },
  "schemaVersion": "3.4.11",
  "updatedAt": "2022-12-24T09:41:31.290Z",
  "networkType": "ethereum",
  "devdoc": {
    "kind": "dev",
    "methods": {
      "owner()": {
        "details": "Returns the address of the current owner."
      },
      "renounceOwnership()": {
        "details": "Leaves the contract without owner. It will not be possible to call `onlyOwner` functions anymore. Can only be called by the current owner. NOTE: Renouncing ownership will leave the contract without an owner, thereby removing any functionality that is only available to the owner."
      },
      "transferOwnership(address)": {
        "details": "Transfers ownership of the contract to a new account (`newOwner`). Can only be called by the current owner."
      }
    },
    "version": 1
  },
  "userdoc": {
    "kind": "user",
    "methods": {},
    "version": 1
  }
}