{
  "contractName": "TestTrade",
  "abi": [
    {
      "inputs": [
        {
          "internalType": "address",
          "name": "tokenAddress_",
          "type": "address"
        }
      ],
      "stateMutability": "nonpayable",
      "type": "constructor"
    },
    {
      "anonymous": false,
      "inputs": [
        {
          "indexed": false,
          "internalType": "uint256",
          "name": "tokenId",
          "type": "uint256"
        },
        {
          "indexed": false,
          "internalType": "uint256",
          "name": "bidPrice",
          "type": "uint256"
        },
        {
          "indexed": false,
          "internalType": "address",
          "name": "bider",
          "type": "address"
        }
      ],
      "name": "BidOnAuction",
      "type": "event"
    },
    {
      "anonymous": false,
      "inputs": [
        {
          "indexed": false,
          "internalType": "uint256",
          "name": "tokenId",
          "type": "uint256"
        },
        {
          "indexed": false,
          "internalType": "address",
          "name": "caller",
          "type": "address"
        }
      ],
      "name": "ClaimMatchedAuction",
      "type": "event"
    },
    {
      "anonymous": false,
      "inputs": [
        {
          "indexed": true,
          "internalType": "address",
          "name": "previousOwner",
          "type": "address"
        },
        {
          "indexed": true,
          "internalType": "address",
          "name": "newOwner",
          "type": "address"
        }
      ],
      "name": "OwnershipTransferred",
      "type": "event"
    },
    {
      "anonymous": false,
      "inputs": [
        {
          "indexed": false,
          "internalType": "uint256",
          "name": "tokenId",
          "type": "uint256"
        },
        {
          "indexed": false,
          "internalType": "address",
          "name": "failedBider",
          "type": "address"
        }
      ],
      "name": "RefundBid",
      "type": "event"
    },
    {
      "inputs": [],
      "name": "Token",
      "outputs": [
        {
          "internalType": "contract TestToken",
          "name": "",
          "type": "address"
        }
      ],
      "stateMutability": "view",
      "type": "function",
      "constant": true
    },
    {
      "inputs": [],
      "name": "owner",
      "outputs": [
        {
          "internalType": "address",
          "name": "",
          "type": "address"
        }
      ],
      "stateMutability": "view",
      "type": "function",
      "constant": true
    },
    {
      "inputs": [],
      "name": "renounceOwnership",
      "outputs": [],
      "stateMutability": "nonpayable",
      "type": "function"
    },
    {
      "inputs": [],
      "name": "saleFeeRate",
      "outputs": [
        {
          "internalType": "uint256",
          "name": "",
          "type": "uint256"
        }
      ],
      "stateMutability": "view",
      "type": "function",
      "constant": true
    },
    {
      "inputs": [
        {
          "internalType": "address",
          "name": "newOwner",
          "type": "address"
        }
      ],
      "name": "transferOwnership",
      "outputs": [],
      "stateMutability": "nonpayable",
      "type": "function"
    },
    {
      "inputs": [
        {
          "internalType": "uint256",
          "name": "rate",
          "type": "uint256"
        }
      ],
      "name": "setSaleFeeRate",
      "outputs": [],
      "stateMutability": "nonpayable",
      "type": "function"
    },
    {
      "inputs": [],
      "name": "onSaleList",
      "outputs": [
        {
          "internalType": "uint256[]",
          "name": "",
          "type": "uint256[]"
        }
      ],
      "stateMutability": "view",
      "type": "function",
      "constant": true
    },
    {
      "inputs": [
        {
          "internalType": "uint256",
          "name": "tokenId",
          "type": "uint256"
        }
      ],
      "name": "priceOfOnSale",
      "outputs": [
        {
          "internalType": "uint256",
          "name": "",
          "type": "uint256"
        }
      ],
      "stateMutability": "view",
      "type": "function",
      "constant": true
    },
    {
      "inputs": [
        {
          "internalType": "uint256",
          "name": "tokenId",
          "type": "uint256"
        },
        {
          "internalType": "uint256",
          "name": "price",
          "type": "uint256"
        }
      ],
      "name": "registerForSale",
      "outputs": [],
      "stateMutability": "nonpayable",
      "type": "function"
    },
    {
      "inputs": [
        {
          "internalType": "uint256",
          "name": "tokenId",
          "type": "uint256"
        }
      ],
      "name": "cancleSale",
      "outputs": [],
      "stateMutability": "nonpayable",
      "type": "function"
    },
    {
      "inputs": [
        {
          "internalType": "uint256",
          "name": "tokenId",
          "type": "uint256"
        }
      ],
      "name": "purchase",
      "outputs": [],
      "stateMutability": "payable",
      "type": "function",
      "payable": true
    },
    {
      "inputs": [],
      "name": "onAuctionList",
      "outputs": [
        {
          "internalType": "uint256[]",
          "name": "",
          "type": "uint256[]"
        }
      ],
      "stateMutability": "view",
      "type": "function",
      "constant": true
    },
    {
      "inputs": [
        {
          "internalType": "uint256",
          "name": "tokenId",
          "type": "uint256"
        }
      ],
      "name": "dataOfOnAuction",
      "outputs": [
        {
          "components": [
            {
              "internalType": "uint256",
              "name": "lastBidPrice",
              "type": "uint256"
            },
            {
              "internalType": "uint256",
              "name": "endTime",
              "type": "uint256"
            },
            {
              "internalType": "address",
              "name": "bider",
              "type": "address"
            }
          ],
          "internalType": "struct TestTrade.AuctionInfo",
          "name": "",
          "type": "tuple"
        }
      ],
      "stateMutability": "view",
      "type": "function",
      "constant": true
    },
    {
      "inputs": [
        {
          "internalType": "uint256",
          "name": "tokenId",
          "type": "uint256"
        },
        {
          "internalType": "uint256",
          "name": "minimumPrice",
          "type": "uint256"
        },
        {
          "internalType": "uint256",
          "name": "lastingMinutes",
          "type": "uint256"
        }
      ],
      "name": "registerForAuction",
      "outputs": [],
      "stateMutability": "nonpayable",
      "type": "function"
    },
    {
      "inputs": [
        {
          "internalType": "uint256",
          "name": "tokenId",
          "type": "uint256"
        }
      ],
      "name": "bidOnAcution",
      "outputs": [],
      "stateMutability": "payable",
      "type": "function",
      "payable": true
    },
    {
      "inputs": [
        {
          "internalType": "uint256",
          "name": "tokenId",
          "type": "uint256"
        }
      ],
      "name": "cancleFailedAuction",
      "outputs": [],
      "stateMutability": "nonpayable",
      "type": "function"
    },
    {
      "inputs": [
        {
          "internalType": "uint256",
          "name": "tokenId",
          "type": "uint256"
        }
      ],
      "name": "claimMatchedAuction",
      "outputs": [],
      "stateMutability": "nonpayable",
      "type": "function"
    },
    {
      "inputs": [],
      "name": "notClaimedAuctionList",
      "outputs": [
        {
          "internalType": "uint256[]",
          "name": "",
          "type": "uint256[]"
        }
      ],
      "stateMutability": "view",
      "type": "function",
      "constant": true
    },
    {
      "inputs": [
        {
          "internalType": "address",
          "name": "owner",
          "type": "address"
        }
      ],
      "name": "onBidList",
      "outputs": [
        {
          "internalType": "uint256[]",
          "name": "",
          "type": "uint256[]"
        }
      ],
      "stateMutability": "view",
      "type": "function",
      "constant": true
    },
    {
      "inputs": [],
      "name": "withdrawFees",
      "outputs": [],
      "stateMutability": "nonpayable",
      "type": "function"
    }
  ],
  "bytecode": "0x608060405260056002553480156200001657600080fd5b5060405162003d7438038062003d7483398181016040528101906200003c9190620001da565b6200005c62000050620000a460201b60201c565b620000ac60201b60201c565b80600160006101000a81548173ffffffffffffffffffffffffffffffffffffffff021916908373ffffffffffffffffffffffffffffffffffffffff160217905550506200020c565b600033905090565b60008060009054906101000a900473ffffffffffffffffffffffffffffffffffffffff169050816000806101000a81548173ffffffffffffffffffffffffffffffffffffffff021916908373ffffffffffffffffffffffffffffffffffffffff1602179055508173ffffffffffffffffffffffffffffffffffffffff168173ffffffffffffffffffffffffffffffffffffffff167f8be0079c531659141344cd1fd0a4f28419497f9722a3daafe3b4186f6b6457e060405160405180910390a35050565b600080fd5b600073ffffffffffffffffffffffffffffffffffffffff82169050919050565b6000620001a28262000175565b9050919050565b620001b48162000195565b8114620001c057600080fd5b50565b600081519050620001d481620001a9565b92915050565b600060208284031215620001f357620001f262000170565b5b60006200020384828501620001c3565b91505092915050565b613b58806200021c6000396000f3fe60806040526004361061011f5760003560e01c806386cd9b83116100a0578063e033c22911610064578063e033c229146103ad578063efef39a1146103c9578063f06d0a82146103e5578063f2fde38b1461040e578063f5c6a2cf146104375761011f565b806386cd9b83146102c85780638da5cb5b14610305578063c241267614610330578063cee64c651461035b578063d43115c3146103845761011f565b80635255f0d6116100e75780635255f0d6146101f55780635870ea5e1461023257806366066c771461025d578063715018a61461028857806382ef5ee51461029f5761011f565b80630957c2d9146101245780632afc9511146101615780633a1cff7f1461018a578063476343ee146101b35780634a5c46ed146101ca575b600080fd5b34801561013057600080fd5b5061014b60048036038101906101469190612822565b610462565b6040516101589190612917565b60405180910390f35b34801561016d57600080fd5b5061018860048036038101906101839190612965565b6105b5565b005b34801561019657600080fd5b506101b160048036038101906101ac9190612965565b6109ee565b005b3480156101bf57600080fd5b506101c8610a00565b005b3480156101d657600080fd5b506101df610b18565b6040516101ec91906129a1565b60405180910390f35b34801561020157600080fd5b5061021c60048036038101906102179190612965565b610b1e565b6040516102299190612a0d565b60405180910390f35b34801561023e57600080fd5b50610247610c0d565b6040516102549190612917565b60405180910390f35b34801561026957600080fd5b50610272610de6565b60405161027f9190612917565b60405180910390f35b34801561029457600080fd5b5061029d610f73565b005b3480156102ab57600080fd5b506102c660048036038101906102c19190612a28565b610f87565b005b3480156102d457600080fd5b506102ef60048036038101906102ea9190612965565b6111df565b6040516102fc91906129a1565b60405180910390f35b34801561031157600080fd5b5061031a611251565b6040516103279190612a77565b60405180910390f35b34801561033c57600080fd5b5061034561127a565b6040516103529190612af1565b60405180910390f35b34801561036757600080fd5b50610382600480360381019061037d9190612b0c565b6112a0565b005b34801561039057600080fd5b506103ab60048036038101906103a69190612965565b61162f565b005b6103c760048036038101906103c29190612965565b611632565b005b6103e360048036038101906103de9190612965565b6119c4565b005b3480156103f157600080fd5b5061040c60048036038101906104079190612965565b611ce6565b005b34801561041a57600080fd5b5061043560048036038101906104309190612822565b611e61565b005b34801561044357600080fd5b5061044c611ee4565b6040516104599190612917565b60405180910390f35b6060600061046f8361203f565b67ffffffffffffffff81111561048857610487612b5f565b5b6040519080825280602002602001820160405280156104b65781602001602082028036833780820191505090505b50905060006104c3612120565b905060006104cf610de6565b90506000805b838110156105a85760008382815181106104f2576104f1612b8e565b5b602002602001015190508773ffffffffffffffffffffffffffffffffffffffff166004600083815260200190815260200160002060020160009054906101000a900473ffffffffffffffffffffffffffffffffffffffff1673ffffffffffffffffffffffffffffffffffffffff1603610594578086848151811061057957610578612b8e565b5b602002602001018181525050828061059090612bec565b9350505b5080806105a090612bec565b9150506104d5565b5083945050505050919050565b60006004600083815260200190815260200160002060010154905060006004600084815260200190815260200160002060000154905060006004600085815260200190815260200160002060020160009054906101000a900473ffffffffffffffffffffffffffffffffffffffff1690506000600160009054906101000a900473ffffffffffffffffffffffffffffffffffffffff1673ffffffffffffffffffffffffffffffffffffffff16636352211e866040518263ffffffff1660e01b815260040161068391906129a1565b602060405180830381865afa1580156106a0573d6000803e3d6000fd5b505050506040513d601f19601f820116820180604052508101906106c49190612c49565b9050428410610708576040517f08c379a00000000000000000000000000000000000000000000000000000000081526004016106ff90612cd3565b60405180910390fd5b6000830361074b576040517f08c379a000000000000000000000000000000000000000000000000000000000815260040161074290612d65565b60405180910390fd5b8173ffffffffffffffffffffffffffffffffffffffff163373ffffffffffffffffffffffffffffffffffffffff1614806107b057508073ffffffffffffffffffffffffffffffffffffffff163373ffffffffffffffffffffffffffffffffffffffff16145b6107ef576040517f08c379a00000000000000000000000000000000000000000000000000000000081526004016107e690612df7565b60405180910390fd5b6000606460025460646108029190612e17565b8561080d9190612e4b565b6108179190612ebc565b905060008273ffffffffffffffffffffffffffffffffffffffff168260405161083f90612f1e565b60006040518083038185875af1925050503d806000811461087c576040519150601f19603f3d011682016040523d82523d6000602084013e610881565b606091505b50509050806108c5576040517f08c379a00000000000000000000000000000000000000000000000000000000081526004016108bc90612f7f565b60405180910390fd5b600160009054906101000a900473ffffffffffffffffffffffffffffffffffffffff1673ffffffffffffffffffffffffffffffffffffffff166342842e0e84338a6040518463ffffffff1660e01b815260040161092493929190612f9f565b600060405180830381600087803b15801561093e57600080fd5b505af1158015610952573d6000803e3d6000fd5b5050505060006004600089815260200190815260200160002060020160006101000a81548173ffffffffffffffffffffffffffffffffffffffff021916908373ffffffffffffffffffffffffffffffffffffffff1602179055507f1b8a46b4ba92d15058e2a028d473fc5037835f1f8466a1a4a538634ac081d15487336040516109dd929190612fd6565b60405180910390a150505050505050565b6109f6612238565b8060028190555050565b610a08612238565b6000610a126122b6565b905060008147610a229190612e17565b905060008111610a67576040517f08c379a0000000000000000000000000000000000000000000000000000000008152600401610a5e90613071565b60405180910390fd5b60003373ffffffffffffffffffffffffffffffffffffffff1682604051610a8d90612f1e565b60006040518083038185875af1925050503d8060008114610aca576040519150601f19603f3d011682016040523d82523d6000602084013e610acf565b606091505b5050905080610b13576040517f08c379a0000000000000000000000000000000000000000000000000000000008152600401610b0a906130dd565b60405180910390fd5b505050565b60025481565b610b26612788565b42600460008481526020019081526020016000206001015411610b7e576040517f08c379a0000000000000000000000000000000000000000000000000000000008152600401610b7590613149565b60405180910390fd5b6004600083815260200190815260200160002060405180606001604052908160008201548152602001600182015481526020016002820160009054906101000a900473ffffffffffffffffffffffffffffffffffffffff1673ffffffffffffffffffffffffffffffffffffffff1673ffffffffffffffffffffffffffffffffffffffff16815250509050919050565b60606000610c19612365565b67ffffffffffffffff811115610c3257610c31612b5f565b5b604051908082528060200260200182016040528015610c605781602001602082028036833780820191505090505b509050600080600190505b600160009054906101000a900473ffffffffffffffffffffffffffffffffffffffff1673ffffffffffffffffffffffffffffffffffffffff166318160ddd6040518163ffffffff1660e01b8152600401602060405180830381865afa158015610cd8573d6000803e3d6000fd5b505050506040513d601f19601f82011682018060405250810190610cfc919061317e565b8111610ddd5760006004600083815260200190815260200160002060010154905060006004600084815260200190815260200160002060020160009054906101000a900473ffffffffffffffffffffffffffffffffffffffff169050600073ffffffffffffffffffffffffffffffffffffffff168173ffffffffffffffffffffffffffffffffffffffff1614158015610d9457504282105b15610dc85782858581518110610dad57610dac612b8e565b5b6020026020010181815250508380610dc490612bec565b9450505b50508080610dd590612bec565b915050610c6b565b50819250505090565b60606000610df2612120565b67ffffffffffffffff811115610e0b57610e0a612b5f565b5b604051908082528060200260200182016040528015610e395781602001602082028036833780820191505090505b509050600080600190505b600160009054906101000a900473ffffffffffffffffffffffffffffffffffffffff1673ffffffffffffffffffffffffffffffffffffffff166318160ddd6040518163ffffffff1660e01b8152600401602060405180830381865afa158015610eb1573d6000803e3d6000fd5b505050506040513d601f19601f82011682018060405250810190610ed5919061317e565b8111610f6a5760006004600083815260200190815260200160002060000154905060006004600084815260200190815260200160002060010154905060008214158015610f2157504281115b15610f555782858581518110610f3a57610f39612b8e565b5b6020026020010181815250508380610f5190612bec565b9450505b50508080610f6290612bec565b915050610e44565b50819250505090565b610f7b612238565b610f8560006124c9565b565b3373ffffffffffffffffffffffffffffffffffffffff16600160009054906101000a900473ffffffffffffffffffffffffffffffffffffffff1673ffffffffffffffffffffffffffffffffffffffff16636352211e846040518263ffffffff1660e01b8152600401610ff991906129a1565b602060405180830381865afa158015611016573d6000803e3d6000fd5b505050506040513d601f19601f8201168201806040525081019061103a9190612c49565b73ffffffffffffffffffffffffffffffffffffffff1614611090576040517f08c379a0000000000000000000000000000000000000000000000000000000008152600401611087906131f7565b60405180910390fd5b600081116110d3576040517f08c379a00000000000000000000000000000000000000000000000000000000081526004016110ca90613263565b60405180910390fd5b6110dc8261258d565b1561111c576040517f08c379a0000000000000000000000000000000000000000000000000000000008152600401611113906132cf565b60405180910390fd5b600160009054906101000a900473ffffffffffffffffffffffffffffffffffffffff1673ffffffffffffffffffffffffffffffffffffffff1663e985e9c533306040518363ffffffff1660e01b81526004016111799291906132ef565b602060405180830381865afa158015611196573d6000803e3d6000fd5b505050506040513d601f19601f820116820180604052508101906111ba9190613350565b6111c357600080fd5b8060036000848152602001908152602001600020819055505050565b600080600360008481526020019081526020016000205411611236576040517f08c379a000000000000000000000000000000000000000000000000000000000815260040161122d906133c9565b60405180910390fd5b60036000838152602001908152602001600020549050919050565b60008060009054906101000a900473ffffffffffffffffffffffffffffffffffffffff16905090565b600160009054906101000a900473ffffffffffffffffffffffffffffffffffffffff1681565b3373ffffffffffffffffffffffffffffffffffffffff16600160009054906101000a900473ffffffffffffffffffffffffffffffffffffffff1673ffffffffffffffffffffffffffffffffffffffff16636352211e856040518263ffffffff1660e01b815260040161131291906129a1565b602060405180830381865afa15801561132f573d6000803e3d6000fd5b505050506040513d601f19601f820116820180604052508101906113539190612c49565b73ffffffffffffffffffffffffffffffffffffffff16146113a9576040517f08c379a00000000000000000000000000000000000000000000000000000000081526004016113a0906131f7565b60405180910390fd5b66038d7ea4c680008210156113f3576040517f08c379a00000000000000000000000000000000000000000000000000000000081526004016113ea9061345b565b60405180910390fd5b60006113fe846111df565b111561143f576040517f08c379a0000000000000000000000000000000000000000000000000000000008152600401611436906134c7565b60405180910390fd5b4261144984610b1e565b602001511061148d576040517f08c379a000000000000000000000000000000000000000000000000000000000815260040161148490613533565b60405180910390fd5b600160009054906101000a900473ffffffffffffffffffffffffffffffffffffffff1673ffffffffffffffffffffffffffffffffffffffff1663e985e9c533306040518363ffffffff1660e01b81526004016114ea9291906132ef565b602060405180830381865afa158015611507573d6000803e3d6000fd5b505050506040513d601f19601f8201168201806040525081019061152b9190613350565b61156a576040517f08c379a00000000000000000000000000000000000000000000000000000000081526004016115619061359f565b60405180910390fd5b6000603c826115799190612e4b565b4261158491906135bf565b90506040518060600160405280848152602001828152602001600073ffffffffffffffffffffffffffffffffffffffff1681525060046000868152602001908152602001600020600082015181600001556020820151816001015560408201518160020160006101000a81548173ffffffffffffffffffffffffffffffffffffffff021916908373ffffffffffffffffffffffffffffffffffffffff16021790555090505050505050565b50565b60006004600083815260200190815260200160002060000154905060006004600084815260200190815260200160002060010154905060006004600085815260200190815260200160002060020160009054906101000a900473ffffffffffffffffffffffffffffffffffffffff1690508142106116e5576040517f08c379a00000000000000000000000000000000000000000000000000000000081526004016116dc9061363f565b60405180910390fd5b3373ffffffffffffffffffffffffffffffffffffffff16600160009054906101000a900473ffffffffffffffffffffffffffffffffffffffff1673ffffffffffffffffffffffffffffffffffffffff16636352211e866040518263ffffffff1660e01b815260040161175791906129a1565b602060405180830381865afa158015611774573d6000803e3d6000fd5b505050506040513d601f19601f820116820180604052508101906117989190612c49565b73ffffffffffffffffffffffffffffffffffffffff16036117ee576040517f08c379a00000000000000000000000000000000000000000000000000000000081526004016117e5906136ab565b60405180910390fd5b60008311611831576040517f08c379a000000000000000000000000000000000000000000000000000000000815260040161182890613717565b60405180910390fd5b823411611873576040517f08c379a000000000000000000000000000000000000000000000000000000000815260040161186a906137a9565b60405180910390fd5b600066038d7ea4c6800084346118899190612e17565b61189391906137c9565b146118d3576040517f08c379a00000000000000000000000000000000000000000000000000000000081526004016118ca9061381d565b60405180910390fd5b600073ffffffffffffffffffffffffffffffffffffffff168173ffffffffffffffffffffffffffffffffffffffff1614611913576119128482856125af565b5b346004600086815260200190815260200160002060000181905550336004600086815260200190815260200160002060020160006101000a81548173ffffffffffffffffffffffffffffffffffffffff021916908373ffffffffffffffffffffffffffffffffffffffff1602179055507f2e8aa4a142971e5869dd16ff8b28d697bb44ae2491e376ddaa14d601be1c0f858434836040516119b69392919061383d565b60405180910390a150505050565b6000600360008381526020019081526020016000205490506000600160009054906101000a900473ffffffffffffffffffffffffffffffffffffffff1673ffffffffffffffffffffffffffffffffffffffff16636352211e846040518263ffffffff1660e01b8152600401611a3991906129a1565b602060405180830381865afa158015611a56573d6000803e3d6000fd5b505050506040513d601f19601f82011682018060405250810190611a7a9190612c49565b90503373ffffffffffffffffffffffffffffffffffffffff168173ffffffffffffffffffffffffffffffffffffffff1603611aea576040517f08c379a0000000000000000000000000000000000000000000000000000000008152600401611ae1906138c0565b60405180910390fd5b60008211611b2d576040517f08c379a0000000000000000000000000000000000000000000000000000000008152600401611b249061392c565b60405180910390fd5b813414611b6f576040517f08c379a0000000000000000000000000000000000000000000000000000000008152600401611b6690613998565b60405180910390fd5b600060646002546064611b829190612e17565b84611b8d9190612e4b565b611b979190612ebc565b905060008273ffffffffffffffffffffffffffffffffffffffff1682604051611bbf90612f1e565b60006040518083038185875af1925050503d8060008114611bfc576040519150601f19603f3d011682016040523d82523d6000602084013e611c01565b606091505b5050905080611c45576040517f08c379a0000000000000000000000000000000000000000000000000000000008152600401611c3c90612f7f565b60405180910390fd5b600160009054906101000a900473ffffffffffffffffffffffffffffffffffffffff1673ffffffffffffffffffffffffffffffffffffffff166342842e0e8433886040518463ffffffff1660e01b8152600401611ca493929190612f9f565b600060405180830381600087803b158015611cbe57600080fd5b505af1158015611cd2573d6000803e3d6000fd5b50505050611cdf85611ce6565b5050505050565b3373ffffffffffffffffffffffffffffffffffffffff16600160009054906101000a900473ffffffffffffffffffffffffffffffffffffffff1673ffffffffffffffffffffffffffffffffffffffff16636352211e836040518263ffffffff1660e01b8152600401611d5891906129a1565b602060405180830381865afa158015611d75573d6000803e3d6000fd5b505050506040513d601f19601f82011682018060405250810190611d999190612c49565b73ffffffffffffffffffffffffffffffffffffffff1614611def576040517f08c379a0000000000000000000000000000000000000000000000000000000008152600401611de6906131f7565b60405180910390fd5b6000600360008381526020019081526020016000205411611e45576040517f08c379a0000000000000000000000000000000000000000000000000000000008152600401611e3c906133c9565b60405180910390fd5b6000600360008381526020019081526020016000208190555050565b611e69612238565b600073ffffffffffffffffffffffffffffffffffffffff168173ffffffffffffffffffffffffffffffffffffffff1603611ed8576040517f08c379a0000000000000000000000000000000000000000000000000000000008152600401611ecf90613a2a565b60405180910390fd5b611ee1816124c9565b50565b60606000611ef061269a565b67ffffffffffffffff811115611f0957611f08612b5f565b5b604051908082528060200260200182016040528015611f375781602001602082028036833780820191505090505b509050600080600190505b600160009054906101000a900473ffffffffffffffffffffffffffffffffffffffff1673ffffffffffffffffffffffffffffffffffffffff166318160ddd6040518163ffffffff1660e01b8152600401602060405180830381865afa158015611faf573d6000803e3d6000fd5b505050506040513d601f19601f82011682018060405250810190611fd3919061317e565b8111612036576000600360008381526020019081526020016000205414612023578083838151811061200857612007612b8e565b5b602002602001018181525050818061201f90612bec565b9250505b808061202e90612bec565b915050611f42565b50819250505090565b600080600090506000612050612120565b9050600061205c610de6565b905060005b8281101561211457600082828151811061207e5761207d612b8e565b5b602002602001015190508673ffffffffffffffffffffffffffffffffffffffff166004600083815260200190815260200160002060020160009054906101000a900473ffffffffffffffffffffffffffffffffffffffff1673ffffffffffffffffffffffffffffffffffffffff16036121005784806120fc90612bec565b9550505b50808061210c90612bec565b915050612061565b50829350505050919050565b6000806000600190505b600160009054906101000a900473ffffffffffffffffffffffffffffffffffffffff1673ffffffffffffffffffffffffffffffffffffffff166318160ddd6040518163ffffffff1660e01b8152600401602060405180830381865afa158015612197573d6000803e3d6000fd5b505050506040513d601f19601f820116820180604052508101906121bb919061317e565b8111612230576000600460008381526020019081526020016000206000015490506000600460008481526020019081526020016000206001015490506000821415801561220757504281115b1561221b57838061221790612bec565b9450505b5050808061222890612bec565b91505061212a565b508091505090565b612240612780565b73ffffffffffffffffffffffffffffffffffffffff1661225e611251565b73ffffffffffffffffffffffffffffffffffffffff16146122b4576040517f08c379a00000000000000000000000000000000000000000000000000000000081526004016122ab90613a96565b60405180910390fd5b565b6000806122c1610c0d565b9050600080600090505b825181101561235c5760008382815181106122e9576122e8612b8e565b5b602002602001015190506000600460008381526020019081526020016000206000015490506000606460025460646123219190612e17565b8361232c9190612e4b565b6123369190612ebc565b9050808561234491906135bf565b9450505050808061235490612bec565b9150506122cb565b50809250505090565b6000806000600190505b600160009054906101000a900473ffffffffffffffffffffffffffffffffffffffff1673ffffffffffffffffffffffffffffffffffffffff166318160ddd6040518163ffffffff1660e01b8152600401602060405180830381865afa1580156123dc573d6000803e3d6000fd5b505050506040513d601f19601f82011682018060405250810190612400919061317e565b81116124c15760006004600083815260200190815260200160002060010154905060006004600084815260200190815260200160002060020160009054906101000a900473ffffffffffffffffffffffffffffffffffffffff169050600073ffffffffffffffffffffffffffffffffffffffff168173ffffffffffffffffffffffffffffffffffffffff161415801561249857504282105b156124ac5783806124a890612bec565b9450505b505080806124b990612bec565b91505061236f565b508091505090565b60008060009054906101000a900473ffffffffffffffffffffffffffffffffffffffff169050816000806101000a81548173ffffffffffffffffffffffffffffffffffffffff021916908373ffffffffffffffffffffffffffffffffffffffff1602179055508173ffffffffffffffffffffffffffffffffffffffff168173ffffffffffffffffffffffffffffffffffffffff167f8be0079c531659141344cd1fd0a4f28419497f9722a3daafe3b4186f6b6457e060405160405180910390a35050565b6000426004600084815260200190815260200160002060010154119050919050565b60008273ffffffffffffffffffffffffffffffffffffffff16826040516125d590612f1e565b60006040518083038185875af1925050503d8060008114612612576040519150601f19603f3d011682016040523d82523d6000602084013e612617565b606091505b505090508061265b576040517f08c379a000000000000000000000000000000000000000000000000000000000815260040161265290613b02565b60405180910390fd5b7f1e935a7fb28a0412065cab7ad70c27cf05afe9a9e9d7ab2d424d099c373ac381848460405161268c929190612fd6565b60405180910390a150505050565b6000806000600190505b600160009054906101000a900473ffffffffffffffffffffffffffffffffffffffff1673ffffffffffffffffffffffffffffffffffffffff166318160ddd6040518163ffffffff1660e01b8152600401602060405180830381865afa158015612711573d6000803e3d6000fd5b505050506040513d601f19601f82011682018060405250810190612735919061317e565b811161277857600060036000838152602001908152602001600020541461276557818061276190612bec565b9250505b808061277090612bec565b9150506126a4565b508091505090565b600033905090565b60405180606001604052806000815260200160008152602001600073ffffffffffffffffffffffffffffffffffffffff1681525090565b600080fd5b600073ffffffffffffffffffffffffffffffffffffffff82169050919050565b60006127ef826127c4565b9050919050565b6127ff816127e4565b811461280a57600080fd5b50565b60008135905061281c816127f6565b92915050565b600060208284031215612838576128376127bf565b5b60006128468482850161280d565b91505092915050565b600081519050919050565b600082825260208201905092915050565b6000819050602082019050919050565b6000819050919050565b61288e8161287b565b82525050565b60006128a08383612885565b60208301905092915050565b6000602082019050919050565b60006128c48261284f565b6128ce818561285a565b93506128d98361286b565b8060005b8381101561290a5781516128f18882612894565b97506128fc836128ac565b9250506001810190506128dd565b5085935050505092915050565b6000602082019050818103600083015261293181846128b9565b905092915050565b6129428161287b565b811461294d57600080fd5b50565b60008135905061295f81612939565b92915050565b60006020828403121561297b5761297a6127bf565b5b600061298984828501612950565b91505092915050565b61299b8161287b565b82525050565b60006020820190506129b66000830184612992565b92915050565b6129c5816127e4565b82525050565b6060820160008201516129e16000850182612885565b5060208201516129f46020850182612885565b506040820151612a0760408501826129bc565b50505050565b6000606082019050612a2260008301846129cb565b92915050565b60008060408385031215612a3f57612a3e6127bf565b5b6000612a4d85828601612950565b9250506020612a5e85828601612950565b9150509250929050565b612a71816127e4565b82525050565b6000602082019050612a8c6000830184612a68565b92915050565b6000819050919050565b6000612ab7612ab2612aad846127c4565b612a92565b6127c4565b9050919050565b6000612ac982612a9c565b9050919050565b6000612adb82612abe565b9050919050565b612aeb81612ad0565b82525050565b6000602082019050612b066000830184612ae2565b92915050565b600080600060608486031215612b2557612b246127bf565b5b6000612b3386828701612950565b9350506020612b4486828701612950565b9250506040612b5586828701612950565b9150509250925092565b7f4e487b7100000000000000000000000000000000000000000000000000000000600052604160045260246000fd5b7f4e487b7100000000000000000000000000000000000000000000000000000000600052603260045260246000fd5b7f4e487b7100000000000000000000000000000000000000000000000000000000600052601160045260246000fd5b6000612bf78261287b565b91507fffffffffffffffffffffffffffffffffffffffffffffffffffffffffffffffff8203612c2957612c28612bbd565b5b600182019050919050565b600081519050612c43816127f6565b92915050565b600060208284031215612c5f57612c5e6127bf565b5b6000612c6d84828501612c34565b91505092915050565b600082825260208201905092915050565b7f61756374696f6e206e6f7420656e646564000000000000000000000000000000600082015250565b6000612cbd601183612c76565b9150612cc882612c87565b602082019050919050565b60006020820190508181036000830152612cec81612cb0565b9050919050565b7f7468697320746f6b656e20646964206e6f742072656769737465726564206f6e60008201527f2061756374696f6e000000000000000000000000000000000000000000000000602082015250565b6000612d4f602883612c76565b9150612d5a82612cf3565b604082019050919050565b60006020820190508181036000830152612d7e81612d42565b9050919050565b7f63616c6c6572206973206e6f742068696768657374206269646572206e6f722060008201527f73656c6c65720000000000000000000000000000000000000000000000000000602082015250565b6000612de1602683612c76565b9150612dec82612d85565b604082019050919050565b60006020820190508181036000830152612e1081612dd4565b9050919050565b6000612e228261287b565b9150612e2d8361287b565b9250828203905081811115612e4557612e44612bbd565b5b92915050565b6000612e568261287b565b9150612e618361287b565b9250828202612e6f8161287b565b91508282048414831517612e8657612e85612bbd565b5b5092915050565b7f4e487b7100000000000000000000000000000000000000000000000000000000600052601260045260246000fd5b6000612ec78261287b565b9150612ed28361287b565b925082612ee257612ee1612e8d565b5b828204905092915050565b600081905092915050565b50565b6000612f08600083612eed565b9150612f1382612ef8565b600082019050919050565b6000612f2982612efb565b9150819050919050565b7f7061796d656e74206661696c6564000000000000000000000000000000000000600082015250565b6000612f69600e83612c76565b9150612f7482612f33565b602082019050919050565b60006020820190508181036000830152612f9881612f5c565b9050919050565b6000606082019050612fb46000830186612a68565b612fc16020830185612a68565b612fce6040830184612992565b949350505050565b6000604082019050612feb6000830185612992565b612ff86020830184612a68565b9392505050565b7f62616c616e636520776974686f7574206e6f74436c61696d65644d6f6e65792060008201527f6973207a65726f00000000000000000000000000000000000000000000000000602082015250565b600061305b602783612c76565b915061306682612fff565b604082019050919050565b6000602082019050818103600083015261308a8161304e565b9050919050565b7f7769746864726177206661696c65640000000000000000000000000000000000600082015250565b60006130c7600f83612c76565b91506130d282613091565b602082019050919050565b600060208201905081810360008301526130f6816130ba565b9050919050565b7f7468697320746f6b656e206973206e6f74206f6e2041756374696f6e00000000600082015250565b6000613133601c83612c76565b915061313e826130fd565b602082019050919050565b6000602082019050818103600083015261316281613126565b9050919050565b60008151905061317881612939565b92915050565b600060208284031215613194576131936127bf565b5b60006131a284828501613169565b91505092915050565b7f63616c6c6572206973206e6f74206f776e657200000000000000000000000000600082015250565b60006131e1601383612c76565b91506131ec826131ab565b602082019050919050565b60006020820190508181036000830152613210816131d4565b9050919050565b7f7072696365206d7573742062652067726561746572207468616e207a65726f00600082015250565b600061324d601f83612c76565b915061325882613217565b602082019050919050565b6000602082019050818103600083015261327c81613240565b9050919050565b7f7468697320746f6b656e206973206f6e2061756374696f6e0000000000000000600082015250565b60006132b9601883612c76565b91506132c482613283565b602082019050919050565b600060208201905081810360008301526132e8816132ac565b9050919050565b60006040820190506133046000830185612a68565b6133116020830184612a68565b9392505050565b60008115159050919050565b61332d81613318565b811461333857600080fd5b50565b60008151905061334a81613324565b92915050565b600060208284031215613366576133656127bf565b5b60006133748482850161333b565b91505092915050565b7f7468697320746f6b656e206973206e6f74206f6e2073616c6500000000000000600082015250565b60006133b3601983612c76565b91506133be8261337d565b602082019050919050565b600060208201905081810360008301526133e2816133a6565b9050919050565b7f6d696e696d756d5072696365206d75737420626520677265617465722074686160008201527f6e7320302e303031206574686572000000000000000000000000000000000000602082015250565b6000613445602e83612c76565b9150613450826133e9565b604082019050919050565b6000602082019050818103600083015261347481613438565b9050919050565b7f7468697320746f6b656e20697320616c7265616479206f6e2053616c65000000600082015250565b60006134b1601d83612c76565b91506134bc8261347b565b602082019050919050565b600060208201905081810360008301526134e0816134a4565b9050919050565b7f7468697320746f6b656e20697320616c7265616479206f6e2061756374696f6e600082015250565b600061351d602083612c76565b9150613528826134e7565b602082019050919050565b6000602082019050818103600083015261354c81613510565b9050919050565b7f6e6f7420617070726f7665640000000000000000000000000000000000000000600082015250565b6000613589600c83612c76565b915061359482613553565b602082019050919050565b600060208201905081810360008301526135b88161357c565b9050919050565b60006135ca8261287b565b91506135d58361287b565b92508282019050808211156135ed576135ec612bbd565b5b92915050565b7f746869732061637574696f6e20656e6465640000000000000000000000000000600082015250565b6000613629601283612c76565b9150613634826135f3565b602082019050919050565b600060208201905081810360008301526136588161361c565b9050919050565b7f6f776e65722063616e6e6f7420626964206f6e206f776e730000000000000000600082015250565b6000613695601883612c76565b91506136a08261365f565b602082019050919050565b600060208201905081810360008301526136c481613688565b9050919050565b7f7468697320746f6b656e206973206e6f74206f6e2061756374696f6e00000000600082015250565b6000613701601c83612c76565b915061370c826136cb565b602082019050919050565b60006020820190508181036000830152613730816136f4565b9050919050565b7f626964206d7573742062652067726561746572207468616e206c61737420626960008201527f6400000000000000000000000000000000000000000000000000000000000000602082015250565b6000613793602183612c76565b915061379e82613737565b604082019050919050565b600060208201905081810360008301526137c281613786565b9050919050565b60006137d48261287b565b91506137df8361287b565b9250826137ef576137ee612e8d565b5b828206905092915050565b6000613807600083612c76565b915061381282612ef8565b600082019050919050565b60006020820190508181036000830152613836816137fa565b9050919050565b60006060820190506138526000830186612992565b61385f6020830185612992565b61386c6040830184612a68565b949350505050565b7f6f776e65722063616e6e6f7420627579206f776e730000000000000000000000600082015250565b60006138aa601583612c76565b91506138b582613874565b602082019050919050565b600060208201905081810360008301526138d98161389d565b9050919050565b7f74686973206e6674206973206e6f74206f6e2073616c65000000000000000000600082015250565b6000613916601783612c76565b9150613921826138e0565b602082019050919050565b6000602082019050818103600083015261394581613909565b9050919050565b7f7061796d656e7420646f73656e2774206d617463680000000000000000000000600082015250565b6000613982601583612c76565b915061398d8261394c565b602082019050919050565b600060208201905081810360008301526139b181613975565b9050919050565b7f4f776e61626c653a206e6577206f776e657220697320746865207a65726f206160008201527f6464726573730000000000000000000000000000000000000000000000000000602082015250565b6000613a14602683612c76565b9150613a1f826139b8565b604082019050919050565b60006020820190508181036000830152613a4381613a07565b9050919050565b7f4f776e61626c653a2063616c6c6572206973206e6f7420746865206f776e6572600082015250565b6000613a80602083612c76565b9150613a8b82613a4a565b602082019050919050565b60006020820190508181036000830152613aaf81613a73565b9050919050565b7f726566756e64206661696c656400000000000000000000000000000000000000600082015250565b6000613aec600d83612c76565b9150613af782613ab6565b602082019050919050565b60006020820190508181036000830152613b1b81613adf565b905091905056fea2646970667358221220dc1b5f0e975a9053cc3dc82ee92a318553df96b6c3126488e37a91712870a64864736f6c63430008110033",
  "immutableReferences": {},
  "source": "// SPDX-License-Identifier: MIT\r\npragma solidity ^0.8.17;\r\n\r\nimport \"./TestToken.sol\";\r\n\r\nimport \"../node_modules/@openzeppelin/contracts/access/Ownable.sol\";\r\n// remix  \r\n// import \"openzeppelin-solidity/contracts/access/Ownable.sol\";\r\n\r\ncontract TestTrade is Ownable{\r\n    TestToken public Token;\r\n\r\n    uint256 public saleFeeRate = 5; //\r\n\r\n    struct AuctionInfo {\r\n        uint256 lastBidPrice; //    \r\n        uint256 endTime;\r\n        address bider; //    address(0)\r\n    }\r\n\r\n    mapping(uint => uint) private _tokensOnSale;\r\n    // tokenId to price\r\n    mapping(uint => AuctionInfo) private _tokensOnAuction;\r\n    // tokenId to AuctionInfo\r\n\r\n    constructor(address tokenAddress_) {\r\n        Token = TestToken(tokenAddress_);\r\n    }\r\n\r\n    event BidOnAuction(uint256 tokenId, uint256 bidPrice , address bider);\r\n    event RefundBid(uint256 tokenId, address failedBider);\r\n\r\n    //  \r\n    function setSaleFeeRate(uint256 rate) external onlyOwner {\r\n        saleFeeRate = rate;\r\n    } \r\n\r\n    //   ()\r\n    function _countOnSale() private view returns(uint256) {\r\n        uint256 count;\r\n\r\n        for(uint tokenId = 1; tokenId <= Token.totalSupply(); tokenId++) {\r\n            if(_tokensOnSale[tokenId] != 0) count ++;\r\n        }\r\n\r\n        return count;\r\n    }\r\n\r\n    //   ( )\r\n    function onSaleList() external view returns(uint256[] memory){\r\n        uint256[] memory tokensOnSale = new uint256[](_countOnSale()); //  \r\n        uint256 index = 0;\r\n\r\n        for(uint tokenId = 1; tokenId <= Token.totalSupply(); tokenId++) {\r\n            if(_tokensOnSale[tokenId] != 0) {\r\n                tokensOnSale[index] = tokenId;\r\n                index ++;\r\n            }\r\n        }\r\n\r\n        return tokensOnSale;\r\n    }\r\n\r\n    //    ( )\r\n    function priceOfOnSale(uint256 tokenId) public view  returns(uint256)  {\r\n        require(_tokensOnSale[tokenId] > 0, \"this token is not on sale\");\r\n        return _tokensOnSale[tokenId];\r\n        //  0  (   )\r\n    }  \r\n\r\n    // ( )\r\n    function registerForSale(uint256 tokenId, uint256 price) external {\r\n        require(Token.ownerOf(tokenId) == msg.sender, \"caller is not owner\");\r\n        require(price > 0, \"price must be greater than zero\");\r\n        require(!_isOnAuction(tokenId), \"this token is on auction\"); //   \r\n        //  Nft  setApprovalForAll(address operator, bool approved)\r\n        //  operator  CA   .\r\n        require(Token.isApprovedForAll(msg.sender, address(this)));\r\n\r\n        _tokensOnSale[tokenId] = price;\r\n    }\r\n\r\n    //  ( )\r\n    function cancleSale(uint256 tokenId) public {\r\n        require(Token.ownerOf(tokenId) == msg.sender, \"caller is not owner\");\r\n        require(_tokensOnSale[tokenId] > 0, \"this token is not on sale\");\r\n        _tokensOnSale[tokenId] = 0; //  0    \r\n        // Token.setApprovalForAll(address(this), false); // approve   \r\n        //    require operater != msg.sender   \r\n        //    CA  ...\r\n        //       setApprovalForAll(  CA, false)  .\r\n        //          ,\r\n    }\r\n\r\n    // ( )\r\n    function purchase(uint256 tokenId) external payable {\r\n        uint256 price = _tokensOnSale[tokenId];\r\n        address tokenOwner = Token.ownerOf(tokenId);\r\n\r\n        require(tokenOwner != msg.sender, \"owner cannot buy owns\");\r\n        require(price > 0, \"this nft is not on sale\");\r\n        require(msg.value == price, \"payment dosen't match\");\r\n        //   transferFrom    \r\n        //            ?\r\n\r\n        uint256 incomeAfterFee = price * (100 - saleFeeRate) / 100;\r\n        (bool success, ) = tokenOwner.call{value: incomeAfterFee}(\"\");\r\n        require(success, \"payment failed\");\r\n\r\n        Token.safeTransferFrom(tokenOwner, msg.sender, tokenId);\r\n        //      cancleSale \r\n        // require(Token.ownerOf(tokenId) == msg.sender, \"caller is not owner\");   .\r\n        cancleSale(tokenId);\r\n    }\r\n\r\n\r\n    //    ( )\r\n    function _countOnAuction() private view returns(uint256) {\r\n        uint256 count;\r\n\r\n        for(uint tokenId = 1; tokenId <= Token.totalSupply(); tokenId++) {\r\n            uint256 lastBidPrice = _tokensOnAuction[tokenId].lastBidPrice;\r\n            uint256 endTime = _tokensOnAuction[tokenId].endTime;\r\n\r\n            if(lastBidPrice != 0 && endTime > block.timestamp) {\r\n                count ++;\r\n            } // lastBidPrice 0   \r\n              // endTime  block.timestamp    .\r\n        }\r\n\r\n        return count;\r\n    }\r\n\r\n    //    ( )\r\n    function onAuctionList() public view returns(uint256[] memory){\r\n        uint256[] memory tokensOnAuction = new uint256[](_countOnAuction()); //  \r\n        uint256 index = 0;\r\n\r\n        for(uint tokenId = 1; tokenId <= Token.totalSupply(); tokenId++) {\r\n            uint256 lastBidPrice = _tokensOnAuction[tokenId].lastBidPrice;\r\n            uint256 endTime = _tokensOnAuction[tokenId].endTime;\r\n\r\n            if(lastBidPrice != 0 && endTime > block.timestamp) {\r\n                tokensOnAuction[index] = tokenId;\r\n                index ++;\r\n            } // lastBidPrice 0   \r\n              // endTime  block.timestamp    .\r\n        }\r\n\r\n        return tokensOnAuction;\r\n    }\r\n\r\n    //    ()\r\n    function dataOfOnAuction(uint256 tokenId) public view returns(AuctionInfo memory){\r\n        require(_tokensOnAuction[tokenId].endTime > block.timestamp, \"this token is not on Auction\");\r\n        return _tokensOnAuction[tokenId];\r\n    }\r\n\r\n    //   \r\n    function _isOnAuction(uint256 tokenId) private view returns(bool) {\r\n        return (_tokensOnAuction[tokenId].endTime > block.timestamp);\r\n        //     true\r\n    }\r\n\r\n    // ()\r\n    function registerForAuction(uint256 tokenId, uint256 minimumPrice, uint256 lastingMinutes) external {\r\n        require(Token.ownerOf(tokenId) == msg.sender, \"caller is not owner\");\r\n        require(minimumPrice >= 0.001 ether, \"minimumPrice must be greater thans 0.001 ether\"); //     \r\n        require(priceOfOnSale(tokenId) <= 0, \"this token is already on Sale\"); //    \r\n        require(dataOfOnAuction(tokenId).endTime < block.timestamp, \"this token is already on auction\"); //   \r\n        //  Nft   setApprovalForAll(address operator, bool approved)\r\n        //  operator   CA    .\r\n        require(Token.isApprovedForAll(msg.sender, address(this)), \"not approved\");\r\n\r\n        uint256 endTime = block.timestamp + lastingMinutes * 60;\r\n\r\n        _tokensOnAuction[tokenId] = AuctionInfo(minimumPrice, endTime, address(0)); //      address(0) \r\n    }\r\n\r\n    //  ()\r\n    function bidOnAcution(uint256 tokenId) external payable {\r\n        uint256 lastBidPrice = _tokensOnAuction[tokenId].lastBidPrice;\r\n        uint256 endTime = _tokensOnAuction[tokenId].endTime;\r\n        address bider = _tokensOnAuction[tokenId].bider;\r\n        // {uint256 lastBidPrice, uint256 endTime, address bider} = _tokensOnAuction[tokenId];\r\n\r\n        require(block.timestamp < endTime, \"this acution ended\"); //   \r\n        require(Token.ownerOf(tokenId) != msg.sender, \"owner cannot bid on owns\"); //   \r\n        require(lastBidPrice > 0 , \"this token is not on auction\"); //  \r\n        require(msg.value > lastBidPrice, \"bid must be greater than last bid\"); //     \r\n        require((msg.value - lastBidPrice) % 0.001 ether == 0, \"\"); //  0.001 \r\n\r\n        if(bider != address(0)) { //   \r\n            _refundBid(tokenId ,bider ,lastBidPrice); //  \r\n        }\r\n\r\n        _tokensOnAuction[tokenId].lastBidPrice = msg.value;\r\n        _tokensOnAuction[tokenId].bider = msg.sender;\r\n\r\n        emit BidOnAuction(tokenId, msg.value , bider);\r\n    }\r\n\r\n    //   ()\r\n    function _refundBid(uint256 tokenId ,address to, uint256 bidPrice) private {\r\n        // payable(to).transfer(bidPrice);\r\n        (bool success, ) = to.call{value: bidPrice}(\"\");\r\n        require(success, \"refund failed\");\r\n\r\n        emit RefundBid(tokenId, to);\r\n    }   \r\n\r\n    //   (  )\r\n    function cancleFailedAuction(uint tokenId) external {\r\n        //   endTime  block.timestamp     \r\n        //      \r\n        //         \r\n\r\n        //   approve  ?\r\n\r\n        // uint256 lastBidPrice = _tokensOnAuction[tokenId].lastBidPrice;\r\n        // uint256 endTime = _tokensOnAuction[tokenId].endTime;\r\n        // address bider = _tokensOnAuction[tokenId].bider;\r\n\r\n        // require(endTime > block.timestamp, \"auction not ended yet\"); //  \r\n        // require(lastBidPrice > 0, \"acution already ended\"); //   \r\n    }\r\n\r\n    //  (NFT)  ()\r\n    //    \r\n    //    .\r\n    event ClaimMatchedAuction(uint256 tokenId, address caller);\r\n    function claimMatchedAuction(uint256 tokenId) external {\r\n        uint256 endTime = _tokensOnAuction[tokenId].endTime;\r\n        uint256 lastBidPrice = _tokensOnAuction[tokenId].lastBidPrice;\r\n        address bider = _tokensOnAuction[tokenId].bider;\r\n        address tokenOwner = Token.ownerOf(tokenId);\r\n\r\n        require(endTime < block.timestamp, \"auction not ended\");\r\n        require(lastBidPrice != 0, \"this token did not registered on auction\");\r\n        require(msg.sender == bider || msg.sender == tokenOwner , \"caller is not highest bider nor seller\");\r\n\r\n        //    \r\n        uint256 incomeAfterFee = lastBidPrice * (100 - saleFeeRate) / 100;\r\n        (bool success, ) = tokenOwner.call{value: incomeAfterFee}(\"\");\r\n        require(success, \"payment failed\");\r\n\r\n        //   \r\n        Token.safeTransferFrom(tokenOwner, msg.sender, tokenId); //    \r\n        _tokensOnAuction[tokenId].bider = address(0); \r\n        // _tokensOnAuction[tokenId].lastBidPrice = 0; //  \r\n        // _tokensOnAuction[tokenId].endTime = 0; //  endTime   block.timestamp   \r\n\r\n        emit ClaimMatchedAuction(tokenId, msg.sender); //      \r\n    }\r\n\r\n    //    \r\n    function _countNotClaimedAuction() private view returns(uint256) {\r\n        uint256 count;\r\n\r\n        for(uint tokenId = 1; tokenId <= Token.totalSupply(); tokenId++) {\r\n            // uint256 lastBidPrice = _tokensOnAuction[tokenId].lastBidPrice;\r\n            uint256 endTime = _tokensOnAuction[tokenId].endTime;\r\n            address bider = _tokensOnAuction[tokenId].bider;\r\n\r\n            // if(lastBidPrice != 0 && bider != address(0) && endTime < block.timestamp) {\r\n            //     count ++;\r\n            // } \r\n            if(bider != address(0) && endTime < block.timestamp) {\r\n                count ++;\r\n            } \r\n            //  bider address(0) \r\n            //   bider address(0)    .\r\n            //    bider  address(0) \r\n            //             .\r\n        }\r\n\r\n        return count;\r\n    }\r\n\r\n    //    \r\n    function notClaimedAuctionList() public view returns(uint256[] memory){\r\n        uint256[] memory tokensNotClaimedOnAuction = new uint256[](_countNotClaimedAuction()); //  \r\n        uint256 index = 0;\r\n\r\n        for(uint tokenId = 1; tokenId <= Token.totalSupply(); tokenId++) {\r\n            uint256 endTime = _tokensOnAuction[tokenId].endTime;\r\n            address bider = _tokensOnAuction[tokenId].bider;\r\n\r\n            if(bider != address(0) && endTime < block.timestamp) {\r\n                tokensNotClaimedOnAuction[index] = tokenId;\r\n                index ++;\r\n            } \r\n            //   bider lastBidPrice  default   .\r\n        }\r\n\r\n        return tokensNotClaimedOnAuction;\r\n    }\r\n\r\n\r\n    //  (  ) ( )\r\n    function _countOnBid(address owner) private view returns(uint256) {\r\n        uint256 count = 0;\r\n        uint256 countOnAuction = _countOnAuction();\r\n        uint256[] memory listOnAuction = onAuctionList();\r\n\r\n        for(uint i = 0; i < countOnAuction; i++) {\r\n            uint256 tokenId = listOnAuction[i];\r\n            if(_tokensOnAuction[tokenId].bider == owner) {\r\n                count ++;\r\n            } \r\n        }\r\n        return count;\r\n    }\r\n\r\n    //  (  )  ( )\r\n    function onBidList(address owner) external view returns(uint256[] memory){\r\n        uint256[] memory tokensOnBid = new uint256[](_countOnBid(owner)); //  \r\n        uint256 countOnAuction = _countOnAuction();\r\n        uint256[] memory listOnAuction = onAuctionList();\r\n        uint256 index = 0;\r\n\r\n        for(uint i = 0; i < countOnAuction; i++){\r\n            uint256 tokenId = listOnAuction[i];\r\n            if(_tokensOnAuction[tokenId].bider == owner){\r\n                tokensOnBid[index] = tokenId;\r\n                index ++;\r\n            }\r\n        }\r\n        return tokensOnBid;\r\n    }\r\n\r\n    //    \r\n    function _notClaimedMoney() private view returns(uint256) {\r\n        uint256[] memory tokensNotClaimedOnAuction = notClaimedAuctionList();\r\n        uint256 notClaimedMoney;\r\n\r\n        for (uint i = 0; i < tokensNotClaimedOnAuction.length; i++ ) {\r\n            uint256 tokenId = tokensNotClaimedOnAuction[i];\r\n            uint256 lastBidPrice = _tokensOnAuction[tokenId].lastBidPrice;\r\n            uint256 afterFee = lastBidPrice * (100 - saleFeeRate) / 100;\r\n            notClaimedMoney += afterFee;\r\n        }\r\n\r\n        return notClaimedMoney;\r\n    }\r\n\r\n    //  \r\n    function withdrawFees() external onlyOwner {\r\n        //              \r\n        uint256 notClaimedMoney = _notClaimedMoney();\r\n        uint256 balanceExceptNotClaimedMoney = address(this).balance - notClaimedMoney;\r\n\r\n        require(balanceExceptNotClaimedMoney > 0, \"balance without notClaimedMoney is zero\");\r\n\r\n        (bool success, ) = msg.sender.call{value: balanceExceptNotClaimedMoney}(\"\");\r\n        require(success, \"withdraw failed\");\r\n    }\r\n\r\n}\r\n\r\n",
  "sourcePath": "C:\\Users\\KGA_\\Desktop\\nft_1223\\blockChain\\contracts\\TestTrade.sol",
  "compiler": {
    "name": "solc",
    "version": "0.8.17+commit.8df45f5f.Emscripten.clang"
  },
  "schemaVersion": "3.4.11",
  "updatedAt": "2022-12-24T06:51:18.358Z",
  "networkType": "ethereum",
  "devdoc": {
    "kind": "dev",
    "methods": {
      "owner()": {
        "details": "Returns the address of the current owner."
      },
      "renounceOwnership()": {
        "details": "Leaves the contract without owner. It will not be possible to call `onlyOwner` functions anymore. Can only be called by the current owner. NOTE: Renouncing ownership will leave the contract without an owner, thereby removing any functionality that is only available to the owner."
      },
      "transferOwnership(address)": {
        "details": "Transfers ownership of the contract to a new account (`newOwner`). Can only be called by the current owner."
      }
    },
    "version": 1
  },
  "userdoc": {
    "kind": "user",
    "methods": {},
    "version": 1
  }
}