{
  "contractName": "TestTrade",
  "abi": [
    {
      "inputs": [
        {
          "internalType": "address",
          "name": "tokenAddress_",
          "type": "address"
        }
      ],
      "stateMutability": "nonpayable",
      "type": "constructor"
    },
    {
      "anonymous": false,
      "inputs": [
        {
          "indexed": false,
          "internalType": "uint256",
          "name": "tokenId",
          "type": "uint256"
        },
        {
          "indexed": false,
          "internalType": "uint256",
          "name": "bidPrice",
          "type": "uint256"
        },
        {
          "indexed": false,
          "internalType": "address",
          "name": "bider",
          "type": "address"
        }
      ],
      "name": "BidOnAuction",
      "type": "event"
    },
    {
      "anonymous": false,
      "inputs": [
        {
          "indexed": false,
          "internalType": "uint256",
          "name": "tokenId",
          "type": "uint256"
        },
        {
          "indexed": false,
          "internalType": "address",
          "name": "caller",
          "type": "address"
        }
      ],
      "name": "ClaimMatchedAuction",
      "type": "event"
    },
    {
      "anonymous": false,
      "inputs": [
        {
          "indexed": true,
          "internalType": "address",
          "name": "previousOwner",
          "type": "address"
        },
        {
          "indexed": true,
          "internalType": "address",
          "name": "newOwner",
          "type": "address"
        }
      ],
      "name": "OwnershipTransferred",
      "type": "event"
    },
    {
      "anonymous": false,
      "inputs": [
        {
          "indexed": false,
          "internalType": "uint256",
          "name": "tokenId",
          "type": "uint256"
        },
        {
          "indexed": false,
          "internalType": "address",
          "name": "failedBider",
          "type": "address"
        }
      ],
      "name": "RefundBid",
      "type": "event"
    },
    {
      "inputs": [],
      "name": "Token",
      "outputs": [
        {
          "internalType": "contract TestToken",
          "name": "",
          "type": "address"
        }
      ],
      "stateMutability": "view",
      "type": "function",
      "constant": true
    },
    {
      "inputs": [],
      "name": "_owner",
      "outputs": [
        {
          "internalType": "address",
          "name": "",
          "type": "address"
        }
      ],
      "stateMutability": "view",
      "type": "function",
      "constant": true
    },
    {
      "inputs": [],
      "name": "owner",
      "outputs": [
        {
          "internalType": "address",
          "name": "",
          "type": "address"
        }
      ],
      "stateMutability": "view",
      "type": "function",
      "constant": true
    },
    {
      "inputs": [],
      "name": "renounceOwnership",
      "outputs": [],
      "stateMutability": "nonpayable",
      "type": "function"
    },
    {
      "inputs": [],
      "name": "saleFeeRate",
      "outputs": [
        {
          "internalType": "uint256",
          "name": "",
          "type": "uint256"
        }
      ],
      "stateMutability": "view",
      "type": "function",
      "constant": true
    },
    {
      "inputs": [
        {
          "internalType": "address",
          "name": "newOwner",
          "type": "address"
        }
      ],
      "name": "transferOwnership",
      "outputs": [],
      "stateMutability": "nonpayable",
      "type": "function"
    },
    {
      "inputs": [
        {
          "internalType": "uint256",
          "name": "rate",
          "type": "uint256"
        }
      ],
      "name": "setSaleFeeRate",
      "outputs": [],
      "stateMutability": "nonpayable",
      "type": "function"
    },
    {
      "inputs": [],
      "name": "onSaleList",
      "outputs": [
        {
          "internalType": "uint256[]",
          "name": "",
          "type": "uint256[]"
        }
      ],
      "stateMutability": "view",
      "type": "function",
      "constant": true
    },
    {
      "inputs": [
        {
          "internalType": "uint256",
          "name": "tokenId",
          "type": "uint256"
        }
      ],
      "name": "priceOfOnSale",
      "outputs": [
        {
          "internalType": "uint256",
          "name": "",
          "type": "uint256"
        }
      ],
      "stateMutability": "view",
      "type": "function",
      "constant": true
    },
    {
      "inputs": [
        {
          "internalType": "uint256",
          "name": "tokenId",
          "type": "uint256"
        },
        {
          "internalType": "uint256",
          "name": "price",
          "type": "uint256"
        }
      ],
      "name": "registerForSale",
      "outputs": [],
      "stateMutability": "nonpayable",
      "type": "function"
    },
    {
      "inputs": [
        {
          "internalType": "uint256",
          "name": "tokenId",
          "type": "uint256"
        }
      ],
      "name": "cancleSale",
      "outputs": [],
      "stateMutability": "nonpayable",
      "type": "function"
    },
    {
      "inputs": [
        {
          "internalType": "uint256",
          "name": "tokenId",
          "type": "uint256"
        }
      ],
      "name": "purchase",
      "outputs": [],
      "stateMutability": "payable",
      "type": "function",
      "payable": true
    },
    {
      "inputs": [],
      "name": "onAuctionList",
      "outputs": [
        {
          "internalType": "uint256[]",
          "name": "",
          "type": "uint256[]"
        }
      ],
      "stateMutability": "view",
      "type": "function",
      "constant": true
    },
    {
      "inputs": [
        {
          "internalType": "uint256",
          "name": "tokenId",
          "type": "uint256"
        }
      ],
      "name": "dataOfOnAuction",
      "outputs": [
        {
          "components": [
            {
              "internalType": "uint256",
              "name": "lastBidPrice",
              "type": "uint256"
            },
            {
              "internalType": "uint256",
              "name": "endTime",
              "type": "uint256"
            },
            {
              "internalType": "address",
              "name": "bider",
              "type": "address"
            }
          ],
          "internalType": "struct TestTrade.AuctionInfo",
          "name": "",
          "type": "tuple"
        }
      ],
      "stateMutability": "view",
      "type": "function",
      "constant": true
    },
    {
      "inputs": [
        {
          "internalType": "uint256",
          "name": "tokenId",
          "type": "uint256"
        },
        {
          "internalType": "uint256",
          "name": "minimumPrice",
          "type": "uint256"
        },
        {
          "internalType": "uint256",
          "name": "lastingMinutes",
          "type": "uint256"
        }
      ],
      "name": "registerForAuction",
      "outputs": [],
      "stateMutability": "nonpayable",
      "type": "function"
    },
    {
      "inputs": [
        {
          "internalType": "uint256",
          "name": "tokenId",
          "type": "uint256"
        }
      ],
      "name": "bidOnAcution",
      "outputs": [],
      "stateMutability": "payable",
      "type": "function",
      "payable": true
    },
    {
      "inputs": [
        {
          "internalType": "uint256",
          "name": "tokenId",
          "type": "uint256"
        }
      ],
      "name": "cancleFailedAuction",
      "outputs": [],
      "stateMutability": "nonpayable",
      "type": "function"
    },
    {
      "inputs": [
        {
          "internalType": "uint256",
          "name": "tokenId",
          "type": "uint256"
        }
      ],
      "name": "claimMatchedAuction",
      "outputs": [],
      "stateMutability": "nonpayable",
      "type": "function"
    },
    {
      "inputs": [],
      "name": "notClaimedAuctionList",
      "outputs": [
        {
          "internalType": "uint256[]",
          "name": "",
          "type": "uint256[]"
        }
      ],
      "stateMutability": "view",
      "type": "function",
      "constant": true
    },
    {
      "inputs": [
        {
          "internalType": "address",
          "name": "owner",
          "type": "address"
        }
      ],
      "name": "onBidList",
      "outputs": [
        {
          "internalType": "uint256[]",
          "name": "",
          "type": "uint256[]"
        }
      ],
      "stateMutability": "view",
      "type": "function",
      "constant": true
    },
    {
      "inputs": [],
      "name": "withdrawFees",
      "outputs": [],
      "stateMutability": "nonpayable",
      "type": "function"
    }
  ],
  "bytecode": "0x608060405260056002553480156200001657600080fd5b5060405162003d5b38038062003d5b83398181016040528101906200003c9190620001da565b6200005c62000050620000a460201b60201c565b620000ac60201b60201c565b80600160006101000a81548173ffffffffffffffffffffffffffffffffffffffff021916908373ffffffffffffffffffffffffffffffffffffffff160217905550506200020c565b600033905090565b60008060009054906101000a900473ffffffffffffffffffffffffffffffffffffffff169050816000806101000a81548173ffffffffffffffffffffffffffffffffffffffff021916908373ffffffffffffffffffffffffffffffffffffffff1602179055508173ffffffffffffffffffffffffffffffffffffffff168173ffffffffffffffffffffffffffffffffffffffff167f8be0079c531659141344cd1fd0a4f28419497f9722a3daafe3b4186f6b6457e060405160405180910390a35050565b600080fd5b600073ffffffffffffffffffffffffffffffffffffffff82169050919050565b6000620001a28262000175565b9050919050565b620001b48162000195565b8114620001c057600080fd5b50565b600081519050620001d481620001a9565b92915050565b600060208284031215620001f357620001f262000170565b5b60006200020384828501620001c3565b91505092915050565b613b3f806200021c6000396000f3fe60806040526004361061012a5760003560e01c806386cd9b83116100ab578063d43115c31161006f578063d43115c3146103ba578063e033c229146103e3578063efef39a1146103ff578063f06d0a821461041b578063f2fde38b14610444578063f5c6a2cf1461046d5761012a565b806386cd9b83146102d35780638da5cb5b14610310578063b2bdfa7b1461033b578063c241267614610366578063cee64c65146103915761012a565b80635255f0d6116100f25780635255f0d6146102005780635870ea5e1461023d57806366066c7714610268578063715018a61461029357806382ef5ee5146102aa5761012a565b80630957c2d91461012f5780632afc95111461016c5780633a1cff7f14610195578063476343ee146101be5780634a5c46ed146101d5575b600080fd5b34801561013b57600080fd5b5061015660048036038101906101519190612875565b610498565b604051610163919061296a565b60405180910390f35b34801561017857600080fd5b50610193600480360381019061018e91906129b8565b6105eb565b005b3480156101a157600080fd5b506101bc60048036038101906101b791906129b8565b610a40565b005b3480156101ca57600080fd5b506101d3610a52565b005b3480156101e157600080fd5b506101ea610b6a565b6040516101f791906129f4565b60405180910390f35b34801561020c57600080fd5b50610227600480360381019061022291906129b8565b610b70565b6040516102349190612a60565b60405180910390f35b34801561024957600080fd5b50610252610c07565b60405161025f919061296a565b60405180910390f35b34801561027457600080fd5b5061027d610e09565b60405161028a919061296a565b60405180910390f35b34801561029f57600080fd5b506102a8610f96565b005b3480156102b657600080fd5b506102d160048036038101906102cc9190612a7b565b610faa565b005b3480156102df57600080fd5b506102fa60048036038101906102f591906129b8565b611207565b60405161030791906129f4565b60405180910390f35b34801561031c57600080fd5b50610325611279565b6040516103329190612aca565b60405180910390f35b34801561034757600080fd5b506103506112a2565b60405161035d9190612aca565b60405180910390f35b34801561037257600080fd5b5061037b6112c6565b6040516103889190612b44565b60405180910390f35b34801561039d57600080fd5b506103b860048036038101906103b39190612b5f565b6112ec565b005b3480156103c657600080fd5b506103e160048036038101906103dc91906129b8565b61167b565b005b6103fd60048036038101906103f891906129b8565b61167e565b005b610419600480360381019061041491906129b8565b611a10565b005b34801561042757600080fd5b50610442600480360381019061043d91906129b8565b611d32565b005b34801561045057600080fd5b5061046b60048036038101906104669190612875565b611ead565b005b34801561047957600080fd5b50610482611f30565b60405161048f919061296a565b60405180910390f35b606060006104a58361208b565b67ffffffffffffffff8111156104be576104bd612bb2565b5b6040519080825280602002602001820160405280156104ec5781602001602082028036833780820191505090505b50905060006104f961216c565b90506000610505610e09565b90506000805b838110156105de57600083828151811061052857610527612be1565b5b602002602001015190508773ffffffffffffffffffffffffffffffffffffffff166004600083815260200190815260200160002060020160009054906101000a900473ffffffffffffffffffffffffffffffffffffffff1673ffffffffffffffffffffffffffffffffffffffff16036105ca57808684815181106105af576105ae612be1565b5b60200260200101818152505082806105c690612c3f565b9350505b5080806105d690612c3f565b91505061050b565b5083945050505050919050565b60006004600083815260200190815260200160002060010154905060006004600084815260200190815260200160002060000154905060006004600085815260200190815260200160002060020160009054906101000a900473ffffffffffffffffffffffffffffffffffffffff1690506000600160009054906101000a900473ffffffffffffffffffffffffffffffffffffffff1673ffffffffffffffffffffffffffffffffffffffff16636352211e866040518263ffffffff1660e01b81526004016106b991906129f4565b602060405180830381865afa1580156106d6573d6000803e3d6000fd5b505050506040513d601f19601f820116820180604052508101906106fa9190612c9c565b905042841061073e576040517f08c379a000000000000000000000000000000000000000000000000000000000815260040161073590612d26565b60405180910390fd5b60008303610781576040517f08c379a000000000000000000000000000000000000000000000000000000000815260040161077890612db8565b60405180910390fd5b8173ffffffffffffffffffffffffffffffffffffffff163373ffffffffffffffffffffffffffffffffffffffff1614806107e657508073ffffffffffffffffffffffffffffffffffffffff163373ffffffffffffffffffffffffffffffffffffffff16145b610825576040517f08c379a000000000000000000000000000000000000000000000000000000000815260040161081c90612e4a565b60405180910390fd5b6000606460025460646108389190612e6a565b856108439190612e9e565b61084d9190612f0f565b905060008273ffffffffffffffffffffffffffffffffffffffff168260405161087590612f71565b60006040518083038185875af1925050503d80600081146108b2576040519150601f19603f3d011682016040523d82523d6000602084013e6108b7565b606091505b50509050806108fb576040517f08c379a00000000000000000000000000000000000000000000000000000000081526004016108f290612fd2565b60405180910390fd5b600160009054906101000a900473ffffffffffffffffffffffffffffffffffffffff1673ffffffffffffffffffffffffffffffffffffffff166342842e0e84338a6040518463ffffffff1660e01b815260040161095a93929190612ff2565b600060405180830381600087803b15801561097457600080fd5b505af1158015610988573d6000803e3d6000fd5b5050505060006004600089815260200190815260200160002060020160006101000a81548173ffffffffffffffffffffffffffffffffffffffff021916908373ffffffffffffffffffffffffffffffffffffffff160217905550600060046000898152602001908152602001600020600001819055507f1b8a46b4ba92d15058e2a028d473fc5037835f1f8466a1a4a538634ac081d1548733604051610a2f929190613029565b60405180910390a150505050505050565b610a48612284565b8060028190555050565b610a5a612284565b6000610a64612302565b905060008147610a749190612e6a565b905060008111610ab9576040517f08c379a0000000000000000000000000000000000000000000000000000000008152600401610ab0906130c4565b60405180910390fd5b60003373ffffffffffffffffffffffffffffffffffffffff1682604051610adf90612f71565b60006040518083038185875af1925050503d8060008114610b1c576040519150601f19603f3d011682016040523d82523d6000602084013e610b21565b606091505b5050905080610b65576040517f08c379a0000000000000000000000000000000000000000000000000000000008152600401610b5c90613130565b60405180910390fd5b505050565b60025481565b610b786127db565b6004600083815260200190815260200160002060405180606001604052908160008201548152602001600182015481526020016002820160009054906101000a900473ffffffffffffffffffffffffffffffffffffffff1673ffffffffffffffffffffffffffffffffffffffff1673ffffffffffffffffffffffffffffffffffffffff16815250509050919050565b60606000610c136123b1565b67ffffffffffffffff811115610c2c57610c2b612bb2565b5b604051908082528060200260200182016040528015610c5a5781602001602082028036833780820191505090505b509050600080600190505b600160009054906101000a900473ffffffffffffffffffffffffffffffffffffffff1673ffffffffffffffffffffffffffffffffffffffff166318160ddd6040518163ffffffff1660e01b8152600401602060405180830381865afa158015610cd2573d6000803e3d6000fd5b505050506040513d601f19601f82011682018060405250810190610cf69190613165565b8111610e005760006004600083815260200190815260200160002060000154905060006004600084815260200190815260200160002060010154905060006004600085815260200190815260200160002060020160009054906101000a900473ffffffffffffffffffffffffffffffffffffffff16905060008314158015610dab5750600073ffffffffffffffffffffffffffffffffffffffff168173ffffffffffffffffffffffffffffffffffffffff1614155b8015610db657504282105b15610dea5783868681518110610dcf57610dce612be1565b5b6020026020010181815250508480610de690612c3f565b9550505b5050508080610df890612c3f565b915050610c65565b50819250505090565b60606000610e1561216c565b67ffffffffffffffff811115610e2e57610e2d612bb2565b5b604051908082528060200260200182016040528015610e5c5781602001602082028036833780820191505090505b509050600080600190505b600160009054906101000a900473ffffffffffffffffffffffffffffffffffffffff1673ffffffffffffffffffffffffffffffffffffffff166318160ddd6040518163ffffffff1660e01b8152600401602060405180830381865afa158015610ed4573d6000803e3d6000fd5b505050506040513d601f19601f82011682018060405250810190610ef89190613165565b8111610f8d5760006004600083815260200190815260200160002060000154905060006004600084815260200190815260200160002060010154905060008214158015610f4457504281115b15610f785782858581518110610f5d57610f5c612be1565b5b6020026020010181815250508380610f7490612c3f565b9450505b50508080610f8590612c3f565b915050610e67565b50819250505090565b610f9e612284565b610fa8600061253e565b565b3373ffffffffffffffffffffffffffffffffffffffff16600160009054906101000a900473ffffffffffffffffffffffffffffffffffffffff1673ffffffffffffffffffffffffffffffffffffffff16636352211e846040518263ffffffff1660e01b815260040161101c91906129f4565b602060405180830381865afa158015611039573d6000803e3d6000fd5b505050506040513d601f19601f8201168201806040525081019061105d9190612c9c565b73ffffffffffffffffffffffffffffffffffffffff16146110b3576040517f08c379a00000000000000000000000000000000000000000000000000000000081526004016110aa906131de565b60405180910390fd5b600081116110f6576040517f08c379a00000000000000000000000000000000000000000000000000000000081526004016110ed9061324a565b60405180910390fd5b4261110083610b70565b6020015110611144576040517f08c379a000000000000000000000000000000000000000000000000000000000815260040161113b906132b6565b60405180910390fd5b600160009054906101000a900473ffffffffffffffffffffffffffffffffffffffff1673ffffffffffffffffffffffffffffffffffffffff1663e985e9c533306040518363ffffffff1660e01b81526004016111a19291906132d6565b602060405180830381865afa1580156111be573d6000803e3d6000fd5b505050506040513d601f19601f820116820180604052508101906111e29190613337565b6111eb57600080fd5b8060036000848152602001908152602001600020819055505050565b60008060036000848152602001908152602001600020541161125e576040517f08c379a0000000000000000000000000000000000000000000000000000000008152600401611255906133b0565b60405180910390fd5b60036000838152602001908152602001600020549050919050565b60008060009054906101000a900473ffffffffffffffffffffffffffffffffffffffff16905090565b60008054906101000a900473ffffffffffffffffffffffffffffffffffffffff1681565b600160009054906101000a900473ffffffffffffffffffffffffffffffffffffffff1681565b3373ffffffffffffffffffffffffffffffffffffffff16600160009054906101000a900473ffffffffffffffffffffffffffffffffffffffff1673ffffffffffffffffffffffffffffffffffffffff16636352211e856040518263ffffffff1660e01b815260040161135e91906129f4565b602060405180830381865afa15801561137b573d6000803e3d6000fd5b505050506040513d601f19601f8201168201806040525081019061139f9190612c9c565b73ffffffffffffffffffffffffffffffffffffffff16146113f5576040517f08c379a00000000000000000000000000000000000000000000000000000000081526004016113ec906131de565b60405180910390fd5b66038d7ea4c6800082101561143f576040517f08c379a000000000000000000000000000000000000000000000000000000000815260040161143690613442565b60405180910390fd5b600061144a84611207565b111561148b576040517f08c379a0000000000000000000000000000000000000000000000000000000008152600401611482906134ae565b60405180910390fd5b4261149584610b70565b60200151106114d9576040517f08c379a00000000000000000000000000000000000000000000000000000000081526004016114d09061351a565b60405180910390fd5b600160009054906101000a900473ffffffffffffffffffffffffffffffffffffffff1673ffffffffffffffffffffffffffffffffffffffff1663e985e9c533306040518363ffffffff1660e01b81526004016115369291906132d6565b602060405180830381865afa158015611553573d6000803e3d6000fd5b505050506040513d601f19601f820116820180604052508101906115779190613337565b6115b6576040517f08c379a00000000000000000000000000000000000000000000000000000000081526004016115ad90613586565b60405180910390fd5b6000603c826115c59190612e9e565b426115d091906135a6565b90506040518060600160405280848152602001828152602001600073ffffffffffffffffffffffffffffffffffffffff1681525060046000868152602001908152602001600020600082015181600001556020820151816001015560408201518160020160006101000a81548173ffffffffffffffffffffffffffffffffffffffff021916908373ffffffffffffffffffffffffffffffffffffffff16021790555090505050505050565b50565b60006004600083815260200190815260200160002060000154905060006004600084815260200190815260200160002060010154905060006004600085815260200190815260200160002060020160009054906101000a900473ffffffffffffffffffffffffffffffffffffffff169050814210611731576040517f08c379a000000000000000000000000000000000000000000000000000000000815260040161172890613626565b60405180910390fd5b3373ffffffffffffffffffffffffffffffffffffffff16600160009054906101000a900473ffffffffffffffffffffffffffffffffffffffff1673ffffffffffffffffffffffffffffffffffffffff16636352211e866040518263ffffffff1660e01b81526004016117a391906129f4565b602060405180830381865afa1580156117c0573d6000803e3d6000fd5b505050506040513d601f19601f820116820180604052508101906117e49190612c9c565b73ffffffffffffffffffffffffffffffffffffffff160361183a576040517f08c379a000000000000000000000000000000000000000000000000000000000815260040161183190613692565b60405180910390fd5b6000831161187d576040517f08c379a0000000000000000000000000000000000000000000000000000000008152600401611874906136fe565b60405180910390fd5b8234116118bf576040517f08c379a00000000000000000000000000000000000000000000000000000000081526004016118b690613790565b60405180910390fd5b600066038d7ea4c6800084346118d59190612e6a565b6118df91906137b0565b1461191f576040517f08c379a000000000000000000000000000000000000000000000000000000000815260040161191690613804565b60405180910390fd5b600073ffffffffffffffffffffffffffffffffffffffff168173ffffffffffffffffffffffffffffffffffffffff161461195f5761195e848285612602565b5b346004600086815260200190815260200160002060000181905550336004600086815260200190815260200160002060020160006101000a81548173ffffffffffffffffffffffffffffffffffffffff021916908373ffffffffffffffffffffffffffffffffffffffff1602179055507f2e8aa4a142971e5869dd16ff8b28d697bb44ae2491e376ddaa14d601be1c0f85843483604051611a0293929190613824565b60405180910390a150505050565b6000600360008381526020019081526020016000205490506000600160009054906101000a900473ffffffffffffffffffffffffffffffffffffffff1673ffffffffffffffffffffffffffffffffffffffff16636352211e846040518263ffffffff1660e01b8152600401611a8591906129f4565b602060405180830381865afa158015611aa2573d6000803e3d6000fd5b505050506040513d601f19601f82011682018060405250810190611ac69190612c9c565b90503373ffffffffffffffffffffffffffffffffffffffff168173ffffffffffffffffffffffffffffffffffffffff1603611b36576040517f08c379a0000000000000000000000000000000000000000000000000000000008152600401611b2d906138a7565b60405180910390fd5b60008211611b79576040517f08c379a0000000000000000000000000000000000000000000000000000000008152600401611b7090613913565b60405180910390fd5b813414611bbb576040517f08c379a0000000000000000000000000000000000000000000000000000000008152600401611bb29061397f565b60405180910390fd5b600060646002546064611bce9190612e6a565b84611bd99190612e9e565b611be39190612f0f565b905060008273ffffffffffffffffffffffffffffffffffffffff1682604051611c0b90612f71565b60006040518083038185875af1925050503d8060008114611c48576040519150601f19603f3d011682016040523d82523d6000602084013e611c4d565b606091505b5050905080611c91576040517f08c379a0000000000000000000000000000000000000000000000000000000008152600401611c8890612fd2565b60405180910390fd5b600160009054906101000a900473ffffffffffffffffffffffffffffffffffffffff1673ffffffffffffffffffffffffffffffffffffffff166342842e0e8433886040518463ffffffff1660e01b8152600401611cf093929190612ff2565b600060405180830381600087803b158015611d0a57600080fd5b505af1158015611d1e573d6000803e3d6000fd5b50505050611d2b85611d32565b5050505050565b3373ffffffffffffffffffffffffffffffffffffffff16600160009054906101000a900473ffffffffffffffffffffffffffffffffffffffff1673ffffffffffffffffffffffffffffffffffffffff16636352211e836040518263ffffffff1660e01b8152600401611da491906129f4565b602060405180830381865afa158015611dc1573d6000803e3d6000fd5b505050506040513d601f19601f82011682018060405250810190611de59190612c9c565b73ffffffffffffffffffffffffffffffffffffffff1614611e3b576040517f08c379a0000000000000000000000000000000000000000000000000000000008152600401611e32906131de565b60405180910390fd5b6000600360008381526020019081526020016000205411611e91576040517f08c379a0000000000000000000000000000000000000000000000000000000008152600401611e88906133b0565b60405180910390fd5b6000600360008381526020019081526020016000208190555050565b611eb5612284565b600073ffffffffffffffffffffffffffffffffffffffff168173ffffffffffffffffffffffffffffffffffffffff1603611f24576040517f08c379a0000000000000000000000000000000000000000000000000000000008152600401611f1b90613a11565b60405180910390fd5b611f2d8161253e565b50565b60606000611f3c6126ed565b67ffffffffffffffff811115611f5557611f54612bb2565b5b604051908082528060200260200182016040528015611f835781602001602082028036833780820191505090505b509050600080600190505b600160009054906101000a900473ffffffffffffffffffffffffffffffffffffffff1673ffffffffffffffffffffffffffffffffffffffff166318160ddd6040518163ffffffff1660e01b8152600401602060405180830381865afa158015611ffb573d6000803e3d6000fd5b505050506040513d601f19601f8201168201806040525081019061201f9190613165565b811161208257600060036000838152602001908152602001600020541461206f578083838151811061205457612053612be1565b5b602002602001018181525050818061206b90612c3f565b9250505b808061207a90612c3f565b915050611f8e565b50819250505090565b60008060009050600061209c61216c565b905060006120a8610e09565b905060005b828110156121605760008282815181106120ca576120c9612be1565b5b602002602001015190508673ffffffffffffffffffffffffffffffffffffffff166004600083815260200190815260200160002060020160009054906101000a900473ffffffffffffffffffffffffffffffffffffffff1673ffffffffffffffffffffffffffffffffffffffff160361214c57848061214890612c3f565b9550505b50808061215890612c3f565b9150506120ad565b50829350505050919050565b6000806000600190505b600160009054906101000a900473ffffffffffffffffffffffffffffffffffffffff1673ffffffffffffffffffffffffffffffffffffffff166318160ddd6040518163ffffffff1660e01b8152600401602060405180830381865afa1580156121e3573d6000803e3d6000fd5b505050506040513d601f19601f820116820180604052508101906122079190613165565b811161227c576000600460008381526020019081526020016000206000015490506000600460008481526020019081526020016000206001015490506000821415801561225357504281115b1561226757838061226390612c3f565b9450505b5050808061227490612c3f565b915050612176565b508091505090565b61228c6127d3565b73ffffffffffffffffffffffffffffffffffffffff166122aa611279565b73ffffffffffffffffffffffffffffffffffffffff1614612300576040517f08c379a00000000000000000000000000000000000000000000000000000000081526004016122f790613a7d565b60405180910390fd5b565b60008061230d610c07565b9050600080600090505b82518110156123a857600083828151811061233557612334612be1565b5b6020026020010151905060006004600083815260200190815260200160002060000154905060006064600254606461236d9190612e6a565b836123789190612e9e565b6123829190612f0f565b9050808561239091906135a6565b945050505080806123a090612c3f565b915050612317565b50809250505090565b6000806000600190505b600160009054906101000a900473ffffffffffffffffffffffffffffffffffffffff1673ffffffffffffffffffffffffffffffffffffffff166318160ddd6040518163ffffffff1660e01b8152600401602060405180830381865afa158015612428573d6000803e3d6000fd5b505050506040513d601f19601f8201168201806040525081019061244c9190613165565b81116125365760006004600083815260200190815260200160002060000154905060006004600084815260200190815260200160002060010154905060006004600085815260200190815260200160002060020160009054906101000a900473ffffffffffffffffffffffffffffffffffffffff169050600083141580156125015750600073ffffffffffffffffffffffffffffffffffffffff168173ffffffffffffffffffffffffffffffffffffffff1614155b801561250c57504282105b1561252057848061251c90612c3f565b9550505b505050808061252e90612c3f565b9150506123bb565b508091505090565b60008060009054906101000a900473ffffffffffffffffffffffffffffffffffffffff169050816000806101000a81548173ffffffffffffffffffffffffffffffffffffffff021916908373ffffffffffffffffffffffffffffffffffffffff1602179055508173ffffffffffffffffffffffffffffffffffffffff168173ffffffffffffffffffffffffffffffffffffffff167f8be0079c531659141344cd1fd0a4f28419497f9722a3daafe3b4186f6b6457e060405160405180910390a35050565b60008273ffffffffffffffffffffffffffffffffffffffff168260405161262890612f71565b60006040518083038185875af1925050503d8060008114612665576040519150601f19603f3d011682016040523d82523d6000602084013e61266a565b606091505b50509050806126ae576040517f08c379a00000000000000000000000000000000000000000000000000000000081526004016126a590613ae9565b60405180910390fd5b7f1e935a7fb28a0412065cab7ad70c27cf05afe9a9e9d7ab2d424d099c373ac38184846040516126df929190613029565b60405180910390a150505050565b6000806000600190505b600160009054906101000a900473ffffffffffffffffffffffffffffffffffffffff1673ffffffffffffffffffffffffffffffffffffffff166318160ddd6040518163ffffffff1660e01b8152600401602060405180830381865afa158015612764573d6000803e3d6000fd5b505050506040513d601f19601f820116820180604052508101906127889190613165565b81116127cb5760006003600083815260200190815260200160002054146127b85781806127b490612c3f565b9250505b80806127c390612c3f565b9150506126f7565b508091505090565b600033905090565b60405180606001604052806000815260200160008152602001600073ffffffffffffffffffffffffffffffffffffffff1681525090565b600080fd5b600073ffffffffffffffffffffffffffffffffffffffff82169050919050565b600061284282612817565b9050919050565b61285281612837565b811461285d57600080fd5b50565b60008135905061286f81612849565b92915050565b60006020828403121561288b5761288a612812565b5b600061289984828501612860565b91505092915050565b600081519050919050565b600082825260208201905092915050565b6000819050602082019050919050565b6000819050919050565b6128e1816128ce565b82525050565b60006128f383836128d8565b60208301905092915050565b6000602082019050919050565b6000612917826128a2565b61292181856128ad565b935061292c836128be565b8060005b8381101561295d57815161294488826128e7565b975061294f836128ff565b925050600181019050612930565b5085935050505092915050565b60006020820190508181036000830152612984818461290c565b905092915050565b612995816128ce565b81146129a057600080fd5b50565b6000813590506129b28161298c565b92915050565b6000602082840312156129ce576129cd612812565b5b60006129dc848285016129a3565b91505092915050565b6129ee816128ce565b82525050565b6000602082019050612a0960008301846129e5565b92915050565b612a1881612837565b82525050565b606082016000820151612a3460008501826128d8565b506020820151612a4760208501826128d8565b506040820151612a5a6040850182612a0f565b50505050565b6000606082019050612a756000830184612a1e565b92915050565b60008060408385031215612a9257612a91612812565b5b6000612aa0858286016129a3565b9250506020612ab1858286016129a3565b9150509250929050565b612ac481612837565b82525050565b6000602082019050612adf6000830184612abb565b92915050565b6000819050919050565b6000612b0a612b05612b0084612817565b612ae5565b612817565b9050919050565b6000612b1c82612aef565b9050919050565b6000612b2e82612b11565b9050919050565b612b3e81612b23565b82525050565b6000602082019050612b596000830184612b35565b92915050565b600080600060608486031215612b7857612b77612812565b5b6000612b86868287016129a3565b9350506020612b97868287016129a3565b9250506040612ba8868287016129a3565b9150509250925092565b7f4e487b7100000000000000000000000000000000000000000000000000000000600052604160045260246000fd5b7f4e487b7100000000000000000000000000000000000000000000000000000000600052603260045260246000fd5b7f4e487b7100000000000000000000000000000000000000000000000000000000600052601160045260246000fd5b6000612c4a826128ce565b91507fffffffffffffffffffffffffffffffffffffffffffffffffffffffffffffffff8203612c7c57612c7b612c10565b5b600182019050919050565b600081519050612c9681612849565b92915050565b600060208284031215612cb257612cb1612812565b5b6000612cc084828501612c87565b91505092915050565b600082825260208201905092915050565b7f61756374696f6e206e6f7420656e646564000000000000000000000000000000600082015250565b6000612d10601183612cc9565b9150612d1b82612cda565b602082019050919050565b60006020820190508181036000830152612d3f81612d03565b9050919050565b7f7468697320746f6b656e20646964206e6f742072656769737465726564206f6e60008201527f2061756374696f6e000000000000000000000000000000000000000000000000602082015250565b6000612da2602883612cc9565b9150612dad82612d46565b604082019050919050565b60006020820190508181036000830152612dd181612d95565b9050919050565b7f63616c6c6572206973206e6f742068696768657374206269646572206e6f722060008201527f73656c6c65720000000000000000000000000000000000000000000000000000602082015250565b6000612e34602683612cc9565b9150612e3f82612dd8565b604082019050919050565b60006020820190508181036000830152612e6381612e27565b9050919050565b6000612e75826128ce565b9150612e80836128ce565b9250828203905081811115612e9857612e97612c10565b5b92915050565b6000612ea9826128ce565b9150612eb4836128ce565b9250828202612ec2816128ce565b91508282048414831517612ed957612ed8612c10565b5b5092915050565b7f4e487b7100000000000000000000000000000000000000000000000000000000600052601260045260246000fd5b6000612f1a826128ce565b9150612f25836128ce565b925082612f3557612f34612ee0565b5b828204905092915050565b600081905092915050565b50565b6000612f5b600083612f40565b9150612f6682612f4b565b600082019050919050565b6000612f7c82612f4e565b9150819050919050565b7f7061796d656e74206661696c6564000000000000000000000000000000000000600082015250565b6000612fbc600e83612cc9565b9150612fc782612f86565b602082019050919050565b60006020820190508181036000830152612feb81612faf565b9050919050565b60006060820190506130076000830186612abb565b6130146020830185612abb565b61302160408301846129e5565b949350505050565b600060408201905061303e60008301856129e5565b61304b6020830184612abb565b9392505050565b7f62616c616e636520776974686f7574206e6f74436c61696d65644d6f6e65792060008201527f6973207a65726f00000000000000000000000000000000000000000000000000602082015250565b60006130ae602783612cc9565b91506130b982613052565b604082019050919050565b600060208201905081810360008301526130dd816130a1565b9050919050565b7f7769746864726177206661696c65640000000000000000000000000000000000600082015250565b600061311a600f83612cc9565b9150613125826130e4565b602082019050919050565b600060208201905081810360008301526131498161310d565b9050919050565b60008151905061315f8161298c565b92915050565b60006020828403121561317b5761317a612812565b5b600061318984828501613150565b91505092915050565b7f63616c6c6572206973206e6f74206f776e657200000000000000000000000000600082015250565b60006131c8601383612cc9565b91506131d382613192565b602082019050919050565b600060208201905081810360008301526131f7816131bb565b9050919050565b7f7072696365206d7573742062652067726561746572207468616e207a65726f00600082015250565b6000613234601f83612cc9565b915061323f826131fe565b602082019050919050565b6000602082019050818103600083015261326381613227565b9050919050565b7f7468697320746f6b656e206973206f6e2061756374696f6e0000000000000000600082015250565b60006132a0601883612cc9565b91506132ab8261326a565b602082019050919050565b600060208201905081810360008301526132cf81613293565b9050919050565b60006040820190506132eb6000830185612abb565b6132f86020830184612abb565b9392505050565b60008115159050919050565b613314816132ff565b811461331f57600080fd5b50565b6000815190506133318161330b565b92915050565b60006020828403121561334d5761334c612812565b5b600061335b84828501613322565b91505092915050565b7f7468697320746f6b656e206973206e6f74206f6e2073616c6500000000000000600082015250565b600061339a601983612cc9565b91506133a582613364565b602082019050919050565b600060208201905081810360008301526133c98161338d565b9050919050565b7f6d696e696d756d5072696365206d75737420626520677265617465722074686160008201527f6e7320302e303031206574686572000000000000000000000000000000000000602082015250565b600061342c602e83612cc9565b9150613437826133d0565b604082019050919050565b6000602082019050818103600083015261345b8161341f565b9050919050565b7f7468697320746f6b656e20697320616c7265616479206f6e2053616c65000000600082015250565b6000613498601d83612cc9565b91506134a382613462565b602082019050919050565b600060208201905081810360008301526134c78161348b565b9050919050565b7f7468697320746f6b656e20697320616c7265616479206f6e2061756374696f6e600082015250565b6000613504602083612cc9565b915061350f826134ce565b602082019050919050565b60006020820190508181036000830152613533816134f7565b9050919050565b7f6e6f7420617070726f7665640000000000000000000000000000000000000000600082015250565b6000613570600c83612cc9565b915061357b8261353a565b602082019050919050565b6000602082019050818103600083015261359f81613563565b9050919050565b60006135b1826128ce565b91506135bc836128ce565b92508282019050808211156135d4576135d3612c10565b5b92915050565b7f746869732061637574696f6e20656e6465640000000000000000000000000000600082015250565b6000613610601283612cc9565b915061361b826135da565b602082019050919050565b6000602082019050818103600083015261363f81613603565b9050919050565b7f6f776e65722063616e6e6f7420626964206f6e206f776e730000000000000000600082015250565b600061367c601883612cc9565b915061368782613646565b602082019050919050565b600060208201905081810360008301526136ab8161366f565b9050919050565b7f7468697320746f6b656e206973206e6f74206f6e2061756374696f6e00000000600082015250565b60006136e8601c83612cc9565b91506136f3826136b2565b602082019050919050565b60006020820190508181036000830152613717816136db565b9050919050565b7f626964206d7573742062652067726561746572207468616e206c61737420626960008201527f6400000000000000000000000000000000000000000000000000000000000000602082015250565b600061377a602183612cc9565b91506137858261371e565b604082019050919050565b600060208201905081810360008301526137a98161376d565b9050919050565b60006137bb826128ce565b91506137c6836128ce565b9250826137d6576137d5612ee0565b5b828206905092915050565b60006137ee600083612cc9565b91506137f982612f4b565b600082019050919050565b6000602082019050818103600083015261381d816137e1565b9050919050565b600060608201905061383960008301866129e5565b61384660208301856129e5565b6138536040830184612abb565b949350505050565b7f6f776e65722063616e6e6f7420627579206f776e730000000000000000000000600082015250565b6000613891601583612cc9565b915061389c8261385b565b602082019050919050565b600060208201905081810360008301526138c081613884565b9050919050565b7f74686973206e6674206973206e6f74206f6e2073616c65000000000000000000600082015250565b60006138fd601783612cc9565b9150613908826138c7565b602082019050919050565b6000602082019050818103600083015261392c816138f0565b9050919050565b7f7061796d656e7420646f73656e2774206d617463680000000000000000000000600082015250565b6000613969601583612cc9565b915061397482613933565b602082019050919050565b600060208201905081810360008301526139988161395c565b9050919050565b7f4f776e61626c653a206e6577206f776e657220697320746865207a65726f206160008201527f6464726573730000000000000000000000000000000000000000000000000000602082015250565b60006139fb602683612cc9565b9150613a068261399f565b604082019050919050565b60006020820190508181036000830152613a2a816139ee565b9050919050565b7f4f776e61626c653a2063616c6c6572206973206e6f7420746865206f776e6572600082015250565b6000613a67602083612cc9565b9150613a7282613a31565b602082019050919050565b60006020820190508181036000830152613a9681613a5a565b9050919050565b7f726566756e64206661696c656400000000000000000000000000000000000000600082015250565b6000613ad3600d83612cc9565b9150613ade82613a9d565b602082019050919050565b60006020820190508181036000830152613b0281613ac6565b905091905056fea2646970667358221220db1275ad3b594ca83a52eee49d90fd7d334b6a203930c8176a1497146c12f82e64736f6c63430008110033",
  "immutableReferences": {},
  "source": "// SPDX-License-Identifier: MIT\npragma solidity ^0.8.17;\n\nimport \"./TestToken.sol\";\n\nimport \"../node_modules/@openzeppelin/contracts/access/Ownable.sol\";\n// remix  \n// import \"openzeppelin-solidity/contracts/access/Ownable.sol\";\n\ncontract TestTrade is Ownable{\n    TestToken public Token;\n\n    uint256 public saleFeeRate = 5; //\n\n    struct AuctionInfo {\n        uint256 lastBidPrice; //    \n        uint256 endTime;\n        address bider; //    address(0)\n    }\n\n    mapping(uint => uint) private _tokensOnSale;\n    // tokenId to price\n    mapping(uint => AuctionInfo) private _tokensOnAuction;\n    // tokenId to AuctionInfo\n\n    constructor(address tokenAddress_) {\n        Token = TestToken(tokenAddress_);\n    }\n\n    event BidOnAuction(uint256 tokenId, uint256 bidPrice , address bider);\n    event RefundBid(uint256 tokenId, address failedBider);\n\n    //  \n    function setSaleFeeRate(uint256 rate) external onlyOwner {\n        saleFeeRate = rate;\n    } \n\n    //   ()\n    function _countOnSale() private view returns(uint256) {\n        uint256 count;\n\n        for(uint tokenId = 1; tokenId <= Token.totalSupply(); tokenId++) {\n            if(_tokensOnSale[tokenId] != 0) count ++;\n        }\n\n        return count;\n    }\n\n    //   ( )\n    function onSaleList() external view returns(uint256[] memory){\n        uint256[] memory tokensOnSale = new uint256[](_countOnSale()); //  \n        uint256 index = 0;\n\n        for(uint tokenId = 1; tokenId <= Token.totalSupply(); tokenId++) {\n            if(_tokensOnSale[tokenId] != 0) {\n                tokensOnSale[index] = tokenId;\n                index ++;\n            }\n        }\n\n        return tokensOnSale;\n    }\n\n    //    ( )\n    function priceOfOnSale(uint256 tokenId) public view  returns(uint256)  {\n        require(_tokensOnSale[tokenId] > 0, \"this token is not on sale\");\n        return _tokensOnSale[tokenId];\n        //  0  (   )\n    }  \n\n    // ( )\n    function registerForSale(uint256 tokenId, uint256 price) external {\n        // require(_callerIsOwner(tokenId), \"caller is not owner\");\n        require(Token.ownerOf(tokenId) == msg.sender, \"caller is not owner\");\n        require(price > 0, \"price must be greater than zero\");\n        require(dataOfOnAuction(tokenId).endTime < block.timestamp, \"this token is on auction\"); //   \n        //  Nft  setApprovalForAll(address operator, bool approved)\n        //  operator  CA   .\n        require(Token.isApprovedForAll(msg.sender, address(this)));\n\n        _tokensOnSale[tokenId] = price;\n    }\n\n    //  ( )\n    function cancleSale(uint256 tokenId) public {\n        require(Token.ownerOf(tokenId) == msg.sender, \"caller is not owner\");\n        require(_tokensOnSale[tokenId] > 0, \"this token is not on sale\");\n        _tokensOnSale[tokenId] = 0; //  0    \n        // Token.setApprovalForAll(address(this), false); // approve   \n        //    require operater != msg.sender   \n        //    CA  ...\n        //       setApprovalForAll(  CA, false)  .\n        //          ,\n    }\n\n    // ( )\n    function purchase(uint256 tokenId) external payable {\n        uint256 price = _tokensOnSale[tokenId];\n        address tokenOwner = Token.ownerOf(tokenId);\n\n        require(tokenOwner != msg.sender, \"owner cannot buy owns\");\n        require(price > 0, \"this nft is not on sale\");\n        require(msg.value == price, \"payment dosen't match\");\n        //   transferFrom    \n        //            ?\n\n        uint256 incomeAfterFee = price * (100 - saleFeeRate) / 100;\n        (bool success, ) = tokenOwner.call{value: incomeAfterFee}(\"\");\n        require(success, \"payment failed\");\n\n        Token.safeTransferFrom(tokenOwner, msg.sender, tokenId);\n        cancleSale(tokenId);\n    }\n\n\n    //    ( )\n    function _countOnAuction() private view returns(uint256) {\n        uint256 count;\n\n        for(uint tokenId = 1; tokenId <= Token.totalSupply(); tokenId++) {\n            uint256 lastBidPrice = _tokensOnAuction[tokenId].lastBidPrice;\n            uint256 endTime = _tokensOnAuction[tokenId].endTime;\n\n            if(lastBidPrice != 0 && endTime > block.timestamp) {\n                count ++;\n            } // lastBidPrice 0   \n              // endTime  block.timestamp    .\n        }\n\n        return count;\n    }\n\n    //    ( )\n    function onAuctionList() public view returns(uint256[] memory){\n        uint256[] memory tokensOnAuction = new uint256[](_countOnAuction()); //  \n        uint256 index = 0;\n\n        for(uint tokenId = 1; tokenId <= Token.totalSupply(); tokenId++) {\n            uint256 lastBidPrice = _tokensOnAuction[tokenId].lastBidPrice;\n            uint256 endTime = _tokensOnAuction[tokenId].endTime;\n\n            if(lastBidPrice != 0 && endTime > block.timestamp) {\n                tokensOnAuction[index] = tokenId;\n                index ++;\n            } // lastBidPrice 0   \n              // endTime  block.timestamp    .\n        }\n\n        return tokensOnAuction;\n    }\n\n    //    ()\n    function dataOfOnAuction(uint256 tokenId) public view returns(AuctionInfo memory){\n        return _tokensOnAuction[tokenId];\n    }\n\n    // ()\n    function registerForAuction(uint256 tokenId, uint256 minimumPrice, uint256 lastingMinutes) external {\n        require(Token.ownerOf(tokenId) == msg.sender, \"caller is not owner\");\n        require(minimumPrice >= 0.001 ether, \"minimumPrice must be greater thans 0.001 ether\"); //     \n        require(priceOfOnSale(tokenId) <= 0, \"this token is already on Sale\"); //    \n        require(dataOfOnAuction(tokenId).endTime < block.timestamp, \"this token is already on auction\"); //   \n        //  Nft   setApprovalForAll(address operator, bool approved)\n        //  operator   CA    .\n        require(Token.isApprovedForAll(msg.sender, address(this)), \"not approved\");\n\n        uint256 endTime = block.timestamp + lastingMinutes * 60;\n\n        _tokensOnAuction[tokenId] = AuctionInfo(minimumPrice, endTime, address(0)); //      address(0) \n    }\n\n    //  ()\n    function bidOnAcution(uint256 tokenId) external payable {\n        uint256 lastBidPrice = _tokensOnAuction[tokenId].lastBidPrice;\n        uint256 endTime = _tokensOnAuction[tokenId].endTime;\n        address bider = _tokensOnAuction[tokenId].bider;\n        // {uint256 lastBidPrice, uint256 endTime, address bider} = _tokensOnAuction[tokenId];\n\n        require(block.timestamp < endTime, \"this acution ended\"); //   \n        require(Token.ownerOf(tokenId) != msg.sender, \"owner cannot bid on owns\"); //   \n        require(lastBidPrice > 0 , \"this token is not on auction\"); //  \n        require(msg.value > lastBidPrice, \"bid must be greater than last bid\"); //     \n        require((msg.value - lastBidPrice) % 0.001 ether == 0, \"\"); //  0.001 \n\n        if(bider != address(0)) { //   \n            _refundBid(tokenId ,bider ,lastBidPrice); //  \n        }\n\n        _tokensOnAuction[tokenId].lastBidPrice = msg.value;\n        _tokensOnAuction[tokenId].bider = msg.sender;\n\n        emit BidOnAuction(tokenId, msg.value , bider);\n    }\n\n    //   ()\n    function _refundBid(uint256 tokenId ,address to, uint256 bidPrice) private {\n        // payable(to).transfer(bidPrice);\n        (bool success, ) = to.call{value: bidPrice}(\"\");\n        require(success, \"refund failed\");\n\n        emit RefundBid(tokenId, to);\n    }   \n\n    //   (  )\n    function cancleFailedAuction(uint tokenId) external {\n        //   endTime  block.timestamp     \n        //      \n        //         \n\n        //   approve  ?\n\n        // uint256 lastBidPrice = _tokensOnAuction[tokenId].lastBidPrice;\n        // uint256 endTime = _tokensOnAuction[tokenId].endTime;\n        // address bider = _tokensOnAuction[tokenId].bider;\n\n        // require(endTime > block.timestamp, \"auction not ended yet\"); //  \n        // require(lastBidPrice > 0, \"acution already ended\"); //   \n    }\n\n    //  (NFT)  ()\n    //    \n    //    .\n    event ClaimMatchedAuction(uint256 tokenId, address caller);\n    function claimMatchedAuction(uint256 tokenId) external {\n        uint256 endTime = _tokensOnAuction[tokenId].endTime;\n        uint256 lastBidPrice = _tokensOnAuction[tokenId].lastBidPrice;\n        address bider = _tokensOnAuction[tokenId].bider;\n        address tokenOwner = Token.ownerOf(tokenId);\n\n        require(endTime < block.timestamp, \"auction not ended\");\n        require(lastBidPrice != 0, \"this token did not registered on auction\");\n        require(msg.sender == bider || msg.sender == tokenOwner , \"caller is not highest bider nor seller\");\n\n        //    \n        uint256 incomeAfterFee = lastBidPrice * (100 - saleFeeRate) / 100;\n        (bool success, ) = tokenOwner.call{value: incomeAfterFee}(\"\");\n        require(success, \"payment failed\");\n\n        //   \n        Token.safeTransferFrom(tokenOwner, msg.sender, tokenId); //    \n        _tokensOnAuction[tokenId].bider = address(0); \n        _tokensOnAuction[tokenId].lastBidPrice = 0;\n        // _tokensOnAuction[tokenId].endTime = 0; //  endTime   block.timestamp   \n\n        emit ClaimMatchedAuction(tokenId, msg.sender); //      \n    }\n\n    //    \n    function _countNotClaimedAuction() private view returns(uint256) {\n        uint256 count;\n\n        for(uint tokenId = 1; tokenId <= Token.totalSupply(); tokenId++) {\n            uint256 lastBidPrice = _tokensOnAuction[tokenId].lastBidPrice;\n            uint256 endTime = _tokensOnAuction[tokenId].endTime;\n            address bider = _tokensOnAuction[tokenId].bider;\n\n            if(lastBidPrice != 0 && bider != address(0) && endTime < block.timestamp) {\n                count ++;\n            } \n            //   bider lastBidPrice  default   .\n        }\n\n        return count;\n    }\n\n    //    \n    function notClaimedAuctionList() public view returns(uint256[] memory){\n        uint256[] memory tokensNotClaimedOnAuction = new uint256[](_countNotClaimedAuction()); //  \n        uint256 index = 0;\n\n        for(uint tokenId = 1; tokenId <= Token.totalSupply(); tokenId++) {\n            uint256 lastBidPrice = _tokensOnAuction[tokenId].lastBidPrice;\n            uint256 endTime = _tokensOnAuction[tokenId].endTime;\n            address bider = _tokensOnAuction[tokenId].bider;\n\n            if(lastBidPrice != 0 && bider != address(0) && endTime < block.timestamp) {\n                tokensNotClaimedOnAuction[index] = tokenId;\n                index ++;\n            } \n            //   bider lastBidPrice  default   .\n        }\n\n        return tokensNotClaimedOnAuction;\n    }\n\n\n    //  (  ) ( )\n    function _countOnBid(address owner) private view returns(uint256) {\n        uint256 count = 0;\n        uint256 countOnAuction = _countOnAuction();\n        uint256[] memory listOnAuction = onAuctionList();\n\n        for(uint i = 0; i < countOnAuction; i++) {\n            uint256 tokenId = listOnAuction[i];\n            if(_tokensOnAuction[tokenId].bider == owner) {\n                count ++;\n            } \n        }\n        return count;\n    }\n\n    //  (  )  ( )\n    function onBidList(address owner) external view returns(uint256[] memory){\n        uint256[] memory tokensOnBid = new uint256[](_countOnBid(owner)); //  \n        uint256 countOnAuction = _countOnAuction();\n        uint256[] memory listOnAuction = onAuctionList();\n        uint256 index = 0;\n\n        for(uint i = 0; i < countOnAuction; i++){\n            uint256 tokenId = listOnAuction[i];\n            if(_tokensOnAuction[tokenId].bider == owner){\n                tokensOnBid[index] = tokenId;\n                index ++;\n            }\n        }\n        return tokensOnBid;\n    }\n\n    //    \n    function _notClaimedMoney() private view returns(uint256) {\n        uint256[] memory tokensNotClaimedOnAuction = notClaimedAuctionList();\n        uint256 notClaimedMoney;\n\n        for (uint i = 0; i < tokensNotClaimedOnAuction.length; i++ ) {\n            uint256 tokenId = tokensNotClaimedOnAuction[i];\n            uint256 lastBidPrice = _tokensOnAuction[tokenId].lastBidPrice;\n            uint256 afterFee = lastBidPrice * (100 - saleFeeRate) / 100;\n            notClaimedMoney += afterFee;\n        }\n\n        return notClaimedMoney;\n    }\n\n    //  \n    function withdrawFees() external onlyOwner {\n        //              \n        uint256 notClaimedMoney = _notClaimedMoney();\n        uint256 balanceExceptNotClaimedMoney = address(this).balance - notClaimedMoney;\n\n        require(balanceExceptNotClaimedMoney > 0, \"balance without notClaimedMoney is zero\");\n\n        (bool success, ) = msg.sender.call{value: balanceExceptNotClaimedMoney}(\"\");\n        require(success, \"withdraw failed\");\n    }\n\n}",
  "sourcePath": "/Users/ssup/Desktop/BlockChain Academy/Project/NFT_TeamProject/blockChain/contracts/TestTrade.sol",
  "compiler": {
    "name": "solc",
    "version": "0.8.17+commit.8df45f5f.Emscripten.clang"
  },
  "schemaVersion": "3.4.11",
  "updatedAt": "2022-12-23T09:35:21.851Z",
  "networkType": "ethereum",
  "devdoc": {
    "kind": "dev",
    "methods": {
      "owner()": {
        "details": "Returns the address of the current owner."
      },
      "renounceOwnership()": {
        "details": "Leaves the contract without owner. It will not be possible to call `onlyOwner` functions anymore. Can only be called by the current owner. NOTE: Renouncing ownership will leave the contract without an owner, thereby removing any functionality that is only available to the owner."
      },
      "transferOwnership(address)": {
        "details": "Transfers ownership of the contract to a new account (`newOwner`). Can only be called by the current owner."
      }
    },
    "version": 1
  },
  "userdoc": {
    "kind": "user",
    "methods": {},
    "version": 1
  }
}