{
  "contractName": "TestToken",
  "abi": [
    {
      "inputs": [
        {
          "internalType": "uint256",
          "name": "maxBatchSize_",
          "type": "uint256"
        },
        {
          "internalType": "uint256",
          "name": "collectionSize_",
          "type": "uint256"
        }
      ],
      "stateMutability": "nonpayable",
      "type": "constructor"
    },
    {
      "anonymous": false,
      "inputs": [
        {
          "indexed": true,
          "internalType": "address",
          "name": "owner",
          "type": "address"
        },
        {
          "indexed": true,
          "internalType": "address",
          "name": "approved",
          "type": "address"
        },
        {
          "indexed": true,
          "internalType": "uint256",
          "name": "tokenId",
          "type": "uint256"
        }
      ],
      "name": "Approval",
      "type": "event"
    },
    {
      "anonymous": false,
      "inputs": [
        {
          "indexed": true,
          "internalType": "address",
          "name": "owner",
          "type": "address"
        },
        {
          "indexed": true,
          "internalType": "address",
          "name": "operator",
          "type": "address"
        },
        {
          "indexed": false,
          "internalType": "bool",
          "name": "approved",
          "type": "bool"
        }
      ],
      "name": "ApprovalForAll",
      "type": "event"
    },
    {
      "anonymous": false,
      "inputs": [
        {
          "indexed": false,
          "internalType": "address",
          "name": "minter",
          "type": "address"
        },
        {
          "indexed": false,
          "internalType": "uint256",
          "name": "quantity",
          "type": "uint256"
        }
      ],
      "name": "MintTestToken",
      "type": "event"
    },
    {
      "anonymous": false,
      "inputs": [
        {
          "indexed": true,
          "internalType": "address",
          "name": "previousOwner",
          "type": "address"
        },
        {
          "indexed": true,
          "internalType": "address",
          "name": "newOwner",
          "type": "address"
        }
      ],
      "name": "OwnershipTransferred",
      "type": "event"
    },
    {
      "anonymous": false,
      "inputs": [
        {
          "indexed": true,
          "internalType": "address",
          "name": "from",
          "type": "address"
        },
        {
          "indexed": true,
          "internalType": "address",
          "name": "to",
          "type": "address"
        },
        {
          "indexed": true,
          "internalType": "uint256",
          "name": "tokenId",
          "type": "uint256"
        }
      ],
      "name": "Transfer",
      "type": "event"
    },
    {
      "inputs": [],
      "name": "_owner",
      "outputs": [
        {
          "internalType": "address",
          "name": "",
          "type": "address"
        }
      ],
      "stateMutability": "view",
      "type": "function",
      "constant": true
    },
    {
      "inputs": [
        {
          "internalType": "address",
          "name": "to",
          "type": "address"
        },
        {
          "internalType": "uint256",
          "name": "tokenId",
          "type": "uint256"
        }
      ],
      "name": "approve",
      "outputs": [],
      "stateMutability": "nonpayable",
      "type": "function"
    },
    {
      "inputs": [
        {
          "internalType": "address",
          "name": "owner",
          "type": "address"
        }
      ],
      "name": "balanceOf",
      "outputs": [
        {
          "internalType": "uint256",
          "name": "",
          "type": "uint256"
        }
      ],
      "stateMutability": "view",
      "type": "function",
      "constant": true
    },
    {
      "inputs": [
        {
          "internalType": "uint256",
          "name": "tokenId",
          "type": "uint256"
        }
      ],
      "name": "getApproved",
      "outputs": [
        {
          "internalType": "address",
          "name": "",
          "type": "address"
        }
      ],
      "stateMutability": "view",
      "type": "function",
      "constant": true
    },
    {
      "inputs": [
        {
          "internalType": "address",
          "name": "owner",
          "type": "address"
        },
        {
          "internalType": "address",
          "name": "operator",
          "type": "address"
        }
      ],
      "name": "isApprovedForAll",
      "outputs": [
        {
          "internalType": "bool",
          "name": "",
          "type": "bool"
        }
      ],
      "stateMutability": "view",
      "type": "function",
      "constant": true
    },
    {
      "inputs": [],
      "name": "maxAmountPerMint",
      "outputs": [
        {
          "internalType": "uint256",
          "name": "",
          "type": "uint256"
        }
      ],
      "stateMutability": "view",
      "type": "function",
      "constant": true
    },
    {
      "inputs": [],
      "name": "mintPrice",
      "outputs": [
        {
          "internalType": "uint256",
          "name": "",
          "type": "uint256"
        }
      ],
      "stateMutability": "view",
      "type": "function",
      "constant": true
    },
    {
      "inputs": [],
      "name": "name",
      "outputs": [
        {
          "internalType": "string",
          "name": "",
          "type": "string"
        }
      ],
      "stateMutability": "view",
      "type": "function",
      "constant": true
    },
    {
      "inputs": [],
      "name": "nextOwnerToExplicitlySet",
      "outputs": [
        {
          "internalType": "uint256",
          "name": "",
          "type": "uint256"
        }
      ],
      "stateMutability": "view",
      "type": "function",
      "constant": true
    },
    {
      "inputs": [],
      "name": "owner",
      "outputs": [
        {
          "internalType": "address",
          "name": "",
          "type": "address"
        }
      ],
      "stateMutability": "view",
      "type": "function",
      "constant": true
    },
    {
      "inputs": [
        {
          "internalType": "uint256",
          "name": "tokenId",
          "type": "uint256"
        }
      ],
      "name": "ownerOf",
      "outputs": [
        {
          "internalType": "address",
          "name": "",
          "type": "address"
        }
      ],
      "stateMutability": "view",
      "type": "function",
      "constant": true
    },
    {
      "inputs": [],
      "name": "renounceOwnership",
      "outputs": [],
      "stateMutability": "nonpayable",
      "type": "function"
    },
    {
      "inputs": [
        {
          "internalType": "address",
          "name": "from",
          "type": "address"
        },
        {
          "internalType": "address",
          "name": "to",
          "type": "address"
        },
        {
          "internalType": "uint256",
          "name": "tokenId",
          "type": "uint256"
        }
      ],
      "name": "safeTransferFrom",
      "outputs": [],
      "stateMutability": "nonpayable",
      "type": "function"
    },
    {
      "inputs": [
        {
          "internalType": "address",
          "name": "from",
          "type": "address"
        },
        {
          "internalType": "address",
          "name": "to",
          "type": "address"
        },
        {
          "internalType": "uint256",
          "name": "tokenId",
          "type": "uint256"
        },
        {
          "internalType": "bytes",
          "name": "_data",
          "type": "bytes"
        }
      ],
      "name": "safeTransferFrom",
      "outputs": [],
      "stateMutability": "nonpayable",
      "type": "function"
    },
    {
      "inputs": [
        {
          "internalType": "address",
          "name": "operator",
          "type": "address"
        },
        {
          "internalType": "bool",
          "name": "approved",
          "type": "bool"
        }
      ],
      "name": "setApprovalForAll",
      "outputs": [],
      "stateMutability": "nonpayable",
      "type": "function"
    },
    {
      "inputs": [
        {
          "internalType": "bytes4",
          "name": "interfaceId",
          "type": "bytes4"
        }
      ],
      "name": "supportsInterface",
      "outputs": [
        {
          "internalType": "bool",
          "name": "",
          "type": "bool"
        }
      ],
      "stateMutability": "view",
      "type": "function",
      "constant": true
    },
    {
      "inputs": [],
      "name": "symbol",
      "outputs": [
        {
          "internalType": "string",
          "name": "",
          "type": "string"
        }
      ],
      "stateMutability": "view",
      "type": "function",
      "constant": true
    },
    {
      "inputs": [
        {
          "internalType": "uint256",
          "name": "index",
          "type": "uint256"
        }
      ],
      "name": "tokenByIndex",
      "outputs": [
        {
          "internalType": "uint256",
          "name": "",
          "type": "uint256"
        }
      ],
      "stateMutability": "view",
      "type": "function",
      "constant": true
    },
    {
      "inputs": [
        {
          "internalType": "address",
          "name": "owner",
          "type": "address"
        },
        {
          "internalType": "uint256",
          "name": "index",
          "type": "uint256"
        }
      ],
      "name": "tokenOfOwnerByIndex",
      "outputs": [
        {
          "internalType": "uint256",
          "name": "",
          "type": "uint256"
        }
      ],
      "stateMutability": "view",
      "type": "function",
      "constant": true
    },
    {
      "inputs": [
        {
          "internalType": "uint256",
          "name": "tokenId",
          "type": "uint256"
        }
      ],
      "name": "tokenURI",
      "outputs": [
        {
          "internalType": "string",
          "name": "",
          "type": "string"
        }
      ],
      "stateMutability": "view",
      "type": "function",
      "constant": true
    },
    {
      "inputs": [],
      "name": "totalSupply",
      "outputs": [
        {
          "internalType": "uint256",
          "name": "",
          "type": "uint256"
        }
      ],
      "stateMutability": "view",
      "type": "function",
      "constant": true
    },
    {
      "inputs": [
        {
          "internalType": "address",
          "name": "from",
          "type": "address"
        },
        {
          "internalType": "address",
          "name": "to",
          "type": "address"
        },
        {
          "internalType": "uint256",
          "name": "tokenId",
          "type": "uint256"
        }
      ],
      "name": "transferFrom",
      "outputs": [],
      "stateMutability": "nonpayable",
      "type": "function"
    },
    {
      "inputs": [
        {
          "internalType": "address",
          "name": "newOwner",
          "type": "address"
        }
      ],
      "name": "transferOwnership",
      "outputs": [],
      "stateMutability": "nonpayable",
      "type": "function"
    },
    {
      "inputs": [
        {
          "internalType": "uint256",
          "name": "price",
          "type": "uint256"
        }
      ],
      "name": "setMintOn",
      "outputs": [],
      "stateMutability": "nonpayable",
      "type": "function"
    },
    {
      "inputs": [],
      "name": "isMintOn",
      "outputs": [
        {
          "internalType": "bool",
          "name": "",
          "type": "bool"
        }
      ],
      "stateMutability": "view",
      "type": "function",
      "constant": true
    },
    {
      "inputs": [
        {
          "internalType": "uint256",
          "name": "quantity",
          "type": "uint256"
        }
      ],
      "name": "mintTestToken",
      "outputs": [],
      "stateMutability": "payable",
      "type": "function",
      "payable": true
    },
    {
      "inputs": [
        {
          "internalType": "string",
          "name": "baseURI",
          "type": "string"
        }
      ],
      "name": "sertBaseURI",
      "outputs": [],
      "stateMutability": "nonpayable",
      "type": "function"
    },
    {
      "inputs": [],
      "name": "withdrawAll",
      "outputs": [],
      "stateMutability": "nonpayable",
      "type": "function"
    }
  ],
  "bytecode": "0x60e06040526000805560006007556040518060400160405280601681526020017f68747470733a2f2f6c6f63616c686f73743a3430303000000000000000000000815250600b908162000053919062000539565b503480156200006157600080fd5b5060405162004d0838038062004d08833981810160405281019062000087919062000656565b6040518060400160405280600581526020017f417a756b690000000000000000000000000000000000000000000000000000008152506040518060400160405280600581526020017f415a554b490000000000000000000000000000000000000000000000000000008152508383600081116200013b576040517f08c379a0000000000000000000000000000000000000000000000000000000008152600401620001329062000724565b60405180910390fd5b6000821162000181576040517f08c379a00000000000000000000000000000000000000000000000000000000081526004016200017890620007bc565b60405180910390fd5b836001908162000192919062000539565b508260029081620001a4919062000539565b508160a08181525050806080818152505050505050620001d9620001cd620001f160201b60201c565b620001f960201b60201c565b60016009819055508160c081815250505050620007de565b600033905090565b6000600860009054906101000a900473ffffffffffffffffffffffffffffffffffffffff16905081600860006101000a81548173ffffffffffffffffffffffffffffffffffffffff021916908373ffffffffffffffffffffffffffffffffffffffff1602179055508173ffffffffffffffffffffffffffffffffffffffff168173ffffffffffffffffffffffffffffffffffffffff167f8be0079c531659141344cd1fd0a4f28419497f9722a3daafe3b4186f6b6457e060405160405180910390a35050565b600081519050919050565b7f4e487b7100000000000000000000000000000000000000000000000000000000600052604160045260246000fd5b7f4e487b7100000000000000000000000000000000000000000000000000000000600052602260045260246000fd5b600060028204905060018216806200034157607f821691505b602082108103620003575762000356620002f9565b5b50919050565b60008190508160005260206000209050919050565b60006020601f8301049050919050565b600082821b905092915050565b600060088302620003c17fffffffffffffffffffffffffffffffffffffffffffffffffffffffffffffffff8262000382565b620003cd868362000382565b95508019841693508086168417925050509392505050565b6000819050919050565b6000819050919050565b60006200041a620004146200040e84620003e5565b620003ef565b620003e5565b9050919050565b6000819050919050565b6200043683620003f9565b6200044e620004458262000421565b8484546200038f565b825550505050565b600090565b6200046562000456565b620004728184846200042b565b505050565b5b818110156200049a576200048e6000826200045b565b60018101905062000478565b5050565b601f821115620004e957620004b3816200035d565b620004be8462000372565b81016020851015620004ce578190505b620004e6620004dd8562000372565b83018262000477565b50505b505050565b600082821c905092915050565b60006200050e60001984600802620004ee565b1980831691505092915050565b6000620005298383620004fb565b9150826002028217905092915050565b6200054482620002bf565b67ffffffffffffffff81111562000560576200055f620002ca565b5b6200056c825462000328565b620005798282856200049e565b600060209050601f831160018114620005b157600084156200059c578287015190505b620005a885826200051b565b86555062000618565b601f198416620005c1866200035d565b60005b82811015620005eb57848901518255600182019150602085019450602081019050620005c4565b868310156200060b578489015162000607601f891682620004fb565b8355505b6001600288020188555050505b505050505050565b600080fd5b6200063081620003e5565b81146200063c57600080fd5b50565b600081519050620006508162000625565b92915050565b6000806040838503121562000670576200066f62000620565b5b600062000680858286016200063f565b925050602062000693858286016200063f565b9150509250929050565b600082825260208201905092915050565b7f455243373231413a20636f6c6c656374696f6e206d757374206861766520612060008201527f6e6f6e7a65726f20737570706c79000000000000000000000000000000000000602082015250565b60006200070c602e836200069d565b91506200071982620006ae565b604082019050919050565b600060208201905081810360008301526200073f81620006fd565b9050919050565b7f455243373231413a206d61782062617463682073697a65206d7573742062652060008201527f6e6f6e7a65726f00000000000000000000000000000000000000000000000000602082015250565b6000620007a46027836200069d565b9150620007b18262000746565b604082019050919050565b60006020820190508181036000830152620007d78162000795565b9050919050565b60805160a05160c0516144e56200082360003960008181610a4d0152610dbe015260008181611ccb01528181611cf401526123e801526000610e2101526144e56000f3fe6080604052600436106101b75760003560e01c806370a08231116100ec578063b2bdfa7b1161008a578063d7224ba011610064578063d7224ba0146105ff578063e985e9c51461062a578063f2fde38b14610667578063f31b1f8314610690576101b7565b8063b2bdfa7b1461056e578063b88d4fde14610599578063c87b56dd146105c2576101b7565b80638da5cb5b116100c65780638da5cb5b146104c657806395d89b41146104f1578063a22cb4651461051c578063aa7f90b014610545576101b7565b806370a082311461045b578063715018a614610498578063853828b6146104af576101b7565b80632f745c59116101595780636352211e116101335780636352211e146103ac5780636817c76c146103e95780636e060624146104145780636edfed2e1461043f576101b7565b80632f745c591461030957806342842e0e146103465780634f6ccce71461036f576101b7565b8063095ea7b311610195578063095ea7b31461026157806318160ddd1461028a57806323b872dd146102b557806327acc76d146102de576101b7565b806301ffc9a7146101bc57806306fdde03146101f9578063081812fc14610224575b600080fd5b3480156101c857600080fd5b506101e360048036038101906101de9190612a22565b6106b9565b6040516101f09190612a6a565b60405180910390f35b34801561020557600080fd5b5061020e610803565b60405161021b9190612b15565b60405180910390f35b34801561023057600080fd5b5061024b60048036038101906102469190612b6d565b610895565b6040516102589190612bdb565b60405180910390f35b34801561026d57600080fd5b5061028860048036038101906102839190612c22565b61091a565b005b34801561029657600080fd5b5061029f610a32565b6040516102ac9190612c71565b60405180910390f35b3480156102c157600080fd5b506102dc60048036038101906102d79190612c8c565b610a3b565b005b3480156102ea57600080fd5b506102f3610a4b565b6040516103009190612c71565b60405180910390f35b34801561031557600080fd5b50610330600480360381019061032b9190612c22565b610a6f565b60405161033d9190612c71565b60405180910390f35b34801561035257600080fd5b5061036d60048036038101906103689190612c8c565b610c6b565b005b34801561037b57600080fd5b5061039660048036038101906103919190612b6d565b610c8b565b6040516103a39190612c71565b60405180910390f35b3480156103b857600080fd5b506103d360048036038101906103ce9190612b6d565b610cde565b6040516103e09190612bdb565b60405180910390f35b3480156103f557600080fd5b506103fe610cf4565b60405161040b9190612c71565b60405180910390f35b34801561042057600080fd5b50610429610cfa565b6040516104369190612a6a565b60405180910390f35b61045960048036038101906104549190612b6d565b610d07565b005b34801561046757600080fd5b50610482600480360381019061047d9190612cdf565b610eda565b60405161048f9190612c71565b60405180910390f35b3480156104a457600080fd5b506104ad610fc2565b005b3480156104bb57600080fd5b506104c4610fd6565b005b3480156104d257600080fd5b506104db61109d565b6040516104e89190612bdb565b60405180910390f35b3480156104fd57600080fd5b506105066110c7565b6040516105139190612b15565b60405180910390f35b34801561052857600080fd5b50610543600480360381019061053e9190612d38565b611159565b005b34801561055157600080fd5b5061056c60048036038101906105679190612b6d565b6112d9565b005b34801561057a57600080fd5b5061058361132e565b6040516105909190612bdb565b60405180910390f35b3480156105a557600080fd5b506105c060048036038101906105bb9190612ead565b611354565b005b3480156105ce57600080fd5b506105e960048036038101906105e49190612b6d565b6113b0565b6040516105f69190612b15565b60405180910390f35b34801561060b57600080fd5b50610614611457565b6040516106219190612c71565b60405180910390f35b34801561063657600080fd5b50610651600480360381019061064c9190612f30565b61145d565b60405161065e9190612a6a565b60405180910390f35b34801561067357600080fd5b5061068e60048036038101906106899190612cdf565b6114f1565b005b34801561069c57600080fd5b506106b760048036038101906106b29190613011565b611574565b005b60007f80ac58cd000000000000000000000000000000000000000000000000000000007bffffffffffffffffffffffffffffffffffffffffffffffffffffffff1916827bffffffffffffffffffffffffffffffffffffffffffffffffffffffff1916148061078457507f5b5e139f000000000000000000000000000000000000000000000000000000007bffffffffffffffffffffffffffffffffffffffffffffffffffffffff1916827bffffffffffffffffffffffffffffffffffffffffffffffffffffffff1916145b806107ec57507f780e9d63000000000000000000000000000000000000000000000000000000007bffffffffffffffffffffffffffffffffffffffffffffffffffffffff1916827bffffffffffffffffffffffffffffffffffffffffffffffffffffffff1916145b806107fc57506107fb8261158f565b5b9050919050565b60606001805461081290613089565b80601f016020809104026020016040519081016040528092919081815260200182805461083e90613089565b801561088b5780601f106108605761010080835404028352916020019161088b565b820191906000526020600020905b81548152906001019060200180831161086e57829003601f168201915b5050505050905090565b60006108a0826115f9565b6108df576040517f08c379a00000000000000000000000000000000000000000000000000000000081526004016108d69061312c565b60405180910390fd5b6005600083815260200190815260200160002060009054906101000a900473ffffffffffffffffffffffffffffffffffffffff169050919050565b600061092582610cde565b90508073ffffffffffffffffffffffffffffffffffffffff168373ffffffffffffffffffffffffffffffffffffffff1603610995576040517f08c379a000000000000000000000000000000000000000000000000000000000815260040161098c906131be565b60405180910390fd5b8073ffffffffffffffffffffffffffffffffffffffff166109b4611606565b73ffffffffffffffffffffffffffffffffffffffff1614806109e357506109e2816109dd611606565b61145d565b5b610a22576040517f08c379a0000000000000000000000000000000000000000000000000000000008152600401610a1990613250565b60405180910390fd5b610a2d83838361160e565b505050565b60008054905090565b610a468383836116c0565b505050565b7f000000000000000000000000000000000000000000000000000000000000000081565b6000610a7a83610eda565b8210610abb576040517f08c379a0000000000000000000000000000000000000000000000000000000008152600401610ab2906132e2565b60405180910390fd5b6000610ac5610a32565b905060008060005b83811015610c29576000600360008381526020019081526020016000206040518060400160405290816000820160009054906101000a900473ffffffffffffffffffffffffffffffffffffffff1673ffffffffffffffffffffffffffffffffffffffff1673ffffffffffffffffffffffffffffffffffffffff1681526020016000820160149054906101000a900467ffffffffffffffff1667ffffffffffffffff1667ffffffffffffffff16815250509050600073ffffffffffffffffffffffffffffffffffffffff16816000015173ffffffffffffffffffffffffffffffffffffffff1614610bbf57806000015192505b8773ffffffffffffffffffffffffffffffffffffffff168373ffffffffffffffffffffffffffffffffffffffff1603610c1557868403610c06578195505050505050610c65565b8380610c1190613331565b9450505b508080610c2190613331565b915050610acd565b506040517f08c379a0000000000000000000000000000000000000000000000000000000008152600401610c5c906133eb565b60405180910390fd5b92915050565b610c8683838360405180602001604052806000815250611354565b505050565b6000610c95610a32565b8210610cd6576040517f08c379a0000000000000000000000000000000000000000000000000000000008152600401610ccd9061347d565b60405180910390fd5b819050919050565b6000610ce982611c77565b600001519050919050565b600a5481565b600080600a541415905090565b3373ffffffffffffffffffffffffffffffffffffffff163273ffffffffffffffffffffffffffffffffffffffff1614610d75576040517f08c379a0000000000000000000000000000000000000000000000000000000008152600401610d6c906134e9565b60405180910390fd5b610d7d610cfa565b610dbc576040517f08c379a0000000000000000000000000000000000000000000000000000000008152600401610db390613555565b60405180910390fd5b7f0000000000000000000000000000000000000000000000000000000000000000811115610e1f576040517f08c379a0000000000000000000000000000000000000000000000000000000008152600401610e16906135c1565b60405180910390fd5b7f000000000000000000000000000000000000000000000000000000000000000081610e49610a32565b610e5391906135e1565b1115610e94576040517f08c379a0000000000000000000000000000000000000000000000000000000008152600401610e8b90613661565b60405180910390fd5b610e9e3382611e7a565b7f3c8fca9ef9ada24a32d11a44c95a6012710ec579e803d3bed4dfd9b0e60e12a93382604051610ecf929190613681565b60405180910390a150565b60008073ffffffffffffffffffffffffffffffffffffffff168273ffffffffffffffffffffffffffffffffffffffff1603610f4a576040517f08c379a0000000000000000000000000000000000000000000000000000000008152600401610f419061371c565b60405180910390fd5b600460008373ffffffffffffffffffffffffffffffffffffffff1673ffffffffffffffffffffffffffffffffffffffff16815260200190815260200160002060000160009054906101000a90046fffffffffffffffffffffffffffffffff166fffffffffffffffffffffffffffffffff169050919050565b610fca611e98565b610fd46000611f16565b565b610fde611e98565b610fe6611fdc565b60003373ffffffffffffffffffffffffffffffffffffffff164760405161100c9061376d565b60006040518083038185875af1925050503d8060008114611049576040519150601f19603f3d011682016040523d82523d6000602084013e61104e565b606091505b5050905080611092576040517f08c379a0000000000000000000000000000000000000000000000000000000008152600401611089906137ce565b60405180910390fd5b5061109b61202b565b565b6000600860009054906101000a900473ffffffffffffffffffffffffffffffffffffffff16905090565b6060600280546110d690613089565b80601f016020809104026020016040519081016040528092919081815260200182805461110290613089565b801561114f5780601f106111245761010080835404028352916020019161114f565b820191906000526020600020905b81548152906001019060200180831161113257829003601f168201915b5050505050905090565b611161611606565b73ffffffffffffffffffffffffffffffffffffffff168273ffffffffffffffffffffffffffffffffffffffff16036111ce576040517f08c379a00000000000000000000000000000000000000000000000000000000081526004016111c59061383a565b60405180910390fd5b80600660006111db611606565b73ffffffffffffffffffffffffffffffffffffffff1673ffffffffffffffffffffffffffffffffffffffff16815260200190815260200160002060008473ffffffffffffffffffffffffffffffffffffffff1673ffffffffffffffffffffffffffffffffffffffff16815260200190815260200160002060006101000a81548160ff0219169083151502179055508173ffffffffffffffffffffffffffffffffffffffff16611288611606565b73ffffffffffffffffffffffffffffffffffffffff167f17307eab39ab6107e8899845ad3d59bd9653f200f220920489ca2b5937696c31836040516112cd9190612a6a565b60405180910390a35050565b6112e1611e98565b60008111611324576040517f08c379a000000000000000000000000000000000000000000000000000000000815260040161131b906138a6565b60405180910390fd5b80600a8190555050565b600860009054906101000a900473ffffffffffffffffffffffffffffffffffffffff1681565b61135f8484846116c0565b61136b84848484612035565b6113aa576040517f08c379a00000000000000000000000000000000000000000000000000000000081526004016113a190613938565b60405180910390fd5b50505050565b60606113bb826115f9565b6113fa576040517f08c379a00000000000000000000000000000000000000000000000000000000081526004016113f1906139ca565b60405180910390fd5b60006114046121bc565b90506000815111611424576040518060200160405280600081525061144f565b8061142e8461224e565b60405160200161143f929190613a26565b6040516020818303038152906040525b915050919050565b60075481565b6000600660008473ffffffffffffffffffffffffffffffffffffffff1673ffffffffffffffffffffffffffffffffffffffff16815260200190815260200160002060008373ffffffffffffffffffffffffffffffffffffffff1673ffffffffffffffffffffffffffffffffffffffff16815260200190815260200160002060009054906101000a900460ff16905092915050565b6114f9611e98565b600073ffffffffffffffffffffffffffffffffffffffff168173ffffffffffffffffffffffffffffffffffffffff1603611568576040517f08c379a000000000000000000000000000000000000000000000000000000000815260040161155f90613abc565b60405180910390fd5b61157181611f16565b50565b61157c611e98565b80600b908161158b9190613c88565b5050565b60007f01ffc9a7000000000000000000000000000000000000000000000000000000007bffffffffffffffffffffffffffffffffffffffffffffffffffffffff1916827bffffffffffffffffffffffffffffffffffffffffffffffffffffffff1916149050919050565b6000805482109050919050565b600033905090565b826005600084815260200190815260200160002060006101000a81548173ffffffffffffffffffffffffffffffffffffffff021916908373ffffffffffffffffffffffffffffffffffffffff160217905550818373ffffffffffffffffffffffffffffffffffffffff168273ffffffffffffffffffffffffffffffffffffffff167f8c5be1e5ebec7d5bd14f71427d1e84f3dd0314c0f7b2291e5b200ac8c7c3b92560405160405180910390a4505050565b60006116cb82611c77565b90506000816000015173ffffffffffffffffffffffffffffffffffffffff166116f2611606565b73ffffffffffffffffffffffffffffffffffffffff16148061174e5750611717611606565b73ffffffffffffffffffffffffffffffffffffffff1661173684610895565b73ffffffffffffffffffffffffffffffffffffffff16145b8061176a57506117698260000151611764611606565b61145d565b5b9050806117ac576040517f08c379a00000000000000000000000000000000000000000000000000000000081526004016117a390613dcc565b60405180910390fd5b8473ffffffffffffffffffffffffffffffffffffffff16826000015173ffffffffffffffffffffffffffffffffffffffff161461181e576040517f08c379a000000000000000000000000000000000000000000000000000000000815260040161181590613e5e565b60405180910390fd5b600073ffffffffffffffffffffffffffffffffffffffff168473ffffffffffffffffffffffffffffffffffffffff160361188d576040517f08c379a000000000000000000000000000000000000000000000000000000000815260040161188490613ef0565b60405180910390fd5b61189a858585600161231c565b6118aa600084846000015161160e565b6001600460008773ffffffffffffffffffffffffffffffffffffffff1673ffffffffffffffffffffffffffffffffffffffff16815260200190815260200160002060000160008282829054906101000a90046fffffffffffffffffffffffffffffffff166119189190613f2c565b92506101000a8154816fffffffffffffffffffffffffffffffff02191690836fffffffffffffffffffffffffffffffff1602179055506001600460008673ffffffffffffffffffffffffffffffffffffffff1673ffffffffffffffffffffffffffffffffffffffff16815260200190815260200160002060000160008282829054906101000a90046fffffffffffffffffffffffffffffffff166119bc9190613f70565b92506101000a8154816fffffffffffffffffffffffffffffffff02191690836fffffffffffffffffffffffffffffffff16021790555060405180604001604052808573ffffffffffffffffffffffffffffffffffffffff1681526020014267ffffffffffffffff168152506003600085815260200190815260200160002060008201518160000160006101000a81548173ffffffffffffffffffffffffffffffffffffffff021916908373ffffffffffffffffffffffffffffffffffffffff16021790555060208201518160000160146101000a81548167ffffffffffffffff021916908367ffffffffffffffff1602179055509050506000600184611ac291906135e1565b9050600073ffffffffffffffffffffffffffffffffffffffff166003600083815260200190815260200160002060000160009054906101000a900473ffffffffffffffffffffffffffffffffffffffff1673ffffffffffffffffffffffffffffffffffffffff1603611c0757611b37816115f9565b15611c06576040518060400160405280846000015173ffffffffffffffffffffffffffffffffffffffff168152602001846020015167ffffffffffffffff168152506003600083815260200190815260200160002060008201518160000160006101000a81548173ffffffffffffffffffffffffffffffffffffffff021916908373ffffffffffffffffffffffffffffffffffffffff16021790555060208201518160000160146101000a81548167ffffffffffffffff021916908367ffffffffffffffff1602179055509050505b5b838573ffffffffffffffffffffffffffffffffffffffff168773ffffffffffffffffffffffffffffffffffffffff167fddf252ad1be2c89b69c2b068fc378daa952ba7f163c4a11628f55a4df523b3ef60405160405180910390a4611c6f8686866001612322565b505050505050565b611c7f61297c565b611c88826115f9565b611cc7576040517f08c379a0000000000000000000000000000000000000000000000000000000008152600401611cbe90614026565b60405180910390fd5b60007f00000000000000000000000000000000000000000000000000000000000000008310611d2b5760017f000000000000000000000000000000000000000000000000000000000000000084611d1e9190614046565b611d2891906135e1565b90505b60008390505b818110611e39576000600360008381526020019081526020016000206040518060400160405290816000820160009054906101000a900473ffffffffffffffffffffffffffffffffffffffff1673ffffffffffffffffffffffffffffffffffffffff1673ffffffffffffffffffffffffffffffffffffffff1681526020016000820160149054906101000a900467ffffffffffffffff1667ffffffffffffffff1667ffffffffffffffff16815250509050600073ffffffffffffffffffffffffffffffffffffffff16816000015173ffffffffffffffffffffffffffffffffffffffff1614611e2557809350505050611e75565b508080611e319061407a565b915050611d31565b506040517f08c379a0000000000000000000000000000000000000000000000000000000008152600401611e6c90614115565b60405180910390fd5b919050565b611e94828260405180602001604052806000815250612328565b5050565b611ea0611606565b73ffffffffffffffffffffffffffffffffffffffff16611ebe61109d565b73ffffffffffffffffffffffffffffffffffffffff1614611f14576040517f08c379a0000000000000000000000000000000000000000000000000000000008152600401611f0b90614181565b60405180910390fd5b565b6000600860009054906101000a900473ffffffffffffffffffffffffffffffffffffffff16905081600860006101000a81548173ffffffffffffffffffffffffffffffffffffffff021916908373ffffffffffffffffffffffffffffffffffffffff1602179055508173ffffffffffffffffffffffffffffffffffffffff168173ffffffffffffffffffffffffffffffffffffffff167f8be0079c531659141344cd1fd0a4f28419497f9722a3daafe3b4186f6b6457e060405160405180910390a35050565b600260095403612021576040517f08c379a0000000000000000000000000000000000000000000000000000000008152600401612018906141ed565b60405180910390fd5b6002600981905550565b6001600981905550565b60006120568473ffffffffffffffffffffffffffffffffffffffff16612806565b156121af578373ffffffffffffffffffffffffffffffffffffffff1663150b7a0261207f611606565b8786866040518563ffffffff1660e01b81526004016120a19493929190614262565b6020604051808303816000875af19250505080156120dd57506040513d601f19601f820116820180604052508101906120da91906142c3565b60015b61215f573d806000811461210d576040519150601f19603f3d011682016040523d82523d6000602084013e612112565b606091505b506000815103612157576040517f08c379a000000000000000000000000000000000000000000000000000000000815260040161214e90613938565b60405180910390fd5b805181602001fd5b63150b7a0260e01b7bffffffffffffffffffffffffffffffffffffffffffffffffffffffff1916817bffffffffffffffffffffffffffffffffffffffffffffffffffffffff1916149150506121b4565b600190505b949350505050565b6060600b80546121cb90613089565b80601f01602080910402602001604051908101604052809291908181526020018280546121f790613089565b80156122445780601f1061221957610100808354040283529160200191612244565b820191906000526020600020905b81548152906001019060200180831161222757829003601f168201915b5050505050905090565b60606000600161225d84612829565b01905060008167ffffffffffffffff81111561227c5761227b612d82565b5b6040519080825280601f01601f1916602001820160405280156122ae5781602001600182028036833780820191505090505b509050600082602001820190505b600115612311578080600190039150507f3031323334353637383961626364656600000000000000000000000000000000600a86061a8153600a8581612305576123046142f0565b5b049450600085036122bc575b819350505050919050565b50505050565b50505050565b600080549050600073ffffffffffffffffffffffffffffffffffffffff168473ffffffffffffffffffffffffffffffffffffffff160361239d576040517f08c379a000000000000000000000000000000000000000000000000000000000815260040161239490614391565b60405180910390fd5b6123a6816115f9565b156123e6576040517f08c379a00000000000000000000000000000000000000000000000000000000081526004016123dd906143fd565b60405180910390fd5b7f0000000000000000000000000000000000000000000000000000000000000000831115612449576040517f08c379a00000000000000000000000000000000000000000000000000000000081526004016124409061448f565b60405180910390fd5b612456600085838661231c565b6000600460008673ffffffffffffffffffffffffffffffffffffffff1673ffffffffffffffffffffffffffffffffffffffff1681526020019081526020016000206040518060400160405290816000820160009054906101000a90046fffffffffffffffffffffffffffffffff166fffffffffffffffffffffffffffffffff166fffffffffffffffffffffffffffffffff1681526020016000820160109054906101000a90046fffffffffffffffffffffffffffffffff166fffffffffffffffffffffffffffffffff166fffffffffffffffffffffffffffffffff1681525050905060405180604001604052808583600001516125539190613f70565b6fffffffffffffffffffffffffffffffff16815260200185836020015161257a9190613f70565b6fffffffffffffffffffffffffffffffff16815250600460008773ffffffffffffffffffffffffffffffffffffffff1673ffffffffffffffffffffffffffffffffffffffff16815260200190815260200160002060008201518160000160006101000a8154816fffffffffffffffffffffffffffffffff02191690836fffffffffffffffffffffffffffffffff16021790555060208201518160000160106101000a8154816fffffffffffffffffffffffffffffffff02191690836fffffffffffffffffffffffffffffffff16021790555090505060405180604001604052808673ffffffffffffffffffffffffffffffffffffffff1681526020014267ffffffffffffffff168152506003600084815260200190815260200160002060008201518160000160006101000a81548173ffffffffffffffffffffffffffffffffffffffff021916908373ffffffffffffffffffffffffffffffffffffffff16021790555060208201518160000160146101000a81548167ffffffffffffffff021916908367ffffffffffffffff160217905550905050600082905060005b858110156127e957818773ffffffffffffffffffffffffffffffffffffffff16600073ffffffffffffffffffffffffffffffffffffffff167fddf252ad1be2c89b69c2b068fc378daa952ba7f163c4a11628f55a4df523b3ef60405160405180910390a46127896000888488612035565b6127c8576040517f08c379a00000000000000000000000000000000000000000000000000000000081526004016127bf90613938565b60405180910390fd5b81806127d390613331565b92505080806127e190613331565b915050612718565b50806000819055506127fe6000878588612322565b505050505050565b6000808273ffffffffffffffffffffffffffffffffffffffff163b119050919050565b600080600090507a184f03e93ff9f4daa797ed6e38ed64bf6a1f0100000000000000008310612887577a184f03e93ff9f4daa797ed6e38ed64bf6a1f010000000000000000838161287d5761287c6142f0565b5b0492506040810190505b6d04ee2d6d415b85acef810000000083106128c4576d04ee2d6d415b85acef810000000083816128ba576128b96142f0565b5b0492506020810190505b662386f26fc1000083106128f357662386f26fc1000083816128e9576128e86142f0565b5b0492506010810190505b6305f5e100831061291c576305f5e1008381612912576129116142f0565b5b0492506008810190505b6127108310612941576127108381612937576129366142f0565b5b0492506004810190505b60648310612964576064838161295a576129596142f0565b5b0492506002810190505b600a8310612973576001810190505b80915050919050565b6040518060400160405280600073ffffffffffffffffffffffffffffffffffffffff168152602001600067ffffffffffffffff1681525090565b6000604051905090565b600080fd5b600080fd5b60007fffffffff0000000000000000000000000000000000000000000000000000000082169050919050565b6129ff816129ca565b8114612a0a57600080fd5b50565b600081359050612a1c816129f6565b92915050565b600060208284031215612a3857612a376129c0565b5b6000612a4684828501612a0d565b91505092915050565b60008115159050919050565b612a6481612a4f565b82525050565b6000602082019050612a7f6000830184612a5b565b92915050565b600081519050919050565b600082825260208201905092915050565b60005b83811015612abf578082015181840152602081019050612aa4565b60008484015250505050565b6000601f19601f8301169050919050565b6000612ae782612a85565b612af18185612a90565b9350612b01818560208601612aa1565b612b0a81612acb565b840191505092915050565b60006020820190508181036000830152612b2f8184612adc565b905092915050565b6000819050919050565b612b4a81612b37565b8114612b5557600080fd5b50565b600081359050612b6781612b41565b92915050565b600060208284031215612b8357612b826129c0565b5b6000612b9184828501612b58565b91505092915050565b600073ffffffffffffffffffffffffffffffffffffffff82169050919050565b6000612bc582612b9a565b9050919050565b612bd581612bba565b82525050565b6000602082019050612bf06000830184612bcc565b92915050565b612bff81612bba565b8114612c0a57600080fd5b50565b600081359050612c1c81612bf6565b92915050565b60008060408385031215612c3957612c386129c0565b5b6000612c4785828601612c0d565b9250506020612c5885828601612b58565b9150509250929050565b612c6b81612b37565b82525050565b6000602082019050612c866000830184612c62565b92915050565b600080600060608486031215612ca557612ca46129c0565b5b6000612cb386828701612c0d565b9350506020612cc486828701612c0d565b9250506040612cd586828701612b58565b9150509250925092565b600060208284031215612cf557612cf46129c0565b5b6000612d0384828501612c0d565b91505092915050565b612d1581612a4f565b8114612d2057600080fd5b50565b600081359050612d3281612d0c565b92915050565b60008060408385031215612d4f57612d4e6129c0565b5b6000612d5d85828601612c0d565b9250506020612d6e85828601612d23565b9150509250929050565b600080fd5b600080fd5b7f4e487b7100000000000000000000000000000000000000000000000000000000600052604160045260246000fd5b612dba82612acb565b810181811067ffffffffffffffff82111715612dd957612dd8612d82565b5b80604052505050565b6000612dec6129b6565b9050612df88282612db1565b919050565b600067ffffffffffffffff821115612e1857612e17612d82565b5b612e2182612acb565b9050602081019050919050565b82818337600083830152505050565b6000612e50612e4b84612dfd565b612de2565b905082815260208101848484011115612e6c57612e6b612d7d565b5b612e77848285612e2e565b509392505050565b600082601f830112612e9457612e93612d78565b5b8135612ea4848260208601612e3d565b91505092915050565b60008060008060808587031215612ec757612ec66129c0565b5b6000612ed587828801612c0d565b9450506020612ee687828801612c0d565b9350506040612ef787828801612b58565b925050606085013567ffffffffffffffff811115612f1857612f176129c5565b5b612f2487828801612e7f565b91505092959194509250565b60008060408385031215612f4757612f466129c0565b5b6000612f5585828601612c0d565b9250506020612f6685828601612c0d565b9150509250929050565b600067ffffffffffffffff821115612f8b57612f8a612d82565b5b612f9482612acb565b9050602081019050919050565b6000612fb4612faf84612f70565b612de2565b905082815260208101848484011115612fd057612fcf612d7d565b5b612fdb848285612e2e565b509392505050565b600082601f830112612ff857612ff7612d78565b5b8135613008848260208601612fa1565b91505092915050565b600060208284031215613027576130266129c0565b5b600082013567ffffffffffffffff811115613045576130446129c5565b5b61305184828501612fe3565b91505092915050565b7f4e487b7100000000000000000000000000000000000000000000000000000000600052602260045260246000fd5b600060028204905060018216806130a157607f821691505b6020821081036130b4576130b361305a565b5b50919050565b7f455243373231413a20617070726f76656420717565727920666f72206e6f6e6560008201527f78697374656e7420746f6b656e00000000000000000000000000000000000000602082015250565b6000613116602d83612a90565b9150613121826130ba565b604082019050919050565b6000602082019050818103600083015261314581613109565b9050919050565b7f455243373231413a20617070726f76616c20746f2063757272656e74206f776e60008201527f6572000000000000000000000000000000000000000000000000000000000000602082015250565b60006131a8602283612a90565b91506131b38261314c565b604082019050919050565b600060208201905081810360008301526131d78161319b565b9050919050565b7f455243373231413a20617070726f76652063616c6c6572206973206e6f74206f60008201527f776e6572206e6f7220617070726f76656420666f7220616c6c00000000000000602082015250565b600061323a603983612a90565b9150613245826131de565b604082019050919050565b600060208201905081810360008301526132698161322d565b9050919050565b7f455243373231413a206f776e657220696e646578206f7574206f6620626f756e60008201527f6473000000000000000000000000000000000000000000000000000000000000602082015250565b60006132cc602283612a90565b91506132d782613270565b604082019050919050565b600060208201905081810360008301526132fb816132bf565b9050919050565b7f4e487b7100000000000000000000000000000000000000000000000000000000600052601160045260246000fd5b600061333c82612b37565b91507fffffffffffffffffffffffffffffffffffffffffffffffffffffffffffffffff820361336e5761336d613302565b5b600182019050919050565b7f455243373231413a20756e61626c6520746f2067657420746f6b656e206f662060008201527f6f776e657220627920696e646578000000000000000000000000000000000000602082015250565b60006133d5602e83612a90565b91506133e082613379565b604082019050919050565b60006020820190508181036000830152613404816133c8565b9050919050565b7f455243373231413a20676c6f62616c20696e646578206f7574206f6620626f7560008201527f6e64730000000000000000000000000000000000000000000000000000000000602082015250565b6000613467602383612a90565b91506134728261340b565b604082019050919050565b600060208201905081810360008301526134968161345a565b9050919050565b7f5468652063616c6c657220697320616e6f7468657220636f6e74726163740000600082015250565b60006134d3601e83612a90565b91506134de8261349d565b602082019050919050565b60006020820190508181036000830152613502816134c6565b9050919050565b7f73616c6520686173206e6f7420626567756e2079657400000000000000000000600082015250565b600061353f601683612a90565b915061354a82613509565b602082019050919050565b6000602082019050818103600083015261356e81613532565b9050919050565b7f63616e206e6f74206d696e74207468697320616d6f756e74206174206f6e6365600082015250565b60006135ab602083612a90565b91506135b682613575565b602082019050919050565b600060208201905081810360008301526135da8161359e565b9050919050565b60006135ec82612b37565b91506135f783612b37565b925082820190508082111561360f5761360e613302565b5b92915050565b7f6e6f7420656e6f7567682072656d61696e696720616d6f756e74730000000000600082015250565b600061364b601b83612a90565b915061365682613615565b602082019050919050565b6000602082019050818103600083015261367a8161363e565b9050919050565b60006040820190506136966000830185612bcc565b6136a36020830184612c62565b9392505050565b7f455243373231413a2062616c616e636520717565727920666f7220746865207a60008201527f65726f2061646472657373000000000000000000000000000000000000000000602082015250565b6000613706602b83612a90565b9150613711826136aa565b604082019050919050565b60006020820190508181036000830152613735816136f9565b9050919050565b600081905092915050565b50565b600061375760008361373c565b915061376282613747565b600082019050919050565b60006137788261374a565b9150819050919050565b7f57697468647261776c204661696c640000000000000000000000000000000000600082015250565b60006137b8600f83612a90565b91506137c382613782565b602082019050919050565b600060208201905081810360008301526137e7816137ab565b9050919050565b7f455243373231413a20617070726f766520746f2063616c6c6572000000000000600082015250565b6000613824601a83612a90565b915061382f826137ee565b602082019050919050565b6000602082019050818103600083015261385381613817565b9050919050565b7f73616c65207072696365206d7573742067726561746572207468616e20300000600082015250565b6000613890601e83612a90565b915061389b8261385a565b602082019050919050565b600060208201905081810360008301526138bf81613883565b9050919050565b7f455243373231413a207472616e7366657220746f206e6f6e204552433732315260008201527f6563656976657220696d706c656d656e74657200000000000000000000000000602082015250565b6000613922603383612a90565b915061392d826138c6565b604082019050919050565b6000602082019050818103600083015261395181613915565b9050919050565b7f4552433732314d657461646174613a2055524920717565727920666f72206e6f60008201527f6e6578697374656e7420746f6b656e0000000000000000000000000000000000602082015250565b60006139b4602f83612a90565b91506139bf82613958565b604082019050919050565b600060208201905081810360008301526139e3816139a7565b9050919050565b600081905092915050565b6000613a0082612a85565b613a0a81856139ea565b9350613a1a818560208601612aa1565b80840191505092915050565b6000613a3282856139f5565b9150613a3e82846139f5565b91508190509392505050565b7f4f776e61626c653a206e6577206f776e657220697320746865207a65726f206160008201527f6464726573730000000000000000000000000000000000000000000000000000602082015250565b6000613aa6602683612a90565b9150613ab182613a4a565b604082019050919050565b60006020820190508181036000830152613ad581613a99565b9050919050565b60008190508160005260206000209050919050565b60006020601f8301049050919050565b600082821b905092915050565b600060088302613b3e7fffffffffffffffffffffffffffffffffffffffffffffffffffffffffffffffff82613b01565b613b488683613b01565b95508019841693508086168417925050509392505050565b6000819050919050565b6000613b85613b80613b7b84612b37565b613b60565b612b37565b9050919050565b6000819050919050565b613b9f83613b6a565b613bb3613bab82613b8c565b848454613b0e565b825550505050565b600090565b613bc8613bbb565b613bd3818484613b96565b505050565b5b81811015613bf757613bec600082613bc0565b600181019050613bd9565b5050565b601f821115613c3c57613c0d81613adc565b613c1684613af1565b81016020851015613c25578190505b613c39613c3185613af1565b830182613bd8565b50505b505050565b600082821c905092915050565b6000613c5f60001984600802613c41565b1980831691505092915050565b6000613c788383613c4e565b9150826002028217905092915050565b613c9182612a85565b67ffffffffffffffff811115613caa57613ca9612d82565b5b613cb48254613089565b613cbf828285613bfb565b600060209050601f831160018114613cf25760008415613ce0578287015190505b613cea8582613c6c565b865550613d52565b601f198416613d0086613adc565b60005b82811015613d2857848901518255600182019150602085019450602081019050613d03565b86831015613d455784890151613d41601f891682613c4e565b8355505b6001600288020188555050505b505050505050565b7f455243373231413a207472616e736665722063616c6c6572206973206e6f742060008201527f6f776e6572206e6f7220617070726f7665640000000000000000000000000000602082015250565b6000613db6603283612a90565b9150613dc182613d5a565b604082019050919050565b60006020820190508181036000830152613de581613da9565b9050919050565b7f455243373231413a207472616e736665722066726f6d20696e636f727265637460008201527f206f776e65720000000000000000000000000000000000000000000000000000602082015250565b6000613e48602683612a90565b9150613e5382613dec565b604082019050919050565b60006020820190508181036000830152613e7781613e3b565b9050919050565b7f455243373231413a207472616e7366657220746f20746865207a65726f20616460008201527f6472657373000000000000000000000000000000000000000000000000000000602082015250565b6000613eda602583612a90565b9150613ee582613e7e565b604082019050919050565b60006020820190508181036000830152613f0981613ecd565b9050919050565b60006fffffffffffffffffffffffffffffffff82169050919050565b6000613f3782613f10565b9150613f4283613f10565b925082820390506fffffffffffffffffffffffffffffffff811115613f6a57613f69613302565b5b92915050565b6000613f7b82613f10565b9150613f8683613f10565b925082820190506fffffffffffffffffffffffffffffffff811115613fae57613fad613302565b5b92915050565b7f455243373231413a206f776e657220717565727920666f72206e6f6e6578697360008201527f74656e7420746f6b656e00000000000000000000000000000000000000000000602082015250565b6000614010602a83612a90565b915061401b82613fb4565b604082019050919050565b6000602082019050818103600083015261403f81614003565b9050919050565b600061405182612b37565b915061405c83612b37565b925082820390508181111561407457614073613302565b5b92915050565b600061408582612b37565b91506000820361409857614097613302565b5b600182039050919050565b7f455243373231413a20756e61626c6520746f2064657465726d696e652074686560008201527f206f776e6572206f6620746f6b656e0000000000000000000000000000000000602082015250565b60006140ff602f83612a90565b915061410a826140a3565b604082019050919050565b6000602082019050818103600083015261412e816140f2565b9050919050565b7f4f776e61626c653a2063616c6c6572206973206e6f7420746865206f776e6572600082015250565b600061416b602083612a90565b915061417682614135565b602082019050919050565b6000602082019050818103600083015261419a8161415e565b9050919050565b7f5265656e7472616e637947756172643a207265656e7472616e742063616c6c00600082015250565b60006141d7601f83612a90565b91506141e2826141a1565b602082019050919050565b60006020820190508181036000830152614206816141ca565b9050919050565b600081519050919050565b600082825260208201905092915050565b60006142348261420d565b61423e8185614218565b935061424e818560208601612aa1565b61425781612acb565b840191505092915050565b60006080820190506142776000830187612bcc565b6142846020830186612bcc565b6142916040830185612c62565b81810360608301526142a38184614229565b905095945050505050565b6000815190506142bd816129f6565b92915050565b6000602082840312156142d9576142d86129c0565b5b60006142e7848285016142ae565b91505092915050565b7f4e487b7100000000000000000000000000000000000000000000000000000000600052601260045260246000fd5b7f455243373231413a206d696e7420746f20746865207a65726f2061646472657360008201527f7300000000000000000000000000000000000000000000000000000000000000602082015250565b600061437b602183612a90565b91506143868261431f565b604082019050919050565b600060208201905081810360008301526143aa8161436e565b9050919050565b7f455243373231413a20746f6b656e20616c7265616479206d696e746564000000600082015250565b60006143e7601d83612a90565b91506143f2826143b1565b602082019050919050565b60006020820190508181036000830152614416816143da565b9050919050565b7f455243373231413a207175616e7469747920746f206d696e7420746f6f20686960008201527f6768000000000000000000000000000000000000000000000000000000000000602082015250565b6000614479602283612a90565b91506144848261441d565b604082019050919050565b600060208201905081810360008301526144a88161446c565b905091905056fea2646970667358221220152c136d1d0d41813620dae847bdd98a92d75c8da63f377b67fb0207ddfdadee64736f6c63430008110033",
  "immutableReferences": {
    "19": [
      {
        "length": 32,
        "start": 2637
      },
      {
        "length": 32,
        "start": 3518
      }
    ],
    "2016": [
      {
        "length": 32,
        "start": 3617
      }
    ],
    "2018": [
      {
        "length": 32,
        "start": 7371
      },
      {
        "length": 32,
        "start": 7412
      },
      {
        "length": 32,
        "start": 9192
      }
    ]
  },
  "source": "// SPDX-License-Identifier: MIT\npragma solidity ^0.8.17;\n\n// import \"../node_modules/@openzeppelin/contracts/token/ERC721/ERC721.sol\";\nimport \"../standards/ERC721A.sol\";\nimport \"../node_modules/@openzeppelin/contracts/utils/Strings.sol\";\nimport \"../node_modules/@openzeppelin/contracts/access/Ownable.sol\";\nimport \"../node_modules/@openzeppelin/contracts/security/ReentrancyGuard.sol\";\n// import \"../node_modules/@openzeppelin/contracts/utils/Context.sol\";\n\n\ncontract TestToken is  ERC721A, Ownable, ReentrancyGuard {\n    using Strings for uint256; // Strings \n    uint256 public immutable maxAmountPerMint;\n    uint256 public mintPrice;\n\n    event MintTestToken(address minter, uint256 quantity);\n\n    constructor(uint256 maxBatchSize_, uint256 collectionSize_) ERC721A(\"Azuki\", \"AZUKI\", maxBatchSize_, collectionSize_) {\n     maxAmountPerMint = maxBatchSize_;\n    }\n\n    modifier callerIsUser() {\n      //  CA EOA  \n      require(tx.origin == msg.sender, \"The caller is another contract\");\n      _;\n    }\n\n    function setMintOn(uint256 price) external onlyOwner {\n      // wei \n      require(price > 0,\"sale price must greater than 0\");\n      mintPrice = price;\n    }\n\n    function isMintOn() public view returns(bool) {\n      return mintPrice != 0; \n    }\n\n    function mintTestToken(uint256 quantity) external payable callerIsUser {\n      require(isMintOn(),\"sale has not begun yet\");\n      require(quantity <= maxAmountPerMint, \"can not mint this amount at once\"); //    \n      require(ERC721A.totalSupply() + quantity <= ERC721A.collectionSize, \"not enough remainig amounts\"); //   \n      ERC721A._safeMint(msg.sender, quantity);\n      emit MintTestToken(msg.sender, quantity);\n    }\n\n    string private _baseTokenURI = \"https://localhost:4000\";\n\n  //   function tokenURI(uint256 tokenId)\n  //   public\n  //   view\n  //   override\n  //   returns (string memory)\n  // {\n  //   require(\n  //     _exists(tokenId),\n  //     \"ERC721Metadata: URI query for nonexistent token\"\n  //   );\n\n  //   string memory baseURI = _baseURI();\n  //   return\n  //     bytes(baseURI).length > 0\n  //       ? string(abi.encodePacked(baseURI, tokenId.toString()))\n  //       : \"\";\n  // }\n\n    function _baseURI() internal override view returns(string memory){\n      return _baseTokenURI;\n    }\n  \n    function sertBaseURI(string memory baseURI) external onlyOwner {\n      _baseTokenURI = baseURI;\n    }\n    // tokenURI ERC721A   \n    //  _baseURI    baseURI \n    // tokenURI  _baseURI    tokenURI  return.\n\n    function withdrawAll() external onlyOwner nonReentrant {\n      // payable(msg.sender).transfer(address(this).balance);\n      (bool success, ) = msg.sender.call{value:address(this).balance}(\"\");\n      require(success, \"Withdrawl Faild\");\n    }\n\n    \n\n}\n",
  "sourcePath": "/Users/ssup/Desktop/BlockChain Academy/Project/NFT_TeamProject/blockChain/contracts/TestToken.sol",
  "compiler": {
    "name": "solc",
    "version": "0.8.17+commit.8df45f5f.Emscripten.clang"
  },
  "schemaVersion": "3.4.11",
  "updatedAt": "2022-12-20T05:41:01.407Z",
  "networkType": "ethereum",
  "devdoc": {
    "kind": "dev",
    "methods": {
      "approve(address,uint256)": {
        "details": "See {IERC721-approve}."
      },
      "balanceOf(address)": {
        "details": "See {IERC721-balanceOf}."
      },
      "getApproved(uint256)": {
        "details": "See {IERC721-getApproved}."
      },
      "isApprovedForAll(address,address)": {
        "details": "See {IERC721-isApprovedForAll}."
      },
      "name()": {
        "details": "See {IERC721Metadata-name}."
      },
      "owner()": {
        "details": "Returns the address of the current owner."
      },
      "ownerOf(uint256)": {
        "details": "See {IERC721-ownerOf}."
      },
      "renounceOwnership()": {
        "details": "Leaves the contract without owner. It will not be possible to call `onlyOwner` functions anymore. Can only be called by the current owner. NOTE: Renouncing ownership will leave the contract without an owner, thereby removing any functionality that is only available to the owner."
      },
      "safeTransferFrom(address,address,uint256)": {
        "details": "See {IERC721-safeTransferFrom}."
      },
      "safeTransferFrom(address,address,uint256,bytes)": {
        "details": "See {IERC721-safeTransferFrom}."
      },
      "setApprovalForAll(address,bool)": {
        "details": "See {IERC721-setApprovalForAll}."
      },
      "supportsInterface(bytes4)": {
        "details": "See {IERC165-supportsInterface}."
      },
      "symbol()": {
        "details": "See {IERC721Metadata-symbol}."
      },
      "tokenByIndex(uint256)": {
        "details": "See {IERC721Enumerable-tokenByIndex}."
      },
      "tokenOfOwnerByIndex(address,uint256)": {
        "details": "See {IERC721Enumerable-tokenOfOwnerByIndex}. This read function is O(collectionSize). If calling from a separate contract, be sure to test gas first. It may also degrade with extremely large collection sizes (e.g >> 10000), test for your use case."
      },
      "tokenURI(uint256)": {
        "details": "See {IERC721Metadata-tokenURI}."
      },
      "totalSupply()": {
        "details": "See {IERC721Enumerable-totalSupply}."
      },
      "transferFrom(address,address,uint256)": {
        "details": "See {IERC721-transferFrom}."
      },
      "transferOwnership(address)": {
        "details": "Transfers ownership of the contract to a new account (`newOwner`). Can only be called by the current owner."
      }
    },
    "version": 1
  },
  "userdoc": {
    "kind": "user",
    "methods": {},
    "version": 1
  }
}