{
  "contractName": "TradingNft",
  "abi": [
    {
      "inputs": [
        {
          "internalType": "address",
          "name": "_ca",
          "type": "address"
        },
        {
          "internalType": "uint256",
          "name": "saleFeeRate_",
          "type": "uint256"
        },
        {
          "internalType": "uint256",
          "name": "saleFeeDigits_",
          "type": "uint256"
        },
        {
          "internalType": "uint256",
          "name": "auctionFeeRate_",
          "type": "uint256"
        },
        {
          "internalType": "uint256",
          "name": "auctionFeeDigits_",
          "type": "uint256"
        }
      ],
      "stateMutability": "nonpayable",
      "type": "constructor"
    },
    {
      "anonymous": false,
      "inputs": [
        {
          "indexed": true,
          "internalType": "address",
          "name": "previousOwner",
          "type": "address"
        },
        {
          "indexed": true,
          "internalType": "address",
          "name": "newOwner",
          "type": "address"
        }
      ],
      "name": "OwnershipTransferred",
      "type": "event"
    },
    {
      "inputs": [],
      "name": "owner",
      "outputs": [
        {
          "internalType": "address",
          "name": "",
          "type": "address"
        }
      ],
      "stateMutability": "view",
      "type": "function"
    },
    {
      "inputs": [],
      "name": "renounceOwnership",
      "outputs": [],
      "stateMutability": "nonpayable",
      "type": "function"
    },
    {
      "inputs": [
        {
          "internalType": "address",
          "name": "newOwner",
          "type": "address"
        }
      ],
      "name": "transferOwnership",
      "outputs": [],
      "stateMutability": "nonpayable",
      "type": "function"
    },
    {
      "inputs": [
        {
          "internalType": "uint256",
          "name": "_tokenId",
          "type": "uint256"
        },
        {
          "internalType": "uint256",
          "name": "_price",
          "type": "uint256"
        }
      ],
      "name": "registerSaleToken",
      "outputs": [],
      "stateMutability": "nonpayable",
      "type": "function"
    },
    {
      "inputs": [
        {
          "internalType": "uint256",
          "name": "_tokenId",
          "type": "uint256"
        }
      ],
      "name": "deregisterSaleToken",
      "outputs": [],
      "stateMutability": "nonpayable",
      "type": "function"
    },
    {
      "inputs": [
        {
          "internalType": "uint256",
          "name": "_tokenId",
          "type": "uint256"
        }
      ],
      "name": "buyToken",
      "outputs": [],
      "stateMutability": "payable",
      "type": "function"
    },
    {
      "inputs": [
        {
          "internalType": "address",
          "name": "_ca",
          "type": "address"
        }
      ],
      "name": "setMintingNft",
      "outputs": [],
      "stateMutability": "nonpayable",
      "type": "function"
    },
    {
      "inputs": [
        {
          "internalType": "uint256",
          "name": "saleFeeRate_",
          "type": "uint256"
        }
      ],
      "name": "setSaleFeeRate",
      "outputs": [],
      "stateMutability": "nonpayable",
      "type": "function"
    },
    {
      "inputs": [
        {
          "internalType": "uint256",
          "name": "saleFeeDigits_",
          "type": "uint256"
        }
      ],
      "name": "setSaleFeeDigits",
      "outputs": [],
      "stateMutability": "nonpayable",
      "type": "function"
    },
    {
      "inputs": [
        {
          "internalType": "uint256",
          "name": "auctionFeeRate_",
          "type": "uint256"
        }
      ],
      "name": "setAuctionFeeRate",
      "outputs": [],
      "stateMutability": "nonpayable",
      "type": "function"
    },
    {
      "inputs": [
        {
          "internalType": "uint256",
          "name": "auctionFeeDigits_",
          "type": "uint256"
        }
      ],
      "name": "setAuctionFeeDigits",
      "outputs": [],
      "stateMutability": "nonpayable",
      "type": "function"
    },
    {
      "inputs": [
        {
          "internalType": "uint256",
          "name": "_price",
          "type": "uint256"
        }
      ],
      "name": "_getSaleFee",
      "outputs": [
        {
          "internalType": "uint256",
          "name": "",
          "type": "uint256"
        }
      ],
      "stateMutability": "view",
      "type": "function"
    },
    {
      "inputs": [],
      "name": "getSaleFeeRate",
      "outputs": [
        {
          "internalType": "uint256",
          "name": "",
          "type": "uint256"
        }
      ],
      "stateMutability": "view",
      "type": "function"
    },
    {
      "inputs": [],
      "name": "getSaleFeeDigits",
      "outputs": [
        {
          "internalType": "uint256",
          "name": "",
          "type": "uint256"
        }
      ],
      "stateMutability": "view",
      "type": "function"
    },
    {
      "inputs": [],
      "name": "getAuctionFeeRate",
      "outputs": [
        {
          "internalType": "uint256",
          "name": "",
          "type": "uint256"
        }
      ],
      "stateMutability": "view",
      "type": "function"
    },
    {
      "inputs": [],
      "name": "getAuctionFeeDigits",
      "outputs": [
        {
          "internalType": "uint256",
          "name": "",
          "type": "uint256"
        }
      ],
      "stateMutability": "view",
      "type": "function"
    },
    {
      "inputs": [
        {
          "internalType": "uint256",
          "name": "_tokenId",
          "type": "uint256"
        }
      ],
      "name": "getSaleTokenData",
      "outputs": [
        {
          "components": [
            {
              "internalType": "address",
              "name": "seller",
              "type": "address"
            },
            {
              "internalType": "uint256",
              "name": "price",
              "type": "uint256"
            }
          ],
          "internalType": "struct TradingNft.TokenData",
          "name": "",
          "type": "tuple"
        }
      ],
      "stateMutability": "view",
      "type": "function"
    },
    {
      "inputs": [
        {
          "internalType": "uint256",
          "name": "_tokenId",
          "type": "uint256"
        }
      ],
      "name": "getAuctionTokenData",
      "outputs": [
        {
          "components": [
            {
              "internalType": "address",
              "name": "seller",
              "type": "address"
            },
            {
              "internalType": "uint256",
              "name": "price",
              "type": "uint256"
            }
          ],
          "internalType": "struct TradingNft.TokenData",
          "name": "",
          "type": "tuple"
        }
      ],
      "stateMutability": "view",
      "type": "function"
    }
  ],
  "bytecode": "0x60806040523480156200001157600080fd5b5060405162001a8a38038062001a8a833981810160405281019062000037919062000230565b620000576200004b620000bf60201b60201c565b620000c760201b60201c565b84600160006101000a81548173ffffffffffffffffffffffffffffffffffffffff021916908373ffffffffffffffffffffffffffffffffffffffff160217905550836002819055508260038190555081600481905550806005819055505050505050620002b8565b600033905090565b60008060009054906101000a900473ffffffffffffffffffffffffffffffffffffffff169050816000806101000a81548173ffffffffffffffffffffffffffffffffffffffff021916908373ffffffffffffffffffffffffffffffffffffffff1602179055508173ffffffffffffffffffffffffffffffffffffffff168173ffffffffffffffffffffffffffffffffffffffff167f8be0079c531659141344cd1fd0a4f28419497f9722a3daafe3b4186f6b6457e060405160405180910390a35050565b600080fd5b600073ffffffffffffffffffffffffffffffffffffffff82169050919050565b6000620001bd8262000190565b9050919050565b620001cf81620001b0565b8114620001db57600080fd5b50565b600081519050620001ef81620001c4565b92915050565b6000819050919050565b6200020a81620001f5565b81146200021657600080fd5b50565b6000815190506200022a81620001ff565b92915050565b600080600080600060a086880312156200024f576200024e6200018b565b5b60006200025f88828901620001de565b9550506020620002728882890162000219565b9450506040620002858882890162000219565b9350506060620002988882890162000219565b9250506080620002ab8882890162000219565b9150509295509295909350565b6117c280620002c86000396000f3fe6080604052600436106101095760003560e01c806363a62e5c11610095578063ba9cb6f611610064578063ba9cb6f61461031e578063c6a45c7d1461035b578063cb6bd2a814610398578063f2fde38b146103c3578063f788cbd8146103ec57610109565b806363a62e5c1461028a578063715018a6146102b35780638da5cb5b146102ca5780638f8f4cf0146102f557610109565b80632d296bf1116100dc5780632d296bf1146101c65780632d9e895e146101e25780633a1cff7f1461020b57806346c9276a14610234578063506e8b651461025f57610109565b806307b3e83f1461010e5780631f4ed59f1461013757806321f76f36146101605780632a21df6014610189575b600080fd5b34801561011a57600080fd5b5061013560048036038101906101309190610fa3565b610417565b005b34801561014357600080fd5b5061015e60048036038101906101599190610fa3565b610429565b005b34801561016c57600080fd5b506101876004803603810190610182919061102e565b610483565b005b34801561019557600080fd5b506101b060048036038101906101ab9190610fa3565b6104cf565b6040516101bd919061106a565b60405180910390f35b6101e060048036038101906101db9190610fa3565b6104f3565b005b3480156101ee57600080fd5b5061020960048036038101906102049190610fa3565b610713565b005b34801561021757600080fd5b50610232600480360381019061022d9190610fa3565b610725565b005b34801561024057600080fd5b50610249610737565b604051610256919061106a565b60405180910390f35b34801561026b57600080fd5b50610274610741565b604051610281919061106a565b60405180910390f35b34801561029657600080fd5b506102b160048036038101906102ac9190610fa3565b61074b565b005b3480156102bf57600080fd5b506102c861075d565b005b3480156102d657600080fd5b506102df610771565b6040516102ec9190611094565b60405180910390f35b34801561030157600080fd5b5061031c600480360381019061031791906110af565b61079a565b005b34801561032a57600080fd5b5061034560048036038101906103409190610fa3565b610a65565b604051610352919061113c565b60405180910390f35b34801561036757600080fd5b50610382600480360381019061037d9190610fa3565b610af2565b60405161038f919061113c565b60405180910390f35b3480156103a457600080fd5b506103ad610b7f565b6040516103ba919061106a565b60405180910390f35b3480156103cf57600080fd5b506103ea60048036038101906103e5919061102e565b610b89565b005b3480156103f857600080fd5b50610401610c0c565b60405161040e919061106a565b60405180910390f35b61041f610c16565b8060048190555050565b61043281610c94565b61043b81610cdf565b60066000828152602001908152602001600020600080820160006101000a81549073ffffffffffffffffffffffffffffffffffffffff02191690556001820160009055505050565b61048b610c16565b80600160006101000a81548173ffffffffffffffffffffffffffffffffffffffff021916908373ffffffffffffffffffffffffffffffffffffffff16021790555050565b6000600354600254836104e29190611186565b6104ec91906111f7565b9050919050565b6104fc81610c94565b61050581610d2a565b15610545576040517f08c379a000000000000000000000000000000000000000000000000000000000815260040161053c90611285565b60405180910390fd5b600060066000838152602001908152602001600020600101549050348111156105a3576040517f08c379a000000000000000000000000000000000000000000000000000000000815260040161059a906112f1565b60405180910390fd5b60006006600084815260200190815260200160002060000160009054906101000a900473ffffffffffffffffffffffffffffffffffffffff1690508073ffffffffffffffffffffffffffffffffffffffff166108fc610601846104cf565b8461060c9190611311565b9081150290604051600060405180830381858888f19350505050158015610637573d6000803e3d6000fd5b50600160009054906101000a900473ffffffffffffffffffffffffffffffffffffffff1673ffffffffffffffffffffffffffffffffffffffff1663f5537ede8233866040518463ffffffff1660e01b815260040161069793929190611345565b600060405180830381600087803b1580156106b157600080fd5b505af11580156106c5573d6000803e3d6000fd5b5050505060066000848152602001908152602001600020600080820160006101000a81549073ffffffffffffffffffffffffffffffffffffffff021916905560018201600090555050505050565b61071b610c16565b8060058190555050565b61072d610c16565b8060028190555050565b6000600454905090565b6000600554905090565b610753610c16565b8060038190555050565b610765610c16565b61076f6000610dfd565b565b60008060009054906101000a900473ffffffffffffffffffffffffffffffffffffffff16905090565b6107a382610cdf565b6107ac82610ec1565b15806107ce575060066000838152602001908152602001600020600101548114155b61080d576040517f08c379a0000000000000000000000000000000000000000000000000000000008152600401610804906113ee565b60405180910390fd5b6000600160009054906101000a900473ffffffffffffffffffffffffffffffffffffffff1673ffffffffffffffffffffffffffffffffffffffff16636352211e846040518263ffffffff1660e01b815260040161086a919061106a565b602060405180830381865afa158015610887573d6000803e3d6000fd5b505050506040513d601f19601f820116820180604052508101906108ab9190611423565b9050600160009054906101000a900473ffffffffffffffffffffffffffffffffffffffff1673ffffffffffffffffffffffffffffffffffffffff1663e985e9c582306040518363ffffffff1660e01b815260040161090a929190611450565b602060405180830381865afa158015610927573d6000803e3d6000fd5b505050506040513d601f19601f8201168201806040525081019061094b91906114b1565b61098a576040517f08c379a00000000000000000000000000000000000000000000000000000000081526004016109819061152a565b60405180910390fd5b60008210156109ce576040517f08c379a00000000000000000000000000000000000000000000000000000000081526004016109c590611596565b60405180910390fd5b60405180604001604052808273ffffffffffffffffffffffffffffffffffffffff168152602001838152506006600085815260200190815260200160002060008201518160000160006101000a81548173ffffffffffffffffffffffffffffffffffffffff021916908373ffffffffffffffffffffffffffffffffffffffff16021790555060208201518160010155905050505050565b610a6d610f38565b600660008381526020019081526020016000206040518060400160405290816000820160009054906101000a900473ffffffffffffffffffffffffffffffffffffffff1673ffffffffffffffffffffffffffffffffffffffff1673ffffffffffffffffffffffffffffffffffffffff1681526020016001820154815250509050919050565b610afa610f38565b600760008381526020019081526020016000206040518060400160405290816000820160009054906101000a900473ffffffffffffffffffffffffffffffffffffffff1673ffffffffffffffffffffffffffffffffffffffff1673ffffffffffffffffffffffffffffffffffffffff1681526020016001820154815250509050919050565b6000600354905090565b610b91610c16565b600073ffffffffffffffffffffffffffffffffffffffff168173ffffffffffffffffffffffffffffffffffffffff1603610c00576040517f08c379a0000000000000000000000000000000000000000000000000000000008152600401610bf790611628565b60405180910390fd5b610c0981610dfd565b50565b6000600254905090565b610c1e610f30565b73ffffffffffffffffffffffffffffffffffffffff16610c3c610771565b73ffffffffffffffffffffffffffffffffffffffff1614610c92576040517f08c379a0000000000000000000000000000000000000000000000000000000008152600401610c8990611694565b60405180910390fd5b565b610c9d81610ec1565b610cdc576040517f08c379a0000000000000000000000000000000000000000000000000000000008152600401610cd390611700565b60405180910390fd5b50565b610ce881610d2a565b610d27576040517f08c379a0000000000000000000000000000000000000000000000000000000008152600401610d1e9061176c565b60405180910390fd5b50565b6000600160009054906101000a900473ffffffffffffffffffffffffffffffffffffffff1673ffffffffffffffffffffffffffffffffffffffff16636352211e836040518263ffffffff1660e01b8152600401610d87919061106a565b602060405180830381865afa158015610da4573d6000803e3d6000fd5b505050506040513d601f19601f82011682018060405250810190610dc89190611423565b73ffffffffffffffffffffffffffffffffffffffff163373ffffffffffffffffffffffffffffffffffffffff16149050919050565b60008060009054906101000a900473ffffffffffffffffffffffffffffffffffffffff169050816000806101000a81548173ffffffffffffffffffffffffffffffffffffffff021916908373ffffffffffffffffffffffffffffffffffffffff1602179055508173ffffffffffffffffffffffffffffffffffffffff168173ffffffffffffffffffffffffffffffffffffffff167f8be0079c531659141344cd1fd0a4f28419497f9722a3daafe3b4186f6b6457e060405160405180910390a35050565b60008073ffffffffffffffffffffffffffffffffffffffff166006600084815260200190815260200160002060000160009054906101000a900473ffffffffffffffffffffffffffffffffffffffff1673ffffffffffffffffffffffffffffffffffffffff1614159050919050565b600033905090565b6040518060400160405280600073ffffffffffffffffffffffffffffffffffffffff168152602001600081525090565b600080fd5b6000819050919050565b610f8081610f6d565b8114610f8b57600080fd5b50565b600081359050610f9d81610f77565b92915050565b600060208284031215610fb957610fb8610f68565b5b6000610fc784828501610f8e565b91505092915050565b600073ffffffffffffffffffffffffffffffffffffffff82169050919050565b6000610ffb82610fd0565b9050919050565b61100b81610ff0565b811461101657600080fd5b50565b60008135905061102881611002565b92915050565b60006020828403121561104457611043610f68565b5b600061105284828501611019565b91505092915050565b61106481610f6d565b82525050565b600060208201905061107f600083018461105b565b92915050565b61108e81610ff0565b82525050565b60006020820190506110a96000830184611085565b92915050565b600080604083850312156110c6576110c5610f68565b5b60006110d485828601610f8e565b92505060206110e585828601610f8e565b9150509250929050565b6110f881610ff0565b82525050565b61110781610f6d565b82525050565b60408201600082015161112360008501826110ef565b50602082015161113660208501826110fe565b50505050565b6000604082019050611151600083018461110d565b92915050565b7f4e487b7100000000000000000000000000000000000000000000000000000000600052601160045260246000fd5b600061119182610f6d565b915061119c83610f6d565b92508282026111aa81610f6d565b915082820484148315176111c1576111c0611157565b5b5092915050565b7f4e487b7100000000000000000000000000000000000000000000000000000000600052601260045260246000fd5b600061120282610f6d565b915061120d83610f6d565b92508261121d5761121c6111c8565b5b828204905092915050565b600082825260208201905092915050565b7f73656c6c65722063616e206e6f74206275790000000000000000000000000000600082015250565b600061126f601283611228565b915061127a82611239565b602082019050919050565b6000602082019050818103600083015261129e81611262565b9050919050565b7f696e73756666696369656e74206d6f6e657920746f2062757920746f6b656e00600082015250565b60006112db601f83611228565b91506112e6826112a5565b602082019050919050565b6000602082019050818103600083015261130a816112ce565b9050919050565b600061131c82610f6d565b915061132783610f6d565b925082820390508181111561133f5761133e611157565b5b92915050565b600060608201905061135a6000830186611085565b6113676020830185611085565b611374604083018461105b565b949350505050565b7f726567697374657220616c7265616479206174207468652073616d652070726960008201527f6365000000000000000000000000000000000000000000000000000000000000602082015250565b60006113d8602283611228565b91506113e38261137c565b604082019050919050565b60006020820190508181036000830152611407816113cb565b9050919050565b60008151905061141d81611002565b92915050565b60006020828403121561143957611438610f68565b5b60006114478482850161140e565b91505092915050565b60006040820190506114656000830185611085565b6114726020830184611085565b9392505050565b60008115159050919050565b61148e81611479565b811461149957600080fd5b50565b6000815190506114ab81611485565b92915050565b6000602082840312156114c7576114c6610f68565b5b60006114d58482850161149c565b91505092915050565b7f646964206e6f7420617070726f76650000000000000000000000000000000000600082015250565b6000611514600f83611228565b915061151f826114de565b602082019050919050565b6000602082019050818103600083015261154381611507565b9050919050565b7f696e76616c696420707269636500000000000000000000000000000000000000600082015250565b6000611580600d83611228565b915061158b8261154a565b602082019050919050565b600060208201905081810360008301526115af81611573565b9050919050565b7f4f776e61626c653a206e6577206f776e657220697320746865207a65726f206160008201527f6464726573730000000000000000000000000000000000000000000000000000602082015250565b6000611612602683611228565b915061161d826115b6565b604082019050919050565b6000602082019050818103600083015261164181611605565b9050919050565b7f4f776e61626c653a2063616c6c6572206973206e6f7420746865206f776e6572600082015250565b600061167e602083611228565b915061168982611648565b602082019050919050565b600060208201905081810360008301526116ad81611671565b9050919050565b7f6e6f74206f6e2073616c65000000000000000000000000000000000000000000600082015250565b60006116ea600b83611228565b91506116f5826116b4565b602082019050919050565b60006020820190508181036000830152611719816116dd565b9050919050565b7f6e6f7420746865206f776e657200000000000000000000000000000000000000600082015250565b6000611756600d83611228565b915061176182611720565b602082019050919050565b6000602082019050818103600083015261178581611749565b905091905056fea264697066735822122076ca93ff2f7cdd0a37614ade4a55617d15a2d8a33668d98fad0509fbab0f4f4b64736f6c63430008110033",
  "immutableReferences": {},
  "source": "// SPDX-License-Identifier: MIT\r\npragma solidity ^0.8.17;\r\n\r\nimport \"./MintingNft.sol\";\r\n\r\n// onlyOwner     \r\nimport \"../node_modules/@openzeppelin/contracts/access/Ownable.sol\";\r\n\r\n// remix  \r\n// import \"@openzeppelin/contracts/access/Ownable.sol\";\r\n\r\ncontract TradingNft is Ownable {\r\n\r\n    MintingNft private _MintingNft;\r\n\r\n    //         \r\n    // 1 / 1000 = 0.1%  \r\n    uint private _saleFeeRate;\r\n    uint private _saleFeeDigits;\r\n    uint private _auctionFeeRate;\r\n    uint private _auctionFeeDigits;\r\n\r\n    struct TokenData {\r\n\r\n        address seller;\r\n        \r\n        // wei \r\n        uint price;\r\n    }\r\n\r\n    mapping (uint => TokenData) private _saleTokenIdToData;\r\n    mapping (uint => TokenData) private _auctionTokenIdToData;\r\n\r\n    constructor(address _ca, uint saleFeeRate_, uint saleFeeDigits_, uint auctionFeeRate_, uint auctionFeeDigits_) {\r\n\r\n        //         \r\n        _MintingNft = MintingNft(_ca);\r\n\r\n        _saleFeeRate = saleFeeRate_;\r\n        _saleFeeDigits = saleFeeDigits_;\r\n        _auctionFeeRate = auctionFeeRate_;\r\n        _auctionFeeDigits = auctionFeeDigits_;\r\n    }\r\n\r\n    // -    : registerSaleToken()\r\n    // -     : deregisterSaleToken()\r\n    // -   : buyToken()\r\n    // -    : registerAuctionToken()\r\n    // -   : bidTokenAtAuction()\r\n    // -   (         ) : winTokenAtAuction()\r\n    // -     : refundTokenAtAuction()\r\n\r\n    //    \r\n    function registerSaleToken(uint _tokenId, uint _price) external {\r\n\r\n        _requireTokenOwner(_tokenId);\r\n\r\n        //     \r\n        require(!_isOnSale(_tokenId) || _price != _saleTokenIdToData[_tokenId].price, \"register already at the same price\");\r\n\r\n        // setApprovalForAll()   msg.sender  address(this)      \r\n        // _MintingNft.setApprovalForAll(address(this), true);\r\n\r\n        address seller = _MintingNft.ownerOf(_tokenId);\r\n        require(_MintingNft.isApprovedForAll(seller, address(this)), \"did not approve\");\r\n\r\n        //   0   \r\n        require(_price >= 0, \"invalid price\");\r\n\r\n        _saleTokenIdToData[_tokenId] = TokenData(seller, _price);\r\n    }\r\n\r\n    //     \r\n    function deregisterSaleToken(uint _tokenId) external {\r\n\r\n        _requireOnSale(_tokenId);\r\n        _requireTokenOwner(_tokenId);\r\n\r\n        //      ..\r\n        delete _saleTokenIdToData[_tokenId];\r\n    }\r\n\r\n    //    test\r\n    function buyToken(uint _tokenId) external payable {\r\n        \r\n        _requireOnSale(_tokenId);\r\n        \r\n        //   \r\n        require(!_isTokenOwner(_tokenId), \"seller can not buy\");\r\n\r\n        uint price = _saleTokenIdToData[_tokenId].price;\r\n        require(price <= msg.value, \"insufficient money to buy token\");\r\n\r\n        // wei \r\n        address seller = _saleTokenIdToData[_tokenId].seller;\r\n        payable(seller).transfer(price - _getSaleFee(price));\r\n\r\n        //   \r\n        _MintingNft.transferToken(seller, msg.sender, _tokenId);\r\n\r\n        //   \r\n        delete _saleTokenIdToData[_tokenId];\r\n    }\r\n\r\n    function setMintingNft(address _ca) external onlyOwner {\r\n        _MintingNft = MintingNft(_ca);\r\n    }\r\n\r\n    function setSaleFeeRate(uint saleFeeRate_) external onlyOwner {\r\n        _saleFeeRate = saleFeeRate_;\r\n    }\r\n\r\n    function setSaleFeeDigits(uint saleFeeDigits_) external onlyOwner {\r\n        _saleFeeDigits = saleFeeDigits_;\r\n    }\r\n\r\n    function setAuctionFeeRate(uint auctionFeeRate_) external onlyOwner {\r\n        _auctionFeeRate = auctionFeeRate_;\r\n    }\r\n\r\n    function setAuctionFeeDigits(uint auctionFeeDigits_) external onlyOwner {\r\n        _auctionFeeDigits = auctionFeeDigits_;\r\n    }\r\n\r\n    //    (0   )\r\n    function _getSaleFee(uint _price) public view returns (uint) {\r\n        return _price * _saleFeeRate / _saleFeeDigits;\r\n    }\r\n\r\n    // MintingNft  CA  \r\n    // function getMintingNft() external view returns (MintingNft) {\r\n    //     return _MintingNft;\r\n    // }\r\n\r\n    //        CA  \r\n    // function msgSender() external view returns (address) {\r\n    //     return _MintingNft.msgSender();\r\n    // }\r\n\r\n    function getSaleFeeRate() external view returns (uint) {\r\n        return _saleFeeRate;\r\n    }\r\n\r\n    function getSaleFeeDigits() external view returns (uint) {\r\n        return _saleFeeDigits;\r\n    }\r\n\r\n    function getAuctionFeeRate() external view returns (uint) {\r\n        return _auctionFeeRate;\r\n    }\r\n\r\n    function getAuctionFeeDigits() external view returns (uint) {\r\n        return _auctionFeeDigits;\r\n    }\r\n\r\n    // test\r\n    function getSaleTokenData(uint _tokenId) public view returns (TokenData memory) {\r\n        return _saleTokenIdToData[_tokenId];\r\n    }\r\n\r\n    function getAuctionTokenData(uint _tokenId) external view returns (TokenData memory) {\r\n        return _auctionTokenIdToData[_tokenId];\r\n    }\r\n\r\n    //    \r\n    // msg.sender     private \r\n    function _requireTokenOwner(uint _tokenId) private view {\r\n\r\n        // tokenId   \r\n        require(_isTokenOwner(_tokenId), \"not the owner\");\r\n    }\r\n\r\n    function _isTokenOwner(uint _tokenId) private view returns (bool) {\r\n        return msg.sender == _MintingNft.ownerOf(_tokenId);\r\n    }\r\n\r\n    //     \r\n    function _requireOnSale(uint _tokenId) private view {\r\n        require(_isOnSale(_tokenId), \"not on sale\");\r\n    }\r\n\r\n    function _isOnSale(uint _tokenId) private view returns (bool) {\r\n        return _saleTokenIdToData[_tokenId].seller != address(0);\r\n    }\r\n}\r\n\r\n//   \r\n// set => view => external => private",
  "sourcePath": "C:\\Users\\KGA_\\Desktop\\nft_1222\\blockChain\\contracts\\TradingNft.sol",
  "compiler": {
    "name": "solc",
    "version": "0.8.17+commit.8df45f5f.Emscripten.clang"
  },
  "schemaVersion": "3.4.11",
  "updatedAt": "2022-12-22T07:16:24.939Z",
  "devdoc": {
    "kind": "dev",
    "methods": {
      "owner()": {
        "details": "Returns the address of the current owner."
      },
      "renounceOwnership()": {
        "details": "Leaves the contract without owner. It will not be possible to call `onlyOwner` functions anymore. Can only be called by the current owner. NOTE: Renouncing ownership will leave the contract without an owner, thereby removing any functionality that is only available to the owner."
      },
      "transferOwnership(address)": {
        "details": "Transfers ownership of the contract to a new account (`newOwner`). Can only be called by the current owner."
      }
    },
    "version": 1
  },
  "userdoc": {
    "kind": "user",
    "methods": {},
    "version": 1
  }
}