{
  "contractName": "MintingNft",
  "abi": [
    {
      "inputs": [
        {
          "internalType": "string",
          "name": "name_",
          "type": "string"
        },
        {
          "internalType": "string",
          "name": "symbol_",
          "type": "string"
        },
        {
          "internalType": "uint256",
          "name": "mintingLimit_",
          "type": "uint256"
        },
        {
          "internalType": "uint256",
          "name": "mintingPrice_",
          "type": "uint256"
        },
        {
          "internalType": "string",
          "name": "defaultPath_",
          "type": "string"
        }
      ],
      "stateMutability": "nonpayable",
      "type": "constructor"
    },
    {
      "anonymous": false,
      "inputs": [
        {
          "indexed": true,
          "internalType": "address",
          "name": "owner",
          "type": "address"
        },
        {
          "indexed": true,
          "internalType": "address",
          "name": "approved",
          "type": "address"
        },
        {
          "indexed": true,
          "internalType": "uint256",
          "name": "tokenId",
          "type": "uint256"
        }
      ],
      "name": "Approval",
      "type": "event"
    },
    {
      "anonymous": false,
      "inputs": [
        {
          "indexed": true,
          "internalType": "address",
          "name": "owner",
          "type": "address"
        },
        {
          "indexed": true,
          "internalType": "address",
          "name": "operator",
          "type": "address"
        },
        {
          "indexed": false,
          "internalType": "bool",
          "name": "approved",
          "type": "bool"
        }
      ],
      "name": "ApprovalForAll",
      "type": "event"
    },
    {
      "anonymous": false,
      "inputs": [
        {
          "indexed": true,
          "internalType": "address",
          "name": "owner",
          "type": "address"
        },
        {
          "indexed": true,
          "internalType": "uint256",
          "name": "tokenId",
          "type": "uint256"
        }
      ],
      "name": "MintingToken",
      "type": "event"
    },
    {
      "anonymous": false,
      "inputs": [
        {
          "indexed": true,
          "internalType": "address",
          "name": "previousOwner",
          "type": "address"
        },
        {
          "indexed": true,
          "internalType": "address",
          "name": "newOwner",
          "type": "address"
        }
      ],
      "name": "OwnershipTransferred",
      "type": "event"
    },
    {
      "anonymous": false,
      "inputs": [
        {
          "indexed": true,
          "internalType": "address",
          "name": "from",
          "type": "address"
        },
        {
          "indexed": true,
          "internalType": "address",
          "name": "to",
          "type": "address"
        },
        {
          "indexed": true,
          "internalType": "uint256",
          "name": "tokenId",
          "type": "uint256"
        }
      ],
      "name": "Transfer",
      "type": "event"
    },
    {
      "inputs": [],
      "name": "_owner",
      "outputs": [
        {
          "internalType": "address",
          "name": "",
          "type": "address"
        }
      ],
      "stateMutability": "view",
      "type": "function",
      "constant": true
    },
    {
      "inputs": [
        {
          "internalType": "address",
          "name": "to",
          "type": "address"
        },
        {
          "internalType": "uint256",
          "name": "tokenId",
          "type": "uint256"
        }
      ],
      "name": "approve",
      "outputs": [],
      "stateMutability": "nonpayable",
      "type": "function"
    },
    {
      "inputs": [
        {
          "internalType": "address",
          "name": "owner",
          "type": "address"
        }
      ],
      "name": "balanceOf",
      "outputs": [
        {
          "internalType": "uint256",
          "name": "",
          "type": "uint256"
        }
      ],
      "stateMutability": "view",
      "type": "function",
      "constant": true
    },
    {
      "inputs": [
        {
          "internalType": "uint256",
          "name": "tokenId",
          "type": "uint256"
        }
      ],
      "name": "getApproved",
      "outputs": [
        {
          "internalType": "address",
          "name": "",
          "type": "address"
        }
      ],
      "stateMutability": "view",
      "type": "function",
      "constant": true
    },
    {
      "inputs": [
        {
          "internalType": "address",
          "name": "owner",
          "type": "address"
        },
        {
          "internalType": "address",
          "name": "operator",
          "type": "address"
        }
      ],
      "name": "isApprovedForAll",
      "outputs": [
        {
          "internalType": "bool",
          "name": "",
          "type": "bool"
        }
      ],
      "stateMutability": "view",
      "type": "function",
      "constant": true
    },
    {
      "inputs": [],
      "name": "name",
      "outputs": [
        {
          "internalType": "string",
          "name": "",
          "type": "string"
        }
      ],
      "stateMutability": "view",
      "type": "function",
      "constant": true
    },
    {
      "inputs": [],
      "name": "owner",
      "outputs": [
        {
          "internalType": "address",
          "name": "",
          "type": "address"
        }
      ],
      "stateMutability": "view",
      "type": "function",
      "constant": true
    },
    {
      "inputs": [
        {
          "internalType": "uint256",
          "name": "tokenId",
          "type": "uint256"
        }
      ],
      "name": "ownerOf",
      "outputs": [
        {
          "internalType": "address",
          "name": "",
          "type": "address"
        }
      ],
      "stateMutability": "view",
      "type": "function",
      "constant": true
    },
    {
      "inputs": [],
      "name": "renounceOwnership",
      "outputs": [],
      "stateMutability": "nonpayable",
      "type": "function"
    },
    {
      "inputs": [
        {
          "internalType": "address",
          "name": "from",
          "type": "address"
        },
        {
          "internalType": "address",
          "name": "to",
          "type": "address"
        },
        {
          "internalType": "uint256",
          "name": "tokenId",
          "type": "uint256"
        }
      ],
      "name": "safeTransferFrom",
      "outputs": [],
      "stateMutability": "nonpayable",
      "type": "function"
    },
    {
      "inputs": [
        {
          "internalType": "address",
          "name": "from",
          "type": "address"
        },
        {
          "internalType": "address",
          "name": "to",
          "type": "address"
        },
        {
          "internalType": "uint256",
          "name": "tokenId",
          "type": "uint256"
        },
        {
          "internalType": "bytes",
          "name": "data",
          "type": "bytes"
        }
      ],
      "name": "safeTransferFrom",
      "outputs": [],
      "stateMutability": "nonpayable",
      "type": "function"
    },
    {
      "inputs": [
        {
          "internalType": "address",
          "name": "operator",
          "type": "address"
        },
        {
          "internalType": "bool",
          "name": "approved",
          "type": "bool"
        }
      ],
      "name": "setApprovalForAll",
      "outputs": [],
      "stateMutability": "nonpayable",
      "type": "function"
    },
    {
      "inputs": [
        {
          "internalType": "bytes4",
          "name": "interfaceId",
          "type": "bytes4"
        }
      ],
      "name": "supportsInterface",
      "outputs": [
        {
          "internalType": "bool",
          "name": "",
          "type": "bool"
        }
      ],
      "stateMutability": "view",
      "type": "function",
      "constant": true
    },
    {
      "inputs": [],
      "name": "symbol",
      "outputs": [
        {
          "internalType": "string",
          "name": "",
          "type": "string"
        }
      ],
      "stateMutability": "view",
      "type": "function",
      "constant": true
    },
    {
      "inputs": [
        {
          "internalType": "uint256",
          "name": "index",
          "type": "uint256"
        }
      ],
      "name": "tokenByIndex",
      "outputs": [
        {
          "internalType": "uint256",
          "name": "",
          "type": "uint256"
        }
      ],
      "stateMutability": "view",
      "type": "function",
      "constant": true
    },
    {
      "inputs": [
        {
          "internalType": "address",
          "name": "owner",
          "type": "address"
        },
        {
          "internalType": "uint256",
          "name": "index",
          "type": "uint256"
        }
      ],
      "name": "tokenOfOwnerByIndex",
      "outputs": [
        {
          "internalType": "uint256",
          "name": "",
          "type": "uint256"
        }
      ],
      "stateMutability": "view",
      "type": "function",
      "constant": true
    },
    {
      "inputs": [],
      "name": "totalSupply",
      "outputs": [
        {
          "internalType": "uint256",
          "name": "",
          "type": "uint256"
        }
      ],
      "stateMutability": "view",
      "type": "function",
      "constant": true
    },
    {
      "inputs": [
        {
          "internalType": "address",
          "name": "from",
          "type": "address"
        },
        {
          "internalType": "address",
          "name": "to",
          "type": "address"
        },
        {
          "internalType": "uint256",
          "name": "tokenId",
          "type": "uint256"
        }
      ],
      "name": "transferFrom",
      "outputs": [],
      "stateMutability": "nonpayable",
      "type": "function"
    },
    {
      "inputs": [
        {
          "internalType": "address",
          "name": "newOwner",
          "type": "address"
        }
      ],
      "name": "transferOwnership",
      "outputs": [],
      "stateMutability": "nonpayable",
      "type": "function"
    },
    {
      "inputs": [
        {
          "internalType": "address",
          "name": "_owner",
          "type": "address"
        },
        {
          "internalType": "uint256",
          "name": "_tokenId",
          "type": "uint256"
        }
      ],
      "name": "mintToken",
      "outputs": [],
      "stateMutability": "payable",
      "type": "function",
      "payable": true
    },
    {
      "inputs": [
        {
          "internalType": "address",
          "name": "_owner",
          "type": "address"
        }
      ],
      "name": "getMyTokenIds",
      "outputs": [
        {
          "internalType": "uint256[]",
          "name": "",
          "type": "uint256[]"
        }
      ],
      "stateMutability": "view",
      "type": "function",
      "constant": true
    },
    {
      "inputs": [
        {
          "internalType": "uint256",
          "name": "_price",
          "type": "uint256"
        }
      ],
      "name": "setMintingPrice",
      "outputs": [],
      "stateMutability": "nonpayable",
      "type": "function"
    },
    {
      "inputs": [
        {
          "internalType": "string",
          "name": "defaultPath_",
          "type": "string"
        }
      ],
      "name": "setDefaultPath",
      "outputs": [],
      "stateMutability": "nonpayable",
      "type": "function"
    },
    {
      "inputs": [],
      "name": "mintingPrice",
      "outputs": [
        {
          "internalType": "uint256",
          "name": "",
          "type": "uint256"
        }
      ],
      "stateMutability": "view",
      "type": "function",
      "constant": true
    },
    {
      "inputs": [],
      "name": "defaultPath",
      "outputs": [
        {
          "internalType": "string",
          "name": "",
          "type": "string"
        }
      ],
      "stateMutability": "view",
      "type": "function",
      "constant": true
    },
    {
      "inputs": [
        {
          "internalType": "uint256",
          "name": "_tokenId",
          "type": "uint256"
        }
      ],
      "name": "tokenURI",
      "outputs": [
        {
          "internalType": "string",
          "name": "",
          "type": "string"
        }
      ],
      "stateMutability": "view",
      "type": "function",
      "constant": true
    }
  ],
  "bytecode": "0x60a06040523480156200001157600080fd5b506040516200422f3803806200422f833981810160405281019062000037919062000347565b848481600090816200004a91906200066d565b5080600190816200005c91906200066d565b5050506200007f62000073620000ab60201b60201c565b620000b360201b60201c565b826080818152505081600b8190555080600c90816200009f91906200066d565b50505050505062000754565b600033905090565b6000600a60009054906101000a900473ffffffffffffffffffffffffffffffffffffffff16905081600a60006101000a81548173ffffffffffffffffffffffffffffffffffffffff021916908373ffffffffffffffffffffffffffffffffffffffff1602179055508173ffffffffffffffffffffffffffffffffffffffff168173ffffffffffffffffffffffffffffffffffffffff167f8be0079c531659141344cd1fd0a4f28419497f9722a3daafe3b4186f6b6457e060405160405180910390a35050565b6000604051905090565b600080fd5b600080fd5b600080fd5b600080fd5b6000601f19601f8301169050919050565b7f4e487b7100000000000000000000000000000000000000000000000000000000600052604160045260246000fd5b620001e28262000197565b810181811067ffffffffffffffff82111715620002045762000203620001a8565b5b80604052505050565b60006200021962000179565b9050620002278282620001d7565b919050565b600067ffffffffffffffff8211156200024a5762000249620001a8565b5b620002558262000197565b9050602081019050919050565b60005b838110156200028257808201518184015260208101905062000265565b60008484015250505050565b6000620002a56200029f846200022c565b6200020d565b905082815260208101848484011115620002c457620002c362000192565b5b620002d184828562000262565b509392505050565b600082601f830112620002f157620002f06200018d565b5b8151620003038482602086016200028e565b91505092915050565b6000819050919050565b62000321816200030c565b81146200032d57600080fd5b50565b600081519050620003418162000316565b92915050565b600080600080600060a0868803121562000366576200036562000183565b5b600086015167ffffffffffffffff81111562000387576200038662000188565b5b6200039588828901620002d9565b955050602086015167ffffffffffffffff811115620003b957620003b862000188565b5b620003c788828901620002d9565b9450506040620003da8882890162000330565b9350506060620003ed8882890162000330565b925050608086015167ffffffffffffffff81111562000411576200041062000188565b5b6200041f88828901620002d9565b9150509295509295909350565b600081519050919050565b7f4e487b7100000000000000000000000000000000000000000000000000000000600052602260045260246000fd5b600060028204905060018216806200047f57607f821691505b60208210810362000495576200049462000437565b5b50919050565b60008190508160005260206000209050919050565b60006020601f8301049050919050565b600082821b905092915050565b600060088302620004ff7fffffffffffffffffffffffffffffffffffffffffffffffffffffffffffffffff82620004c0565b6200050b8683620004c0565b95508019841693508086168417925050509392505050565b6000819050919050565b60006200054e6200054862000542846200030c565b62000523565b6200030c565b9050919050565b6000819050919050565b6200056a836200052d565b62000582620005798262000555565b848454620004cd565b825550505050565b600090565b620005996200058a565b620005a68184846200055f565b505050565b5b81811015620005ce57620005c26000826200058f565b600181019050620005ac565b5050565b601f8211156200061d57620005e7816200049b565b620005f284620004b0565b8101602085101562000602578190505b6200061a6200061185620004b0565b830182620005ab565b50505b505050565b600082821c905092915050565b6000620006426000198460080262000622565b1980831691505092915050565b60006200065d83836200062f565b9150826002028217905092915050565b62000678826200042c565b67ffffffffffffffff811115620006945762000693620001a8565b5b620006a0825462000466565b620006ad828285620005d2565b600060209050601f831160018114620006e55760008415620006d0578287015190505b620006dc85826200064f565b8655506200074c565b601f198416620006f5866200049b565b60005b828110156200071f57848901518255600182019150602085019450602081019050620006f8565b868310156200073f57848901516200073b601f8916826200062f565b8355505b6001600288020188555050505b505050505050565b608051613abf620007706000396000610c930152613abf6000f3fe6080604052600436106101815760003560e01c8063715018a6116100d1578063b2bdfa7b1161008a578063dce1d56211610064578063dce1d56214610587578063e985e9c5146105b0578063f2fde38b146105ed578063f763240b1461061657610181565b8063b2bdfa7b146104f6578063b88d4fde14610521578063c87b56dd1461054a57610181565b8063715018a61461041b57806379c65068146104325780638417b47f1461044e5780638da5cb5b1461047757806395d89b41146104a2578063a22cb465146104cd57610181565b80632f745c591161013e57806342842e0e1161011857806342842e0e1461033b5780634f6ccce7146103645780636352211e146103a157806370a08231146103de57610181565b80632f745c59146102a857806335db70b5146102e5578063421a99881461031057610181565b806301ffc9a71461018657806306fdde03146101c3578063081812fc146101ee578063095ea7b31461022b57806318160ddd1461025457806323b872dd1461027f575b600080fd5b34801561019257600080fd5b506101ad60048036038101906101a89190612462565b610653565b6040516101ba91906124aa565b60405180910390f35b3480156101cf57600080fd5b506101d86106cd565b6040516101e59190612555565b60405180910390f35b3480156101fa57600080fd5b50610215600480360381019061021091906125ad565b61075f565b604051610222919061261b565b60405180910390f35b34801561023757600080fd5b50610252600480360381019061024d9190612662565b6107a5565b005b34801561026057600080fd5b506102696108bc565b60405161027691906126b1565b60405180910390f35b34801561028b57600080fd5b506102a660048036038101906102a191906126cc565b6108c9565b005b3480156102b457600080fd5b506102cf60048036038101906102ca9190612662565b610929565b6040516102dc91906126b1565b60405180910390f35b3480156102f157600080fd5b506102fa6109ce565b60405161030791906126b1565b60405180910390f35b34801561031c57600080fd5b506103256109d8565b6040516103329190612555565b60405180910390f35b34801561034757600080fd5b50610362600480360381019061035d91906126cc565b610a6a565b005b34801561037057600080fd5b5061038b600480360381019061038691906125ad565b610a8a565b60405161039891906126b1565b60405180910390f35b3480156103ad57600080fd5b506103c860048036038101906103c391906125ad565b610afb565b6040516103d5919061261b565b60405180910390f35b3480156103ea57600080fd5b506104056004803603810190610400919061271f565b610b81565b60405161041291906126b1565b60405180910390f35b34801561042757600080fd5b50610430610c38565b005b61044c60048036038101906104479190612662565b610c4c565b005b34801561045a57600080fd5b50610475600480360381019061047091906125ad565b610daa565b005b34801561048357600080fd5b5061048c610dbc565b604051610499919061261b565b60405180910390f35b3480156104ae57600080fd5b506104b7610de6565b6040516104c49190612555565b60405180910390f35b3480156104d957600080fd5b506104f460048036038101906104ef9190612778565b610e78565b005b34801561050257600080fd5b5061050b610e8e565b604051610518919061261b565b60405180910390f35b34801561052d57600080fd5b50610548600480360381019061054391906128ed565b610eb4565b005b34801561055657600080fd5b50610571600480360381019061056c91906125ad565b610f16565b60405161057e9190612555565b60405180910390f35b34801561059357600080fd5b506105ae60048036038101906105a99190612a11565b610f42565b005b3480156105bc57600080fd5b506105d760048036038101906105d29190612a5a565b610f5d565b6040516105e491906124aa565b60405180910390f35b3480156105f957600080fd5b50610614600480360381019061060f919061271f565b610ff1565b005b34801561062257600080fd5b5061063d6004803603810190610638919061271f565b611074565b60405161064a9190612b58565b60405180910390f35b60007f780e9d63000000000000000000000000000000000000000000000000000000007bffffffffffffffffffffffffffffffffffffffffffffffffffffffff1916827bffffffffffffffffffffffffffffffffffffffffffffffffffffffff191614806106c657506106c58261112f565b5b9050919050565b6060600080546106dc90612ba9565b80601f016020809104026020016040519081016040528092919081815260200182805461070890612ba9565b80156107555780601f1061072a57610100808354040283529160200191610755565b820191906000526020600020905b81548152906001019060200180831161073857829003601f168201915b5050505050905090565b600061076a82611211565b6004600083815260200190815260200160002060009054906101000a900473ffffffffffffffffffffffffffffffffffffffff169050919050565b60006107b082610afb565b90508073ffffffffffffffffffffffffffffffffffffffff168373ffffffffffffffffffffffffffffffffffffffff1603610820576040517f08c379a000000000000000000000000000000000000000000000000000000000815260040161081790612c4c565b60405180910390fd5b8073ffffffffffffffffffffffffffffffffffffffff1661083f61125c565b73ffffffffffffffffffffffffffffffffffffffff16148061086e575061086d8161086861125c565b610f5d565b5b6108ad576040517f08c379a00000000000000000000000000000000000000000000000000000000081526004016108a490612cde565b60405180910390fd5b6108b78383611264565b505050565b6000600880549050905090565b6108da6108d461125c565b8261131d565b610919576040517f08c379a000000000000000000000000000000000000000000000000000000000815260040161091090612d70565b60405180910390fd5b6109248383836113b2565b505050565b600061093483610b81565b8210610975576040517f08c379a000000000000000000000000000000000000000000000000000000000815260040161096c90612e02565b60405180910390fd5b600660008473ffffffffffffffffffffffffffffffffffffffff1673ffffffffffffffffffffffffffffffffffffffff168152602001908152602001600020600083815260200190815260200160002054905092915050565b6000600b54905090565b6060600c80546109e790612ba9565b80601f0160208091040260200160405190810160405280929190818152602001828054610a1390612ba9565b8015610a605780601f10610a3557610100808354040283529160200191610a60565b820191906000526020600020905b815481529060010190602001808311610a4357829003601f168201915b5050505050905090565b610a8583838360405180602001604052806000815250610eb4565b505050565b6000610a946108bc565b8210610ad5576040517f08c379a0000000000000000000000000000000000000000000000000000000008152600401610acc90612e94565b60405180910390fd5b60088281548110610ae957610ae8612eb4565b5b90600052602060002001549050919050565b600080610b07836116ab565b9050600073ffffffffffffffffffffffffffffffffffffffff168173ffffffffffffffffffffffffffffffffffffffff1603610b78576040517f08c379a0000000000000000000000000000000000000000000000000000000008152600401610b6f90612f2f565b60405180910390fd5b80915050919050565b60008073ffffffffffffffffffffffffffffffffffffffff168273ffffffffffffffffffffffffffffffffffffffff1603610bf1576040517f08c379a0000000000000000000000000000000000000000000000000000000008152600401610be890612fc1565b60405180910390fd5b600360008373ffffffffffffffffffffffffffffffffffffffff1673ffffffffffffffffffffffffffffffffffffffff168152602001908152602001600020549050919050565b610c406116e8565b610c4a6000611766565b565b34600b541115610c91576040517f08c379a0000000000000000000000000000000000000000000000000000000008152600401610c889061302d565b60405180910390fd5b7f0000000000000000000000000000000000000000000000000000000000000000610cba6108bc565b10610cfa576040517f08c379a0000000000000000000000000000000000000000000000000000000008152600401610cf190613099565b60405180910390fd5b808273ffffffffffffffffffffffffffffffffffffffff167f68deb7aa6ea42a0c04acd32ab0c58bb6134c7e51a3d74d827da1118677e47a7160405160405180910390a3610d46610dbc565b73ffffffffffffffffffffffffffffffffffffffff166108fc600b549081150290604051600060405180830381858888f19350505050158015610d8d573d6000803e3d6000fd5b50610d9c60008383600161182c565b610da6828261198a565b5050565b610db26116e8565b80600b8190555050565b6000600a60009054906101000a900473ffffffffffffffffffffffffffffffffffffffff16905090565b606060018054610df590612ba9565b80601f0160208091040260200160405190810160405280929190818152602001828054610e2190612ba9565b8015610e6e5780601f10610e4357610100808354040283529160200191610e6e565b820191906000526020600020905b815481529060010190602001808311610e5157829003601f168201915b5050505050905090565b610e8a610e8361125c565b8383611ba7565b5050565b600a60009054906101000a900473ffffffffffffffffffffffffffffffffffffffff1681565b610ec5610ebf61125c565b8361131d565b610f04576040517f08c379a0000000000000000000000000000000000000000000000000000000008152600401610efb90612d70565b60405180910390fd5b610f1084848484611d13565b50505050565b6060600c82604051602001610f2c92919061317d565b6040516020818303038152906040529050919050565b610f4a6116e8565b80600c9081610f59919061333c565b5050565b6000600560008473ffffffffffffffffffffffffffffffffffffffff1673ffffffffffffffffffffffffffffffffffffffff16815260200190815260200160002060008373ffffffffffffffffffffffffffffffffffffffff1673ffffffffffffffffffffffffffffffffffffffff16815260200190815260200160002060009054906101000a900460ff16905092915050565b610ff96116e8565b600073ffffffffffffffffffffffffffffffffffffffff168173ffffffffffffffffffffffffffffffffffffffff1603611068576040517f08c379a000000000000000000000000000000000000000000000000000000000815260040161105f90613480565b60405180910390fd5b61107181611766565b50565b6060600061108183610b81565b90506000811161109057600080fd5b60008167ffffffffffffffff8111156110ac576110ab6127c2565b5b6040519080825280602002602001820160405280156110da5781602001602082028036833780820191505090505b50905060005b82811015611124576110f28582610929565b82828151811061110557611104612eb4565b5b602002602001018181525050808061111c906134cf565b9150506110e0565b508092505050919050565b60007f80ac58cd000000000000000000000000000000000000000000000000000000007bffffffffffffffffffffffffffffffffffffffffffffffffffffffff1916827bffffffffffffffffffffffffffffffffffffffffffffffffffffffff191614806111fa57507f5b5e139f000000000000000000000000000000000000000000000000000000007bffffffffffffffffffffffffffffffffffffffffffffffffffffffff1916827bffffffffffffffffffffffffffffffffffffffffffffffffffffffff1916145b8061120a575061120982611d6f565b5b9050919050565b61121a81611dd9565b611259576040517f08c379a000000000000000000000000000000000000000000000000000000000815260040161125090612f2f565b60405180910390fd5b50565b600033905090565b816004600083815260200190815260200160002060006101000a81548173ffffffffffffffffffffffffffffffffffffffff021916908373ffffffffffffffffffffffffffffffffffffffff160217905550808273ffffffffffffffffffffffffffffffffffffffff166112d783610afb565b73ffffffffffffffffffffffffffffffffffffffff167f8c5be1e5ebec7d5bd14f71427d1e84f3dd0314c0f7b2291e5b200ac8c7c3b92560405160405180910390a45050565b60008061132983610afb565b90508073ffffffffffffffffffffffffffffffffffffffff168473ffffffffffffffffffffffffffffffffffffffff16148061136b575061136a8185610f5d565b5b806113a957508373ffffffffffffffffffffffffffffffffffffffff166113918461075f565b73ffffffffffffffffffffffffffffffffffffffff16145b91505092915050565b8273ffffffffffffffffffffffffffffffffffffffff166113d282610afb565b73ffffffffffffffffffffffffffffffffffffffff1614611428576040517f08c379a000000000000000000000000000000000000000000000000000000000815260040161141f90613589565b60405180910390fd5b600073ffffffffffffffffffffffffffffffffffffffff168273ffffffffffffffffffffffffffffffffffffffff1603611497576040517f08c379a000000000000000000000000000000000000000000000000000000000815260040161148e9061361b565b60405180910390fd5b6114a4838383600161182c565b8273ffffffffffffffffffffffffffffffffffffffff166114c482610afb565b73ffffffffffffffffffffffffffffffffffffffff161461151a576040517f08c379a000000000000000000000000000000000000000000000000000000000815260040161151190613589565b60405180910390fd5b6004600082815260200190815260200160002060006101000a81549073ffffffffffffffffffffffffffffffffffffffff02191690556001600360008573ffffffffffffffffffffffffffffffffffffffff1673ffffffffffffffffffffffffffffffffffffffff168152602001908152602001600020600082825403925050819055506001600360008473ffffffffffffffffffffffffffffffffffffffff1673ffffffffffffffffffffffffffffffffffffffff16815260200190815260200160002060008282540192505081905550816002600083815260200190815260200160002060006101000a81548173ffffffffffffffffffffffffffffffffffffffff021916908373ffffffffffffffffffffffffffffffffffffffff160217905550808273ffffffffffffffffffffffffffffffffffffffff168473ffffffffffffffffffffffffffffffffffffffff167fddf252ad1be2c89b69c2b068fc378daa952ba7f163c4a11628f55a4df523b3ef60405160405180910390a46116a68383836001611e1a565b505050565b60006002600083815260200190815260200160002060009054906101000a900473ffffffffffffffffffffffffffffffffffffffff169050919050565b6116f061125c565b73ffffffffffffffffffffffffffffffffffffffff1661170e610dbc565b73ffffffffffffffffffffffffffffffffffffffff1614611764576040517f08c379a000000000000000000000000000000000000000000000000000000000815260040161175b90613687565b60405180910390fd5b565b6000600a60009054906101000a900473ffffffffffffffffffffffffffffffffffffffff16905081600a60006101000a81548173ffffffffffffffffffffffffffffffffffffffff021916908373ffffffffffffffffffffffffffffffffffffffff1602179055508173ffffffffffffffffffffffffffffffffffffffff168173ffffffffffffffffffffffffffffffffffffffff167f8be0079c531659141344cd1fd0a4f28419497f9722a3daafe3b4186f6b6457e060405160405180910390a35050565b61183884848484611e20565b600181111561187c576040517f08c379a000000000000000000000000000000000000000000000000000000000815260040161187390613719565b60405180910390fd5b6000829050600073ffffffffffffffffffffffffffffffffffffffff168573ffffffffffffffffffffffffffffffffffffffff16036118c3576118be81611f46565b611902565b8373ffffffffffffffffffffffffffffffffffffffff168573ffffffffffffffffffffffffffffffffffffffff1614611901576119008582611f8f565b5b5b600073ffffffffffffffffffffffffffffffffffffffff168473ffffffffffffffffffffffffffffffffffffffff16036119445761193f816120fc565b611983565b8473ffffffffffffffffffffffffffffffffffffffff168473ffffffffffffffffffffffffffffffffffffffff16146119825761198184826121cd565b5b5b5050505050565b600073ffffffffffffffffffffffffffffffffffffffff168273ffffffffffffffffffffffffffffffffffffffff16036119f9576040517f08c379a00000000000000000000000000000000000000000000000000000000081526004016119f090613785565b60405180910390fd5b611a0281611dd9565b15611a42576040517f08c379a0000000000000000000000000000000000000000000000000000000008152600401611a39906137f1565b60405180910390fd5b611a5060008383600161182c565b611a5981611dd9565b15611a99576040517f08c379a0000000000000000000000000000000000000000000000000000000008152600401611a90906137f1565b60405180910390fd5b6001600360008473ffffffffffffffffffffffffffffffffffffffff1673ffffffffffffffffffffffffffffffffffffffff16815260200190815260200160002060008282540192505081905550816002600083815260200190815260200160002060006101000a81548173ffffffffffffffffffffffffffffffffffffffff021916908373ffffffffffffffffffffffffffffffffffffffff160217905550808273ffffffffffffffffffffffffffffffffffffffff16600073ffffffffffffffffffffffffffffffffffffffff167fddf252ad1be2c89b69c2b068fc378daa952ba7f163c4a11628f55a4df523b3ef60405160405180910390a4611ba3600083836001611e1a565b5050565b8173ffffffffffffffffffffffffffffffffffffffff168373ffffffffffffffffffffffffffffffffffffffff1603611c15576040517f08c379a0000000000000000000000000000000000000000000000000000000008152600401611c0c9061385d565b60405180910390fd5b80600560008573ffffffffffffffffffffffffffffffffffffffff1673ffffffffffffffffffffffffffffffffffffffff16815260200190815260200160002060008473ffffffffffffffffffffffffffffffffffffffff1673ffffffffffffffffffffffffffffffffffffffff16815260200190815260200160002060006101000a81548160ff0219169083151502179055508173ffffffffffffffffffffffffffffffffffffffff168373ffffffffffffffffffffffffffffffffffffffff167f17307eab39ab6107e8899845ad3d59bd9653f200f220920489ca2b5937696c3183604051611d0691906124aa565b60405180910390a3505050565b611d1e8484846113b2565b611d2a8484848461224c565b611d69576040517f08c379a0000000000000000000000000000000000000000000000000000000008152600401611d60906138ef565b60405180910390fd5b50505050565b60007f01ffc9a7000000000000000000000000000000000000000000000000000000007bffffffffffffffffffffffffffffffffffffffffffffffffffffffff1916827bffffffffffffffffffffffffffffffffffffffffffffffffffffffff1916149050919050565b60008073ffffffffffffffffffffffffffffffffffffffff16611dfb836116ab565b73ffffffffffffffffffffffffffffffffffffffff1614159050919050565b50505050565b6001811115611f4057600073ffffffffffffffffffffffffffffffffffffffff168473ffffffffffffffffffffffffffffffffffffffff1614611eb45780600360008673ffffffffffffffffffffffffffffffffffffffff1673ffffffffffffffffffffffffffffffffffffffff1681526020019081526020016000206000828254611eac919061390f565b925050819055505b600073ffffffffffffffffffffffffffffffffffffffff168373ffffffffffffffffffffffffffffffffffffffff1614611f3f5780600360008573ffffffffffffffffffffffffffffffffffffffff1673ffffffffffffffffffffffffffffffffffffffff1681526020019081526020016000206000828254611f379190613943565b925050819055505b5b50505050565b6008805490506009600083815260200190815260200160002081905550600881908060018154018082558091505060019003906000526020600020016000909190919091505550565b60006001611f9c84610b81565b611fa6919061390f565b905060006007600084815260200190815260200160002054905081811461208b576000600660008673ffffffffffffffffffffffffffffffffffffffff1673ffffffffffffffffffffffffffffffffffffffff168152602001908152602001600020600084815260200190815260200160002054905080600660008773ffffffffffffffffffffffffffffffffffffffff1673ffffffffffffffffffffffffffffffffffffffff168152602001908152602001600020600084815260200190815260200160002081905550816007600083815260200190815260200160002081905550505b6007600084815260200190815260200160002060009055600660008573ffffffffffffffffffffffffffffffffffffffff1673ffffffffffffffffffffffffffffffffffffffff16815260200190815260200160002060008381526020019081526020016000206000905550505050565b60006001600880549050612110919061390f565b90506000600960008481526020019081526020016000205490506000600883815481106121405761213f612eb4565b5b90600052602060002001549050806008838154811061216257612161612eb4565b5b9060005260206000200181905550816009600083815260200190815260200160002081905550600960008581526020019081526020016000206000905560088054806121b1576121b0613977565b5b6001900381819060005260206000200160009055905550505050565b60006121d883610b81565b905081600660008573ffffffffffffffffffffffffffffffffffffffff1673ffffffffffffffffffffffffffffffffffffffff168152602001908152602001600020600083815260200190815260200160002081905550806007600084815260200190815260200160002081905550505050565b600061226d8473ffffffffffffffffffffffffffffffffffffffff166123d3565b156123c6578373ffffffffffffffffffffffffffffffffffffffff1663150b7a0261229661125c565b8786866040518563ffffffff1660e01b81526004016122b894939291906139fb565b6020604051808303816000875af19250505080156122f457506040513d601f19601f820116820180604052508101906122f19190613a5c565b60015b612376573d8060008114612324576040519150601f19603f3d011682016040523d82523d6000602084013e612329565b606091505b50600081510361236e576040517f08c379a0000000000000000000000000000000000000000000000000000000008152600401612365906138ef565b60405180910390fd5b805181602001fd5b63150b7a0260e01b7bffffffffffffffffffffffffffffffffffffffffffffffffffffffff1916817bffffffffffffffffffffffffffffffffffffffffffffffffffffffff1916149150506123cb565b600190505b949350505050565b6000808273ffffffffffffffffffffffffffffffffffffffff163b119050919050565b6000604051905090565b600080fd5b600080fd5b60007fffffffff0000000000000000000000000000000000000000000000000000000082169050919050565b61243f8161240a565b811461244a57600080fd5b50565b60008135905061245c81612436565b92915050565b60006020828403121561247857612477612400565b5b60006124868482850161244d565b91505092915050565b60008115159050919050565b6124a48161248f565b82525050565b60006020820190506124bf600083018461249b565b92915050565b600081519050919050565b600082825260208201905092915050565b60005b838110156124ff5780820151818401526020810190506124e4565b60008484015250505050565b6000601f19601f8301169050919050565b6000612527826124c5565b61253181856124d0565b93506125418185602086016124e1565b61254a8161250b565b840191505092915050565b6000602082019050818103600083015261256f818461251c565b905092915050565b6000819050919050565b61258a81612577565b811461259557600080fd5b50565b6000813590506125a781612581565b92915050565b6000602082840312156125c3576125c2612400565b5b60006125d184828501612598565b91505092915050565b600073ffffffffffffffffffffffffffffffffffffffff82169050919050565b6000612605826125da565b9050919050565b612615816125fa565b82525050565b6000602082019050612630600083018461260c565b92915050565b61263f816125fa565b811461264a57600080fd5b50565b60008135905061265c81612636565b92915050565b6000806040838503121561267957612678612400565b5b60006126878582860161264d565b925050602061269885828601612598565b9150509250929050565b6126ab81612577565b82525050565b60006020820190506126c660008301846126a2565b92915050565b6000806000606084860312156126e5576126e4612400565b5b60006126f38682870161264d565b93505060206127048682870161264d565b925050604061271586828701612598565b9150509250925092565b60006020828403121561273557612734612400565b5b60006127438482850161264d565b91505092915050565b6127558161248f565b811461276057600080fd5b50565b6000813590506127728161274c565b92915050565b6000806040838503121561278f5761278e612400565b5b600061279d8582860161264d565b92505060206127ae85828601612763565b9150509250929050565b600080fd5b600080fd5b7f4e487b7100000000000000000000000000000000000000000000000000000000600052604160045260246000fd5b6127fa8261250b565b810181811067ffffffffffffffff82111715612819576128186127c2565b5b80604052505050565b600061282c6123f6565b905061283882826127f1565b919050565b600067ffffffffffffffff821115612858576128576127c2565b5b6128618261250b565b9050602081019050919050565b82818337600083830152505050565b600061289061288b8461283d565b612822565b9050828152602081018484840111156128ac576128ab6127bd565b5b6128b784828561286e565b509392505050565b600082601f8301126128d4576128d36127b8565b5b81356128e484826020860161287d565b91505092915050565b6000806000806080858703121561290757612906612400565b5b60006129158782880161264d565b94505060206129268782880161264d565b935050604061293787828801612598565b925050606085013567ffffffffffffffff81111561295857612957612405565b5b612964878288016128bf565b91505092959194509250565b600067ffffffffffffffff82111561298b5761298a6127c2565b5b6129948261250b565b9050602081019050919050565b60006129b46129af84612970565b612822565b9050828152602081018484840111156129d0576129cf6127bd565b5b6129db84828561286e565b509392505050565b600082601f8301126129f8576129f76127b8565b5b8135612a088482602086016129a1565b91505092915050565b600060208284031215612a2757612a26612400565b5b600082013567ffffffffffffffff811115612a4557612a44612405565b5b612a51848285016129e3565b91505092915050565b60008060408385031215612a7157612a70612400565b5b6000612a7f8582860161264d565b9250506020612a908582860161264d565b9150509250929050565b600081519050919050565b600082825260208201905092915050565b6000819050602082019050919050565b612acf81612577565b82525050565b6000612ae18383612ac6565b60208301905092915050565b6000602082019050919050565b6000612b0582612a9a565b612b0f8185612aa5565b9350612b1a83612ab6565b8060005b83811015612b4b578151612b328882612ad5565b9750612b3d83612aed565b925050600181019050612b1e565b5085935050505092915050565b60006020820190508181036000830152612b728184612afa565b905092915050565b7f4e487b7100000000000000000000000000000000000000000000000000000000600052602260045260246000fd5b60006002820490506001821680612bc157607f821691505b602082108103612bd457612bd3612b7a565b5b50919050565b7f4552433732313a20617070726f76616c20746f2063757272656e74206f776e6560008201527f7200000000000000000000000000000000000000000000000000000000000000602082015250565b6000612c366021836124d0565b9150612c4182612bda565b604082019050919050565b60006020820190508181036000830152612c6581612c29565b9050919050565b7f4552433732313a20617070726f76652063616c6c6572206973206e6f7420746f60008201527f6b656e206f776e6572206f7220617070726f76656420666f7220616c6c000000602082015250565b6000612cc8603d836124d0565b9150612cd382612c6c565b604082019050919050565b60006020820190508181036000830152612cf781612cbb565b9050919050565b7f4552433732313a2063616c6c6572206973206e6f7420746f6b656e206f776e6560008201527f72206f7220617070726f76656400000000000000000000000000000000000000602082015250565b6000612d5a602d836124d0565b9150612d6582612cfe565b604082019050919050565b60006020820190508181036000830152612d8981612d4d565b9050919050565b7f455243373231456e756d657261626c653a206f776e657220696e646578206f7560008201527f74206f6620626f756e6473000000000000000000000000000000000000000000602082015250565b6000612dec602b836124d0565b9150612df782612d90565b604082019050919050565b60006020820190508181036000830152612e1b81612ddf565b9050919050565b7f455243373231456e756d657261626c653a20676c6f62616c20696e646578206f60008201527f7574206f6620626f756e64730000000000000000000000000000000000000000602082015250565b6000612e7e602c836124d0565b9150612e8982612e22565b604082019050919050565b60006020820190508181036000830152612ead81612e71565b9050919050565b7f4e487b7100000000000000000000000000000000000000000000000000000000600052603260045260246000fd5b7f4552433732313a20696e76616c696420746f6b656e2049440000000000000000600082015250565b6000612f196018836124d0565b9150612f2482612ee3565b602082019050919050565b60006020820190508181036000830152612f4881612f0c565b9050919050565b7f4552433732313a2061646472657373207a65726f206973206e6f74206120766160008201527f6c6964206f776e65720000000000000000000000000000000000000000000000602082015250565b6000612fab6029836124d0565b9150612fb682612f4f565b604082019050919050565b60006020820190508181036000830152612fda81612f9e565b9050919050565b7f696e73756666696369656e74206d6f6e657920746f206d696e74000000000000600082015250565b6000613017601a836124d0565b915061302282612fe1565b602082019050919050565b600060208201905081810360008301526130468161300a565b9050919050565b7f657863656564696e6720746865206d6178696d756d2069737375616e63650000600082015250565b6000613083601e836124d0565b915061308e8261304d565b602082019050919050565b600060208201905081810360008301526130b281613076565b9050919050565b600081905092915050565b60008190508160005260206000209050919050565b600081546130e681612ba9565b6130f081866130b9565b9450600182166000811461310b576001811461312057613153565b60ff1983168652811515820286019350613153565b613129856130c4565b60005b8381101561314b5781548189015260018201915060208101905061312c565b838801955050505b50505092915050565b6000819050919050565b61317761317282612577565b61315c565b82525050565b600061318982856130d9565b91506131958284613166565b6020820191508190509392505050565b60006020601f8301049050919050565b600082821b905092915050565b6000600883026131f27fffffffffffffffffffffffffffffffffffffffffffffffffffffffffffffffff826131b5565b6131fc86836131b5565b95508019841693508086168417925050509392505050565b6000819050919050565b600061323961323461322f84612577565b613214565b612577565b9050919050565b6000819050919050565b6132538361321e565b61326761325f82613240565b8484546131c2565b825550505050565b600090565b61327c61326f565b61328781848461324a565b505050565b5b818110156132ab576132a0600082613274565b60018101905061328d565b5050565b601f8211156132f0576132c1816130c4565b6132ca846131a5565b810160208510156132d9578190505b6132ed6132e5856131a5565b83018261328c565b50505b505050565b600082821c905092915050565b6000613313600019846008026132f5565b1980831691505092915050565b600061332c8383613302565b9150826002028217905092915050565b613345826124c5565b67ffffffffffffffff81111561335e5761335d6127c2565b5b6133688254612ba9565b6133738282856132af565b600060209050601f8311600181146133a65760008415613394578287015190505b61339e8582613320565b865550613406565b601f1984166133b4866130c4565b60005b828110156133dc578489015182556001820191506020850194506020810190506133b7565b868310156133f957848901516133f5601f891682613302565b8355505b6001600288020188555050505b505050505050565b7f4f776e61626c653a206e6577206f776e657220697320746865207a65726f206160008201527f6464726573730000000000000000000000000000000000000000000000000000602082015250565b600061346a6026836124d0565b91506134758261340e565b604082019050919050565b600060208201905081810360008301526134998161345d565b9050919050565b7f4e487b7100000000000000000000000000000000000000000000000000000000600052601160045260246000fd5b60006134da82612577565b91507fffffffffffffffffffffffffffffffffffffffffffffffffffffffffffffffff820361350c5761350b6134a0565b5b600182019050919050565b7f4552433732313a207472616e736665722066726f6d20696e636f72726563742060008201527f6f776e6572000000000000000000000000000000000000000000000000000000602082015250565b60006135736025836124d0565b915061357e82613517565b604082019050919050565b600060208201905081810360008301526135a281613566565b9050919050565b7f4552433732313a207472616e7366657220746f20746865207a65726f2061646460008201527f7265737300000000000000000000000000000000000000000000000000000000602082015250565b60006136056024836124d0565b9150613610826135a9565b604082019050919050565b60006020820190508181036000830152613634816135f8565b9050919050565b7f4f776e61626c653a2063616c6c6572206973206e6f7420746865206f776e6572600082015250565b60006136716020836124d0565b915061367c8261363b565b602082019050919050565b600060208201905081810360008301526136a081613664565b9050919050565b7f455243373231456e756d657261626c653a20636f6e736563757469766520747260008201527f616e7366657273206e6f7420737570706f727465640000000000000000000000602082015250565b60006137036035836124d0565b915061370e826136a7565b604082019050919050565b60006020820190508181036000830152613732816136f6565b9050919050565b7f4552433732313a206d696e7420746f20746865207a65726f2061646472657373600082015250565b600061376f6020836124d0565b915061377a82613739565b602082019050919050565b6000602082019050818103600083015261379e81613762565b9050919050565b7f4552433732313a20746f6b656e20616c7265616479206d696e74656400000000600082015250565b60006137db601c836124d0565b91506137e6826137a5565b602082019050919050565b6000602082019050818103600083015261380a816137ce565b9050919050565b7f4552433732313a20617070726f766520746f2063616c6c657200000000000000600082015250565b60006138476019836124d0565b915061385282613811565b602082019050919050565b600060208201905081810360008301526138768161383a565b9050919050565b7f4552433732313a207472616e7366657220746f206e6f6e20455243373231526560008201527f63656976657220696d706c656d656e7465720000000000000000000000000000602082015250565b60006138d96032836124d0565b91506138e48261387d565b604082019050919050565b60006020820190508181036000830152613908816138cc565b9050919050565b600061391a82612577565b915061392583612577565b925082820390508181111561393d5761393c6134a0565b5b92915050565b600061394e82612577565b915061395983612577565b9250828201905080821115613971576139706134a0565b5b92915050565b7f4e487b7100000000000000000000000000000000000000000000000000000000600052603160045260246000fd5b600081519050919050565b600082825260208201905092915050565b60006139cd826139a6565b6139d781856139b1565b93506139e78185602086016124e1565b6139f08161250b565b840191505092915050565b6000608082019050613a10600083018761260c565b613a1d602083018661260c565b613a2a60408301856126a2565b8181036060830152613a3c81846139c2565b905095945050505050565b600081519050613a5681612436565b92915050565b600060208284031215613a7257613a71612400565b5b6000613a8084828501613a47565b9150509291505056fea2646970667358221220e2f459d7bee27ba643285b7d53abb8b01f0993879062b17d01caab30b3fc5c9064736f6c63430008110033",
  "immutableReferences": {
    "8130": [
      {
        "length": 32,
        "start": 3219
      }
    ]
  },
  "source": "// SPDX-License-Identifier: MIT\npragma solidity ^0.8.17;\n\n//  \n// import \"../node_modules/@openzeppelin/contracts/token/ERC721/extensions/ERC721Enumerable.sol\";\n// import \"../node_modules/@openzeppelin/contracts/access/Ownable.sol\";\n\n// remix  \nimport \"@openzeppelin/contracts/access/Ownable.sol\";\nimport \"@openzeppelin/contracts/token/ERC721/extensions/ERC721Enumerable.sol\";\n\n// NFT   \ncontract MintingNft is ERC721Enumerable, Ownable {\n\n    //   \n    uint immutable private _mintingLimit;\n\n    //        (  ..)\n    uint private _mintingPrice;\n\n    //   \n    string private _defaultPath;\n\n    constructor(string memory name_, string memory symbol_, uint mintingLimit_, uint mintingPrice_, string memory defaultPath_) ERC721(name_, symbol_) {\n        _mintingLimit = mintingLimit_;\n        _mintingPrice = mintingPrice_;\n        _defaultPath = defaultPath_;\n    }\n\n    //  EOA  \n    // owner() public\n\n    //   ,   indexed \n    event MintingToken(address indexed owner, uint indexed tokenId);\n\n    // json   tokenId  \n    function mintToken(address _owner, uint _tokenId) external payable {\n\n        // wei   ..\n        require(_mintingPrice <= msg.value, \"insufficient money to mint\");\n\n        //      \n        require(totalSupply() < _mintingLimit, \"exceeding the maximum issuance\");\n\n        emit MintingToken(_owner, _tokenId);\n\n        payable(owner()).transfer(_mintingPrice);\n\n        // ERC721Enumerable   \n        //         ..\n        _beforeTokenTransfer(address(0), _owner, _tokenId, 1);\n\n        // ERC721    ( id    )\n        _mint(_owner, _tokenId);\n    }\n\n    // _allTokens   id \n    // _allTokensIndex  id =>    \n    // _ownedTokens   => (   =>  id)\n    // _ownedTokensIndex  id =>     \n\n    //    \n    function getMyTokenIds(address _owner) external view returns (uint[] memory) {\n        \n        //   \n        uint count = balanceOf(_owner);\n        \n        require(count > 0);\n\n        uint[] memory tokenIds = new uint[](count);\n        \n        // for    ..\n        for (uint index = 0; index < count; index++)\n\n            // push  \n            tokenIds[index] = tokenOfOwnerByIndex(_owner, index);\n\n        return tokenIds;\n    }\n\n    //   ..\n    function setMintingPrice(uint _price) external onlyOwner {\n        _mintingPrice = _price;\n    }\n\n    function setDefaultPath(string memory defaultPath_) external onlyOwner {\n        _defaultPath = defaultPath_;\n    }\n\n    function mintingPrice() external view returns (uint) {\n        return _mintingPrice;\n    }\n\n    //    : defaultPath()/tokenId\n    function defaultPath() public view returns (string memory) {\n        return _defaultPath;\n    }\n\n    //     JSON        \n    function tokenURI(uint _tokenId) public view override returns (string memory) {\n        return string(abi.encodePacked(_defaultPath, _tokenId));\n    }\n\n    // totalSupply()   \n    // tokenByIndex(_index)      id  \n    \n    // onwerOf(_tokenId)     \n    // blanceOf(_owner)      \n    // tokenOfOwnerByIndex(_owner, _index)        id  \n}\n\n// npx truffle init\n// npm i openzeppelin-solidity\n// openzeppelin-solidity vs @openzeppelin/contracts\n// remixd -s . --remix-ide https://remix.ethereum.org",
  "sourcePath": "/Users/ssup/Desktop/BlockChain Academy/Project/NFT_TeamProject/blockChain/contracts/MintingNft.sol",
  "compiler": {
    "name": "solc",
    "version": "0.8.17+commit.8df45f5f.Emscripten.clang"
  },
  "schemaVersion": "3.4.11",
  "updatedAt": "2022-12-21T10:07:45.899Z",
  "networkType": "ethereum",
  "devdoc": {
    "kind": "dev",
    "methods": {
      "approve(address,uint256)": {
        "details": "See {IERC721-approve}."
      },
      "balanceOf(address)": {
        "details": "See {IERC721-balanceOf}."
      },
      "getApproved(uint256)": {
        "details": "See {IERC721-getApproved}."
      },
      "isApprovedForAll(address,address)": {
        "details": "See {IERC721-isApprovedForAll}."
      },
      "name()": {
        "details": "See {IERC721Metadata-name}."
      },
      "owner()": {
        "details": "Returns the address of the current owner."
      },
      "ownerOf(uint256)": {
        "details": "See {IERC721-ownerOf}."
      },
      "renounceOwnership()": {
        "details": "Leaves the contract without owner. It will not be possible to call `onlyOwner` functions anymore. Can only be called by the current owner. NOTE: Renouncing ownership will leave the contract without an owner, thereby removing any functionality that is only available to the owner."
      },
      "safeTransferFrom(address,address,uint256)": {
        "details": "See {IERC721-safeTransferFrom}."
      },
      "safeTransferFrom(address,address,uint256,bytes)": {
        "details": "See {IERC721-safeTransferFrom}."
      },
      "setApprovalForAll(address,bool)": {
        "details": "See {IERC721-setApprovalForAll}."
      },
      "supportsInterface(bytes4)": {
        "details": "See {IERC165-supportsInterface}."
      },
      "symbol()": {
        "details": "See {IERC721Metadata-symbol}."
      },
      "tokenByIndex(uint256)": {
        "details": "See {IERC721Enumerable-tokenByIndex}."
      },
      "tokenOfOwnerByIndex(address,uint256)": {
        "details": "See {IERC721Enumerable-tokenOfOwnerByIndex}."
      },
      "totalSupply()": {
        "details": "See {IERC721Enumerable-totalSupply}."
      },
      "transferFrom(address,address,uint256)": {
        "details": "See {IERC721-transferFrom}."
      },
      "transferOwnership(address)": {
        "details": "Transfers ownership of the contract to a new account (`newOwner`). Can only be called by the current owner."
      }
    },
    "version": 1
  },
  "userdoc": {
    "kind": "user",
    "methods": {},
    "version": 1
  }
}