{
  "contractName": "TestToken",
  "abi": [
    {
      "inputs": [
        {
          "internalType": "uint256",
          "name": "maxBatchSize_",
          "type": "uint256"
        },
        {
          "internalType": "uint256",
          "name": "collectionSize_",
          "type": "uint256"
        }
      ],
      "stateMutability": "nonpayable",
      "type": "constructor"
    },
    {
      "anonymous": false,
      "inputs": [
        {
          "indexed": true,
          "internalType": "address",
          "name": "owner",
          "type": "address"
        },
        {
          "indexed": true,
          "internalType": "address",
          "name": "approved",
          "type": "address"
        },
        {
          "indexed": true,
          "internalType": "uint256",
          "name": "tokenId",
          "type": "uint256"
        }
      ],
      "name": "Approval",
      "type": "event"
    },
    {
      "anonymous": false,
      "inputs": [
        {
          "indexed": true,
          "internalType": "address",
          "name": "owner",
          "type": "address"
        },
        {
          "indexed": true,
          "internalType": "address",
          "name": "operator",
          "type": "address"
        },
        {
          "indexed": false,
          "internalType": "bool",
          "name": "approved",
          "type": "bool"
        }
      ],
      "name": "ApprovalForAll",
      "type": "event"
    },
    {
      "anonymous": false,
      "inputs": [
        {
          "indexed": false,
          "internalType": "address",
          "name": "minter",
          "type": "address"
        },
        {
          "indexed": false,
          "internalType": "uint256",
          "name": "quantity",
          "type": "uint256"
        },
        {
          "indexed": false,
          "internalType": "uint256",
          "name": "totalSupply",
          "type": "uint256"
        }
      ],
      "name": "MintTestToken",
      "type": "event"
    },
    {
      "anonymous": false,
      "inputs": [
        {
          "indexed": true,
          "internalType": "address",
          "name": "previousOwner",
          "type": "address"
        },
        {
          "indexed": true,
          "internalType": "address",
          "name": "newOwner",
          "type": "address"
        }
      ],
      "name": "OwnershipTransferred",
      "type": "event"
    },
    {
      "anonymous": false,
      "inputs": [
        {
          "indexed": false,
          "internalType": "uint256",
          "name": "mintPrice",
          "type": "uint256"
        },
        {
          "indexed": false,
          "internalType": "bool",
          "name": "isMintOn",
          "type": "bool"
        }
      ],
      "name": "SetMintOn",
      "type": "event"
    },
    {
      "anonymous": false,
      "inputs": [
        {
          "indexed": true,
          "internalType": "address",
          "name": "from",
          "type": "address"
        },
        {
          "indexed": true,
          "internalType": "address",
          "name": "to",
          "type": "address"
        },
        {
          "indexed": true,
          "internalType": "uint256",
          "name": "tokenId",
          "type": "uint256"
        }
      ],
      "name": "Transfer",
      "type": "event"
    },
    {
      "inputs": [],
      "name": "_owner",
      "outputs": [
        {
          "internalType": "address",
          "name": "",
          "type": "address"
        }
      ],
      "stateMutability": "view",
      "type": "function",
      "constant": true
    },
    {
      "inputs": [
        {
          "internalType": "address",
          "name": "to",
          "type": "address"
        },
        {
          "internalType": "uint256",
          "name": "tokenId",
          "type": "uint256"
        }
      ],
      "name": "approve",
      "outputs": [],
      "stateMutability": "nonpayable",
      "type": "function"
    },
    {
      "inputs": [
        {
          "internalType": "address",
          "name": "owner",
          "type": "address"
        }
      ],
      "name": "balanceOf",
      "outputs": [
        {
          "internalType": "uint256",
          "name": "",
          "type": "uint256"
        }
      ],
      "stateMutability": "view",
      "type": "function",
      "constant": true
    },
    {
      "inputs": [
        {
          "internalType": "uint256",
          "name": "tokenId",
          "type": "uint256"
        }
      ],
      "name": "getApproved",
      "outputs": [
        {
          "internalType": "address",
          "name": "",
          "type": "address"
        }
      ],
      "stateMutability": "view",
      "type": "function",
      "constant": true
    },
    {
      "inputs": [
        {
          "internalType": "address",
          "name": "owner",
          "type": "address"
        },
        {
          "internalType": "address",
          "name": "operator",
          "type": "address"
        }
      ],
      "name": "isApprovedForAll",
      "outputs": [
        {
          "internalType": "bool",
          "name": "",
          "type": "bool"
        }
      ],
      "stateMutability": "view",
      "type": "function",
      "constant": true
    },
    {
      "inputs": [],
      "name": "maxAmountPerMint",
      "outputs": [
        {
          "internalType": "uint256",
          "name": "",
          "type": "uint256"
        }
      ],
      "stateMutability": "view",
      "type": "function",
      "constant": true
    },
    {
      "inputs": [],
      "name": "mintPrice",
      "outputs": [
        {
          "internalType": "uint256",
          "name": "",
          "type": "uint256"
        }
      ],
      "stateMutability": "view",
      "type": "function",
      "constant": true
    },
    {
      "inputs": [],
      "name": "name",
      "outputs": [
        {
          "internalType": "string",
          "name": "",
          "type": "string"
        }
      ],
      "stateMutability": "view",
      "type": "function",
      "constant": true
    },
    {
      "inputs": [],
      "name": "nextOwnerToExplicitlySet",
      "outputs": [
        {
          "internalType": "uint256",
          "name": "",
          "type": "uint256"
        }
      ],
      "stateMutability": "view",
      "type": "function",
      "constant": true
    },
    {
      "inputs": [],
      "name": "owner",
      "outputs": [
        {
          "internalType": "address",
          "name": "",
          "type": "address"
        }
      ],
      "stateMutability": "view",
      "type": "function",
      "constant": true
    },
    {
      "inputs": [
        {
          "internalType": "uint256",
          "name": "tokenId",
          "type": "uint256"
        }
      ],
      "name": "ownerOf",
      "outputs": [
        {
          "internalType": "address",
          "name": "",
          "type": "address"
        }
      ],
      "stateMutability": "view",
      "type": "function",
      "constant": true
    },
    {
      "inputs": [],
      "name": "renounceOwnership",
      "outputs": [],
      "stateMutability": "nonpayable",
      "type": "function"
    },
    {
      "inputs": [
        {
          "internalType": "address",
          "name": "from",
          "type": "address"
        },
        {
          "internalType": "address",
          "name": "to",
          "type": "address"
        },
        {
          "internalType": "uint256",
          "name": "tokenId",
          "type": "uint256"
        }
      ],
      "name": "safeTransferFrom",
      "outputs": [],
      "stateMutability": "nonpayable",
      "type": "function"
    },
    {
      "inputs": [
        {
          "internalType": "address",
          "name": "from",
          "type": "address"
        },
        {
          "internalType": "address",
          "name": "to",
          "type": "address"
        },
        {
          "internalType": "uint256",
          "name": "tokenId",
          "type": "uint256"
        },
        {
          "internalType": "bytes",
          "name": "_data",
          "type": "bytes"
        }
      ],
      "name": "safeTransferFrom",
      "outputs": [],
      "stateMutability": "nonpayable",
      "type": "function"
    },
    {
      "inputs": [
        {
          "internalType": "address",
          "name": "operator",
          "type": "address"
        },
        {
          "internalType": "bool",
          "name": "approved",
          "type": "bool"
        }
      ],
      "name": "setApprovalForAll",
      "outputs": [],
      "stateMutability": "nonpayable",
      "type": "function"
    },
    {
      "inputs": [
        {
          "internalType": "bytes4",
          "name": "interfaceId",
          "type": "bytes4"
        }
      ],
      "name": "supportsInterface",
      "outputs": [
        {
          "internalType": "bool",
          "name": "",
          "type": "bool"
        }
      ],
      "stateMutability": "view",
      "type": "function",
      "constant": true
    },
    {
      "inputs": [],
      "name": "symbol",
      "outputs": [
        {
          "internalType": "string",
          "name": "",
          "type": "string"
        }
      ],
      "stateMutability": "view",
      "type": "function",
      "constant": true
    },
    {
      "inputs": [
        {
          "internalType": "uint256",
          "name": "index",
          "type": "uint256"
        }
      ],
      "name": "tokenByIndex",
      "outputs": [
        {
          "internalType": "uint256",
          "name": "",
          "type": "uint256"
        }
      ],
      "stateMutability": "view",
      "type": "function",
      "constant": true
    },
    {
      "inputs": [
        {
          "internalType": "address",
          "name": "owner",
          "type": "address"
        },
        {
          "internalType": "uint256",
          "name": "index",
          "type": "uint256"
        }
      ],
      "name": "tokenOfOwnerByIndex",
      "outputs": [
        {
          "internalType": "uint256",
          "name": "",
          "type": "uint256"
        }
      ],
      "stateMutability": "view",
      "type": "function",
      "constant": true
    },
    {
      "inputs": [
        {
          "internalType": "uint256",
          "name": "tokenId",
          "type": "uint256"
        }
      ],
      "name": "tokenURI",
      "outputs": [
        {
          "internalType": "string",
          "name": "",
          "type": "string"
        }
      ],
      "stateMutability": "view",
      "type": "function",
      "constant": true
    },
    {
      "inputs": [],
      "name": "totalSupply",
      "outputs": [
        {
          "internalType": "uint256",
          "name": "",
          "type": "uint256"
        }
      ],
      "stateMutability": "view",
      "type": "function",
      "constant": true
    },
    {
      "inputs": [
        {
          "internalType": "address",
          "name": "from",
          "type": "address"
        },
        {
          "internalType": "address",
          "name": "to",
          "type": "address"
        },
        {
          "internalType": "uint256",
          "name": "tokenId",
          "type": "uint256"
        }
      ],
      "name": "transferFrom",
      "outputs": [],
      "stateMutability": "nonpayable",
      "type": "function"
    },
    {
      "inputs": [
        {
          "internalType": "address",
          "name": "newOwner",
          "type": "address"
        }
      ],
      "name": "transferOwnership",
      "outputs": [],
      "stateMutability": "nonpayable",
      "type": "function"
    },
    {
      "inputs": [
        {
          "internalType": "uint256",
          "name": "price",
          "type": "uint256"
        }
      ],
      "name": "setMintOn",
      "outputs": [],
      "stateMutability": "nonpayable",
      "type": "function"
    },
    {
      "inputs": [],
      "name": "isMintOn",
      "outputs": [
        {
          "internalType": "bool",
          "name": "",
          "type": "bool"
        }
      ],
      "stateMutability": "view",
      "type": "function",
      "constant": true
    },
    {
      "inputs": [
        {
          "internalType": "uint256",
          "name": "quantity",
          "type": "uint256"
        }
      ],
      "name": "mintTestToken",
      "outputs": [],
      "stateMutability": "payable",
      "type": "function",
      "payable": true
    },
    {
      "inputs": [
        {
          "internalType": "string",
          "name": "baseURI",
          "type": "string"
        }
      ],
      "name": "setBaseURI",
      "outputs": [],
      "stateMutability": "nonpayable",
      "type": "function"
    },
    {
      "inputs": [],
      "name": "withdrawAll",
      "outputs": [],
      "stateMutability": "nonpayable",
      "type": "function"
    },
    {
      "inputs": [],
      "name": "maxSupply",
      "outputs": [
        {
          "internalType": "uint256",
          "name": "",
          "type": "uint256"
        }
      ],
      "stateMutability": "view",
      "type": "function",
      "constant": true
    },
    {
      "inputs": [
        {
          "internalType": "address",
          "name": "owner",
          "type": "address"
        }
      ],
      "name": "tokensOfOwner",
      "outputs": [
        {
          "internalType": "uint256[]",
          "name": "",
          "type": "uint256[]"
        }
      ],
      "stateMutability": "view",
      "type": "function",
      "constant": true
    }
  ],
  "bytecode": "0x60e0604052600160005560006007556040518060400160405280601681526020017f687474703a2f2f6c6f63616c686f73743a343030302f00000000000000000000815250600b90816200005491906200053a565b503480156200006257600080fd5b506040516200510838038062005108833981810160405281019062000088919062000657565b6040518060400160405280600481526020017f53656f70000000000000000000000000000000000000000000000000000000008152506040518060400160405280600381526020017f53455000000000000000000000000000000000000000000000000000000000008152508383600081116200013c576040517f08c379a0000000000000000000000000000000000000000000000000000000008152600401620001339062000725565b60405180910390fd5b6000821162000182576040517f08c379a00000000000000000000000000000000000000000000000000000000081526004016200017990620007bd565b60405180910390fd5b83600190816200019391906200053a565b508260029081620001a591906200053a565b508160a08181525050806080818152505050505050620001da620001ce620001f260201b60201c565b620001fa60201b60201c565b60016009819055508160c081815250505050620007df565b600033905090565b6000600860009054906101000a900473ffffffffffffffffffffffffffffffffffffffff16905081600860006101000a81548173ffffffffffffffffffffffffffffffffffffffff021916908373ffffffffffffffffffffffffffffffffffffffff1602179055508173ffffffffffffffffffffffffffffffffffffffff168173ffffffffffffffffffffffffffffffffffffffff167f8be0079c531659141344cd1fd0a4f28419497f9722a3daafe3b4186f6b6457e060405160405180910390a35050565b600081519050919050565b7f4e487b7100000000000000000000000000000000000000000000000000000000600052604160045260246000fd5b7f4e487b7100000000000000000000000000000000000000000000000000000000600052602260045260246000fd5b600060028204905060018216806200034257607f821691505b602082108103620003585762000357620002fa565b5b50919050565b60008190508160005260206000209050919050565b60006020601f8301049050919050565b600082821b905092915050565b600060088302620003c27fffffffffffffffffffffffffffffffffffffffffffffffffffffffffffffffff8262000383565b620003ce868362000383565b95508019841693508086168417925050509392505050565b6000819050919050565b6000819050919050565b60006200041b620004156200040f84620003e6565b620003f0565b620003e6565b9050919050565b6000819050919050565b6200043783620003fa565b6200044f620004468262000422565b84845462000390565b825550505050565b600090565b6200046662000457565b620004738184846200042c565b505050565b5b818110156200049b576200048f6000826200045c565b60018101905062000479565b5050565b601f821115620004ea57620004b4816200035e565b620004bf8462000373565b81016020851015620004cf578190505b620004e7620004de8562000373565b83018262000478565b50505b505050565b600082821c905092915050565b60006200050f60001984600802620004ef565b1980831691505092915050565b60006200052a8383620004fc565b9150826002028217905092915050565b6200054582620002c0565b67ffffffffffffffff811115620005615762000560620002cb565b5b6200056d825462000329565b6200057a8282856200049f565b600060209050601f831160018114620005b257600084156200059d578287015190505b620005a985826200051c565b86555062000619565b601f198416620005c2866200035e565b60005b82811015620005ec57848901518255600182019150602085019450602081019050620005c5565b868310156200060c578489015162000608601f891682620004fc565b8355505b6001600288020188555050505b505050505050565b600080fd5b6200063181620003e6565b81146200063d57600080fd5b50565b600081519050620006518162000626565b92915050565b6000806040838503121562000671576200067062000621565b5b6000620006818582860162000640565b9250506020620006948582860162000640565b9150509250929050565b600082825260208201905092915050565b7f455243373231413a20636f6c6c656374696f6e206d757374206861766520612060008201527f6e6f6e7a65726f20737570706c79000000000000000000000000000000000000602082015250565b60006200070d602e836200069e565b91506200071a82620006af565b604082019050919050565b600060208201905081810360008301526200074081620006fe565b9050919050565b7f455243373231413a206d61782062617463682073697a65206d7573742062652060008201527f6e6f6e7a65726f00000000000000000000000000000000000000000000000000602082015250565b6000620007a56027836200069e565b9150620007b28262000747565b604082019050919050565b60006020820190508181036000830152620007d88162000796565b9050919050565b60805160a05160c0516148dd6200082b60003960008181610ad80152610e67015260008181611f4d01528181611f7601526125ec015260008181610eca015261165201526148dd6000f3fe6080604052600436106101cd5760003560e01c806370a08231116100f7578063aa7f90b011610095578063d5abeb0111610064578063d5abeb011461067b578063d7224ba0146106a6578063e985e9c5146106d1578063f2fde38b1461070e576101cd565b8063aa7f90b0146105c1578063b2bdfa7b146105ea578063b88d4fde14610615578063c87b56dd1461063e576101cd565b8063853828b6116100d1578063853828b61461052b5780638da5cb5b1461054257806395d89b411461056d578063a22cb46514610598576101cd565b806370a082311461049a578063715018a6146104d75780638462151c146104ee576101cd565b80632f745c591161016f5780636352211e1161013e5780636352211e146103eb5780636817c76c146104285780636e060624146104535780636edfed2e1461047e576101cd565b80632f745c591461031f57806342842e0e1461035c5780634f6ccce71461038557806355f804b3146103c2576101cd565b8063095ea7b3116101ab578063095ea7b31461027757806318160ddd146102a057806323b872dd146102cb57806327acc76d146102f4576101cd565b806301ffc9a7146101d257806306fdde031461020f578063081812fc1461023a575b600080fd5b3480156101de57600080fd5b506101f960048036038101906101f49190612c26565b610737565b6040516102069190612c6e565b60405180910390f35b34801561021b57600080fd5b50610224610881565b6040516102319190612d19565b60405180910390f35b34801561024657600080fd5b50610261600480360381019061025c9190612d71565b610913565b60405161026e9190612ddf565b60405180910390f35b34801561028357600080fd5b5061029e60048036038101906102999190612e26565b610998565b005b3480156102ac57600080fd5b506102b5610ab0565b6040516102c29190612e75565b60405180910390f35b3480156102d757600080fd5b506102f260048036038101906102ed9190612e90565b610ac6565b005b34801561030057600080fd5b50610309610ad6565b6040516103169190612e75565b60405180910390f35b34801561032b57600080fd5b5061034660048036038101906103419190612e26565b610afa565b6040516103539190612e75565b60405180910390f35b34801561036857600080fd5b50610383600480360381019061037e9190612e90565b610cf9565b005b34801561039157600080fd5b506103ac60048036038101906103a79190612d71565b610d19565b6040516103b99190612e75565b60405180910390f35b3480156103ce57600080fd5b506103e960048036038101906103e49190613018565b610d6c565b005b3480156103f757600080fd5b50610412600480360381019061040d9190612d71565b610d87565b60405161041f9190612ddf565b60405180910390f35b34801561043457600080fd5b5061043d610d9d565b60405161044a9190612e75565b60405180910390f35b34801561045f57600080fd5b50610468610da3565b6040516104759190612c6e565b60405180910390f35b61049860048036038101906104939190612d71565b610db0565b005b3480156104a657600080fd5b506104c160048036038101906104bc9190613061565b610fdb565b6040516104ce9190612e75565b60405180910390f35b3480156104e357600080fd5b506104ec6110c3565b005b3480156104fa57600080fd5b5061051560048036038101906105109190613061565b6110d7565b604051610522919061314c565b60405180910390f35b34801561053757600080fd5b5061054061118b565b005b34801561054e57600080fd5b50610557611252565b6040516105649190612ddf565b60405180910390f35b34801561057957600080fd5b5061058261127c565b60405161058f9190612d19565b60405180910390f35b3480156105a457600080fd5b506105bf60048036038101906105ba919061319a565b61130e565b005b3480156105cd57600080fd5b506105e860048036038101906105e39190612d71565b61148e565b005b3480156105f657600080fd5b506105ff611525565b60405161060c9190612ddf565b60405180910390f35b34801561062157600080fd5b5061063c6004803603810190610637919061327b565b61154b565b005b34801561064a57600080fd5b5061066560048036038101906106609190612d71565b6115a7565b6040516106729190612d19565b60405180910390f35b34801561068757600080fd5b5061069061164e565b60405161069d9190612e75565b60405180910390f35b3480156106b257600080fd5b506106bb611676565b6040516106c89190612e75565b60405180910390f35b3480156106dd57600080fd5b506106f860048036038101906106f391906132fe565b61167c565b6040516107059190612c6e565b60405180910390f35b34801561071a57600080fd5b5061073560048036038101906107309190613061565b611710565b005b60007f80ac58cd000000000000000000000000000000000000000000000000000000007bffffffffffffffffffffffffffffffffffffffffffffffffffffffff1916827bffffffffffffffffffffffffffffffffffffffffffffffffffffffff1916148061080257507f5b5e139f000000000000000000000000000000000000000000000000000000007bffffffffffffffffffffffffffffffffffffffffffffffffffffffff1916827bffffffffffffffffffffffffffffffffffffffffffffffffffffffff1916145b8061086a57507f780e9d63000000000000000000000000000000000000000000000000000000007bffffffffffffffffffffffffffffffffffffffffffffffffffffffff1916827bffffffffffffffffffffffffffffffffffffffffffffffffffffffff1916145b8061087a575061087982611793565b5b9050919050565b6060600180546108909061336d565b80601f01602080910402602001604051908101604052809291908181526020018280546108bc9061336d565b80156109095780601f106108de57610100808354040283529160200191610909565b820191906000526020600020905b8154815290600101906020018083116108ec57829003601f168201915b5050505050905090565b600061091e826117fd565b61095d576040517f08c379a000000000000000000000000000000000000000000000000000000000815260040161095490613410565b60405180910390fd5b6005600083815260200190815260200160002060009054906101000a900473ffffffffffffffffffffffffffffffffffffffff169050919050565b60006109a382610d87565b90508073ffffffffffffffffffffffffffffffffffffffff168373ffffffffffffffffffffffffffffffffffffffff1603610a13576040517f08c379a0000000000000000000000000000000000000000000000000000000008152600401610a0a906134a2565b60405180910390fd5b8073ffffffffffffffffffffffffffffffffffffffff16610a3261180a565b73ffffffffffffffffffffffffffffffffffffffff161480610a615750610a6081610a5b61180a565b61167c565b5b610aa0576040517f08c379a0000000000000000000000000000000000000000000000000000000008152600401610a9790613534565b60405180910390fd5b610aab838383611812565b505050565b60006001600054610ac19190613583565b905090565b610ad18383836118c4565b505050565b7f000000000000000000000000000000000000000000000000000000000000000081565b6000610b0583610fdb565b8210610b46576040517f08c379a0000000000000000000000000000000000000000000000000000000008152600401610b3d90613629565b60405180910390fd5b6000610b50610ab0565b90506000806000600190505b838111610cb7576000600360008381526020019081526020016000206040518060400160405290816000820160009054906101000a900473ffffffffffffffffffffffffffffffffffffffff1673ffffffffffffffffffffffffffffffffffffffff1673ffffffffffffffffffffffffffffffffffffffff1681526020016000820160149054906101000a900467ffffffffffffffff1667ffffffffffffffff1667ffffffffffffffff16815250509050600073ffffffffffffffffffffffffffffffffffffffff16816000015173ffffffffffffffffffffffffffffffffffffffff1614610c4d57806000015192505b8773ffffffffffffffffffffffffffffffffffffffff168373ffffffffffffffffffffffffffffffffffffffff1603610ca357868403610c94578195505050505050610cf3565b8380610c9f90613649565b9450505b508080610caf90613649565b915050610b5c565b506040517f08c379a0000000000000000000000000000000000000000000000000000000008152600401610cea90613703565b60405180910390fd5b92915050565b610d148383836040518060200160405280600081525061154b565b505050565b6000610d23610ab0565b8210610d64576040517f08c379a0000000000000000000000000000000000000000000000000000000008152600401610d5b90613795565b60405180910390fd5b819050919050565b610d74611e7b565b80600b9081610d839190613961565b5050565b6000610d9282611ef9565b600001519050919050565b600a5481565b600080600a541415905090565b3373ffffffffffffffffffffffffffffffffffffffff163273ffffffffffffffffffffffffffffffffffffffff1614610e1e576040517f08c379a0000000000000000000000000000000000000000000000000000000008152600401610e1590613a7f565b60405180910390fd5b610e26610da3565b610e65576040517f08c379a0000000000000000000000000000000000000000000000000000000008152600401610e5c90613aeb565b60405180910390fd5b7f0000000000000000000000000000000000000000000000000000000000000000811115610ec8576040517f08c379a0000000000000000000000000000000000000000000000000000000008152600401610ebf90613b57565b60405180910390fd5b7f000000000000000000000000000000000000000000000000000000000000000081610ef2610ab0565b610efc9190613b77565b1115610f3d576040517f08c379a0000000000000000000000000000000000000000000000000000000008152600401610f3490613bf7565b60405180910390fd5b600a5481610f4b9190613c17565b3414610f8c576040517f08c379a0000000000000000000000000000000000000000000000000000000008152600401610f8390613ca5565b60405180910390fd5b610f9633826120fc565b7fd9c99e30d5f0d6f7dd3ef921d6895beddfc3b60646cfcd6996791c5166e2c79e3382610fc1610ab0565b604051610fd093929190613cc5565b60405180910390a150565b60008073ffffffffffffffffffffffffffffffffffffffff168273ffffffffffffffffffffffffffffffffffffffff160361104b576040517f08c379a000000000000000000000000000000000000000000000000000000000815260040161104290613d6e565b60405180910390fd5b600460008373ffffffffffffffffffffffffffffffffffffffff1673ffffffffffffffffffffffffffffffffffffffff16815260200190815260200160002060000160009054906101000a90046fffffffffffffffffffffffffffffffff166fffffffffffffffffffffffffffffffff169050919050565b6110cb611e7b565b6110d5600061211a565b565b606060006110e483610fdb565b905060008167ffffffffffffffff81111561110257611101612eed565b5b6040519080825280602002602001820160405280156111305781602001602082028036833780820191505090505b50905060005b8281101561118057600061114a8683610afa565b9050808383815181106111605761115f613d8e565b5b60200260200101818152505050808061117890613649565b915050611136565b508092505050919050565b611193611e7b565b61119b6121e0565b60003373ffffffffffffffffffffffffffffffffffffffff16476040516111c190613dee565b60006040518083038185875af1925050503d80600081146111fe576040519150601f19603f3d011682016040523d82523d6000602084013e611203565b606091505b5050905080611247576040517f08c379a000000000000000000000000000000000000000000000000000000000815260040161123e90613e4f565b60405180910390fd5b5061125061222f565b565b6000600860009054906101000a900473ffffffffffffffffffffffffffffffffffffffff16905090565b60606002805461128b9061336d565b80601f01602080910402602001604051908101604052809291908181526020018280546112b79061336d565b80156113045780601f106112d957610100808354040283529160200191611304565b820191906000526020600020905b8154815290600101906020018083116112e757829003601f168201915b5050505050905090565b61131661180a565b73ffffffffffffffffffffffffffffffffffffffff168273ffffffffffffffffffffffffffffffffffffffff1603611383576040517f08c379a000000000000000000000000000000000000000000000000000000000815260040161137a90613ebb565b60405180910390fd5b806006600061139061180a565b73ffffffffffffffffffffffffffffffffffffffff1673ffffffffffffffffffffffffffffffffffffffff16815260200190815260200160002060008473ffffffffffffffffffffffffffffffffffffffff1673ffffffffffffffffffffffffffffffffffffffff16815260200190815260200160002060006101000a81548160ff0219169083151502179055508173ffffffffffffffffffffffffffffffffffffffff1661143d61180a565b73ffffffffffffffffffffffffffffffffffffffff167f17307eab39ab6107e8899845ad3d59bd9653f200f220920489ca2b5937696c31836040516114829190612c6e565b60405180910390a35050565b611496611e7b565b600081116114d9576040517f08c379a00000000000000000000000000000000000000000000000000000000081526004016114d090613f27565b60405180910390fd5b80600a819055507fa90bff0aceea45301d0f327bedcaa08f4704297dfd3c9937dcdd580a6435b9d8600a5461150c610da3565b60405161151a929190613f47565b60405180910390a150565b600860009054906101000a900473ffffffffffffffffffffffffffffffffffffffff1681565b6115568484846118c4565b61156284848484612239565b6115a1576040517f08c379a000000000000000000000000000000000000000000000000000000000815260040161159890613fe2565b60405180910390fd5b50505050565b60606115b2826117fd565b6115f1576040517f08c379a00000000000000000000000000000000000000000000000000000000081526004016115e890614074565b60405180910390fd5b60006115fb6123c0565b9050600081511161161b5760405180602001604052806000815250611646565b8061162584612452565b6040516020016116369291906140d0565b6040516020818303038152906040525b915050919050565b60007f0000000000000000000000000000000000000000000000000000000000000000905090565b60075481565b6000600660008473ffffffffffffffffffffffffffffffffffffffff1673ffffffffffffffffffffffffffffffffffffffff16815260200190815260200160002060008373ffffffffffffffffffffffffffffffffffffffff1673ffffffffffffffffffffffffffffffffffffffff16815260200190815260200160002060009054906101000a900460ff16905092915050565b611718611e7b565b600073ffffffffffffffffffffffffffffffffffffffff168173ffffffffffffffffffffffffffffffffffffffff1603611787576040517f08c379a000000000000000000000000000000000000000000000000000000000815260040161177e90614166565b60405180910390fd5b6117908161211a565b50565b60007f01ffc9a7000000000000000000000000000000000000000000000000000000007bffffffffffffffffffffffffffffffffffffffffffffffffffffffff1916827bffffffffffffffffffffffffffffffffffffffffffffffffffffffff1916149050919050565b6000805482109050919050565b600033905090565b826005600084815260200190815260200160002060006101000a81548173ffffffffffffffffffffffffffffffffffffffff021916908373ffffffffffffffffffffffffffffffffffffffff160217905550818373ffffffffffffffffffffffffffffffffffffffff168273ffffffffffffffffffffffffffffffffffffffff167f8c5be1e5ebec7d5bd14f71427d1e84f3dd0314c0f7b2291e5b200ac8c7c3b92560405160405180910390a4505050565b60006118cf82611ef9565b90506000816000015173ffffffffffffffffffffffffffffffffffffffff166118f661180a565b73ffffffffffffffffffffffffffffffffffffffff161480611952575061191b61180a565b73ffffffffffffffffffffffffffffffffffffffff1661193a84610913565b73ffffffffffffffffffffffffffffffffffffffff16145b8061196e575061196d826000015161196861180a565b61167c565b5b9050806119b0576040517f08c379a00000000000000000000000000000000000000000000000000000000081526004016119a7906141f8565b60405180910390fd5b8473ffffffffffffffffffffffffffffffffffffffff16826000015173ffffffffffffffffffffffffffffffffffffffff1614611a22576040517f08c379a0000000000000000000000000000000000000000000000000000000008152600401611a199061428a565b60405180910390fd5b600073ffffffffffffffffffffffffffffffffffffffff168473ffffffffffffffffffffffffffffffffffffffff1603611a91576040517f08c379a0000000000000000000000000000000000000000000000000000000008152600401611a889061431c565b60405180910390fd5b611a9e8585856001612520565b611aae6000848460000151611812565b6001600460008773ffffffffffffffffffffffffffffffffffffffff1673ffffffffffffffffffffffffffffffffffffffff16815260200190815260200160002060000160008282829054906101000a90046fffffffffffffffffffffffffffffffff16611b1c9190614358565b92506101000a8154816fffffffffffffffffffffffffffffffff02191690836fffffffffffffffffffffffffffffffff1602179055506001600460008673ffffffffffffffffffffffffffffffffffffffff1673ffffffffffffffffffffffffffffffffffffffff16815260200190815260200160002060000160008282829054906101000a90046fffffffffffffffffffffffffffffffff16611bc0919061439c565b92506101000a8154816fffffffffffffffffffffffffffffffff02191690836fffffffffffffffffffffffffffffffff16021790555060405180604001604052808573ffffffffffffffffffffffffffffffffffffffff1681526020014267ffffffffffffffff168152506003600085815260200190815260200160002060008201518160000160006101000a81548173ffffffffffffffffffffffffffffffffffffffff021916908373ffffffffffffffffffffffffffffffffffffffff16021790555060208201518160000160146101000a81548167ffffffffffffffff021916908367ffffffffffffffff1602179055509050506000600184611cc69190613b77565b9050600073ffffffffffffffffffffffffffffffffffffffff166003600083815260200190815260200160002060000160009054906101000a900473ffffffffffffffffffffffffffffffffffffffff1673ffffffffffffffffffffffffffffffffffffffff1603611e0b57611d3b816117fd565b15611e0a576040518060400160405280846000015173ffffffffffffffffffffffffffffffffffffffff168152602001846020015167ffffffffffffffff168152506003600083815260200190815260200160002060008201518160000160006101000a81548173ffffffffffffffffffffffffffffffffffffffff021916908373ffffffffffffffffffffffffffffffffffffffff16021790555060208201518160000160146101000a81548167ffffffffffffffff021916908367ffffffffffffffff1602179055509050505b5b838573ffffffffffffffffffffffffffffffffffffffff168773ffffffffffffffffffffffffffffffffffffffff167fddf252ad1be2c89b69c2b068fc378daa952ba7f163c4a11628f55a4df523b3ef60405160405180910390a4611e738686866001612526565b505050505050565b611e8361180a565b73ffffffffffffffffffffffffffffffffffffffff16611ea1611252565b73ffffffffffffffffffffffffffffffffffffffff1614611ef7576040517f08c379a0000000000000000000000000000000000000000000000000000000008152600401611eee9061442c565b60405180910390fd5b565b611f01612b80565b611f0a826117fd565b611f49576040517f08c379a0000000000000000000000000000000000000000000000000000000008152600401611f40906144be565b60405180910390fd5b60007f00000000000000000000000000000000000000000000000000000000000000008310611fad5760017f000000000000000000000000000000000000000000000000000000000000000084611fa09190613583565b611faa9190613b77565b90505b60008390505b8181106120bb576000600360008381526020019081526020016000206040518060400160405290816000820160009054906101000a900473ffffffffffffffffffffffffffffffffffffffff1673ffffffffffffffffffffffffffffffffffffffff1673ffffffffffffffffffffffffffffffffffffffff1681526020016000820160149054906101000a900467ffffffffffffffff1667ffffffffffffffff1667ffffffffffffffff16815250509050600073ffffffffffffffffffffffffffffffffffffffff16816000015173ffffffffffffffffffffffffffffffffffffffff16146120a7578093505050506120f7565b5080806120b3906144de565b915050611fb3565b506040517f08c379a00000000000000000000000000000000000000000000000000000000081526004016120ee90614579565b60405180910390fd5b919050565b61211682826040518060200160405280600081525061252c565b5050565b6000600860009054906101000a900473ffffffffffffffffffffffffffffffffffffffff16905081600860006101000a81548173ffffffffffffffffffffffffffffffffffffffff021916908373ffffffffffffffffffffffffffffffffffffffff1602179055508173ffffffffffffffffffffffffffffffffffffffff168173ffffffffffffffffffffffffffffffffffffffff167f8be0079c531659141344cd1fd0a4f28419497f9722a3daafe3b4186f6b6457e060405160405180910390a35050565b600260095403612225576040517f08c379a000000000000000000000000000000000000000000000000000000000815260040161221c906145e5565b60405180910390fd5b6002600981905550565b6001600981905550565b600061225a8473ffffffffffffffffffffffffffffffffffffffff16612a0a565b156123b3578373ffffffffffffffffffffffffffffffffffffffff1663150b7a0261228361180a565b8786866040518563ffffffff1660e01b81526004016122a5949392919061465a565b6020604051808303816000875af19250505080156122e157506040513d601f19601f820116820180604052508101906122de91906146bb565b60015b612363573d8060008114612311576040519150601f19603f3d011682016040523d82523d6000602084013e612316565b606091505b50600081510361235b576040517f08c379a000000000000000000000000000000000000000000000000000000000815260040161235290613fe2565b60405180910390fd5b805181602001fd5b63150b7a0260e01b7bffffffffffffffffffffffffffffffffffffffffffffffffffffffff1916817bffffffffffffffffffffffffffffffffffffffffffffffffffffffff1916149150506123b8565b600190505b949350505050565b6060600b80546123cf9061336d565b80601f01602080910402602001604051908101604052809291908181526020018280546123fb9061336d565b80156124485780601f1061241d57610100808354040283529160200191612448565b820191906000526020600020905b81548152906001019060200180831161242b57829003601f168201915b5050505050905090565b60606000600161246184612a2d565b01905060008167ffffffffffffffff8111156124805761247f612eed565b5b6040519080825280601f01601f1916602001820160405280156124b25781602001600182028036833780820191505090505b509050600082602001820190505b600115612515578080600190039150507f3031323334353637383961626364656600000000000000000000000000000000600a86061a8153600a8581612509576125086146e8565b5b049450600085036124c0575b819350505050919050565b50505050565b50505050565b600080549050600073ffffffffffffffffffffffffffffffffffffffff168473ffffffffffffffffffffffffffffffffffffffff16036125a1576040517f08c379a000000000000000000000000000000000000000000000000000000000815260040161259890614789565b60405180910390fd5b6125aa816117fd565b156125ea576040517f08c379a00000000000000000000000000000000000000000000000000000000081526004016125e1906147f5565b60405180910390fd5b7f000000000000000000000000000000000000000000000000000000000000000083111561264d576040517f08c379a000000000000000000000000000000000000000000000000000000000815260040161264490614887565b60405180910390fd5b61265a6000858386612520565b6000600460008673ffffffffffffffffffffffffffffffffffffffff1673ffffffffffffffffffffffffffffffffffffffff1681526020019081526020016000206040518060400160405290816000820160009054906101000a90046fffffffffffffffffffffffffffffffff166fffffffffffffffffffffffffffffffff166fffffffffffffffffffffffffffffffff1681526020016000820160109054906101000a90046fffffffffffffffffffffffffffffffff166fffffffffffffffffffffffffffffffff166fffffffffffffffffffffffffffffffff168152505090506040518060400160405280858360000151612757919061439c565b6fffffffffffffffffffffffffffffffff16815260200185836020015161277e919061439c565b6fffffffffffffffffffffffffffffffff16815250600460008773ffffffffffffffffffffffffffffffffffffffff1673ffffffffffffffffffffffffffffffffffffffff16815260200190815260200160002060008201518160000160006101000a8154816fffffffffffffffffffffffffffffffff02191690836fffffffffffffffffffffffffffffffff16021790555060208201518160000160106101000a8154816fffffffffffffffffffffffffffffffff02191690836fffffffffffffffffffffffffffffffff16021790555090505060405180604001604052808673ffffffffffffffffffffffffffffffffffffffff1681526020014267ffffffffffffffff168152506003600084815260200190815260200160002060008201518160000160006101000a81548173ffffffffffffffffffffffffffffffffffffffff021916908373ffffffffffffffffffffffffffffffffffffffff16021790555060208201518160000160146101000a81548167ffffffffffffffff021916908367ffffffffffffffff160217905550905050600082905060005b858110156129ed57818773ffffffffffffffffffffffffffffffffffffffff16600073ffffffffffffffffffffffffffffffffffffffff167fddf252ad1be2c89b69c2b068fc378daa952ba7f163c4a11628f55a4df523b3ef60405160405180910390a461298d6000888488612239565b6129cc576040517f08c379a00000000000000000000000000000000000000000000000000000000081526004016129c390613fe2565b60405180910390fd5b81806129d790613649565b92505080806129e590613649565b91505061291c565b5080600081905550612a026000878588612526565b505050505050565b6000808273ffffffffffffffffffffffffffffffffffffffff163b119050919050565b600080600090507a184f03e93ff9f4daa797ed6e38ed64bf6a1f0100000000000000008310612a8b577a184f03e93ff9f4daa797ed6e38ed64bf6a1f0100000000000000008381612a8157612a806146e8565b5b0492506040810190505b6d04ee2d6d415b85acef81000000008310612ac8576d04ee2d6d415b85acef81000000008381612abe57612abd6146e8565b5b0492506020810190505b662386f26fc100008310612af757662386f26fc100008381612aed57612aec6146e8565b5b0492506010810190505b6305f5e1008310612b20576305f5e1008381612b1657612b156146e8565b5b0492506008810190505b6127108310612b45576127108381612b3b57612b3a6146e8565b5b0492506004810190505b60648310612b685760648381612b5e57612b5d6146e8565b5b0492506002810190505b600a8310612b77576001810190505b80915050919050565b6040518060400160405280600073ffffffffffffffffffffffffffffffffffffffff168152602001600067ffffffffffffffff1681525090565b6000604051905090565b600080fd5b600080fd5b60007fffffffff0000000000000000000000000000000000000000000000000000000082169050919050565b612c0381612bce565b8114612c0e57600080fd5b50565b600081359050612c2081612bfa565b92915050565b600060208284031215612c3c57612c3b612bc4565b5b6000612c4a84828501612c11565b91505092915050565b60008115159050919050565b612c6881612c53565b82525050565b6000602082019050612c836000830184612c5f565b92915050565b600081519050919050565b600082825260208201905092915050565b60005b83811015612cc3578082015181840152602081019050612ca8565b60008484015250505050565b6000601f19601f8301169050919050565b6000612ceb82612c89565b612cf58185612c94565b9350612d05818560208601612ca5565b612d0e81612ccf565b840191505092915050565b60006020820190508181036000830152612d338184612ce0565b905092915050565b6000819050919050565b612d4e81612d3b565b8114612d5957600080fd5b50565b600081359050612d6b81612d45565b92915050565b600060208284031215612d8757612d86612bc4565b5b6000612d9584828501612d5c565b91505092915050565b600073ffffffffffffffffffffffffffffffffffffffff82169050919050565b6000612dc982612d9e565b9050919050565b612dd981612dbe565b82525050565b6000602082019050612df46000830184612dd0565b92915050565b612e0381612dbe565b8114612e0e57600080fd5b50565b600081359050612e2081612dfa565b92915050565b60008060408385031215612e3d57612e3c612bc4565b5b6000612e4b85828601612e11565b9250506020612e5c85828601612d5c565b9150509250929050565b612e6f81612d3b565b82525050565b6000602082019050612e8a6000830184612e66565b92915050565b600080600060608486031215612ea957612ea8612bc4565b5b6000612eb786828701612e11565b9350506020612ec886828701612e11565b9250506040612ed986828701612d5c565b9150509250925092565b600080fd5b600080fd5b7f4e487b7100000000000000000000000000000000000000000000000000000000600052604160045260246000fd5b612f2582612ccf565b810181811067ffffffffffffffff82111715612f4457612f43612eed565b5b80604052505050565b6000612f57612bba565b9050612f638282612f1c565b919050565b600067ffffffffffffffff821115612f8357612f82612eed565b5b612f8c82612ccf565b9050602081019050919050565b82818337600083830152505050565b6000612fbb612fb684612f68565b612f4d565b905082815260208101848484011115612fd757612fd6612ee8565b5b612fe2848285612f99565b509392505050565b600082601f830112612fff57612ffe612ee3565b5b813561300f848260208601612fa8565b91505092915050565b60006020828403121561302e5761302d612bc4565b5b600082013567ffffffffffffffff81111561304c5761304b612bc9565b5b61305884828501612fea565b91505092915050565b60006020828403121561307757613076612bc4565b5b600061308584828501612e11565b91505092915050565b600081519050919050565b600082825260208201905092915050565b6000819050602082019050919050565b6130c381612d3b565b82525050565b60006130d583836130ba565b60208301905092915050565b6000602082019050919050565b60006130f98261308e565b6131038185613099565b935061310e836130aa565b8060005b8381101561313f57815161312688826130c9565b9750613131836130e1565b925050600181019050613112565b5085935050505092915050565b6000602082019050818103600083015261316681846130ee565b905092915050565b61317781612c53565b811461318257600080fd5b50565b6000813590506131948161316e565b92915050565b600080604083850312156131b1576131b0612bc4565b5b60006131bf85828601612e11565b92505060206131d085828601613185565b9150509250929050565b600067ffffffffffffffff8211156131f5576131f4612eed565b5b6131fe82612ccf565b9050602081019050919050565b600061321e613219846131da565b612f4d565b90508281526020810184848401111561323a57613239612ee8565b5b613245848285612f99565b509392505050565b600082601f83011261326257613261612ee3565b5b813561327284826020860161320b565b91505092915050565b6000806000806080858703121561329557613294612bc4565b5b60006132a387828801612e11565b94505060206132b487828801612e11565b93505060406132c587828801612d5c565b925050606085013567ffffffffffffffff8111156132e6576132e5612bc9565b5b6132f28782880161324d565b91505092959194509250565b6000806040838503121561331557613314612bc4565b5b600061332385828601612e11565b925050602061333485828601612e11565b9150509250929050565b7f4e487b7100000000000000000000000000000000000000000000000000000000600052602260045260246000fd5b6000600282049050600182168061338557607f821691505b6020821081036133985761339761333e565b5b50919050565b7f455243373231413a20617070726f76656420717565727920666f72206e6f6e6560008201527f78697374656e7420746f6b656e00000000000000000000000000000000000000602082015250565b60006133fa602d83612c94565b91506134058261339e565b604082019050919050565b60006020820190508181036000830152613429816133ed565b9050919050565b7f455243373231413a20617070726f76616c20746f2063757272656e74206f776e60008201527f6572000000000000000000000000000000000000000000000000000000000000602082015250565b600061348c602283612c94565b915061349782613430565b604082019050919050565b600060208201905081810360008301526134bb8161347f565b9050919050565b7f455243373231413a20617070726f76652063616c6c6572206973206e6f74206f60008201527f776e6572206e6f7220617070726f76656420666f7220616c6c00000000000000602082015250565b600061351e603983612c94565b9150613529826134c2565b604082019050919050565b6000602082019050818103600083015261354d81613511565b9050919050565b7f4e487b7100000000000000000000000000000000000000000000000000000000600052601160045260246000fd5b600061358e82612d3b565b915061359983612d3b565b92508282039050818111156135b1576135b0613554565b5b92915050565b7f455243373231413a206f776e657220696e646578206f7574206f6620626f756e60008201527f6473000000000000000000000000000000000000000000000000000000000000602082015250565b6000613613602283612c94565b915061361e826135b7565b604082019050919050565b6000602082019050818103600083015261364281613606565b9050919050565b600061365482612d3b565b91507fffffffffffffffffffffffffffffffffffffffffffffffffffffffffffffffff820361368657613685613554565b5b600182019050919050565b7f455243373231413a20756e61626c6520746f2067657420746f6b656e206f662060008201527f6f776e657220627920696e646578000000000000000000000000000000000000602082015250565b60006136ed602e83612c94565b91506136f882613691565b604082019050919050565b6000602082019050818103600083015261371c816136e0565b9050919050565b7f455243373231413a20676c6f62616c20696e646578206f7574206f6620626f7560008201527f6e64730000000000000000000000000000000000000000000000000000000000602082015250565b600061377f602383612c94565b915061378a82613723565b604082019050919050565b600060208201905081810360008301526137ae81613772565b9050919050565b60008190508160005260206000209050919050565b60006020601f8301049050919050565b600082821b905092915050565b6000600883026138177fffffffffffffffffffffffffffffffffffffffffffffffffffffffffffffffff826137da565b61382186836137da565b95508019841693508086168417925050509392505050565b6000819050919050565b600061385e61385961385484612d3b565b613839565b612d3b565b9050919050565b6000819050919050565b61387883613843565b61388c61388482613865565b8484546137e7565b825550505050565b600090565b6138a1613894565b6138ac81848461386f565b505050565b5b818110156138d0576138c5600082613899565b6001810190506138b2565b5050565b601f821115613915576138e6816137b5565b6138ef846137ca565b810160208510156138fe578190505b61391261390a856137ca565b8301826138b1565b50505b505050565b600082821c905092915050565b60006139386000198460080261391a565b1980831691505092915050565b60006139518383613927565b9150826002028217905092915050565b61396a82612c89565b67ffffffffffffffff81111561398357613982612eed565b5b61398d825461336d565b6139988282856138d4565b600060209050601f8311600181146139cb57600084156139b9578287015190505b6139c38582613945565b865550613a2b565b601f1984166139d9866137b5565b60005b82811015613a01578489015182556001820191506020850194506020810190506139dc565b86831015613a1e5784890151613a1a601f891682613927565b8355505b6001600288020188555050505b505050505050565b7f5468652063616c6c657220697320616e6f7468657220636f6e74726163740000600082015250565b6000613a69601e83612c94565b9150613a7482613a33565b602082019050919050565b60006020820190508181036000830152613a9881613a5c565b9050919050565b7f73616c6520686173206e6f7420626567756e2079657400000000000000000000600082015250565b6000613ad5601683612c94565b9150613ae082613a9f565b602082019050919050565b60006020820190508181036000830152613b0481613ac8565b9050919050565b7f63616e206e6f74206d696e74207468697320616d6f756e74206174206f6e6365600082015250565b6000613b41602083612c94565b9150613b4c82613b0b565b602082019050919050565b60006020820190508181036000830152613b7081613b34565b9050919050565b6000613b8282612d3b565b9150613b8d83612d3b565b9250828201905080821115613ba557613ba4613554565b5b92915050565b7f6e6f7420656e6f7567682072656d61696e696720616d6f756e74730000000000600082015250565b6000613be1601b83612c94565b9150613bec82613bab565b602082019050919050565b60006020820190508181036000830152613c1081613bd4565b9050919050565b6000613c2282612d3b565b9150613c2d83612d3b565b9250828202613c3b81612d3b565b91508282048414831517613c5257613c51613554565b5b5092915050565b7f70617920646f73656e2774206d61746368210000000000000000000000000000600082015250565b6000613c8f601283612c94565b9150613c9a82613c59565b602082019050919050565b60006020820190508181036000830152613cbe81613c82565b9050919050565b6000606082019050613cda6000830186612dd0565b613ce76020830185612e66565b613cf46040830184612e66565b949350505050565b7f455243373231413a2062616c616e636520717565727920666f7220746865207a60008201527f65726f2061646472657373000000000000000000000000000000000000000000602082015250565b6000613d58602b83612c94565b9150613d6382613cfc565b604082019050919050565b60006020820190508181036000830152613d8781613d4b565b9050919050565b7f4e487b7100000000000000000000000000000000000000000000000000000000600052603260045260246000fd5b600081905092915050565b50565b6000613dd8600083613dbd565b9150613de382613dc8565b600082019050919050565b6000613df982613dcb565b9150819050919050565b7f57697468647261776c204661696c640000000000000000000000000000000000600082015250565b6000613e39600f83612c94565b9150613e4482613e03565b602082019050919050565b60006020820190508181036000830152613e6881613e2c565b9050919050565b7f455243373231413a20617070726f766520746f2063616c6c6572000000000000600082015250565b6000613ea5601a83612c94565b9150613eb082613e6f565b602082019050919050565b60006020820190508181036000830152613ed481613e98565b9050919050565b7f73616c65207072696365206d7573742067726561746572207468616e20300000600082015250565b6000613f11601e83612c94565b9150613f1c82613edb565b602082019050919050565b60006020820190508181036000830152613f4081613f04565b9050919050565b6000604082019050613f5c6000830185612e66565b613f696020830184612c5f565b9392505050565b7f455243373231413a207472616e7366657220746f206e6f6e204552433732315260008201527f6563656976657220696d706c656d656e74657200000000000000000000000000602082015250565b6000613fcc603383612c94565b9150613fd782613f70565b604082019050919050565b60006020820190508181036000830152613ffb81613fbf565b9050919050565b7f4552433732314d657461646174613a2055524920717565727920666f72206e6f60008201527f6e6578697374656e7420746f6b656e0000000000000000000000000000000000602082015250565b600061405e602f83612c94565b915061406982614002565b604082019050919050565b6000602082019050818103600083015261408d81614051565b9050919050565b600081905092915050565b60006140aa82612c89565b6140b48185614094565b93506140c4818560208601612ca5565b80840191505092915050565b60006140dc828561409f565b91506140e8828461409f565b91508190509392505050565b7f4f776e61626c653a206e6577206f776e657220697320746865207a65726f206160008201527f6464726573730000000000000000000000000000000000000000000000000000602082015250565b6000614150602683612c94565b915061415b826140f4565b604082019050919050565b6000602082019050818103600083015261417f81614143565b9050919050565b7f455243373231413a207472616e736665722063616c6c6572206973206e6f742060008201527f6f776e6572206e6f7220617070726f7665640000000000000000000000000000602082015250565b60006141e2603283612c94565b91506141ed82614186565b604082019050919050565b60006020820190508181036000830152614211816141d5565b9050919050565b7f455243373231413a207472616e736665722066726f6d20696e636f727265637460008201527f206f776e65720000000000000000000000000000000000000000000000000000602082015250565b6000614274602683612c94565b915061427f82614218565b604082019050919050565b600060208201905081810360008301526142a381614267565b9050919050565b7f455243373231413a207472616e7366657220746f20746865207a65726f20616460008201527f6472657373000000000000000000000000000000000000000000000000000000602082015250565b6000614306602583612c94565b9150614311826142aa565b604082019050919050565b60006020820190508181036000830152614335816142f9565b9050919050565b60006fffffffffffffffffffffffffffffffff82169050919050565b60006143638261433c565b915061436e8361433c565b925082820390506fffffffffffffffffffffffffffffffff81111561439657614395613554565b5b92915050565b60006143a78261433c565b91506143b28361433c565b925082820190506fffffffffffffffffffffffffffffffff8111156143da576143d9613554565b5b92915050565b7f4f776e61626c653a2063616c6c6572206973206e6f7420746865206f776e6572600082015250565b6000614416602083612c94565b9150614421826143e0565b602082019050919050565b6000602082019050818103600083015261444581614409565b9050919050565b7f455243373231413a206f776e657220717565727920666f72206e6f6e6578697360008201527f74656e7420746f6b656e00000000000000000000000000000000000000000000602082015250565b60006144a8602a83612c94565b91506144b38261444c565b604082019050919050565b600060208201905081810360008301526144d78161449b565b9050919050565b60006144e982612d3b565b9150600082036144fc576144fb613554565b5b600182039050919050565b7f455243373231413a20756e61626c6520746f2064657465726d696e652074686560008201527f206f776e6572206f6620746f6b656e0000000000000000000000000000000000602082015250565b6000614563602f83612c94565b915061456e82614507565b604082019050919050565b6000602082019050818103600083015261459281614556565b9050919050565b7f5265656e7472616e637947756172643a207265656e7472616e742063616c6c00600082015250565b60006145cf601f83612c94565b91506145da82614599565b602082019050919050565b600060208201905081810360008301526145fe816145c2565b9050919050565b600081519050919050565b600082825260208201905092915050565b600061462c82614605565b6146368185614610565b9350614646818560208601612ca5565b61464f81612ccf565b840191505092915050565b600060808201905061466f6000830187612dd0565b61467c6020830186612dd0565b6146896040830185612e66565b818103606083015261469b8184614621565b905095945050505050565b6000815190506146b581612bfa565b92915050565b6000602082840312156146d1576146d0612bc4565b5b60006146df848285016146a6565b91505092915050565b7f4e487b7100000000000000000000000000000000000000000000000000000000600052601260045260246000fd5b7f455243373231413a206d696e7420746f20746865207a65726f2061646472657360008201527f7300000000000000000000000000000000000000000000000000000000000000602082015250565b6000614773602183612c94565b915061477e82614717565b604082019050919050565b600060208201905081810360008301526147a281614766565b9050919050565b7f455243373231413a20746f6b656e20616c7265616479206d696e746564000000600082015250565b60006147df601d83612c94565b91506147ea826147a9565b602082019050919050565b6000602082019050818103600083015261480e816147d2565b9050919050565b7f455243373231413a207175616e7469747920746f206d696e7420746f6f20686960008201527f6768000000000000000000000000000000000000000000000000000000000000602082015250565b6000614871602283612c94565b915061487c82614815565b604082019050919050565b600060208201905081810360008301526148a081614864565b905091905056fea26469706673582212204b58682e66f5c30e9274aceed02d95f26cbda0463fd57e833f8b7eeaa9ca01ab64736f6c63430008110033",
  "immutableReferences": {
    "8353": [
      {
        "length": 32,
        "start": 2776
      },
      {
        "length": 32,
        "start": 3687
      }
    ],
    "10683": [
      {
        "length": 32,
        "start": 3786
      },
      {
        "length": 32,
        "start": 5714
      }
    ],
    "10685": [
      {
        "length": 32,
        "start": 8013
      },
      {
        "length": 32,
        "start": 8054
      },
      {
        "length": 32,
        "start": 9708
      }
    ]
  },
  "source": "// SPDX-License-Identifier: MIT\npragma solidity ^0.8.17;\n\n// import \"../node_modules/@openzeppelin/contracts/token/ERC721/ERC721.sol\";\nimport \"../standards/ERC721A.sol\";\nimport \"../node_modules/@openzeppelin/contracts/utils/Strings.sol\";\nimport \"../node_modules/@openzeppelin/contracts/access/Ownable.sol\";\nimport \"../node_modules/@openzeppelin/contracts/security/ReentrancyGuard.sol\";\n// import \"../node_modules/@openzeppelin/contracts/utils/Context.sol\";\n\n\ncontract TestToken is  ERC721A, Ownable, ReentrancyGuard {\n    using Strings for uint256; // Strings \n    uint256 public immutable maxAmountPerMint;\n    uint256 public mintPrice;\n\n    event MintTestToken(address minter, uint256 quantity, uint256 totalSupply);\n    event SetMintOn(uint256 mintPrice, bool isMintOn);\n\n    constructor(uint256 maxBatchSize_, uint256 collectionSize_) ERC721A(\"Seop\", \"SEP\", maxBatchSize_, collectionSize_) {\n     maxAmountPerMint = maxBatchSize_;\n    }\n\n    modifier callerIsUser() {\n      //  CA EOA  \n      require(tx.origin == msg.sender, \"The caller is another contract\");\n      _;\n    }\n\n    function setMintOn(uint256 price) external onlyOwner {\n      // wei \n      require(price > 0,\"sale price must greater than 0\");\n      mintPrice = price;\n      emit SetMintOn(mintPrice, isMintOn());\n    }\n\n    function isMintOn() public view returns(bool) {\n      return mintPrice != 0; \n    }\n\n    function mintTestToken(uint256 quantity) external payable callerIsUser {\n      require(isMintOn(),\"sale has not begun yet\");\n      require(quantity <= maxAmountPerMint, \"can not mint this amount at once\"); //    \n      require(ERC721A.totalSupply() + quantity <= ERC721A.collectionSize, \"not enough remainig amounts\"); //   \n      require(msg.value == quantity * mintPrice, \"pay dosen't match!\");\n      ERC721A._safeMint(msg.sender, quantity);\n      emit MintTestToken(msg.sender, quantity, ERC721A.totalSupply());\n    }\n\n    string private _baseTokenURI = \"http://localhost:4000/\";\n\n  //   function tokenURI(uint256 tokenId)\n  //   public\n  //   view\n  //   override\n  //   returns (string memory)\n  // {\n  //   require(\n  //     _exists(tokenId),\n  //     \"ERC721Metadata: URI query for nonexistent token\"\n  //   );\n\n  //   string memory baseURI = _baseURI();\n  //   return\n  //     bytes(baseURI).length > 0\n  //       ? string(abi.encodePacked(baseURI, tokenId.toString()))\n  //       : \"\";\n  // }\n\n    function _baseURI() internal override view returns(string memory){\n      return _baseTokenURI;\n    }\n  \n    function setBaseURI(string memory baseURI) external onlyOwner {\n      _baseTokenURI = baseURI;\n    }\n    // tokenURI ERC721A   \n    //  _baseURI    baseURI \n    // tokenURI  _baseURI    tokenURI  return.\n\n    function withdrawAll() external onlyOwner nonReentrant {\n      // nonReentrant modifier  ?     .\n      // payable(msg.sender).transfer(address(this).balance);\n      (bool success, ) = msg.sender.call{value:address(this).balance}(\"\");\n      require(success, \"Withdrawl Faild\");\n    }\n\n    function maxSupply() view external returns(uint256) {\n      return ERC721A.collectionSize;\n    }\n    \n    function tokensOfOwner(address owner) view external returns(uint256[] memory) {\n      uint256 ownerBalance = ERC721A.balanceOf(owner);\n      uint256[] memory tokens = new uint256[](ownerBalance); //  \n      for (uint256 ind = 0; ind < ownerBalance; ind++) {\n        uint256 tokenId = tokenOfOwnerByIndex(owner, ind); // IERC721Enumerable \n        tokens[ind] = tokenId;\n      }\n      return tokens;\n    }\n\n}\n",
  "sourcePath": "/Users/ssup/Desktop/BlockChain Academy/Project/NFT_TeamProject/blockChain/contracts/TestToken.sol",
  "compiler": {
    "name": "solc",
    "version": "0.8.17+commit.8df45f5f.Emscripten.clang"
  },
  "schemaVersion": "3.4.11",
  "updatedAt": "2022-12-21T10:07:46.374Z",
  "networkType": "ethereum",
  "devdoc": {
    "kind": "dev",
    "methods": {
      "approve(address,uint256)": {
        "details": "See {IERC721-approve}."
      },
      "balanceOf(address)": {
        "details": "See {IERC721-balanceOf}."
      },
      "getApproved(uint256)": {
        "details": "See {IERC721-getApproved}."
      },
      "isApprovedForAll(address,address)": {
        "details": "See {IERC721-isApprovedForAll}."
      },
      "name()": {
        "details": "See {IERC721Metadata-name}."
      },
      "owner()": {
        "details": "Returns the address of the current owner."
      },
      "ownerOf(uint256)": {
        "details": "See {IERC721-ownerOf}."
      },
      "renounceOwnership()": {
        "details": "Leaves the contract without owner. It will not be possible to call `onlyOwner` functions anymore. Can only be called by the current owner. NOTE: Renouncing ownership will leave the contract without an owner, thereby removing any functionality that is only available to the owner."
      },
      "safeTransferFrom(address,address,uint256)": {
        "details": "See {IERC721-safeTransferFrom}."
      },
      "safeTransferFrom(address,address,uint256,bytes)": {
        "details": "See {IERC721-safeTransferFrom}."
      },
      "setApprovalForAll(address,bool)": {
        "details": "See {IERC721-setApprovalForAll}."
      },
      "supportsInterface(bytes4)": {
        "details": "See {IERC165-supportsInterface}."
      },
      "symbol()": {
        "details": "See {IERC721Metadata-symbol}."
      },
      "tokenByIndex(uint256)": {
        "details": "See {IERC721Enumerable-tokenByIndex}."
      },
      "tokenOfOwnerByIndex(address,uint256)": {
        "details": "See {IERC721Enumerable-tokenOfOwnerByIndex}. This read function is O(collectionSize). If calling from a separate contract, be sure to test gas first. It may also degrade with extremely large collection sizes (e.g >> 10000), test for your use case."
      },
      "tokenURI(uint256)": {
        "details": "See {IERC721Metadata-tokenURI}."
      },
      "totalSupply()": {
        "details": "See {IERC721Enumerable-totalSupply}."
      },
      "transferFrom(address,address,uint256)": {
        "details": "See {IERC721-transferFrom}."
      },
      "transferOwnership(address)": {
        "details": "Transfers ownership of the contract to a new account (`newOwner`). Can only be called by the current owner."
      }
    },
    "version": 1
  },
  "userdoc": {
    "kind": "user",
    "methods": {},
    "version": 1
  }
}