{
  "contractName": "TradingNft",
  "abi": [
    {
      "inputs": [
        {
          "internalType": "address",
          "name": "_ca",
          "type": "address"
        },
        {
          "internalType": "uint256",
          "name": "_feeRate",
          "type": "uint256"
        },
        {
          "internalType": "uint256",
          "name": "_feeDigits",
          "type": "uint256"
        }
      ],
      "stateMutability": "nonpayable",
      "type": "constructor"
    },
    {
      "anonymous": false,
      "inputs": [
        {
          "indexed": true,
          "internalType": "address",
          "name": "previousOwner",
          "type": "address"
        },
        {
          "indexed": true,
          "internalType": "address",
          "name": "newOwner",
          "type": "address"
        }
      ],
      "name": "OwnershipTransferred",
      "type": "event"
    },
    {
      "inputs": [],
      "name": "_owner",
      "outputs": [
        {
          "internalType": "address",
          "name": "",
          "type": "address"
        }
      ],
      "stateMutability": "view",
      "type": "function"
    },
    {
      "inputs": [],
      "name": "owner",
      "outputs": [
        {
          "internalType": "address",
          "name": "",
          "type": "address"
        }
      ],
      "stateMutability": "view",
      "type": "function"
    },
    {
      "inputs": [],
      "name": "renounceOwnership",
      "outputs": [],
      "stateMutability": "nonpayable",
      "type": "function"
    },
    {
      "inputs": [
        {
          "internalType": "address",
          "name": "newOwner",
          "type": "address"
        }
      ],
      "name": "transferOwnership",
      "outputs": [],
      "stateMutability": "nonpayable",
      "type": "function"
    },
    {
      "inputs": [
        {
          "internalType": "uint256",
          "name": "_tokenId",
          "type": "uint256"
        },
        {
          "internalType": "uint256",
          "name": "_price",
          "type": "uint256"
        }
      ],
      "name": "registerSaleToken",
      "outputs": [],
      "stateMutability": "nonpayable",
      "type": "function"
    },
    {
      "inputs": [
        {
          "internalType": "uint256",
          "name": "_tokenId",
          "type": "uint256"
        }
      ],
      "name": "deregisterSaleToken",
      "outputs": [],
      "stateMutability": "nonpayable",
      "type": "function"
    },
    {
      "inputs": [
        {
          "internalType": "address",
          "name": "_ca",
          "type": "address"
        }
      ],
      "name": "setMintingNft",
      "outputs": [],
      "stateMutability": "nonpayable",
      "type": "function"
    },
    {
      "inputs": [
        {
          "internalType": "uint256",
          "name": "_feeRate",
          "type": "uint256"
        }
      ],
      "name": "setTokenTransactionFeeRate",
      "outputs": [],
      "stateMutability": "nonpayable",
      "type": "function"
    },
    {
      "inputs": [
        {
          "internalType": "uint256",
          "name": "_feeDigits",
          "type": "uint256"
        }
      ],
      "name": "setTokenTransactionFeeDigits",
      "outputs": [],
      "stateMutability": "nonpayable",
      "type": "function"
    },
    {
      "inputs": [],
      "name": "getMintingNft",
      "outputs": [
        {
          "internalType": "contract MintingNft",
          "name": "",
          "type": "address"
        }
      ],
      "stateMutability": "view",
      "type": "function"
    },
    {
      "inputs": [],
      "name": "getTokenTransactionFeeRate",
      "outputs": [
        {
          "internalType": "uint256",
          "name": "",
          "type": "uint256"
        }
      ],
      "stateMutability": "view",
      "type": "function"
    },
    {
      "inputs": [],
      "name": "getTokenTransactionFeeDigits",
      "outputs": [
        {
          "internalType": "uint256",
          "name": "",
          "type": "uint256"
        }
      ],
      "stateMutability": "view",
      "type": "function"
    },
    {
      "inputs": [
        {
          "internalType": "uint256",
          "name": "_tokenId",
          "type": "uint256"
        }
      ],
      "name": "getSaleTokenData",
      "outputs": [
        {
          "components": [
            {
              "internalType": "address",
              "name": "owner",
              "type": "address"
            },
            {
              "internalType": "uint256",
              "name": "price",
              "type": "uint256"
            }
          ],
          "internalType": "struct TradingNft.TokenData",
          "name": "",
          "type": "tuple"
        }
      ],
      "stateMutability": "view",
      "type": "function"
    },
    {
      "inputs": [
        {
          "internalType": "uint256",
          "name": "_tokenId",
          "type": "uint256"
        }
      ],
      "name": "getAuctionTokenData",
      "outputs": [
        {
          "components": [
            {
              "internalType": "address",
              "name": "owner",
              "type": "address"
            },
            {
              "internalType": "uint256",
              "name": "price",
              "type": "uint256"
            }
          ],
          "internalType": "struct TradingNft.TokenData",
          "name": "",
          "type": "tuple"
        }
      ],
      "stateMutability": "view",
      "type": "function"
    }
  ],
  "bytecode": "0x60806040523480156200001157600080fd5b50604051620010cb380380620010cb833981810160405281019062000037919062000220565b620000576200004b620000af60201b60201c565b620000b760201b60201c565b82600160006101000a81548173ffffffffffffffffffffffffffffffffffffffff021916908373ffffffffffffffffffffffffffffffffffffffff16021790555081600281905550806003819055505050506200027c565b600033905090565b60008060009054906101000a900473ffffffffffffffffffffffffffffffffffffffff169050816000806101000a81548173ffffffffffffffffffffffffffffffffffffffff021916908373ffffffffffffffffffffffffffffffffffffffff1602179055508173ffffffffffffffffffffffffffffffffffffffff168173ffffffffffffffffffffffffffffffffffffffff167f8be0079c531659141344cd1fd0a4f28419497f9722a3daafe3b4186f6b6457e060405160405180910390a35050565b600080fd5b600073ffffffffffffffffffffffffffffffffffffffff82169050919050565b6000620001ad8262000180565b9050919050565b620001bf81620001a0565b8114620001cb57600080fd5b50565b600081519050620001df81620001b4565b92915050565b6000819050919050565b620001fa81620001e5565b81146200020657600080fd5b50565b6000815190506200021a81620001ef565b92915050565b6000806000606084860312156200023c576200023b6200017b565b5b60006200024c86828701620001ce565b93505060206200025f8682870162000209565b9250506040620002728682870162000209565b9150509250925092565b610e3f806200028c6000396000f3fe608060405234801561001057600080fd5b50600436106100ea5760003560e01c8063af00a2391161008c578063c6a45c7d11610066578063c6a45c7d14610211578063c8932bfa14610241578063f2fde38b1461025f578063fca4a8721461027b576100ea565b8063af00a239146101a7578063b2bdfa7b146101c3578063ba9cb6f6146101e1576100ea565b80636a51bb46116100c85780636a51bb4614610145578063715018a6146101635780638da5cb5b1461016d5780638f8f4cf01461018b576100ea565b80631f4ed59f146100ef57806321f76f361461010b57806335ba49e514610127575b600080fd5b61010960048036038101906101049190610a1e565b610297565b005b61012560048036038101906101209190610aa9565b6102fa565b005b61012f610346565b60405161013c9190610b35565b60405180910390f35b61014d610370565b60405161015a9190610b5f565b60405180910390f35b61016b61037a565b005b61017561038e565b6040516101829190610b89565b60405180910390f35b6101a560048036038101906101a09190610ba4565b6103b7565b005b6101c160048036038101906101bc9190610a1e565b6104ff565b005b6101cb610511565b6040516101d89190610b89565b60405180910390f35b6101fb60048036038101906101f69190610a1e565b610535565b6040516102089190610c31565b60405180910390f35b61022b60048036038101906102269190610a1e565b6105c2565b6040516102389190610c31565b60405180910390f35b61024961064f565b6040516102569190610b5f565b60405180910390f35b61027960048036038101906102749190610aa9565b610659565b005b61029560048036038101906102909190610a1e565b6106dc565b005b6102a0816106ee565b6102a957600080fd5b6102b28161075d565b60046000828152602001908152602001600020600080820160006101000a81549073ffffffffffffffffffffffffffffffffffffffff02191690556001820160009055505050565b610302610869565b80600160006101000a81548173ffffffffffffffffffffffffffffffffffffffff021916908373ffffffffffffffffffffffffffffffffffffffff16021790555050565b6000600160009054906101000a900473ffffffffffffffffffffffffffffffffffffffff16905090565b6000600254905090565b610382610869565b61038c60006108e7565b565b60008060009054906101000a900473ffffffffffffffffffffffffffffffffffffffff16905090565b6103c08261075d565b60008110156103ce57600080fd5b6040518060400160405280600160009054906101000a900473ffffffffffffffffffffffffffffffffffffffff1673ffffffffffffffffffffffffffffffffffffffff16636352211e856040518263ffffffff1660e01b81526004016104349190610b5f565b602060405180830381865afa158015610451573d6000803e3d6000fd5b505050506040513d601f19601f820116820180604052508101906104759190610c61565b73ffffffffffffffffffffffffffffffffffffffff168152602001828152506004600084815260200190815260200160002060008201518160000160006101000a81548173ffffffffffffffffffffffffffffffffffffffff021916908373ffffffffffffffffffffffffffffffffffffffff160217905550602082015181600101559050505050565b610507610869565b8060028190555050565b60008054906101000a900473ffffffffffffffffffffffffffffffffffffffff1681565b61053d6109b3565b600460008381526020019081526020016000206040518060400160405290816000820160009054906101000a900473ffffffffffffffffffffffffffffffffffffffff1673ffffffffffffffffffffffffffffffffffffffff1673ffffffffffffffffffffffffffffffffffffffff1681526020016001820154815250509050919050565b6105ca6109b3565b600560008381526020019081526020016000206040518060400160405290816000820160009054906101000a900473ffffffffffffffffffffffffffffffffffffffff1673ffffffffffffffffffffffffffffffffffffffff1673ffffffffffffffffffffffffffffffffffffffff1681526020016001820154815250509050919050565b6000600354905090565b610661610869565b600073ffffffffffffffffffffffffffffffffffffffff168173ffffffffffffffffffffffffffffffffffffffff16036106d0576040517f08c379a00000000000000000000000000000000000000000000000000000000081526004016106c790610d11565b60405180910390fd5b6106d9816108e7565b50565b6106e4610869565b8060028190555050565b60008073ffffffffffffffffffffffffffffffffffffffff166004600084815260200190815260200160002060000160009054906101000a900473ffffffffffffffffffffffffffffffffffffffff1673ffffffffffffffffffffffffffffffffffffffff1614159050919050565b600160009054906101000a900473ffffffffffffffffffffffffffffffffffffffff1673ffffffffffffffffffffffffffffffffffffffff16636352211e826040518263ffffffff1660e01b81526004016107b89190610b5f565b602060405180830381865afa1580156107d5573d6000803e3d6000fd5b505050506040513d601f19601f820116820180604052508101906107f99190610c61565b73ffffffffffffffffffffffffffffffffffffffff163373ffffffffffffffffffffffffffffffffffffffff1614610866576040517f08c379a000000000000000000000000000000000000000000000000000000000815260040161085d90610d7d565b60405180910390fd5b50565b6108716109ab565b73ffffffffffffffffffffffffffffffffffffffff1661088f61038e565b73ffffffffffffffffffffffffffffffffffffffff16146108e5576040517f08c379a00000000000000000000000000000000000000000000000000000000081526004016108dc90610de9565b60405180910390fd5b565b60008060009054906101000a900473ffffffffffffffffffffffffffffffffffffffff169050816000806101000a81548173ffffffffffffffffffffffffffffffffffffffff021916908373ffffffffffffffffffffffffffffffffffffffff1602179055508173ffffffffffffffffffffffffffffffffffffffff168173ffffffffffffffffffffffffffffffffffffffff167f8be0079c531659141344cd1fd0a4f28419497f9722a3daafe3b4186f6b6457e060405160405180910390a35050565b600033905090565b6040518060400160405280600073ffffffffffffffffffffffffffffffffffffffff168152602001600081525090565b600080fd5b6000819050919050565b6109fb816109e8565b8114610a0657600080fd5b50565b600081359050610a18816109f2565b92915050565b600060208284031215610a3457610a336109e3565b5b6000610a4284828501610a09565b91505092915050565b600073ffffffffffffffffffffffffffffffffffffffff82169050919050565b6000610a7682610a4b565b9050919050565b610a8681610a6b565b8114610a9157600080fd5b50565b600081359050610aa381610a7d565b92915050565b600060208284031215610abf57610abe6109e3565b5b6000610acd84828501610a94565b91505092915050565b6000819050919050565b6000610afb610af6610af184610a4b565b610ad6565b610a4b565b9050919050565b6000610b0d82610ae0565b9050919050565b6000610b1f82610b02565b9050919050565b610b2f81610b14565b82525050565b6000602082019050610b4a6000830184610b26565b92915050565b610b59816109e8565b82525050565b6000602082019050610b746000830184610b50565b92915050565b610b8381610a6b565b82525050565b6000602082019050610b9e6000830184610b7a565b92915050565b60008060408385031215610bbb57610bba6109e3565b5b6000610bc985828601610a09565b9250506020610bda85828601610a09565b9150509250929050565b610bed81610a6b565b82525050565b610bfc816109e8565b82525050565b604082016000820151610c186000850182610be4565b506020820151610c2b6020850182610bf3565b50505050565b6000604082019050610c466000830184610c02565b92915050565b600081519050610c5b81610a7d565b92915050565b600060208284031215610c7757610c766109e3565b5b6000610c8584828501610c4c565b91505092915050565b600082825260208201905092915050565b7f4f776e61626c653a206e6577206f776e657220697320746865207a65726f206160008201527f6464726573730000000000000000000000000000000000000000000000000000602082015250565b6000610cfb602683610c8e565b9150610d0682610c9f565b604082019050919050565b60006020820190508181036000830152610d2a81610cee565b9050919050565b7f6e6f7420746865206f776e657200000000000000000000000000000000000000600082015250565b6000610d67600d83610c8e565b9150610d7282610d31565b602082019050919050565b60006020820190508181036000830152610d9681610d5a565b9050919050565b7f4f776e61626c653a2063616c6c6572206973206e6f7420746865206f776e6572600082015250565b6000610dd3602083610c8e565b9150610dde82610d9d565b602082019050919050565b60006020820190508181036000830152610e0281610dc6565b905091905056fea2646970667358221220d9f978164679a17ebbe5cfe646515a43face405e516f16ee5bc3de31fef5e23f64736f6c63430008110033",
  "immutableReferences": {},
  "source": "// SPDX-License-Identifier: MIT\npragma solidity ^0.8.17;\n\nimport \"./MintingNft.sol\";\n\n// onlyOwner     \n// import \"../node_modules/@openzeppelin/contracts/access/Ownable.sol\";\n\n// remix  \nimport \"@openzeppelin/contracts/access/Ownable.sol\";\n\ncontract TradingNft is Ownable {\n\n    MintingNft private _MintingNft;\n\n    //          ( :   )\n    // 1 / 1000 = 0.1%  \n    uint private _tokenTransactionFeeRate;\n    uint private _tokenTransactionFeeDigits;\n\n    struct TokenData {\n        address owner;\n        uint price;\n    }\n\n    mapping (uint => TokenData) private _saleTokenIdToData;\n    mapping (uint => TokenData) private _auctionTokenIdToData;\n\n    constructor(address _ca, uint _feeRate, uint _feeDigits) {\n\n        //         \n        _MintingNft = MintingNft(_ca);\n\n        _tokenTransactionFeeRate = _feeRate;\n        _tokenTransactionFeeDigits = _feeDigits;\n    }\n\n    // -    : registerSaleToken()\n    // -     : deregisterSaleToken()\n    // -   : buyToken()\n    // -    : registerAuctionToken()\n    // -   : bidTokenAtAuction()\n    // -   (         ) : winTokenAtAuction()\n    // -     : refundTokenAtAuction()\n\n    //    \n    function registerSaleToken(uint _tokenId, uint _price) external {\n\n        _checkTokenOwner(_tokenId);\n\n        //   0   \n        require(_price >= 0);\n\n        _saleTokenIdToData[_tokenId] = TokenData(_MintingNft.ownerOf(_tokenId), _price);\n    }\n\n    //     \n    function deregisterSaleToken(uint _tokenId) external {\n\n        //       ..\n        require(_checkOnSale(_tokenId));\n        \n        _checkTokenOwner(_tokenId);\n\n        //      ..\n        delete _saleTokenIdToData[_tokenId];\n    }\n\n    // msg.sender     private \n    function _checkTokenOwner(uint _tokenId) private view {\n\n        // tokenId   \n        require(msg.sender == _MintingNft.ownerOf(_tokenId), \"not the owner\");\n    }\n\n    // test\n    function _checkOnSale(uint _tokenId) private view returns (bool) {\n        return _saleTokenIdToData[_tokenId].owner != address(0);\n    }\n\n    function setMintingNft(address _ca) external onlyOwner {\n        _MintingNft = MintingNft(_ca);\n    }\n\n    function setTokenTransactionFeeRate(uint _feeRate) external onlyOwner {\n        _tokenTransactionFeeRate = _feeRate;\n    }\n\n    function setTokenTransactionFeeDigits(uint _feeDigits) external onlyOwner {\n        _tokenTransactionFeeRate = _feeDigits;\n    }\n\n    // address CA   \n    function getMintingNft() external view returns (MintingNft) {\n        return _MintingNft;\n    }\n\n    function getTokenTransactionFeeRate() external view returns (uint) {\n        return _tokenTransactionFeeRate;\n    }\n\n    function getTokenTransactionFeeDigits() external view returns (uint) {\n        return _tokenTransactionFeeDigits;\n    }\n\n    function getSaleTokenData(uint _tokenId) external view returns (TokenData memory) {\n        return _saleTokenIdToData[_tokenId];\n    }\n\n    function getAuctionTokenData(uint _tokenId) external view returns (TokenData memory) {\n        return _auctionTokenIdToData[_tokenId];\n    }\n}\n",
  "sourcePath": "/Users/ssup/Desktop/BlockChain Academy/Project/NFT_TeamProject/blockChain/contracts/TradingNft.sol",
  "compiler": {
    "name": "solc",
    "version": "0.8.17+commit.8df45f5f.Emscripten.clang"
  },
  "schemaVersion": "3.4.11",
  "updatedAt": "2022-12-21T10:07:43.824Z",
  "devdoc": {
    "kind": "dev",
    "methods": {
      "owner()": {
        "details": "Returns the address of the current owner."
      },
      "renounceOwnership()": {
        "details": "Leaves the contract without owner. It will not be possible to call `onlyOwner` functions anymore. Can only be called by the current owner. NOTE: Renouncing ownership will leave the contract without an owner, thereby removing any functionality that is only available to the owner."
      },
      "transferOwnership(address)": {
        "details": "Transfers ownership of the contract to a new account (`newOwner`). Can only be called by the current owner."
      }
    },
    "version": 1
  },
  "userdoc": {
    "kind": "user",
    "methods": {},
    "version": 1
  }
}