{
	"contracts/standards/ERC721A.sol": {
		"ERC721A": {
			"abi": [
				{
					"inputs": [
						{
							"internalType": "string",
							"name": "name_",
							"type": "string"
						},
						{
							"internalType": "string",
							"name": "symbol_",
							"type": "string"
						},
						{
							"internalType": "uint256",
							"name": "maxBatchSize_",
							"type": "uint256"
						},
						{
							"internalType": "uint256",
							"name": "collectionSize_",
							"type": "uint256"
						}
					],
					"stateMutability": "nonpayable",
					"type": "constructor"
				},
				{
					"anonymous": false,
					"inputs": [
						{
							"indexed": true,
							"internalType": "address",
							"name": "owner",
							"type": "address"
						},
						{
							"indexed": true,
							"internalType": "address",
							"name": "approved",
							"type": "address"
						},
						{
							"indexed": true,
							"internalType": "uint256",
							"name": "tokenId",
							"type": "uint256"
						}
					],
					"name": "Approval",
					"type": "event"
				},
				{
					"anonymous": false,
					"inputs": [
						{
							"indexed": true,
							"internalType": "address",
							"name": "owner",
							"type": "address"
						},
						{
							"indexed": true,
							"internalType": "address",
							"name": "operator",
							"type": "address"
						},
						{
							"indexed": false,
							"internalType": "bool",
							"name": "approved",
							"type": "bool"
						}
					],
					"name": "ApprovalForAll",
					"type": "event"
				},
				{
					"anonymous": false,
					"inputs": [
						{
							"indexed": true,
							"internalType": "address",
							"name": "from",
							"type": "address"
						},
						{
							"indexed": true,
							"internalType": "address",
							"name": "to",
							"type": "address"
						},
						{
							"indexed": true,
							"internalType": "uint256",
							"name": "tokenId",
							"type": "uint256"
						}
					],
					"name": "Transfer",
					"type": "event"
				},
				{
					"inputs": [
						{
							"internalType": "address",
							"name": "to",
							"type": "address"
						},
						{
							"internalType": "uint256",
							"name": "tokenId",
							"type": "uint256"
						}
					],
					"name": "approve",
					"outputs": [],
					"stateMutability": "nonpayable",
					"type": "function"
				},
				{
					"inputs": [
						{
							"internalType": "address",
							"name": "owner",
							"type": "address"
						}
					],
					"name": "balanceOf",
					"outputs": [
						{
							"internalType": "uint256",
							"name": "",
							"type": "uint256"
						}
					],
					"stateMutability": "view",
					"type": "function"
				},
				{
					"inputs": [
						{
							"internalType": "uint256",
							"name": "tokenId",
							"type": "uint256"
						}
					],
					"name": "getApproved",
					"outputs": [
						{
							"internalType": "address",
							"name": "",
							"type": "address"
						}
					],
					"stateMutability": "view",
					"type": "function"
				},
				{
					"inputs": [
						{
							"internalType": "address",
							"name": "owner",
							"type": "address"
						},
						{
							"internalType": "address",
							"name": "operator",
							"type": "address"
						}
					],
					"name": "isApprovedForAll",
					"outputs": [
						{
							"internalType": "bool",
							"name": "",
							"type": "bool"
						}
					],
					"stateMutability": "view",
					"type": "function"
				},
				{
					"inputs": [],
					"name": "name",
					"outputs": [
						{
							"internalType": "string",
							"name": "",
							"type": "string"
						}
					],
					"stateMutability": "view",
					"type": "function"
				},
				{
					"inputs": [],
					"name": "nextOwnerToExplicitlySet",
					"outputs": [
						{
							"internalType": "uint256",
							"name": "",
							"type": "uint256"
						}
					],
					"stateMutability": "view",
					"type": "function"
				},
				{
					"inputs": [
						{
							"internalType": "uint256",
							"name": "tokenId",
							"type": "uint256"
						}
					],
					"name": "ownerOf",
					"outputs": [
						{
							"internalType": "address",
							"name": "",
							"type": "address"
						}
					],
					"stateMutability": "view",
					"type": "function"
				},
				{
					"inputs": [
						{
							"internalType": "address",
							"name": "from",
							"type": "address"
						},
						{
							"internalType": "address",
							"name": "to",
							"type": "address"
						},
						{
							"internalType": "uint256",
							"name": "tokenId",
							"type": "uint256"
						}
					],
					"name": "safeTransferFrom",
					"outputs": [],
					"stateMutability": "nonpayable",
					"type": "function"
				},
				{
					"inputs": [
						{
							"internalType": "address",
							"name": "from",
							"type": "address"
						},
						{
							"internalType": "address",
							"name": "to",
							"type": "address"
						},
						{
							"internalType": "uint256",
							"name": "tokenId",
							"type": "uint256"
						},
						{
							"internalType": "bytes",
							"name": "_data",
							"type": "bytes"
						}
					],
					"name": "safeTransferFrom",
					"outputs": [],
					"stateMutability": "nonpayable",
					"type": "function"
				},
				{
					"inputs": [
						{
							"internalType": "address",
							"name": "operator",
							"type": "address"
						},
						{
							"internalType": "bool",
							"name": "approved",
							"type": "bool"
						}
					],
					"name": "setApprovalForAll",
					"outputs": [],
					"stateMutability": "nonpayable",
					"type": "function"
				},
				{
					"inputs": [
						{
							"internalType": "bytes4",
							"name": "interfaceId",
							"type": "bytes4"
						}
					],
					"name": "supportsInterface",
					"outputs": [
						{
							"internalType": "bool",
							"name": "",
							"type": "bool"
						}
					],
					"stateMutability": "view",
					"type": "function"
				},
				{
					"inputs": [],
					"name": "symbol",
					"outputs": [
						{
							"internalType": "string",
							"name": "",
							"type": "string"
						}
					],
					"stateMutability": "view",
					"type": "function"
				},
				{
					"inputs": [
						{
							"internalType": "uint256",
							"name": "index",
							"type": "uint256"
						}
					],
					"name": "tokenByIndex",
					"outputs": [
						{
							"internalType": "uint256",
							"name": "",
							"type": "uint256"
						}
					],
					"stateMutability": "view",
					"type": "function"
				},
				{
					"inputs": [
						{
							"internalType": "address",
							"name": "owner",
							"type": "address"
						},
						{
							"internalType": "uint256",
							"name": "index",
							"type": "uint256"
						}
					],
					"name": "tokenOfOwnerByIndex",
					"outputs": [
						{
							"internalType": "uint256",
							"name": "",
							"type": "uint256"
						}
					],
					"stateMutability": "view",
					"type": "function"
				},
				{
					"inputs": [
						{
							"internalType": "uint256",
							"name": "tokenId",
							"type": "uint256"
						}
					],
					"name": "tokenURI",
					"outputs": [
						{
							"internalType": "string",
							"name": "",
							"type": "string"
						}
					],
					"stateMutability": "view",
					"type": "function"
				},
				{
					"inputs": [],
					"name": "totalSupply",
					"outputs": [
						{
							"internalType": "uint256",
							"name": "",
							"type": "uint256"
						}
					],
					"stateMutability": "view",
					"type": "function"
				},
				{
					"inputs": [
						{
							"internalType": "address",
							"name": "from",
							"type": "address"
						},
						{
							"internalType": "address",
							"name": "to",
							"type": "address"
						},
						{
							"internalType": "uint256",
							"name": "tokenId",
							"type": "uint256"
						}
					],
					"name": "transferFrom",
					"outputs": [],
					"stateMutability": "nonpayable",
					"type": "function"
				}
			],
			"devdoc": {
				"details": "Implementation of https://eips.ethereum.org/EIPS/eip-721[ERC721] Non-Fungible Token Standard, including the Metadata and Enumerable extension. Built to optimize for lower gas during batch mints. Assumes serials are sequentially minted starting at 0 (e.g. 0, 1, 2, 3..). Assumes the number of issuable tokens (collection size) is capped and fits in a uint128. Does not support burning tokens to address(0).",
				"kind": "dev",
				"methods": {
					"approve(address,uint256)": {
						"details": "See {IERC721-approve}."
					},
					"balanceOf(address)": {
						"details": "See {IERC721-balanceOf}."
					},
					"constructor": {
						"details": "`maxBatchSize` refers to how much a minter can mint at a time. `collectionSize_` refers to how many tokens are in the collection."
					},
					"getApproved(uint256)": {
						"details": "See {IERC721-getApproved}."
					},
					"isApprovedForAll(address,address)": {
						"details": "See {IERC721-isApprovedForAll}."
					},
					"name()": {
						"details": "See {IERC721Metadata-name}."
					},
					"ownerOf(uint256)": {
						"details": "See {IERC721-ownerOf}."
					},
					"safeTransferFrom(address,address,uint256)": {
						"details": "See {IERC721-safeTransferFrom}."
					},
					"safeTransferFrom(address,address,uint256,bytes)": {
						"details": "See {IERC721-safeTransferFrom}."
					},
					"setApprovalForAll(address,bool)": {
						"details": "See {IERC721-setApprovalForAll}."
					},
					"supportsInterface(bytes4)": {
						"details": "See {IERC165-supportsInterface}."
					},
					"symbol()": {
						"details": "See {IERC721Metadata-symbol}."
					},
					"tokenByIndex(uint256)": {
						"details": "See {IERC721Enumerable-tokenByIndex}."
					},
					"tokenOfOwnerByIndex(address,uint256)": {
						"details": "See {IERC721Enumerable-tokenOfOwnerByIndex}. This read function is O(collectionSize). If calling from a separate contract, be sure to test gas first. It may also degrade with extremely large collection sizes (e.g >> 10000), test for your use case."
					},
					"tokenURI(uint256)": {
						"details": "See {IERC721Metadata-tokenURI}."
					},
					"totalSupply()": {
						"details": "See {IERC721Enumerable-totalSupply}."
					},
					"transferFrom(address,address,uint256)": {
						"details": "See {IERC721-transferFrom}."
					}
				},
				"version": 1
			},
			"evm": {
				"assembly": "    /* \"contracts/standards/ERC721A.sol\":1745:17433  contract ERC721A is... */\n  mstore(0x40, 0xc0)\n    /* \"contracts/standards/ERC721A.sol\":2101:2102  1 */\n  0x01\n    /* \"contracts/standards/ERC721A.sol\":2070:2102  uint256 private currentIndex = 1 */\n  0x00\n  sstore\n    /* \"contracts/standards/ERC721A.sol\":14116:14117  0 */\n  0x00\n    /* \"contracts/standards/ERC721A.sol\":14074:14117  uint256 public nextOwnerToExplicitlySet = 0 */\n  0x07\n  sstore\n    /* \"contracts/standards/ERC721A.sol\":3088:3523  constructor(... */\n  callvalue\n  dup1\n  iszero\n  tag_1\n  jumpi\n  0x00\n  dup1\n  revert\ntag_1:\n  pop\n  mload(0x40)\n  sub(codesize, bytecodeSize)\n  dup1\n  bytecodeSize\n  dup4\n  codecopy\n  dup2\n  dup2\n  add\n  0x40\n  mstore\n  dup2\n  add\n  swap1\n  tag_2\n  swap2\n  swap1\n  tag_3\n  jump\t// in\ntag_2:\n    /* \"contracts/standards/ERC721A.sol\":3258:3259  0 */\n  0x00\n    /* \"contracts/standards/ERC721A.sol\":3240:3255  collectionSize_ */\n  dup2\n    /* \"contracts/standards/ERC721A.sol\":3240:3259  collectionSize_ > 0 */\n  gt\n    /* \"contracts/standards/ERC721A.sol\":3224:3323  require(... */\n  tag_6\n  jumpi\n  mload(0x40)\n  0x08c379a000000000000000000000000000000000000000000000000000000000\n  dup2\n  mstore\n  0x04\n  add\n  tag_7\n  swap1\n  tag_8\n  jump\t// in\ntag_7:\n  mload(0x40)\n  dup1\n  swap2\n  sub\n  swap1\n  revert\ntag_6:\n    /* \"contracts/standards/ERC721A.sol\":3354:3355  0 */\n  0x00\n    /* \"contracts/standards/ERC721A.sol\":3338:3351  maxBatchSize_ */\n  dup3\n    /* \"contracts/standards/ERC721A.sol\":3338:3355  maxBatchSize_ > 0 */\n  gt\n    /* \"contracts/standards/ERC721A.sol\":3330:3399  require(maxBatchSize_ > 0, \"ERC721A: max batch size must be nonzero\") */\n  tag_9\n  jumpi\n  mload(0x40)\n  0x08c379a000000000000000000000000000000000000000000000000000000000\n  dup2\n  mstore\n  0x04\n  add\n  tag_10\n  swap1\n  tag_11\n  jump\t// in\ntag_10:\n  mload(0x40)\n  dup1\n  swap2\n  sub\n  swap1\n  revert\ntag_9:\n    /* \"contracts/standards/ERC721A.sol\":3414:3419  name_ */\n  dup4\n    /* \"contracts/standards/ERC721A.sol\":3406:3411  _name */\n  0x01\n    /* \"contracts/standards/ERC721A.sol\":3406:3419  _name = name_ */\n  swap1\n  dup2\n  tag_12\n  swap2\n  swap1\n  tag_13\n  jump\t// in\ntag_12:\n  pop\n    /* \"contracts/standards/ERC721A.sol\":3436:3443  symbol_ */\n  dup3\n    /* \"contracts/standards/ERC721A.sol\":3426:3433  _symbol */\n  0x02\n    /* \"contracts/standards/ERC721A.sol\":3426:3443  _symbol = symbol_ */\n  swap1\n  dup2\n  tag_14\n  swap2\n  swap1\n  tag_13\n  jump\t// in\ntag_14:\n  pop\n    /* \"contracts/standards/ERC721A.sol\":3465:3478  maxBatchSize_ */\n  dup2\n    /* \"contracts/standards/ERC721A.sol\":3450:3478  maxBatchSize = maxBatchSize_ */\n  0xa0\n  dup2\n  dup2\n  mstore\n  pop\n  pop\n    /* \"contracts/standards/ERC721A.sol\":3502:3517  collectionSize_ */\n  dup1\n    /* \"contracts/standards/ERC721A.sol\":3485:3517  collectionSize = collectionSize_ */\n  0x80\n  dup2\n  dup2\n  mstore\n  pop\n  pop\n    /* \"contracts/standards/ERC721A.sol\":3088:3523  constructor(... */\n  pop\n  pop\n  pop\n  pop\n    /* \"contracts/standards/ERC721A.sol\":1745:17433  contract ERC721A is... */\n  jump(tag_15)\n    /* \"#utility.yul\":7:82   */\ntag_16:\n    /* \"#utility.yul\":40:46   */\n  0x00\n    /* \"#utility.yul\":73:75   */\n  0x40\n    /* \"#utility.yul\":67:76   */\n  mload\n    /* \"#utility.yul\":57:76   */\n  swap1\n  pop\n    /* \"#utility.yul\":7:82   */\n  swap1\n  jump\t// out\n    /* \"#utility.yul\":88:205   */\ntag_17:\n    /* \"#utility.yul\":197:198   */\n  0x00\n    /* \"#utility.yul\":194:195   */\n  dup1\n    /* \"#utility.yul\":187:199   */\n  revert\n    /* \"#utility.yul\":211:328   */\ntag_18:\n    /* \"#utility.yul\":320:321   */\n  0x00\n    /* \"#utility.yul\":317:318   */\n  dup1\n    /* \"#utility.yul\":310:322   */\n  revert\n    /* \"#utility.yul\":334:451   */\ntag_19:\n    /* \"#utility.yul\":443:444   */\n  0x00\n    /* \"#utility.yul\":440:441   */\n  dup1\n    /* \"#utility.yul\":433:445   */\n  revert\n    /* \"#utility.yul\":457:574   */\ntag_20:\n    /* \"#utility.yul\":566:567   */\n  0x00\n    /* \"#utility.yul\":563:564   */\n  dup1\n    /* \"#utility.yul\":556:568   */\n  revert\n    /* \"#utility.yul\":580:682   */\ntag_21:\n    /* \"#utility.yul\":621:627   */\n  0x00\n    /* \"#utility.yul\":672:674   */\n  0x1f\n    /* \"#utility.yul\":668:675   */\n  not\n    /* \"#utility.yul\":663:665   */\n  0x1f\n    /* \"#utility.yul\":656:661   */\n  dup4\n    /* \"#utility.yul\":652:666   */\n  add\n    /* \"#utility.yul\":648:676   */\n  and\n    /* \"#utility.yul\":638:676   */\n  swap1\n  pop\n    /* \"#utility.yul\":580:682   */\n  swap2\n  swap1\n  pop\n  jump\t// out\n    /* \"#utility.yul\":688:868   */\ntag_22:\n    /* \"#utility.yul\":736:813   */\n  0x4e487b7100000000000000000000000000000000000000000000000000000000\n    /* \"#utility.yul\":733:734   */\n  0x00\n    /* \"#utility.yul\":726:814   */\n  mstore\n    /* \"#utility.yul\":833:837   */\n  0x41\n    /* \"#utility.yul\":830:831   */\n  0x04\n    /* \"#utility.yul\":823:838   */\n  mstore\n    /* \"#utility.yul\":857:861   */\n  0x24\n    /* \"#utility.yul\":854:855   */\n  0x00\n    /* \"#utility.yul\":847:862   */\n  revert\n    /* \"#utility.yul\":874:1155   */\ntag_23:\n    /* \"#utility.yul\":957:984   */\n  tag_64\n    /* \"#utility.yul\":979:983   */\n  dup3\n    /* \"#utility.yul\":957:984   */\n  tag_21\n  jump\t// in\ntag_64:\n    /* \"#utility.yul\":949:955   */\n  dup2\n    /* \"#utility.yul\":945:985   */\n  add\n    /* \"#utility.yul\":1087:1093   */\n  dup2\n    /* \"#utility.yul\":1075:1085   */\n  dup2\n    /* \"#utility.yul\":1072:1094   */\n  lt\n    /* \"#utility.yul\":1051:1069   */\n  0xffffffffffffffff\n    /* \"#utility.yul\":1039:1049   */\n  dup3\n    /* \"#utility.yul\":1036:1070   */\n  gt\n    /* \"#utility.yul\":1033:1095   */\n  or\n    /* \"#utility.yul\":1030:1118   */\n  iszero\n  tag_65\n  jumpi\n    /* \"#utility.yul\":1098:1116   */\n  tag_66\n  tag_22\n  jump\t// in\ntag_66:\n    /* \"#utility.yul\":1030:1118   */\ntag_65:\n    /* \"#utility.yul\":1138:1148   */\n  dup1\n    /* \"#utility.yul\":1134:1136   */\n  0x40\n    /* \"#utility.yul\":1127:1149   */\n  mstore\n    /* \"#utility.yul\":917:1155   */\n  pop\n    /* \"#utility.yul\":874:1155   */\n  pop\n  pop\n  jump\t// out\n    /* \"#utility.yul\":1161:1290   */\ntag_24:\n    /* \"#utility.yul\":1195:1201   */\n  0x00\n    /* \"#utility.yul\":1222:1242   */\n  tag_68\n  tag_16\n  jump\t// in\ntag_68:\n    /* \"#utility.yul\":1212:1242   */\n  swap1\n  pop\n    /* \"#utility.yul\":1251:1284   */\n  tag_69\n    /* \"#utility.yul\":1279:1283   */\n  dup3\n    /* \"#utility.yul\":1271:1277   */\n  dup3\n    /* \"#utility.yul\":1251:1284   */\n  tag_23\n  jump\t// in\ntag_69:\n    /* \"#utility.yul\":1161:1290   */\n  swap2\n  swap1\n  pop\n  jump\t// out\n    /* \"#utility.yul\":1296:1604   */\ntag_25:\n    /* \"#utility.yul\":1358:1362   */\n  0x00\n    /* \"#utility.yul\":1448:1466   */\n  0xffffffffffffffff\n    /* \"#utility.yul\":1440:1446   */\n  dup3\n    /* \"#utility.yul\":1437:1467   */\n  gt\n    /* \"#utility.yul\":1434:1490   */\n  iszero\n  tag_71\n  jumpi\n    /* \"#utility.yul\":1470:1488   */\n  tag_72\n  tag_22\n  jump\t// in\ntag_72:\n    /* \"#utility.yul\":1434:1490   */\ntag_71:\n    /* \"#utility.yul\":1508:1537   */\n  tag_73\n    /* \"#utility.yul\":1530:1536   */\n  dup3\n    /* \"#utility.yul\":1508:1537   */\n  tag_21\n  jump\t// in\ntag_73:\n    /* \"#utility.yul\":1500:1537   */\n  swap1\n  pop\n    /* \"#utility.yul\":1592:1596   */\n  0x20\n    /* \"#utility.yul\":1586:1590   */\n  dup2\n    /* \"#utility.yul\":1582:1597   */\n  add\n    /* \"#utility.yul\":1574:1597   */\n  swap1\n  pop\n    /* \"#utility.yul\":1296:1604   */\n  swap2\n  swap1\n  pop\n  jump\t// out\n    /* \"#utility.yul\":1610:1856   */\ntag_26:\n    /* \"#utility.yul\":1691:1692   */\n  0x00\n    /* \"#utility.yul\":1701:1814   */\ntag_75:\n    /* \"#utility.yul\":1715:1721   */\n  dup4\n    /* \"#utility.yul\":1712:1713   */\n  dup2\n    /* \"#utility.yul\":1709:1722   */\n  lt\n    /* \"#utility.yul\":1701:1814   */\n  iszero\n  tag_77\n  jumpi\n    /* \"#utility.yul\":1800:1801   */\n  dup1\n    /* \"#utility.yul\":1795:1798   */\n  dup3\n    /* \"#utility.yul\":1791:1802   */\n  add\n    /* \"#utility.yul\":1785:1803   */\n  mload\n    /* \"#utility.yul\":1781:1782   */\n  dup2\n    /* \"#utility.yul\":1776:1779   */\n  dup5\n    /* \"#utility.yul\":1772:1783   */\n  add\n    /* \"#utility.yul\":1765:1804   */\n  mstore\n    /* \"#utility.yul\":1737:1739   */\n  0x20\n    /* \"#utility.yul\":1734:1735   */\n  dup2\n    /* \"#utility.yul\":1730:1740   */\n  add\n    /* \"#utility.yul\":1725:1740   */\n  swap1\n  pop\n    /* \"#utility.yul\":1701:1814   */\n  jump(tag_75)\ntag_77:\n    /* \"#utility.yul\":1848:1849   */\n  0x00\n    /* \"#utility.yul\":1839:1845   */\n  dup5\n    /* \"#utility.yul\":1834:1837   */\n  dup5\n    /* \"#utility.yul\":1830:1846   */\n  add\n    /* \"#utility.yul\":1823:1850   */\n  mstore\n    /* \"#utility.yul\":1672:1856   */\n  pop\n    /* \"#utility.yul\":1610:1856   */\n  pop\n  pop\n  pop\n  jump\t// out\n    /* \"#utility.yul\":1862:2296   */\ntag_27:\n    /* \"#utility.yul\":1951:1956   */\n  0x00\n    /* \"#utility.yul\":1976:2042   */\n  tag_79\n    /* \"#utility.yul\":1992:2041   */\n  tag_80\n    /* \"#utility.yul\":2034:2040   */\n  dup5\n    /* \"#utility.yul\":1992:2041   */\n  tag_25\n  jump\t// in\ntag_80:\n    /* \"#utility.yul\":1976:2042   */\n  tag_24\n  jump\t// in\ntag_79:\n    /* \"#utility.yul\":1967:2042   */\n  swap1\n  pop\n    /* \"#utility.yul\":2065:2071   */\n  dup3\n    /* \"#utility.yul\":2058:2063   */\n  dup2\n    /* \"#utility.yul\":2051:2072   */\n  mstore\n    /* \"#utility.yul\":2103:2107   */\n  0x20\n    /* \"#utility.yul\":2096:2101   */\n  dup2\n    /* \"#utility.yul\":2092:2108   */\n  add\n    /* \"#utility.yul\":2141:2144   */\n  dup5\n    /* \"#utility.yul\":2132:2138   */\n  dup5\n    /* \"#utility.yul\":2127:2130   */\n  dup5\n    /* \"#utility.yul\":2123:2139   */\n  add\n    /* \"#utility.yul\":2120:2145   */\n  gt\n    /* \"#utility.yul\":2117:2229   */\n  iszero\n  tag_81\n  jumpi\n    /* \"#utility.yul\":2148:2227   */\n  tag_82\n  tag_20\n  jump\t// in\ntag_82:\n    /* \"#utility.yul\":2117:2229   */\ntag_81:\n    /* \"#utility.yul\":2238:2290   */\n  tag_83\n    /* \"#utility.yul\":2283:2289   */\n  dup5\n    /* \"#utility.yul\":2278:2281   */\n  dup3\n    /* \"#utility.yul\":2273:2276   */\n  dup6\n    /* \"#utility.yul\":2238:2290   */\n  tag_26\n  jump\t// in\ntag_83:\n    /* \"#utility.yul\":1957:2296   */\n  pop\n    /* \"#utility.yul\":1862:2296   */\n  swap4\n  swap3\n  pop\n  pop\n  pop\n  jump\t// out\n    /* \"#utility.yul\":2316:2671   */\ntag_28:\n    /* \"#utility.yul\":2383:2388   */\n  0x00\n    /* \"#utility.yul\":2432:2435   */\n  dup3\n    /* \"#utility.yul\":2425:2429   */\n  0x1f\n    /* \"#utility.yul\":2417:2423   */\n  dup4\n    /* \"#utility.yul\":2413:2430   */\n  add\n    /* \"#utility.yul\":2409:2436   */\n  slt\n    /* \"#utility.yul\":2399:2521   */\n  tag_85\n  jumpi\n    /* \"#utility.yul\":2440:2519   */\n  tag_86\n  tag_19\n  jump\t// in\ntag_86:\n    /* \"#utility.yul\":2399:2521   */\ntag_85:\n    /* \"#utility.yul\":2550:2556   */\n  dup2\n    /* \"#utility.yul\":2544:2557   */\n  mload\n    /* \"#utility.yul\":2575:2665   */\n  tag_87\n    /* \"#utility.yul\":2661:2664   */\n  dup5\n    /* \"#utility.yul\":2653:2659   */\n  dup3\n    /* \"#utility.yul\":2646:2650   */\n  0x20\n    /* \"#utility.yul\":2638:2644   */\n  dup7\n    /* \"#utility.yul\":2634:2651   */\n  add\n    /* \"#utility.yul\":2575:2665   */\n  tag_27\n  jump\t// in\ntag_87:\n    /* \"#utility.yul\":2566:2665   */\n  swap2\n  pop\n    /* \"#utility.yul\":2389:2671   */\n  pop\n    /* \"#utility.yul\":2316:2671   */\n  swap3\n  swap2\n  pop\n  pop\n  jump\t// out\n    /* \"#utility.yul\":2677:2754   */\ntag_29:\n    /* \"#utility.yul\":2714:2721   */\n  0x00\n    /* \"#utility.yul\":2743:2748   */\n  dup2\n    /* \"#utility.yul\":2732:2748   */\n  swap1\n  pop\n    /* \"#utility.yul\":2677:2754   */\n  swap2\n  swap1\n  pop\n  jump\t// out\n    /* \"#utility.yul\":2760:2882   */\ntag_30:\n    /* \"#utility.yul\":2833:2857   */\n  tag_90\n    /* \"#utility.yul\":2851:2856   */\n  dup2\n    /* \"#utility.yul\":2833:2857   */\n  tag_29\n  jump\t// in\ntag_90:\n    /* \"#utility.yul\":2826:2831   */\n  dup2\n    /* \"#utility.yul\":2823:2858   */\n  eq\n    /* \"#utility.yul\":2813:2876   */\n  tag_91\n  jumpi\n    /* \"#utility.yul\":2872:2873   */\n  0x00\n    /* \"#utility.yul\":2869:2870   */\n  dup1\n    /* \"#utility.yul\":2862:2874   */\n  revert\n    /* \"#utility.yul\":2813:2876   */\ntag_91:\n    /* \"#utility.yul\":2760:2882   */\n  pop\n  jump\t// out\n    /* \"#utility.yul\":2888:3031   */\ntag_31:\n    /* \"#utility.yul\":2945:2950   */\n  0x00\n    /* \"#utility.yul\":2976:2982   */\n  dup2\n    /* \"#utility.yul\":2970:2983   */\n  mload\n    /* \"#utility.yul\":2961:2983   */\n  swap1\n  pop\n    /* \"#utility.yul\":2992:3025   */\n  tag_93\n    /* \"#utility.yul\":3019:3024   */\n  dup2\n    /* \"#utility.yul\":2992:3025   */\n  tag_30\n  jump\t// in\ntag_93:\n    /* \"#utility.yul\":2888:3031   */\n  swap3\n  swap2\n  pop\n  pop\n  jump\t// out\n    /* \"#utility.yul\":3037:4203   */\ntag_3:\n    /* \"#utility.yul\":3154:3160   */\n  0x00\n    /* \"#utility.yul\":3162:3168   */\n  dup1\n    /* \"#utility.yul\":3170:3176   */\n  0x00\n    /* \"#utility.yul\":3178:3184   */\n  dup1\n    /* \"#utility.yul\":3227:3230   */\n  0x80\n    /* \"#utility.yul\":3215:3224   */\n  dup6\n    /* \"#utility.yul\":3206:3213   */\n  dup8\n    /* \"#utility.yul\":3202:3225   */\n  sub\n    /* \"#utility.yul\":3198:3231   */\n  slt\n    /* \"#utility.yul\":3195:3315   */\n  iszero\n  tag_95\n  jumpi\n    /* \"#utility.yul\":3234:3313   */\n  tag_96\n  tag_17\n  jump\t// in\ntag_96:\n    /* \"#utility.yul\":3195:3315   */\ntag_95:\n    /* \"#utility.yul\":3375:3376   */\n  0x00\n    /* \"#utility.yul\":3364:3373   */\n  dup6\n    /* \"#utility.yul\":3360:3377   */\n  add\n    /* \"#utility.yul\":3354:3378   */\n  mload\n    /* \"#utility.yul\":3405:3423   */\n  0xffffffffffffffff\n    /* \"#utility.yul\":3397:3403   */\n  dup2\n    /* \"#utility.yul\":3394:3424   */\n  gt\n    /* \"#utility.yul\":3391:3508   */\n  iszero\n  tag_97\n  jumpi\n    /* \"#utility.yul\":3427:3506   */\n  tag_98\n  tag_18\n  jump\t// in\ntag_98:\n    /* \"#utility.yul\":3391:3508   */\ntag_97:\n    /* \"#utility.yul\":3532:3606   */\n  tag_99\n    /* \"#utility.yul\":3598:3605   */\n  dup8\n    /* \"#utility.yul\":3589:3595   */\n  dup3\n    /* \"#utility.yul\":3578:3587   */\n  dup9\n    /* \"#utility.yul\":3574:3596   */\n  add\n    /* \"#utility.yul\":3532:3606   */\n  tag_28\n  jump\t// in\ntag_99:\n    /* \"#utility.yul\":3522:3606   */\n  swap5\n  pop\n    /* \"#utility.yul\":3325:3616   */\n  pop\n    /* \"#utility.yul\":3676:3678   */\n  0x20\n    /* \"#utility.yul\":3665:3674   */\n  dup6\n    /* \"#utility.yul\":3661:3679   */\n  add\n    /* \"#utility.yul\":3655:3680   */\n  mload\n    /* \"#utility.yul\":3707:3725   */\n  0xffffffffffffffff\n    /* \"#utility.yul\":3699:3705   */\n  dup2\n    /* \"#utility.yul\":3696:3726   */\n  gt\n    /* \"#utility.yul\":3693:3810   */\n  iszero\n  tag_100\n  jumpi\n    /* \"#utility.yul\":3729:3808   */\n  tag_101\n  tag_18\n  jump\t// in\ntag_101:\n    /* \"#utility.yul\":3693:3810   */\ntag_100:\n    /* \"#utility.yul\":3834:3908   */\n  tag_102\n    /* \"#utility.yul\":3900:3907   */\n  dup8\n    /* \"#utility.yul\":3891:3897   */\n  dup3\n    /* \"#utility.yul\":3880:3889   */\n  dup9\n    /* \"#utility.yul\":3876:3898   */\n  add\n    /* \"#utility.yul\":3834:3908   */\n  tag_28\n  jump\t// in\ntag_102:\n    /* \"#utility.yul\":3824:3908   */\n  swap4\n  pop\n    /* \"#utility.yul\":3626:3918   */\n  pop\n    /* \"#utility.yul\":3957:3959   */\n  0x40\n    /* \"#utility.yul\":3983:4047   */\n  tag_103\n    /* \"#utility.yul\":4039:4046   */\n  dup8\n    /* \"#utility.yul\":4030:4036   */\n  dup3\n    /* \"#utility.yul\":4019:4028   */\n  dup9\n    /* \"#utility.yul\":4015:4037   */\n  add\n    /* \"#utility.yul\":3983:4047   */\n  tag_31\n  jump\t// in\ntag_103:\n    /* \"#utility.yul\":3973:4047   */\n  swap3\n  pop\n    /* \"#utility.yul\":3928:4057   */\n  pop\n    /* \"#utility.yul\":4096:4098   */\n  0x60\n    /* \"#utility.yul\":4122:4186   */\n  tag_104\n    /* \"#utility.yul\":4178:4185   */\n  dup8\n    /* \"#utility.yul\":4169:4175   */\n  dup3\n    /* \"#utility.yul\":4158:4167   */\n  dup9\n    /* \"#utility.yul\":4154:4176   */\n  add\n    /* \"#utility.yul\":4122:4186   */\n  tag_31\n  jump\t// in\ntag_104:\n    /* \"#utility.yul\":4112:4186   */\n  swap2\n  pop\n    /* \"#utility.yul\":4067:4196   */\n  pop\n    /* \"#utility.yul\":3037:4203   */\n  swap3\n  swap6\n  swap2\n  swap5\n  pop\n  swap3\n  pop\n  jump\t// out\n    /* \"#utility.yul\":4209:4378   */\ntag_32:\n    /* \"#utility.yul\":4293:4304   */\n  0x00\n    /* \"#utility.yul\":4327:4333   */\n  dup3\n    /* \"#utility.yul\":4322:4325   */\n  dup3\n    /* \"#utility.yul\":4315:4334   */\n  mstore\n    /* \"#utility.yul\":4367:4371   */\n  0x20\n    /* \"#utility.yul\":4362:4365   */\n  dup3\n    /* \"#utility.yul\":4358:4372   */\n  add\n    /* \"#utility.yul\":4343:4372   */\n  swap1\n  pop\n    /* \"#utility.yul\":4209:4378   */\n  swap3\n  swap2\n  pop\n  pop\n  jump\t// out\n    /* \"#utility.yul\":4384:4617   */\ntag_33:\n    /* \"#utility.yul\":4524:4558   */\n  0x455243373231413a20636f6c6c656374696f6e206d7573742068617665206120\n    /* \"#utility.yul\":4520:4521   */\n  0x00\n    /* \"#utility.yul\":4512:4518   */\n  dup3\n    /* \"#utility.yul\":4508:4522   */\n  add\n    /* \"#utility.yul\":4501:4559   */\n  mstore\n    /* \"#utility.yul\":4593:4609   */\n  0x6e6f6e7a65726f20737570706c79000000000000000000000000000000000000\n    /* \"#utility.yul\":4588:4590   */\n  0x20\n    /* \"#utility.yul\":4580:4586   */\n  dup3\n    /* \"#utility.yul\":4576:4591   */\n  add\n    /* \"#utility.yul\":4569:4610   */\n  mstore\n    /* \"#utility.yul\":4384:4617   */\n  pop\n  jump\t// out\n    /* \"#utility.yul\":4623:4989   */\ntag_34:\n    /* \"#utility.yul\":4765:4768   */\n  0x00\n    /* \"#utility.yul\":4786:4853   */\n  tag_108\n    /* \"#utility.yul\":4850:4852   */\n  0x2e\n    /* \"#utility.yul\":4845:4848   */\n  dup4\n    /* \"#utility.yul\":4786:4853   */\n  tag_32\n  jump\t// in\ntag_108:\n    /* \"#utility.yul\":4779:4853   */\n  swap2\n  pop\n    /* \"#utility.yul\":4862:4955   */\n  tag_109\n    /* \"#utility.yul\":4951:4954   */\n  dup3\n    /* \"#utility.yul\":4862:4955   */\n  tag_33\n  jump\t// in\ntag_109:\n    /* \"#utility.yul\":4980:4982   */\n  0x40\n    /* \"#utility.yul\":4975:4978   */\n  dup3\n    /* \"#utility.yul\":4971:4983   */\n  add\n    /* \"#utility.yul\":4964:4983   */\n  swap1\n  pop\n    /* \"#utility.yul\":4623:4989   */\n  swap2\n  swap1\n  pop\n  jump\t// out\n    /* \"#utility.yul\":4995:5414   */\ntag_8:\n    /* \"#utility.yul\":5161:5165   */\n  0x00\n    /* \"#utility.yul\":5199:5201   */\n  0x20\n    /* \"#utility.yul\":5188:5197   */\n  dup3\n    /* \"#utility.yul\":5184:5202   */\n  add\n    /* \"#utility.yul\":5176:5202   */\n  swap1\n  pop\n    /* \"#utility.yul\":5248:5257   */\n  dup2\n    /* \"#utility.yul\":5242:5246   */\n  dup2\n    /* \"#utility.yul\":5238:5258   */\n  sub\n    /* \"#utility.yul\":5234:5235   */\n  0x00\n    /* \"#utility.yul\":5223:5232   */\n  dup4\n    /* \"#utility.yul\":5219:5236   */\n  add\n    /* \"#utility.yul\":5212:5259   */\n  mstore\n    /* \"#utility.yul\":5276:5407   */\n  tag_111\n    /* \"#utility.yul\":5402:5406   */\n  dup2\n    /* \"#utility.yul\":5276:5407   */\n  tag_34\n  jump\t// in\ntag_111:\n    /* \"#utility.yul\":5268:5407   */\n  swap1\n  pop\n    /* \"#utility.yul\":4995:5414   */\n  swap2\n  swap1\n  pop\n  jump\t// out\n    /* \"#utility.yul\":5420:5646   */\ntag_35:\n    /* \"#utility.yul\":5560:5594   */\n  0x455243373231413a206d61782062617463682073697a65206d75737420626520\n    /* \"#utility.yul\":5556:5557   */\n  0x00\n    /* \"#utility.yul\":5548:5554   */\n  dup3\n    /* \"#utility.yul\":5544:5558   */\n  add\n    /* \"#utility.yul\":5537:5595   */\n  mstore\n    /* \"#utility.yul\":5629:5638   */\n  0x6e6f6e7a65726f00000000000000000000000000000000000000000000000000\n    /* \"#utility.yul\":5624:5626   */\n  0x20\n    /* \"#utility.yul\":5616:5622   */\n  dup3\n    /* \"#utility.yul\":5612:5627   */\n  add\n    /* \"#utility.yul\":5605:5639   */\n  mstore\n    /* \"#utility.yul\":5420:5646   */\n  pop\n  jump\t// out\n    /* \"#utility.yul\":5652:6018   */\ntag_36:\n    /* \"#utility.yul\":5794:5797   */\n  0x00\n    /* \"#utility.yul\":5815:5882   */\n  tag_114\n    /* \"#utility.yul\":5879:5881   */\n  0x27\n    /* \"#utility.yul\":5874:5877   */\n  dup4\n    /* \"#utility.yul\":5815:5882   */\n  tag_32\n  jump\t// in\ntag_114:\n    /* \"#utility.yul\":5808:5882   */\n  swap2\n  pop\n    /* \"#utility.yul\":5891:5984   */\n  tag_115\n    /* \"#utility.yul\":5980:5983   */\n  dup3\n    /* \"#utility.yul\":5891:5984   */\n  tag_35\n  jump\t// in\ntag_115:\n    /* \"#utility.yul\":6009:6011   */\n  0x40\n    /* \"#utility.yul\":6004:6007   */\n  dup3\n    /* \"#utility.yul\":6000:6012   */\n  add\n    /* \"#utility.yul\":5993:6012   */\n  swap1\n  pop\n    /* \"#utility.yul\":5652:6018   */\n  swap2\n  swap1\n  pop\n  jump\t// out\n    /* \"#utility.yul\":6024:6443   */\ntag_11:\n    /* \"#utility.yul\":6190:6194   */\n  0x00\n    /* \"#utility.yul\":6228:6230   */\n  0x20\n    /* \"#utility.yul\":6217:6226   */\n  dup3\n    /* \"#utility.yul\":6213:6231   */\n  add\n    /* \"#utility.yul\":6205:6231   */\n  swap1\n  pop\n    /* \"#utility.yul\":6277:6286   */\n  dup2\n    /* \"#utility.yul\":6271:6275   */\n  dup2\n    /* \"#utility.yul\":6267:6287   */\n  sub\n    /* \"#utility.yul\":6263:6264   */\n  0x00\n    /* \"#utility.yul\":6252:6261   */\n  dup4\n    /* \"#utility.yul\":6248:6265   */\n  add\n    /* \"#utility.yul\":6241:6288   */\n  mstore\n    /* \"#utility.yul\":6305:6436   */\n  tag_117\n    /* \"#utility.yul\":6431:6435   */\n  dup2\n    /* \"#utility.yul\":6305:6436   */\n  tag_36\n  jump\t// in\ntag_117:\n    /* \"#utility.yul\":6297:6436   */\n  swap1\n  pop\n    /* \"#utility.yul\":6024:6443   */\n  swap2\n  swap1\n  pop\n  jump\t// out\n    /* \"#utility.yul\":6449:6548   */\ntag_37:\n    /* \"#utility.yul\":6501:6507   */\n  0x00\n    /* \"#utility.yul\":6535:6540   */\n  dup2\n    /* \"#utility.yul\":6529:6541   */\n  mload\n    /* \"#utility.yul\":6519:6541   */\n  swap1\n  pop\n    /* \"#utility.yul\":6449:6548   */\n  swap2\n  swap1\n  pop\n  jump\t// out\n    /* \"#utility.yul\":6554:6734   */\ntag_38:\n    /* \"#utility.yul\":6602:6679   */\n  0x4e487b7100000000000000000000000000000000000000000000000000000000\n    /* \"#utility.yul\":6599:6600   */\n  0x00\n    /* \"#utility.yul\":6592:6680   */\n  mstore\n    /* \"#utility.yul\":6699:6703   */\n  0x22\n    /* \"#utility.yul\":6696:6697   */\n  0x04\n    /* \"#utility.yul\":6689:6704   */\n  mstore\n    /* \"#utility.yul\":6723:6727   */\n  0x24\n    /* \"#utility.yul\":6720:6721   */\n  0x00\n    /* \"#utility.yul\":6713:6728   */\n  revert\n    /* \"#utility.yul\":6740:7060   */\ntag_39:\n    /* \"#utility.yul\":6784:6790   */\n  0x00\n    /* \"#utility.yul\":6821:6822   */\n  0x02\n    /* \"#utility.yul\":6815:6819   */\n  dup3\n    /* \"#utility.yul\":6811:6823   */\n  div\n    /* \"#utility.yul\":6801:6823   */\n  swap1\n  pop\n    /* \"#utility.yul\":6868:6869   */\n  0x01\n    /* \"#utility.yul\":6862:6866   */\n  dup3\n    /* \"#utility.yul\":6858:6870   */\n  and\n    /* \"#utility.yul\":6889:6907   */\n  dup1\n    /* \"#utility.yul\":6879:6960   */\n  tag_121\n  jumpi\n    /* \"#utility.yul\":6945:6949   */\n  0x7f\n    /* \"#utility.yul\":6937:6943   */\n  dup3\n    /* \"#utility.yul\":6933:6950   */\n  and\n    /* \"#utility.yul\":6923:6950   */\n  swap2\n  pop\n    /* \"#utility.yul\":6879:6960   */\ntag_121:\n    /* \"#utility.yul\":7007:7009   */\n  0x20\n    /* \"#utility.yul\":6999:7005   */\n  dup3\n    /* \"#utility.yul\":6996:7010   */\n  lt\n    /* \"#utility.yul\":6976:6994   */\n  dup2\n    /* \"#utility.yul\":6973:7011   */\n  sub\n    /* \"#utility.yul\":6970:7054   */\n  tag_122\n  jumpi\n    /* \"#utility.yul\":7026:7044   */\n  tag_123\n  tag_38\n  jump\t// in\ntag_123:\n    /* \"#utility.yul\":6970:7054   */\ntag_122:\n    /* \"#utility.yul\":6791:7060   */\n  pop\n    /* \"#utility.yul\":6740:7060   */\n  swap2\n  swap1\n  pop\n  jump\t// out\n    /* \"#utility.yul\":7066:7207   */\ntag_40:\n    /* \"#utility.yul\":7115:7119   */\n  0x00\n    /* \"#utility.yul\":7138:7141   */\n  dup2\n    /* \"#utility.yul\":7130:7141   */\n  swap1\n  pop\n    /* \"#utility.yul\":7161:7164   */\n  dup2\n    /* \"#utility.yul\":7158:7159   */\n  0x00\n    /* \"#utility.yul\":7151:7165   */\n  mstore\n    /* \"#utility.yul\":7195:7199   */\n  0x20\n    /* \"#utility.yul\":7192:7193   */\n  0x00\n    /* \"#utility.yul\":7182:7200   */\n  keccak256\n    /* \"#utility.yul\":7174:7200   */\n  swap1\n  pop\n    /* \"#utility.yul\":7066:7207   */\n  swap2\n  swap1\n  pop\n  jump\t// out\n    /* \"#utility.yul\":7213:7306   */\ntag_41:\n    /* \"#utility.yul\":7250:7256   */\n  0x00\n    /* \"#utility.yul\":7297:7299   */\n  0x20\n    /* \"#utility.yul\":7292:7294   */\n  0x1f\n    /* \"#utility.yul\":7285:7290   */\n  dup4\n    /* \"#utility.yul\":7281:7295   */\n  add\n    /* \"#utility.yul\":7277:7300   */\n  div\n    /* \"#utility.yul\":7267:7300   */\n  swap1\n  pop\n    /* \"#utility.yul\":7213:7306   */\n  swap2\n  swap1\n  pop\n  jump\t// out\n    /* \"#utility.yul\":7312:7419   */\ntag_42:\n    /* \"#utility.yul\":7356:7364   */\n  0x00\n    /* \"#utility.yul\":7406:7411   */\n  dup3\n    /* \"#utility.yul\":7400:7404   */\n  dup3\n    /* \"#utility.yul\":7396:7412   */\n  shl\n    /* \"#utility.yul\":7375:7412   */\n  swap1\n  pop\n    /* \"#utility.yul\":7312:7419   */\n  swap3\n  swap2\n  pop\n  pop\n  jump\t// out\n    /* \"#utility.yul\":7425:7818   */\ntag_43:\n    /* \"#utility.yul\":7494:7500   */\n  0x00\n    /* \"#utility.yul\":7544:7545   */\n  0x08\n    /* \"#utility.yul\":7532:7542   */\n  dup4\n    /* \"#utility.yul\":7528:7546   */\n  mul\n    /* \"#utility.yul\":7567:7664   */\n  tag_128\n    /* \"#utility.yul\":7597:7663   */\n  0xffffffffffffffffffffffffffffffffffffffffffffffffffffffffffffffff\n    /* \"#utility.yul\":7586:7595   */\n  dup3\n    /* \"#utility.yul\":7567:7664   */\n  tag_42\n  jump\t// in\ntag_128:\n    /* \"#utility.yul\":7685:7724   */\n  tag_129\n    /* \"#utility.yul\":7715:7723   */\n  dup7\n    /* \"#utility.yul\":7704:7713   */\n  dup4\n    /* \"#utility.yul\":7685:7724   */\n  tag_42\n  jump\t// in\ntag_129:\n    /* \"#utility.yul\":7673:7724   */\n  swap6\n  pop\n    /* \"#utility.yul\":7757:7761   */\n  dup1\n    /* \"#utility.yul\":7753:7762   */\n  not\n    /* \"#utility.yul\":7746:7751   */\n  dup5\n    /* \"#utility.yul\":7742:7763   */\n  and\n    /* \"#utility.yul\":7733:7763   */\n  swap4\n  pop\n    /* \"#utility.yul\":7806:7810   */\n  dup1\n    /* \"#utility.yul\":7796:7804   */\n  dup7\n    /* \"#utility.yul\":7792:7811   */\n  and\n    /* \"#utility.yul\":7785:7790   */\n  dup5\n    /* \"#utility.yul\":7782:7812   */\n  or\n    /* \"#utility.yul\":7772:7812   */\n  swap3\n  pop\n    /* \"#utility.yul\":7501:7818   */\n  pop\n  pop\n    /* \"#utility.yul\":7425:7818   */\n  swap4\n  swap3\n  pop\n  pop\n  pop\n  jump\t// out\n    /* \"#utility.yul\":7824:7884   */\ntag_44:\n    /* \"#utility.yul\":7852:7855   */\n  0x00\n    /* \"#utility.yul\":7873:7878   */\n  dup2\n    /* \"#utility.yul\":7866:7878   */\n  swap1\n  pop\n    /* \"#utility.yul\":7824:7884   */\n  swap2\n  swap1\n  pop\n  jump\t// out\n    /* \"#utility.yul\":7890:8032   */\ntag_45:\n    /* \"#utility.yul\":7940:7949   */\n  0x00\n    /* \"#utility.yul\":7973:8026   */\n  tag_132\n    /* \"#utility.yul\":7991:8025   */\n  tag_133\n    /* \"#utility.yul\":8000:8024   */\n  tag_134\n    /* \"#utility.yul\":8018:8023   */\n  dup5\n    /* \"#utility.yul\":8000:8024   */\n  tag_29\n  jump\t// in\ntag_134:\n    /* \"#utility.yul\":7991:8025   */\n  tag_44\n  jump\t// in\ntag_133:\n    /* \"#utility.yul\":7973:8026   */\n  tag_29\n  jump\t// in\ntag_132:\n    /* \"#utility.yul\":7960:8026   */\n  swap1\n  pop\n    /* \"#utility.yul\":7890:8032   */\n  swap2\n  swap1\n  pop\n  jump\t// out\n    /* \"#utility.yul\":8038:8113   */\ntag_46:\n    /* \"#utility.yul\":8081:8084   */\n  0x00\n    /* \"#utility.yul\":8102:8107   */\n  dup2\n    /* \"#utility.yul\":8095:8107   */\n  swap1\n  pop\n    /* \"#utility.yul\":8038:8113   */\n  swap2\n  swap1\n  pop\n  jump\t// out\n    /* \"#utility.yul\":8119:8388   */\ntag_47:\n    /* \"#utility.yul\":8229:8268   */\n  tag_137\n    /* \"#utility.yul\":8260:8267   */\n  dup4\n    /* \"#utility.yul\":8229:8268   */\n  tag_45\n  jump\t// in\ntag_137:\n    /* \"#utility.yul\":8290:8381   */\n  tag_138\n    /* \"#utility.yul\":8339:8380   */\n  tag_139\n    /* \"#utility.yul\":8363:8379   */\n  dup3\n    /* \"#utility.yul\":8339:8380   */\n  tag_46\n  jump\t// in\ntag_139:\n    /* \"#utility.yul\":8331:8337   */\n  dup5\n    /* \"#utility.yul\":8324:8328   */\n  dup5\n    /* \"#utility.yul\":8318:8329   */\n  sload\n    /* \"#utility.yul\":8290:8381   */\n  tag_43\n  jump\t// in\ntag_138:\n    /* \"#utility.yul\":8284:8288   */\n  dup3\n    /* \"#utility.yul\":8277:8382   */\n  sstore\n    /* \"#utility.yul\":8195:8388   */\n  pop\n    /* \"#utility.yul\":8119:8388   */\n  pop\n  pop\n  pop\n  jump\t// out\n    /* \"#utility.yul\":8394:8467   */\ntag_48:\n    /* \"#utility.yul\":8439:8442   */\n  0x00\n    /* \"#utility.yul\":8394:8467   */\n  swap1\n  jump\t// out\n    /* \"#utility.yul\":8473:8662   */\ntag_49:\n    /* \"#utility.yul\":8550:8582   */\n  tag_142\n  tag_48\n  jump\t// in\ntag_142:\n    /* \"#utility.yul\":8591:8656   */\n  tag_143\n    /* \"#utility.yul\":8649:8655   */\n  dup2\n    /* \"#utility.yul\":8641:8647   */\n  dup5\n    /* \"#utility.yul\":8635:8639   */\n  dup5\n    /* \"#utility.yul\":8591:8656   */\n  tag_47\n  jump\t// in\ntag_143:\n    /* \"#utility.yul\":8526:8662   */\n  pop\n    /* \"#utility.yul\":8473:8662   */\n  pop\n  pop\n  jump\t// out\n    /* \"#utility.yul\":8668:8854   */\ntag_50:\n    /* \"#utility.yul\":8728:8848   */\ntag_145:\n    /* \"#utility.yul\":8745:8748   */\n  dup2\n    /* \"#utility.yul\":8738:8743   */\n  dup2\n    /* \"#utility.yul\":8735:8749   */\n  lt\n    /* \"#utility.yul\":8728:8848   */\n  iszero\n  tag_147\n  jumpi\n    /* \"#utility.yul\":8799:8838   */\n  tag_148\n    /* \"#utility.yul\":8836:8837   */\n  0x00\n    /* \"#utility.yul\":8829:8834   */\n  dup3\n    /* \"#utility.yul\":8799:8838   */\n  tag_49\n  jump\t// in\ntag_148:\n    /* \"#utility.yul\":8772:8773   */\n  0x01\n    /* \"#utility.yul\":8765:8770   */\n  dup2\n    /* \"#utility.yul\":8761:8774   */\n  add\n    /* \"#utility.yul\":8752:8774   */\n  swap1\n  pop\n    /* \"#utility.yul\":8728:8848   */\n  jump(tag_145)\ntag_147:\n    /* \"#utility.yul\":8668:8854   */\n  pop\n  pop\n  jump\t// out\n    /* \"#utility.yul\":8860:9403   */\ntag_51:\n    /* \"#utility.yul\":8961:8963   */\n  0x1f\n    /* \"#utility.yul\":8956:8959   */\n  dup3\n    /* \"#utility.yul\":8953:8964   */\n  gt\n    /* \"#utility.yul\":8950:9396   */\n  iszero\n  tag_150\n  jumpi\n    /* \"#utility.yul\":8995:9033   */\n  tag_151\n    /* \"#utility.yul\":9027:9032   */\n  dup2\n    /* \"#utility.yul\":8995:9033   */\n  tag_40\n  jump\t// in\ntag_151:\n    /* \"#utility.yul\":9079:9108   */\n  tag_152\n    /* \"#utility.yul\":9097:9107   */\n  dup5\n    /* \"#utility.yul\":9079:9108   */\n  tag_41\n  jump\t// in\ntag_152:\n    /* \"#utility.yul\":9069:9077   */\n  dup2\n    /* \"#utility.yul\":9065:9109   */\n  add\n    /* \"#utility.yul\":9262:9264   */\n  0x20\n    /* \"#utility.yul\":9250:9260   */\n  dup6\n    /* \"#utility.yul\":9247:9265   */\n  lt\n    /* \"#utility.yul\":9244:9293   */\n  iszero\n  tag_153\n  jumpi\n    /* \"#utility.yul\":9283:9291   */\n  dup2\n    /* \"#utility.yul\":9268:9291   */\n  swap1\n  pop\n    /* \"#utility.yul\":9244:9293   */\ntag_153:\n    /* \"#utility.yul\":9306:9386   */\n  tag_154\n    /* \"#utility.yul\":9362:9384   */\n  tag_155\n    /* \"#utility.yul\":9380:9383   */\n  dup6\n    /* \"#utility.yul\":9362:9384   */\n  tag_41\n  jump\t// in\ntag_155:\n    /* \"#utility.yul\":9352:9360   */\n  dup4\n    /* \"#utility.yul\":9348:9385   */\n  add\n    /* \"#utility.yul\":9335:9346   */\n  dup3\n    /* \"#utility.yul\":9306:9386   */\n  tag_50\n  jump\t// in\ntag_154:\n    /* \"#utility.yul\":8965:9396   */\n  pop\n  pop\n    /* \"#utility.yul\":8950:9396   */\ntag_150:\n    /* \"#utility.yul\":8860:9403   */\n  pop\n  pop\n  pop\n  jump\t// out\n    /* \"#utility.yul\":9409:9526   */\ntag_52:\n    /* \"#utility.yul\":9463:9471   */\n  0x00\n    /* \"#utility.yul\":9513:9518   */\n  dup3\n    /* \"#utility.yul\":9507:9511   */\n  dup3\n    /* \"#utility.yul\":9503:9519   */\n  shr\n    /* \"#utility.yul\":9482:9519   */\n  swap1\n  pop\n    /* \"#utility.yul\":9409:9526   */\n  swap3\n  swap2\n  pop\n  pop\n  jump\t// out\n    /* \"#utility.yul\":9532:9701   */\ntag_53:\n    /* \"#utility.yul\":9576:9582   */\n  0x00\n    /* \"#utility.yul\":9609:9660   */\n  tag_158\n    /* \"#utility.yul\":9657:9658   */\n  0x00\n    /* \"#utility.yul\":9653:9659   */\n  not\n    /* \"#utility.yul\":9645:9650   */\n  dup5\n    /* \"#utility.yul\":9642:9643   */\n  0x08\n    /* \"#utility.yul\":9638:9651   */\n  mul\n    /* \"#utility.yul\":9609:9660   */\n  tag_52\n  jump\t// in\ntag_158:\n    /* \"#utility.yul\":9605:9661   */\n  not\n    /* \"#utility.yul\":9690:9694   */\n  dup1\n    /* \"#utility.yul\":9684:9688   */\n  dup4\n    /* \"#utility.yul\":9680:9695   */\n  and\n    /* \"#utility.yul\":9670:9695   */\n  swap2\n  pop\n    /* \"#utility.yul\":9583:9701   */\n  pop\n    /* \"#utility.yul\":9532:9701   */\n  swap3\n  swap2\n  pop\n  pop\n  jump\t// out\n    /* \"#utility.yul\":9706:10001   */\ntag_54:\n    /* \"#utility.yul\":9782:9786   */\n  0x00\n    /* \"#utility.yul\":9928:9957   */\n  tag_160\n    /* \"#utility.yul\":9953:9956   */\n  dup4\n    /* \"#utility.yul\":9947:9951   */\n  dup4\n    /* \"#utility.yul\":9928:9957   */\n  tag_53\n  jump\t// in\ntag_160:\n    /* \"#utility.yul\":9920:9957   */\n  swap2\n  pop\n    /* \"#utility.yul\":9990:9993   */\n  dup3\n    /* \"#utility.yul\":9987:9988   */\n  0x02\n    /* \"#utility.yul\":9983:9994   */\n  mul\n    /* \"#utility.yul\":9977:9981   */\n  dup3\n    /* \"#utility.yul\":9974:9995   */\n  or\n    /* \"#utility.yul\":9966:9995   */\n  swap1\n  pop\n    /* \"#utility.yul\":9706:10001   */\n  swap3\n  swap2\n  pop\n  pop\n  jump\t// out\n    /* \"#utility.yul\":10006:11401   */\ntag_13:\n    /* \"#utility.yul\":10123:10160   */\n  tag_162\n    /* \"#utility.yul\":10156:10159   */\n  dup3\n    /* \"#utility.yul\":10123:10160   */\n  tag_37\n  jump\t// in\ntag_162:\n    /* \"#utility.yul\":10225:10243   */\n  0xffffffffffffffff\n    /* \"#utility.yul\":10217:10223   */\n  dup2\n    /* \"#utility.yul\":10214:10244   */\n  gt\n    /* \"#utility.yul\":10211:10267   */\n  iszero\n  tag_163\n  jumpi\n    /* \"#utility.yul\":10247:10265   */\n  tag_164\n  tag_22\n  jump\t// in\ntag_164:\n    /* \"#utility.yul\":10211:10267   */\ntag_163:\n    /* \"#utility.yul\":10291:10329   */\n  tag_165\n    /* \"#utility.yul\":10323:10327   */\n  dup3\n    /* \"#utility.yul\":10317:10328   */\n  sload\n    /* \"#utility.yul\":10291:10329   */\n  tag_39\n  jump\t// in\ntag_165:\n    /* \"#utility.yul\":10376:10443   */\n  tag_166\n    /* \"#utility.yul\":10436:10442   */\n  dup3\n    /* \"#utility.yul\":10428:10434   */\n  dup3\n    /* \"#utility.yul\":10422:10426   */\n  dup6\n    /* \"#utility.yul\":10376:10443   */\n  tag_51\n  jump\t// in\ntag_166:\n    /* \"#utility.yul\":10470:10471   */\n  0x00\n    /* \"#utility.yul\":10494:10498   */\n  0x20\n    /* \"#utility.yul\":10481:10498   */\n  swap1\n  pop\n    /* \"#utility.yul\":10526:10528   */\n  0x1f\n    /* \"#utility.yul\":10518:10524   */\n  dup4\n    /* \"#utility.yul\":10515:10529   */\n  gt\n    /* \"#utility.yul\":10543:10544   */\n  0x01\n    /* \"#utility.yul\":10538:11156   */\n  dup2\n  eq\n  tag_168\n  jumpi\n    /* \"#utility.yul\":11200:11201   */\n  0x00\n    /* \"#utility.yul\":11217:11223   */\n  dup5\n    /* \"#utility.yul\":11214:11291   */\n  iszero\n  tag_169\n  jumpi\n    /* \"#utility.yul\":11266:11275   */\n  dup3\n    /* \"#utility.yul\":11261:11264   */\n  dup8\n    /* \"#utility.yul\":11257:11276   */\n  add\n    /* \"#utility.yul\":11251:11277   */\n  mload\n    /* \"#utility.yul\":11242:11277   */\n  swap1\n  pop\n    /* \"#utility.yul\":11214:11291   */\ntag_169:\n    /* \"#utility.yul\":11317:11384   */\n  tag_170\n    /* \"#utility.yul\":11377:11383   */\n  dup6\n    /* \"#utility.yul\":11370:11375   */\n  dup3\n    /* \"#utility.yul\":11317:11384   */\n  tag_54\n  jump\t// in\ntag_170:\n    /* \"#utility.yul\":11311:11315   */\n  dup7\n    /* \"#utility.yul\":11304:11385   */\n  sstore\n    /* \"#utility.yul\":11173:11395   */\n  pop\n    /* \"#utility.yul\":10508:11395   */\n  jump(tag_167)\n    /* \"#utility.yul\":10538:11156   */\ntag_168:\n    /* \"#utility.yul\":10590:10594   */\n  0x1f\n    /* \"#utility.yul\":10586:10595   */\n  not\n    /* \"#utility.yul\":10578:10584   */\n  dup5\n    /* \"#utility.yul\":10574:10596   */\n  and\n    /* \"#utility.yul\":10624:10661   */\n  tag_171\n    /* \"#utility.yul\":10656:10660   */\n  dup7\n    /* \"#utility.yul\":10624:10661   */\n  tag_40\n  jump\t// in\ntag_171:\n    /* \"#utility.yul\":10683:10684   */\n  0x00\n    /* \"#utility.yul\":10697:10905   */\ntag_172:\n    /* \"#utility.yul\":10711:10718   */\n  dup3\n    /* \"#utility.yul\":10708:10709   */\n  dup2\n    /* \"#utility.yul\":10705:10719   */\n  lt\n    /* \"#utility.yul\":10697:10905   */\n  iszero\n  tag_174\n  jumpi\n    /* \"#utility.yul\":10790:10799   */\n  dup5\n    /* \"#utility.yul\":10785:10788   */\n  dup10\n    /* \"#utility.yul\":10781:10800   */\n  add\n    /* \"#utility.yul\":10775:10801   */\n  mload\n    /* \"#utility.yul\":10767:10773   */\n  dup3\n    /* \"#utility.yul\":10760:10802   */\n  sstore\n    /* \"#utility.yul\":10841:10842   */\n  0x01\n    /* \"#utility.yul\":10833:10839   */\n  dup3\n    /* \"#utility.yul\":10829:10843   */\n  add\n    /* \"#utility.yul\":10819:10843   */\n  swap2\n  pop\n    /* \"#utility.yul\":10888:10890   */\n  0x20\n    /* \"#utility.yul\":10877:10886   */\n  dup6\n    /* \"#utility.yul\":10873:10891   */\n  add\n    /* \"#utility.yul\":10860:10891   */\n  swap5\n  pop\n    /* \"#utility.yul\":10734:10738   */\n  0x20\n    /* \"#utility.yul\":10731:10732   */\n  dup2\n    /* \"#utility.yul\":10727:10739   */\n  add\n    /* \"#utility.yul\":10722:10739   */\n  swap1\n  pop\n    /* \"#utility.yul\":10697:10905   */\n  jump(tag_172)\ntag_174:\n    /* \"#utility.yul\":10933:10939   */\n  dup7\n    /* \"#utility.yul\":10924:10931   */\n  dup4\n    /* \"#utility.yul\":10921:10940   */\n  lt\n    /* \"#utility.yul\":10918:11097   */\n  iszero\n  tag_175\n  jumpi\n    /* \"#utility.yul\":10991:11000   */\n  dup5\n    /* \"#utility.yul\":10986:10989   */\n  dup10\n    /* \"#utility.yul\":10982:11001   */\n  add\n    /* \"#utility.yul\":10976:11002   */\n  mload\n    /* \"#utility.yul\":11034:11082   */\n  tag_176\n    /* \"#utility.yul\":11076:11080   */\n  0x1f\n    /* \"#utility.yul\":11068:11074   */\n  dup10\n    /* \"#utility.yul\":11064:11081   */\n  and\n    /* \"#utility.yul\":11053:11062   */\n  dup3\n    /* \"#utility.yul\":11034:11082   */\n  tag_53\n  jump\t// in\ntag_176:\n    /* \"#utility.yul\":11026:11032   */\n  dup4\n    /* \"#utility.yul\":11019:11083   */\n  sstore\n    /* \"#utility.yul\":10941:11097   */\n  pop\n    /* \"#utility.yul\":10918:11097   */\ntag_175:\n    /* \"#utility.yul\":11143:11144   */\n  0x01\n    /* \"#utility.yul\":11139:11140   */\n  0x02\n    /* \"#utility.yul\":11131:11137   */\n  dup9\n    /* \"#utility.yul\":11127:11141   */\n  mul\n    /* \"#utility.yul\":11123:11145   */\n  add\n    /* \"#utility.yul\":11117:11121   */\n  dup9\n    /* \"#utility.yul\":11110:11146   */\n  sstore\n    /* \"#utility.yul\":10545:11156   */\n  pop\n  pop\n  pop\n    /* \"#utility.yul\":10508:11395   */\ntag_167:\n  pop\n    /* \"#utility.yul\":10098:11401   */\n  pop\n  pop\n  pop\n    /* \"#utility.yul\":10006:11401   */\n  pop\n  pop\n  jump\t// out\n    /* \"contracts/standards/ERC721A.sol\":1745:17433  contract ERC721A is... */\ntag_15:\n  mload(0x80)\n  mload(0xa0)\n  codecopy(0x00, dataOffset(sub_0), dataSize(sub_0))\n  0x00\n  assignImmutable(\"0x1dd819c251cf8d73bebf3fd46743821455d544c1111216c34ce770cef2957093\")\n  0x00\n  assignImmutable(\"0xebbe884ee4f4f791b9bafc799960f899f16ae4a212cd899a08546a10756307b6\")\n  return(0x00, dataSize(sub_0))\nstop\n\nsub_0: assembly {\n        /* \"contracts/standards/ERC721A.sol\":1745:17433  contract ERC721A is... */\n      mstore(0x40, 0x80)\n      callvalue\n      dup1\n      iszero\n      tag_1\n      jumpi\n      0x00\n      dup1\n      revert\n    tag_1:\n      pop\n      jumpi(tag_2, lt(calldatasize, 0x04))\n      shr(0xe0, calldataload(0x00))\n      dup1\n      0x4f6ccce7\n      gt\n      tag_20\n      jumpi\n      dup1\n      0xa22cb465\n      gt\n      tag_21\n      jumpi\n      dup1\n      0xa22cb465\n      eq\n      tag_15\n      jumpi\n      dup1\n      0xb88d4fde\n      eq\n      tag_16\n      jumpi\n      dup1\n      0xc87b56dd\n      eq\n      tag_17\n      jumpi\n      dup1\n      0xd7224ba0\n      eq\n      tag_18\n      jumpi\n      dup1\n      0xe985e9c5\n      eq\n      tag_19\n      jumpi\n      jump(tag_2)\n    tag_21:\n      dup1\n      0x4f6ccce7\n      eq\n      tag_11\n      jumpi\n      dup1\n      0x6352211e\n      eq\n      tag_12\n      jumpi\n      dup1\n      0x70a08231\n      eq\n      tag_13\n      jumpi\n      dup1\n      0x95d89b41\n      eq\n      tag_14\n      jumpi\n      jump(tag_2)\n    tag_20:\n      dup1\n      0x18160ddd\n      gt\n      tag_22\n      jumpi\n      dup1\n      0x18160ddd\n      eq\n      tag_7\n      jumpi\n      dup1\n      0x23b872dd\n      eq\n      tag_8\n      jumpi\n      dup1\n      0x2f745c59\n      eq\n      tag_9\n      jumpi\n      dup1\n      0x42842e0e\n      eq\n      tag_10\n      jumpi\n      jump(tag_2)\n    tag_22:\n      dup1\n      0x01ffc9a7\n      eq\n      tag_3\n      jumpi\n      dup1\n      0x06fdde03\n      eq\n      tag_4\n      jumpi\n      dup1\n      0x081812fc\n      eq\n      tag_5\n      jumpi\n      dup1\n      0x095ea7b3\n      eq\n      tag_6\n      jumpi\n    tag_2:\n      0x00\n      dup1\n      revert\n        /* \"contracts/standards/ERC721A.sol\":5131:5501  function supportsInterface(bytes4 interfaceId)... */\n    tag_3:\n      tag_23\n      0x04\n      dup1\n      calldatasize\n      sub\n      dup2\n      add\n      swap1\n      tag_24\n      swap2\n      swap1\n      tag_25\n      jump\t// in\n    tag_24:\n      tag_26\n      jump\t// in\n    tag_23:\n      mload(0x40)\n      tag_27\n      swap2\n      swap1\n      tag_28\n      jump\t// in\n    tag_27:\n      mload(0x40)\n      dup1\n      swap2\n      sub\n      swap1\n      return\n        /* \"contracts/standards/ERC721A.sol\":6857:6951  function name() public view virtual override returns (string memory) {... */\n    tag_4:\n      tag_29\n      tag_30\n      jump\t// in\n    tag_29:\n      mload(0x40)\n      tag_31\n      swap2\n      swap1\n      tag_32\n      jump\t// in\n    tag_31:\n      mload(0x40)\n      dup1\n      swap2\n      sub\n      swap1\n      return\n        /* \"contracts/standards/ERC721A.sol\":8382:8586  function getApproved(uint256 tokenId) public view override returns (address) {... */\n    tag_5:\n      tag_33\n      0x04\n      dup1\n      calldatasize\n      sub\n      dup2\n      add\n      swap1\n      tag_34\n      swap2\n      swap1\n      tag_35\n      jump\t// in\n    tag_34:\n      tag_36\n      jump\t// in\n    tag_33:\n      mload(0x40)\n      tag_37\n      swap2\n      swap1\n      tag_38\n      jump\t// in\n    tag_37:\n      mload(0x40)\n      dup1\n      swap2\n      sub\n      swap1\n      return\n        /* \"contracts/standards/ERC721A.sol\":7945:8324  function approve(address to, uint256 tokenId) public override {... */\n    tag_6:\n      tag_39\n      0x04\n      dup1\n      calldatasize\n      sub\n      dup2\n      add\n      swap1\n      tag_40\n      swap2\n      swap1\n      tag_41\n      jump\t// in\n    tag_40:\n      tag_42\n      jump\t// in\n    tag_39:\n      stop\n        /* \"contracts/standards/ERC721A.sol\":3591:3711  function totalSupply() public view override returns (uint256) {... */\n    tag_7:\n      tag_43\n      tag_44\n      jump\t// in\n    tag_43:\n      mload(0x40)\n      tag_45\n      swap2\n      swap1\n      tag_46\n      jump\t// in\n    tag_45:\n      mload(0x40)\n      dup1\n      swap2\n      sub\n      swap1\n      return\n        /* \"contracts/standards/ERC721A.sol\":9232:9374  function transferFrom(... */\n    tag_8:\n      tag_47\n      0x04\n      dup1\n      calldatasize\n      sub\n      dup2\n      add\n      swap1\n      tag_48\n      swap2\n      swap1\n      tag_49\n      jump\t// in\n    tag_48:\n      tag_50\n      jump\t// in\n    tag_47:\n      stop\n        /* \"contracts/standards/ERC721A.sol\":4248:5067  function tokenOfOwnerByIndex(address owner, uint256 index)... */\n    tag_9:\n      tag_51\n      0x04\n      dup1\n      calldatasize\n      sub\n      dup2\n      add\n      swap1\n      tag_52\n      swap2\n      swap1\n      tag_41\n      jump\t// in\n    tag_52:\n      tag_53\n      jump\t// in\n    tag_51:\n      mload(0x40)\n      tag_54\n      swap2\n      swap1\n      tag_46\n      jump\t// in\n    tag_54:\n      mload(0x40)\n      dup1\n      swap2\n      sub\n      swap1\n      return\n        /* \"contracts/standards/ERC721A.sol\":9437:9594  function safeTransferFrom(... */\n    tag_10:\n      tag_55\n      0x04\n      dup1\n      calldatasize\n      sub\n      dup2\n      add\n      swap1\n      tag_56\n      swap2\n      swap1\n      tag_49\n      jump\t// in\n    tag_56:\n      tag_57\n      jump\t// in\n    tag_55:\n      stop\n        /* \"contracts/standards/ERC721A.sol\":3780:3957  function tokenByIndex(uint256 index) public view override returns (uint256) {... */\n    tag_11:\n      tag_58\n      0x04\n      dup1\n      calldatasize\n      sub\n      dup2\n      add\n      swap1\n      tag_59\n      swap2\n      swap1\n      tag_35\n      jump\t// in\n    tag_59:\n      tag_60\n      jump\t// in\n    tag_58:\n      mload(0x40)\n      tag_61\n      swap2\n      swap1\n      tag_46\n      jump\t// in\n    tag_61:\n      mload(0x40)\n      dup1\n      swap2\n      sub\n      swap1\n      return\n        /* \"contracts/standards/ERC721A.sol\":6680:6798  function ownerOf(uint256 tokenId) public view override returns (address) {... */\n    tag_12:\n      tag_62\n      0x04\n      dup1\n      calldatasize\n      sub\n      dup2\n      add\n      swap1\n      tag_63\n      swap2\n      swap1\n      tag_35\n      jump\t// in\n    tag_63:\n      tag_64\n      jump\t// in\n    tag_62:\n      mload(0x40)\n      tag_65\n      swap2\n      swap1\n      tag_38\n      jump\t// in\n    tag_65:\n      mload(0x40)\n      dup1\n      swap2\n      sub\n      swap1\n      return\n        /* \"contracts/standards/ERC721A.sol\":5557:5768  function balanceOf(address owner) public view override returns (uint256) {... */\n    tag_13:\n      tag_66\n      0x04\n      dup1\n      calldatasize\n      sub\n      dup2\n      add\n      swap1\n      tag_67\n      swap2\n      swap1\n      tag_68\n      jump\t// in\n    tag_67:\n      tag_69\n      jump\t// in\n    tag_66:\n      mload(0x40)\n      tag_70\n      swap2\n      swap1\n      tag_46\n      jump\t// in\n    tag_70:\n      mload(0x40)\n      dup1\n      swap2\n      sub\n      swap1\n      return\n        /* \"contracts/standards/ERC721A.sol\":7012:7110  function symbol() public view virtual override returns (string memory) {... */\n    tag_14:\n      tag_71\n      tag_72\n      jump\t// in\n    tag_71:\n      mload(0x40)\n      tag_73\n      swap2\n      swap1\n      tag_32\n      jump\t// in\n    tag_73:\n      mload(0x40)\n      dup1\n      swap2\n      sub\n      swap1\n      return\n        /* \"contracts/standards/ERC721A.sol\":8650:8924  function setApprovalForAll(address operator, bool approved) public override {... */\n    tag_15:\n      tag_74\n      0x04\n      dup1\n      calldatasize\n      sub\n      dup2\n      add\n      swap1\n      tag_75\n      swap2\n      swap1\n      tag_76\n      jump\t// in\n    tag_75:\n      tag_77\n      jump\t// in\n    tag_74:\n      stop\n        /* \"contracts/standards/ERC721A.sol\":9657:9968  function safeTransferFrom(... */\n    tag_16:\n      tag_78\n      0x04\n      dup1\n      calldatasize\n      sub\n      dup2\n      add\n      swap1\n      tag_79\n      swap2\n      swap1\n      tag_80\n      jump\t// in\n    tag_79:\n      tag_81\n      jump\t// in\n    tag_78:\n      stop\n        /* \"contracts/standards/ERC721A.sol\":7173:7567  function tokenURI(uint256 tokenId)... */\n    tag_17:\n      tag_82\n      0x04\n      dup1\n      calldatasize\n      sub\n      dup2\n      add\n      swap1\n      tag_83\n      swap2\n      swap1\n      tag_35\n      jump\t// in\n    tag_83:\n      tag_84\n      jump\t// in\n    tag_82:\n      mload(0x40)\n      tag_85\n      swap2\n      swap1\n      tag_32\n      jump\t// in\n    tag_85:\n      mload(0x40)\n      dup1\n      swap2\n      sub\n      swap1\n      return\n        /* \"contracts/standards/ERC721A.sol\":14074:14117  uint256 public nextOwnerToExplicitlySet = 0 */\n    tag_18:\n      tag_86\n      tag_87\n      jump\t// in\n    tag_86:\n      mload(0x40)\n      tag_88\n      swap2\n      swap1\n      tag_46\n      jump\t// in\n    tag_88:\n      mload(0x40)\n      dup1\n      swap2\n      sub\n      swap1\n      return\n        /* \"contracts/standards/ERC721A.sol\":8987:9173  function isApprovedForAll(address owner, address operator)... */\n    tag_19:\n      tag_89\n      0x04\n      dup1\n      calldatasize\n      sub\n      dup2\n      add\n      swap1\n      tag_90\n      swap2\n      swap1\n      tag_91\n      jump\t// in\n    tag_90:\n      tag_92\n      jump\t// in\n    tag_89:\n      mload(0x40)\n      tag_93\n      swap2\n      swap1\n      tag_28\n      jump\t// in\n    tag_93:\n      mload(0x40)\n      dup1\n      swap2\n      sub\n      swap1\n      return\n        /* \"contracts/standards/ERC721A.sol\":5131:5501  function supportsInterface(bytes4 interfaceId)... */\n    tag_26:\n        /* \"contracts/standards/ERC721A.sol\":5258:5262  bool */\n      0x00\n        /* \"contracts/standards/ERC721A.sol\":5303:5328  type(IERC721).interfaceId */\n      0x80ac58cd00000000000000000000000000000000000000000000000000000000\n        /* \"contracts/standards/ERC721A.sol\":5288:5328  interfaceId == type(IERC721).interfaceId */\n      not(0xffffffffffffffffffffffffffffffffffffffffffffffffffffffff)\n      and\n        /* \"contracts/standards/ERC721A.sol\":5288:5299  interfaceId */\n      dup3\n        /* \"contracts/standards/ERC721A.sol\":5288:5328  interfaceId == type(IERC721).interfaceId */\n      not(0xffffffffffffffffffffffffffffffffffffffffffffffffffffffff)\n      and\n      eq\n        /* \"contracts/standards/ERC721A.sol\":5288:5387  interfaceId == type(IERC721).interfaceId ||... */\n      dup1\n      tag_95\n      jumpi\n      pop\n        /* \"contracts/standards/ERC721A.sol\":5354:5387  type(IERC721Metadata).interfaceId */\n      0x5b5e139f00000000000000000000000000000000000000000000000000000000\n        /* \"contracts/standards/ERC721A.sol\":5339:5387  interfaceId == type(IERC721Metadata).interfaceId */\n      not(0xffffffffffffffffffffffffffffffffffffffffffffffffffffffff)\n      and\n        /* \"contracts/standards/ERC721A.sol\":5339:5350  interfaceId */\n      dup3\n        /* \"contracts/standards/ERC721A.sol\":5339:5387  interfaceId == type(IERC721Metadata).interfaceId */\n      not(0xffffffffffffffffffffffffffffffffffffffffffffffffffffffff)\n      and\n      eq\n        /* \"contracts/standards/ERC721A.sol\":5288:5387  interfaceId == type(IERC721).interfaceId ||... */\n    tag_95:\n        /* \"contracts/standards/ERC721A.sol\":5288:5448  interfaceId == type(IERC721).interfaceId ||... */\n      dup1\n      tag_96\n      jumpi\n      pop\n        /* \"contracts/standards/ERC721A.sol\":5413:5448  type(IERC721Enumerable).interfaceId */\n      0x780e9d6300000000000000000000000000000000000000000000000000000000\n        /* \"contracts/standards/ERC721A.sol\":5398:5448  interfaceId == type(IERC721Enumerable).interfaceId */\n      not(0xffffffffffffffffffffffffffffffffffffffffffffffffffffffff)\n      and\n        /* \"contracts/standards/ERC721A.sol\":5398:5409  interfaceId */\n      dup3\n        /* \"contracts/standards/ERC721A.sol\":5398:5448  interfaceId == type(IERC721Enumerable).interfaceId */\n      not(0xffffffffffffffffffffffffffffffffffffffffffffffffffffffff)\n      and\n      eq\n        /* \"contracts/standards/ERC721A.sol\":5288:5448  interfaceId == type(IERC721).interfaceId ||... */\n    tag_96:\n        /* \"contracts/standards/ERC721A.sol\":5288:5495  interfaceId == type(IERC721).interfaceId ||... */\n      dup1\n      tag_97\n      jumpi\n      pop\n        /* \"contracts/standards/ERC721A.sol\":5459:5495  super.supportsInterface(interfaceId) */\n      tag_98\n        /* \"contracts/standards/ERC721A.sol\":5483:5494  interfaceId */\n      dup3\n        /* \"contracts/standards/ERC721A.sol\":5459:5482  super.supportsInterface */\n      tag_99\n        /* \"contracts/standards/ERC721A.sol\":5459:5495  super.supportsInterface(interfaceId) */\n      jump\t// in\n    tag_98:\n        /* \"contracts/standards/ERC721A.sol\":5288:5495  interfaceId == type(IERC721).interfaceId ||... */\n    tag_97:\n        /* \"contracts/standards/ERC721A.sol\":5274:5495  return... */\n      swap1\n      pop\n        /* \"contracts/standards/ERC721A.sol\":5131:5501  function supportsInterface(bytes4 interfaceId)... */\n      swap2\n      swap1\n      pop\n      jump\t// out\n        /* \"contracts/standards/ERC721A.sol\":6857:6951  function name() public view virtual override returns (string memory) {... */\n    tag_30:\n        /* \"contracts/standards/ERC721A.sol\":6911:6924  string memory */\n      0x60\n        /* \"contracts/standards/ERC721A.sol\":6940:6945  _name */\n      0x01\n        /* \"contracts/standards/ERC721A.sol\":6933:6945  return _name */\n      dup1\n      sload\n      tag_101\n      swap1\n      tag_102\n      jump\t// in\n    tag_101:\n      dup1\n      0x1f\n      add\n      0x20\n      dup1\n      swap2\n      div\n      mul\n      0x20\n      add\n      mload(0x40)\n      swap1\n      dup2\n      add\n      0x40\n      mstore\n      dup1\n      swap3\n      swap2\n      swap1\n      dup2\n      dup2\n      mstore\n      0x20\n      add\n      dup3\n      dup1\n      sload\n      tag_103\n      swap1\n      tag_102\n      jump\t// in\n    tag_103:\n      dup1\n      iszero\n      tag_104\n      jumpi\n      dup1\n      0x1f\n      lt\n      tag_105\n      jumpi\n      0x0100\n      dup1\n      dup4\n      sload\n      div\n      mul\n      dup4\n      mstore\n      swap2\n      0x20\n      add\n      swap2\n      jump(tag_104)\n    tag_105:\n      dup3\n      add\n      swap2\n      swap1\n      0x00\n      mstore\n      keccak256(0x00, 0x20)\n      swap1\n    tag_106:\n      dup2\n      sload\n      dup2\n      mstore\n      swap1\n      0x01\n      add\n      swap1\n      0x20\n      add\n      dup1\n      dup4\n      gt\n      tag_106\n      jumpi\n      dup3\n      swap1\n      sub\n      0x1f\n      and\n      dup3\n      add\n      swap2\n    tag_104:\n      pop\n      pop\n      pop\n      pop\n      pop\n      swap1\n      pop\n        /* \"contracts/standards/ERC721A.sol\":6857:6951  function name() public view virtual override returns (string memory) {... */\n      swap1\n      jump\t// out\n        /* \"contracts/standards/ERC721A.sol\":8382:8586  function getApproved(uint256 tokenId) public view override returns (address) {... */\n    tag_36:\n        /* \"contracts/standards/ERC721A.sol\":8450:8457  address */\n      0x00\n        /* \"contracts/standards/ERC721A.sol\":8474:8490  _exists(tokenId) */\n      tag_108\n        /* \"contracts/standards/ERC721A.sol\":8482:8489  tokenId */\n      dup3\n        /* \"contracts/standards/ERC721A.sol\":8474:8481  _exists */\n      tag_109\n        /* \"contracts/standards/ERC721A.sol\":8474:8490  _exists(tokenId) */\n      jump\t// in\n    tag_108:\n        /* \"contracts/standards/ERC721A.sol\":8466:8540  require(_exists(tokenId), \"ERC721A: approved query for nonexistent token\") */\n      tag_110\n      jumpi\n      mload(0x40)\n      0x08c379a000000000000000000000000000000000000000000000000000000000\n      dup2\n      mstore\n      0x04\n      add\n      tag_111\n      swap1\n      tag_112\n      jump\t// in\n    tag_111:\n      mload(0x40)\n      dup1\n      swap2\n      sub\n      swap1\n      revert\n    tag_110:\n        /* \"contracts/standards/ERC721A.sol\":8556:8571  _tokenApprovals */\n      0x05\n        /* \"contracts/standards/ERC721A.sol\":8556:8580  _tokenApprovals[tokenId] */\n      0x00\n        /* \"contracts/standards/ERC721A.sol\":8572:8579  tokenId */\n      dup4\n        /* \"contracts/standards/ERC721A.sol\":8556:8580  _tokenApprovals[tokenId] */\n      dup2\n      mstore\n      0x20\n      add\n      swap1\n      dup2\n      mstore\n      0x20\n      add\n      0x00\n      keccak256\n      0x00\n      swap1\n      sload\n      swap1\n      0x0100\n      exp\n      swap1\n      div\n      0xffffffffffffffffffffffffffffffffffffffff\n      and\n        /* \"contracts/standards/ERC721A.sol\":8549:8580  return _tokenApprovals[tokenId] */\n      swap1\n      pop\n        /* \"contracts/standards/ERC721A.sol\":8382:8586  function getApproved(uint256 tokenId) public view override returns (address) {... */\n      swap2\n      swap1\n      pop\n      jump\t// out\n        /* \"contracts/standards/ERC721A.sol\":7945:8324  function approve(address to, uint256 tokenId) public override {... */\n    tag_42:\n        /* \"contracts/standards/ERC721A.sol\":8014:8027  address owner */\n      0x00\n        /* \"contracts/standards/ERC721A.sol\":8030:8054  ERC721A.ownerOf(tokenId) */\n      tag_114\n        /* \"contracts/standards/ERC721A.sol\":8046:8053  tokenId */\n      dup3\n        /* \"contracts/standards/ERC721A.sol\":8030:8045  ERC721A.ownerOf */\n      tag_64\n        /* \"contracts/standards/ERC721A.sol\":8030:8054  ERC721A.ownerOf(tokenId) */\n      jump\t// in\n    tag_114:\n        /* \"contracts/standards/ERC721A.sol\":8014:8054  address owner = ERC721A.ownerOf(tokenId) */\n      swap1\n      pop\n        /* \"contracts/standards/ERC721A.sol\":8075:8080  owner */\n      dup1\n        /* \"contracts/standards/ERC721A.sol\":8069:8080  to != owner */\n      0xffffffffffffffffffffffffffffffffffffffff\n      and\n        /* \"contracts/standards/ERC721A.sol\":8069:8071  to */\n      dup4\n        /* \"contracts/standards/ERC721A.sol\":8069:8080  to != owner */\n      0xffffffffffffffffffffffffffffffffffffffff\n      and\n      sub\n        /* \"contracts/standards/ERC721A.sol\":8061:8119  require(to != owner, \"ERC721A: approval to current owner\") */\n      tag_115\n      jumpi\n      mload(0x40)\n      0x08c379a000000000000000000000000000000000000000000000000000000000\n      dup2\n      mstore\n      0x04\n      add\n      tag_116\n      swap1\n      tag_117\n      jump\t// in\n    tag_116:\n      mload(0x40)\n      dup1\n      swap2\n      sub\n      swap1\n      revert\n    tag_115:\n        /* \"contracts/standards/ERC721A.sol\":8160:8165  owner */\n      dup1\n        /* \"contracts/standards/ERC721A.sol\":8144:8165  _msgSender() == owner */\n      0xffffffffffffffffffffffffffffffffffffffff\n      and\n        /* \"contracts/standards/ERC721A.sol\":8144:8156  _msgSender() */\n      tag_118\n        /* \"contracts/standards/ERC721A.sol\":8144:8154  _msgSender */\n      tag_119\n        /* \"contracts/standards/ERC721A.sol\":8144:8156  _msgSender() */\n      jump\t// in\n    tag_118:\n        /* \"contracts/standards/ERC721A.sol\":8144:8165  _msgSender() == owner */\n      0xffffffffffffffffffffffffffffffffffffffff\n      and\n      eq\n        /* \"contracts/standards/ERC721A.sol\":8144:8206  _msgSender() == owner || isApprovedForAll(owner, _msgSender()) */\n      dup1\n      tag_120\n      jumpi\n      pop\n        /* \"contracts/standards/ERC721A.sol\":8169:8206  isApprovedForAll(owner, _msgSender()) */\n      tag_121\n        /* \"contracts/standards/ERC721A.sol\":8186:8191  owner */\n      dup2\n        /* \"contracts/standards/ERC721A.sol\":8193:8205  _msgSender() */\n      tag_122\n        /* \"contracts/standards/ERC721A.sol\":8193:8203  _msgSender */\n      tag_119\n        /* \"contracts/standards/ERC721A.sol\":8193:8205  _msgSender() */\n      jump\t// in\n    tag_122:\n        /* \"contracts/standards/ERC721A.sol\":8169:8185  isApprovedForAll */\n      tag_92\n        /* \"contracts/standards/ERC721A.sol\":8169:8206  isApprovedForAll(owner, _msgSender()) */\n      jump\t// in\n    tag_121:\n        /* \"contracts/standards/ERC721A.sol\":8144:8206  _msgSender() == owner || isApprovedForAll(owner, _msgSender()) */\n    tag_120:\n        /* \"contracts/standards/ERC721A.sol\":8128:8281  require(... */\n      tag_123\n      jumpi\n      mload(0x40)\n      0x08c379a000000000000000000000000000000000000000000000000000000000\n      dup2\n      mstore\n      0x04\n      add\n      tag_124\n      swap1\n      tag_125\n      jump\t// in\n    tag_124:\n      mload(0x40)\n      dup1\n      swap2\n      sub\n      swap1\n      revert\n    tag_123:\n        /* \"contracts/standards/ERC721A.sol\":8290:8318  _approve(to, tokenId, owner) */\n      tag_126\n        /* \"contracts/standards/ERC721A.sol\":8299:8301  to */\n      dup4\n        /* \"contracts/standards/ERC721A.sol\":8303:8310  tokenId */\n      dup4\n        /* \"contracts/standards/ERC721A.sol\":8312:8317  owner */\n      dup4\n        /* \"contracts/standards/ERC721A.sol\":8290:8298  _approve */\n      tag_127\n        /* \"contracts/standards/ERC721A.sol\":8290:8318  _approve(to, tokenId, owner) */\n      jump\t// in\n    tag_126:\n        /* \"contracts/standards/ERC721A.sol\":8007:8324  {... */\n      pop\n        /* \"contracts/standards/ERC721A.sol\":7945:8324  function approve(address to, uint256 tokenId) public override {... */\n      pop\n      pop\n      jump\t// out\n        /* \"contracts/standards/ERC721A.sol\":3591:3711  function totalSupply() public view override returns (uint256) {... */\n    tag_44:\n        /* \"contracts/standards/ERC721A.sol\":3644:3651  uint256 */\n      0x00\n        /* \"contracts/standards/ERC721A.sol\":3682:3683  1 */\n      0x01\n        /* \"contracts/standards/ERC721A.sol\":3667:3679  currentIndex */\n      sload(0x00)\n        /* \"contracts/standards/ERC721A.sol\":3667:3683  currentIndex - 1 */\n      tag_129\n      swap2\n      swap1\n      tag_130\n      jump\t// in\n    tag_129:\n        /* \"contracts/standards/ERC721A.sol\":3660:3683  return currentIndex - 1 */\n      swap1\n      pop\n        /* \"contracts/standards/ERC721A.sol\":3591:3711  function totalSupply() public view override returns (uint256) {... */\n      swap1\n      jump\t// out\n        /* \"contracts/standards/ERC721A.sol\":9232:9374  function transferFrom(... */\n    tag_50:\n        /* \"contracts/standards/ERC721A.sol\":9340:9368  _transfer(from, to, tokenId) */\n      tag_132\n        /* \"contracts/standards/ERC721A.sol\":9350:9354  from */\n      dup4\n        /* \"contracts/standards/ERC721A.sol\":9356:9358  to */\n      dup4\n        /* \"contracts/standards/ERC721A.sol\":9360:9367  tokenId */\n      dup4\n        /* \"contracts/standards/ERC721A.sol\":9340:9349  _transfer */\n      tag_133\n        /* \"contracts/standards/ERC721A.sol\":9340:9368  _transfer(from, to, tokenId) */\n      jump\t// in\n    tag_132:\n        /* \"contracts/standards/ERC721A.sol\":9232:9374  function transferFrom(... */\n      pop\n      pop\n      pop\n      jump\t// out\n        /* \"contracts/standards/ERC721A.sol\":4248:5067  function tokenOfOwnerByIndex(address owner, uint256 index)... */\n    tag_53:\n        /* \"contracts/standards/ERC721A.sol\":4357:4364  uint256 */\n      0x00\n        /* \"contracts/standards/ERC721A.sol\":4392:4408  balanceOf(owner) */\n      tag_135\n        /* \"contracts/standards/ERC721A.sol\":4402:4407  owner */\n      dup4\n        /* \"contracts/standards/ERC721A.sol\":4392:4401  balanceOf */\n      tag_69\n        /* \"contracts/standards/ERC721A.sol\":4392:4408  balanceOf(owner) */\n      jump\t// in\n    tag_135:\n        /* \"contracts/standards/ERC721A.sol\":4384:4389  index */\n      dup3\n        /* \"contracts/standards/ERC721A.sol\":4384:4408  index < balanceOf(owner) */\n      lt\n        /* \"contracts/standards/ERC721A.sol\":4376:4447  require(index < balanceOf(owner), \"ERC721A: owner index out of bounds\") */\n      tag_136\n      jumpi\n      mload(0x40)\n      0x08c379a000000000000000000000000000000000000000000000000000000000\n      dup2\n      mstore\n      0x04\n      add\n      tag_137\n      swap1\n      tag_138\n      jump\t// in\n    tag_137:\n      mload(0x40)\n      dup1\n      swap2\n      sub\n      swap1\n      revert\n    tag_136:\n        /* \"contracts/standards/ERC721A.sol\":4454:4476  uint256 numMintedSoFar */\n      0x00\n        /* \"contracts/standards/ERC721A.sol\":4479:4492  totalSupply() */\n      tag_139\n        /* \"contracts/standards/ERC721A.sol\":4479:4490  totalSupply */\n      tag_44\n        /* \"contracts/standards/ERC721A.sol\":4479:4492  totalSupply() */\n      jump\t// in\n    tag_139:\n        /* \"contracts/standards/ERC721A.sol\":4454:4492  uint256 numMintedSoFar = totalSupply() */\n      swap1\n      pop\n        /* \"contracts/standards/ERC721A.sol\":4499:4518  uint256 tokenIdsIdx */\n      0x00\n        /* \"contracts/standards/ERC721A.sol\":4529:4554  address currOwnershipAddr */\n      dup1\n        /* \"contracts/standards/ERC721A.sol\":4579:4588  uint256 i */\n      0x00\n        /* \"contracts/standards/ERC721A.sol\":4591:4592  1 */\n      0x01\n        /* \"contracts/standards/ERC721A.sol\":4579:4592  uint256 i = 1 */\n      swap1\n      pop\n        /* \"contracts/standards/ERC721A.sol\":4574:4999  for (uint256 i = 1; i <= numMintedSoFar; i++) { // 내가 수정... */\n    tag_140:\n        /* \"contracts/standards/ERC721A.sol\":4599:4613  numMintedSoFar */\n      dup4\n        /* \"contracts/standards/ERC721A.sol\":4594:4595  i */\n      dup2\n        /* \"contracts/standards/ERC721A.sol\":4594:4613  i <= numMintedSoFar */\n      gt\n        /* \"contracts/standards/ERC721A.sol\":4574:4999  for (uint256 i = 1; i <= numMintedSoFar; i++) { // 내가 수정... */\n      tag_141\n      jumpi\n        /* \"contracts/standards/ERC721A.sol\":4703:4734  TokenOwnership memory ownership */\n      0x00\n        /* \"contracts/standards/ERC721A.sol\":4737:4748  _ownerships */\n      0x03\n        /* \"contracts/standards/ERC721A.sol\":4737:4751  _ownerships[i] */\n      0x00\n        /* \"contracts/standards/ERC721A.sol\":4749:4750  i */\n      dup4\n        /* \"contracts/standards/ERC721A.sol\":4737:4751  _ownerships[i] */\n      dup2\n      mstore\n      0x20\n      add\n      swap1\n      dup2\n      mstore\n      0x20\n      add\n      0x00\n      keccak256\n        /* \"contracts/standards/ERC721A.sol\":4703:4751  TokenOwnership memory ownership = _ownerships[i] */\n      mload(0x40)\n      dup1\n      0x40\n      add\n      0x40\n      mstore\n      swap1\n      dup2\n      0x00\n      dup3\n      add\n      0x00\n      swap1\n      sload\n      swap1\n      0x0100\n      exp\n      swap1\n      div\n      0xffffffffffffffffffffffffffffffffffffffff\n      and\n      0xffffffffffffffffffffffffffffffffffffffff\n      and\n      0xffffffffffffffffffffffffffffffffffffffff\n      and\n      dup2\n      mstore\n      0x20\n      add\n      0x00\n      dup3\n      add\n      0x14\n      swap1\n      sload\n      swap1\n      0x0100\n      exp\n      swap1\n      div\n      0xffffffffffffffff\n      and\n      0xffffffffffffffff\n      and\n      0xffffffffffffffff\n      and\n      dup2\n      mstore\n      pop\n      pop\n      swap1\n      pop\n        /* \"contracts/standards/ERC721A.sol\":4790:4791  0 */\n      0x00\n        /* \"contracts/standards/ERC721A.sol\":4764:4792  ownership.addr != address(0) */\n      0xffffffffffffffffffffffffffffffffffffffff\n      and\n        /* \"contracts/standards/ERC721A.sol\":4764:4773  ownership */\n      dup2\n        /* \"contracts/standards/ERC721A.sol\":4764:4778  ownership.addr */\n      0x00\n      add\n      mload\n        /* \"contracts/standards/ERC721A.sol\":4764:4792  ownership.addr != address(0) */\n      0xffffffffffffffffffffffffffffffffffffffff\n      and\n      eq\n        /* \"contracts/standards/ERC721A.sol\":4760:4849  if (ownership.addr != address(0)) {... */\n      tag_143\n      jumpi\n        /* \"contracts/standards/ERC721A.sol\":4825:4834  ownership */\n      dup1\n        /* \"contracts/standards/ERC721A.sol\":4825:4839  ownership.addr */\n      0x00\n      add\n      mload\n        /* \"contracts/standards/ERC721A.sol\":4805:4839  currOwnershipAddr = ownership.addr */\n      swap3\n      pop\n        /* \"contracts/standards/ERC721A.sol\":4760:4849  if (ownership.addr != address(0)) {... */\n    tag_143:\n        /* \"contracts/standards/ERC721A.sol\":4882:4887  owner */\n      dup8\n        /* \"contracts/standards/ERC721A.sol\":4861:4887  currOwnershipAddr == owner */\n      0xffffffffffffffffffffffffffffffffffffffff\n      and\n        /* \"contracts/standards/ERC721A.sol\":4861:4878  currOwnershipAddr */\n      dup4\n        /* \"contracts/standards/ERC721A.sol\":4861:4887  currOwnershipAddr == owner */\n      0xffffffffffffffffffffffffffffffffffffffff\n      and\n      sub\n        /* \"contracts/standards/ERC721A.sol\":4857:4992  if (currOwnershipAddr == owner) {... */\n      tag_144\n      jumpi\n        /* \"contracts/standards/ERC721A.sol\":4919:4924  index */\n      dup7\n        /* \"contracts/standards/ERC721A.sol\":4904:4915  tokenIdsIdx */\n      dup5\n        /* \"contracts/standards/ERC721A.sol\":4904:4924  tokenIdsIdx == index */\n      sub\n        /* \"contracts/standards/ERC721A.sol\":4900:4959  if (tokenIdsIdx == index) {... */\n      tag_145\n      jumpi\n        /* \"contracts/standards/ERC721A.sol\":4946:4947  i */\n      dup2\n        /* \"contracts/standards/ERC721A.sol\":4939:4947  return i */\n      swap6\n      pop\n      pop\n      pop\n      pop\n      pop\n      pop\n      jump(tag_134)\n        /* \"contracts/standards/ERC721A.sol\":4900:4959  if (tokenIdsIdx == index) {... */\n    tag_145:\n        /* \"contracts/standards/ERC721A.sol\":4969:4982  tokenIdsIdx++ */\n      dup4\n      dup1\n      tag_146\n      swap1\n      tag_147\n      jump\t// in\n    tag_146:\n      swap5\n      pop\n      pop\n        /* \"contracts/standards/ERC721A.sol\":4857:4992  if (currOwnershipAddr == owner) {... */\n    tag_144:\n        /* \"contracts/standards/ERC721A.sol\":4620:4999  { // 내가 수정... */\n      pop\n        /* \"contracts/standards/ERC721A.sol\":4615:4618  i++ */\n      dup1\n      dup1\n      tag_148\n      swap1\n      tag_147\n      jump\t// in\n    tag_148:\n      swap2\n      pop\n      pop\n        /* \"contracts/standards/ERC721A.sol\":4574:4999  for (uint256 i = 1; i <= numMintedSoFar; i++) { // 내가 수정... */\n      jump(tag_140)\n    tag_141:\n      pop\n        /* \"contracts/standards/ERC721A.sol\":5005:5061  revert(\"ERC721A: unable to get token of owner by index\") */\n      mload(0x40)\n      0x08c379a000000000000000000000000000000000000000000000000000000000\n      dup2\n      mstore\n      0x04\n      add\n      tag_149\n      swap1\n      tag_150\n      jump\t// in\n    tag_149:\n      mload(0x40)\n      dup1\n      swap2\n      sub\n      swap1\n      revert\n        /* \"contracts/standards/ERC721A.sol\":4248:5067  function tokenOfOwnerByIndex(address owner, uint256 index)... */\n    tag_134:\n      swap3\n      swap2\n      pop\n      pop\n      jump\t// out\n        /* \"contracts/standards/ERC721A.sol\":9437:9594  function safeTransferFrom(... */\n    tag_57:\n        /* \"contracts/standards/ERC721A.sol\":9549:9588  safeTransferFrom(from, to, tokenId, \"\") */\n      tag_152\n        /* \"contracts/standards/ERC721A.sol\":9566:9570  from */\n      dup4\n        /* \"contracts/standards/ERC721A.sol\":9572:9574  to */\n      dup4\n        /* \"contracts/standards/ERC721A.sol\":9576:9583  tokenId */\n      dup4\n        /* \"contracts/standards/ERC721A.sol\":9549:9588  safeTransferFrom(from, to, tokenId, \"\") */\n      mload(0x40)\n      dup1\n      0x20\n      add\n      0x40\n      mstore\n      dup1\n      0x00\n      dup2\n      mstore\n      pop\n        /* \"contracts/standards/ERC721A.sol\":9549:9565  safeTransferFrom */\n      tag_81\n        /* \"contracts/standards/ERC721A.sol\":9549:9588  safeTransferFrom(from, to, tokenId, \"\") */\n      jump\t// in\n    tag_152:\n        /* \"contracts/standards/ERC721A.sol\":9437:9594  function safeTransferFrom(... */\n      pop\n      pop\n      pop\n      jump\t// out\n        /* \"contracts/standards/ERC721A.sol\":3780:3957  function tokenByIndex(uint256 index) public view override returns (uint256) {... */\n    tag_60:\n        /* \"contracts/standards/ERC721A.sol\":3847:3854  uint256 */\n      0x00\n        /* \"contracts/standards/ERC721A.sol\":3879:3892  totalSupply() */\n      tag_154\n        /* \"contracts/standards/ERC721A.sol\":3879:3890  totalSupply */\n      tag_44\n        /* \"contracts/standards/ERC721A.sol\":3879:3892  totalSupply() */\n      jump\t// in\n    tag_154:\n        /* \"contracts/standards/ERC721A.sol\":3871:3876  index */\n      dup3\n        /* \"contracts/standards/ERC721A.sol\":3871:3892  index < totalSupply() */\n      lt\n        /* \"contracts/standards/ERC721A.sol\":3863:3932  require(index < totalSupply(), \"ERC721A: global index out of bounds\") */\n      tag_155\n      jumpi\n      mload(0x40)\n      0x08c379a000000000000000000000000000000000000000000000000000000000\n      dup2\n      mstore\n      0x04\n      add\n      tag_156\n      swap1\n      tag_157\n      jump\t// in\n    tag_156:\n      mload(0x40)\n      dup1\n      swap2\n      sub\n      swap1\n      revert\n    tag_155:\n        /* \"contracts/standards/ERC721A.sol\":3946:3951  index */\n      dup2\n        /* \"contracts/standards/ERC721A.sol\":3939:3951  return index */\n      swap1\n      pop\n        /* \"contracts/standards/ERC721A.sol\":3780:3957  function tokenByIndex(uint256 index) public view override returns (uint256) {... */\n      swap2\n      swap1\n      pop\n      jump\t// out\n        /* \"contracts/standards/ERC721A.sol\":6680:6798  function ownerOf(uint256 tokenId) public view override returns (address) {... */\n    tag_64:\n        /* \"contracts/standards/ERC721A.sol\":6744:6751  address */\n      0x00\n        /* \"contracts/standards/ERC721A.sol\":6767:6787  ownershipOf(tokenId) */\n      tag_159\n        /* \"contracts/standards/ERC721A.sol\":6779:6786  tokenId */\n      dup3\n        /* \"contracts/standards/ERC721A.sol\":6767:6778  ownershipOf */\n      tag_160\n        /* \"contracts/standards/ERC721A.sol\":6767:6787  ownershipOf(tokenId) */\n      jump\t// in\n    tag_159:\n        /* \"contracts/standards/ERC721A.sol\":6767:6792  ownershipOf(tokenId).addr */\n      0x00\n      add\n      mload\n        /* \"contracts/standards/ERC721A.sol\":6760:6792  return ownershipOf(tokenId).addr */\n      swap1\n      pop\n        /* \"contracts/standards/ERC721A.sol\":6680:6798  function ownerOf(uint256 tokenId) public view override returns (address) {... */\n      swap2\n      swap1\n      pop\n      jump\t// out\n        /* \"contracts/standards/ERC721A.sol\":5557:5768  function balanceOf(address owner) public view override returns (uint256) {... */\n    tag_69:\n        /* \"contracts/standards/ERC721A.sol\":5621:5628  uint256 */\n      0x00\n        /* \"contracts/standards/ERC721A.sol\":5662:5663  0 */\n      dup1\n        /* \"contracts/standards/ERC721A.sol\":5645:5664  owner != address(0) */\n      0xffffffffffffffffffffffffffffffffffffffff\n      and\n        /* \"contracts/standards/ERC721A.sol\":5645:5650  owner */\n      dup3\n        /* \"contracts/standards/ERC721A.sol\":5645:5664  owner != address(0) */\n      0xffffffffffffffffffffffffffffffffffffffff\n      and\n      sub\n        /* \"contracts/standards/ERC721A.sol\":5637:5712  require(owner != address(0), \"ERC721A: balance query for the zero address\") */\n      tag_162\n      jumpi\n      mload(0x40)\n      0x08c379a000000000000000000000000000000000000000000000000000000000\n      dup2\n      mstore\n      0x04\n      add\n      tag_163\n      swap1\n      tag_164\n      jump\t// in\n    tag_163:\n      mload(0x40)\n      dup1\n      swap2\n      sub\n      swap1\n      revert\n    tag_162:\n        /* \"contracts/standards/ERC721A.sol\":5734:5746  _addressData */\n      0x04\n        /* \"contracts/standards/ERC721A.sol\":5734:5753  _addressData[owner] */\n      0x00\n        /* \"contracts/standards/ERC721A.sol\":5747:5752  owner */\n      dup4\n        /* \"contracts/standards/ERC721A.sol\":5734:5753  _addressData[owner] */\n      0xffffffffffffffffffffffffffffffffffffffff\n      and\n      0xffffffffffffffffffffffffffffffffffffffff\n      and\n      dup2\n      mstore\n      0x20\n      add\n      swap1\n      dup2\n      mstore\n      0x20\n      add\n      0x00\n      keccak256\n        /* \"contracts/standards/ERC721A.sol\":5734:5761  _addressData[owner].balance */\n      0x00\n      add\n      0x00\n      swap1\n      sload\n      swap1\n      0x0100\n      exp\n      swap1\n      div\n      0xffffffffffffffffffffffffffffffff\n      and\n        /* \"contracts/standards/ERC721A.sol\":5726:5762  uint256(_addressData[owner].balance) */\n      0xffffffffffffffffffffffffffffffff\n      and\n        /* \"contracts/standards/ERC721A.sol\":5719:5762  return uint256(_addressData[owner].balance) */\n      swap1\n      pop\n        /* \"contracts/standards/ERC721A.sol\":5557:5768  function balanceOf(address owner) public view override returns (uint256) {... */\n      swap2\n      swap1\n      pop\n      jump\t// out\n        /* \"contracts/standards/ERC721A.sol\":7012:7110  function symbol() public view virtual override returns (string memory) {... */\n    tag_72:\n        /* \"contracts/standards/ERC721A.sol\":7068:7081  string memory */\n      0x60\n        /* \"contracts/standards/ERC721A.sol\":7097:7104  _symbol */\n      0x02\n        /* \"contracts/standards/ERC721A.sol\":7090:7104  return _symbol */\n      dup1\n      sload\n      tag_166\n      swap1\n      tag_102\n      jump\t// in\n    tag_166:\n      dup1\n      0x1f\n      add\n      0x20\n      dup1\n      swap2\n      div\n      mul\n      0x20\n      add\n      mload(0x40)\n      swap1\n      dup2\n      add\n      0x40\n      mstore\n      dup1\n      swap3\n      swap2\n      swap1\n      dup2\n      dup2\n      mstore\n      0x20\n      add\n      dup3\n      dup1\n      sload\n      tag_167\n      swap1\n      tag_102\n      jump\t// in\n    tag_167:\n      dup1\n      iszero\n      tag_168\n      jumpi\n      dup1\n      0x1f\n      lt\n      tag_169\n      jumpi\n      0x0100\n      dup1\n      dup4\n      sload\n      div\n      mul\n      dup4\n      mstore\n      swap2\n      0x20\n      add\n      swap2\n      jump(tag_168)\n    tag_169:\n      dup3\n      add\n      swap2\n      swap1\n      0x00\n      mstore\n      keccak256(0x00, 0x20)\n      swap1\n    tag_170:\n      dup2\n      sload\n      dup2\n      mstore\n      swap1\n      0x01\n      add\n      swap1\n      0x20\n      add\n      dup1\n      dup4\n      gt\n      tag_170\n      jumpi\n      dup3\n      swap1\n      sub\n      0x1f\n      and\n      dup3\n      add\n      swap2\n    tag_168:\n      pop\n      pop\n      pop\n      pop\n      pop\n      swap1\n      pop\n        /* \"contracts/standards/ERC721A.sol\":7012:7110  function symbol() public view virtual override returns (string memory) {... */\n      swap1\n      jump\t// out\n        /* \"contracts/standards/ERC721A.sol\":8650:8924  function setApprovalForAll(address operator, bool approved) public override {... */\n    tag_77:\n        /* \"contracts/standards/ERC721A.sol\":8753:8765  _msgSender() */\n      tag_172\n        /* \"contracts/standards/ERC721A.sol\":8753:8763  _msgSender */\n      tag_119\n        /* \"contracts/standards/ERC721A.sol\":8753:8765  _msgSender() */\n      jump\t// in\n    tag_172:\n        /* \"contracts/standards/ERC721A.sol\":8741:8765  operator != _msgSender() */\n      0xffffffffffffffffffffffffffffffffffffffff\n      and\n        /* \"contracts/standards/ERC721A.sol\":8741:8749  operator */\n      dup3\n        /* \"contracts/standards/ERC721A.sol\":8741:8765  operator != _msgSender() */\n      0xffffffffffffffffffffffffffffffffffffffff\n      and\n      sub\n        /* \"contracts/standards/ERC721A.sol\":8733:8796  require(operator != _msgSender(), \"ERC721A: approve to caller\") */\n      tag_173\n      jumpi\n      mload(0x40)\n      0x08c379a000000000000000000000000000000000000000000000000000000000\n      dup2\n      mstore\n      0x04\n      add\n      tag_174\n      swap1\n      tag_175\n      jump\t// in\n    tag_174:\n      mload(0x40)\n      dup1\n      swap2\n      sub\n      swap1\n      revert\n    tag_173:\n        /* \"contracts/standards/ERC721A.sol\":8850:8858  approved */\n      dup1\n        /* \"contracts/standards/ERC721A.sol\":8805:8823  _operatorApprovals */\n      0x06\n        /* \"contracts/standards/ERC721A.sol\":8805:8837  _operatorApprovals[_msgSender()] */\n      0x00\n        /* \"contracts/standards/ERC721A.sol\":8824:8836  _msgSender() */\n      tag_176\n        /* \"contracts/standards/ERC721A.sol\":8824:8834  _msgSender */\n      tag_119\n        /* \"contracts/standards/ERC721A.sol\":8824:8836  _msgSender() */\n      jump\t// in\n    tag_176:\n        /* \"contracts/standards/ERC721A.sol\":8805:8837  _operatorApprovals[_msgSender()] */\n      0xffffffffffffffffffffffffffffffffffffffff\n      and\n      0xffffffffffffffffffffffffffffffffffffffff\n      and\n      dup2\n      mstore\n      0x20\n      add\n      swap1\n      dup2\n      mstore\n      0x20\n      add\n      0x00\n      keccak256\n        /* \"contracts/standards/ERC721A.sol\":8805:8847  _operatorApprovals[_msgSender()][operator] */\n      0x00\n        /* \"contracts/standards/ERC721A.sol\":8838:8846  operator */\n      dup5\n        /* \"contracts/standards/ERC721A.sol\":8805:8847  _operatorApprovals[_msgSender()][operator] */\n      0xffffffffffffffffffffffffffffffffffffffff\n      and\n      0xffffffffffffffffffffffffffffffffffffffff\n      and\n      dup2\n      mstore\n      0x20\n      add\n      swap1\n      dup2\n      mstore\n      0x20\n      add\n      0x00\n      keccak256\n      0x00\n        /* \"contracts/standards/ERC721A.sol\":8805:8858  _operatorApprovals[_msgSender()][operator] = approved */\n      0x0100\n      exp\n      dup2\n      sload\n      dup2\n      0xff\n      mul\n      not\n      and\n      swap1\n      dup4\n      iszero\n      iszero\n      mul\n      or\n      swap1\n      sstore\n      pop\n        /* \"contracts/standards/ERC721A.sol\":8899:8907  operator */\n      dup2\n        /* \"contracts/standards/ERC721A.sol\":8870:8918  ApprovalForAll(_msgSender(), operator, approved) */\n      0xffffffffffffffffffffffffffffffffffffffff\n      and\n        /* \"contracts/standards/ERC721A.sol\":8885:8897  _msgSender() */\n      tag_177\n        /* \"contracts/standards/ERC721A.sol\":8885:8895  _msgSender */\n      tag_119\n        /* \"contracts/standards/ERC721A.sol\":8885:8897  _msgSender() */\n      jump\t// in\n    tag_177:\n        /* \"contracts/standards/ERC721A.sol\":8870:8918  ApprovalForAll(_msgSender(), operator, approved) */\n      0xffffffffffffffffffffffffffffffffffffffff\n      and\n      0x17307eab39ab6107e8899845ad3d59bd9653f200f220920489ca2b5937696c31\n        /* \"contracts/standards/ERC721A.sol\":8909:8917  approved */\n      dup4\n        /* \"contracts/standards/ERC721A.sol\":8870:8918  ApprovalForAll(_msgSender(), operator, approved) */\n      mload(0x40)\n      tag_178\n      swap2\n      swap1\n      tag_28\n      jump\t// in\n    tag_178:\n      mload(0x40)\n      dup1\n      swap2\n      sub\n      swap1\n      log3\n        /* \"contracts/standards/ERC721A.sol\":8650:8924  function setApprovalForAll(address operator, bool approved) public override {... */\n      pop\n      pop\n      jump\t// out\n        /* \"contracts/standards/ERC721A.sol\":9657:9968  function safeTransferFrom(... */\n    tag_81:\n        /* \"contracts/standards/ERC721A.sol\":9794:9822  _transfer(from, to, tokenId) */\n      tag_180\n        /* \"contracts/standards/ERC721A.sol\":9804:9808  from */\n      dup5\n        /* \"contracts/standards/ERC721A.sol\":9810:9812  to */\n      dup5\n        /* \"contracts/standards/ERC721A.sol\":9814:9821  tokenId */\n      dup5\n        /* \"contracts/standards/ERC721A.sol\":9794:9803  _transfer */\n      tag_133\n        /* \"contracts/standards/ERC721A.sol\":9794:9822  _transfer(from, to, tokenId) */\n      jump\t// in\n    tag_180:\n        /* \"contracts/standards/ERC721A.sol\":9845:9893  _checkOnERC721Received(from, to, tokenId, _data) */\n      tag_181\n        /* \"contracts/standards/ERC721A.sol\":9868:9872  from */\n      dup5\n        /* \"contracts/standards/ERC721A.sol\":9874:9876  to */\n      dup5\n        /* \"contracts/standards/ERC721A.sol\":9878:9885  tokenId */\n      dup5\n        /* \"contracts/standards/ERC721A.sol\":9887:9892  _data */\n      dup5\n        /* \"contracts/standards/ERC721A.sol\":9845:9867  _checkOnERC721Received */\n      tag_182\n        /* \"contracts/standards/ERC721A.sol\":9845:9893  _checkOnERC721Received(from, to, tokenId, _data) */\n      jump\t// in\n    tag_181:\n        /* \"contracts/standards/ERC721A.sol\":9829:9962  require(... */\n      tag_183\n      jumpi\n      mload(0x40)\n      0x08c379a000000000000000000000000000000000000000000000000000000000\n      dup2\n      mstore\n      0x04\n      add\n      tag_184\n      swap1\n      tag_185\n      jump\t// in\n    tag_184:\n      mload(0x40)\n      dup1\n      swap2\n      sub\n      swap1\n      revert\n    tag_183:\n        /* \"contracts/standards/ERC721A.sol\":9657:9968  function safeTransferFrom(... */\n      pop\n      pop\n      pop\n      pop\n      jump\t// out\n        /* \"contracts/standards/ERC721A.sol\":7173:7567  function tokenURI(uint256 tokenId)... */\n    tag_84:\n        /* \"contracts/standards/ERC721A.sol\":7271:7284  string memory */\n      0x60\n        /* \"contracts/standards/ERC721A.sol\":7312:7328  _exists(tokenId) */\n      tag_187\n        /* \"contracts/standards/ERC721A.sol\":7320:7327  tokenId */\n      dup3\n        /* \"contracts/standards/ERC721A.sol\":7312:7319  _exists */\n      tag_109\n        /* \"contracts/standards/ERC721A.sol\":7312:7328  _exists(tokenId) */\n      jump\t// in\n    tag_187:\n        /* \"contracts/standards/ERC721A.sol\":7296:7393  require(... */\n      tag_188\n      jumpi\n      mload(0x40)\n      0x08c379a000000000000000000000000000000000000000000000000000000000\n      dup2\n      mstore\n      0x04\n      add\n      tag_189\n      swap1\n      tag_190\n      jump\t// in\n    tag_189:\n      mload(0x40)\n      dup1\n      swap2\n      sub\n      swap1\n      revert\n    tag_188:\n        /* \"contracts/standards/ERC721A.sol\":7402:7423  string memory baseURI */\n      0x00\n        /* \"contracts/standards/ERC721A.sol\":7426:7436  _baseURI() */\n      tag_191\n        /* \"contracts/standards/ERC721A.sol\":7426:7434  _baseURI */\n      tag_192\n        /* \"contracts/standards/ERC721A.sol\":7426:7436  _baseURI() */\n      jump\t// in\n    tag_191:\n        /* \"contracts/standards/ERC721A.sol\":7402:7436  string memory baseURI = _baseURI() */\n      swap1\n      pop\n        /* \"contracts/standards/ERC721A.sol\":7481:7482  0 */\n      0x00\n        /* \"contracts/standards/ERC721A.sol\":7463:7470  baseURI */\n      dup2\n        /* \"contracts/standards/ERC721A.sol\":7457:7478  bytes(baseURI).length */\n      mload\n        /* \"contracts/standards/ERC721A.sol\":7457:7482  bytes(baseURI).length > 0 */\n      gt\n        /* \"contracts/standards/ERC721A.sol\":7457:7561  bytes(baseURI).length > 0... */\n      tag_193\n      jumpi\n      mload(0x40)\n      dup1\n      0x20\n      add\n      0x40\n      mstore\n      dup1\n      0x00\n      dup2\n      mstore\n      pop\n      jump(tag_194)\n    tag_193:\n        /* \"contracts/standards/ERC721A.sol\":7518:7525  baseURI */\n      dup1\n        /* \"contracts/standards/ERC721A.sol\":7527:7545  tokenId.toString() */\n      tag_195\n        /* \"contracts/standards/ERC721A.sol\":7527:7534  tokenId */\n      dup5\n        /* \"contracts/standards/ERC721A.sol\":7527:7543  tokenId.toString */\n      tag_196\n        /* \"contracts/standards/ERC721A.sol\":7527:7545  tokenId.toString() */\n      jump\t// in\n    tag_195:\n        /* \"contracts/standards/ERC721A.sol\":7501:7546  abi.encodePacked(baseURI, tokenId.toString()) */\n      add(0x20, mload(0x40))\n      tag_197\n      swap3\n      swap2\n      swap1\n      tag_198\n      jump\t// in\n    tag_197:\n      mload(0x40)\n      0x20\n      dup2\n      dup4\n      sub\n      sub\n      dup2\n      mstore\n      swap1\n      0x40\n      mstore\n        /* \"contracts/standards/ERC721A.sol\":7457:7561  bytes(baseURI).length > 0... */\n    tag_194:\n        /* \"contracts/standards/ERC721A.sol\":7443:7561  return... */\n      swap2\n      pop\n      pop\n        /* \"contracts/standards/ERC721A.sol\":7173:7567  function tokenURI(uint256 tokenId)... */\n      swap2\n      swap1\n      pop\n      jump\t// out\n        /* \"contracts/standards/ERC721A.sol\":14074:14117  uint256 public nextOwnerToExplicitlySet = 0 */\n    tag_87:\n      sload(0x07)\n      dup2\n      jump\t// out\n        /* \"contracts/standards/ERC721A.sol\":8987:9173  function isApprovedForAll(address owner, address operator)... */\n    tag_92:\n        /* \"contracts/standards/ERC721A.sol\":9109:9113  bool */\n      0x00\n        /* \"contracts/standards/ERC721A.sol\":9132:9150  _operatorApprovals */\n      0x06\n        /* \"contracts/standards/ERC721A.sol\":9132:9157  _operatorApprovals[owner] */\n      0x00\n        /* \"contracts/standards/ERC721A.sol\":9151:9156  owner */\n      dup5\n        /* \"contracts/standards/ERC721A.sol\":9132:9157  _operatorApprovals[owner] */\n      0xffffffffffffffffffffffffffffffffffffffff\n      and\n      0xffffffffffffffffffffffffffffffffffffffff\n      and\n      dup2\n      mstore\n      0x20\n      add\n      swap1\n      dup2\n      mstore\n      0x20\n      add\n      0x00\n      keccak256\n        /* \"contracts/standards/ERC721A.sol\":9132:9167  _operatorApprovals[owner][operator] */\n      0x00\n        /* \"contracts/standards/ERC721A.sol\":9158:9166  operator */\n      dup4\n        /* \"contracts/standards/ERC721A.sol\":9132:9167  _operatorApprovals[owner][operator] */\n      0xffffffffffffffffffffffffffffffffffffffff\n      and\n      0xffffffffffffffffffffffffffffffffffffffff\n      and\n      dup2\n      mstore\n      0x20\n      add\n      swap1\n      dup2\n      mstore\n      0x20\n      add\n      0x00\n      keccak256\n      0x00\n      swap1\n      sload\n      swap1\n      0x0100\n      exp\n      swap1\n      div\n      0xff\n      and\n        /* \"contracts/standards/ERC721A.sol\":9125:9167  return _operatorApprovals[owner][operator] */\n      swap1\n      pop\n        /* \"contracts/standards/ERC721A.sol\":8987:9173  function isApprovedForAll(address owner, address operator)... */\n      swap3\n      swap2\n      pop\n      pop\n      jump\t// out\n        /* \"@openzeppelin/contracts/utils/introspection/ERC165.sol\":829:984  function supportsInterface(bytes4 interfaceId) public view virtual override returns (bool) {... */\n    tag_99:\n        /* \"@openzeppelin/contracts/utils/introspection/ERC165.sol\":914:918  bool */\n      0x00\n        /* \"@openzeppelin/contracts/utils/introspection/ERC165.sol\":952:977  type(IERC165).interfaceId */\n      0x01ffc9a700000000000000000000000000000000000000000000000000000000\n        /* \"@openzeppelin/contracts/utils/introspection/ERC165.sol\":937:977  interfaceId == type(IERC165).interfaceId */\n      not(0xffffffffffffffffffffffffffffffffffffffffffffffffffffffff)\n      and\n        /* \"@openzeppelin/contracts/utils/introspection/ERC165.sol\":937:948  interfaceId */\n      dup3\n        /* \"@openzeppelin/contracts/utils/introspection/ERC165.sol\":937:977  interfaceId == type(IERC165).interfaceId */\n      not(0xffffffffffffffffffffffffffffffffffffffffffffffffffffffff)\n      and\n      eq\n        /* \"@openzeppelin/contracts/utils/introspection/ERC165.sol\":930:977  return interfaceId == type(IERC165).interfaceId */\n      swap1\n      pop\n        /* \"@openzeppelin/contracts/utils/introspection/ERC165.sol\":829:984  function supportsInterface(bytes4 interfaceId) public view virtual override returns (bool) {... */\n      swap2\n      swap1\n      pop\n      jump\t// out\n        /* \"contracts/standards/ERC721A.sol\":10207:10312  function _exists(uint256 tokenId) internal view returns (bool) {... */\n    tag_109:\n        /* \"contracts/standards/ERC721A.sol\":10264:10268  bool */\n      0x00\n        /* \"contracts/standards/ERC721A.sol\":10294:10306  currentIndex */\n      dup1\n      sload\n        /* \"contracts/standards/ERC721A.sol\":10284:10291  tokenId */\n      dup3\n        /* \"contracts/standards/ERC721A.sol\":10284:10306  tokenId < currentIndex */\n      lt\n        /* \"contracts/standards/ERC721A.sol\":10277:10306  return tokenId < currentIndex */\n      swap1\n      pop\n        /* \"contracts/standards/ERC721A.sol\":10207:10312  function _exists(uint256 tokenId) internal view returns (bool) {... */\n      swap2\n      swap1\n      pop\n      jump\t// out\n        /* \"@openzeppelin/contracts/utils/Context.sol\":640:736  function _msgSender() internal view virtual returns (address) {... */\n    tag_119:\n        /* \"@openzeppelin/contracts/utils/Context.sol\":693:700  address */\n      0x00\n        /* \"@openzeppelin/contracts/utils/Context.sol\":719:729  msg.sender */\n      caller\n        /* \"@openzeppelin/contracts/utils/Context.sol\":712:729  return msg.sender */\n      swap1\n      pop\n        /* \"@openzeppelin/contracts/utils/Context.sol\":640:736  function _msgSender() internal view virtual returns (address) {... */\n      swap1\n      jump\t// out\n        /* \"contracts/standards/ERC721A.sol\":13896:14068  function _approve(... */\n    tag_127:\n        /* \"contracts/standards/ERC721A.sol\":14020:14022  to */\n      dup3\n        /* \"contracts/standards/ERC721A.sol\":13993:14008  _tokenApprovals */\n      0x05\n        /* \"contracts/standards/ERC721A.sol\":13993:14017  _tokenApprovals[tokenId] */\n      0x00\n        /* \"contracts/standards/ERC721A.sol\":14009:14016  tokenId */\n      dup5\n        /* \"contracts/standards/ERC721A.sol\":13993:14017  _tokenApprovals[tokenId] */\n      dup2\n      mstore\n      0x20\n      add\n      swap1\n      dup2\n      mstore\n      0x20\n      add\n      0x00\n      keccak256\n      0x00\n        /* \"contracts/standards/ERC721A.sol\":13993:14022  _tokenApprovals[tokenId] = to */\n      0x0100\n      exp\n      dup2\n      sload\n      dup2\n      0xffffffffffffffffffffffffffffffffffffffff\n      mul\n      not\n      and\n      swap1\n      dup4\n      0xffffffffffffffffffffffffffffffffffffffff\n      and\n      mul\n      or\n      swap1\n      sstore\n      pop\n        /* \"contracts/standards/ERC721A.sol\":14054:14061  tokenId */\n      dup2\n        /* \"contracts/standards/ERC721A.sol\":14050:14052  to */\n      dup4\n        /* \"contracts/standards/ERC721A.sol\":14034:14062  Approval(owner, to, tokenId) */\n      0xffffffffffffffffffffffffffffffffffffffff\n      and\n        /* \"contracts/standards/ERC721A.sol\":14043:14048  owner */\n      dup3\n        /* \"contracts/standards/ERC721A.sol\":14034:14062  Approval(owner, to, tokenId) */\n      0xffffffffffffffffffffffffffffffffffffffff\n      and\n      0x8c5be1e5ebec7d5bd14f71427d1e84f3dd0314c0f7b2291e5b200ac8c7c3b925\n      mload(0x40)\n      mload(0x40)\n      dup1\n      swap2\n      sub\n      swap1\n      log4\n        /* \"contracts/standards/ERC721A.sol\":13896:14068  function _approve(... */\n      pop\n      pop\n      pop\n      jump\t// out\n        /* \"contracts/standards/ERC721A.sol\":12261:13790  function _transfer(... */\n    tag_133:\n        /* \"contracts/standards/ERC721A.sol\":12358:12393  TokenOwnership memory prevOwnership */\n      0x00\n        /* \"contracts/standards/ERC721A.sol\":12396:12416  ownershipOf(tokenId) */\n      tag_205\n        /* \"contracts/standards/ERC721A.sol\":12408:12415  tokenId */\n      dup3\n        /* \"contracts/standards/ERC721A.sol\":12396:12407  ownershipOf */\n      tag_160\n        /* \"contracts/standards/ERC721A.sol\":12396:12416  ownershipOf(tokenId) */\n      jump\t// in\n    tag_205:\n        /* \"contracts/standards/ERC721A.sol\":12358:12416  TokenOwnership memory prevOwnership = ownershipOf(tokenId) */\n      swap1\n      pop\n        /* \"contracts/standards/ERC721A.sol\":12425:12447  bool isApprovedOrOwner */\n      0x00\n        /* \"contracts/standards/ERC721A.sol\":12467:12480  prevOwnership */\n      dup2\n        /* \"contracts/standards/ERC721A.sol\":12467:12485  prevOwnership.addr */\n      0x00\n      add\n      mload\n        /* \"contracts/standards/ERC721A.sol\":12451:12485  _msgSender() == prevOwnership.addr */\n      0xffffffffffffffffffffffffffffffffffffffff\n      and\n        /* \"contracts/standards/ERC721A.sol\":12451:12463  _msgSender() */\n      tag_206\n        /* \"contracts/standards/ERC721A.sol\":12451:12461  _msgSender */\n      tag_119\n        /* \"contracts/standards/ERC721A.sol\":12451:12463  _msgSender() */\n      jump\t// in\n    tag_206:\n        /* \"contracts/standards/ERC721A.sol\":12451:12485  _msgSender() == prevOwnership.addr */\n      0xffffffffffffffffffffffffffffffffffffffff\n      and\n      eq\n        /* \"contracts/standards/ERC721A.sol\":12451:12532  _msgSender() == prevOwnership.addr ||... */\n      dup1\n      tag_207\n      jumpi\n      pop\n        /* \"contracts/standards/ERC721A.sol\":12520:12532  _msgSender() */\n      tag_208\n        /* \"contracts/standards/ERC721A.sol\":12520:12530  _msgSender */\n      tag_119\n        /* \"contracts/standards/ERC721A.sol\":12520:12532  _msgSender() */\n      jump\t// in\n    tag_208:\n        /* \"contracts/standards/ERC721A.sol\":12496:12532  getApproved(tokenId) == _msgSender() */\n      0xffffffffffffffffffffffffffffffffffffffff\n      and\n        /* \"contracts/standards/ERC721A.sol\":12496:12516  getApproved(tokenId) */\n      tag_209\n        /* \"contracts/standards/ERC721A.sol\":12508:12515  tokenId */\n      dup5\n        /* \"contracts/standards/ERC721A.sol\":12496:12507  getApproved */\n      tag_36\n        /* \"contracts/standards/ERC721A.sol\":12496:12516  getApproved(tokenId) */\n      jump\t// in\n    tag_209:\n        /* \"contracts/standards/ERC721A.sol\":12496:12532  getApproved(tokenId) == _msgSender() */\n      0xffffffffffffffffffffffffffffffffffffffff\n      and\n      eq\n        /* \"contracts/standards/ERC721A.sol\":12451:12532  _msgSender() == prevOwnership.addr ||... */\n    tag_207:\n        /* \"contracts/standards/ERC721A.sol\":12451:12593  _msgSender() == prevOwnership.addr ||... */\n      dup1\n      tag_210\n      jumpi\n      pop\n        /* \"contracts/standards/ERC721A.sol\":12543:12593  isApprovedForAll(prevOwnership.addr, _msgSender()) */\n      tag_211\n        /* \"contracts/standards/ERC721A.sol\":12560:12573  prevOwnership */\n      dup3\n        /* \"contracts/standards/ERC721A.sol\":12560:12578  prevOwnership.addr */\n      0x00\n      add\n      mload\n        /* \"contracts/standards/ERC721A.sol\":12580:12592  _msgSender() */\n      tag_212\n        /* \"contracts/standards/ERC721A.sol\":12580:12590  _msgSender */\n      tag_119\n        /* \"contracts/standards/ERC721A.sol\":12580:12592  _msgSender() */\n      jump\t// in\n    tag_212:\n        /* \"contracts/standards/ERC721A.sol\":12543:12559  isApprovedForAll */\n      tag_92\n        /* \"contracts/standards/ERC721A.sol\":12543:12593  isApprovedForAll(prevOwnership.addr, _msgSender()) */\n      jump\t// in\n    tag_211:\n        /* \"contracts/standards/ERC721A.sol\":12451:12593  _msgSender() == prevOwnership.addr ||... */\n    tag_210:\n        /* \"contracts/standards/ERC721A.sol\":12425:12594  bool isApprovedOrOwner = (_msgSender() == prevOwnership.addr ||... */\n      swap1\n      pop\n        /* \"contracts/standards/ERC721A.sol\":12619:12636  isApprovedOrOwner */\n      dup1\n        /* \"contracts/standards/ERC721A.sol\":12603:12704  require(... */\n      tag_213\n      jumpi\n      mload(0x40)\n      0x08c379a000000000000000000000000000000000000000000000000000000000\n      dup2\n      mstore\n      0x04\n      add\n      tag_214\n      swap1\n      tag_215\n      jump\t// in\n    tag_214:\n      mload(0x40)\n      dup1\n      swap2\n      sub\n      swap1\n      revert\n    tag_213:\n        /* \"contracts/standards/ERC721A.sol\":12751:12755  from */\n      dup5\n        /* \"contracts/standards/ERC721A.sol\":12729:12755  prevOwnership.addr == from */\n      0xffffffffffffffffffffffffffffffffffffffff\n      and\n        /* \"contracts/standards/ERC721A.sol\":12729:12742  prevOwnership */\n      dup3\n        /* \"contracts/standards/ERC721A.sol\":12729:12747  prevOwnership.addr */\n      0x00\n      add\n      mload\n        /* \"contracts/standards/ERC721A.sol\":12729:12755  prevOwnership.addr == from */\n      0xffffffffffffffffffffffffffffffffffffffff\n      and\n      eq\n        /* \"contracts/standards/ERC721A.sol\":12713:12811  require(... */\n      tag_216\n      jumpi\n      mload(0x40)\n      0x08c379a000000000000000000000000000000000000000000000000000000000\n      dup2\n      mstore\n      0x04\n      add\n      tag_217\n      swap1\n      tag_218\n      jump\t// in\n    tag_217:\n      mload(0x40)\n      dup1\n      swap2\n      sub\n      swap1\n      revert\n    tag_216:\n        /* \"contracts/standards/ERC721A.sol\":12840:12841  0 */\n      0x00\n        /* \"contracts/standards/ERC721A.sol\":12826:12842  to != address(0) */\n      0xffffffffffffffffffffffffffffffffffffffff\n      and\n        /* \"contracts/standards/ERC721A.sol\":12826:12828  to */\n      dup5\n        /* \"contracts/standards/ERC721A.sol\":12826:12842  to != address(0) */\n      0xffffffffffffffffffffffffffffffffffffffff\n      and\n      sub\n        /* \"contracts/standards/ERC721A.sol\":12818:12884  require(to != address(0), \"ERC721A: transfer to the zero address\") */\n      tag_219\n      jumpi\n      mload(0x40)\n      0x08c379a000000000000000000000000000000000000000000000000000000000\n      dup2\n      mstore\n      0x04\n      add\n      tag_220\n      swap1\n      tag_221\n      jump\t// in\n    tag_220:\n      mload(0x40)\n      dup1\n      swap2\n      sub\n      swap1\n      revert\n    tag_219:\n        /* \"contracts/standards/ERC721A.sol\":12893:12936  _beforeTokenTransfers(from, to, tokenId, 1) */\n      tag_222\n        /* \"contracts/standards/ERC721A.sol\":12915:12919  from */\n      dup6\n        /* \"contracts/standards/ERC721A.sol\":12921:12923  to */\n      dup6\n        /* \"contracts/standards/ERC721A.sol\":12925:12932  tokenId */\n      dup6\n        /* \"contracts/standards/ERC721A.sol\":12934:12935  1 */\n      0x01\n        /* \"contracts/standards/ERC721A.sol\":12893:12914  _beforeTokenTransfers */\n      tag_223\n        /* \"contracts/standards/ERC721A.sol\":12893:12936  _beforeTokenTransfers(from, to, tokenId, 1) */\n      jump\t// in\n    tag_222:\n        /* \"contracts/standards/ERC721A.sol\":12993:13042  _approve(address(0), tokenId, prevOwnership.addr) */\n      tag_224\n        /* \"contracts/standards/ERC721A.sol\":13010:13011  0 */\n      0x00\n        /* \"contracts/standards/ERC721A.sol\":13014:13021  tokenId */\n      dup5\n        /* \"contracts/standards/ERC721A.sol\":13023:13036  prevOwnership */\n      dup5\n        /* \"contracts/standards/ERC721A.sol\":13023:13041  prevOwnership.addr */\n      0x00\n      add\n      mload\n        /* \"contracts/standards/ERC721A.sol\":12993:13001  _approve */\n      tag_127\n        /* \"contracts/standards/ERC721A.sol\":12993:13042  _approve(address(0), tokenId, prevOwnership.addr) */\n      jump\t// in\n    tag_224:\n        /* \"contracts/standards/ERC721A.sol\":13081:13082  1 */\n      0x01\n        /* \"contracts/standards/ERC721A.sol\":13051:13063  _addressData */\n      0x04\n        /* \"contracts/standards/ERC721A.sol\":13051:13069  _addressData[from] */\n      0x00\n        /* \"contracts/standards/ERC721A.sol\":13064:13068  from */\n      dup8\n        /* \"contracts/standards/ERC721A.sol\":13051:13069  _addressData[from] */\n      0xffffffffffffffffffffffffffffffffffffffff\n      and\n      0xffffffffffffffffffffffffffffffffffffffff\n      and\n      dup2\n      mstore\n      0x20\n      add\n      swap1\n      dup2\n      mstore\n      0x20\n      add\n      0x00\n      keccak256\n        /* \"contracts/standards/ERC721A.sol\":13051:13077  _addressData[from].balance */\n      0x00\n      add\n      0x00\n        /* \"contracts/standards/ERC721A.sol\":13051:13082  _addressData[from].balance -= 1 */\n      dup3\n      dup3\n      dup3\n      swap1\n      sload\n      swap1\n      0x0100\n      exp\n      swap1\n      div\n      0xffffffffffffffffffffffffffffffff\n      and\n      tag_225\n      swap2\n      swap1\n      tag_226\n      jump\t// in\n    tag_225:\n      swap3\n      pop\n      0x0100\n      exp\n      dup2\n      sload\n      dup2\n      0xffffffffffffffffffffffffffffffff\n      mul\n      not\n      and\n      swap1\n      dup4\n      0xffffffffffffffffffffffffffffffff\n      and\n      mul\n      or\n      swap1\n      sstore\n      pop\n        /* \"contracts/standards/ERC721A.sol\":13117:13118  1 */\n      0x01\n        /* \"contracts/standards/ERC721A.sol\":13089:13101  _addressData */\n      0x04\n        /* \"contracts/standards/ERC721A.sol\":13089:13105  _addressData[to] */\n      0x00\n        /* \"contracts/standards/ERC721A.sol\":13102:13104  to */\n      dup7\n        /* \"contracts/standards/ERC721A.sol\":13089:13105  _addressData[to] */\n      0xffffffffffffffffffffffffffffffffffffffff\n      and\n      0xffffffffffffffffffffffffffffffffffffffff\n      and\n      dup2\n      mstore\n      0x20\n      add\n      swap1\n      dup2\n      mstore\n      0x20\n      add\n      0x00\n      keccak256\n        /* \"contracts/standards/ERC721A.sol\":13089:13113  _addressData[to].balance */\n      0x00\n      add\n      0x00\n        /* \"contracts/standards/ERC721A.sol\":13089:13118  _addressData[to].balance += 1 */\n      dup3\n      dup3\n      dup3\n      swap1\n      sload\n      swap1\n      0x0100\n      exp\n      swap1\n      div\n      0xffffffffffffffffffffffffffffffff\n      and\n      tag_227\n      swap2\n      swap1\n      tag_228\n      jump\t// in\n    tag_227:\n      swap3\n      pop\n      0x0100\n      exp\n      dup2\n      sload\n      dup2\n      0xffffffffffffffffffffffffffffffff\n      mul\n      not\n      and\n      swap1\n      dup4\n      0xffffffffffffffffffffffffffffffff\n      and\n      mul\n      or\n      swap1\n      sstore\n      pop\n        /* \"contracts/standards/ERC721A.sol\":13148:13191  TokenOwnership(to, uint64(block.timestamp)) */\n      mload(0x40)\n      dup1\n      0x40\n      add\n      0x40\n      mstore\n      dup1\n        /* \"contracts/standards/ERC721A.sol\":13163:13165  to */\n      dup6\n        /* \"contracts/standards/ERC721A.sol\":13148:13191  TokenOwnership(to, uint64(block.timestamp)) */\n      0xffffffffffffffffffffffffffffffffffffffff\n      and\n      dup2\n      mstore\n      0x20\n      add\n        /* \"contracts/standards/ERC721A.sol\":13174:13189  block.timestamp */\n      timestamp\n        /* \"contracts/standards/ERC721A.sol\":13148:13191  TokenOwnership(to, uint64(block.timestamp)) */\n      0xffffffffffffffff\n      and\n      dup2\n      mstore\n      pop\n        /* \"contracts/standards/ERC721A.sol\":13125:13136  _ownerships */\n      0x03\n        /* \"contracts/standards/ERC721A.sol\":13125:13145  _ownerships[tokenId] */\n      0x00\n        /* \"contracts/standards/ERC721A.sol\":13137:13144  tokenId */\n      dup6\n        /* \"contracts/standards/ERC721A.sol\":13125:13145  _ownerships[tokenId] */\n      dup2\n      mstore\n      0x20\n      add\n      swap1\n      dup2\n      mstore\n      0x20\n      add\n      0x00\n      keccak256\n        /* \"contracts/standards/ERC721A.sol\":13125:13191  _ownerships[tokenId] = TokenOwnership(to, uint64(block.timestamp)) */\n      0x00\n      dup3\n      add\n      mload\n      dup2\n      0x00\n      add\n      exp(0x0100, 0x00)\n      dup2\n      sload\n      dup2\n      0xffffffffffffffffffffffffffffffffffffffff\n      mul\n      not\n      and\n      swap1\n      dup4\n      0xffffffffffffffffffffffffffffffffffffffff\n      and\n      mul\n      or\n      swap1\n      sstore\n      pop\n      0x20\n      dup3\n      add\n      mload\n      dup2\n      0x00\n      add\n      exp(0x0100, 0x14)\n      dup2\n      sload\n      dup2\n      0xffffffffffffffff\n      mul\n      not\n      and\n      swap1\n      dup4\n      0xffffffffffffffff\n      and\n      mul\n      or\n      swap1\n      sstore\n      pop\n      swap1\n      pop\n      pop\n        /* \"contracts/standards/ERC721A.sol\":13419:13438  uint256 nextTokenId */\n      0x00\n        /* \"contracts/standards/ERC721A.sol\":13451:13452  1 */\n      0x01\n        /* \"contracts/standards/ERC721A.sol\":13441:13448  tokenId */\n      dup5\n        /* \"contracts/standards/ERC721A.sol\":13441:13452  tokenId + 1 */\n      tag_229\n      swap2\n      swap1\n      tag_230\n      jump\t// in\n    tag_229:\n        /* \"contracts/standards/ERC721A.sol\":13419:13452  uint256 nextTokenId = tokenId + 1 */\n      swap1\n      pop\n        /* \"contracts/standards/ERC721A.sol\":13504:13505  0 */\n      0x00\n        /* \"contracts/standards/ERC721A.sol\":13463:13506  _ownerships[nextTokenId].addr == address(0) */\n      0xffffffffffffffffffffffffffffffffffffffff\n      and\n        /* \"contracts/standards/ERC721A.sol\":13463:13474  _ownerships */\n      0x03\n        /* \"contracts/standards/ERC721A.sol\":13463:13487  _ownerships[nextTokenId] */\n      0x00\n        /* \"contracts/standards/ERC721A.sol\":13475:13486  nextTokenId */\n      dup4\n        /* \"contracts/standards/ERC721A.sol\":13463:13487  _ownerships[nextTokenId] */\n      dup2\n      mstore\n      0x20\n      add\n      swap1\n      dup2\n      mstore\n      0x20\n      add\n      0x00\n      keccak256\n        /* \"contracts/standards/ERC721A.sol\":13463:13492  _ownerships[nextTokenId].addr */\n      0x00\n      add\n      0x00\n      swap1\n      sload\n      swap1\n      0x0100\n      exp\n      swap1\n      div\n      0xffffffffffffffffffffffffffffffffffffffff\n      and\n        /* \"contracts/standards/ERC721A.sol\":13463:13506  _ownerships[nextTokenId].addr == address(0) */\n      0xffffffffffffffffffffffffffffffffffffffff\n      and\n      sub\n        /* \"contracts/standards/ERC721A.sol\":13459:13695  if (_ownerships[nextTokenId].addr == address(0)) {... */\n      tag_231\n      jumpi\n        /* \"contracts/standards/ERC721A.sol\":13521:13541  _exists(nextTokenId) */\n      tag_232\n        /* \"contracts/standards/ERC721A.sol\":13529:13540  nextTokenId */\n      dup2\n        /* \"contracts/standards/ERC721A.sol\":13521:13528  _exists */\n      tag_109\n        /* \"contracts/standards/ERC721A.sol\":13521:13541  _exists(nextTokenId) */\n      jump\t// in\n    tag_232:\n        /* \"contracts/standards/ERC721A.sol\":13517:13688  if (_exists(nextTokenId)) {... */\n      iszero\n      tag_233\n      jumpi\n        /* \"contracts/standards/ERC721A.sol\":13581:13678  TokenOwnership(... */\n      mload(0x40)\n      dup1\n      0x40\n      add\n      0x40\n      mstore\n      dup1\n        /* \"contracts/standards/ERC721A.sol\":13608:13621  prevOwnership */\n      dup5\n        /* \"contracts/standards/ERC721A.sol\":13608:13626  prevOwnership.addr */\n      0x00\n      add\n      mload\n        /* \"contracts/standards/ERC721A.sol\":13581:13678  TokenOwnership(... */\n      0xffffffffffffffffffffffffffffffffffffffff\n      and\n      dup2\n      mstore\n      0x20\n      add\n        /* \"contracts/standards/ERC721A.sol\":13639:13652  prevOwnership */\n      dup5\n        /* \"contracts/standards/ERC721A.sol\":13639:13667  prevOwnership.startTimestamp */\n      0x20\n      add\n      mload\n        /* \"contracts/standards/ERC721A.sol\":13581:13678  TokenOwnership(... */\n      0xffffffffffffffff\n      and\n      dup2\n      mstore\n      pop\n        /* \"contracts/standards/ERC721A.sol\":13554:13565  _ownerships */\n      0x03\n        /* \"contracts/standards/ERC721A.sol\":13554:13578  _ownerships[nextTokenId] */\n      0x00\n        /* \"contracts/standards/ERC721A.sol\":13566:13577  nextTokenId */\n      dup4\n        /* \"contracts/standards/ERC721A.sol\":13554:13578  _ownerships[nextTokenId] */\n      dup2\n      mstore\n      0x20\n      add\n      swap1\n      dup2\n      mstore\n      0x20\n      add\n      0x00\n      keccak256\n        /* \"contracts/standards/ERC721A.sol\":13554:13678  _ownerships[nextTokenId] = TokenOwnership(... */\n      0x00\n      dup3\n      add\n      mload\n      dup2\n      0x00\n      add\n      exp(0x0100, 0x00)\n      dup2\n      sload\n      dup2\n      0xffffffffffffffffffffffffffffffffffffffff\n      mul\n      not\n      and\n      swap1\n      dup4\n      0xffffffffffffffffffffffffffffffffffffffff\n      and\n      mul\n      or\n      swap1\n      sstore\n      pop\n      0x20\n      dup3\n      add\n      mload\n      dup2\n      0x00\n      add\n      exp(0x0100, 0x14)\n      dup2\n      sload\n      dup2\n      0xffffffffffffffff\n      mul\n      not\n      and\n      swap1\n      dup4\n      0xffffffffffffffff\n      and\n      mul\n      or\n      swap1\n      sstore\n      pop\n      swap1\n      pop\n      pop\n        /* \"contracts/standards/ERC721A.sol\":13517:13688  if (_exists(nextTokenId)) {... */\n    tag_233:\n        /* \"contracts/standards/ERC721A.sol\":13459:13695  if (_ownerships[nextTokenId].addr == address(0)) {... */\n    tag_231:\n        /* \"contracts/standards/ERC721A.sol\":13727:13734  tokenId */\n      dup4\n        /* \"contracts/standards/ERC721A.sol\":13723:13725  to */\n      dup6\n        /* \"contracts/standards/ERC721A.sol\":13708:13735  Transfer(from, to, tokenId) */\n      0xffffffffffffffffffffffffffffffffffffffff\n      and\n        /* \"contracts/standards/ERC721A.sol\":13717:13721  from */\n      dup8\n        /* \"contracts/standards/ERC721A.sol\":13708:13735  Transfer(from, to, tokenId) */\n      0xffffffffffffffffffffffffffffffffffffffff\n      and\n      0xddf252ad1be2c89b69c2b068fc378daa952ba7f163c4a11628f55a4df523b3ef\n      mload(0x40)\n      mload(0x40)\n      dup1\n      swap2\n      sub\n      swap1\n      log4\n        /* \"contracts/standards/ERC721A.sol\":13742:13784  _afterTokenTransfers(from, to, tokenId, 1) */\n      tag_234\n        /* \"contracts/standards/ERC721A.sol\":13763:13767  from */\n      dup7\n        /* \"contracts/standards/ERC721A.sol\":13769:13771  to */\n      dup7\n        /* \"contracts/standards/ERC721A.sol\":13773:13780  tokenId */\n      dup7\n        /* \"contracts/standards/ERC721A.sol\":13782:13783  1 */\n      0x01\n        /* \"contracts/standards/ERC721A.sol\":13742:13762  _afterTokenTransfers */\n      tag_235\n        /* \"contracts/standards/ERC721A.sol\":13742:13784  _afterTokenTransfers(from, to, tokenId, 1) */\n      jump\t// in\n    tag_234:\n        /* \"contracts/standards/ERC721A.sol\":12351:13790  {... */\n      pop\n      pop\n      pop\n        /* \"contracts/standards/ERC721A.sol\":12261:13790  function _transfer(... */\n      pop\n      pop\n      pop\n      jump\t// out\n        /* \"contracts/standards/ERC721A.sol\":6020:6626  function ownershipOf(uint256 tokenId)... */\n    tag_160:\n        /* \"contracts/standards/ERC721A.sol\":6096:6117  TokenOwnership memory */\n      tag_236\n      tag_237\n      jump\t// in\n    tag_236:\n        /* \"contracts/standards/ERC721A.sol\":6137:6153  _exists(tokenId) */\n      tag_239\n        /* \"contracts/standards/ERC721A.sol\":6145:6152  tokenId */\n      dup3\n        /* \"contracts/standards/ERC721A.sol\":6137:6144  _exists */\n      tag_109\n        /* \"contracts/standards/ERC721A.sol\":6137:6153  _exists(tokenId) */\n      jump\t// in\n    tag_239:\n        /* \"contracts/standards/ERC721A.sol\":6129:6200  require(_exists(tokenId), \"ERC721A: owner query for nonexistent token\") */\n      tag_240\n      jumpi\n      mload(0x40)\n      0x08c379a000000000000000000000000000000000000000000000000000000000\n      dup2\n      mstore\n      0x04\n      add\n      tag_241\n      swap1\n      tag_242\n      jump\t// in\n    tag_241:\n      mload(0x40)\n      dup1\n      swap2\n      sub\n      swap1\n      revert\n    tag_240:\n        /* \"contracts/standards/ERC721A.sol\":6209:6235  uint256 lowestTokenToCheck */\n      0x00\n        /* \"contracts/standards/ERC721A.sol\":6257:6269  maxBatchSize */\n      immutable(\"0x1dd819c251cf8d73bebf3fd46743821455d544c1111216c34ce770cef2957093\")\n        /* \"contracts/standards/ERC721A.sol\":6246:6253  tokenId */\n      dup4\n        /* \"contracts/standards/ERC721A.sol\":6246:6269  tokenId >= maxBatchSize */\n      lt\n        /* \"contracts/standards/ERC721A.sol\":6242:6335  if (tokenId >= maxBatchSize) {... */\n      tag_243\n      jumpi\n        /* \"contracts/standards/ERC721A.sol\":6326:6327  1 */\n      0x01\n        /* \"contracts/standards/ERC721A.sol\":6311:6323  maxBatchSize */\n      immutable(\"0x1dd819c251cf8d73bebf3fd46743821455d544c1111216c34ce770cef2957093\")\n        /* \"contracts/standards/ERC721A.sol\":6301:6308  tokenId */\n      dup5\n        /* \"contracts/standards/ERC721A.sol\":6301:6323  tokenId - maxBatchSize */\n      tag_244\n      swap2\n      swap1\n      tag_130\n      jump\t// in\n    tag_244:\n        /* \"contracts/standards/ERC721A.sol\":6301:6327  tokenId - maxBatchSize + 1 */\n      tag_245\n      swap2\n      swap1\n      tag_230\n      jump\t// in\n    tag_245:\n        /* \"contracts/standards/ERC721A.sol\":6280:6327  lowestTokenToCheck = tokenId - maxBatchSize + 1 */\n      swap1\n      pop\n        /* \"contracts/standards/ERC721A.sol\":6242:6335  if (tokenId >= maxBatchSize) {... */\n    tag_243:\n        /* \"contracts/standards/ERC721A.sol\":6348:6360  uint256 curr */\n      0x00\n        /* \"contracts/standards/ERC721A.sol\":6363:6370  tokenId */\n      dup4\n        /* \"contracts/standards/ERC721A.sol\":6348:6370  uint256 curr = tokenId */\n      swap1\n      pop\n        /* \"contracts/standards/ERC721A.sol\":6343:6555  for (uint256 curr = tokenId; curr >= lowestTokenToCheck; curr--) {... */\n    tag_246:\n        /* \"contracts/standards/ERC721A.sol\":6380:6398  lowestTokenToCheck */\n      dup2\n        /* \"contracts/standards/ERC721A.sol\":6372:6376  curr */\n      dup2\n        /* \"contracts/standards/ERC721A.sol\":6372:6398  curr >= lowestTokenToCheck */\n      lt\n        /* \"contracts/standards/ERC721A.sol\":6343:6555  for (uint256 curr = tokenId; curr >= lowestTokenToCheck; curr--) {... */\n      tag_247\n      jumpi\n        /* \"contracts/standards/ERC721A.sol\":6417:6448  TokenOwnership memory ownership */\n      0x00\n        /* \"contracts/standards/ERC721A.sol\":6451:6462  _ownerships */\n      0x03\n        /* \"contracts/standards/ERC721A.sol\":6451:6468  _ownerships[curr] */\n      0x00\n        /* \"contracts/standards/ERC721A.sol\":6463:6467  curr */\n      dup4\n        /* \"contracts/standards/ERC721A.sol\":6451:6468  _ownerships[curr] */\n      dup2\n      mstore\n      0x20\n      add\n      swap1\n      dup2\n      mstore\n      0x20\n      add\n      0x00\n      keccak256\n        /* \"contracts/standards/ERC721A.sol\":6417:6468  TokenOwnership memory ownership = _ownerships[curr] */\n      mload(0x40)\n      dup1\n      0x40\n      add\n      0x40\n      mstore\n      swap1\n      dup2\n      0x00\n      dup3\n      add\n      0x00\n      swap1\n      sload\n      swap1\n      0x0100\n      exp\n      swap1\n      div\n      0xffffffffffffffffffffffffffffffffffffffff\n      and\n      0xffffffffffffffffffffffffffffffffffffffff\n      and\n      0xffffffffffffffffffffffffffffffffffffffff\n      and\n      dup2\n      mstore\n      0x20\n      add\n      0x00\n      dup3\n      add\n      0x14\n      swap1\n      sload\n      swap1\n      0x0100\n      exp\n      swap1\n      div\n      0xffffffffffffffff\n      and\n      0xffffffffffffffff\n      and\n      0xffffffffffffffff\n      and\n      dup2\n      mstore\n      pop\n      pop\n      swap1\n      pop\n        /* \"contracts/standards/ERC721A.sol\":6507:6508  0 */\n      0x00\n        /* \"contracts/standards/ERC721A.sol\":6481:6509  ownership.addr != address(0) */\n      0xffffffffffffffffffffffffffffffffffffffff\n      and\n        /* \"contracts/standards/ERC721A.sol\":6481:6490  ownership */\n      dup2\n        /* \"contracts/standards/ERC721A.sol\":6481:6495  ownership.addr */\n      0x00\n      add\n      mload\n        /* \"contracts/standards/ERC721A.sol\":6481:6509  ownership.addr != address(0) */\n      0xffffffffffffffffffffffffffffffffffffffff\n      and\n      eq\n        /* \"contracts/standards/ERC721A.sol\":6477:6548  if (ownership.addr != address(0)) {... */\n      tag_249\n      jumpi\n        /* \"contracts/standards/ERC721A.sol\":6529:6538  ownership */\n      dup1\n        /* \"contracts/standards/ERC721A.sol\":6522:6538  return ownership */\n      swap4\n      pop\n      pop\n      pop\n      pop\n      jump(tag_238)\n        /* \"contracts/standards/ERC721A.sol\":6477:6548  if (ownership.addr != address(0)) {... */\n    tag_249:\n        /* \"contracts/standards/ERC721A.sol\":6408:6555  {... */\n      pop\n        /* \"contracts/standards/ERC721A.sol\":6400:6406  curr-- */\n      dup1\n      dup1\n      tag_250\n      swap1\n      tag_251\n      jump\t// in\n    tag_250:\n      swap2\n      pop\n      pop\n        /* \"contracts/standards/ERC721A.sol\":6343:6555  for (uint256 curr = tokenId; curr >= lowestTokenToCheck; curr--) {... */\n      jump(tag_246)\n    tag_247:\n      pop\n        /* \"contracts/standards/ERC721A.sol\":6563:6620  revert(\"ERC721A: unable to determine the owner of token\") */\n      mload(0x40)\n      0x08c379a000000000000000000000000000000000000000000000000000000000\n      dup2\n      mstore\n      0x04\n      add\n      tag_252\n      swap1\n      tag_253\n      jump\t// in\n    tag_252:\n      mload(0x40)\n      dup1\n      swap2\n      sub\n      swap1\n      revert\n        /* \"contracts/standards/ERC721A.sol\":6020:6626  function ownershipOf(uint256 tokenId)... */\n    tag_238:\n      swap2\n      swap1\n      pop\n      jump\t// out\n        /* \"contracts/standards/ERC721A.sol\":15611:16301  function _checkOnERC721Received(... */\n    tag_182:\n        /* \"contracts/standards/ERC721A.sol\":15748:15752  bool */\n      0x00\n        /* \"contracts/standards/ERC721A.sol\":15765:15780  to.isContract() */\n      tag_255\n        /* \"contracts/standards/ERC721A.sol\":15765:15767  to */\n      dup5\n        /* \"contracts/standards/ERC721A.sol\":15765:15778  to.isContract */\n      0xffffffffffffffffffffffffffffffffffffffff\n      and\n      tag_256\n        /* \"contracts/standards/ERC721A.sol\":15765:15780  to.isContract() */\n      jump\t// in\n    tag_255:\n        /* \"contracts/standards/ERC721A.sol\":15761:16296  if (to.isContract()) {... */\n      iszero\n      tag_257\n      jumpi\n        /* \"contracts/standards/ERC721A.sol\":15820:15822  to */\n      dup4\n        /* \"contracts/standards/ERC721A.sol\":15804:15840  IERC721Receiver(to).onERC721Received */\n      0xffffffffffffffffffffffffffffffffffffffff\n      and\n      0x150b7a02\n        /* \"contracts/standards/ERC721A.sol\":15841:15853  _msgSender() */\n      tag_258\n        /* \"contracts/standards/ERC721A.sol\":15841:15851  _msgSender */\n      tag_119\n        /* \"contracts/standards/ERC721A.sol\":15841:15853  _msgSender() */\n      jump\t// in\n    tag_258:\n        /* \"contracts/standards/ERC721A.sol\":15855:15859  from */\n      dup8\n        /* \"contracts/standards/ERC721A.sol\":15861:15868  tokenId */\n      dup7\n        /* \"contracts/standards/ERC721A.sol\":15870:15875  _data */\n      dup7\n        /* \"contracts/standards/ERC721A.sol\":15804:15876  IERC721Receiver(to).onERC721Received(_msgSender(), from, tokenId, _data) */\n      mload(0x40)\n      dup6\n      0xffffffff\n      and\n      0xe0\n      shl\n      dup2\n      mstore\n      0x04\n      add\n      tag_259\n      swap5\n      swap4\n      swap3\n      swap2\n      swap1\n      tag_260\n      jump\t// in\n    tag_259:\n      0x20\n      mload(0x40)\n      dup1\n      dup4\n      sub\n      dup2\n      0x00\n      dup8\n      gas\n      call\n      swap3\n      pop\n      pop\n      pop\n      dup1\n      iszero\n      tag_261\n      jumpi\n      pop\n      mload(0x40)\n      returndatasize\n      not(0x1f)\n      0x1f\n      dup3\n      add\n      and\n      dup3\n      add\n      dup1\n      0x40\n      mstore\n      pop\n      dup2\n      add\n      swap1\n      tag_262\n      swap2\n      swap1\n      tag_263\n      jump\t// in\n    tag_262:\n      0x01\n    tag_261:\n        /* \"contracts/standards/ERC721A.sol\":15791:16255  try... */\n      tag_264\n      jumpi\n      returndatasize\n      dup1\n      0x00\n      dup2\n      eq\n      tag_269\n      jumpi\n      mload(0x40)\n      swap2\n      pop\n      and(add(returndatasize, 0x3f), not(0x1f))\n      dup3\n      add\n      0x40\n      mstore\n      returndatasize\n      dup3\n      mstore\n      returndatasize\n      0x00\n      0x20\n      dup5\n      add\n      returndatacopy\n      jump(tag_268)\n    tag_269:\n      0x60\n      swap2\n      pop\n    tag_268:\n      pop\n        /* \"contracts/standards/ERC721A.sol\":16052:16053  0 */\n      0x00\n        /* \"contracts/standards/ERC721A.sol\":16035:16041  reason */\n      dup2\n        /* \"contracts/standards/ERC721A.sol\":16035:16048  reason.length */\n      mload\n        /* \"contracts/standards/ERC721A.sol\":16035:16053  reason.length == 0 */\n      sub\n        /* \"contracts/standards/ERC721A.sol\":16031:16246  if (reason.length == 0) {... */\n      tag_270\n      jumpi\n        /* \"contracts/standards/ERC721A.sol\":16068:16129  revert(\"ERC721A: transfer to non ERC721Receiver implementer\") */\n      mload(0x40)\n      0x08c379a000000000000000000000000000000000000000000000000000000000\n      dup2\n      mstore\n      0x04\n      add\n      tag_271\n      swap1\n      tag_185\n      jump\t// in\n    tag_271:\n      mload(0x40)\n      dup1\n      swap2\n      sub\n      swap1\n      revert\n        /* \"contracts/standards/ERC721A.sol\":16031:16246  if (reason.length == 0) {... */\n    tag_270:\n        /* \"contracts/standards/ERC721A.sol\":16214:16220  reason */\n      dup1\n        /* \"contracts/standards/ERC721A.sol\":16208:16221  mload(reason) */\n      mload\n        /* \"contracts/standards/ERC721A.sol\":16199:16205  reason */\n      dup2\n        /* \"contracts/standards/ERC721A.sol\":16195:16197  32 */\n      0x20\n        /* \"contracts/standards/ERC721A.sol\":16191:16206  add(32, reason) */\n      add\n        /* \"contracts/standards/ERC721A.sol\":16184:16222  revert(add(32, reason), mload(reason)) */\n      revert\n        /* \"contracts/standards/ERC721A.sol\":15791:16255  try... */\n    tag_264:\n        /* \"contracts/standards/ERC721A.sol\":15936:15981  IERC721Receiver(to).onERC721Received.selector */\n      shl(0xe0, 0x150b7a02)\n        /* \"contracts/standards/ERC721A.sol\":15926:15981  retval == IERC721Receiver(to).onERC721Received.selector */\n      not(0xffffffffffffffffffffffffffffffffffffffffffffffffffffffff)\n      and\n        /* \"contracts/standards/ERC721A.sol\":15926:15932  retval */\n      dup2\n        /* \"contracts/standards/ERC721A.sol\":15926:15981  retval == IERC721Receiver(to).onERC721Received.selector */\n      not(0xffffffffffffffffffffffffffffffffffffffffffffffffffffffff)\n      and\n      eq\n        /* \"contracts/standards/ERC721A.sol\":15919:15981  return retval == IERC721Receiver(to).onERC721Received.selector */\n      swap2\n      pop\n      pop\n      jump(tag_254)\n        /* \"contracts/standards/ERC721A.sol\":15761:16296  if (to.isContract()) {... */\n    tag_257:\n        /* \"contracts/standards/ERC721A.sol\":16284:16288  true */\n      0x01\n        /* \"contracts/standards/ERC721A.sol\":16277:16288  return true */\n      swap1\n      pop\n        /* \"contracts/standards/ERC721A.sol\":15611:16301  function _checkOnERC721Received(... */\n    tag_254:\n      swap5\n      swap4\n      pop\n      pop\n      pop\n      pop\n      jump\t// out\n        /* \"contracts/standards/ERC721A.sol\":7803:7891  function _baseURI() internal view virtual returns (string memory) {... */\n    tag_192:\n        /* \"contracts/standards/ERC721A.sol\":7854:7867  string memory */\n      0x60\n        /* \"contracts/standards/ERC721A.sol\":7876:7885  return \"\" */\n      mload(0x40)\n      dup1\n      0x20\n      add\n      0x40\n      mstore\n      dup1\n      0x00\n      dup2\n      mstore\n      pop\n      swap1\n      pop\n        /* \"contracts/standards/ERC721A.sol\":7803:7891  function _baseURI() internal view virtual returns (string memory) {... */\n      swap1\n      jump\t// out\n        /* \"@openzeppelin/contracts/utils/Strings.sol\":415:1111  function toString(uint256 value) internal pure returns (string memory) {... */\n    tag_196:\n        /* \"@openzeppelin/contracts/utils/Strings.sol\":471:484  string memory */\n      0x60\n        /* \"@openzeppelin/contracts/utils/Strings.sol\":520:534  uint256 length */\n      0x00\n        /* \"@openzeppelin/contracts/utils/Strings.sol\":557:558  1 */\n      0x01\n        /* \"@openzeppelin/contracts/utils/Strings.sol\":537:554  Math.log10(value) */\n      tag_277\n        /* \"@openzeppelin/contracts/utils/Strings.sol\":548:553  value */\n      dup5\n        /* \"@openzeppelin/contracts/utils/Strings.sol\":537:547  Math.log10 */\n      tag_278\n        /* \"@openzeppelin/contracts/utils/Strings.sol\":537:554  Math.log10(value) */\n      jump\t// in\n    tag_277:\n        /* \"@openzeppelin/contracts/utils/Strings.sol\":537:558  Math.log10(value) + 1 */\n      add\n        /* \"@openzeppelin/contracts/utils/Strings.sol\":520:558  uint256 length = Math.log10(value) + 1 */\n      swap1\n      pop\n        /* \"@openzeppelin/contracts/utils/Strings.sol\":572:592  string memory buffer */\n      0x00\n        /* \"@openzeppelin/contracts/utils/Strings.sol\":606:612  length */\n      dup2\n        /* \"@openzeppelin/contracts/utils/Strings.sol\":595:613  new string(length) */\n      0xffffffffffffffff\n      dup2\n      gt\n      iszero\n      tag_279\n      jumpi\n      tag_280\n      tag_281\n      jump\t// in\n    tag_280:\n    tag_279:\n      mload(0x40)\n      swap1\n      dup1\n      dup3\n      mstore\n      dup1\n      0x1f\n      add\n      not(0x1f)\n      and\n      0x20\n      add\n      dup3\n      add\n      0x40\n      mstore\n      dup1\n      iszero\n      tag_282\n      jumpi\n      dup2\n      0x20\n      add\n      0x01\n      dup3\n      mul\n      dup1\n      calldatasize\n      dup4\n      calldatacopy\n      dup1\n      dup3\n      add\n      swap2\n      pop\n      pop\n      swap1\n      pop\n    tag_282:\n      pop\n        /* \"@openzeppelin/contracts/utils/Strings.sol\":572:613  string memory buffer = new string(length) */\n      swap1\n      pop\n        /* \"@openzeppelin/contracts/utils/Strings.sol\":627:638  uint256 ptr */\n      0x00\n        /* \"@openzeppelin/contracts/utils/Strings.sol\":753:759  length */\n      dup3\n        /* \"@openzeppelin/contracts/utils/Strings.sol\":749:751  32 */\n      0x20\n        /* \"@openzeppelin/contracts/utils/Strings.sol\":745:760  add(32, length) */\n      add\n        /* \"@openzeppelin/contracts/utils/Strings.sol\":737:743  buffer */\n      dup3\n        /* \"@openzeppelin/contracts/utils/Strings.sol\":733:761  add(buffer, add(32, length)) */\n      add\n        /* \"@openzeppelin/contracts/utils/Strings.sol\":726:761  ptr := add(buffer, add(32, length)) */\n      swap1\n      pop\n        /* \"@openzeppelin/contracts/utils/Strings.sol\":788:1068  while (true) {... */\n    tag_283:\n        /* \"@openzeppelin/contracts/utils/Strings.sol\":795:799  true */\n      0x01\n        /* \"@openzeppelin/contracts/utils/Strings.sol\":788:1068  while (true) {... */\n      iszero\n      tag_284\n      jumpi\n        /* \"@openzeppelin/contracts/utils/Strings.sol\":819:824  ptr-- */\n      dup1\n      dup1\n      0x01\n      swap1\n      sub\n      swap2\n      pop\n      pop\n        /* \"@openzeppelin/contracts/utils/Strings.sol\":958:966  _SYMBOLS */\n      0x3031323334353637383961626364656600000000000000000000000000000000\n        /* \"@openzeppelin/contracts/utils/Strings.sol\":953:955  10 */\n      0x0a\n        /* \"@openzeppelin/contracts/utils/Strings.sol\":946:951  value */\n      dup7\n        /* \"@openzeppelin/contracts/utils/Strings.sol\":942:956  mod(value, 10) */\n      mod\n        /* \"@openzeppelin/contracts/utils/Strings.sol\":937:967  byte(mod(value, 10), _SYMBOLS) */\n      byte\n        /* \"@openzeppelin/contracts/utils/Strings.sol\":932:935  ptr */\n      dup2\n        /* \"@openzeppelin/contracts/utils/Strings.sol\":924:968  mstore8(ptr, byte(mod(value, 10), _SYMBOLS)) */\n      mstore8\n        /* \"@openzeppelin/contracts/utils/Strings.sol\":1012:1014  10 */\n      0x0a\n        /* \"@openzeppelin/contracts/utils/Strings.sol\":1003:1014  value /= 10 */\n      dup6\n      dup2\n      tag_285\n      jumpi\n      tag_286\n      tag_287\n      jump\t// in\n    tag_286:\n    tag_285:\n      div\n      swap5\n      pop\n        /* \"@openzeppelin/contracts/utils/Strings.sol\":1045:1046  0 */\n      0x00\n        /* \"@openzeppelin/contracts/utils/Strings.sol\":1036:1041  value */\n      dup6\n        /* \"@openzeppelin/contracts/utils/Strings.sol\":1036:1046  value == 0 */\n      sub\n        /* \"@openzeppelin/contracts/utils/Strings.sol\":788:1068  while (true) {... */\n      tag_283\n        /* \"@openzeppelin/contracts/utils/Strings.sol\":1032:1053  if (value == 0) break */\n      jumpi\n        /* \"@openzeppelin/contracts/utils/Strings.sol\":788:1068  while (true) {... */\n    tag_284:\n        /* \"@openzeppelin/contracts/utils/Strings.sol\":1088:1094  buffer */\n      dup2\n        /* \"@openzeppelin/contracts/utils/Strings.sol\":1081:1094  return buffer */\n      swap4\n      pop\n      pop\n      pop\n      pop\n        /* \"@openzeppelin/contracts/utils/Strings.sol\":415:1111  function toString(uint256 value) internal pure returns (string memory) {... */\n      swap2\n      swap1\n      pop\n      jump\t// out\n        /* \"contracts/standards/ERC721A.sol\":16763:16904  function _beforeTokenTransfers(... */\n    tag_223:\n      pop\n      pop\n      pop\n      pop\n      jump\t// out\n        /* \"contracts/standards/ERC721A.sol\":17290:17430  function _afterTokenTransfers(... */\n    tag_235:\n      pop\n      pop\n      pop\n      pop\n      jump\t// out\n        /* \"@openzeppelin/contracts/utils/Address.sol\":1175:1495  function isContract(address account) internal view returns (bool) {... */\n    tag_256:\n        /* \"@openzeppelin/contracts/utils/Address.sol\":1235:1239  bool */\n      0x00\n        /* \"@openzeppelin/contracts/utils/Address.sol\":1487:1488  0 */\n      dup1\n        /* \"@openzeppelin/contracts/utils/Address.sol\":1465:1472  account */\n      dup3\n        /* \"@openzeppelin/contracts/utils/Address.sol\":1465:1484  account.code.length */\n      0xffffffffffffffffffffffffffffffffffffffff\n      and\n      extcodesize\n        /* \"@openzeppelin/contracts/utils/Address.sol\":1465:1488  account.code.length > 0 */\n      gt\n        /* \"@openzeppelin/contracts/utils/Address.sol\":1458:1488  return account.code.length > 0 */\n      swap1\n      pop\n        /* \"@openzeppelin/contracts/utils/Address.sol\":1175:1495  function isContract(address account) internal view returns (bool) {... */\n      swap2\n      swap1\n      pop\n      jump\t// out\n        /* \"@openzeppelin/contracts/utils/math/Math.sol\":9889:10779  function log10(uint256 value) internal pure returns (uint256) {... */\n    tag_278:\n        /* \"@openzeppelin/contracts/utils/math/Math.sol\":9942:9949  uint256 */\n      0x00\n        /* \"@openzeppelin/contracts/utils/math/Math.sol\":9961:9975  uint256 result */\n      dup1\n        /* \"@openzeppelin/contracts/utils/math/Math.sol\":9978:9979  0 */\n      0x00\n        /* \"@openzeppelin/contracts/utils/math/Math.sol\":9961:9979  uint256 result = 0 */\n      swap1\n      pop\n        /* \"@openzeppelin/contracts/utils/math/Math.sol\":10026:10032  10**64 */\n      0x184f03e93ff9f4daa797ed6e38ed64bf6a1f010000000000000000\n        /* \"@openzeppelin/contracts/utils/math/Math.sol\":10017:10022  value */\n      dup4\n        /* \"@openzeppelin/contracts/utils/math/Math.sol\":10017:10032  value >= 10**64 */\n      lt\n        /* \"@openzeppelin/contracts/utils/math/Math.sol\":10013:10112  if (value >= 10**64) {... */\n      tag_293\n      jumpi\n        /* \"@openzeppelin/contracts/utils/math/Math.sol\":10061:10067  10**64 */\n      0x184f03e93ff9f4daa797ed6e38ed64bf6a1f010000000000000000\n        /* \"@openzeppelin/contracts/utils/math/Math.sol\":10052:10067  value /= 10**64 */\n      dup4\n      dup2\n      tag_294\n      jumpi\n      tag_295\n      tag_287\n      jump\t// in\n    tag_295:\n    tag_294:\n      div\n      swap3\n      pop\n        /* \"@openzeppelin/contracts/utils/math/Math.sol\":10095:10097  64 */\n      0x40\n        /* \"@openzeppelin/contracts/utils/math/Math.sol\":10085:10097  result += 64 */\n      dup2\n      add\n      swap1\n      pop\n        /* \"@openzeppelin/contracts/utils/math/Math.sol\":10013:10112  if (value >= 10**64) {... */\n    tag_293:\n        /* \"@openzeppelin/contracts/utils/math/Math.sol\":10138:10144  10**32 */\n      0x04ee2d6d415b85acef8100000000\n        /* \"@openzeppelin/contracts/utils/math/Math.sol\":10129:10134  value */\n      dup4\n        /* \"@openzeppelin/contracts/utils/math/Math.sol\":10129:10144  value >= 10**32 */\n      lt\n        /* \"@openzeppelin/contracts/utils/math/Math.sol\":10125:10224  if (value >= 10**32) {... */\n      tag_296\n      jumpi\n        /* \"@openzeppelin/contracts/utils/math/Math.sol\":10173:10179  10**32 */\n      0x04ee2d6d415b85acef8100000000\n        /* \"@openzeppelin/contracts/utils/math/Math.sol\":10164:10179  value /= 10**32 */\n      dup4\n      dup2\n      tag_297\n      jumpi\n      tag_298\n      tag_287\n      jump\t// in\n    tag_298:\n    tag_297:\n      div\n      swap3\n      pop\n        /* \"@openzeppelin/contracts/utils/math/Math.sol\":10207:10209  32 */\n      0x20\n        /* \"@openzeppelin/contracts/utils/math/Math.sol\":10197:10209  result += 32 */\n      dup2\n      add\n      swap1\n      pop\n        /* \"@openzeppelin/contracts/utils/math/Math.sol\":10125:10224  if (value >= 10**32) {... */\n    tag_296:\n        /* \"@openzeppelin/contracts/utils/math/Math.sol\":10250:10256  10**16 */\n      0x2386f26fc10000\n        /* \"@openzeppelin/contracts/utils/math/Math.sol\":10241:10246  value */\n      dup4\n        /* \"@openzeppelin/contracts/utils/math/Math.sol\":10241:10256  value >= 10**16 */\n      lt\n        /* \"@openzeppelin/contracts/utils/math/Math.sol\":10237:10336  if (value >= 10**16) {... */\n      tag_299\n      jumpi\n        /* \"@openzeppelin/contracts/utils/math/Math.sol\":10285:10291  10**16 */\n      0x2386f26fc10000\n        /* \"@openzeppelin/contracts/utils/math/Math.sol\":10276:10291  value /= 10**16 */\n      dup4\n      dup2\n      tag_300\n      jumpi\n      tag_301\n      tag_287\n      jump\t// in\n    tag_301:\n    tag_300:\n      div\n      swap3\n      pop\n        /* \"@openzeppelin/contracts/utils/math/Math.sol\":10319:10321  16 */\n      0x10\n        /* \"@openzeppelin/contracts/utils/math/Math.sol\":10309:10321  result += 16 */\n      dup2\n      add\n      swap1\n      pop\n        /* \"@openzeppelin/contracts/utils/math/Math.sol\":10237:10336  if (value >= 10**16) {... */\n    tag_299:\n        /* \"@openzeppelin/contracts/utils/math/Math.sol\":10362:10367  10**8 */\n      0x05f5e100\n        /* \"@openzeppelin/contracts/utils/math/Math.sol\":10353:10358  value */\n      dup4\n        /* \"@openzeppelin/contracts/utils/math/Math.sol\":10353:10367  value >= 10**8 */\n      lt\n        /* \"@openzeppelin/contracts/utils/math/Math.sol\":10349:10445  if (value >= 10**8) {... */\n      tag_302\n      jumpi\n        /* \"@openzeppelin/contracts/utils/math/Math.sol\":10396:10401  10**8 */\n      0x05f5e100\n        /* \"@openzeppelin/contracts/utils/math/Math.sol\":10387:10401  value /= 10**8 */\n      dup4\n      dup2\n      tag_303\n      jumpi\n      tag_304\n      tag_287\n      jump\t// in\n    tag_304:\n    tag_303:\n      div\n      swap3\n      pop\n        /* \"@openzeppelin/contracts/utils/math/Math.sol\":10429:10430  8 */\n      0x08\n        /* \"@openzeppelin/contracts/utils/math/Math.sol\":10419:10430  result += 8 */\n      dup2\n      add\n      swap1\n      pop\n        /* \"@openzeppelin/contracts/utils/math/Math.sol\":10349:10445  if (value >= 10**8) {... */\n    tag_302:\n        /* \"@openzeppelin/contracts/utils/math/Math.sol\":10471:10476  10**4 */\n      0x2710\n        /* \"@openzeppelin/contracts/utils/math/Math.sol\":10462:10467  value */\n      dup4\n        /* \"@openzeppelin/contracts/utils/math/Math.sol\":10462:10476  value >= 10**4 */\n      lt\n        /* \"@openzeppelin/contracts/utils/math/Math.sol\":10458:10554  if (value >= 10**4) {... */\n      tag_305\n      jumpi\n        /* \"@openzeppelin/contracts/utils/math/Math.sol\":10505:10510  10**4 */\n      0x2710\n        /* \"@openzeppelin/contracts/utils/math/Math.sol\":10496:10510  value /= 10**4 */\n      dup4\n      dup2\n      tag_306\n      jumpi\n      tag_307\n      tag_287\n      jump\t// in\n    tag_307:\n    tag_306:\n      div\n      swap3\n      pop\n        /* \"@openzeppelin/contracts/utils/math/Math.sol\":10538:10539  4 */\n      0x04\n        /* \"@openzeppelin/contracts/utils/math/Math.sol\":10528:10539  result += 4 */\n      dup2\n      add\n      swap1\n      pop\n        /* \"@openzeppelin/contracts/utils/math/Math.sol\":10458:10554  if (value >= 10**4) {... */\n    tag_305:\n        /* \"@openzeppelin/contracts/utils/math/Math.sol\":10580:10585  10**2 */\n      0x64\n        /* \"@openzeppelin/contracts/utils/math/Math.sol\":10571:10576  value */\n      dup4\n        /* \"@openzeppelin/contracts/utils/math/Math.sol\":10571:10585  value >= 10**2 */\n      lt\n        /* \"@openzeppelin/contracts/utils/math/Math.sol\":10567:10663  if (value >= 10**2) {... */\n      tag_308\n      jumpi\n        /* \"@openzeppelin/contracts/utils/math/Math.sol\":10614:10619  10**2 */\n      0x64\n        /* \"@openzeppelin/contracts/utils/math/Math.sol\":10605:10619  value /= 10**2 */\n      dup4\n      dup2\n      tag_309\n      jumpi\n      tag_310\n      tag_287\n      jump\t// in\n    tag_310:\n    tag_309:\n      div\n      swap3\n      pop\n        /* \"@openzeppelin/contracts/utils/math/Math.sol\":10647:10648  2 */\n      0x02\n        /* \"@openzeppelin/contracts/utils/math/Math.sol\":10637:10648  result += 2 */\n      dup2\n      add\n      swap1\n      pop\n        /* \"@openzeppelin/contracts/utils/math/Math.sol\":10567:10663  if (value >= 10**2) {... */\n    tag_308:\n        /* \"@openzeppelin/contracts/utils/math/Math.sol\":10689:10694  10**1 */\n      0x0a\n        /* \"@openzeppelin/contracts/utils/math/Math.sol\":10680:10685  value */\n      dup4\n        /* \"@openzeppelin/contracts/utils/math/Math.sol\":10680:10694  value >= 10**1 */\n      lt\n        /* \"@openzeppelin/contracts/utils/math/Math.sol\":10676:10740  if (value >= 10**1) {... */\n      tag_311\n      jumpi\n        /* \"@openzeppelin/contracts/utils/math/Math.sol\":10724:10725  1 */\n      0x01\n        /* \"@openzeppelin/contracts/utils/math/Math.sol\":10714:10725  result += 1 */\n      dup2\n      add\n      swap1\n      pop\n        /* \"@openzeppelin/contracts/utils/math/Math.sol\":10676:10740  if (value >= 10**1) {... */\n    tag_311:\n        /* \"@openzeppelin/contracts/utils/math/Math.sol\":10766:10772  result */\n      dup1\n        /* \"@openzeppelin/contracts/utils/math/Math.sol\":10759:10772  return result */\n      swap2\n      pop\n      pop\n        /* \"@openzeppelin/contracts/utils/math/Math.sol\":9889:10779  function log10(uint256 value) internal pure returns (uint256) {... */\n      swap2\n      swap1\n      pop\n      jump\t// out\n    tag_237:\n      mload(0x40)\n      dup1\n      0x40\n      add\n      0x40\n      mstore\n      dup1\n      and(0xffffffffffffffffffffffffffffffffffffffff, 0x00)\n      dup2\n      mstore\n      0x20\n      add\n      and(0xffffffffffffffff, 0x00)\n      dup2\n      mstore\n      pop\n      swap1\n      jump\t// out\n        /* \"#utility.yul\":7:82   */\n    tag_312:\n        /* \"#utility.yul\":40:46   */\n      0x00\n        /* \"#utility.yul\":73:75   */\n      0x40\n        /* \"#utility.yul\":67:76   */\n      mload\n        /* \"#utility.yul\":57:76   */\n      swap1\n      pop\n        /* \"#utility.yul\":7:82   */\n      swap1\n      jump\t// out\n        /* \"#utility.yul\":88:205   */\n    tag_313:\n        /* \"#utility.yul\":197:198   */\n      0x00\n        /* \"#utility.yul\":194:195   */\n      dup1\n        /* \"#utility.yul\":187:199   */\n      revert\n        /* \"#utility.yul\":211:328   */\n    tag_314:\n        /* \"#utility.yul\":320:321   */\n      0x00\n        /* \"#utility.yul\":317:318   */\n      dup1\n        /* \"#utility.yul\":310:322   */\n      revert\n        /* \"#utility.yul\":334:483   */\n    tag_315:\n        /* \"#utility.yul\":370:377   */\n      0x00\n        /* \"#utility.yul\":410:476   */\n      0xffffffff00000000000000000000000000000000000000000000000000000000\n        /* \"#utility.yul\":403:408   */\n      dup3\n        /* \"#utility.yul\":399:477   */\n      and\n        /* \"#utility.yul\":388:477   */\n      swap1\n      pop\n        /* \"#utility.yul\":334:483   */\n      swap2\n      swap1\n      pop\n      jump\t// out\n        /* \"#utility.yul\":489:609   */\n    tag_316:\n        /* \"#utility.yul\":561:584   */\n      tag_389\n        /* \"#utility.yul\":578:583   */\n      dup2\n        /* \"#utility.yul\":561:584   */\n      tag_315\n      jump\t// in\n    tag_389:\n        /* \"#utility.yul\":554:559   */\n      dup2\n        /* \"#utility.yul\":551:585   */\n      eq\n        /* \"#utility.yul\":541:603   */\n      tag_390\n      jumpi\n        /* \"#utility.yul\":599:600   */\n      0x00\n        /* \"#utility.yul\":596:597   */\n      dup1\n        /* \"#utility.yul\":589:601   */\n      revert\n        /* \"#utility.yul\":541:603   */\n    tag_390:\n        /* \"#utility.yul\":489:609   */\n      pop\n      jump\t// out\n        /* \"#utility.yul\":615:752   */\n    tag_317:\n        /* \"#utility.yul\":660:665   */\n      0x00\n        /* \"#utility.yul\":698:704   */\n      dup2\n        /* \"#utility.yul\":685:705   */\n      calldataload\n        /* \"#utility.yul\":676:705   */\n      swap1\n      pop\n        /* \"#utility.yul\":714:746   */\n      tag_392\n        /* \"#utility.yul\":740:745   */\n      dup2\n        /* \"#utility.yul\":714:746   */\n      tag_316\n      jump\t// in\n    tag_392:\n        /* \"#utility.yul\":615:752   */\n      swap3\n      swap2\n      pop\n      pop\n      jump\t// out\n        /* \"#utility.yul\":758:1085   */\n    tag_25:\n        /* \"#utility.yul\":816:822   */\n      0x00\n        /* \"#utility.yul\":865:867   */\n      0x20\n        /* \"#utility.yul\":853:862   */\n      dup3\n        /* \"#utility.yul\":844:851   */\n      dup5\n        /* \"#utility.yul\":840:863   */\n      sub\n        /* \"#utility.yul\":836:868   */\n      slt\n        /* \"#utility.yul\":833:952   */\n      iszero\n      tag_394\n      jumpi\n        /* \"#utility.yul\":871:950   */\n      tag_395\n      tag_313\n      jump\t// in\n    tag_395:\n        /* \"#utility.yul\":833:952   */\n    tag_394:\n        /* \"#utility.yul\":991:992   */\n      0x00\n        /* \"#utility.yul\":1016:1068   */\n      tag_396\n        /* \"#utility.yul\":1060:1067   */\n      dup5\n        /* \"#utility.yul\":1051:1057   */\n      dup3\n        /* \"#utility.yul\":1040:1049   */\n      dup6\n        /* \"#utility.yul\":1036:1058   */\n      add\n        /* \"#utility.yul\":1016:1068   */\n      tag_317\n      jump\t// in\n    tag_396:\n        /* \"#utility.yul\":1006:1068   */\n      swap2\n      pop\n        /* \"#utility.yul\":962:1078   */\n      pop\n        /* \"#utility.yul\":758:1085   */\n      swap3\n      swap2\n      pop\n      pop\n      jump\t// out\n        /* \"#utility.yul\":1091:1181   */\n    tag_318:\n        /* \"#utility.yul\":1125:1132   */\n      0x00\n        /* \"#utility.yul\":1168:1173   */\n      dup2\n        /* \"#utility.yul\":1161:1174   */\n      iszero\n        /* \"#utility.yul\":1154:1175   */\n      iszero\n        /* \"#utility.yul\":1143:1175   */\n      swap1\n      pop\n        /* \"#utility.yul\":1091:1181   */\n      swap2\n      swap1\n      pop\n      jump\t// out\n        /* \"#utility.yul\":1187:1296   */\n    tag_319:\n        /* \"#utility.yul\":1268:1289   */\n      tag_399\n        /* \"#utility.yul\":1283:1288   */\n      dup2\n        /* \"#utility.yul\":1268:1289   */\n      tag_318\n      jump\t// in\n    tag_399:\n        /* \"#utility.yul\":1263:1266   */\n      dup3\n        /* \"#utility.yul\":1256:1290   */\n      mstore\n        /* \"#utility.yul\":1187:1296   */\n      pop\n      pop\n      jump\t// out\n        /* \"#utility.yul\":1302:1512   */\n    tag_28:\n        /* \"#utility.yul\":1389:1393   */\n      0x00\n        /* \"#utility.yul\":1427:1429   */\n      0x20\n        /* \"#utility.yul\":1416:1425   */\n      dup3\n        /* \"#utility.yul\":1412:1430   */\n      add\n        /* \"#utility.yul\":1404:1430   */\n      swap1\n      pop\n        /* \"#utility.yul\":1440:1505   */\n      tag_401\n        /* \"#utility.yul\":1502:1503   */\n      0x00\n        /* \"#utility.yul\":1491:1500   */\n      dup4\n        /* \"#utility.yul\":1487:1504   */\n      add\n        /* \"#utility.yul\":1478:1484   */\n      dup5\n        /* \"#utility.yul\":1440:1505   */\n      tag_319\n      jump\t// in\n    tag_401:\n        /* \"#utility.yul\":1302:1512   */\n      swap3\n      swap2\n      pop\n      pop\n      jump\t// out\n        /* \"#utility.yul\":1518:1617   */\n    tag_320:\n        /* \"#utility.yul\":1570:1576   */\n      0x00\n        /* \"#utility.yul\":1604:1609   */\n      dup2\n        /* \"#utility.yul\":1598:1610   */\n      mload\n        /* \"#utility.yul\":1588:1610   */\n      swap1\n      pop\n        /* \"#utility.yul\":1518:1617   */\n      swap2\n      swap1\n      pop\n      jump\t// out\n        /* \"#utility.yul\":1623:1792   */\n    tag_321:\n        /* \"#utility.yul\":1707:1718   */\n      0x00\n        /* \"#utility.yul\":1741:1747   */\n      dup3\n        /* \"#utility.yul\":1736:1739   */\n      dup3\n        /* \"#utility.yul\":1729:1748   */\n      mstore\n        /* \"#utility.yul\":1781:1785   */\n      0x20\n        /* \"#utility.yul\":1776:1779   */\n      dup3\n        /* \"#utility.yul\":1772:1786   */\n      add\n        /* \"#utility.yul\":1757:1786   */\n      swap1\n      pop\n        /* \"#utility.yul\":1623:1792   */\n      swap3\n      swap2\n      pop\n      pop\n      jump\t// out\n        /* \"#utility.yul\":1798:2044   */\n    tag_322:\n        /* \"#utility.yul\":1879:1880   */\n      0x00\n        /* \"#utility.yul\":1889:2002   */\n    tag_405:\n        /* \"#utility.yul\":1903:1909   */\n      dup4\n        /* \"#utility.yul\":1900:1901   */\n      dup2\n        /* \"#utility.yul\":1897:1910   */\n      lt\n        /* \"#utility.yul\":1889:2002   */\n      iszero\n      tag_407\n      jumpi\n        /* \"#utility.yul\":1988:1989   */\n      dup1\n        /* \"#utility.yul\":1983:1986   */\n      dup3\n        /* \"#utility.yul\":1979:1990   */\n      add\n        /* \"#utility.yul\":1973:1991   */\n      mload\n        /* \"#utility.yul\":1969:1970   */\n      dup2\n        /* \"#utility.yul\":1964:1967   */\n      dup5\n        /* \"#utility.yul\":1960:1971   */\n      add\n        /* \"#utility.yul\":1953:1992   */\n      mstore\n        /* \"#utility.yul\":1925:1927   */\n      0x20\n        /* \"#utility.yul\":1922:1923   */\n      dup2\n        /* \"#utility.yul\":1918:1928   */\n      add\n        /* \"#utility.yul\":1913:1928   */\n      swap1\n      pop\n        /* \"#utility.yul\":1889:2002   */\n      jump(tag_405)\n    tag_407:\n        /* \"#utility.yul\":2036:2037   */\n      0x00\n        /* \"#utility.yul\":2027:2033   */\n      dup5\n        /* \"#utility.yul\":2022:2025   */\n      dup5\n        /* \"#utility.yul\":2018:2034   */\n      add\n        /* \"#utility.yul\":2011:2038   */\n      mstore\n        /* \"#utility.yul\":1860:2044   */\n      pop\n        /* \"#utility.yul\":1798:2044   */\n      pop\n      pop\n      pop\n      jump\t// out\n        /* \"#utility.yul\":2050:2152   */\n    tag_323:\n        /* \"#utility.yul\":2091:2097   */\n      0x00\n        /* \"#utility.yul\":2142:2144   */\n      0x1f\n        /* \"#utility.yul\":2138:2145   */\n      not\n        /* \"#utility.yul\":2133:2135   */\n      0x1f\n        /* \"#utility.yul\":2126:2131   */\n      dup4\n        /* \"#utility.yul\":2122:2136   */\n      add\n        /* \"#utility.yul\":2118:2146   */\n      and\n        /* \"#utility.yul\":2108:2146   */\n      swap1\n      pop\n        /* \"#utility.yul\":2050:2152   */\n      swap2\n      swap1\n      pop\n      jump\t// out\n        /* \"#utility.yul\":2158:2535   */\n    tag_324:\n        /* \"#utility.yul\":2246:2249   */\n      0x00\n        /* \"#utility.yul\":2274:2313   */\n      tag_410\n        /* \"#utility.yul\":2307:2312   */\n      dup3\n        /* \"#utility.yul\":2274:2313   */\n      tag_320\n      jump\t// in\n    tag_410:\n        /* \"#utility.yul\":2329:2400   */\n      tag_411\n        /* \"#utility.yul\":2393:2399   */\n      dup2\n        /* \"#utility.yul\":2388:2391   */\n      dup6\n        /* \"#utility.yul\":2329:2400   */\n      tag_321\n      jump\t// in\n    tag_411:\n        /* \"#utility.yul\":2322:2400   */\n      swap4\n      pop\n        /* \"#utility.yul\":2409:2474   */\n      tag_412\n        /* \"#utility.yul\":2467:2473   */\n      dup2\n        /* \"#utility.yul\":2462:2465   */\n      dup6\n        /* \"#utility.yul\":2455:2459   */\n      0x20\n        /* \"#utility.yul\":2448:2453   */\n      dup7\n        /* \"#utility.yul\":2444:2460   */\n      add\n        /* \"#utility.yul\":2409:2474   */\n      tag_322\n      jump\t// in\n    tag_412:\n        /* \"#utility.yul\":2499:2528   */\n      tag_413\n        /* \"#utility.yul\":2521:2527   */\n      dup2\n        /* \"#utility.yul\":2499:2528   */\n      tag_323\n      jump\t// in\n    tag_413:\n        /* \"#utility.yul\":2494:2497   */\n      dup5\n        /* \"#utility.yul\":2490:2529   */\n      add\n        /* \"#utility.yul\":2483:2529   */\n      swap2\n      pop\n        /* \"#utility.yul\":2250:2535   */\n      pop\n        /* \"#utility.yul\":2158:2535   */\n      swap3\n      swap2\n      pop\n      pop\n      jump\t// out\n        /* \"#utility.yul\":2541:2854   */\n    tag_32:\n        /* \"#utility.yul\":2654:2658   */\n      0x00\n        /* \"#utility.yul\":2692:2694   */\n      0x20\n        /* \"#utility.yul\":2681:2690   */\n      dup3\n        /* \"#utility.yul\":2677:2695   */\n      add\n        /* \"#utility.yul\":2669:2695   */\n      swap1\n      pop\n        /* \"#utility.yul\":2741:2750   */\n      dup2\n        /* \"#utility.yul\":2735:2739   */\n      dup2\n        /* \"#utility.yul\":2731:2751   */\n      sub\n        /* \"#utility.yul\":2727:2728   */\n      0x00\n        /* \"#utility.yul\":2716:2725   */\n      dup4\n        /* \"#utility.yul\":2712:2729   */\n      add\n        /* \"#utility.yul\":2705:2752   */\n      mstore\n        /* \"#utility.yul\":2769:2847   */\n      tag_415\n        /* \"#utility.yul\":2842:2846   */\n      dup2\n        /* \"#utility.yul\":2833:2839   */\n      dup5\n        /* \"#utility.yul\":2769:2847   */\n      tag_324\n      jump\t// in\n    tag_415:\n        /* \"#utility.yul\":2761:2847   */\n      swap1\n      pop\n        /* \"#utility.yul\":2541:2854   */\n      swap3\n      swap2\n      pop\n      pop\n      jump\t// out\n        /* \"#utility.yul\":2860:2937   */\n    tag_325:\n        /* \"#utility.yul\":2897:2904   */\n      0x00\n        /* \"#utility.yul\":2926:2931   */\n      dup2\n        /* \"#utility.yul\":2915:2931   */\n      swap1\n      pop\n        /* \"#utility.yul\":2860:2937   */\n      swap2\n      swap1\n      pop\n      jump\t// out\n        /* \"#utility.yul\":2943:3065   */\n    tag_326:\n        /* \"#utility.yul\":3016:3040   */\n      tag_418\n        /* \"#utility.yul\":3034:3039   */\n      dup2\n        /* \"#utility.yul\":3016:3040   */\n      tag_325\n      jump\t// in\n    tag_418:\n        /* \"#utility.yul\":3009:3014   */\n      dup2\n        /* \"#utility.yul\":3006:3041   */\n      eq\n        /* \"#utility.yul\":2996:3059   */\n      tag_419\n      jumpi\n        /* \"#utility.yul\":3055:3056   */\n      0x00\n        /* \"#utility.yul\":3052:3053   */\n      dup1\n        /* \"#utility.yul\":3045:3057   */\n      revert\n        /* \"#utility.yul\":2996:3059   */\n    tag_419:\n        /* \"#utility.yul\":2943:3065   */\n      pop\n      jump\t// out\n        /* \"#utility.yul\":3071:3210   */\n    tag_327:\n        /* \"#utility.yul\":3117:3122   */\n      0x00\n        /* \"#utility.yul\":3155:3161   */\n      dup2\n        /* \"#utility.yul\":3142:3162   */\n      calldataload\n        /* \"#utility.yul\":3133:3162   */\n      swap1\n      pop\n        /* \"#utility.yul\":3171:3204   */\n      tag_421\n        /* \"#utility.yul\":3198:3203   */\n      dup2\n        /* \"#utility.yul\":3171:3204   */\n      tag_326\n      jump\t// in\n    tag_421:\n        /* \"#utility.yul\":3071:3210   */\n      swap3\n      swap2\n      pop\n      pop\n      jump\t// out\n        /* \"#utility.yul\":3216:3545   */\n    tag_35:\n        /* \"#utility.yul\":3275:3281   */\n      0x00\n        /* \"#utility.yul\":3324:3326   */\n      0x20\n        /* \"#utility.yul\":3312:3321   */\n      dup3\n        /* \"#utility.yul\":3303:3310   */\n      dup5\n        /* \"#utility.yul\":3299:3322   */\n      sub\n        /* \"#utility.yul\":3295:3327   */\n      slt\n        /* \"#utility.yul\":3292:3411   */\n      iszero\n      tag_423\n      jumpi\n        /* \"#utility.yul\":3330:3409   */\n      tag_424\n      tag_313\n      jump\t// in\n    tag_424:\n        /* \"#utility.yul\":3292:3411   */\n    tag_423:\n        /* \"#utility.yul\":3450:3451   */\n      0x00\n        /* \"#utility.yul\":3475:3528   */\n      tag_425\n        /* \"#utility.yul\":3520:3527   */\n      dup5\n        /* \"#utility.yul\":3511:3517   */\n      dup3\n        /* \"#utility.yul\":3500:3509   */\n      dup6\n        /* \"#utility.yul\":3496:3518   */\n      add\n        /* \"#utility.yul\":3475:3528   */\n      tag_327\n      jump\t// in\n    tag_425:\n        /* \"#utility.yul\":3465:3528   */\n      swap2\n      pop\n        /* \"#utility.yul\":3421:3538   */\n      pop\n        /* \"#utility.yul\":3216:3545   */\n      swap3\n      swap2\n      pop\n      pop\n      jump\t// out\n        /* \"#utility.yul\":3551:3677   */\n    tag_328:\n        /* \"#utility.yul\":3588:3595   */\n      0x00\n        /* \"#utility.yul\":3628:3670   */\n      0xffffffffffffffffffffffffffffffffffffffff\n        /* \"#utility.yul\":3621:3626   */\n      dup3\n        /* \"#utility.yul\":3617:3671   */\n      and\n        /* \"#utility.yul\":3606:3671   */\n      swap1\n      pop\n        /* \"#utility.yul\":3551:3677   */\n      swap2\n      swap1\n      pop\n      jump\t// out\n        /* \"#utility.yul\":3683:3779   */\n    tag_329:\n        /* \"#utility.yul\":3720:3727   */\n      0x00\n        /* \"#utility.yul\":3749:3773   */\n      tag_428\n        /* \"#utility.yul\":3767:3772   */\n      dup3\n        /* \"#utility.yul\":3749:3773   */\n      tag_328\n      jump\t// in\n    tag_428:\n        /* \"#utility.yul\":3738:3773   */\n      swap1\n      pop\n        /* \"#utility.yul\":3683:3779   */\n      swap2\n      swap1\n      pop\n      jump\t// out\n        /* \"#utility.yul\":3785:3903   */\n    tag_330:\n        /* \"#utility.yul\":3872:3896   */\n      tag_430\n        /* \"#utility.yul\":3890:3895   */\n      dup2\n        /* \"#utility.yul\":3872:3896   */\n      tag_329\n      jump\t// in\n    tag_430:\n        /* \"#utility.yul\":3867:3870   */\n      dup3\n        /* \"#utility.yul\":3860:3897   */\n      mstore\n        /* \"#utility.yul\":3785:3903   */\n      pop\n      pop\n      jump\t// out\n        /* \"#utility.yul\":3909:4131   */\n    tag_38:\n        /* \"#utility.yul\":4002:4006   */\n      0x00\n        /* \"#utility.yul\":4040:4042   */\n      0x20\n        /* \"#utility.yul\":4029:4038   */\n      dup3\n        /* \"#utility.yul\":4025:4043   */\n      add\n        /* \"#utility.yul\":4017:4043   */\n      swap1\n      pop\n        /* \"#utility.yul\":4053:4124   */\n      tag_432\n        /* \"#utility.yul\":4121:4122   */\n      0x00\n        /* \"#utility.yul\":4110:4119   */\n      dup4\n        /* \"#utility.yul\":4106:4123   */\n      add\n        /* \"#utility.yul\":4097:4103   */\n      dup5\n        /* \"#utility.yul\":4053:4124   */\n      tag_330\n      jump\t// in\n    tag_432:\n        /* \"#utility.yul\":3909:4131   */\n      swap3\n      swap2\n      pop\n      pop\n      jump\t// out\n        /* \"#utility.yul\":4137:4259   */\n    tag_331:\n        /* \"#utility.yul\":4210:4234   */\n      tag_434\n        /* \"#utility.yul\":4228:4233   */\n      dup2\n        /* \"#utility.yul\":4210:4234   */\n      tag_329\n      jump\t// in\n    tag_434:\n        /* \"#utility.yul\":4203:4208   */\n      dup2\n        /* \"#utility.yul\":4200:4235   */\n      eq\n        /* \"#utility.yul\":4190:4253   */\n      tag_435\n      jumpi\n        /* \"#utility.yul\":4249:4250   */\n      0x00\n        /* \"#utility.yul\":4246:4247   */\n      dup1\n        /* \"#utility.yul\":4239:4251   */\n      revert\n        /* \"#utility.yul\":4190:4253   */\n    tag_435:\n        /* \"#utility.yul\":4137:4259   */\n      pop\n      jump\t// out\n        /* \"#utility.yul\":4265:4404   */\n    tag_332:\n        /* \"#utility.yul\":4311:4316   */\n      0x00\n        /* \"#utility.yul\":4349:4355   */\n      dup2\n        /* \"#utility.yul\":4336:4356   */\n      calldataload\n        /* \"#utility.yul\":4327:4356   */\n      swap1\n      pop\n        /* \"#utility.yul\":4365:4398   */\n      tag_437\n        /* \"#utility.yul\":4392:4397   */\n      dup2\n        /* \"#utility.yul\":4365:4398   */\n      tag_331\n      jump\t// in\n    tag_437:\n        /* \"#utility.yul\":4265:4404   */\n      swap3\n      swap2\n      pop\n      pop\n      jump\t// out\n        /* \"#utility.yul\":4410:4884   */\n    tag_41:\n        /* \"#utility.yul\":4478:4484   */\n      0x00\n        /* \"#utility.yul\":4486:4492   */\n      dup1\n        /* \"#utility.yul\":4535:4537   */\n      0x40\n        /* \"#utility.yul\":4523:4532   */\n      dup4\n        /* \"#utility.yul\":4514:4521   */\n      dup6\n        /* \"#utility.yul\":4510:4533   */\n      sub\n        /* \"#utility.yul\":4506:4538   */\n      slt\n        /* \"#utility.yul\":4503:4622   */\n      iszero\n      tag_439\n      jumpi\n        /* \"#utility.yul\":4541:4620   */\n      tag_440\n      tag_313\n      jump\t// in\n    tag_440:\n        /* \"#utility.yul\":4503:4622   */\n    tag_439:\n        /* \"#utility.yul\":4661:4662   */\n      0x00\n        /* \"#utility.yul\":4686:4739   */\n      tag_441\n        /* \"#utility.yul\":4731:4738   */\n      dup6\n        /* \"#utility.yul\":4722:4728   */\n      dup3\n        /* \"#utility.yul\":4711:4720   */\n      dup7\n        /* \"#utility.yul\":4707:4729   */\n      add\n        /* \"#utility.yul\":4686:4739   */\n      tag_332\n      jump\t// in\n    tag_441:\n        /* \"#utility.yul\":4676:4739   */\n      swap3\n      pop\n        /* \"#utility.yul\":4632:4749   */\n      pop\n        /* \"#utility.yul\":4788:4790   */\n      0x20\n        /* \"#utility.yul\":4814:4867   */\n      tag_442\n        /* \"#utility.yul\":4859:4866   */\n      dup6\n        /* \"#utility.yul\":4850:4856   */\n      dup3\n        /* \"#utility.yul\":4839:4848   */\n      dup7\n        /* \"#utility.yul\":4835:4857   */\n      add\n        /* \"#utility.yul\":4814:4867   */\n      tag_327\n      jump\t// in\n    tag_442:\n        /* \"#utility.yul\":4804:4867   */\n      swap2\n      pop\n        /* \"#utility.yul\":4759:4877   */\n      pop\n        /* \"#utility.yul\":4410:4884   */\n      swap3\n      pop\n      swap3\n      swap1\n      pop\n      jump\t// out\n        /* \"#utility.yul\":4890:5008   */\n    tag_333:\n        /* \"#utility.yul\":4977:5001   */\n      tag_444\n        /* \"#utility.yul\":4995:5000   */\n      dup2\n        /* \"#utility.yul\":4977:5001   */\n      tag_325\n      jump\t// in\n    tag_444:\n        /* \"#utility.yul\":4972:4975   */\n      dup3\n        /* \"#utility.yul\":4965:5002   */\n      mstore\n        /* \"#utility.yul\":4890:5008   */\n      pop\n      pop\n      jump\t// out\n        /* \"#utility.yul\":5014:5236   */\n    tag_46:\n        /* \"#utility.yul\":5107:5111   */\n      0x00\n        /* \"#utility.yul\":5145:5147   */\n      0x20\n        /* \"#utility.yul\":5134:5143   */\n      dup3\n        /* \"#utility.yul\":5130:5148   */\n      add\n        /* \"#utility.yul\":5122:5148   */\n      swap1\n      pop\n        /* \"#utility.yul\":5158:5229   */\n      tag_446\n        /* \"#utility.yul\":5226:5227   */\n      0x00\n        /* \"#utility.yul\":5215:5224   */\n      dup4\n        /* \"#utility.yul\":5211:5228   */\n      add\n        /* \"#utility.yul\":5202:5208   */\n      dup5\n        /* \"#utility.yul\":5158:5229   */\n      tag_333\n      jump\t// in\n    tag_446:\n        /* \"#utility.yul\":5014:5236   */\n      swap3\n      swap2\n      pop\n      pop\n      jump\t// out\n        /* \"#utility.yul\":5242:5861   */\n    tag_49:\n        /* \"#utility.yul\":5319:5325   */\n      0x00\n        /* \"#utility.yul\":5327:5333   */\n      dup1\n        /* \"#utility.yul\":5335:5341   */\n      0x00\n        /* \"#utility.yul\":5384:5386   */\n      0x60\n        /* \"#utility.yul\":5372:5381   */\n      dup5\n        /* \"#utility.yul\":5363:5370   */\n      dup7\n        /* \"#utility.yul\":5359:5382   */\n      sub\n        /* \"#utility.yul\":5355:5387   */\n      slt\n        /* \"#utility.yul\":5352:5471   */\n      iszero\n      tag_448\n      jumpi\n        /* \"#utility.yul\":5390:5469   */\n      tag_449\n      tag_313\n      jump\t// in\n    tag_449:\n        /* \"#utility.yul\":5352:5471   */\n    tag_448:\n        /* \"#utility.yul\":5510:5511   */\n      0x00\n        /* \"#utility.yul\":5535:5588   */\n      tag_450\n        /* \"#utility.yul\":5580:5587   */\n      dup7\n        /* \"#utility.yul\":5571:5577   */\n      dup3\n        /* \"#utility.yul\":5560:5569   */\n      dup8\n        /* \"#utility.yul\":5556:5578   */\n      add\n        /* \"#utility.yul\":5535:5588   */\n      tag_332\n      jump\t// in\n    tag_450:\n        /* \"#utility.yul\":5525:5588   */\n      swap4\n      pop\n        /* \"#utility.yul\":5481:5598   */\n      pop\n        /* \"#utility.yul\":5637:5639   */\n      0x20\n        /* \"#utility.yul\":5663:5716   */\n      tag_451\n        /* \"#utility.yul\":5708:5715   */\n      dup7\n        /* \"#utility.yul\":5699:5705   */\n      dup3\n        /* \"#utility.yul\":5688:5697   */\n      dup8\n        /* \"#utility.yul\":5684:5706   */\n      add\n        /* \"#utility.yul\":5663:5716   */\n      tag_332\n      jump\t// in\n    tag_451:\n        /* \"#utility.yul\":5653:5716   */\n      swap3\n      pop\n        /* \"#utility.yul\":5608:5726   */\n      pop\n        /* \"#utility.yul\":5765:5767   */\n      0x40\n        /* \"#utility.yul\":5791:5844   */\n      tag_452\n        /* \"#utility.yul\":5836:5843   */\n      dup7\n        /* \"#utility.yul\":5827:5833   */\n      dup3\n        /* \"#utility.yul\":5816:5825   */\n      dup8\n        /* \"#utility.yul\":5812:5834   */\n      add\n        /* \"#utility.yul\":5791:5844   */\n      tag_327\n      jump\t// in\n    tag_452:\n        /* \"#utility.yul\":5781:5844   */\n      swap2\n      pop\n        /* \"#utility.yul\":5736:5854   */\n      pop\n        /* \"#utility.yul\":5242:5861   */\n      swap3\n      pop\n      swap3\n      pop\n      swap3\n      jump\t// out\n        /* \"#utility.yul\":5867:6196   */\n    tag_68:\n        /* \"#utility.yul\":5926:5932   */\n      0x00\n        /* \"#utility.yul\":5975:5977   */\n      0x20\n        /* \"#utility.yul\":5963:5972   */\n      dup3\n        /* \"#utility.yul\":5954:5961   */\n      dup5\n        /* \"#utility.yul\":5950:5973   */\n      sub\n        /* \"#utility.yul\":5946:5978   */\n      slt\n        /* \"#utility.yul\":5943:6062   */\n      iszero\n      tag_454\n      jumpi\n        /* \"#utility.yul\":5981:6060   */\n      tag_455\n      tag_313\n      jump\t// in\n    tag_455:\n        /* \"#utility.yul\":5943:6062   */\n    tag_454:\n        /* \"#utility.yul\":6101:6102   */\n      0x00\n        /* \"#utility.yul\":6126:6179   */\n      tag_456\n        /* \"#utility.yul\":6171:6178   */\n      dup5\n        /* \"#utility.yul\":6162:6168   */\n      dup3\n        /* \"#utility.yul\":6151:6160   */\n      dup6\n        /* \"#utility.yul\":6147:6169   */\n      add\n        /* \"#utility.yul\":6126:6179   */\n      tag_332\n      jump\t// in\n    tag_456:\n        /* \"#utility.yul\":6116:6179   */\n      swap2\n      pop\n        /* \"#utility.yul\":6072:6189   */\n      pop\n        /* \"#utility.yul\":5867:6196   */\n      swap3\n      swap2\n      pop\n      pop\n      jump\t// out\n        /* \"#utility.yul\":6202:6318   */\n    tag_334:\n        /* \"#utility.yul\":6272:6293   */\n      tag_458\n        /* \"#utility.yul\":6287:6292   */\n      dup2\n        /* \"#utility.yul\":6272:6293   */\n      tag_318\n      jump\t// in\n    tag_458:\n        /* \"#utility.yul\":6265:6270   */\n      dup2\n        /* \"#utility.yul\":6262:6294   */\n      eq\n        /* \"#utility.yul\":6252:6312   */\n      tag_459\n      jumpi\n        /* \"#utility.yul\":6308:6309   */\n      0x00\n        /* \"#utility.yul\":6305:6306   */\n      dup1\n        /* \"#utility.yul\":6298:6310   */\n      revert\n        /* \"#utility.yul\":6252:6312   */\n    tag_459:\n        /* \"#utility.yul\":6202:6318   */\n      pop\n      jump\t// out\n        /* \"#utility.yul\":6324:6457   */\n    tag_335:\n        /* \"#utility.yul\":6367:6372   */\n      0x00\n        /* \"#utility.yul\":6405:6411   */\n      dup2\n        /* \"#utility.yul\":6392:6412   */\n      calldataload\n        /* \"#utility.yul\":6383:6412   */\n      swap1\n      pop\n        /* \"#utility.yul\":6421:6451   */\n      tag_461\n        /* \"#utility.yul\":6445:6450   */\n      dup2\n        /* \"#utility.yul\":6421:6451   */\n      tag_334\n      jump\t// in\n    tag_461:\n        /* \"#utility.yul\":6324:6457   */\n      swap3\n      swap2\n      pop\n      pop\n      jump\t// out\n        /* \"#utility.yul\":6463:6931   */\n    tag_76:\n        /* \"#utility.yul\":6528:6534   */\n      0x00\n        /* \"#utility.yul\":6536:6542   */\n      dup1\n        /* \"#utility.yul\":6585:6587   */\n      0x40\n        /* \"#utility.yul\":6573:6582   */\n      dup4\n        /* \"#utility.yul\":6564:6571   */\n      dup6\n        /* \"#utility.yul\":6560:6583   */\n      sub\n        /* \"#utility.yul\":6556:6588   */\n      slt\n        /* \"#utility.yul\":6553:6672   */\n      iszero\n      tag_463\n      jumpi\n        /* \"#utility.yul\":6591:6670   */\n      tag_464\n      tag_313\n      jump\t// in\n    tag_464:\n        /* \"#utility.yul\":6553:6672   */\n    tag_463:\n        /* \"#utility.yul\":6711:6712   */\n      0x00\n        /* \"#utility.yul\":6736:6789   */\n      tag_465\n        /* \"#utility.yul\":6781:6788   */\n      dup6\n        /* \"#utility.yul\":6772:6778   */\n      dup3\n        /* \"#utility.yul\":6761:6770   */\n      dup7\n        /* \"#utility.yul\":6757:6779   */\n      add\n        /* \"#utility.yul\":6736:6789   */\n      tag_332\n      jump\t// in\n    tag_465:\n        /* \"#utility.yul\":6726:6789   */\n      swap3\n      pop\n        /* \"#utility.yul\":6682:6799   */\n      pop\n        /* \"#utility.yul\":6838:6840   */\n      0x20\n        /* \"#utility.yul\":6864:6914   */\n      tag_466\n        /* \"#utility.yul\":6906:6913   */\n      dup6\n        /* \"#utility.yul\":6897:6903   */\n      dup3\n        /* \"#utility.yul\":6886:6895   */\n      dup7\n        /* \"#utility.yul\":6882:6904   */\n      add\n        /* \"#utility.yul\":6864:6914   */\n      tag_335\n      jump\t// in\n    tag_466:\n        /* \"#utility.yul\":6854:6914   */\n      swap2\n      pop\n        /* \"#utility.yul\":6809:6924   */\n      pop\n        /* \"#utility.yul\":6463:6931   */\n      swap3\n      pop\n      swap3\n      swap1\n      pop\n      jump\t// out\n        /* \"#utility.yul\":6937:7054   */\n    tag_336:\n        /* \"#utility.yul\":7046:7047   */\n      0x00\n        /* \"#utility.yul\":7043:7044   */\n      dup1\n        /* \"#utility.yul\":7036:7048   */\n      revert\n        /* \"#utility.yul\":7060:7177   */\n    tag_337:\n        /* \"#utility.yul\":7169:7170   */\n      0x00\n        /* \"#utility.yul\":7166:7167   */\n      dup1\n        /* \"#utility.yul\":7159:7171   */\n      revert\n        /* \"#utility.yul\":7183:7363   */\n    tag_281:\n        /* \"#utility.yul\":7231:7308   */\n      0x4e487b7100000000000000000000000000000000000000000000000000000000\n        /* \"#utility.yul\":7228:7229   */\n      0x00\n        /* \"#utility.yul\":7221:7309   */\n      mstore\n        /* \"#utility.yul\":7328:7332   */\n      0x41\n        /* \"#utility.yul\":7325:7326   */\n      0x04\n        /* \"#utility.yul\":7318:7333   */\n      mstore\n        /* \"#utility.yul\":7352:7356   */\n      0x24\n        /* \"#utility.yul\":7349:7350   */\n      0x00\n        /* \"#utility.yul\":7342:7357   */\n      revert\n        /* \"#utility.yul\":7369:7650   */\n    tag_338:\n        /* \"#utility.yul\":7452:7479   */\n      tag_471\n        /* \"#utility.yul\":7474:7478   */\n      dup3\n        /* \"#utility.yul\":7452:7479   */\n      tag_323\n      jump\t// in\n    tag_471:\n        /* \"#utility.yul\":7444:7450   */\n      dup2\n        /* \"#utility.yul\":7440:7480   */\n      add\n        /* \"#utility.yul\":7582:7588   */\n      dup2\n        /* \"#utility.yul\":7570:7580   */\n      dup2\n        /* \"#utility.yul\":7567:7589   */\n      lt\n        /* \"#utility.yul\":7546:7564   */\n      0xffffffffffffffff\n        /* \"#utility.yul\":7534:7544   */\n      dup3\n        /* \"#utility.yul\":7531:7565   */\n      gt\n        /* \"#utility.yul\":7528:7590   */\n      or\n        /* \"#utility.yul\":7525:7613   */\n      iszero\n      tag_472\n      jumpi\n        /* \"#utility.yul\":7593:7611   */\n      tag_473\n      tag_281\n      jump\t// in\n    tag_473:\n        /* \"#utility.yul\":7525:7613   */\n    tag_472:\n        /* \"#utility.yul\":7633:7643   */\n      dup1\n        /* \"#utility.yul\":7629:7631   */\n      0x40\n        /* \"#utility.yul\":7622:7644   */\n      mstore\n        /* \"#utility.yul\":7412:7650   */\n      pop\n        /* \"#utility.yul\":7369:7650   */\n      pop\n      pop\n      jump\t// out\n        /* \"#utility.yul\":7656:7785   */\n    tag_339:\n        /* \"#utility.yul\":7690:7696   */\n      0x00\n        /* \"#utility.yul\":7717:7737   */\n      tag_475\n      tag_312\n      jump\t// in\n    tag_475:\n        /* \"#utility.yul\":7707:7737   */\n      swap1\n      pop\n        /* \"#utility.yul\":7746:7779   */\n      tag_476\n        /* \"#utility.yul\":7774:7778   */\n      dup3\n        /* \"#utility.yul\":7766:7772   */\n      dup3\n        /* \"#utility.yul\":7746:7779   */\n      tag_338\n      jump\t// in\n    tag_476:\n        /* \"#utility.yul\":7656:7785   */\n      swap2\n      swap1\n      pop\n      jump\t// out\n        /* \"#utility.yul\":7791:8098   */\n    tag_340:\n        /* \"#utility.yul\":7852:7856   */\n      0x00\n        /* \"#utility.yul\":7942:7960   */\n      0xffffffffffffffff\n        /* \"#utility.yul\":7934:7940   */\n      dup3\n        /* \"#utility.yul\":7931:7961   */\n      gt\n        /* \"#utility.yul\":7928:7984   */\n      iszero\n      tag_478\n      jumpi\n        /* \"#utility.yul\":7964:7982   */\n      tag_479\n      tag_281\n      jump\t// in\n    tag_479:\n        /* \"#utility.yul\":7928:7984   */\n    tag_478:\n        /* \"#utility.yul\":8002:8031   */\n      tag_480\n        /* \"#utility.yul\":8024:8030   */\n      dup3\n        /* \"#utility.yul\":8002:8031   */\n      tag_323\n      jump\t// in\n    tag_480:\n        /* \"#utility.yul\":7994:8031   */\n      swap1\n      pop\n        /* \"#utility.yul\":8086:8090   */\n      0x20\n        /* \"#utility.yul\":8080:8084   */\n      dup2\n        /* \"#utility.yul\":8076:8091   */\n      add\n        /* \"#utility.yul\":8068:8091   */\n      swap1\n      pop\n        /* \"#utility.yul\":7791:8098   */\n      swap2\n      swap1\n      pop\n      jump\t// out\n        /* \"#utility.yul\":8104:8250   */\n    tag_341:\n        /* \"#utility.yul\":8201:8207   */\n      dup3\n        /* \"#utility.yul\":8196:8199   */\n      dup2\n        /* \"#utility.yul\":8191:8194   */\n      dup4\n        /* \"#utility.yul\":8178:8208   */\n      calldatacopy\n        /* \"#utility.yul\":8242:8243   */\n      0x00\n        /* \"#utility.yul\":8233:8239   */\n      dup4\n        /* \"#utility.yul\":8228:8231   */\n      dup4\n        /* \"#utility.yul\":8224:8240   */\n      add\n        /* \"#utility.yul\":8217:8244   */\n      mstore\n        /* \"#utility.yul\":8104:8250   */\n      pop\n      pop\n      pop\n      jump\t// out\n        /* \"#utility.yul\":8256:8679   */\n    tag_342:\n        /* \"#utility.yul\":8333:8338   */\n      0x00\n        /* \"#utility.yul\":8358:8423   */\n      tag_483\n        /* \"#utility.yul\":8374:8422   */\n      tag_484\n        /* \"#utility.yul\":8415:8421   */\n      dup5\n        /* \"#utility.yul\":8374:8422   */\n      tag_340\n      jump\t// in\n    tag_484:\n        /* \"#utility.yul\":8358:8423   */\n      tag_339\n      jump\t// in\n    tag_483:\n        /* \"#utility.yul\":8349:8423   */\n      swap1\n      pop\n        /* \"#utility.yul\":8446:8452   */\n      dup3\n        /* \"#utility.yul\":8439:8444   */\n      dup2\n        /* \"#utility.yul\":8432:8453   */\n      mstore\n        /* \"#utility.yul\":8484:8488   */\n      0x20\n        /* \"#utility.yul\":8477:8482   */\n      dup2\n        /* \"#utility.yul\":8473:8489   */\n      add\n        /* \"#utility.yul\":8522:8525   */\n      dup5\n        /* \"#utility.yul\":8513:8519   */\n      dup5\n        /* \"#utility.yul\":8508:8511   */\n      dup5\n        /* \"#utility.yul\":8504:8520   */\n      add\n        /* \"#utility.yul\":8501:8526   */\n      gt\n        /* \"#utility.yul\":8498:8610   */\n      iszero\n      tag_485\n      jumpi\n        /* \"#utility.yul\":8529:8608   */\n      tag_486\n      tag_337\n      jump\t// in\n    tag_486:\n        /* \"#utility.yul\":8498:8610   */\n    tag_485:\n        /* \"#utility.yul\":8619:8673   */\n      tag_487\n        /* \"#utility.yul\":8666:8672   */\n      dup5\n        /* \"#utility.yul\":8661:8664   */\n      dup3\n        /* \"#utility.yul\":8656:8659   */\n      dup6\n        /* \"#utility.yul\":8619:8673   */\n      tag_341\n      jump\t// in\n    tag_487:\n        /* \"#utility.yul\":8339:8679   */\n      pop\n        /* \"#utility.yul\":8256:8679   */\n      swap4\n      swap3\n      pop\n      pop\n      pop\n      jump\t// out\n        /* \"#utility.yul\":8698:9036   */\n    tag_343:\n        /* \"#utility.yul\":8753:8758   */\n      0x00\n        /* \"#utility.yul\":8802:8805   */\n      dup3\n        /* \"#utility.yul\":8795:8799   */\n      0x1f\n        /* \"#utility.yul\":8787:8793   */\n      dup4\n        /* \"#utility.yul\":8783:8800   */\n      add\n        /* \"#utility.yul\":8779:8806   */\n      slt\n        /* \"#utility.yul\":8769:8891   */\n      tag_489\n      jumpi\n        /* \"#utility.yul\":8810:8889   */\n      tag_490\n      tag_336\n      jump\t// in\n    tag_490:\n        /* \"#utility.yul\":8769:8891   */\n    tag_489:\n        /* \"#utility.yul\":8927:8933   */\n      dup2\n        /* \"#utility.yul\":8914:8934   */\n      calldataload\n        /* \"#utility.yul\":8952:9030   */\n      tag_491\n        /* \"#utility.yul\":9026:9029   */\n      dup5\n        /* \"#utility.yul\":9018:9024   */\n      dup3\n        /* \"#utility.yul\":9011:9015   */\n      0x20\n        /* \"#utility.yul\":9003:9009   */\n      dup7\n        /* \"#utility.yul\":8999:9016   */\n      add\n        /* \"#utility.yul\":8952:9030   */\n      tag_342\n      jump\t// in\n    tag_491:\n        /* \"#utility.yul\":8943:9030   */\n      swap2\n      pop\n        /* \"#utility.yul\":8759:9036   */\n      pop\n        /* \"#utility.yul\":8698:9036   */\n      swap3\n      swap2\n      pop\n      pop\n      jump\t// out\n        /* \"#utility.yul\":9042:9985   */\n    tag_80:\n        /* \"#utility.yul\":9137:9143   */\n      0x00\n        /* \"#utility.yul\":9145:9151   */\n      dup1\n        /* \"#utility.yul\":9153:9159   */\n      0x00\n        /* \"#utility.yul\":9161:9167   */\n      dup1\n        /* \"#utility.yul\":9210:9213   */\n      0x80\n        /* \"#utility.yul\":9198:9207   */\n      dup6\n        /* \"#utility.yul\":9189:9196   */\n      dup8\n        /* \"#utility.yul\":9185:9208   */\n      sub\n        /* \"#utility.yul\":9181:9214   */\n      slt\n        /* \"#utility.yul\":9178:9298   */\n      iszero\n      tag_493\n      jumpi\n        /* \"#utility.yul\":9217:9296   */\n      tag_494\n      tag_313\n      jump\t// in\n    tag_494:\n        /* \"#utility.yul\":9178:9298   */\n    tag_493:\n        /* \"#utility.yul\":9337:9338   */\n      0x00\n        /* \"#utility.yul\":9362:9415   */\n      tag_495\n        /* \"#utility.yul\":9407:9414   */\n      dup8\n        /* \"#utility.yul\":9398:9404   */\n      dup3\n        /* \"#utility.yul\":9387:9396   */\n      dup9\n        /* \"#utility.yul\":9383:9405   */\n      add\n        /* \"#utility.yul\":9362:9415   */\n      tag_332\n      jump\t// in\n    tag_495:\n        /* \"#utility.yul\":9352:9415   */\n      swap5\n      pop\n        /* \"#utility.yul\":9308:9425   */\n      pop\n        /* \"#utility.yul\":9464:9466   */\n      0x20\n        /* \"#utility.yul\":9490:9543   */\n      tag_496\n        /* \"#utility.yul\":9535:9542   */\n      dup8\n        /* \"#utility.yul\":9526:9532   */\n      dup3\n        /* \"#utility.yul\":9515:9524   */\n      dup9\n        /* \"#utility.yul\":9511:9533   */\n      add\n        /* \"#utility.yul\":9490:9543   */\n      tag_332\n      jump\t// in\n    tag_496:\n        /* \"#utility.yul\":9480:9543   */\n      swap4\n      pop\n        /* \"#utility.yul\":9435:9553   */\n      pop\n        /* \"#utility.yul\":9592:9594   */\n      0x40\n        /* \"#utility.yul\":9618:9671   */\n      tag_497\n        /* \"#utility.yul\":9663:9670   */\n      dup8\n        /* \"#utility.yul\":9654:9660   */\n      dup3\n        /* \"#utility.yul\":9643:9652   */\n      dup9\n        /* \"#utility.yul\":9639:9661   */\n      add\n        /* \"#utility.yul\":9618:9671   */\n      tag_327\n      jump\t// in\n    tag_497:\n        /* \"#utility.yul\":9608:9671   */\n      swap3\n      pop\n        /* \"#utility.yul\":9563:9681   */\n      pop\n        /* \"#utility.yul\":9748:9750   */\n      0x60\n        /* \"#utility.yul\":9737:9746   */\n      dup6\n        /* \"#utility.yul\":9733:9751   */\n      add\n        /* \"#utility.yul\":9720:9752   */\n      calldataload\n        /* \"#utility.yul\":9779:9797   */\n      0xffffffffffffffff\n        /* \"#utility.yul\":9771:9777   */\n      dup2\n        /* \"#utility.yul\":9768:9798   */\n      gt\n        /* \"#utility.yul\":9765:9882   */\n      iszero\n      tag_498\n      jumpi\n        /* \"#utility.yul\":9801:9880   */\n      tag_499\n      tag_314\n      jump\t// in\n    tag_499:\n        /* \"#utility.yul\":9765:9882   */\n    tag_498:\n        /* \"#utility.yul\":9906:9968   */\n      tag_500\n        /* \"#utility.yul\":9960:9967   */\n      dup8\n        /* \"#utility.yul\":9951:9957   */\n      dup3\n        /* \"#utility.yul\":9940:9949   */\n      dup9\n        /* \"#utility.yul\":9936:9958   */\n      add\n        /* \"#utility.yul\":9906:9968   */\n      tag_343\n      jump\t// in\n    tag_500:\n        /* \"#utility.yul\":9896:9968   */\n      swap2\n      pop\n        /* \"#utility.yul\":9691:9978   */\n      pop\n        /* \"#utility.yul\":9042:9985   */\n      swap3\n      swap6\n      swap2\n      swap5\n      pop\n      swap3\n      pop\n      jump\t// out\n        /* \"#utility.yul\":9991:10465   */\n    tag_91:\n        /* \"#utility.yul\":10059:10065   */\n      0x00\n        /* \"#utility.yul\":10067:10073   */\n      dup1\n        /* \"#utility.yul\":10116:10118   */\n      0x40\n        /* \"#utility.yul\":10104:10113   */\n      dup4\n        /* \"#utility.yul\":10095:10102   */\n      dup6\n        /* \"#utility.yul\":10091:10114   */\n      sub\n        /* \"#utility.yul\":10087:10119   */\n      slt\n        /* \"#utility.yul\":10084:10203   */\n      iszero\n      tag_502\n      jumpi\n        /* \"#utility.yul\":10122:10201   */\n      tag_503\n      tag_313\n      jump\t// in\n    tag_503:\n        /* \"#utility.yul\":10084:10203   */\n    tag_502:\n        /* \"#utility.yul\":10242:10243   */\n      0x00\n        /* \"#utility.yul\":10267:10320   */\n      tag_504\n        /* \"#utility.yul\":10312:10319   */\n      dup6\n        /* \"#utility.yul\":10303:10309   */\n      dup3\n        /* \"#utility.yul\":10292:10301   */\n      dup7\n        /* \"#utility.yul\":10288:10310   */\n      add\n        /* \"#utility.yul\":10267:10320   */\n      tag_332\n      jump\t// in\n    tag_504:\n        /* \"#utility.yul\":10257:10320   */\n      swap3\n      pop\n        /* \"#utility.yul\":10213:10330   */\n      pop\n        /* \"#utility.yul\":10369:10371   */\n      0x20\n        /* \"#utility.yul\":10395:10448   */\n      tag_505\n        /* \"#utility.yul\":10440:10447   */\n      dup6\n        /* \"#utility.yul\":10431:10437   */\n      dup3\n        /* \"#utility.yul\":10420:10429   */\n      dup7\n        /* \"#utility.yul\":10416:10438   */\n      add\n        /* \"#utility.yul\":10395:10448   */\n      tag_332\n      jump\t// in\n    tag_505:\n        /* \"#utility.yul\":10385:10448   */\n      swap2\n      pop\n        /* \"#utility.yul\":10340:10458   */\n      pop\n        /* \"#utility.yul\":9991:10465   */\n      swap3\n      pop\n      swap3\n      swap1\n      pop\n      jump\t// out\n        /* \"#utility.yul\":10471:10651   */\n    tag_344:\n        /* \"#utility.yul\":10519:10596   */\n      0x4e487b7100000000000000000000000000000000000000000000000000000000\n        /* \"#utility.yul\":10516:10517   */\n      0x00\n        /* \"#utility.yul\":10509:10597   */\n      mstore\n        /* \"#utility.yul\":10616:10620   */\n      0x22\n        /* \"#utility.yul\":10613:10614   */\n      0x04\n        /* \"#utility.yul\":10606:10621   */\n      mstore\n        /* \"#utility.yul\":10640:10644   */\n      0x24\n        /* \"#utility.yul\":10637:10638   */\n      0x00\n        /* \"#utility.yul\":10630:10645   */\n      revert\n        /* \"#utility.yul\":10657:10977   */\n    tag_102:\n        /* \"#utility.yul\":10701:10707   */\n      0x00\n        /* \"#utility.yul\":10738:10739   */\n      0x02\n        /* \"#utility.yul\":10732:10736   */\n      dup3\n        /* \"#utility.yul\":10728:10740   */\n      div\n        /* \"#utility.yul\":10718:10740   */\n      swap1\n      pop\n        /* \"#utility.yul\":10785:10786   */\n      0x01\n        /* \"#utility.yul\":10779:10783   */\n      dup3\n        /* \"#utility.yul\":10775:10787   */\n      and\n        /* \"#utility.yul\":10806:10824   */\n      dup1\n        /* \"#utility.yul\":10796:10877   */\n      tag_508\n      jumpi\n        /* \"#utility.yul\":10862:10866   */\n      0x7f\n        /* \"#utility.yul\":10854:10860   */\n      dup3\n        /* \"#utility.yul\":10850:10867   */\n      and\n        /* \"#utility.yul\":10840:10867   */\n      swap2\n      pop\n        /* \"#utility.yul\":10796:10877   */\n    tag_508:\n        /* \"#utility.yul\":10924:10926   */\n      0x20\n        /* \"#utility.yul\":10916:10922   */\n      dup3\n        /* \"#utility.yul\":10913:10927   */\n      lt\n        /* \"#utility.yul\":10893:10911   */\n      dup2\n        /* \"#utility.yul\":10890:10928   */\n      sub\n        /* \"#utility.yul\":10887:10971   */\n      tag_509\n      jumpi\n        /* \"#utility.yul\":10943:10961   */\n      tag_510\n      tag_344\n      jump\t// in\n    tag_510:\n        /* \"#utility.yul\":10887:10971   */\n    tag_509:\n        /* \"#utility.yul\":10708:10977   */\n      pop\n        /* \"#utility.yul\":10657:10977   */\n      swap2\n      swap1\n      pop\n      jump\t// out\n        /* \"#utility.yul\":10983:11215   */\n    tag_345:\n        /* \"#utility.yul\":11123:11157   */\n      0x455243373231413a20617070726f76656420717565727920666f72206e6f6e65\n        /* \"#utility.yul\":11119:11120   */\n      0x00\n        /* \"#utility.yul\":11111:11117   */\n      dup3\n        /* \"#utility.yul\":11107:11121   */\n      add\n        /* \"#utility.yul\":11100:11158   */\n      mstore\n        /* \"#utility.yul\":11192:11207   */\n      0x78697374656e7420746f6b656e00000000000000000000000000000000000000\n        /* \"#utility.yul\":11187:11189   */\n      0x20\n        /* \"#utility.yul\":11179:11185   */\n      dup3\n        /* \"#utility.yul\":11175:11190   */\n      add\n        /* \"#utility.yul\":11168:11208   */\n      mstore\n        /* \"#utility.yul\":10983:11215   */\n      pop\n      jump\t// out\n        /* \"#utility.yul\":11221:11587   */\n    tag_346:\n        /* \"#utility.yul\":11363:11366   */\n      0x00\n        /* \"#utility.yul\":11384:11451   */\n      tag_513\n        /* \"#utility.yul\":11448:11450   */\n      0x2d\n        /* \"#utility.yul\":11443:11446   */\n      dup4\n        /* \"#utility.yul\":11384:11451   */\n      tag_321\n      jump\t// in\n    tag_513:\n        /* \"#utility.yul\":11377:11451   */\n      swap2\n      pop\n        /* \"#utility.yul\":11460:11553   */\n      tag_514\n        /* \"#utility.yul\":11549:11552   */\n      dup3\n        /* \"#utility.yul\":11460:11553   */\n      tag_345\n      jump\t// in\n    tag_514:\n        /* \"#utility.yul\":11578:11580   */\n      0x40\n        /* \"#utility.yul\":11573:11576   */\n      dup3\n        /* \"#utility.yul\":11569:11581   */\n      add\n        /* \"#utility.yul\":11562:11581   */\n      swap1\n      pop\n        /* \"#utility.yul\":11221:11587   */\n      swap2\n      swap1\n      pop\n      jump\t// out\n        /* \"#utility.yul\":11593:12012   */\n    tag_112:\n        /* \"#utility.yul\":11759:11763   */\n      0x00\n        /* \"#utility.yul\":11797:11799   */\n      0x20\n        /* \"#utility.yul\":11786:11795   */\n      dup3\n        /* \"#utility.yul\":11782:11800   */\n      add\n        /* \"#utility.yul\":11774:11800   */\n      swap1\n      pop\n        /* \"#utility.yul\":11846:11855   */\n      dup2\n        /* \"#utility.yul\":11840:11844   */\n      dup2\n        /* \"#utility.yul\":11836:11856   */\n      sub\n        /* \"#utility.yul\":11832:11833   */\n      0x00\n        /* \"#utility.yul\":11821:11830   */\n      dup4\n        /* \"#utility.yul\":11817:11834   */\n      add\n        /* \"#utility.yul\":11810:11857   */\n      mstore\n        /* \"#utility.yul\":11874:12005   */\n      tag_516\n        /* \"#utility.yul\":12000:12004   */\n      dup2\n        /* \"#utility.yul\":11874:12005   */\n      tag_346\n      jump\t// in\n    tag_516:\n        /* \"#utility.yul\":11866:12005   */\n      swap1\n      pop\n        /* \"#utility.yul\":11593:12012   */\n      swap2\n      swap1\n      pop\n      jump\t// out\n        /* \"#utility.yul\":12018:12239   */\n    tag_347:\n        /* \"#utility.yul\":12158:12192   */\n      0x455243373231413a20617070726f76616c20746f2063757272656e74206f776e\n        /* \"#utility.yul\":12154:12155   */\n      0x00\n        /* \"#utility.yul\":12146:12152   */\n      dup3\n        /* \"#utility.yul\":12142:12156   */\n      add\n        /* \"#utility.yul\":12135:12193   */\n      mstore\n        /* \"#utility.yul\":12227:12231   */\n      0x6572000000000000000000000000000000000000000000000000000000000000\n        /* \"#utility.yul\":12222:12224   */\n      0x20\n        /* \"#utility.yul\":12214:12220   */\n      dup3\n        /* \"#utility.yul\":12210:12225   */\n      add\n        /* \"#utility.yul\":12203:12232   */\n      mstore\n        /* \"#utility.yul\":12018:12239   */\n      pop\n      jump\t// out\n        /* \"#utility.yul\":12245:12611   */\n    tag_348:\n        /* \"#utility.yul\":12387:12390   */\n      0x00\n        /* \"#utility.yul\":12408:12475   */\n      tag_519\n        /* \"#utility.yul\":12472:12474   */\n      0x22\n        /* \"#utility.yul\":12467:12470   */\n      dup4\n        /* \"#utility.yul\":12408:12475   */\n      tag_321\n      jump\t// in\n    tag_519:\n        /* \"#utility.yul\":12401:12475   */\n      swap2\n      pop\n        /* \"#utility.yul\":12484:12577   */\n      tag_520\n        /* \"#utility.yul\":12573:12576   */\n      dup3\n        /* \"#utility.yul\":12484:12577   */\n      tag_347\n      jump\t// in\n    tag_520:\n        /* \"#utility.yul\":12602:12604   */\n      0x40\n        /* \"#utility.yul\":12597:12600   */\n      dup3\n        /* \"#utility.yul\":12593:12605   */\n      add\n        /* \"#utility.yul\":12586:12605   */\n      swap1\n      pop\n        /* \"#utility.yul\":12245:12611   */\n      swap2\n      swap1\n      pop\n      jump\t// out\n        /* \"#utility.yul\":12617:13036   */\n    tag_117:\n        /* \"#utility.yul\":12783:12787   */\n      0x00\n        /* \"#utility.yul\":12821:12823   */\n      0x20\n        /* \"#utility.yul\":12810:12819   */\n      dup3\n        /* \"#utility.yul\":12806:12824   */\n      add\n        /* \"#utility.yul\":12798:12824   */\n      swap1\n      pop\n        /* \"#utility.yul\":12870:12879   */\n      dup2\n        /* \"#utility.yul\":12864:12868   */\n      dup2\n        /* \"#utility.yul\":12860:12880   */\n      sub\n        /* \"#utility.yul\":12856:12857   */\n      0x00\n        /* \"#utility.yul\":12845:12854   */\n      dup4\n        /* \"#utility.yul\":12841:12858   */\n      add\n        /* \"#utility.yul\":12834:12881   */\n      mstore\n        /* \"#utility.yul\":12898:13029   */\n      tag_522\n        /* \"#utility.yul\":13024:13028   */\n      dup2\n        /* \"#utility.yul\":12898:13029   */\n      tag_348\n      jump\t// in\n    tag_522:\n        /* \"#utility.yul\":12890:13029   */\n      swap1\n      pop\n        /* \"#utility.yul\":12617:13036   */\n      swap2\n      swap1\n      pop\n      jump\t// out\n        /* \"#utility.yul\":13042:13286   */\n    tag_349:\n        /* \"#utility.yul\":13182:13216   */\n      0x455243373231413a20617070726f76652063616c6c6572206973206e6f74206f\n        /* \"#utility.yul\":13178:13179   */\n      0x00\n        /* \"#utility.yul\":13170:13176   */\n      dup3\n        /* \"#utility.yul\":13166:13180   */\n      add\n        /* \"#utility.yul\":13159:13217   */\n      mstore\n        /* \"#utility.yul\":13251:13278   */\n      0x776e6572206e6f7220617070726f76656420666f7220616c6c00000000000000\n        /* \"#utility.yul\":13246:13248   */\n      0x20\n        /* \"#utility.yul\":13238:13244   */\n      dup3\n        /* \"#utility.yul\":13234:13249   */\n      add\n        /* \"#utility.yul\":13227:13279   */\n      mstore\n        /* \"#utility.yul\":13042:13286   */\n      pop\n      jump\t// out\n        /* \"#utility.yul\":13292:13658   */\n    tag_350:\n        /* \"#utility.yul\":13434:13437   */\n      0x00\n        /* \"#utility.yul\":13455:13522   */\n      tag_525\n        /* \"#utility.yul\":13519:13521   */\n      0x39\n        /* \"#utility.yul\":13514:13517   */\n      dup4\n        /* \"#utility.yul\":13455:13522   */\n      tag_321\n      jump\t// in\n    tag_525:\n        /* \"#utility.yul\":13448:13522   */\n      swap2\n      pop\n        /* \"#utility.yul\":13531:13624   */\n      tag_526\n        /* \"#utility.yul\":13620:13623   */\n      dup3\n        /* \"#utility.yul\":13531:13624   */\n      tag_349\n      jump\t// in\n    tag_526:\n        /* \"#utility.yul\":13649:13651   */\n      0x40\n        /* \"#utility.yul\":13644:13647   */\n      dup3\n        /* \"#utility.yul\":13640:13652   */\n      add\n        /* \"#utility.yul\":13633:13652   */\n      swap1\n      pop\n        /* \"#utility.yul\":13292:13658   */\n      swap2\n      swap1\n      pop\n      jump\t// out\n        /* \"#utility.yul\":13664:14083   */\n    tag_125:\n        /* \"#utility.yul\":13830:13834   */\n      0x00\n        /* \"#utility.yul\":13868:13870   */\n      0x20\n        /* \"#utility.yul\":13857:13866   */\n      dup3\n        /* \"#utility.yul\":13853:13871   */\n      add\n        /* \"#utility.yul\":13845:13871   */\n      swap1\n      pop\n        /* \"#utility.yul\":13917:13926   */\n      dup2\n        /* \"#utility.yul\":13911:13915   */\n      dup2\n        /* \"#utility.yul\":13907:13927   */\n      sub\n        /* \"#utility.yul\":13903:13904   */\n      0x00\n        /* \"#utility.yul\":13892:13901   */\n      dup4\n        /* \"#utility.yul\":13888:13905   */\n      add\n        /* \"#utility.yul\":13881:13928   */\n      mstore\n        /* \"#utility.yul\":13945:14076   */\n      tag_528\n        /* \"#utility.yul\":14071:14075   */\n      dup2\n        /* \"#utility.yul\":13945:14076   */\n      tag_350\n      jump\t// in\n    tag_528:\n        /* \"#utility.yul\":13937:14076   */\n      swap1\n      pop\n        /* \"#utility.yul\":13664:14083   */\n      swap2\n      swap1\n      pop\n      jump\t// out\n        /* \"#utility.yul\":14089:14269   */\n    tag_351:\n        /* \"#utility.yul\":14137:14214   */\n      0x4e487b7100000000000000000000000000000000000000000000000000000000\n        /* \"#utility.yul\":14134:14135   */\n      0x00\n        /* \"#utility.yul\":14127:14215   */\n      mstore\n        /* \"#utility.yul\":14234:14238   */\n      0x11\n        /* \"#utility.yul\":14231:14232   */\n      0x04\n        /* \"#utility.yul\":14224:14239   */\n      mstore\n        /* \"#utility.yul\":14258:14262   */\n      0x24\n        /* \"#utility.yul\":14255:14256   */\n      0x00\n        /* \"#utility.yul\":14248:14263   */\n      revert\n        /* \"#utility.yul\":14275:14469   */\n    tag_130:\n        /* \"#utility.yul\":14315:14319   */\n      0x00\n        /* \"#utility.yul\":14335:14355   */\n      tag_531\n        /* \"#utility.yul\":14353:14354   */\n      dup3\n        /* \"#utility.yul\":14335:14355   */\n      tag_325\n      jump\t// in\n    tag_531:\n        /* \"#utility.yul\":14330:14355   */\n      swap2\n      pop\n        /* \"#utility.yul\":14369:14389   */\n      tag_532\n        /* \"#utility.yul\":14387:14388   */\n      dup4\n        /* \"#utility.yul\":14369:14389   */\n      tag_325\n      jump\t// in\n    tag_532:\n        /* \"#utility.yul\":14364:14389   */\n      swap3\n      pop\n        /* \"#utility.yul\":14413:14414   */\n      dup3\n        /* \"#utility.yul\":14410:14411   */\n      dup3\n        /* \"#utility.yul\":14406:14415   */\n      sub\n        /* \"#utility.yul\":14398:14415   */\n      swap1\n      pop\n        /* \"#utility.yul\":14437:14438   */\n      dup2\n        /* \"#utility.yul\":14431:14435   */\n      dup2\n        /* \"#utility.yul\":14428:14439   */\n      gt\n        /* \"#utility.yul\":14425:14462   */\n      iszero\n      tag_533\n      jumpi\n        /* \"#utility.yul\":14442:14460   */\n      tag_534\n      tag_351\n      jump\t// in\n    tag_534:\n        /* \"#utility.yul\":14425:14462   */\n    tag_533:\n        /* \"#utility.yul\":14275:14469   */\n      swap3\n      swap2\n      pop\n      pop\n      jump\t// out\n        /* \"#utility.yul\":14475:14696   */\n    tag_352:\n        /* \"#utility.yul\":14615:14649   */\n      0x455243373231413a206f776e657220696e646578206f7574206f6620626f756e\n        /* \"#utility.yul\":14611:14612   */\n      0x00\n        /* \"#utility.yul\":14603:14609   */\n      dup3\n        /* \"#utility.yul\":14599:14613   */\n      add\n        /* \"#utility.yul\":14592:14650   */\n      mstore\n        /* \"#utility.yul\":14684:14688   */\n      0x6473000000000000000000000000000000000000000000000000000000000000\n        /* \"#utility.yul\":14679:14681   */\n      0x20\n        /* \"#utility.yul\":14671:14677   */\n      dup3\n        /* \"#utility.yul\":14667:14682   */\n      add\n        /* \"#utility.yul\":14660:14689   */\n      mstore\n        /* \"#utility.yul\":14475:14696   */\n      pop\n      jump\t// out\n        /* \"#utility.yul\":14702:15068   */\n    tag_353:\n        /* \"#utility.yul\":14844:14847   */\n      0x00\n        /* \"#utility.yul\":14865:14932   */\n      tag_537\n        /* \"#utility.yul\":14929:14931   */\n      0x22\n        /* \"#utility.yul\":14924:14927   */\n      dup4\n        /* \"#utility.yul\":14865:14932   */\n      tag_321\n      jump\t// in\n    tag_537:\n        /* \"#utility.yul\":14858:14932   */\n      swap2\n      pop\n        /* \"#utility.yul\":14941:15034   */\n      tag_538\n        /* \"#utility.yul\":15030:15033   */\n      dup3\n        /* \"#utility.yul\":14941:15034   */\n      tag_352\n      jump\t// in\n    tag_538:\n        /* \"#utility.yul\":15059:15061   */\n      0x40\n        /* \"#utility.yul\":15054:15057   */\n      dup3\n        /* \"#utility.yul\":15050:15062   */\n      add\n        /* \"#utility.yul\":15043:15062   */\n      swap1\n      pop\n        /* \"#utility.yul\":14702:15068   */\n      swap2\n      swap1\n      pop\n      jump\t// out\n        /* \"#utility.yul\":15074:15493   */\n    tag_138:\n        /* \"#utility.yul\":15240:15244   */\n      0x00\n        /* \"#utility.yul\":15278:15280   */\n      0x20\n        /* \"#utility.yul\":15267:15276   */\n      dup3\n        /* \"#utility.yul\":15263:15281   */\n      add\n        /* \"#utility.yul\":15255:15281   */\n      swap1\n      pop\n        /* \"#utility.yul\":15327:15336   */\n      dup2\n        /* \"#utility.yul\":15321:15325   */\n      dup2\n        /* \"#utility.yul\":15317:15337   */\n      sub\n        /* \"#utility.yul\":15313:15314   */\n      0x00\n        /* \"#utility.yul\":15302:15311   */\n      dup4\n        /* \"#utility.yul\":15298:15315   */\n      add\n        /* \"#utility.yul\":15291:15338   */\n      mstore\n        /* \"#utility.yul\":15355:15486   */\n      tag_540\n        /* \"#utility.yul\":15481:15485   */\n      dup2\n        /* \"#utility.yul\":15355:15486   */\n      tag_353\n      jump\t// in\n    tag_540:\n        /* \"#utility.yul\":15347:15486   */\n      swap1\n      pop\n        /* \"#utility.yul\":15074:15493   */\n      swap2\n      swap1\n      pop\n      jump\t// out\n        /* \"#utility.yul\":15499:15732   */\n    tag_147:\n        /* \"#utility.yul\":15538:15541   */\n      0x00\n        /* \"#utility.yul\":15561:15585   */\n      tag_542\n        /* \"#utility.yul\":15579:15584   */\n      dup3\n        /* \"#utility.yul\":15561:15585   */\n      tag_325\n      jump\t// in\n    tag_542:\n        /* \"#utility.yul\":15552:15585   */\n      swap2\n      pop\n        /* \"#utility.yul\":15607:15673   */\n      0xffffffffffffffffffffffffffffffffffffffffffffffffffffffffffffffff\n        /* \"#utility.yul\":15600:15605   */\n      dup3\n        /* \"#utility.yul\":15597:15674   */\n      sub\n        /* \"#utility.yul\":15594:15697   */\n      tag_543\n      jumpi\n        /* \"#utility.yul\":15677:15695   */\n      tag_544\n      tag_351\n      jump\t// in\n    tag_544:\n        /* \"#utility.yul\":15594:15697   */\n    tag_543:\n        /* \"#utility.yul\":15724:15725   */\n      0x01\n        /* \"#utility.yul\":15717:15722   */\n      dup3\n        /* \"#utility.yul\":15713:15726   */\n      add\n        /* \"#utility.yul\":15706:15726   */\n      swap1\n      pop\n        /* \"#utility.yul\":15499:15732   */\n      swap2\n      swap1\n      pop\n      jump\t// out\n        /* \"#utility.yul\":15738:15971   */\n    tag_354:\n        /* \"#utility.yul\":15878:15912   */\n      0x455243373231413a20756e61626c6520746f2067657420746f6b656e206f6620\n        /* \"#utility.yul\":15874:15875   */\n      0x00\n        /* \"#utility.yul\":15866:15872   */\n      dup3\n        /* \"#utility.yul\":15862:15876   */\n      add\n        /* \"#utility.yul\":15855:15913   */\n      mstore\n        /* \"#utility.yul\":15947:15963   */\n      0x6f776e657220627920696e646578000000000000000000000000000000000000\n        /* \"#utility.yul\":15942:15944   */\n      0x20\n        /* \"#utility.yul\":15934:15940   */\n      dup3\n        /* \"#utility.yul\":15930:15945   */\n      add\n        /* \"#utility.yul\":15923:15964   */\n      mstore\n        /* \"#utility.yul\":15738:15971   */\n      pop\n      jump\t// out\n        /* \"#utility.yul\":15977:16343   */\n    tag_355:\n        /* \"#utility.yul\":16119:16122   */\n      0x00\n        /* \"#utility.yul\":16140:16207   */\n      tag_547\n        /* \"#utility.yul\":16204:16206   */\n      0x2e\n        /* \"#utility.yul\":16199:16202   */\n      dup4\n        /* \"#utility.yul\":16140:16207   */\n      tag_321\n      jump\t// in\n    tag_547:\n        /* \"#utility.yul\":16133:16207   */\n      swap2\n      pop\n        /* \"#utility.yul\":16216:16309   */\n      tag_548\n        /* \"#utility.yul\":16305:16308   */\n      dup3\n        /* \"#utility.yul\":16216:16309   */\n      tag_354\n      jump\t// in\n    tag_548:\n        /* \"#utility.yul\":16334:16336   */\n      0x40\n        /* \"#utility.yul\":16329:16332   */\n      dup3\n        /* \"#utility.yul\":16325:16337   */\n      add\n        /* \"#utility.yul\":16318:16337   */\n      swap1\n      pop\n        /* \"#utility.yul\":15977:16343   */\n      swap2\n      swap1\n      pop\n      jump\t// out\n        /* \"#utility.yul\":16349:16768   */\n    tag_150:\n        /* \"#utility.yul\":16515:16519   */\n      0x00\n        /* \"#utility.yul\":16553:16555   */\n      0x20\n        /* \"#utility.yul\":16542:16551   */\n      dup3\n        /* \"#utility.yul\":16538:16556   */\n      add\n        /* \"#utility.yul\":16530:16556   */\n      swap1\n      pop\n        /* \"#utility.yul\":16602:16611   */\n      dup2\n        /* \"#utility.yul\":16596:16600   */\n      dup2\n        /* \"#utility.yul\":16592:16612   */\n      sub\n        /* \"#utility.yul\":16588:16589   */\n      0x00\n        /* \"#utility.yul\":16577:16586   */\n      dup4\n        /* \"#utility.yul\":16573:16590   */\n      add\n        /* \"#utility.yul\":16566:16613   */\n      mstore\n        /* \"#utility.yul\":16630:16761   */\n      tag_550\n        /* \"#utility.yul\":16756:16760   */\n      dup2\n        /* \"#utility.yul\":16630:16761   */\n      tag_355\n      jump\t// in\n    tag_550:\n        /* \"#utility.yul\":16622:16761   */\n      swap1\n      pop\n        /* \"#utility.yul\":16349:16768   */\n      swap2\n      swap1\n      pop\n      jump\t// out\n        /* \"#utility.yul\":16774:16996   */\n    tag_356:\n        /* \"#utility.yul\":16914:16948   */\n      0x455243373231413a20676c6f62616c20696e646578206f7574206f6620626f75\n        /* \"#utility.yul\":16910:16911   */\n      0x00\n        /* \"#utility.yul\":16902:16908   */\n      dup3\n        /* \"#utility.yul\":16898:16912   */\n      add\n        /* \"#utility.yul\":16891:16949   */\n      mstore\n        /* \"#utility.yul\":16983:16988   */\n      0x6e64730000000000000000000000000000000000000000000000000000000000\n        /* \"#utility.yul\":16978:16980   */\n      0x20\n        /* \"#utility.yul\":16970:16976   */\n      dup3\n        /* \"#utility.yul\":16966:16981   */\n      add\n        /* \"#utility.yul\":16959:16989   */\n      mstore\n        /* \"#utility.yul\":16774:16996   */\n      pop\n      jump\t// out\n        /* \"#utility.yul\":17002:17368   */\n    tag_357:\n        /* \"#utility.yul\":17144:17147   */\n      0x00\n        /* \"#utility.yul\":17165:17232   */\n      tag_553\n        /* \"#utility.yul\":17229:17231   */\n      0x23\n        /* \"#utility.yul\":17224:17227   */\n      dup4\n        /* \"#utility.yul\":17165:17232   */\n      tag_321\n      jump\t// in\n    tag_553:\n        /* \"#utility.yul\":17158:17232   */\n      swap2\n      pop\n        /* \"#utility.yul\":17241:17334   */\n      tag_554\n        /* \"#utility.yul\":17330:17333   */\n      dup3\n        /* \"#utility.yul\":17241:17334   */\n      tag_356\n      jump\t// in\n    tag_554:\n        /* \"#utility.yul\":17359:17361   */\n      0x40\n        /* \"#utility.yul\":17354:17357   */\n      dup3\n        /* \"#utility.yul\":17350:17362   */\n      add\n        /* \"#utility.yul\":17343:17362   */\n      swap1\n      pop\n        /* \"#utility.yul\":17002:17368   */\n      swap2\n      swap1\n      pop\n      jump\t// out\n        /* \"#utility.yul\":17374:17793   */\n    tag_157:\n        /* \"#utility.yul\":17540:17544   */\n      0x00\n        /* \"#utility.yul\":17578:17580   */\n      0x20\n        /* \"#utility.yul\":17567:17576   */\n      dup3\n        /* \"#utility.yul\":17563:17581   */\n      add\n        /* \"#utility.yul\":17555:17581   */\n      swap1\n      pop\n        /* \"#utility.yul\":17627:17636   */\n      dup2\n        /* \"#utility.yul\":17621:17625   */\n      dup2\n        /* \"#utility.yul\":17617:17637   */\n      sub\n        /* \"#utility.yul\":17613:17614   */\n      0x00\n        /* \"#utility.yul\":17602:17611   */\n      dup4\n        /* \"#utility.yul\":17598:17615   */\n      add\n        /* \"#utility.yul\":17591:17638   */\n      mstore\n        /* \"#utility.yul\":17655:17786   */\n      tag_556\n        /* \"#utility.yul\":17781:17785   */\n      dup2\n        /* \"#utility.yul\":17655:17786   */\n      tag_357\n      jump\t// in\n    tag_556:\n        /* \"#utility.yul\":17647:17786   */\n      swap1\n      pop\n        /* \"#utility.yul\":17374:17793   */\n      swap2\n      swap1\n      pop\n      jump\t// out\n        /* \"#utility.yul\":17799:18029   */\n    tag_358:\n        /* \"#utility.yul\":17939:17973   */\n      0x455243373231413a2062616c616e636520717565727920666f7220746865207a\n        /* \"#utility.yul\":17935:17936   */\n      0x00\n        /* \"#utility.yul\":17927:17933   */\n      dup3\n        /* \"#utility.yul\":17923:17937   */\n      add\n        /* \"#utility.yul\":17916:17974   */\n      mstore\n        /* \"#utility.yul\":18008:18021   */\n      0x65726f2061646472657373000000000000000000000000000000000000000000\n        /* \"#utility.yul\":18003:18005   */\n      0x20\n        /* \"#utility.yul\":17995:18001   */\n      dup3\n        /* \"#utility.yul\":17991:18006   */\n      add\n        /* \"#utility.yul\":17984:18022   */\n      mstore\n        /* \"#utility.yul\":17799:18029   */\n      pop\n      jump\t// out\n        /* \"#utility.yul\":18035:18401   */\n    tag_359:\n        /* \"#utility.yul\":18177:18180   */\n      0x00\n        /* \"#utility.yul\":18198:18265   */\n      tag_559\n        /* \"#utility.yul\":18262:18264   */\n      0x2b\n        /* \"#utility.yul\":18257:18260   */\n      dup4\n        /* \"#utility.yul\":18198:18265   */\n      tag_321\n      jump\t// in\n    tag_559:\n        /* \"#utility.yul\":18191:18265   */\n      swap2\n      pop\n        /* \"#utility.yul\":18274:18367   */\n      tag_560\n        /* \"#utility.yul\":18363:18366   */\n      dup3\n        /* \"#utility.yul\":18274:18367   */\n      tag_358\n      jump\t// in\n    tag_560:\n        /* \"#utility.yul\":18392:18394   */\n      0x40\n        /* \"#utility.yul\":18387:18390   */\n      dup3\n        /* \"#utility.yul\":18383:18395   */\n      add\n        /* \"#utility.yul\":18376:18395   */\n      swap1\n      pop\n        /* \"#utility.yul\":18035:18401   */\n      swap2\n      swap1\n      pop\n      jump\t// out\n        /* \"#utility.yul\":18407:18826   */\n    tag_164:\n        /* \"#utility.yul\":18573:18577   */\n      0x00\n        /* \"#utility.yul\":18611:18613   */\n      0x20\n        /* \"#utility.yul\":18600:18609   */\n      dup3\n        /* \"#utility.yul\":18596:18614   */\n      add\n        /* \"#utility.yul\":18588:18614   */\n      swap1\n      pop\n        /* \"#utility.yul\":18660:18669   */\n      dup2\n        /* \"#utility.yul\":18654:18658   */\n      dup2\n        /* \"#utility.yul\":18650:18670   */\n      sub\n        /* \"#utility.yul\":18646:18647   */\n      0x00\n        /* \"#utility.yul\":18635:18644   */\n      dup4\n        /* \"#utility.yul\":18631:18648   */\n      add\n        /* \"#utility.yul\":18624:18671   */\n      mstore\n        /* \"#utility.yul\":18688:18819   */\n      tag_562\n        /* \"#utility.yul\":18814:18818   */\n      dup2\n        /* \"#utility.yul\":18688:18819   */\n      tag_359\n      jump\t// in\n    tag_562:\n        /* \"#utility.yul\":18680:18819   */\n      swap1\n      pop\n        /* \"#utility.yul\":18407:18826   */\n      swap2\n      swap1\n      pop\n      jump\t// out\n        /* \"#utility.yul\":18832:19008   */\n    tag_360:\n        /* \"#utility.yul\":18972:19000   */\n      0x455243373231413a20617070726f766520746f2063616c6c6572000000000000\n        /* \"#utility.yul\":18968:18969   */\n      0x00\n        /* \"#utility.yul\":18960:18966   */\n      dup3\n        /* \"#utility.yul\":18956:18970   */\n      add\n        /* \"#utility.yul\":18949:19001   */\n      mstore\n        /* \"#utility.yul\":18832:19008   */\n      pop\n      jump\t// out\n        /* \"#utility.yul\":19014:19380   */\n    tag_361:\n        /* \"#utility.yul\":19156:19159   */\n      0x00\n        /* \"#utility.yul\":19177:19244   */\n      tag_565\n        /* \"#utility.yul\":19241:19243   */\n      0x1a\n        /* \"#utility.yul\":19236:19239   */\n      dup4\n        /* \"#utility.yul\":19177:19244   */\n      tag_321\n      jump\t// in\n    tag_565:\n        /* \"#utility.yul\":19170:19244   */\n      swap2\n      pop\n        /* \"#utility.yul\":19253:19346   */\n      tag_566\n        /* \"#utility.yul\":19342:19345   */\n      dup3\n        /* \"#utility.yul\":19253:19346   */\n      tag_360\n      jump\t// in\n    tag_566:\n        /* \"#utility.yul\":19371:19373   */\n      0x20\n        /* \"#utility.yul\":19366:19369   */\n      dup3\n        /* \"#utility.yul\":19362:19374   */\n      add\n        /* \"#utility.yul\":19355:19374   */\n      swap1\n      pop\n        /* \"#utility.yul\":19014:19380   */\n      swap2\n      swap1\n      pop\n      jump\t// out\n        /* \"#utility.yul\":19386:19805   */\n    tag_175:\n        /* \"#utility.yul\":19552:19556   */\n      0x00\n        /* \"#utility.yul\":19590:19592   */\n      0x20\n        /* \"#utility.yul\":19579:19588   */\n      dup3\n        /* \"#utility.yul\":19575:19593   */\n      add\n        /* \"#utility.yul\":19567:19593   */\n      swap1\n      pop\n        /* \"#utility.yul\":19639:19648   */\n      dup2\n        /* \"#utility.yul\":19633:19637   */\n      dup2\n        /* \"#utility.yul\":19629:19649   */\n      sub\n        /* \"#utility.yul\":19625:19626   */\n      0x00\n        /* \"#utility.yul\":19614:19623   */\n      dup4\n        /* \"#utility.yul\":19610:19627   */\n      add\n        /* \"#utility.yul\":19603:19650   */\n      mstore\n        /* \"#utility.yul\":19667:19798   */\n      tag_568\n        /* \"#utility.yul\":19793:19797   */\n      dup2\n        /* \"#utility.yul\":19667:19798   */\n      tag_361\n      jump\t// in\n    tag_568:\n        /* \"#utility.yul\":19659:19798   */\n      swap1\n      pop\n        /* \"#utility.yul\":19386:19805   */\n      swap2\n      swap1\n      pop\n      jump\t// out\n        /* \"#utility.yul\":19811:20049   */\n    tag_362:\n        /* \"#utility.yul\":19951:19985   */\n      0x455243373231413a207472616e7366657220746f206e6f6e2045524337323152\n        /* \"#utility.yul\":19947:19948   */\n      0x00\n        /* \"#utility.yul\":19939:19945   */\n      dup3\n        /* \"#utility.yul\":19935:19949   */\n      add\n        /* \"#utility.yul\":19928:19986   */\n      mstore\n        /* \"#utility.yul\":20020:20041   */\n      0x6563656976657220696d706c656d656e74657200000000000000000000000000\n        /* \"#utility.yul\":20015:20017   */\n      0x20\n        /* \"#utility.yul\":20007:20013   */\n      dup3\n        /* \"#utility.yul\":20003:20018   */\n      add\n        /* \"#utility.yul\":19996:20042   */\n      mstore\n        /* \"#utility.yul\":19811:20049   */\n      pop\n      jump\t// out\n        /* \"#utility.yul\":20055:20421   */\n    tag_363:\n        /* \"#utility.yul\":20197:20200   */\n      0x00\n        /* \"#utility.yul\":20218:20285   */\n      tag_571\n        /* \"#utility.yul\":20282:20284   */\n      0x33\n        /* \"#utility.yul\":20277:20280   */\n      dup4\n        /* \"#utility.yul\":20218:20285   */\n      tag_321\n      jump\t// in\n    tag_571:\n        /* \"#utility.yul\":20211:20285   */\n      swap2\n      pop\n        /* \"#utility.yul\":20294:20387   */\n      tag_572\n        /* \"#utility.yul\":20383:20386   */\n      dup3\n        /* \"#utility.yul\":20294:20387   */\n      tag_362\n      jump\t// in\n    tag_572:\n        /* \"#utility.yul\":20412:20414   */\n      0x40\n        /* \"#utility.yul\":20407:20410   */\n      dup3\n        /* \"#utility.yul\":20403:20415   */\n      add\n        /* \"#utility.yul\":20396:20415   */\n      swap1\n      pop\n        /* \"#utility.yul\":20055:20421   */\n      swap2\n      swap1\n      pop\n      jump\t// out\n        /* \"#utility.yul\":20427:20846   */\n    tag_185:\n        /* \"#utility.yul\":20593:20597   */\n      0x00\n        /* \"#utility.yul\":20631:20633   */\n      0x20\n        /* \"#utility.yul\":20620:20629   */\n      dup3\n        /* \"#utility.yul\":20616:20634   */\n      add\n        /* \"#utility.yul\":20608:20634   */\n      swap1\n      pop\n        /* \"#utility.yul\":20680:20689   */\n      dup2\n        /* \"#utility.yul\":20674:20678   */\n      dup2\n        /* \"#utility.yul\":20670:20690   */\n      sub\n        /* \"#utility.yul\":20666:20667   */\n      0x00\n        /* \"#utility.yul\":20655:20664   */\n      dup4\n        /* \"#utility.yul\":20651:20668   */\n      add\n        /* \"#utility.yul\":20644:20691   */\n      mstore\n        /* \"#utility.yul\":20708:20839   */\n      tag_574\n        /* \"#utility.yul\":20834:20838   */\n      dup2\n        /* \"#utility.yul\":20708:20839   */\n      tag_363\n      jump\t// in\n    tag_574:\n        /* \"#utility.yul\":20700:20839   */\n      swap1\n      pop\n        /* \"#utility.yul\":20427:20846   */\n      swap2\n      swap1\n      pop\n      jump\t// out\n        /* \"#utility.yul\":20852:21086   */\n    tag_364:\n        /* \"#utility.yul\":20992:21026   */\n      0x4552433732314d657461646174613a2055524920717565727920666f72206e6f\n        /* \"#utility.yul\":20988:20989   */\n      0x00\n        /* \"#utility.yul\":20980:20986   */\n      dup3\n        /* \"#utility.yul\":20976:20990   */\n      add\n        /* \"#utility.yul\":20969:21027   */\n      mstore\n        /* \"#utility.yul\":21061:21078   */\n      0x6e6578697374656e7420746f6b656e0000000000000000000000000000000000\n        /* \"#utility.yul\":21056:21058   */\n      0x20\n        /* \"#utility.yul\":21048:21054   */\n      dup3\n        /* \"#utility.yul\":21044:21059   */\n      add\n        /* \"#utility.yul\":21037:21079   */\n      mstore\n        /* \"#utility.yul\":20852:21086   */\n      pop\n      jump\t// out\n        /* \"#utility.yul\":21092:21458   */\n    tag_365:\n        /* \"#utility.yul\":21234:21237   */\n      0x00\n        /* \"#utility.yul\":21255:21322   */\n      tag_577\n        /* \"#utility.yul\":21319:21321   */\n      0x2f\n        /* \"#utility.yul\":21314:21317   */\n      dup4\n        /* \"#utility.yul\":21255:21322   */\n      tag_321\n      jump\t// in\n    tag_577:\n        /* \"#utility.yul\":21248:21322   */\n      swap2\n      pop\n        /* \"#utility.yul\":21331:21424   */\n      tag_578\n        /* \"#utility.yul\":21420:21423   */\n      dup3\n        /* \"#utility.yul\":21331:21424   */\n      tag_364\n      jump\t// in\n    tag_578:\n        /* \"#utility.yul\":21449:21451   */\n      0x40\n        /* \"#utility.yul\":21444:21447   */\n      dup3\n        /* \"#utility.yul\":21440:21452   */\n      add\n        /* \"#utility.yul\":21433:21452   */\n      swap1\n      pop\n        /* \"#utility.yul\":21092:21458   */\n      swap2\n      swap1\n      pop\n      jump\t// out\n        /* \"#utility.yul\":21464:21883   */\n    tag_190:\n        /* \"#utility.yul\":21630:21634   */\n      0x00\n        /* \"#utility.yul\":21668:21670   */\n      0x20\n        /* \"#utility.yul\":21657:21666   */\n      dup3\n        /* \"#utility.yul\":21653:21671   */\n      add\n        /* \"#utility.yul\":21645:21671   */\n      swap1\n      pop\n        /* \"#utility.yul\":21717:21726   */\n      dup2\n        /* \"#utility.yul\":21711:21715   */\n      dup2\n        /* \"#utility.yul\":21707:21727   */\n      sub\n        /* \"#utility.yul\":21703:21704   */\n      0x00\n        /* \"#utility.yul\":21692:21701   */\n      dup4\n        /* \"#utility.yul\":21688:21705   */\n      add\n        /* \"#utility.yul\":21681:21728   */\n      mstore\n        /* \"#utility.yul\":21745:21876   */\n      tag_580\n        /* \"#utility.yul\":21871:21875   */\n      dup2\n        /* \"#utility.yul\":21745:21876   */\n      tag_365\n      jump\t// in\n    tag_580:\n        /* \"#utility.yul\":21737:21876   */\n      swap1\n      pop\n        /* \"#utility.yul\":21464:21883   */\n      swap2\n      swap1\n      pop\n      jump\t// out\n        /* \"#utility.yul\":21889:22037   */\n    tag_366:\n        /* \"#utility.yul\":21991:22002   */\n      0x00\n        /* \"#utility.yul\":22028:22031   */\n      dup2\n        /* \"#utility.yul\":22013:22031   */\n      swap1\n      pop\n        /* \"#utility.yul\":21889:22037   */\n      swap3\n      swap2\n      pop\n      pop\n      jump\t// out\n        /* \"#utility.yul\":22043:22433   */\n    tag_367:\n        /* \"#utility.yul\":22149:22152   */\n      0x00\n        /* \"#utility.yul\":22177:22216   */\n      tag_583\n        /* \"#utility.yul\":22210:22215   */\n      dup3\n        /* \"#utility.yul\":22177:22216   */\n      tag_320\n      jump\t// in\n    tag_583:\n        /* \"#utility.yul\":22232:22321   */\n      tag_584\n        /* \"#utility.yul\":22314:22320   */\n      dup2\n        /* \"#utility.yul\":22309:22312   */\n      dup6\n        /* \"#utility.yul\":22232:22321   */\n      tag_366\n      jump\t// in\n    tag_584:\n        /* \"#utility.yul\":22225:22321   */\n      swap4\n      pop\n        /* \"#utility.yul\":22330:22395   */\n      tag_585\n        /* \"#utility.yul\":22388:22394   */\n      dup2\n        /* \"#utility.yul\":22383:22386   */\n      dup6\n        /* \"#utility.yul\":22376:22380   */\n      0x20\n        /* \"#utility.yul\":22369:22374   */\n      dup7\n        /* \"#utility.yul\":22365:22381   */\n      add\n        /* \"#utility.yul\":22330:22395   */\n      tag_322\n      jump\t// in\n    tag_585:\n        /* \"#utility.yul\":22420:22426   */\n      dup1\n        /* \"#utility.yul\":22415:22418   */\n      dup5\n        /* \"#utility.yul\":22411:22427   */\n      add\n        /* \"#utility.yul\":22404:22427   */\n      swap2\n      pop\n        /* \"#utility.yul\":22153:22433   */\n      pop\n        /* \"#utility.yul\":22043:22433   */\n      swap3\n      swap2\n      pop\n      pop\n      jump\t// out\n        /* \"#utility.yul\":22439:22874   */\n    tag_198:\n        /* \"#utility.yul\":22619:22622   */\n      0x00\n        /* \"#utility.yul\":22641:22736   */\n      tag_587\n        /* \"#utility.yul\":22732:22735   */\n      dup3\n        /* \"#utility.yul\":22723:22729   */\n      dup6\n        /* \"#utility.yul\":22641:22736   */\n      tag_367\n      jump\t// in\n    tag_587:\n        /* \"#utility.yul\":22634:22736   */\n      swap2\n      pop\n        /* \"#utility.yul\":22753:22848   */\n      tag_588\n        /* \"#utility.yul\":22844:22847   */\n      dup3\n        /* \"#utility.yul\":22835:22841   */\n      dup5\n        /* \"#utility.yul\":22753:22848   */\n      tag_367\n      jump\t// in\n    tag_588:\n        /* \"#utility.yul\":22746:22848   */\n      swap2\n      pop\n        /* \"#utility.yul\":22865:22868   */\n      dup2\n        /* \"#utility.yul\":22858:22868   */\n      swap1\n      pop\n        /* \"#utility.yul\":22439:22874   */\n      swap4\n      swap3\n      pop\n      pop\n      pop\n      jump\t// out\n        /* \"#utility.yul\":22880:23117   */\n    tag_368:\n        /* \"#utility.yul\":23020:23054   */\n      0x455243373231413a207472616e736665722063616c6c6572206973206e6f7420\n        /* \"#utility.yul\":23016:23017   */\n      0x00\n        /* \"#utility.yul\":23008:23014   */\n      dup3\n        /* \"#utility.yul\":23004:23018   */\n      add\n        /* \"#utility.yul\":22997:23055   */\n      mstore\n        /* \"#utility.yul\":23089:23109   */\n      0x6f776e6572206e6f7220617070726f7665640000000000000000000000000000\n        /* \"#utility.yul\":23084:23086   */\n      0x20\n        /* \"#utility.yul\":23076:23082   */\n      dup3\n        /* \"#utility.yul\":23072:23087   */\n      add\n        /* \"#utility.yul\":23065:23110   */\n      mstore\n        /* \"#utility.yul\":22880:23117   */\n      pop\n      jump\t// out\n        /* \"#utility.yul\":23123:23489   */\n    tag_369:\n        /* \"#utility.yul\":23265:23268   */\n      0x00\n        /* \"#utility.yul\":23286:23353   */\n      tag_591\n        /* \"#utility.yul\":23350:23352   */\n      0x32\n        /* \"#utility.yul\":23345:23348   */\n      dup4\n        /* \"#utility.yul\":23286:23353   */\n      tag_321\n      jump\t// in\n    tag_591:\n        /* \"#utility.yul\":23279:23353   */\n      swap2\n      pop\n        /* \"#utility.yul\":23362:23455   */\n      tag_592\n        /* \"#utility.yul\":23451:23454   */\n      dup3\n        /* \"#utility.yul\":23362:23455   */\n      tag_368\n      jump\t// in\n    tag_592:\n        /* \"#utility.yul\":23480:23482   */\n      0x40\n        /* \"#utility.yul\":23475:23478   */\n      dup3\n        /* \"#utility.yul\":23471:23483   */\n      add\n        /* \"#utility.yul\":23464:23483   */\n      swap1\n      pop\n        /* \"#utility.yul\":23123:23489   */\n      swap2\n      swap1\n      pop\n      jump\t// out\n        /* \"#utility.yul\":23495:23914   */\n    tag_215:\n        /* \"#utility.yul\":23661:23665   */\n      0x00\n        /* \"#utility.yul\":23699:23701   */\n      0x20\n        /* \"#utility.yul\":23688:23697   */\n      dup3\n        /* \"#utility.yul\":23684:23702   */\n      add\n        /* \"#utility.yul\":23676:23702   */\n      swap1\n      pop\n        /* \"#utility.yul\":23748:23757   */\n      dup2\n        /* \"#utility.yul\":23742:23746   */\n      dup2\n        /* \"#utility.yul\":23738:23758   */\n      sub\n        /* \"#utility.yul\":23734:23735   */\n      0x00\n        /* \"#utility.yul\":23723:23732   */\n      dup4\n        /* \"#utility.yul\":23719:23736   */\n      add\n        /* \"#utility.yul\":23712:23759   */\n      mstore\n        /* \"#utility.yul\":23776:23907   */\n      tag_594\n        /* \"#utility.yul\":23902:23906   */\n      dup2\n        /* \"#utility.yul\":23776:23907   */\n      tag_369\n      jump\t// in\n    tag_594:\n        /* \"#utility.yul\":23768:23907   */\n      swap1\n      pop\n        /* \"#utility.yul\":23495:23914   */\n      swap2\n      swap1\n      pop\n      jump\t// out\n        /* \"#utility.yul\":23920:24145   */\n    tag_370:\n        /* \"#utility.yul\":24060:24094   */\n      0x455243373231413a207472616e736665722066726f6d20696e636f7272656374\n        /* \"#utility.yul\":24056:24057   */\n      0x00\n        /* \"#utility.yul\":24048:24054   */\n      dup3\n        /* \"#utility.yul\":24044:24058   */\n      add\n        /* \"#utility.yul\":24037:24095   */\n      mstore\n        /* \"#utility.yul\":24129:24137   */\n      0x206f776e65720000000000000000000000000000000000000000000000000000\n        /* \"#utility.yul\":24124:24126   */\n      0x20\n        /* \"#utility.yul\":24116:24122   */\n      dup3\n        /* \"#utility.yul\":24112:24127   */\n      add\n        /* \"#utility.yul\":24105:24138   */\n      mstore\n        /* \"#utility.yul\":23920:24145   */\n      pop\n      jump\t// out\n        /* \"#utility.yul\":24151:24517   */\n    tag_371:\n        /* \"#utility.yul\":24293:24296   */\n      0x00\n        /* \"#utility.yul\":24314:24381   */\n      tag_597\n        /* \"#utility.yul\":24378:24380   */\n      0x26\n        /* \"#utility.yul\":24373:24376   */\n      dup4\n        /* \"#utility.yul\":24314:24381   */\n      tag_321\n      jump\t// in\n    tag_597:\n        /* \"#utility.yul\":24307:24381   */\n      swap2\n      pop\n        /* \"#utility.yul\":24390:24483   */\n      tag_598\n        /* \"#utility.yul\":24479:24482   */\n      dup3\n        /* \"#utility.yul\":24390:24483   */\n      tag_370\n      jump\t// in\n    tag_598:\n        /* \"#utility.yul\":24508:24510   */\n      0x40\n        /* \"#utility.yul\":24503:24506   */\n      dup3\n        /* \"#utility.yul\":24499:24511   */\n      add\n        /* \"#utility.yul\":24492:24511   */\n      swap1\n      pop\n        /* \"#utility.yul\":24151:24517   */\n      swap2\n      swap1\n      pop\n      jump\t// out\n        /* \"#utility.yul\":24523:24942   */\n    tag_218:\n        /* \"#utility.yul\":24689:24693   */\n      0x00\n        /* \"#utility.yul\":24727:24729   */\n      0x20\n        /* \"#utility.yul\":24716:24725   */\n      dup3\n        /* \"#utility.yul\":24712:24730   */\n      add\n        /* \"#utility.yul\":24704:24730   */\n      swap1\n      pop\n        /* \"#utility.yul\":24776:24785   */\n      dup2\n        /* \"#utility.yul\":24770:24774   */\n      dup2\n        /* \"#utility.yul\":24766:24786   */\n      sub\n        /* \"#utility.yul\":24762:24763   */\n      0x00\n        /* \"#utility.yul\":24751:24760   */\n      dup4\n        /* \"#utility.yul\":24747:24764   */\n      add\n        /* \"#utility.yul\":24740:24787   */\n      mstore\n        /* \"#utility.yul\":24804:24935   */\n      tag_600\n        /* \"#utility.yul\":24930:24934   */\n      dup2\n        /* \"#utility.yul\":24804:24935   */\n      tag_371\n      jump\t// in\n    tag_600:\n        /* \"#utility.yul\":24796:24935   */\n      swap1\n      pop\n        /* \"#utility.yul\":24523:24942   */\n      swap2\n      swap1\n      pop\n      jump\t// out\n        /* \"#utility.yul\":24948:25172   */\n    tag_372:\n        /* \"#utility.yul\":25088:25122   */\n      0x455243373231413a207472616e7366657220746f20746865207a65726f206164\n        /* \"#utility.yul\":25084:25085   */\n      0x00\n        /* \"#utility.yul\":25076:25082   */\n      dup3\n        /* \"#utility.yul\":25072:25086   */\n      add\n        /* \"#utility.yul\":25065:25123   */\n      mstore\n        /* \"#utility.yul\":25157:25164   */\n      0x6472657373000000000000000000000000000000000000000000000000000000\n        /* \"#utility.yul\":25152:25154   */\n      0x20\n        /* \"#utility.yul\":25144:25150   */\n      dup3\n        /* \"#utility.yul\":25140:25155   */\n      add\n        /* \"#utility.yul\":25133:25165   */\n      mstore\n        /* \"#utility.yul\":24948:25172   */\n      pop\n      jump\t// out\n        /* \"#utility.yul\":25178:25544   */\n    tag_373:\n        /* \"#utility.yul\":25320:25323   */\n      0x00\n        /* \"#utility.yul\":25341:25408   */\n      tag_603\n        /* \"#utility.yul\":25405:25407   */\n      0x25\n        /* \"#utility.yul\":25400:25403   */\n      dup4\n        /* \"#utility.yul\":25341:25408   */\n      tag_321\n      jump\t// in\n    tag_603:\n        /* \"#utility.yul\":25334:25408   */\n      swap2\n      pop\n        /* \"#utility.yul\":25417:25510   */\n      tag_604\n        /* \"#utility.yul\":25506:25509   */\n      dup3\n        /* \"#utility.yul\":25417:25510   */\n      tag_372\n      jump\t// in\n    tag_604:\n        /* \"#utility.yul\":25535:25537   */\n      0x40\n        /* \"#utility.yul\":25530:25533   */\n      dup3\n        /* \"#utility.yul\":25526:25538   */\n      add\n        /* \"#utility.yul\":25519:25538   */\n      swap1\n      pop\n        /* \"#utility.yul\":25178:25544   */\n      swap2\n      swap1\n      pop\n      jump\t// out\n        /* \"#utility.yul\":25550:25969   */\n    tag_221:\n        /* \"#utility.yul\":25716:25720   */\n      0x00\n        /* \"#utility.yul\":25754:25756   */\n      0x20\n        /* \"#utility.yul\":25743:25752   */\n      dup3\n        /* \"#utility.yul\":25739:25757   */\n      add\n        /* \"#utility.yul\":25731:25757   */\n      swap1\n      pop\n        /* \"#utility.yul\":25803:25812   */\n      dup2\n        /* \"#utility.yul\":25797:25801   */\n      dup2\n        /* \"#utility.yul\":25793:25813   */\n      sub\n        /* \"#utility.yul\":25789:25790   */\n      0x00\n        /* \"#utility.yul\":25778:25787   */\n      dup4\n        /* \"#utility.yul\":25774:25791   */\n      add\n        /* \"#utility.yul\":25767:25814   */\n      mstore\n        /* \"#utility.yul\":25831:25962   */\n      tag_606\n        /* \"#utility.yul\":25957:25961   */\n      dup2\n        /* \"#utility.yul\":25831:25962   */\n      tag_373\n      jump\t// in\n    tag_606:\n        /* \"#utility.yul\":25823:25962   */\n      swap1\n      pop\n        /* \"#utility.yul\":25550:25969   */\n      swap2\n      swap1\n      pop\n      jump\t// out\n        /* \"#utility.yul\":25975:26093   */\n    tag_374:\n        /* \"#utility.yul\":26012:26019   */\n      0x00\n        /* \"#utility.yul\":26052:26086   */\n      0xffffffffffffffffffffffffffffffff\n        /* \"#utility.yul\":26045:26050   */\n      dup3\n        /* \"#utility.yul\":26041:26087   */\n      and\n        /* \"#utility.yul\":26030:26087   */\n      swap1\n      pop\n        /* \"#utility.yul\":25975:26093   */\n      swap2\n      swap1\n      pop\n      jump\t// out\n        /* \"#utility.yul\":26099:26326   */\n    tag_226:\n        /* \"#utility.yul\":26139:26143   */\n      0x00\n        /* \"#utility.yul\":26159:26179   */\n      tag_609\n        /* \"#utility.yul\":26177:26178   */\n      dup3\n        /* \"#utility.yul\":26159:26179   */\n      tag_374\n      jump\t// in\n    tag_609:\n        /* \"#utility.yul\":26154:26179   */\n      swap2\n      pop\n        /* \"#utility.yul\":26193:26213   */\n      tag_610\n        /* \"#utility.yul\":26211:26212   */\n      dup4\n        /* \"#utility.yul\":26193:26213   */\n      tag_374\n      jump\t// in\n    tag_610:\n        /* \"#utility.yul\":26188:26213   */\n      swap3\n      pop\n        /* \"#utility.yul\":26237:26238   */\n      dup3\n        /* \"#utility.yul\":26234:26235   */\n      dup3\n        /* \"#utility.yul\":26230:26239   */\n      sub\n        /* \"#utility.yul\":26222:26239   */\n      swap1\n      pop\n        /* \"#utility.yul\":26261:26295   */\n      0xffffffffffffffffffffffffffffffff\n        /* \"#utility.yul\":26255:26259   */\n      dup2\n        /* \"#utility.yul\":26252:26296   */\n      gt\n        /* \"#utility.yul\":26249:26319   */\n      iszero\n      tag_611\n      jumpi\n        /* \"#utility.yul\":26299:26317   */\n      tag_612\n      tag_351\n      jump\t// in\n    tag_612:\n        /* \"#utility.yul\":26249:26319   */\n    tag_611:\n        /* \"#utility.yul\":26099:26326   */\n      swap3\n      swap2\n      pop\n      pop\n      jump\t// out\n        /* \"#utility.yul\":26332:26556   */\n    tag_228:\n        /* \"#utility.yul\":26372:26375   */\n      0x00\n        /* \"#utility.yul\":26391:26411   */\n      tag_614\n        /* \"#utility.yul\":26409:26410   */\n      dup3\n        /* \"#utility.yul\":26391:26411   */\n      tag_374\n      jump\t// in\n    tag_614:\n        /* \"#utility.yul\":26386:26411   */\n      swap2\n      pop\n        /* \"#utility.yul\":26425:26445   */\n      tag_615\n        /* \"#utility.yul\":26443:26444   */\n      dup4\n        /* \"#utility.yul\":26425:26445   */\n      tag_374\n      jump\t// in\n    tag_615:\n        /* \"#utility.yul\":26420:26445   */\n      swap3\n      pop\n        /* \"#utility.yul\":26468:26469   */\n      dup3\n        /* \"#utility.yul\":26465:26466   */\n      dup3\n        /* \"#utility.yul\":26461:26470   */\n      add\n        /* \"#utility.yul\":26454:26470   */\n      swap1\n      pop\n        /* \"#utility.yul\":26491:26525   */\n      0xffffffffffffffffffffffffffffffff\n        /* \"#utility.yul\":26486:26489   */\n      dup2\n        /* \"#utility.yul\":26483:26526   */\n      gt\n        /* \"#utility.yul\":26480:26549   */\n      iszero\n      tag_616\n      jumpi\n        /* \"#utility.yul\":26529:26547   */\n      tag_617\n      tag_351\n      jump\t// in\n    tag_617:\n        /* \"#utility.yul\":26480:26549   */\n    tag_616:\n        /* \"#utility.yul\":26332:26556   */\n      swap3\n      swap2\n      pop\n      pop\n      jump\t// out\n        /* \"#utility.yul\":26562:26753   */\n    tag_230:\n        /* \"#utility.yul\":26602:26605   */\n      0x00\n        /* \"#utility.yul\":26621:26641   */\n      tag_619\n        /* \"#utility.yul\":26639:26640   */\n      dup3\n        /* \"#utility.yul\":26621:26641   */\n      tag_325\n      jump\t// in\n    tag_619:\n        /* \"#utility.yul\":26616:26641   */\n      swap2\n      pop\n        /* \"#utility.yul\":26655:26675   */\n      tag_620\n        /* \"#utility.yul\":26673:26674   */\n      dup4\n        /* \"#utility.yul\":26655:26675   */\n      tag_325\n      jump\t// in\n    tag_620:\n        /* \"#utility.yul\":26650:26675   */\n      swap3\n      pop\n        /* \"#utility.yul\":26698:26699   */\n      dup3\n        /* \"#utility.yul\":26695:26696   */\n      dup3\n        /* \"#utility.yul\":26691:26700   */\n      add\n        /* \"#utility.yul\":26684:26700   */\n      swap1\n      pop\n        /* \"#utility.yul\":26719:26722   */\n      dup1\n        /* \"#utility.yul\":26716:26717   */\n      dup3\n        /* \"#utility.yul\":26713:26723   */\n      gt\n        /* \"#utility.yul\":26710:26746   */\n      iszero\n      tag_621\n      jumpi\n        /* \"#utility.yul\":26726:26744   */\n      tag_622\n      tag_351\n      jump\t// in\n    tag_622:\n        /* \"#utility.yul\":26710:26746   */\n    tag_621:\n        /* \"#utility.yul\":26562:26753   */\n      swap3\n      swap2\n      pop\n      pop\n      jump\t// out\n        /* \"#utility.yul\":26759:26988   */\n    tag_375:\n        /* \"#utility.yul\":26899:26933   */\n      0x455243373231413a206f776e657220717565727920666f72206e6f6e65786973\n        /* \"#utility.yul\":26895:26896   */\n      0x00\n        /* \"#utility.yul\":26887:26893   */\n      dup3\n        /* \"#utility.yul\":26883:26897   */\n      add\n        /* \"#utility.yul\":26876:26934   */\n      mstore\n        /* \"#utility.yul\":26968:26980   */\n      0x74656e7420746f6b656e00000000000000000000000000000000000000000000\n        /* \"#utility.yul\":26963:26965   */\n      0x20\n        /* \"#utility.yul\":26955:26961   */\n      dup3\n        /* \"#utility.yul\":26951:26966   */\n      add\n        /* \"#utility.yul\":26944:26981   */\n      mstore\n        /* \"#utility.yul\":26759:26988   */\n      pop\n      jump\t// out\n        /* \"#utility.yul\":26994:27360   */\n    tag_376:\n        /* \"#utility.yul\":27136:27139   */\n      0x00\n        /* \"#utility.yul\":27157:27224   */\n      tag_625\n        /* \"#utility.yul\":27221:27223   */\n      0x2a\n        /* \"#utility.yul\":27216:27219   */\n      dup4\n        /* \"#utility.yul\":27157:27224   */\n      tag_321\n      jump\t// in\n    tag_625:\n        /* \"#utility.yul\":27150:27224   */\n      swap2\n      pop\n        /* \"#utility.yul\":27233:27326   */\n      tag_626\n        /* \"#utility.yul\":27322:27325   */\n      dup3\n        /* \"#utility.yul\":27233:27326   */\n      tag_375\n      jump\t// in\n    tag_626:\n        /* \"#utility.yul\":27351:27353   */\n      0x40\n        /* \"#utility.yul\":27346:27349   */\n      dup3\n        /* \"#utility.yul\":27342:27354   */\n      add\n        /* \"#utility.yul\":27335:27354   */\n      swap1\n      pop\n        /* \"#utility.yul\":26994:27360   */\n      swap2\n      swap1\n      pop\n      jump\t// out\n        /* \"#utility.yul\":27366:27785   */\n    tag_242:\n        /* \"#utility.yul\":27532:27536   */\n      0x00\n        /* \"#utility.yul\":27570:27572   */\n      0x20\n        /* \"#utility.yul\":27559:27568   */\n      dup3\n        /* \"#utility.yul\":27555:27573   */\n      add\n        /* \"#utility.yul\":27547:27573   */\n      swap1\n      pop\n        /* \"#utility.yul\":27619:27628   */\n      dup2\n        /* \"#utility.yul\":27613:27617   */\n      dup2\n        /* \"#utility.yul\":27609:27629   */\n      sub\n        /* \"#utility.yul\":27605:27606   */\n      0x00\n        /* \"#utility.yul\":27594:27603   */\n      dup4\n        /* \"#utility.yul\":27590:27607   */\n      add\n        /* \"#utility.yul\":27583:27630   */\n      mstore\n        /* \"#utility.yul\":27647:27778   */\n      tag_628\n        /* \"#utility.yul\":27773:27777   */\n      dup2\n        /* \"#utility.yul\":27647:27778   */\n      tag_376\n      jump\t// in\n    tag_628:\n        /* \"#utility.yul\":27639:27778   */\n      swap1\n      pop\n        /* \"#utility.yul\":27366:27785   */\n      swap2\n      swap1\n      pop\n      jump\t// out\n        /* \"#utility.yul\":27791:27962   */\n    tag_251:\n        /* \"#utility.yul\":27830:27833   */\n      0x00\n        /* \"#utility.yul\":27853:27877   */\n      tag_630\n        /* \"#utility.yul\":27871:27876   */\n      dup3\n        /* \"#utility.yul\":27853:27877   */\n      tag_325\n      jump\t// in\n    tag_630:\n        /* \"#utility.yul\":27844:27877   */\n      swap2\n      pop\n        /* \"#utility.yul\":27899:27903   */\n      0x00\n        /* \"#utility.yul\":27892:27897   */\n      dup3\n        /* \"#utility.yul\":27889:27904   */\n      sub\n        /* \"#utility.yul\":27886:27927   */\n      tag_631\n      jumpi\n        /* \"#utility.yul\":27907:27925   */\n      tag_632\n      tag_351\n      jump\t// in\n    tag_632:\n        /* \"#utility.yul\":27886:27927   */\n    tag_631:\n        /* \"#utility.yul\":27954:27955   */\n      0x01\n        /* \"#utility.yul\":27947:27952   */\n      dup3\n        /* \"#utility.yul\":27943:27956   */\n      sub\n        /* \"#utility.yul\":27936:27956   */\n      swap1\n      pop\n        /* \"#utility.yul\":27791:27962   */\n      swap2\n      swap1\n      pop\n      jump\t// out\n        /* \"#utility.yul\":27968:28202   */\n    tag_377:\n        /* \"#utility.yul\":28108:28142   */\n      0x455243373231413a20756e61626c6520746f2064657465726d696e6520746865\n        /* \"#utility.yul\":28104:28105   */\n      0x00\n        /* \"#utility.yul\":28096:28102   */\n      dup3\n        /* \"#utility.yul\":28092:28106   */\n      add\n        /* \"#utility.yul\":28085:28143   */\n      mstore\n        /* \"#utility.yul\":28177:28194   */\n      0x206f776e6572206f6620746f6b656e0000000000000000000000000000000000\n        /* \"#utility.yul\":28172:28174   */\n      0x20\n        /* \"#utility.yul\":28164:28170   */\n      dup3\n        /* \"#utility.yul\":28160:28175   */\n      add\n        /* \"#utility.yul\":28153:28195   */\n      mstore\n        /* \"#utility.yul\":27968:28202   */\n      pop\n      jump\t// out\n        /* \"#utility.yul\":28208:28574   */\n    tag_378:\n        /* \"#utility.yul\":28350:28353   */\n      0x00\n        /* \"#utility.yul\":28371:28438   */\n      tag_635\n        /* \"#utility.yul\":28435:28437   */\n      0x2f\n        /* \"#utility.yul\":28430:28433   */\n      dup4\n        /* \"#utility.yul\":28371:28438   */\n      tag_321\n      jump\t// in\n    tag_635:\n        /* \"#utility.yul\":28364:28438   */\n      swap2\n      pop\n        /* \"#utility.yul\":28447:28540   */\n      tag_636\n        /* \"#utility.yul\":28536:28539   */\n      dup3\n        /* \"#utility.yul\":28447:28540   */\n      tag_377\n      jump\t// in\n    tag_636:\n        /* \"#utility.yul\":28565:28567   */\n      0x40\n        /* \"#utility.yul\":28560:28563   */\n      dup3\n        /* \"#utility.yul\":28556:28568   */\n      add\n        /* \"#utility.yul\":28549:28568   */\n      swap1\n      pop\n        /* \"#utility.yul\":28208:28574   */\n      swap2\n      swap1\n      pop\n      jump\t// out\n        /* \"#utility.yul\":28580:28999   */\n    tag_253:\n        /* \"#utility.yul\":28746:28750   */\n      0x00\n        /* \"#utility.yul\":28784:28786   */\n      0x20\n        /* \"#utility.yul\":28773:28782   */\n      dup3\n        /* \"#utility.yul\":28769:28787   */\n      add\n        /* \"#utility.yul\":28761:28787   */\n      swap1\n      pop\n        /* \"#utility.yul\":28833:28842   */\n      dup2\n        /* \"#utility.yul\":28827:28831   */\n      dup2\n        /* \"#utility.yul\":28823:28843   */\n      sub\n        /* \"#utility.yul\":28819:28820   */\n      0x00\n        /* \"#utility.yul\":28808:28817   */\n      dup4\n        /* \"#utility.yul\":28804:28821   */\n      add\n        /* \"#utility.yul\":28797:28844   */\n      mstore\n        /* \"#utility.yul\":28861:28992   */\n      tag_638\n        /* \"#utility.yul\":28987:28991   */\n      dup2\n        /* \"#utility.yul\":28861:28992   */\n      tag_378\n      jump\t// in\n    tag_638:\n        /* \"#utility.yul\":28853:28992   */\n      swap1\n      pop\n        /* \"#utility.yul\":28580:28999   */\n      swap2\n      swap1\n      pop\n      jump\t// out\n        /* \"#utility.yul\":29005:29103   */\n    tag_379:\n        /* \"#utility.yul\":29056:29062   */\n      0x00\n        /* \"#utility.yul\":29090:29095   */\n      dup2\n        /* \"#utility.yul\":29084:29096   */\n      mload\n        /* \"#utility.yul\":29074:29096   */\n      swap1\n      pop\n        /* \"#utility.yul\":29005:29103   */\n      swap2\n      swap1\n      pop\n      jump\t// out\n        /* \"#utility.yul\":29109:29277   */\n    tag_380:\n        /* \"#utility.yul\":29192:29203   */\n      0x00\n        /* \"#utility.yul\":29226:29232   */\n      dup3\n        /* \"#utility.yul\":29221:29224   */\n      dup3\n        /* \"#utility.yul\":29214:29233   */\n      mstore\n        /* \"#utility.yul\":29266:29270   */\n      0x20\n        /* \"#utility.yul\":29261:29264   */\n      dup3\n        /* \"#utility.yul\":29257:29271   */\n      add\n        /* \"#utility.yul\":29242:29271   */\n      swap1\n      pop\n        /* \"#utility.yul\":29109:29277   */\n      swap3\n      swap2\n      pop\n      pop\n      jump\t// out\n        /* \"#utility.yul\":29283:29656   */\n    tag_381:\n        /* \"#utility.yul\":29369:29372   */\n      0x00\n        /* \"#utility.yul\":29397:29435   */\n      tag_642\n        /* \"#utility.yul\":29429:29434   */\n      dup3\n        /* \"#utility.yul\":29397:29435   */\n      tag_379\n      jump\t// in\n    tag_642:\n        /* \"#utility.yul\":29451:29521   */\n      tag_643\n        /* \"#utility.yul\":29514:29520   */\n      dup2\n        /* \"#utility.yul\":29509:29512   */\n      dup6\n        /* \"#utility.yul\":29451:29521   */\n      tag_380\n      jump\t// in\n    tag_643:\n        /* \"#utility.yul\":29444:29521   */\n      swap4\n      pop\n        /* \"#utility.yul\":29530:29595   */\n      tag_644\n        /* \"#utility.yul\":29588:29594   */\n      dup2\n        /* \"#utility.yul\":29583:29586   */\n      dup6\n        /* \"#utility.yul\":29576:29580   */\n      0x20\n        /* \"#utility.yul\":29569:29574   */\n      dup7\n        /* \"#utility.yul\":29565:29581   */\n      add\n        /* \"#utility.yul\":29530:29595   */\n      tag_322\n      jump\t// in\n    tag_644:\n        /* \"#utility.yul\":29620:29649   */\n      tag_645\n        /* \"#utility.yul\":29642:29648   */\n      dup2\n        /* \"#utility.yul\":29620:29649   */\n      tag_323\n      jump\t// in\n    tag_645:\n        /* \"#utility.yul\":29615:29618   */\n      dup5\n        /* \"#utility.yul\":29611:29650   */\n      add\n        /* \"#utility.yul\":29604:29650   */\n      swap2\n      pop\n        /* \"#utility.yul\":29373:29656   */\n      pop\n        /* \"#utility.yul\":29283:29656   */\n      swap3\n      swap2\n      pop\n      pop\n      jump\t// out\n        /* \"#utility.yul\":29662:30302   */\n    tag_260:\n        /* \"#utility.yul\":29857:29861   */\n      0x00\n        /* \"#utility.yul\":29895:29898   */\n      0x80\n        /* \"#utility.yul\":29884:29893   */\n      dup3\n        /* \"#utility.yul\":29880:29899   */\n      add\n        /* \"#utility.yul\":29872:29899   */\n      swap1\n      pop\n        /* \"#utility.yul\":29909:29980   */\n      tag_647\n        /* \"#utility.yul\":29977:29978   */\n      0x00\n        /* \"#utility.yul\":29966:29975   */\n      dup4\n        /* \"#utility.yul\":29962:29979   */\n      add\n        /* \"#utility.yul\":29953:29959   */\n      dup8\n        /* \"#utility.yul\":29909:29980   */\n      tag_330\n      jump\t// in\n    tag_647:\n        /* \"#utility.yul\":29990:30062   */\n      tag_648\n        /* \"#utility.yul\":30058:30060   */\n      0x20\n        /* \"#utility.yul\":30047:30056   */\n      dup4\n        /* \"#utility.yul\":30043:30061   */\n      add\n        /* \"#utility.yul\":30034:30040   */\n      dup7\n        /* \"#utility.yul\":29990:30062   */\n      tag_330\n      jump\t// in\n    tag_648:\n        /* \"#utility.yul\":30072:30144   */\n      tag_649\n        /* \"#utility.yul\":30140:30142   */\n      0x40\n        /* \"#utility.yul\":30129:30138   */\n      dup4\n        /* \"#utility.yul\":30125:30143   */\n      add\n        /* \"#utility.yul\":30116:30122   */\n      dup6\n        /* \"#utility.yul\":30072:30144   */\n      tag_333\n      jump\t// in\n    tag_649:\n        /* \"#utility.yul\":30191:30200   */\n      dup2\n        /* \"#utility.yul\":30185:30189   */\n      dup2\n        /* \"#utility.yul\":30181:30201   */\n      sub\n        /* \"#utility.yul\":30176:30178   */\n      0x60\n        /* \"#utility.yul\":30165:30174   */\n      dup4\n        /* \"#utility.yul\":30161:30179   */\n      add\n        /* \"#utility.yul\":30154:30202   */\n      mstore\n        /* \"#utility.yul\":30219:30295   */\n      tag_650\n        /* \"#utility.yul\":30290:30294   */\n      dup2\n        /* \"#utility.yul\":30281:30287   */\n      dup5\n        /* \"#utility.yul\":30219:30295   */\n      tag_381\n      jump\t// in\n    tag_650:\n        /* \"#utility.yul\":30211:30295   */\n      swap1\n      pop\n        /* \"#utility.yul\":29662:30302   */\n      swap6\n      swap5\n      pop\n      pop\n      pop\n      pop\n      pop\n      jump\t// out\n        /* \"#utility.yul\":30308:30449   */\n    tag_382:\n        /* \"#utility.yul\":30364:30369   */\n      0x00\n        /* \"#utility.yul\":30395:30401   */\n      dup2\n        /* \"#utility.yul\":30389:30402   */\n      mload\n        /* \"#utility.yul\":30380:30402   */\n      swap1\n      pop\n        /* \"#utility.yul\":30411:30443   */\n      tag_652\n        /* \"#utility.yul\":30437:30442   */\n      dup2\n        /* \"#utility.yul\":30411:30443   */\n      tag_316\n      jump\t// in\n    tag_652:\n        /* \"#utility.yul\":30308:30449   */\n      swap3\n      swap2\n      pop\n      pop\n      jump\t// out\n        /* \"#utility.yul\":30455:30804   */\n    tag_263:\n        /* \"#utility.yul\":30524:30530   */\n      0x00\n        /* \"#utility.yul\":30573:30575   */\n      0x20\n        /* \"#utility.yul\":30561:30570   */\n      dup3\n        /* \"#utility.yul\":30552:30559   */\n      dup5\n        /* \"#utility.yul\":30548:30571   */\n      sub\n        /* \"#utility.yul\":30544:30576   */\n      slt\n        /* \"#utility.yul\":30541:30660   */\n      iszero\n      tag_654\n      jumpi\n        /* \"#utility.yul\":30579:30658   */\n      tag_655\n      tag_313\n      jump\t// in\n    tag_655:\n        /* \"#utility.yul\":30541:30660   */\n    tag_654:\n        /* \"#utility.yul\":30699:30700   */\n      0x00\n        /* \"#utility.yul\":30724:30787   */\n      tag_656\n        /* \"#utility.yul\":30779:30786   */\n      dup5\n        /* \"#utility.yul\":30770:30776   */\n      dup3\n        /* \"#utility.yul\":30759:30768   */\n      dup6\n        /* \"#utility.yul\":30755:30777   */\n      add\n        /* \"#utility.yul\":30724:30787   */\n      tag_382\n      jump\t// in\n    tag_656:\n        /* \"#utility.yul\":30714:30787   */\n      swap2\n      pop\n        /* \"#utility.yul\":30670:30797   */\n      pop\n        /* \"#utility.yul\":30455:30804   */\n      swap3\n      swap2\n      pop\n      pop\n      jump\t// out\n        /* \"#utility.yul\":30810:30990   */\n    tag_287:\n        /* \"#utility.yul\":30858:30935   */\n      0x4e487b7100000000000000000000000000000000000000000000000000000000\n        /* \"#utility.yul\":30855:30856   */\n      0x00\n        /* \"#utility.yul\":30848:30936   */\n      mstore\n        /* \"#utility.yul\":30955:30959   */\n      0x12\n        /* \"#utility.yul\":30952:30953   */\n      0x04\n        /* \"#utility.yul\":30945:30960   */\n      mstore\n        /* \"#utility.yul\":30979:30983   */\n      0x24\n        /* \"#utility.yul\":30976:30977   */\n      0x00\n        /* \"#utility.yul\":30969:30984   */\n      revert\n\n    auxdata: 0xa2646970667358221220cb636fa791cd48ecfe6f682a0b9cc7c8ec177bbbc552fe6a93c57ec432d4d7af64736f6c63430008110033\n}\n",
				"bytecode": {
					"linkReferences": {},
					"object": "60c0604052600160005560006007553480156200001b57600080fd5b5060405162003557380380620035578339818101604052810190620000419190620002d9565b6000811162000087576040517f08c379a00000000000000000000000000000000000000000000000000000000081526004016200007e9062000410565b60405180910390fd5b60008211620000cd576040517f08c379a0000000000000000000000000000000000000000000000000000000008152600401620000c490620004a8565b60405180910390fd5b8360019081620000de91906200070b565b508260029081620000f091906200070b565b508160a08181525050806080818152505050505050620007f2565b6000604051905090565b600080fd5b600080fd5b600080fd5b600080fd5b6000601f19601f8301169050919050565b7f4e487b7100000000000000000000000000000000000000000000000000000000600052604160045260246000fd5b620001748262000129565b810181811067ffffffffffffffff821117156200019657620001956200013a565b5b80604052505050565b6000620001ab6200010b565b9050620001b9828262000169565b919050565b600067ffffffffffffffff821115620001dc57620001db6200013a565b5b620001e78262000129565b9050602081019050919050565b60005b8381101562000214578082015181840152602081019050620001f7565b60008484015250505050565b6000620002376200023184620001be565b6200019f565b90508281526020810184848401111562000256576200025562000124565b5b62000263848285620001f4565b509392505050565b600082601f8301126200028357620002826200011f565b5b81516200029584826020860162000220565b91505092915050565b6000819050919050565b620002b3816200029e565b8114620002bf57600080fd5b50565b600081519050620002d381620002a8565b92915050565b60008060008060808587031215620002f657620002f562000115565b5b600085015167ffffffffffffffff8111156200031757620003166200011a565b5b62000325878288016200026b565b945050602085015167ffffffffffffffff8111156200034957620003486200011a565b5b62000357878288016200026b565b93505060406200036a87828801620002c2565b92505060606200037d87828801620002c2565b91505092959194509250565b600082825260208201905092915050565b7f455243373231413a20636f6c6c656374696f6e206d757374206861766520612060008201527f6e6f6e7a65726f20737570706c79000000000000000000000000000000000000602082015250565b6000620003f8602e8362000389565b915062000405826200039a565b604082019050919050565b600060208201905081810360008301526200042b81620003e9565b9050919050565b7f455243373231413a206d61782062617463682073697a65206d7573742062652060008201527f6e6f6e7a65726f00000000000000000000000000000000000000000000000000602082015250565b60006200049060278362000389565b91506200049d8262000432565b604082019050919050565b60006020820190508181036000830152620004c38162000481565b9050919050565b600081519050919050565b7f4e487b7100000000000000000000000000000000000000000000000000000000600052602260045260246000fd5b600060028204905060018216806200051d57607f821691505b602082108103620005335762000532620004d5565b5b50919050565b60008190508160005260206000209050919050565b60006020601f8301049050919050565b600082821b905092915050565b6000600883026200059d7fffffffffffffffffffffffffffffffffffffffffffffffffffffffffffffffff826200055e565b620005a986836200055e565b95508019841693508086168417925050509392505050565b6000819050919050565b6000620005ec620005e6620005e0846200029e565b620005c1565b6200029e565b9050919050565b6000819050919050565b6200060883620005cb565b620006206200061782620005f3565b8484546200056b565b825550505050565b600090565b6200063762000628565b62000644818484620005fd565b505050565b5b818110156200066c57620006606000826200062d565b6001810190506200064a565b5050565b601f821115620006bb57620006858162000539565b62000690846200054e565b81016020851015620006a0578190505b620006b8620006af856200054e565b83018262000649565b50505b505050565b600082821c905092915050565b6000620006e060001984600802620006c0565b1980831691505092915050565b6000620006fb8383620006cd565b9150826002028217905092915050565b6200071682620004ca565b67ffffffffffffffff8111156200073257620007316200013a565b5b6200073e825462000504565b6200074b82828562000670565b600060209050601f8311600181146200078357600084156200076e578287015190505b6200077a8582620006ed565b865550620007ea565b601f198416620007938662000539565b60005b82811015620007bd5784890151825560018201915060208501945060208101905062000796565b86831015620007dd5784890151620007d9601f891682620006cd565b8355505b6001600288020188555050505b505050505050565b60805160a051612d3b6200081c6000396000818161158e01526115b7015260005050612d3b6000f3fe608060405234801561001057600080fd5b506004361061010b5760003560e01c80634f6ccce7116100a2578063a22cb46511610071578063a22cb465146102de578063b88d4fde146102fa578063c87b56dd14610316578063d7224ba014610346578063e985e9c5146103645761010b565b80634f6ccce7146102305780636352211e1461026057806370a082311461029057806395d89b41146102c05761010b565b806318160ddd116100de57806318160ddd146101aa57806323b872dd146101c85780632f745c59146101e457806342842e0e146102145761010b565b806301ffc9a71461011057806306fdde0314610140578063081812fc1461015e578063095ea7b31461018e575b600080fd5b61012a60048036038101906101259190611bd1565b610394565b6040516101379190611c19565b60405180910390f35b6101486104de565b6040516101559190611cc4565b60405180910390f35b61017860048036038101906101739190611d1c565b610570565b6040516101859190611d8a565b60405180910390f35b6101a860048036038101906101a39190611dd1565b6105f5565b005b6101b261070d565b6040516101bf9190611e20565b60405180910390f35b6101e260048036038101906101dd9190611e3b565b610723565b005b6101fe60048036038101906101f99190611dd1565b610733565b60405161020b9190611e20565b60405180910390f35b61022e60048036038101906102299190611e3b565b610932565b005b61024a60048036038101906102459190611d1c565b610952565b6040516102579190611e20565b60405180910390f35b61027a60048036038101906102759190611d1c565b6109a5565b6040516102879190611d8a565b60405180910390f35b6102aa60048036038101906102a59190611e8e565b6109bb565b6040516102b79190611e20565b60405180910390f35b6102c8610aa3565b6040516102d59190611cc4565b60405180910390f35b6102f860048036038101906102f39190611ee7565b610b35565b005b610314600480360381019061030f919061205c565b610cb5565b005b610330600480360381019061032b9190611d1c565b610d11565b60405161033d9190611cc4565b60405180910390f35b61034e610db8565b60405161035b9190611e20565b60405180910390f35b61037e600480360381019061037991906120df565b610dbe565b60405161038b9190611c19565b60405180910390f35b60007f80ac58cd000000000000000000000000000000000000000000000000000000007bffffffffffffffffffffffffffffffffffffffffffffffffffffffff1916827bffffffffffffffffffffffffffffffffffffffffffffffffffffffff1916148061045f57507f5b5e139f000000000000000000000000000000000000000000000000000000007bffffffffffffffffffffffffffffffffffffffffffffffffffffffff1916827bffffffffffffffffffffffffffffffffffffffffffffffffffffffff1916145b806104c757507f780e9d63000000000000000000000000000000000000000000000000000000007bffffffffffffffffffffffffffffffffffffffffffffffffffffffff1916827bffffffffffffffffffffffffffffffffffffffffffffffffffffffff1916145b806104d757506104d682610e52565b5b9050919050565b6060600180546104ed9061214e565b80601f01602080910402602001604051908101604052809291908181526020018280546105199061214e565b80156105665780601f1061053b57610100808354040283529160200191610566565b820191906000526020600020905b81548152906001019060200180831161054957829003601f168201915b5050505050905090565b600061057b82610ebc565b6105ba576040517f08c379a00000000000000000000000000000000000000000000000000000000081526004016105b1906121f1565b60405180910390fd5b6005600083815260200190815260200160002060009054906101000a900473ffffffffffffffffffffffffffffffffffffffff169050919050565b6000610600826109a5565b90508073ffffffffffffffffffffffffffffffffffffffff168373ffffffffffffffffffffffffffffffffffffffff1603610670576040517f08c379a000000000000000000000000000000000000000000000000000000000815260040161066790612283565b60405180910390fd5b8073ffffffffffffffffffffffffffffffffffffffff1661068f610ec9565b73ffffffffffffffffffffffffffffffffffffffff1614806106be57506106bd816106b8610ec9565b610dbe565b5b6106fd576040517f08c379a00000000000000000000000000000000000000000000000000000000081526004016106f490612315565b60405180910390fd5b610708838383610ed1565b505050565b6000600160005461071e9190612364565b905090565b61072e838383610f83565b505050565b600061073e836109bb565b821061077f576040517f08c379a00000000000000000000000000000000000000000000000000000000081526004016107769061240a565b60405180910390fd5b600061078961070d565b90506000806000600190505b8381116108f0576000600360008381526020019081526020016000206040518060400160405290816000820160009054906101000a900473ffffffffffffffffffffffffffffffffffffffff1673ffffffffffffffffffffffffffffffffffffffff1673ffffffffffffffffffffffffffffffffffffffff1681526020016000820160149054906101000a900467ffffffffffffffff1667ffffffffffffffff1667ffffffffffffffff16815250509050600073ffffffffffffffffffffffffffffffffffffffff16816000015173ffffffffffffffffffffffffffffffffffffffff161461088657806000015192505b8773ffffffffffffffffffffffffffffffffffffffff168373ffffffffffffffffffffffffffffffffffffffff16036108dc578684036108cd57819550505050505061092c565b83806108d89061242a565b9450505b5080806108e89061242a565b915050610795565b506040517f08c379a0000000000000000000000000000000000000000000000000000000008152600401610923906124e4565b60405180910390fd5b92915050565b61094d83838360405180602001604052806000815250610cb5565b505050565b600061095c61070d565b821061099d576040517f08c379a000000000000000000000000000000000000000000000000000000000815260040161099490612576565b60405180910390fd5b819050919050565b60006109b08261153a565b600001519050919050565b60008073ffffffffffffffffffffffffffffffffffffffff168273ffffffffffffffffffffffffffffffffffffffff1603610a2b576040517f08c379a0000000000000000000000000000000000000000000000000000000008152600401610a2290612608565b60405180910390fd5b600460008373ffffffffffffffffffffffffffffffffffffffff1673ffffffffffffffffffffffffffffffffffffffff16815260200190815260200160002060000160009054906101000a90046fffffffffffffffffffffffffffffffff166fffffffffffffffffffffffffffffffff169050919050565b606060028054610ab29061214e565b80601f0160208091040260200160405190810160405280929190818152602001828054610ade9061214e565b8015610b2b5780601f10610b0057610100808354040283529160200191610b2b565b820191906000526020600020905b815481529060010190602001808311610b0e57829003601f168201915b5050505050905090565b610b3d610ec9565b73ffffffffffffffffffffffffffffffffffffffff168273ffffffffffffffffffffffffffffffffffffffff1603610baa576040517f08c379a0000000000000000000000000000000000000000000000000000000008152600401610ba190612674565b60405180910390fd5b8060066000610bb7610ec9565b73ffffffffffffffffffffffffffffffffffffffff1673ffffffffffffffffffffffffffffffffffffffff16815260200190815260200160002060008473ffffffffffffffffffffffffffffffffffffffff1673ffffffffffffffffffffffffffffffffffffffff16815260200190815260200160002060006101000a81548160ff0219169083151502179055508173ffffffffffffffffffffffffffffffffffffffff16610c64610ec9565b73ffffffffffffffffffffffffffffffffffffffff167f17307eab39ab6107e8899845ad3d59bd9653f200f220920489ca2b5937696c3183604051610ca99190611c19565b60405180910390a35050565b610cc0848484610f83565b610ccc8484848461173d565b610d0b576040517f08c379a0000000000000000000000000000000000000000000000000000000008152600401610d0290612706565b60405180910390fd5b50505050565b6060610d1c82610ebc565b610d5b576040517f08c379a0000000000000000000000000000000000000000000000000000000008152600401610d5290612798565b60405180910390fd5b6000610d656118c4565b90506000815111610d855760405180602001604052806000815250610db0565b80610d8f846118db565b604051602001610da09291906127f4565b6040516020818303038152906040525b915050919050565b60075481565b6000600660008473ffffffffffffffffffffffffffffffffffffffff1673ffffffffffffffffffffffffffffffffffffffff16815260200190815260200160002060008373ffffffffffffffffffffffffffffffffffffffff1673ffffffffffffffffffffffffffffffffffffffff16815260200190815260200160002060009054906101000a900460ff16905092915050565b60007f01ffc9a7000000000000000000000000000000000000000000000000000000007bffffffffffffffffffffffffffffffffffffffffffffffffffffffff1916827bffffffffffffffffffffffffffffffffffffffffffffffffffffffff1916149050919050565b6000805482109050919050565b600033905090565b826005600084815260200190815260200160002060006101000a81548173ffffffffffffffffffffffffffffffffffffffff021916908373ffffffffffffffffffffffffffffffffffffffff160217905550818373ffffffffffffffffffffffffffffffffffffffff168273ffffffffffffffffffffffffffffffffffffffff167f8c5be1e5ebec7d5bd14f71427d1e84f3dd0314c0f7b2291e5b200ac8c7c3b92560405160405180910390a4505050565b6000610f8e8261153a565b90506000816000015173ffffffffffffffffffffffffffffffffffffffff16610fb5610ec9565b73ffffffffffffffffffffffffffffffffffffffff1614806110115750610fda610ec9565b73ffffffffffffffffffffffffffffffffffffffff16610ff984610570565b73ffffffffffffffffffffffffffffffffffffffff16145b8061102d575061102c8260000151611027610ec9565b610dbe565b5b90508061106f576040517f08c379a00000000000000000000000000000000000000000000000000000000081526004016110669061288a565b60405180910390fd5b8473ffffffffffffffffffffffffffffffffffffffff16826000015173ffffffffffffffffffffffffffffffffffffffff16146110e1576040517f08c379a00000000000000000000000000000000000000000000000000000000081526004016110d89061291c565b60405180910390fd5b600073ffffffffffffffffffffffffffffffffffffffff168473ffffffffffffffffffffffffffffffffffffffff1603611150576040517f08c379a0000000000000000000000000000000000000000000000000000000008152600401611147906129ae565b60405180910390fd5b61115d85858560016119a9565b61116d6000848460000151610ed1565b6001600460008773ffffffffffffffffffffffffffffffffffffffff1673ffffffffffffffffffffffffffffffffffffffff16815260200190815260200160002060000160008282829054906101000a90046fffffffffffffffffffffffffffffffff166111db91906129ea565b92506101000a8154816fffffffffffffffffffffffffffffffff02191690836fffffffffffffffffffffffffffffffff1602179055506001600460008673ffffffffffffffffffffffffffffffffffffffff1673ffffffffffffffffffffffffffffffffffffffff16815260200190815260200160002060000160008282829054906101000a90046fffffffffffffffffffffffffffffffff1661127f9190612a2e565b92506101000a8154816fffffffffffffffffffffffffffffffff02191690836fffffffffffffffffffffffffffffffff16021790555060405180604001604052808573ffffffffffffffffffffffffffffffffffffffff1681526020014267ffffffffffffffff168152506003600085815260200190815260200160002060008201518160000160006101000a81548173ffffffffffffffffffffffffffffffffffffffff021916908373ffffffffffffffffffffffffffffffffffffffff16021790555060208201518160000160146101000a81548167ffffffffffffffff021916908367ffffffffffffffff16021790555090505060006001846113859190612a72565b9050600073ffffffffffffffffffffffffffffffffffffffff166003600083815260200190815260200160002060000160009054906101000a900473ffffffffffffffffffffffffffffffffffffffff1673ffffffffffffffffffffffffffffffffffffffff16036114ca576113fa81610ebc565b156114c9576040518060400160405280846000015173ffffffffffffffffffffffffffffffffffffffff168152602001846020015167ffffffffffffffff168152506003600083815260200190815260200160002060008201518160000160006101000a81548173ffffffffffffffffffffffffffffffffffffffff021916908373ffffffffffffffffffffffffffffffffffffffff16021790555060208201518160000160146101000a81548167ffffffffffffffff021916908367ffffffffffffffff1602179055509050505b5b838573ffffffffffffffffffffffffffffffffffffffff168773ffffffffffffffffffffffffffffffffffffffff167fddf252ad1be2c89b69c2b068fc378daa952ba7f163c4a11628f55a4df523b3ef60405160405180910390a461153286868660016119af565b505050505050565b611542611b2b565b61154b82610ebc565b61158a576040517f08c379a000000000000000000000000000000000000000000000000000000000815260040161158190612b18565b60405180910390fd5b60007f000000000000000000000000000000000000000000000000000000000000000083106115ee5760017f0000000000000000000000000000000000000000000000000000000000000000846115e19190612364565b6115eb9190612a72565b90505b60008390505b8181106116fc576000600360008381526020019081526020016000206040518060400160405290816000820160009054906101000a900473ffffffffffffffffffffffffffffffffffffffff1673ffffffffffffffffffffffffffffffffffffffff1673ffffffffffffffffffffffffffffffffffffffff1681526020016000820160149054906101000a900467ffffffffffffffff1667ffffffffffffffff1667ffffffffffffffff16815250509050600073ffffffffffffffffffffffffffffffffffffffff16816000015173ffffffffffffffffffffffffffffffffffffffff16146116e857809350505050611738565b5080806116f490612b38565b9150506115f4565b506040517f08c379a000000000000000000000000000000000000000000000000000000000815260040161172f90612bd3565b60405180910390fd5b919050565b600061175e8473ffffffffffffffffffffffffffffffffffffffff166119b5565b156118b7578373ffffffffffffffffffffffffffffffffffffffff1663150b7a02611787610ec9565b8786866040518563ffffffff1660e01b81526004016117a99493929190612c48565b6020604051808303816000875af19250505080156117e557506040513d601f19601f820116820180604052508101906117e29190612ca9565b60015b611867573d8060008114611815576040519150601f19603f3d011682016040523d82523d6000602084013e61181a565b606091505b50600081510361185f576040517f08c379a000000000000000000000000000000000000000000000000000000000815260040161185690612706565b60405180910390fd5b805181602001fd5b63150b7a0260e01b7bffffffffffffffffffffffffffffffffffffffffffffffffffffffff1916817bffffffffffffffffffffffffffffffffffffffffffffffffffffffff1916149150506118bc565b600190505b949350505050565b606060405180602001604052806000815250905090565b6060600060016118ea846119d8565b01905060008167ffffffffffffffff81111561190957611908611f31565b5b6040519080825280601f01601f19166020018201604052801561193b5781602001600182028036833780820191505090505b509050600082602001820190505b60011561199e578080600190039150507f3031323334353637383961626364656600000000000000000000000000000000600a86061a8153600a858161199257611991612cd6565b5b04945060008503611949575b819350505050919050565b50505050565b50505050565b6000808273ffffffffffffffffffffffffffffffffffffffff163b119050919050565b600080600090507a184f03e93ff9f4daa797ed6e38ed64bf6a1f0100000000000000008310611a36577a184f03e93ff9f4daa797ed6e38ed64bf6a1f0100000000000000008381611a2c57611a2b612cd6565b5b0492506040810190505b6d04ee2d6d415b85acef81000000008310611a73576d04ee2d6d415b85acef81000000008381611a6957611a68612cd6565b5b0492506020810190505b662386f26fc100008310611aa257662386f26fc100008381611a9857611a97612cd6565b5b0492506010810190505b6305f5e1008310611acb576305f5e1008381611ac157611ac0612cd6565b5b0492506008810190505b6127108310611af0576127108381611ae657611ae5612cd6565b5b0492506004810190505b60648310611b135760648381611b0957611b08612cd6565b5b0492506002810190505b600a8310611b22576001810190505b80915050919050565b6040518060400160405280600073ffffffffffffffffffffffffffffffffffffffff168152602001600067ffffffffffffffff1681525090565b6000604051905090565b600080fd5b600080fd5b60007fffffffff0000000000000000000000000000000000000000000000000000000082169050919050565b611bae81611b79565b8114611bb957600080fd5b50565b600081359050611bcb81611ba5565b92915050565b600060208284031215611be757611be6611b6f565b5b6000611bf584828501611bbc565b91505092915050565b60008115159050919050565b611c1381611bfe565b82525050565b6000602082019050611c2e6000830184611c0a565b92915050565b600081519050919050565b600082825260208201905092915050565b60005b83811015611c6e578082015181840152602081019050611c53565b60008484015250505050565b6000601f19601f8301169050919050565b6000611c9682611c34565b611ca08185611c3f565b9350611cb0818560208601611c50565b611cb981611c7a565b840191505092915050565b60006020820190508181036000830152611cde8184611c8b565b905092915050565b6000819050919050565b611cf981611ce6565b8114611d0457600080fd5b50565b600081359050611d1681611cf0565b92915050565b600060208284031215611d3257611d31611b6f565b5b6000611d4084828501611d07565b91505092915050565b600073ffffffffffffffffffffffffffffffffffffffff82169050919050565b6000611d7482611d49565b9050919050565b611d8481611d69565b82525050565b6000602082019050611d9f6000830184611d7b565b92915050565b611dae81611d69565b8114611db957600080fd5b50565b600081359050611dcb81611da5565b92915050565b60008060408385031215611de857611de7611b6f565b5b6000611df685828601611dbc565b9250506020611e0785828601611d07565b9150509250929050565b611e1a81611ce6565b82525050565b6000602082019050611e356000830184611e11565b92915050565b600080600060608486031215611e5457611e53611b6f565b5b6000611e6286828701611dbc565b9350506020611e7386828701611dbc565b9250506040611e8486828701611d07565b9150509250925092565b600060208284031215611ea457611ea3611b6f565b5b6000611eb284828501611dbc565b91505092915050565b611ec481611bfe565b8114611ecf57600080fd5b50565b600081359050611ee181611ebb565b92915050565b60008060408385031215611efe57611efd611b6f565b5b6000611f0c85828601611dbc565b9250506020611f1d85828601611ed2565b9150509250929050565b600080fd5b600080fd5b7f4e487b7100000000000000000000000000000000000000000000000000000000600052604160045260246000fd5b611f6982611c7a565b810181811067ffffffffffffffff82111715611f8857611f87611f31565b5b80604052505050565b6000611f9b611b65565b9050611fa78282611f60565b919050565b600067ffffffffffffffff821115611fc757611fc6611f31565b5b611fd082611c7a565b9050602081019050919050565b82818337600083830152505050565b6000611fff611ffa84611fac565b611f91565b90508281526020810184848401111561201b5761201a611f2c565b5b612026848285611fdd565b509392505050565b600082601f83011261204357612042611f27565b5b8135612053848260208601611fec565b91505092915050565b6000806000806080858703121561207657612075611b6f565b5b600061208487828801611dbc565b945050602061209587828801611dbc565b93505060406120a687828801611d07565b925050606085013567ffffffffffffffff8111156120c7576120c6611b74565b5b6120d38782880161202e565b91505092959194509250565b600080604083850312156120f6576120f5611b6f565b5b600061210485828601611dbc565b925050602061211585828601611dbc565b9150509250929050565b7f4e487b7100000000000000000000000000000000000000000000000000000000600052602260045260246000fd5b6000600282049050600182168061216657607f821691505b6020821081036121795761217861211f565b5b50919050565b7f455243373231413a20617070726f76656420717565727920666f72206e6f6e6560008201527f78697374656e7420746f6b656e00000000000000000000000000000000000000602082015250565b60006121db602d83611c3f565b91506121e68261217f565b604082019050919050565b6000602082019050818103600083015261220a816121ce565b9050919050565b7f455243373231413a20617070726f76616c20746f2063757272656e74206f776e60008201527f6572000000000000000000000000000000000000000000000000000000000000602082015250565b600061226d602283611c3f565b915061227882612211565b604082019050919050565b6000602082019050818103600083015261229c81612260565b9050919050565b7f455243373231413a20617070726f76652063616c6c6572206973206e6f74206f60008201527f776e6572206e6f7220617070726f76656420666f7220616c6c00000000000000602082015250565b60006122ff603983611c3f565b915061230a826122a3565b604082019050919050565b6000602082019050818103600083015261232e816122f2565b9050919050565b7f4e487b7100000000000000000000000000000000000000000000000000000000600052601160045260246000fd5b600061236f82611ce6565b915061237a83611ce6565b925082820390508181111561239257612391612335565b5b92915050565b7f455243373231413a206f776e657220696e646578206f7574206f6620626f756e60008201527f6473000000000000000000000000000000000000000000000000000000000000602082015250565b60006123f4602283611c3f565b91506123ff82612398565b604082019050919050565b60006020820190508181036000830152612423816123e7565b9050919050565b600061243582611ce6565b91507fffffffffffffffffffffffffffffffffffffffffffffffffffffffffffffffff820361246757612466612335565b5b600182019050919050565b7f455243373231413a20756e61626c6520746f2067657420746f6b656e206f662060008201527f6f776e657220627920696e646578000000000000000000000000000000000000602082015250565b60006124ce602e83611c3f565b91506124d982612472565b604082019050919050565b600060208201905081810360008301526124fd816124c1565b9050919050565b7f455243373231413a20676c6f62616c20696e646578206f7574206f6620626f7560008201527f6e64730000000000000000000000000000000000000000000000000000000000602082015250565b6000612560602383611c3f565b915061256b82612504565b604082019050919050565b6000602082019050818103600083015261258f81612553565b9050919050565b7f455243373231413a2062616c616e636520717565727920666f7220746865207a60008201527f65726f2061646472657373000000000000000000000000000000000000000000602082015250565b60006125f2602b83611c3f565b91506125fd82612596565b604082019050919050565b60006020820190508181036000830152612621816125e5565b9050919050565b7f455243373231413a20617070726f766520746f2063616c6c6572000000000000600082015250565b600061265e601a83611c3f565b915061266982612628565b602082019050919050565b6000602082019050818103600083015261268d81612651565b9050919050565b7f455243373231413a207472616e7366657220746f206e6f6e204552433732315260008201527f6563656976657220696d706c656d656e74657200000000000000000000000000602082015250565b60006126f0603383611c3f565b91506126fb82612694565b604082019050919050565b6000602082019050818103600083015261271f816126e3565b9050919050565b7f4552433732314d657461646174613a2055524920717565727920666f72206e6f60008201527f6e6578697374656e7420746f6b656e0000000000000000000000000000000000602082015250565b6000612782602f83611c3f565b915061278d82612726565b604082019050919050565b600060208201905081810360008301526127b181612775565b9050919050565b600081905092915050565b60006127ce82611c34565b6127d881856127b8565b93506127e8818560208601611c50565b80840191505092915050565b600061280082856127c3565b915061280c82846127c3565b91508190509392505050565b7f455243373231413a207472616e736665722063616c6c6572206973206e6f742060008201527f6f776e6572206e6f7220617070726f7665640000000000000000000000000000602082015250565b6000612874603283611c3f565b915061287f82612818565b604082019050919050565b600060208201905081810360008301526128a381612867565b9050919050565b7f455243373231413a207472616e736665722066726f6d20696e636f727265637460008201527f206f776e65720000000000000000000000000000000000000000000000000000602082015250565b6000612906602683611c3f565b9150612911826128aa565b604082019050919050565b60006020820190508181036000830152612935816128f9565b9050919050565b7f455243373231413a207472616e7366657220746f20746865207a65726f20616460008201527f6472657373000000000000000000000000000000000000000000000000000000602082015250565b6000612998602583611c3f565b91506129a38261293c565b604082019050919050565b600060208201905081810360008301526129c78161298b565b9050919050565b60006fffffffffffffffffffffffffffffffff82169050919050565b60006129f5826129ce565b9150612a00836129ce565b925082820390506fffffffffffffffffffffffffffffffff811115612a2857612a27612335565b5b92915050565b6000612a39826129ce565b9150612a44836129ce565b925082820190506fffffffffffffffffffffffffffffffff811115612a6c57612a6b612335565b5b92915050565b6000612a7d82611ce6565b9150612a8883611ce6565b9250828201905080821115612aa057612a9f612335565b5b92915050565b7f455243373231413a206f776e657220717565727920666f72206e6f6e6578697360008201527f74656e7420746f6b656e00000000000000000000000000000000000000000000602082015250565b6000612b02602a83611c3f565b9150612b0d82612aa6565b604082019050919050565b60006020820190508181036000830152612b3181612af5565b9050919050565b6000612b4382611ce6565b915060008203612b5657612b55612335565b5b600182039050919050565b7f455243373231413a20756e61626c6520746f2064657465726d696e652074686560008201527f206f776e6572206f6620746f6b656e0000000000000000000000000000000000602082015250565b6000612bbd602f83611c3f565b9150612bc882612b61565b604082019050919050565b60006020820190508181036000830152612bec81612bb0565b9050919050565b600081519050919050565b600082825260208201905092915050565b6000612c1a82612bf3565b612c248185612bfe565b9350612c34818560208601611c50565b612c3d81611c7a565b840191505092915050565b6000608082019050612c5d6000830187611d7b565b612c6a6020830186611d7b565b612c776040830185611e11565b8181036060830152612c898184612c0f565b905095945050505050565b600081519050612ca381611ba5565b92915050565b600060208284031215612cbf57612cbe611b6f565b5b6000612ccd84828501612c94565b91505092915050565b7f4e487b7100000000000000000000000000000000000000000000000000000000600052601260045260246000fdfea2646970667358221220cb636fa791cd48ecfe6f682a0b9cc7c8ec177bbbc552fe6a93c57ec432d4d7af64736f6c63430008110033",
					"opcodes": "PUSH1 0xC0 PUSH1 0x40 MSTORE PUSH1 0x1 PUSH1 0x0 SSTORE PUSH1 0x0 PUSH1 0x7 SSTORE CALLVALUE DUP1 ISZERO PUSH3 0x1B JUMPI PUSH1 0x0 DUP1 REVERT JUMPDEST POP PUSH1 0x40 MLOAD PUSH3 0x3557 CODESIZE SUB DUP1 PUSH3 0x3557 DUP4 CODECOPY DUP2 DUP2 ADD PUSH1 0x40 MSTORE DUP2 ADD SWAP1 PUSH3 0x41 SWAP2 SWAP1 PUSH3 0x2D9 JUMP JUMPDEST PUSH1 0x0 DUP2 GT PUSH3 0x87 JUMPI PUSH1 0x40 MLOAD PUSH32 0x8C379A000000000000000000000000000000000000000000000000000000000 DUP2 MSTORE PUSH1 0x4 ADD PUSH3 0x7E SWAP1 PUSH3 0x410 JUMP JUMPDEST PUSH1 0x40 MLOAD DUP1 SWAP2 SUB SWAP1 REVERT JUMPDEST PUSH1 0x0 DUP3 GT PUSH3 0xCD JUMPI PUSH1 0x40 MLOAD PUSH32 0x8C379A000000000000000000000000000000000000000000000000000000000 DUP2 MSTORE PUSH1 0x4 ADD PUSH3 0xC4 SWAP1 PUSH3 0x4A8 JUMP JUMPDEST PUSH1 0x40 MLOAD DUP1 SWAP2 SUB SWAP1 REVERT JUMPDEST DUP4 PUSH1 0x1 SWAP1 DUP2 PUSH3 0xDE SWAP2 SWAP1 PUSH3 0x70B JUMP JUMPDEST POP DUP3 PUSH1 0x2 SWAP1 DUP2 PUSH3 0xF0 SWAP2 SWAP1 PUSH3 0x70B JUMP JUMPDEST POP DUP2 PUSH1 0xA0 DUP2 DUP2 MSTORE POP POP DUP1 PUSH1 0x80 DUP2 DUP2 MSTORE POP POP POP POP POP POP PUSH3 0x7F2 JUMP JUMPDEST PUSH1 0x0 PUSH1 0x40 MLOAD SWAP1 POP SWAP1 JUMP JUMPDEST PUSH1 0x0 DUP1 REVERT JUMPDEST PUSH1 0x0 DUP1 REVERT JUMPDEST PUSH1 0x0 DUP1 REVERT JUMPDEST PUSH1 0x0 DUP1 REVERT JUMPDEST PUSH1 0x0 PUSH1 0x1F NOT PUSH1 0x1F DUP4 ADD AND SWAP1 POP SWAP2 SWAP1 POP JUMP JUMPDEST PUSH32 0x4E487B7100000000000000000000000000000000000000000000000000000000 PUSH1 0x0 MSTORE PUSH1 0x41 PUSH1 0x4 MSTORE PUSH1 0x24 PUSH1 0x0 REVERT JUMPDEST PUSH3 0x174 DUP3 PUSH3 0x129 JUMP JUMPDEST DUP2 ADD DUP2 DUP2 LT PUSH8 0xFFFFFFFFFFFFFFFF DUP3 GT OR ISZERO PUSH3 0x196 JUMPI PUSH3 0x195 PUSH3 0x13A JUMP JUMPDEST JUMPDEST DUP1 PUSH1 0x40 MSTORE POP POP POP JUMP JUMPDEST PUSH1 0x0 PUSH3 0x1AB PUSH3 0x10B JUMP JUMPDEST SWAP1 POP PUSH3 0x1B9 DUP3 DUP3 PUSH3 0x169 JUMP JUMPDEST SWAP2 SWAP1 POP JUMP JUMPDEST PUSH1 0x0 PUSH8 0xFFFFFFFFFFFFFFFF DUP3 GT ISZERO PUSH3 0x1DC JUMPI PUSH3 0x1DB PUSH3 0x13A JUMP JUMPDEST JUMPDEST PUSH3 0x1E7 DUP3 PUSH3 0x129 JUMP JUMPDEST SWAP1 POP PUSH1 0x20 DUP2 ADD SWAP1 POP SWAP2 SWAP1 POP JUMP JUMPDEST PUSH1 0x0 JUMPDEST DUP4 DUP2 LT ISZERO PUSH3 0x214 JUMPI DUP1 DUP3 ADD MLOAD DUP2 DUP5 ADD MSTORE PUSH1 0x20 DUP2 ADD SWAP1 POP PUSH3 0x1F7 JUMP JUMPDEST PUSH1 0x0 DUP5 DUP5 ADD MSTORE POP POP POP POP JUMP JUMPDEST PUSH1 0x0 PUSH3 0x237 PUSH3 0x231 DUP5 PUSH3 0x1BE JUMP JUMPDEST PUSH3 0x19F JUMP JUMPDEST SWAP1 POP DUP3 DUP2 MSTORE PUSH1 0x20 DUP2 ADD DUP5 DUP5 DUP5 ADD GT ISZERO PUSH3 0x256 JUMPI PUSH3 0x255 PUSH3 0x124 JUMP JUMPDEST JUMPDEST PUSH3 0x263 DUP5 DUP3 DUP6 PUSH3 0x1F4 JUMP JUMPDEST POP SWAP4 SWAP3 POP POP POP JUMP JUMPDEST PUSH1 0x0 DUP3 PUSH1 0x1F DUP4 ADD SLT PUSH3 0x283 JUMPI PUSH3 0x282 PUSH3 0x11F JUMP JUMPDEST JUMPDEST DUP2 MLOAD PUSH3 0x295 DUP5 DUP3 PUSH1 0x20 DUP7 ADD PUSH3 0x220 JUMP JUMPDEST SWAP2 POP POP SWAP3 SWAP2 POP POP JUMP JUMPDEST PUSH1 0x0 DUP2 SWAP1 POP SWAP2 SWAP1 POP JUMP JUMPDEST PUSH3 0x2B3 DUP2 PUSH3 0x29E JUMP JUMPDEST DUP2 EQ PUSH3 0x2BF JUMPI PUSH1 0x0 DUP1 REVERT JUMPDEST POP JUMP JUMPDEST PUSH1 0x0 DUP2 MLOAD SWAP1 POP PUSH3 0x2D3 DUP2 PUSH3 0x2A8 JUMP JUMPDEST SWAP3 SWAP2 POP POP JUMP JUMPDEST PUSH1 0x0 DUP1 PUSH1 0x0 DUP1 PUSH1 0x80 DUP6 DUP8 SUB SLT ISZERO PUSH3 0x2F6 JUMPI PUSH3 0x2F5 PUSH3 0x115 JUMP JUMPDEST JUMPDEST PUSH1 0x0 DUP6 ADD MLOAD PUSH8 0xFFFFFFFFFFFFFFFF DUP2 GT ISZERO PUSH3 0x317 JUMPI PUSH3 0x316 PUSH3 0x11A JUMP JUMPDEST JUMPDEST PUSH3 0x325 DUP8 DUP3 DUP9 ADD PUSH3 0x26B JUMP JUMPDEST SWAP5 POP POP PUSH1 0x20 DUP6 ADD MLOAD PUSH8 0xFFFFFFFFFFFFFFFF DUP2 GT ISZERO PUSH3 0x349 JUMPI PUSH3 0x348 PUSH3 0x11A JUMP JUMPDEST JUMPDEST PUSH3 0x357 DUP8 DUP3 DUP9 ADD PUSH3 0x26B JUMP JUMPDEST SWAP4 POP POP PUSH1 0x40 PUSH3 0x36A DUP8 DUP3 DUP9 ADD PUSH3 0x2C2 JUMP JUMPDEST SWAP3 POP POP PUSH1 0x60 PUSH3 0x37D DUP8 DUP3 DUP9 ADD PUSH3 0x2C2 JUMP JUMPDEST SWAP2 POP POP SWAP3 SWAP6 SWAP2 SWAP5 POP SWAP3 POP JUMP JUMPDEST PUSH1 0x0 DUP3 DUP3 MSTORE PUSH1 0x20 DUP3 ADD SWAP1 POP SWAP3 SWAP2 POP POP JUMP JUMPDEST PUSH32 0x455243373231413A20636F6C6C656374696F6E206D7573742068617665206120 PUSH1 0x0 DUP3 ADD MSTORE PUSH32 0x6E6F6E7A65726F20737570706C79000000000000000000000000000000000000 PUSH1 0x20 DUP3 ADD MSTORE POP JUMP JUMPDEST PUSH1 0x0 PUSH3 0x3F8 PUSH1 0x2E DUP4 PUSH3 0x389 JUMP JUMPDEST SWAP2 POP PUSH3 0x405 DUP3 PUSH3 0x39A JUMP JUMPDEST PUSH1 0x40 DUP3 ADD SWAP1 POP SWAP2 SWAP1 POP JUMP JUMPDEST PUSH1 0x0 PUSH1 0x20 DUP3 ADD SWAP1 POP DUP2 DUP2 SUB PUSH1 0x0 DUP4 ADD MSTORE PUSH3 0x42B DUP2 PUSH3 0x3E9 JUMP JUMPDEST SWAP1 POP SWAP2 SWAP1 POP JUMP JUMPDEST PUSH32 0x455243373231413A206D61782062617463682073697A65206D75737420626520 PUSH1 0x0 DUP3 ADD MSTORE PUSH32 0x6E6F6E7A65726F00000000000000000000000000000000000000000000000000 PUSH1 0x20 DUP3 ADD MSTORE POP JUMP JUMPDEST PUSH1 0x0 PUSH3 0x490 PUSH1 0x27 DUP4 PUSH3 0x389 JUMP JUMPDEST SWAP2 POP PUSH3 0x49D DUP3 PUSH3 0x432 JUMP JUMPDEST PUSH1 0x40 DUP3 ADD SWAP1 POP SWAP2 SWAP1 POP JUMP JUMPDEST PUSH1 0x0 PUSH1 0x20 DUP3 ADD SWAP1 POP DUP2 DUP2 SUB PUSH1 0x0 DUP4 ADD MSTORE PUSH3 0x4C3 DUP2 PUSH3 0x481 JUMP JUMPDEST SWAP1 POP SWAP2 SWAP1 POP JUMP JUMPDEST PUSH1 0x0 DUP2 MLOAD SWAP1 POP SWAP2 SWAP1 POP JUMP JUMPDEST PUSH32 0x4E487B7100000000000000000000000000000000000000000000000000000000 PUSH1 0x0 MSTORE PUSH1 0x22 PUSH1 0x4 MSTORE PUSH1 0x24 PUSH1 0x0 REVERT JUMPDEST PUSH1 0x0 PUSH1 0x2 DUP3 DIV SWAP1 POP PUSH1 0x1 DUP3 AND DUP1 PUSH3 0x51D JUMPI PUSH1 0x7F DUP3 AND SWAP2 POP JUMPDEST PUSH1 0x20 DUP3 LT DUP2 SUB PUSH3 0x533 JUMPI PUSH3 0x532 PUSH3 0x4D5 JUMP JUMPDEST JUMPDEST POP SWAP2 SWAP1 POP JUMP JUMPDEST PUSH1 0x0 DUP2 SWAP1 POP DUP2 PUSH1 0x0 MSTORE PUSH1 0x20 PUSH1 0x0 KECCAK256 SWAP1 POP SWAP2 SWAP1 POP JUMP JUMPDEST PUSH1 0x0 PUSH1 0x20 PUSH1 0x1F DUP4 ADD DIV SWAP1 POP SWAP2 SWAP1 POP JUMP JUMPDEST PUSH1 0x0 DUP3 DUP3 SHL SWAP1 POP SWAP3 SWAP2 POP POP JUMP JUMPDEST PUSH1 0x0 PUSH1 0x8 DUP4 MUL PUSH3 0x59D PUSH32 0xFFFFFFFFFFFFFFFFFFFFFFFFFFFFFFFFFFFFFFFFFFFFFFFFFFFFFFFFFFFFFFFF DUP3 PUSH3 0x55E JUMP JUMPDEST PUSH3 0x5A9 DUP7 DUP4 PUSH3 0x55E JUMP JUMPDEST SWAP6 POP DUP1 NOT DUP5 AND SWAP4 POP DUP1 DUP7 AND DUP5 OR SWAP3 POP POP POP SWAP4 SWAP3 POP POP POP JUMP JUMPDEST PUSH1 0x0 DUP2 SWAP1 POP SWAP2 SWAP1 POP JUMP JUMPDEST PUSH1 0x0 PUSH3 0x5EC PUSH3 0x5E6 PUSH3 0x5E0 DUP5 PUSH3 0x29E JUMP JUMPDEST PUSH3 0x5C1 JUMP JUMPDEST PUSH3 0x29E JUMP JUMPDEST SWAP1 POP SWAP2 SWAP1 POP JUMP JUMPDEST PUSH1 0x0 DUP2 SWAP1 POP SWAP2 SWAP1 POP JUMP JUMPDEST PUSH3 0x608 DUP4 PUSH3 0x5CB JUMP JUMPDEST PUSH3 0x620 PUSH3 0x617 DUP3 PUSH3 0x5F3 JUMP JUMPDEST DUP5 DUP5 SLOAD PUSH3 0x56B JUMP JUMPDEST DUP3 SSTORE POP POP POP POP JUMP JUMPDEST PUSH1 0x0 SWAP1 JUMP JUMPDEST PUSH3 0x637 PUSH3 0x628 JUMP JUMPDEST PUSH3 0x644 DUP2 DUP5 DUP5 PUSH3 0x5FD JUMP JUMPDEST POP POP POP JUMP JUMPDEST JUMPDEST DUP2 DUP2 LT ISZERO PUSH3 0x66C JUMPI PUSH3 0x660 PUSH1 0x0 DUP3 PUSH3 0x62D JUMP JUMPDEST PUSH1 0x1 DUP2 ADD SWAP1 POP PUSH3 0x64A JUMP JUMPDEST POP POP JUMP JUMPDEST PUSH1 0x1F DUP3 GT ISZERO PUSH3 0x6BB JUMPI PUSH3 0x685 DUP2 PUSH3 0x539 JUMP JUMPDEST PUSH3 0x690 DUP5 PUSH3 0x54E JUMP JUMPDEST DUP2 ADD PUSH1 0x20 DUP6 LT ISZERO PUSH3 0x6A0 JUMPI DUP2 SWAP1 POP JUMPDEST PUSH3 0x6B8 PUSH3 0x6AF DUP6 PUSH3 0x54E JUMP JUMPDEST DUP4 ADD DUP3 PUSH3 0x649 JUMP JUMPDEST POP POP JUMPDEST POP POP POP JUMP JUMPDEST PUSH1 0x0 DUP3 DUP3 SHR SWAP1 POP SWAP3 SWAP2 POP POP JUMP JUMPDEST PUSH1 0x0 PUSH3 0x6E0 PUSH1 0x0 NOT DUP5 PUSH1 0x8 MUL PUSH3 0x6C0 JUMP JUMPDEST NOT DUP1 DUP4 AND SWAP2 POP POP SWAP3 SWAP2 POP POP JUMP JUMPDEST PUSH1 0x0 PUSH3 0x6FB DUP4 DUP4 PUSH3 0x6CD JUMP JUMPDEST SWAP2 POP DUP3 PUSH1 0x2 MUL DUP3 OR SWAP1 POP SWAP3 SWAP2 POP POP JUMP JUMPDEST PUSH3 0x716 DUP3 PUSH3 0x4CA JUMP JUMPDEST PUSH8 0xFFFFFFFFFFFFFFFF DUP2 GT ISZERO PUSH3 0x732 JUMPI PUSH3 0x731 PUSH3 0x13A JUMP JUMPDEST JUMPDEST PUSH3 0x73E DUP3 SLOAD PUSH3 0x504 JUMP JUMPDEST PUSH3 0x74B DUP3 DUP3 DUP6 PUSH3 0x670 JUMP JUMPDEST PUSH1 0x0 PUSH1 0x20 SWAP1 POP PUSH1 0x1F DUP4 GT PUSH1 0x1 DUP2 EQ PUSH3 0x783 JUMPI PUSH1 0x0 DUP5 ISZERO PUSH3 0x76E JUMPI DUP3 DUP8 ADD MLOAD SWAP1 POP JUMPDEST PUSH3 0x77A DUP6 DUP3 PUSH3 0x6ED JUMP JUMPDEST DUP7 SSTORE POP PUSH3 0x7EA JUMP JUMPDEST PUSH1 0x1F NOT DUP5 AND PUSH3 0x793 DUP7 PUSH3 0x539 JUMP JUMPDEST PUSH1 0x0 JUMPDEST DUP3 DUP2 LT ISZERO PUSH3 0x7BD JUMPI DUP5 DUP10 ADD MLOAD DUP3 SSTORE PUSH1 0x1 DUP3 ADD SWAP2 POP PUSH1 0x20 DUP6 ADD SWAP5 POP PUSH1 0x20 DUP2 ADD SWAP1 POP PUSH3 0x796 JUMP JUMPDEST DUP7 DUP4 LT ISZERO PUSH3 0x7DD JUMPI DUP5 DUP10 ADD MLOAD PUSH3 0x7D9 PUSH1 0x1F DUP10 AND DUP3 PUSH3 0x6CD JUMP JUMPDEST DUP4 SSTORE POP JUMPDEST PUSH1 0x1 PUSH1 0x2 DUP9 MUL ADD DUP9 SSTORE POP POP POP JUMPDEST POP POP POP POP POP POP JUMP JUMPDEST PUSH1 0x80 MLOAD PUSH1 0xA0 MLOAD PUSH2 0x2D3B PUSH3 0x81C PUSH1 0x0 CODECOPY PUSH1 0x0 DUP2 DUP2 PUSH2 0x158E ADD MSTORE PUSH2 0x15B7 ADD MSTORE PUSH1 0x0 POP POP PUSH2 0x2D3B PUSH1 0x0 RETURN INVALID PUSH1 0x80 PUSH1 0x40 MSTORE CALLVALUE DUP1 ISZERO PUSH2 0x10 JUMPI PUSH1 0x0 DUP1 REVERT JUMPDEST POP PUSH1 0x4 CALLDATASIZE LT PUSH2 0x10B JUMPI PUSH1 0x0 CALLDATALOAD PUSH1 0xE0 SHR DUP1 PUSH4 0x4F6CCCE7 GT PUSH2 0xA2 JUMPI DUP1 PUSH4 0xA22CB465 GT PUSH2 0x71 JUMPI DUP1 PUSH4 0xA22CB465 EQ PUSH2 0x2DE JUMPI DUP1 PUSH4 0xB88D4FDE EQ PUSH2 0x2FA JUMPI DUP1 PUSH4 0xC87B56DD EQ PUSH2 0x316 JUMPI DUP1 PUSH4 0xD7224BA0 EQ PUSH2 0x346 JUMPI DUP1 PUSH4 0xE985E9C5 EQ PUSH2 0x364 JUMPI PUSH2 0x10B JUMP JUMPDEST DUP1 PUSH4 0x4F6CCCE7 EQ PUSH2 0x230 JUMPI DUP1 PUSH4 0x6352211E EQ PUSH2 0x260 JUMPI DUP1 PUSH4 0x70A08231 EQ PUSH2 0x290 JUMPI DUP1 PUSH4 0x95D89B41 EQ PUSH2 0x2C0 JUMPI PUSH2 0x10B JUMP JUMPDEST DUP1 PUSH4 0x18160DDD GT PUSH2 0xDE JUMPI DUP1 PUSH4 0x18160DDD EQ PUSH2 0x1AA JUMPI DUP1 PUSH4 0x23B872DD EQ PUSH2 0x1C8 JUMPI DUP1 PUSH4 0x2F745C59 EQ PUSH2 0x1E4 JUMPI DUP1 PUSH4 0x42842E0E EQ PUSH2 0x214 JUMPI PUSH2 0x10B JUMP JUMPDEST DUP1 PUSH4 0x1FFC9A7 EQ PUSH2 0x110 JUMPI DUP1 PUSH4 0x6FDDE03 EQ PUSH2 0x140 JUMPI DUP1 PUSH4 0x81812FC EQ PUSH2 0x15E JUMPI DUP1 PUSH4 0x95EA7B3 EQ PUSH2 0x18E JUMPI JUMPDEST PUSH1 0x0 DUP1 REVERT JUMPDEST PUSH2 0x12A PUSH1 0x4 DUP1 CALLDATASIZE SUB DUP2 ADD SWAP1 PUSH2 0x125 SWAP2 SWAP1 PUSH2 0x1BD1 JUMP JUMPDEST PUSH2 0x394 JUMP JUMPDEST PUSH1 0x40 MLOAD PUSH2 0x137 SWAP2 SWAP1 PUSH2 0x1C19 JUMP JUMPDEST PUSH1 0x40 MLOAD DUP1 SWAP2 SUB SWAP1 RETURN JUMPDEST PUSH2 0x148 PUSH2 0x4DE JUMP JUMPDEST PUSH1 0x40 MLOAD PUSH2 0x155 SWAP2 SWAP1 PUSH2 0x1CC4 JUMP JUMPDEST PUSH1 0x40 MLOAD DUP1 SWAP2 SUB SWAP1 RETURN JUMPDEST PUSH2 0x178 PUSH1 0x4 DUP1 CALLDATASIZE SUB DUP2 ADD SWAP1 PUSH2 0x173 SWAP2 SWAP1 PUSH2 0x1D1C JUMP JUMPDEST PUSH2 0x570 JUMP JUMPDEST PUSH1 0x40 MLOAD PUSH2 0x185 SWAP2 SWAP1 PUSH2 0x1D8A JUMP JUMPDEST PUSH1 0x40 MLOAD DUP1 SWAP2 SUB SWAP1 RETURN JUMPDEST PUSH2 0x1A8 PUSH1 0x4 DUP1 CALLDATASIZE SUB DUP2 ADD SWAP1 PUSH2 0x1A3 SWAP2 SWAP1 PUSH2 0x1DD1 JUMP JUMPDEST PUSH2 0x5F5 JUMP JUMPDEST STOP JUMPDEST PUSH2 0x1B2 PUSH2 0x70D JUMP JUMPDEST PUSH1 0x40 MLOAD PUSH2 0x1BF SWAP2 SWAP1 PUSH2 0x1E20 JUMP JUMPDEST PUSH1 0x40 MLOAD DUP1 SWAP2 SUB SWAP1 RETURN JUMPDEST PUSH2 0x1E2 PUSH1 0x4 DUP1 CALLDATASIZE SUB DUP2 ADD SWAP1 PUSH2 0x1DD SWAP2 SWAP1 PUSH2 0x1E3B JUMP JUMPDEST PUSH2 0x723 JUMP JUMPDEST STOP JUMPDEST PUSH2 0x1FE PUSH1 0x4 DUP1 CALLDATASIZE SUB DUP2 ADD SWAP1 PUSH2 0x1F9 SWAP2 SWAP1 PUSH2 0x1DD1 JUMP JUMPDEST PUSH2 0x733 JUMP JUMPDEST PUSH1 0x40 MLOAD PUSH2 0x20B SWAP2 SWAP1 PUSH2 0x1E20 JUMP JUMPDEST PUSH1 0x40 MLOAD DUP1 SWAP2 SUB SWAP1 RETURN JUMPDEST PUSH2 0x22E PUSH1 0x4 DUP1 CALLDATASIZE SUB DUP2 ADD SWAP1 PUSH2 0x229 SWAP2 SWAP1 PUSH2 0x1E3B JUMP JUMPDEST PUSH2 0x932 JUMP JUMPDEST STOP JUMPDEST PUSH2 0x24A PUSH1 0x4 DUP1 CALLDATASIZE SUB DUP2 ADD SWAP1 PUSH2 0x245 SWAP2 SWAP1 PUSH2 0x1D1C JUMP JUMPDEST PUSH2 0x952 JUMP JUMPDEST PUSH1 0x40 MLOAD PUSH2 0x257 SWAP2 SWAP1 PUSH2 0x1E20 JUMP JUMPDEST PUSH1 0x40 MLOAD DUP1 SWAP2 SUB SWAP1 RETURN JUMPDEST PUSH2 0x27A PUSH1 0x4 DUP1 CALLDATASIZE SUB DUP2 ADD SWAP1 PUSH2 0x275 SWAP2 SWAP1 PUSH2 0x1D1C JUMP JUMPDEST PUSH2 0x9A5 JUMP JUMPDEST PUSH1 0x40 MLOAD PUSH2 0x287 SWAP2 SWAP1 PUSH2 0x1D8A JUMP JUMPDEST PUSH1 0x40 MLOAD DUP1 SWAP2 SUB SWAP1 RETURN JUMPDEST PUSH2 0x2AA PUSH1 0x4 DUP1 CALLDATASIZE SUB DUP2 ADD SWAP1 PUSH2 0x2A5 SWAP2 SWAP1 PUSH2 0x1E8E JUMP JUMPDEST PUSH2 0x9BB JUMP JUMPDEST PUSH1 0x40 MLOAD PUSH2 0x2B7 SWAP2 SWAP1 PUSH2 0x1E20 JUMP JUMPDEST PUSH1 0x40 MLOAD DUP1 SWAP2 SUB SWAP1 RETURN JUMPDEST PUSH2 0x2C8 PUSH2 0xAA3 JUMP JUMPDEST PUSH1 0x40 MLOAD PUSH2 0x2D5 SWAP2 SWAP1 PUSH2 0x1CC4 JUMP JUMPDEST PUSH1 0x40 MLOAD DUP1 SWAP2 SUB SWAP1 RETURN JUMPDEST PUSH2 0x2F8 PUSH1 0x4 DUP1 CALLDATASIZE SUB DUP2 ADD SWAP1 PUSH2 0x2F3 SWAP2 SWAP1 PUSH2 0x1EE7 JUMP JUMPDEST PUSH2 0xB35 JUMP JUMPDEST STOP JUMPDEST PUSH2 0x314 PUSH1 0x4 DUP1 CALLDATASIZE SUB DUP2 ADD SWAP1 PUSH2 0x30F SWAP2 SWAP1 PUSH2 0x205C JUMP JUMPDEST PUSH2 0xCB5 JUMP JUMPDEST STOP JUMPDEST PUSH2 0x330 PUSH1 0x4 DUP1 CALLDATASIZE SUB DUP2 ADD SWAP1 PUSH2 0x32B SWAP2 SWAP1 PUSH2 0x1D1C JUMP JUMPDEST PUSH2 0xD11 JUMP JUMPDEST PUSH1 0x40 MLOAD PUSH2 0x33D SWAP2 SWAP1 PUSH2 0x1CC4 JUMP JUMPDEST PUSH1 0x40 MLOAD DUP1 SWAP2 SUB SWAP1 RETURN JUMPDEST PUSH2 0x34E PUSH2 0xDB8 JUMP JUMPDEST PUSH1 0x40 MLOAD PUSH2 0x35B SWAP2 SWAP1 PUSH2 0x1E20 JUMP JUMPDEST PUSH1 0x40 MLOAD DUP1 SWAP2 SUB SWAP1 RETURN JUMPDEST PUSH2 0x37E PUSH1 0x4 DUP1 CALLDATASIZE SUB DUP2 ADD SWAP1 PUSH2 0x379 SWAP2 SWAP1 PUSH2 0x20DF JUMP JUMPDEST PUSH2 0xDBE JUMP JUMPDEST PUSH1 0x40 MLOAD PUSH2 0x38B SWAP2 SWAP1 PUSH2 0x1C19 JUMP JUMPDEST PUSH1 0x40 MLOAD DUP1 SWAP2 SUB SWAP1 RETURN JUMPDEST PUSH1 0x0 PUSH32 0x80AC58CD00000000000000000000000000000000000000000000000000000000 PUSH28 0xFFFFFFFFFFFFFFFFFFFFFFFFFFFFFFFFFFFFFFFFFFFFFFFFFFFFFFFF NOT AND DUP3 PUSH28 0xFFFFFFFFFFFFFFFFFFFFFFFFFFFFFFFFFFFFFFFFFFFFFFFFFFFFFFFF NOT AND EQ DUP1 PUSH2 0x45F JUMPI POP PUSH32 0x5B5E139F00000000000000000000000000000000000000000000000000000000 PUSH28 0xFFFFFFFFFFFFFFFFFFFFFFFFFFFFFFFFFFFFFFFFFFFFFFFFFFFFFFFF NOT AND DUP3 PUSH28 0xFFFFFFFFFFFFFFFFFFFFFFFFFFFFFFFFFFFFFFFFFFFFFFFFFFFFFFFF NOT AND EQ JUMPDEST DUP1 PUSH2 0x4C7 JUMPI POP PUSH32 0x780E9D6300000000000000000000000000000000000000000000000000000000 PUSH28 0xFFFFFFFFFFFFFFFFFFFFFFFFFFFFFFFFFFFFFFFFFFFFFFFFFFFFFFFF NOT AND DUP3 PUSH28 0xFFFFFFFFFFFFFFFFFFFFFFFFFFFFFFFFFFFFFFFFFFFFFFFFFFFFFFFF NOT AND EQ JUMPDEST DUP1 PUSH2 0x4D7 JUMPI POP PUSH2 0x4D6 DUP3 PUSH2 0xE52 JUMP JUMPDEST JUMPDEST SWAP1 POP SWAP2 SWAP1 POP JUMP JUMPDEST PUSH1 0x60 PUSH1 0x1 DUP1 SLOAD PUSH2 0x4ED SWAP1 PUSH2 0x214E JUMP JUMPDEST DUP1 PUSH1 0x1F ADD PUSH1 0x20 DUP1 SWAP2 DIV MUL PUSH1 0x20 ADD PUSH1 0x40 MLOAD SWAP1 DUP2 ADD PUSH1 0x40 MSTORE DUP1 SWAP3 SWAP2 SWAP1 DUP2 DUP2 MSTORE PUSH1 0x20 ADD DUP3 DUP1 SLOAD PUSH2 0x519 SWAP1 PUSH2 0x214E JUMP JUMPDEST DUP1 ISZERO PUSH2 0x566 JUMPI DUP1 PUSH1 0x1F LT PUSH2 0x53B JUMPI PUSH2 0x100 DUP1 DUP4 SLOAD DIV MUL DUP4 MSTORE SWAP2 PUSH1 0x20 ADD SWAP2 PUSH2 0x566 JUMP JUMPDEST DUP3 ADD SWAP2 SWAP1 PUSH1 0x0 MSTORE PUSH1 0x20 PUSH1 0x0 KECCAK256 SWAP1 JUMPDEST DUP2 SLOAD DUP2 MSTORE SWAP1 PUSH1 0x1 ADD SWAP1 PUSH1 0x20 ADD DUP1 DUP4 GT PUSH2 0x549 JUMPI DUP3 SWAP1 SUB PUSH1 0x1F AND DUP3 ADD SWAP2 JUMPDEST POP POP POP POP POP SWAP1 POP SWAP1 JUMP JUMPDEST PUSH1 0x0 PUSH2 0x57B DUP3 PUSH2 0xEBC JUMP JUMPDEST PUSH2 0x5BA JUMPI PUSH1 0x40 MLOAD PUSH32 0x8C379A000000000000000000000000000000000000000000000000000000000 DUP2 MSTORE PUSH1 0x4 ADD PUSH2 0x5B1 SWAP1 PUSH2 0x21F1 JUMP JUMPDEST PUSH1 0x40 MLOAD DUP1 SWAP2 SUB SWAP1 REVERT JUMPDEST PUSH1 0x5 PUSH1 0x0 DUP4 DUP2 MSTORE PUSH1 0x20 ADD SWAP1 DUP2 MSTORE PUSH1 0x20 ADD PUSH1 0x0 KECCAK256 PUSH1 0x0 SWAP1 SLOAD SWAP1 PUSH2 0x100 EXP SWAP1 DIV PUSH20 0xFFFFFFFFFFFFFFFFFFFFFFFFFFFFFFFFFFFFFFFF AND SWAP1 POP SWAP2 SWAP1 POP JUMP JUMPDEST PUSH1 0x0 PUSH2 0x600 DUP3 PUSH2 0x9A5 JUMP JUMPDEST SWAP1 POP DUP1 PUSH20 0xFFFFFFFFFFFFFFFFFFFFFFFFFFFFFFFFFFFFFFFF AND DUP4 PUSH20 0xFFFFFFFFFFFFFFFFFFFFFFFFFFFFFFFFFFFFFFFF AND SUB PUSH2 0x670 JUMPI PUSH1 0x40 MLOAD PUSH32 0x8C379A000000000000000000000000000000000000000000000000000000000 DUP2 MSTORE PUSH1 0x4 ADD PUSH2 0x667 SWAP1 PUSH2 0x2283 JUMP JUMPDEST PUSH1 0x40 MLOAD DUP1 SWAP2 SUB SWAP1 REVERT JUMPDEST DUP1 PUSH20 0xFFFFFFFFFFFFFFFFFFFFFFFFFFFFFFFFFFFFFFFF AND PUSH2 0x68F PUSH2 0xEC9 JUMP JUMPDEST PUSH20 0xFFFFFFFFFFFFFFFFFFFFFFFFFFFFFFFFFFFFFFFF AND EQ DUP1 PUSH2 0x6BE JUMPI POP PUSH2 0x6BD DUP2 PUSH2 0x6B8 PUSH2 0xEC9 JUMP JUMPDEST PUSH2 0xDBE JUMP JUMPDEST JUMPDEST PUSH2 0x6FD JUMPI PUSH1 0x40 MLOAD PUSH32 0x8C379A000000000000000000000000000000000000000000000000000000000 DUP2 MSTORE PUSH1 0x4 ADD PUSH2 0x6F4 SWAP1 PUSH2 0x2315 JUMP JUMPDEST PUSH1 0x40 MLOAD DUP1 SWAP2 SUB SWAP1 REVERT JUMPDEST PUSH2 0x708 DUP4 DUP4 DUP4 PUSH2 0xED1 JUMP JUMPDEST POP POP POP JUMP JUMPDEST PUSH1 0x0 PUSH1 0x1 PUSH1 0x0 SLOAD PUSH2 0x71E SWAP2 SWAP1 PUSH2 0x2364 JUMP JUMPDEST SWAP1 POP SWAP1 JUMP JUMPDEST PUSH2 0x72E DUP4 DUP4 DUP4 PUSH2 0xF83 JUMP JUMPDEST POP POP POP JUMP JUMPDEST PUSH1 0x0 PUSH2 0x73E DUP4 PUSH2 0x9BB JUMP JUMPDEST DUP3 LT PUSH2 0x77F JUMPI PUSH1 0x40 MLOAD PUSH32 0x8C379A000000000000000000000000000000000000000000000000000000000 DUP2 MSTORE PUSH1 0x4 ADD PUSH2 0x776 SWAP1 PUSH2 0x240A JUMP JUMPDEST PUSH1 0x40 MLOAD DUP1 SWAP2 SUB SWAP1 REVERT JUMPDEST PUSH1 0x0 PUSH2 0x789 PUSH2 0x70D JUMP JUMPDEST SWAP1 POP PUSH1 0x0 DUP1 PUSH1 0x0 PUSH1 0x1 SWAP1 POP JUMPDEST DUP4 DUP2 GT PUSH2 0x8F0 JUMPI PUSH1 0x0 PUSH1 0x3 PUSH1 0x0 DUP4 DUP2 MSTORE PUSH1 0x20 ADD SWAP1 DUP2 MSTORE PUSH1 0x20 ADD PUSH1 0x0 KECCAK256 PUSH1 0x40 MLOAD DUP1 PUSH1 0x40 ADD PUSH1 0x40 MSTORE SWAP1 DUP2 PUSH1 0x0 DUP3 ADD PUSH1 0x0 SWAP1 SLOAD SWAP1 PUSH2 0x100 EXP SWAP1 DIV PUSH20 0xFFFFFFFFFFFFFFFFFFFFFFFFFFFFFFFFFFFFFFFF AND PUSH20 0xFFFFFFFFFFFFFFFFFFFFFFFFFFFFFFFFFFFFFFFF AND PUSH20 0xFFFFFFFFFFFFFFFFFFFFFFFFFFFFFFFFFFFFFFFF AND DUP2 MSTORE PUSH1 0x20 ADD PUSH1 0x0 DUP3 ADD PUSH1 0x14 SWAP1 SLOAD SWAP1 PUSH2 0x100 EXP SWAP1 DIV PUSH8 0xFFFFFFFFFFFFFFFF AND PUSH8 0xFFFFFFFFFFFFFFFF AND PUSH8 0xFFFFFFFFFFFFFFFF AND DUP2 MSTORE POP POP SWAP1 POP PUSH1 0x0 PUSH20 0xFFFFFFFFFFFFFFFFFFFFFFFFFFFFFFFFFFFFFFFF AND DUP2 PUSH1 0x0 ADD MLOAD PUSH20 0xFFFFFFFFFFFFFFFFFFFFFFFFFFFFFFFFFFFFFFFF AND EQ PUSH2 0x886 JUMPI DUP1 PUSH1 0x0 ADD MLOAD SWAP3 POP JUMPDEST DUP8 PUSH20 0xFFFFFFFFFFFFFFFFFFFFFFFFFFFFFFFFFFFFFFFF AND DUP4 PUSH20 0xFFFFFFFFFFFFFFFFFFFFFFFFFFFFFFFFFFFFFFFF AND SUB PUSH2 0x8DC JUMPI DUP7 DUP5 SUB PUSH2 0x8CD JUMPI DUP2 SWAP6 POP POP POP POP POP POP PUSH2 0x92C JUMP JUMPDEST DUP4 DUP1 PUSH2 0x8D8 SWAP1 PUSH2 0x242A JUMP JUMPDEST SWAP5 POP POP JUMPDEST POP DUP1 DUP1 PUSH2 0x8E8 SWAP1 PUSH2 0x242A JUMP JUMPDEST SWAP2 POP POP PUSH2 0x795 JUMP JUMPDEST POP PUSH1 0x40 MLOAD PUSH32 0x8C379A000000000000000000000000000000000000000000000000000000000 DUP2 MSTORE PUSH1 0x4 ADD PUSH2 0x923 SWAP1 PUSH2 0x24E4 JUMP JUMPDEST PUSH1 0x40 MLOAD DUP1 SWAP2 SUB SWAP1 REVERT JUMPDEST SWAP3 SWAP2 POP POP JUMP JUMPDEST PUSH2 0x94D DUP4 DUP4 DUP4 PUSH1 0x40 MLOAD DUP1 PUSH1 0x20 ADD PUSH1 0x40 MSTORE DUP1 PUSH1 0x0 DUP2 MSTORE POP PUSH2 0xCB5 JUMP JUMPDEST POP POP POP JUMP JUMPDEST PUSH1 0x0 PUSH2 0x95C PUSH2 0x70D JUMP JUMPDEST DUP3 LT PUSH2 0x99D JUMPI PUSH1 0x40 MLOAD PUSH32 0x8C379A000000000000000000000000000000000000000000000000000000000 DUP2 MSTORE PUSH1 0x4 ADD PUSH2 0x994 SWAP1 PUSH2 0x2576 JUMP JUMPDEST PUSH1 0x40 MLOAD DUP1 SWAP2 SUB SWAP1 REVERT JUMPDEST DUP2 SWAP1 POP SWAP2 SWAP1 POP JUMP JUMPDEST PUSH1 0x0 PUSH2 0x9B0 DUP3 PUSH2 0x153A JUMP JUMPDEST PUSH1 0x0 ADD MLOAD SWAP1 POP SWAP2 SWAP1 POP JUMP JUMPDEST PUSH1 0x0 DUP1 PUSH20 0xFFFFFFFFFFFFFFFFFFFFFFFFFFFFFFFFFFFFFFFF AND DUP3 PUSH20 0xFFFFFFFFFFFFFFFFFFFFFFFFFFFFFFFFFFFFFFFF AND SUB PUSH2 0xA2B JUMPI PUSH1 0x40 MLOAD PUSH32 0x8C379A000000000000000000000000000000000000000000000000000000000 DUP2 MSTORE PUSH1 0x4 ADD PUSH2 0xA22 SWAP1 PUSH2 0x2608 JUMP JUMPDEST PUSH1 0x40 MLOAD DUP1 SWAP2 SUB SWAP1 REVERT JUMPDEST PUSH1 0x4 PUSH1 0x0 DUP4 PUSH20 0xFFFFFFFFFFFFFFFFFFFFFFFFFFFFFFFFFFFFFFFF AND PUSH20 0xFFFFFFFFFFFFFFFFFFFFFFFFFFFFFFFFFFFFFFFF AND DUP2 MSTORE PUSH1 0x20 ADD SWAP1 DUP2 MSTORE PUSH1 0x20 ADD PUSH1 0x0 KECCAK256 PUSH1 0x0 ADD PUSH1 0x0 SWAP1 SLOAD SWAP1 PUSH2 0x100 EXP SWAP1 DIV PUSH16 0xFFFFFFFFFFFFFFFFFFFFFFFFFFFFFFFF AND PUSH16 0xFFFFFFFFFFFFFFFFFFFFFFFFFFFFFFFF AND SWAP1 POP SWAP2 SWAP1 POP JUMP JUMPDEST PUSH1 0x60 PUSH1 0x2 DUP1 SLOAD PUSH2 0xAB2 SWAP1 PUSH2 0x214E JUMP JUMPDEST DUP1 PUSH1 0x1F ADD PUSH1 0x20 DUP1 SWAP2 DIV MUL PUSH1 0x20 ADD PUSH1 0x40 MLOAD SWAP1 DUP2 ADD PUSH1 0x40 MSTORE DUP1 SWAP3 SWAP2 SWAP1 DUP2 DUP2 MSTORE PUSH1 0x20 ADD DUP3 DUP1 SLOAD PUSH2 0xADE SWAP1 PUSH2 0x214E JUMP JUMPDEST DUP1 ISZERO PUSH2 0xB2B JUMPI DUP1 PUSH1 0x1F LT PUSH2 0xB00 JUMPI PUSH2 0x100 DUP1 DUP4 SLOAD DIV MUL DUP4 MSTORE SWAP2 PUSH1 0x20 ADD SWAP2 PUSH2 0xB2B JUMP JUMPDEST DUP3 ADD SWAP2 SWAP1 PUSH1 0x0 MSTORE PUSH1 0x20 PUSH1 0x0 KECCAK256 SWAP1 JUMPDEST DUP2 SLOAD DUP2 MSTORE SWAP1 PUSH1 0x1 ADD SWAP1 PUSH1 0x20 ADD DUP1 DUP4 GT PUSH2 0xB0E JUMPI DUP3 SWAP1 SUB PUSH1 0x1F AND DUP3 ADD SWAP2 JUMPDEST POP POP POP POP POP SWAP1 POP SWAP1 JUMP JUMPDEST PUSH2 0xB3D PUSH2 0xEC9 JUMP JUMPDEST PUSH20 0xFFFFFFFFFFFFFFFFFFFFFFFFFFFFFFFFFFFFFFFF AND DUP3 PUSH20 0xFFFFFFFFFFFFFFFFFFFFFFFFFFFFFFFFFFFFFFFF AND SUB PUSH2 0xBAA JUMPI PUSH1 0x40 MLOAD PUSH32 0x8C379A000000000000000000000000000000000000000000000000000000000 DUP2 MSTORE PUSH1 0x4 ADD PUSH2 0xBA1 SWAP1 PUSH2 0x2674 JUMP JUMPDEST PUSH1 0x40 MLOAD DUP1 SWAP2 SUB SWAP1 REVERT JUMPDEST DUP1 PUSH1 0x6 PUSH1 0x0 PUSH2 0xBB7 PUSH2 0xEC9 JUMP JUMPDEST PUSH20 0xFFFFFFFFFFFFFFFFFFFFFFFFFFFFFFFFFFFFFFFF AND PUSH20 0xFFFFFFFFFFFFFFFFFFFFFFFFFFFFFFFFFFFFFFFF AND DUP2 MSTORE PUSH1 0x20 ADD SWAP1 DUP2 MSTORE PUSH1 0x20 ADD PUSH1 0x0 KECCAK256 PUSH1 0x0 DUP5 PUSH20 0xFFFFFFFFFFFFFFFFFFFFFFFFFFFFFFFFFFFFFFFF AND PUSH20 0xFFFFFFFFFFFFFFFFFFFFFFFFFFFFFFFFFFFFFFFF AND DUP2 MSTORE PUSH1 0x20 ADD SWAP1 DUP2 MSTORE PUSH1 0x20 ADD PUSH1 0x0 KECCAK256 PUSH1 0x0 PUSH2 0x100 EXP DUP2 SLOAD DUP2 PUSH1 0xFF MUL NOT AND SWAP1 DUP4 ISZERO ISZERO MUL OR SWAP1 SSTORE POP DUP2 PUSH20 0xFFFFFFFFFFFFFFFFFFFFFFFFFFFFFFFFFFFFFFFF AND PUSH2 0xC64 PUSH2 0xEC9 JUMP JUMPDEST PUSH20 0xFFFFFFFFFFFFFFFFFFFFFFFFFFFFFFFFFFFFFFFF AND PUSH32 0x17307EAB39AB6107E8899845AD3D59BD9653F200F220920489CA2B5937696C31 DUP4 PUSH1 0x40 MLOAD PUSH2 0xCA9 SWAP2 SWAP1 PUSH2 0x1C19 JUMP JUMPDEST PUSH1 0x40 MLOAD DUP1 SWAP2 SUB SWAP1 LOG3 POP POP JUMP JUMPDEST PUSH2 0xCC0 DUP5 DUP5 DUP5 PUSH2 0xF83 JUMP JUMPDEST PUSH2 0xCCC DUP5 DUP5 DUP5 DUP5 PUSH2 0x173D JUMP JUMPDEST PUSH2 0xD0B JUMPI PUSH1 0x40 MLOAD PUSH32 0x8C379A000000000000000000000000000000000000000000000000000000000 DUP2 MSTORE PUSH1 0x4 ADD PUSH2 0xD02 SWAP1 PUSH2 0x2706 JUMP JUMPDEST PUSH1 0x40 MLOAD DUP1 SWAP2 SUB SWAP1 REVERT JUMPDEST POP POP POP POP JUMP JUMPDEST PUSH1 0x60 PUSH2 0xD1C DUP3 PUSH2 0xEBC JUMP JUMPDEST PUSH2 0xD5B JUMPI PUSH1 0x40 MLOAD PUSH32 0x8C379A000000000000000000000000000000000000000000000000000000000 DUP2 MSTORE PUSH1 0x4 ADD PUSH2 0xD52 SWAP1 PUSH2 0x2798 JUMP JUMPDEST PUSH1 0x40 MLOAD DUP1 SWAP2 SUB SWAP1 REVERT JUMPDEST PUSH1 0x0 PUSH2 0xD65 PUSH2 0x18C4 JUMP JUMPDEST SWAP1 POP PUSH1 0x0 DUP2 MLOAD GT PUSH2 0xD85 JUMPI PUSH1 0x40 MLOAD DUP1 PUSH1 0x20 ADD PUSH1 0x40 MSTORE DUP1 PUSH1 0x0 DUP2 MSTORE POP PUSH2 0xDB0 JUMP JUMPDEST DUP1 PUSH2 0xD8F DUP5 PUSH2 0x18DB JUMP JUMPDEST PUSH1 0x40 MLOAD PUSH1 0x20 ADD PUSH2 0xDA0 SWAP3 SWAP2 SWAP1 PUSH2 0x27F4 JUMP JUMPDEST PUSH1 0x40 MLOAD PUSH1 0x20 DUP2 DUP4 SUB SUB DUP2 MSTORE SWAP1 PUSH1 0x40 MSTORE JUMPDEST SWAP2 POP POP SWAP2 SWAP1 POP JUMP JUMPDEST PUSH1 0x7 SLOAD DUP2 JUMP JUMPDEST PUSH1 0x0 PUSH1 0x6 PUSH1 0x0 DUP5 PUSH20 0xFFFFFFFFFFFFFFFFFFFFFFFFFFFFFFFFFFFFFFFF AND PUSH20 0xFFFFFFFFFFFFFFFFFFFFFFFFFFFFFFFFFFFFFFFF AND DUP2 MSTORE PUSH1 0x20 ADD SWAP1 DUP2 MSTORE PUSH1 0x20 ADD PUSH1 0x0 KECCAK256 PUSH1 0x0 DUP4 PUSH20 0xFFFFFFFFFFFFFFFFFFFFFFFFFFFFFFFFFFFFFFFF AND PUSH20 0xFFFFFFFFFFFFFFFFFFFFFFFFFFFFFFFFFFFFFFFF AND DUP2 MSTORE PUSH1 0x20 ADD SWAP1 DUP2 MSTORE PUSH1 0x20 ADD PUSH1 0x0 KECCAK256 PUSH1 0x0 SWAP1 SLOAD SWAP1 PUSH2 0x100 EXP SWAP1 DIV PUSH1 0xFF AND SWAP1 POP SWAP3 SWAP2 POP POP JUMP JUMPDEST PUSH1 0x0 PUSH32 0x1FFC9A700000000000000000000000000000000000000000000000000000000 PUSH28 0xFFFFFFFFFFFFFFFFFFFFFFFFFFFFFFFFFFFFFFFFFFFFFFFFFFFFFFFF NOT AND DUP3 PUSH28 0xFFFFFFFFFFFFFFFFFFFFFFFFFFFFFFFFFFFFFFFFFFFFFFFFFFFFFFFF NOT AND EQ SWAP1 POP SWAP2 SWAP1 POP JUMP JUMPDEST PUSH1 0x0 DUP1 SLOAD DUP3 LT SWAP1 POP SWAP2 SWAP1 POP JUMP JUMPDEST PUSH1 0x0 CALLER SWAP1 POP SWAP1 JUMP JUMPDEST DUP3 PUSH1 0x5 PUSH1 0x0 DUP5 DUP2 MSTORE PUSH1 0x20 ADD SWAP1 DUP2 MSTORE PUSH1 0x20 ADD PUSH1 0x0 KECCAK256 PUSH1 0x0 PUSH2 0x100 EXP DUP2 SLOAD DUP2 PUSH20 0xFFFFFFFFFFFFFFFFFFFFFFFFFFFFFFFFFFFFFFFF MUL NOT AND SWAP1 DUP4 PUSH20 0xFFFFFFFFFFFFFFFFFFFFFFFFFFFFFFFFFFFFFFFF AND MUL OR SWAP1 SSTORE POP DUP2 DUP4 PUSH20 0xFFFFFFFFFFFFFFFFFFFFFFFFFFFFFFFFFFFFFFFF AND DUP3 PUSH20 0xFFFFFFFFFFFFFFFFFFFFFFFFFFFFFFFFFFFFFFFF AND PUSH32 0x8C5BE1E5EBEC7D5BD14F71427D1E84F3DD0314C0F7B2291E5B200AC8C7C3B925 PUSH1 0x40 MLOAD PUSH1 0x40 MLOAD DUP1 SWAP2 SUB SWAP1 LOG4 POP POP POP JUMP JUMPDEST PUSH1 0x0 PUSH2 0xF8E DUP3 PUSH2 0x153A JUMP JUMPDEST SWAP1 POP PUSH1 0x0 DUP2 PUSH1 0x0 ADD MLOAD PUSH20 0xFFFFFFFFFFFFFFFFFFFFFFFFFFFFFFFFFFFFFFFF AND PUSH2 0xFB5 PUSH2 0xEC9 JUMP JUMPDEST PUSH20 0xFFFFFFFFFFFFFFFFFFFFFFFFFFFFFFFFFFFFFFFF AND EQ DUP1 PUSH2 0x1011 JUMPI POP PUSH2 0xFDA PUSH2 0xEC9 JUMP JUMPDEST PUSH20 0xFFFFFFFFFFFFFFFFFFFFFFFFFFFFFFFFFFFFFFFF AND PUSH2 0xFF9 DUP5 PUSH2 0x570 JUMP JUMPDEST PUSH20 0xFFFFFFFFFFFFFFFFFFFFFFFFFFFFFFFFFFFFFFFF AND EQ JUMPDEST DUP1 PUSH2 0x102D JUMPI POP PUSH2 0x102C DUP3 PUSH1 0x0 ADD MLOAD PUSH2 0x1027 PUSH2 0xEC9 JUMP JUMPDEST PUSH2 0xDBE JUMP JUMPDEST JUMPDEST SWAP1 POP DUP1 PUSH2 0x106F JUMPI PUSH1 0x40 MLOAD PUSH32 0x8C379A000000000000000000000000000000000000000000000000000000000 DUP2 MSTORE PUSH1 0x4 ADD PUSH2 0x1066 SWAP1 PUSH2 0x288A JUMP JUMPDEST PUSH1 0x40 MLOAD DUP1 SWAP2 SUB SWAP1 REVERT JUMPDEST DUP5 PUSH20 0xFFFFFFFFFFFFFFFFFFFFFFFFFFFFFFFFFFFFFFFF AND DUP3 PUSH1 0x0 ADD MLOAD PUSH20 0xFFFFFFFFFFFFFFFFFFFFFFFFFFFFFFFFFFFFFFFF AND EQ PUSH2 0x10E1 JUMPI PUSH1 0x40 MLOAD PUSH32 0x8C379A000000000000000000000000000000000000000000000000000000000 DUP2 MSTORE PUSH1 0x4 ADD PUSH2 0x10D8 SWAP1 PUSH2 0x291C JUMP JUMPDEST PUSH1 0x40 MLOAD DUP1 SWAP2 SUB SWAP1 REVERT JUMPDEST PUSH1 0x0 PUSH20 0xFFFFFFFFFFFFFFFFFFFFFFFFFFFFFFFFFFFFFFFF AND DUP5 PUSH20 0xFFFFFFFFFFFFFFFFFFFFFFFFFFFFFFFFFFFFFFFF AND SUB PUSH2 0x1150 JUMPI PUSH1 0x40 MLOAD PUSH32 0x8C379A000000000000000000000000000000000000000000000000000000000 DUP2 MSTORE PUSH1 0x4 ADD PUSH2 0x1147 SWAP1 PUSH2 0x29AE JUMP JUMPDEST PUSH1 0x40 MLOAD DUP1 SWAP2 SUB SWAP1 REVERT JUMPDEST PUSH2 0x115D DUP6 DUP6 DUP6 PUSH1 0x1 PUSH2 0x19A9 JUMP JUMPDEST PUSH2 0x116D PUSH1 0x0 DUP5 DUP5 PUSH1 0x0 ADD MLOAD PUSH2 0xED1 JUMP JUMPDEST PUSH1 0x1 PUSH1 0x4 PUSH1 0x0 DUP8 PUSH20 0xFFFFFFFFFFFFFFFFFFFFFFFFFFFFFFFFFFFFFFFF AND PUSH20 0xFFFFFFFFFFFFFFFFFFFFFFFFFFFFFFFFFFFFFFFF AND DUP2 MSTORE PUSH1 0x20 ADD SWAP1 DUP2 MSTORE PUSH1 0x20 ADD PUSH1 0x0 KECCAK256 PUSH1 0x0 ADD PUSH1 0x0 DUP3 DUP3 DUP3 SWAP1 SLOAD SWAP1 PUSH2 0x100 EXP SWAP1 DIV PUSH16 0xFFFFFFFFFFFFFFFFFFFFFFFFFFFFFFFF AND PUSH2 0x11DB SWAP2 SWAP1 PUSH2 0x29EA JUMP JUMPDEST SWAP3 POP PUSH2 0x100 EXP DUP2 SLOAD DUP2 PUSH16 0xFFFFFFFFFFFFFFFFFFFFFFFFFFFFFFFF MUL NOT AND SWAP1 DUP4 PUSH16 0xFFFFFFFFFFFFFFFFFFFFFFFFFFFFFFFF AND MUL OR SWAP1 SSTORE POP PUSH1 0x1 PUSH1 0x4 PUSH1 0x0 DUP7 PUSH20 0xFFFFFFFFFFFFFFFFFFFFFFFFFFFFFFFFFFFFFFFF AND PUSH20 0xFFFFFFFFFFFFFFFFFFFFFFFFFFFFFFFFFFFFFFFF AND DUP2 MSTORE PUSH1 0x20 ADD SWAP1 DUP2 MSTORE PUSH1 0x20 ADD PUSH1 0x0 KECCAK256 PUSH1 0x0 ADD PUSH1 0x0 DUP3 DUP3 DUP3 SWAP1 SLOAD SWAP1 PUSH2 0x100 EXP SWAP1 DIV PUSH16 0xFFFFFFFFFFFFFFFFFFFFFFFFFFFFFFFF AND PUSH2 0x127F SWAP2 SWAP1 PUSH2 0x2A2E JUMP JUMPDEST SWAP3 POP PUSH2 0x100 EXP DUP2 SLOAD DUP2 PUSH16 0xFFFFFFFFFFFFFFFFFFFFFFFFFFFFFFFF MUL NOT AND SWAP1 DUP4 PUSH16 0xFFFFFFFFFFFFFFFFFFFFFFFFFFFFFFFF AND MUL OR SWAP1 SSTORE POP PUSH1 0x40 MLOAD DUP1 PUSH1 0x40 ADD PUSH1 0x40 MSTORE DUP1 DUP6 PUSH20 0xFFFFFFFFFFFFFFFFFFFFFFFFFFFFFFFFFFFFFFFF AND DUP2 MSTORE PUSH1 0x20 ADD TIMESTAMP PUSH8 0xFFFFFFFFFFFFFFFF AND DUP2 MSTORE POP PUSH1 0x3 PUSH1 0x0 DUP6 DUP2 MSTORE PUSH1 0x20 ADD SWAP1 DUP2 MSTORE PUSH1 0x20 ADD PUSH1 0x0 KECCAK256 PUSH1 0x0 DUP3 ADD MLOAD DUP2 PUSH1 0x0 ADD PUSH1 0x0 PUSH2 0x100 EXP DUP2 SLOAD DUP2 PUSH20 0xFFFFFFFFFFFFFFFFFFFFFFFFFFFFFFFFFFFFFFFF MUL NOT AND SWAP1 DUP4 PUSH20 0xFFFFFFFFFFFFFFFFFFFFFFFFFFFFFFFFFFFFFFFF AND MUL OR SWAP1 SSTORE POP PUSH1 0x20 DUP3 ADD MLOAD DUP2 PUSH1 0x0 ADD PUSH1 0x14 PUSH2 0x100 EXP DUP2 SLOAD DUP2 PUSH8 0xFFFFFFFFFFFFFFFF MUL NOT AND SWAP1 DUP4 PUSH8 0xFFFFFFFFFFFFFFFF AND MUL OR SWAP1 SSTORE POP SWAP1 POP POP PUSH1 0x0 PUSH1 0x1 DUP5 PUSH2 0x1385 SWAP2 SWAP1 PUSH2 0x2A72 JUMP JUMPDEST SWAP1 POP PUSH1 0x0 PUSH20 0xFFFFFFFFFFFFFFFFFFFFFFFFFFFFFFFFFFFFFFFF AND PUSH1 0x3 PUSH1 0x0 DUP4 DUP2 MSTORE PUSH1 0x20 ADD SWAP1 DUP2 MSTORE PUSH1 0x20 ADD PUSH1 0x0 KECCAK256 PUSH1 0x0 ADD PUSH1 0x0 SWAP1 SLOAD SWAP1 PUSH2 0x100 EXP SWAP1 DIV PUSH20 0xFFFFFFFFFFFFFFFFFFFFFFFFFFFFFFFFFFFFFFFF AND PUSH20 0xFFFFFFFFFFFFFFFFFFFFFFFFFFFFFFFFFFFFFFFF AND SUB PUSH2 0x14CA JUMPI PUSH2 0x13FA DUP2 PUSH2 0xEBC JUMP JUMPDEST ISZERO PUSH2 0x14C9 JUMPI PUSH1 0x40 MLOAD DUP1 PUSH1 0x40 ADD PUSH1 0x40 MSTORE DUP1 DUP5 PUSH1 0x0 ADD MLOAD PUSH20 0xFFFFFFFFFFFFFFFFFFFFFFFFFFFFFFFFFFFFFFFF AND DUP2 MSTORE PUSH1 0x20 ADD DUP5 PUSH1 0x20 ADD MLOAD PUSH8 0xFFFFFFFFFFFFFFFF AND DUP2 MSTORE POP PUSH1 0x3 PUSH1 0x0 DUP4 DUP2 MSTORE PUSH1 0x20 ADD SWAP1 DUP2 MSTORE PUSH1 0x20 ADD PUSH1 0x0 KECCAK256 PUSH1 0x0 DUP3 ADD MLOAD DUP2 PUSH1 0x0 ADD PUSH1 0x0 PUSH2 0x100 EXP DUP2 SLOAD DUP2 PUSH20 0xFFFFFFFFFFFFFFFFFFFFFFFFFFFFFFFFFFFFFFFF MUL NOT AND SWAP1 DUP4 PUSH20 0xFFFFFFFFFFFFFFFFFFFFFFFFFFFFFFFFFFFFFFFF AND MUL OR SWAP1 SSTORE POP PUSH1 0x20 DUP3 ADD MLOAD DUP2 PUSH1 0x0 ADD PUSH1 0x14 PUSH2 0x100 EXP DUP2 SLOAD DUP2 PUSH8 0xFFFFFFFFFFFFFFFF MUL NOT AND SWAP1 DUP4 PUSH8 0xFFFFFFFFFFFFFFFF AND MUL OR SWAP1 SSTORE POP SWAP1 POP POP JUMPDEST JUMPDEST DUP4 DUP6 PUSH20 0xFFFFFFFFFFFFFFFFFFFFFFFFFFFFFFFFFFFFFFFF AND DUP8 PUSH20 0xFFFFFFFFFFFFFFFFFFFFFFFFFFFFFFFFFFFFFFFF AND PUSH32 0xDDF252AD1BE2C89B69C2B068FC378DAA952BA7F163C4A11628F55A4DF523B3EF PUSH1 0x40 MLOAD PUSH1 0x40 MLOAD DUP1 SWAP2 SUB SWAP1 LOG4 PUSH2 0x1532 DUP7 DUP7 DUP7 PUSH1 0x1 PUSH2 0x19AF JUMP JUMPDEST POP POP POP POP POP POP JUMP JUMPDEST PUSH2 0x1542 PUSH2 0x1B2B JUMP JUMPDEST PUSH2 0x154B DUP3 PUSH2 0xEBC JUMP JUMPDEST PUSH2 0x158A JUMPI PUSH1 0x40 MLOAD PUSH32 0x8C379A000000000000000000000000000000000000000000000000000000000 DUP2 MSTORE PUSH1 0x4 ADD PUSH2 0x1581 SWAP1 PUSH2 0x2B18 JUMP JUMPDEST PUSH1 0x40 MLOAD DUP1 SWAP2 SUB SWAP1 REVERT JUMPDEST PUSH1 0x0 PUSH32 0x0 DUP4 LT PUSH2 0x15EE JUMPI PUSH1 0x1 PUSH32 0x0 DUP5 PUSH2 0x15E1 SWAP2 SWAP1 PUSH2 0x2364 JUMP JUMPDEST PUSH2 0x15EB SWAP2 SWAP1 PUSH2 0x2A72 JUMP JUMPDEST SWAP1 POP JUMPDEST PUSH1 0x0 DUP4 SWAP1 POP JUMPDEST DUP2 DUP2 LT PUSH2 0x16FC JUMPI PUSH1 0x0 PUSH1 0x3 PUSH1 0x0 DUP4 DUP2 MSTORE PUSH1 0x20 ADD SWAP1 DUP2 MSTORE PUSH1 0x20 ADD PUSH1 0x0 KECCAK256 PUSH1 0x40 MLOAD DUP1 PUSH1 0x40 ADD PUSH1 0x40 MSTORE SWAP1 DUP2 PUSH1 0x0 DUP3 ADD PUSH1 0x0 SWAP1 SLOAD SWAP1 PUSH2 0x100 EXP SWAP1 DIV PUSH20 0xFFFFFFFFFFFFFFFFFFFFFFFFFFFFFFFFFFFFFFFF AND PUSH20 0xFFFFFFFFFFFFFFFFFFFFFFFFFFFFFFFFFFFFFFFF AND PUSH20 0xFFFFFFFFFFFFFFFFFFFFFFFFFFFFFFFFFFFFFFFF AND DUP2 MSTORE PUSH1 0x20 ADD PUSH1 0x0 DUP3 ADD PUSH1 0x14 SWAP1 SLOAD SWAP1 PUSH2 0x100 EXP SWAP1 DIV PUSH8 0xFFFFFFFFFFFFFFFF AND PUSH8 0xFFFFFFFFFFFFFFFF AND PUSH8 0xFFFFFFFFFFFFFFFF AND DUP2 MSTORE POP POP SWAP1 POP PUSH1 0x0 PUSH20 0xFFFFFFFFFFFFFFFFFFFFFFFFFFFFFFFFFFFFFFFF AND DUP2 PUSH1 0x0 ADD MLOAD PUSH20 0xFFFFFFFFFFFFFFFFFFFFFFFFFFFFFFFFFFFFFFFF AND EQ PUSH2 0x16E8 JUMPI DUP1 SWAP4 POP POP POP POP PUSH2 0x1738 JUMP JUMPDEST POP DUP1 DUP1 PUSH2 0x16F4 SWAP1 PUSH2 0x2B38 JUMP JUMPDEST SWAP2 POP POP PUSH2 0x15F4 JUMP JUMPDEST POP PUSH1 0x40 MLOAD PUSH32 0x8C379A000000000000000000000000000000000000000000000000000000000 DUP2 MSTORE PUSH1 0x4 ADD PUSH2 0x172F SWAP1 PUSH2 0x2BD3 JUMP JUMPDEST PUSH1 0x40 MLOAD DUP1 SWAP2 SUB SWAP1 REVERT JUMPDEST SWAP2 SWAP1 POP JUMP JUMPDEST PUSH1 0x0 PUSH2 0x175E DUP5 PUSH20 0xFFFFFFFFFFFFFFFFFFFFFFFFFFFFFFFFFFFFFFFF AND PUSH2 0x19B5 JUMP JUMPDEST ISZERO PUSH2 0x18B7 JUMPI DUP4 PUSH20 0xFFFFFFFFFFFFFFFFFFFFFFFFFFFFFFFFFFFFFFFF AND PUSH4 0x150B7A02 PUSH2 0x1787 PUSH2 0xEC9 JUMP JUMPDEST DUP8 DUP7 DUP7 PUSH1 0x40 MLOAD DUP6 PUSH4 0xFFFFFFFF AND PUSH1 0xE0 SHL DUP2 MSTORE PUSH1 0x4 ADD PUSH2 0x17A9 SWAP5 SWAP4 SWAP3 SWAP2 SWAP1 PUSH2 0x2C48 JUMP JUMPDEST PUSH1 0x20 PUSH1 0x40 MLOAD DUP1 DUP4 SUB DUP2 PUSH1 0x0 DUP8 GAS CALL SWAP3 POP POP POP DUP1 ISZERO PUSH2 0x17E5 JUMPI POP PUSH1 0x40 MLOAD RETURNDATASIZE PUSH1 0x1F NOT PUSH1 0x1F DUP3 ADD AND DUP3 ADD DUP1 PUSH1 0x40 MSTORE POP DUP2 ADD SWAP1 PUSH2 0x17E2 SWAP2 SWAP1 PUSH2 0x2CA9 JUMP JUMPDEST PUSH1 0x1 JUMPDEST PUSH2 0x1867 JUMPI RETURNDATASIZE DUP1 PUSH1 0x0 DUP2 EQ PUSH2 0x1815 JUMPI PUSH1 0x40 MLOAD SWAP2 POP PUSH1 0x1F NOT PUSH1 0x3F RETURNDATASIZE ADD AND DUP3 ADD PUSH1 0x40 MSTORE RETURNDATASIZE DUP3 MSTORE RETURNDATASIZE PUSH1 0x0 PUSH1 0x20 DUP5 ADD RETURNDATACOPY PUSH2 0x181A JUMP JUMPDEST PUSH1 0x60 SWAP2 POP JUMPDEST POP PUSH1 0x0 DUP2 MLOAD SUB PUSH2 0x185F JUMPI PUSH1 0x40 MLOAD PUSH32 0x8C379A000000000000000000000000000000000000000000000000000000000 DUP2 MSTORE PUSH1 0x4 ADD PUSH2 0x1856 SWAP1 PUSH2 0x2706 JUMP JUMPDEST PUSH1 0x40 MLOAD DUP1 SWAP2 SUB SWAP1 REVERT JUMPDEST DUP1 MLOAD DUP2 PUSH1 0x20 ADD REVERT JUMPDEST PUSH4 0x150B7A02 PUSH1 0xE0 SHL PUSH28 0xFFFFFFFFFFFFFFFFFFFFFFFFFFFFFFFFFFFFFFFFFFFFFFFFFFFFFFFF NOT AND DUP2 PUSH28 0xFFFFFFFFFFFFFFFFFFFFFFFFFFFFFFFFFFFFFFFFFFFFFFFFFFFFFFFF NOT AND EQ SWAP2 POP POP PUSH2 0x18BC JUMP JUMPDEST PUSH1 0x1 SWAP1 POP JUMPDEST SWAP5 SWAP4 POP POP POP POP JUMP JUMPDEST PUSH1 0x60 PUSH1 0x40 MLOAD DUP1 PUSH1 0x20 ADD PUSH1 0x40 MSTORE DUP1 PUSH1 0x0 DUP2 MSTORE POP SWAP1 POP SWAP1 JUMP JUMPDEST PUSH1 0x60 PUSH1 0x0 PUSH1 0x1 PUSH2 0x18EA DUP5 PUSH2 0x19D8 JUMP JUMPDEST ADD SWAP1 POP PUSH1 0x0 DUP2 PUSH8 0xFFFFFFFFFFFFFFFF DUP2 GT ISZERO PUSH2 0x1909 JUMPI PUSH2 0x1908 PUSH2 0x1F31 JUMP JUMPDEST JUMPDEST PUSH1 0x40 MLOAD SWAP1 DUP1 DUP3 MSTORE DUP1 PUSH1 0x1F ADD PUSH1 0x1F NOT AND PUSH1 0x20 ADD DUP3 ADD PUSH1 0x40 MSTORE DUP1 ISZERO PUSH2 0x193B JUMPI DUP2 PUSH1 0x20 ADD PUSH1 0x1 DUP3 MUL DUP1 CALLDATASIZE DUP4 CALLDATACOPY DUP1 DUP3 ADD SWAP2 POP POP SWAP1 POP JUMPDEST POP SWAP1 POP PUSH1 0x0 DUP3 PUSH1 0x20 ADD DUP3 ADD SWAP1 POP JUMPDEST PUSH1 0x1 ISZERO PUSH2 0x199E JUMPI DUP1 DUP1 PUSH1 0x1 SWAP1 SUB SWAP2 POP POP PUSH32 0x3031323334353637383961626364656600000000000000000000000000000000 PUSH1 0xA DUP7 MOD BYTE DUP2 MSTORE8 PUSH1 0xA DUP6 DUP2 PUSH2 0x1992 JUMPI PUSH2 0x1991 PUSH2 0x2CD6 JUMP JUMPDEST JUMPDEST DIV SWAP5 POP PUSH1 0x0 DUP6 SUB PUSH2 0x1949 JUMPI JUMPDEST DUP2 SWAP4 POP POP POP POP SWAP2 SWAP1 POP JUMP JUMPDEST POP POP POP POP JUMP JUMPDEST POP POP POP POP JUMP JUMPDEST PUSH1 0x0 DUP1 DUP3 PUSH20 0xFFFFFFFFFFFFFFFFFFFFFFFFFFFFFFFFFFFFFFFF AND EXTCODESIZE GT SWAP1 POP SWAP2 SWAP1 POP JUMP JUMPDEST PUSH1 0x0 DUP1 PUSH1 0x0 SWAP1 POP PUSH27 0x184F03E93FF9F4DAA797ED6E38ED64BF6A1F010000000000000000 DUP4 LT PUSH2 0x1A36 JUMPI PUSH27 0x184F03E93FF9F4DAA797ED6E38ED64BF6A1F010000000000000000 DUP4 DUP2 PUSH2 0x1A2C JUMPI PUSH2 0x1A2B PUSH2 0x2CD6 JUMP JUMPDEST JUMPDEST DIV SWAP3 POP PUSH1 0x40 DUP2 ADD SWAP1 POP JUMPDEST PUSH14 0x4EE2D6D415B85ACEF8100000000 DUP4 LT PUSH2 0x1A73 JUMPI PUSH14 0x4EE2D6D415B85ACEF8100000000 DUP4 DUP2 PUSH2 0x1A69 JUMPI PUSH2 0x1A68 PUSH2 0x2CD6 JUMP JUMPDEST JUMPDEST DIV SWAP3 POP PUSH1 0x20 DUP2 ADD SWAP1 POP JUMPDEST PUSH7 0x2386F26FC10000 DUP4 LT PUSH2 0x1AA2 JUMPI PUSH7 0x2386F26FC10000 DUP4 DUP2 PUSH2 0x1A98 JUMPI PUSH2 0x1A97 PUSH2 0x2CD6 JUMP JUMPDEST JUMPDEST DIV SWAP3 POP PUSH1 0x10 DUP2 ADD SWAP1 POP JUMPDEST PUSH4 0x5F5E100 DUP4 LT PUSH2 0x1ACB JUMPI PUSH4 0x5F5E100 DUP4 DUP2 PUSH2 0x1AC1 JUMPI PUSH2 0x1AC0 PUSH2 0x2CD6 JUMP JUMPDEST JUMPDEST DIV SWAP3 POP PUSH1 0x8 DUP2 ADD SWAP1 POP JUMPDEST PUSH2 0x2710 DUP4 LT PUSH2 0x1AF0 JUMPI PUSH2 0x2710 DUP4 DUP2 PUSH2 0x1AE6 JUMPI PUSH2 0x1AE5 PUSH2 0x2CD6 JUMP JUMPDEST JUMPDEST DIV SWAP3 POP PUSH1 0x4 DUP2 ADD SWAP1 POP JUMPDEST PUSH1 0x64 DUP4 LT PUSH2 0x1B13 JUMPI PUSH1 0x64 DUP4 DUP2 PUSH2 0x1B09 JUMPI PUSH2 0x1B08 PUSH2 0x2CD6 JUMP JUMPDEST JUMPDEST DIV SWAP3 POP PUSH1 0x2 DUP2 ADD SWAP1 POP JUMPDEST PUSH1 0xA DUP4 LT PUSH2 0x1B22 JUMPI PUSH1 0x1 DUP2 ADD SWAP1 POP JUMPDEST DUP1 SWAP2 POP POP SWAP2 SWAP1 POP JUMP JUMPDEST PUSH1 0x40 MLOAD DUP1 PUSH1 0x40 ADD PUSH1 0x40 MSTORE DUP1 PUSH1 0x0 PUSH20 0xFFFFFFFFFFFFFFFFFFFFFFFFFFFFFFFFFFFFFFFF AND DUP2 MSTORE PUSH1 0x20 ADD PUSH1 0x0 PUSH8 0xFFFFFFFFFFFFFFFF AND DUP2 MSTORE POP SWAP1 JUMP JUMPDEST PUSH1 0x0 PUSH1 0x40 MLOAD SWAP1 POP SWAP1 JUMP JUMPDEST PUSH1 0x0 DUP1 REVERT JUMPDEST PUSH1 0x0 DUP1 REVERT JUMPDEST PUSH1 0x0 PUSH32 0xFFFFFFFF00000000000000000000000000000000000000000000000000000000 DUP3 AND SWAP1 POP SWAP2 SWAP1 POP JUMP JUMPDEST PUSH2 0x1BAE DUP2 PUSH2 0x1B79 JUMP JUMPDEST DUP2 EQ PUSH2 0x1BB9 JUMPI PUSH1 0x0 DUP1 REVERT JUMPDEST POP JUMP JUMPDEST PUSH1 0x0 DUP2 CALLDATALOAD SWAP1 POP PUSH2 0x1BCB DUP2 PUSH2 0x1BA5 JUMP JUMPDEST SWAP3 SWAP2 POP POP JUMP JUMPDEST PUSH1 0x0 PUSH1 0x20 DUP3 DUP5 SUB SLT ISZERO PUSH2 0x1BE7 JUMPI PUSH2 0x1BE6 PUSH2 0x1B6F JUMP JUMPDEST JUMPDEST PUSH1 0x0 PUSH2 0x1BF5 DUP5 DUP3 DUP6 ADD PUSH2 0x1BBC JUMP JUMPDEST SWAP2 POP POP SWAP3 SWAP2 POP POP JUMP JUMPDEST PUSH1 0x0 DUP2 ISZERO ISZERO SWAP1 POP SWAP2 SWAP1 POP JUMP JUMPDEST PUSH2 0x1C13 DUP2 PUSH2 0x1BFE JUMP JUMPDEST DUP3 MSTORE POP POP JUMP JUMPDEST PUSH1 0x0 PUSH1 0x20 DUP3 ADD SWAP1 POP PUSH2 0x1C2E PUSH1 0x0 DUP4 ADD DUP5 PUSH2 0x1C0A JUMP JUMPDEST SWAP3 SWAP2 POP POP JUMP JUMPDEST PUSH1 0x0 DUP2 MLOAD SWAP1 POP SWAP2 SWAP1 POP JUMP JUMPDEST PUSH1 0x0 DUP3 DUP3 MSTORE PUSH1 0x20 DUP3 ADD SWAP1 POP SWAP3 SWAP2 POP POP JUMP JUMPDEST PUSH1 0x0 JUMPDEST DUP4 DUP2 LT ISZERO PUSH2 0x1C6E JUMPI DUP1 DUP3 ADD MLOAD DUP2 DUP5 ADD MSTORE PUSH1 0x20 DUP2 ADD SWAP1 POP PUSH2 0x1C53 JUMP JUMPDEST PUSH1 0x0 DUP5 DUP5 ADD MSTORE POP POP POP POP JUMP JUMPDEST PUSH1 0x0 PUSH1 0x1F NOT PUSH1 0x1F DUP4 ADD AND SWAP1 POP SWAP2 SWAP1 POP JUMP JUMPDEST PUSH1 0x0 PUSH2 0x1C96 DUP3 PUSH2 0x1C34 JUMP JUMPDEST PUSH2 0x1CA0 DUP2 DUP6 PUSH2 0x1C3F JUMP JUMPDEST SWAP4 POP PUSH2 0x1CB0 DUP2 DUP6 PUSH1 0x20 DUP7 ADD PUSH2 0x1C50 JUMP JUMPDEST PUSH2 0x1CB9 DUP2 PUSH2 0x1C7A JUMP JUMPDEST DUP5 ADD SWAP2 POP POP SWAP3 SWAP2 POP POP JUMP JUMPDEST PUSH1 0x0 PUSH1 0x20 DUP3 ADD SWAP1 POP DUP2 DUP2 SUB PUSH1 0x0 DUP4 ADD MSTORE PUSH2 0x1CDE DUP2 DUP5 PUSH2 0x1C8B JUMP JUMPDEST SWAP1 POP SWAP3 SWAP2 POP POP JUMP JUMPDEST PUSH1 0x0 DUP2 SWAP1 POP SWAP2 SWAP1 POP JUMP JUMPDEST PUSH2 0x1CF9 DUP2 PUSH2 0x1CE6 JUMP JUMPDEST DUP2 EQ PUSH2 0x1D04 JUMPI PUSH1 0x0 DUP1 REVERT JUMPDEST POP JUMP JUMPDEST PUSH1 0x0 DUP2 CALLDATALOAD SWAP1 POP PUSH2 0x1D16 DUP2 PUSH2 0x1CF0 JUMP JUMPDEST SWAP3 SWAP2 POP POP JUMP JUMPDEST PUSH1 0x0 PUSH1 0x20 DUP3 DUP5 SUB SLT ISZERO PUSH2 0x1D32 JUMPI PUSH2 0x1D31 PUSH2 0x1B6F JUMP JUMPDEST JUMPDEST PUSH1 0x0 PUSH2 0x1D40 DUP5 DUP3 DUP6 ADD PUSH2 0x1D07 JUMP JUMPDEST SWAP2 POP POP SWAP3 SWAP2 POP POP JUMP JUMPDEST PUSH1 0x0 PUSH20 0xFFFFFFFFFFFFFFFFFFFFFFFFFFFFFFFFFFFFFFFF DUP3 AND SWAP1 POP SWAP2 SWAP1 POP JUMP JUMPDEST PUSH1 0x0 PUSH2 0x1D74 DUP3 PUSH2 0x1D49 JUMP JUMPDEST SWAP1 POP SWAP2 SWAP1 POP JUMP JUMPDEST PUSH2 0x1D84 DUP2 PUSH2 0x1D69 JUMP JUMPDEST DUP3 MSTORE POP POP JUMP JUMPDEST PUSH1 0x0 PUSH1 0x20 DUP3 ADD SWAP1 POP PUSH2 0x1D9F PUSH1 0x0 DUP4 ADD DUP5 PUSH2 0x1D7B JUMP JUMPDEST SWAP3 SWAP2 POP POP JUMP JUMPDEST PUSH2 0x1DAE DUP2 PUSH2 0x1D69 JUMP JUMPDEST DUP2 EQ PUSH2 0x1DB9 JUMPI PUSH1 0x0 DUP1 REVERT JUMPDEST POP JUMP JUMPDEST PUSH1 0x0 DUP2 CALLDATALOAD SWAP1 POP PUSH2 0x1DCB DUP2 PUSH2 0x1DA5 JUMP JUMPDEST SWAP3 SWAP2 POP POP JUMP JUMPDEST PUSH1 0x0 DUP1 PUSH1 0x40 DUP4 DUP6 SUB SLT ISZERO PUSH2 0x1DE8 JUMPI PUSH2 0x1DE7 PUSH2 0x1B6F JUMP JUMPDEST JUMPDEST PUSH1 0x0 PUSH2 0x1DF6 DUP6 DUP3 DUP7 ADD PUSH2 0x1DBC JUMP JUMPDEST SWAP3 POP POP PUSH1 0x20 PUSH2 0x1E07 DUP6 DUP3 DUP7 ADD PUSH2 0x1D07 JUMP JUMPDEST SWAP2 POP POP SWAP3 POP SWAP3 SWAP1 POP JUMP JUMPDEST PUSH2 0x1E1A DUP2 PUSH2 0x1CE6 JUMP JUMPDEST DUP3 MSTORE POP POP JUMP JUMPDEST PUSH1 0x0 PUSH1 0x20 DUP3 ADD SWAP1 POP PUSH2 0x1E35 PUSH1 0x0 DUP4 ADD DUP5 PUSH2 0x1E11 JUMP JUMPDEST SWAP3 SWAP2 POP POP JUMP JUMPDEST PUSH1 0x0 DUP1 PUSH1 0x0 PUSH1 0x60 DUP5 DUP7 SUB SLT ISZERO PUSH2 0x1E54 JUMPI PUSH2 0x1E53 PUSH2 0x1B6F JUMP JUMPDEST JUMPDEST PUSH1 0x0 PUSH2 0x1E62 DUP7 DUP3 DUP8 ADD PUSH2 0x1DBC JUMP JUMPDEST SWAP4 POP POP PUSH1 0x20 PUSH2 0x1E73 DUP7 DUP3 DUP8 ADD PUSH2 0x1DBC JUMP JUMPDEST SWAP3 POP POP PUSH1 0x40 PUSH2 0x1E84 DUP7 DUP3 DUP8 ADD PUSH2 0x1D07 JUMP JUMPDEST SWAP2 POP POP SWAP3 POP SWAP3 POP SWAP3 JUMP JUMPDEST PUSH1 0x0 PUSH1 0x20 DUP3 DUP5 SUB SLT ISZERO PUSH2 0x1EA4 JUMPI PUSH2 0x1EA3 PUSH2 0x1B6F JUMP JUMPDEST JUMPDEST PUSH1 0x0 PUSH2 0x1EB2 DUP5 DUP3 DUP6 ADD PUSH2 0x1DBC JUMP JUMPDEST SWAP2 POP POP SWAP3 SWAP2 POP POP JUMP JUMPDEST PUSH2 0x1EC4 DUP2 PUSH2 0x1BFE JUMP JUMPDEST DUP2 EQ PUSH2 0x1ECF JUMPI PUSH1 0x0 DUP1 REVERT JUMPDEST POP JUMP JUMPDEST PUSH1 0x0 DUP2 CALLDATALOAD SWAP1 POP PUSH2 0x1EE1 DUP2 PUSH2 0x1EBB JUMP JUMPDEST SWAP3 SWAP2 POP POP JUMP JUMPDEST PUSH1 0x0 DUP1 PUSH1 0x40 DUP4 DUP6 SUB SLT ISZERO PUSH2 0x1EFE JUMPI PUSH2 0x1EFD PUSH2 0x1B6F JUMP JUMPDEST JUMPDEST PUSH1 0x0 PUSH2 0x1F0C DUP6 DUP3 DUP7 ADD PUSH2 0x1DBC JUMP JUMPDEST SWAP3 POP POP PUSH1 0x20 PUSH2 0x1F1D DUP6 DUP3 DUP7 ADD PUSH2 0x1ED2 JUMP JUMPDEST SWAP2 POP POP SWAP3 POP SWAP3 SWAP1 POP JUMP JUMPDEST PUSH1 0x0 DUP1 REVERT JUMPDEST PUSH1 0x0 DUP1 REVERT JUMPDEST PUSH32 0x4E487B7100000000000000000000000000000000000000000000000000000000 PUSH1 0x0 MSTORE PUSH1 0x41 PUSH1 0x4 MSTORE PUSH1 0x24 PUSH1 0x0 REVERT JUMPDEST PUSH2 0x1F69 DUP3 PUSH2 0x1C7A JUMP JUMPDEST DUP2 ADD DUP2 DUP2 LT PUSH8 0xFFFFFFFFFFFFFFFF DUP3 GT OR ISZERO PUSH2 0x1F88 JUMPI PUSH2 0x1F87 PUSH2 0x1F31 JUMP JUMPDEST JUMPDEST DUP1 PUSH1 0x40 MSTORE POP POP POP JUMP JUMPDEST PUSH1 0x0 PUSH2 0x1F9B PUSH2 0x1B65 JUMP JUMPDEST SWAP1 POP PUSH2 0x1FA7 DUP3 DUP3 PUSH2 0x1F60 JUMP JUMPDEST SWAP2 SWAP1 POP JUMP JUMPDEST PUSH1 0x0 PUSH8 0xFFFFFFFFFFFFFFFF DUP3 GT ISZERO PUSH2 0x1FC7 JUMPI PUSH2 0x1FC6 PUSH2 0x1F31 JUMP JUMPDEST JUMPDEST PUSH2 0x1FD0 DUP3 PUSH2 0x1C7A JUMP JUMPDEST SWAP1 POP PUSH1 0x20 DUP2 ADD SWAP1 POP SWAP2 SWAP1 POP JUMP JUMPDEST DUP3 DUP2 DUP4 CALLDATACOPY PUSH1 0x0 DUP4 DUP4 ADD MSTORE POP POP POP JUMP JUMPDEST PUSH1 0x0 PUSH2 0x1FFF PUSH2 0x1FFA DUP5 PUSH2 0x1FAC JUMP JUMPDEST PUSH2 0x1F91 JUMP JUMPDEST SWAP1 POP DUP3 DUP2 MSTORE PUSH1 0x20 DUP2 ADD DUP5 DUP5 DUP5 ADD GT ISZERO PUSH2 0x201B JUMPI PUSH2 0x201A PUSH2 0x1F2C JUMP JUMPDEST JUMPDEST PUSH2 0x2026 DUP5 DUP3 DUP6 PUSH2 0x1FDD JUMP JUMPDEST POP SWAP4 SWAP3 POP POP POP JUMP JUMPDEST PUSH1 0x0 DUP3 PUSH1 0x1F DUP4 ADD SLT PUSH2 0x2043 JUMPI PUSH2 0x2042 PUSH2 0x1F27 JUMP JUMPDEST JUMPDEST DUP2 CALLDATALOAD PUSH2 0x2053 DUP5 DUP3 PUSH1 0x20 DUP7 ADD PUSH2 0x1FEC JUMP JUMPDEST SWAP2 POP POP SWAP3 SWAP2 POP POP JUMP JUMPDEST PUSH1 0x0 DUP1 PUSH1 0x0 DUP1 PUSH1 0x80 DUP6 DUP8 SUB SLT ISZERO PUSH2 0x2076 JUMPI PUSH2 0x2075 PUSH2 0x1B6F JUMP JUMPDEST JUMPDEST PUSH1 0x0 PUSH2 0x2084 DUP8 DUP3 DUP9 ADD PUSH2 0x1DBC JUMP JUMPDEST SWAP5 POP POP PUSH1 0x20 PUSH2 0x2095 DUP8 DUP3 DUP9 ADD PUSH2 0x1DBC JUMP JUMPDEST SWAP4 POP POP PUSH1 0x40 PUSH2 0x20A6 DUP8 DUP3 DUP9 ADD PUSH2 0x1D07 JUMP JUMPDEST SWAP3 POP POP PUSH1 0x60 DUP6 ADD CALLDATALOAD PUSH8 0xFFFFFFFFFFFFFFFF DUP2 GT ISZERO PUSH2 0x20C7 JUMPI PUSH2 0x20C6 PUSH2 0x1B74 JUMP JUMPDEST JUMPDEST PUSH2 0x20D3 DUP8 DUP3 DUP9 ADD PUSH2 0x202E JUMP JUMPDEST SWAP2 POP POP SWAP3 SWAP6 SWAP2 SWAP5 POP SWAP3 POP JUMP JUMPDEST PUSH1 0x0 DUP1 PUSH1 0x40 DUP4 DUP6 SUB SLT ISZERO PUSH2 0x20F6 JUMPI PUSH2 0x20F5 PUSH2 0x1B6F JUMP JUMPDEST JUMPDEST PUSH1 0x0 PUSH2 0x2104 DUP6 DUP3 DUP7 ADD PUSH2 0x1DBC JUMP JUMPDEST SWAP3 POP POP PUSH1 0x20 PUSH2 0x2115 DUP6 DUP3 DUP7 ADD PUSH2 0x1DBC JUMP JUMPDEST SWAP2 POP POP SWAP3 POP SWAP3 SWAP1 POP JUMP JUMPDEST PUSH32 0x4E487B7100000000000000000000000000000000000000000000000000000000 PUSH1 0x0 MSTORE PUSH1 0x22 PUSH1 0x4 MSTORE PUSH1 0x24 PUSH1 0x0 REVERT JUMPDEST PUSH1 0x0 PUSH1 0x2 DUP3 DIV SWAP1 POP PUSH1 0x1 DUP3 AND DUP1 PUSH2 0x2166 JUMPI PUSH1 0x7F DUP3 AND SWAP2 POP JUMPDEST PUSH1 0x20 DUP3 LT DUP2 SUB PUSH2 0x2179 JUMPI PUSH2 0x2178 PUSH2 0x211F JUMP JUMPDEST JUMPDEST POP SWAP2 SWAP1 POP JUMP JUMPDEST PUSH32 0x455243373231413A20617070726F76656420717565727920666F72206E6F6E65 PUSH1 0x0 DUP3 ADD MSTORE PUSH32 0x78697374656E7420746F6B656E00000000000000000000000000000000000000 PUSH1 0x20 DUP3 ADD MSTORE POP JUMP JUMPDEST PUSH1 0x0 PUSH2 0x21DB PUSH1 0x2D DUP4 PUSH2 0x1C3F JUMP JUMPDEST SWAP2 POP PUSH2 0x21E6 DUP3 PUSH2 0x217F JUMP JUMPDEST PUSH1 0x40 DUP3 ADD SWAP1 POP SWAP2 SWAP1 POP JUMP JUMPDEST PUSH1 0x0 PUSH1 0x20 DUP3 ADD SWAP1 POP DUP2 DUP2 SUB PUSH1 0x0 DUP4 ADD MSTORE PUSH2 0x220A DUP2 PUSH2 0x21CE JUMP JUMPDEST SWAP1 POP SWAP2 SWAP1 POP JUMP JUMPDEST PUSH32 0x455243373231413A20617070726F76616C20746F2063757272656E74206F776E PUSH1 0x0 DUP3 ADD MSTORE PUSH32 0x6572000000000000000000000000000000000000000000000000000000000000 PUSH1 0x20 DUP3 ADD MSTORE POP JUMP JUMPDEST PUSH1 0x0 PUSH2 0x226D PUSH1 0x22 DUP4 PUSH2 0x1C3F JUMP JUMPDEST SWAP2 POP PUSH2 0x2278 DUP3 PUSH2 0x2211 JUMP JUMPDEST PUSH1 0x40 DUP3 ADD SWAP1 POP SWAP2 SWAP1 POP JUMP JUMPDEST PUSH1 0x0 PUSH1 0x20 DUP3 ADD SWAP1 POP DUP2 DUP2 SUB PUSH1 0x0 DUP4 ADD MSTORE PUSH2 0x229C DUP2 PUSH2 0x2260 JUMP JUMPDEST SWAP1 POP SWAP2 SWAP1 POP JUMP JUMPDEST PUSH32 0x455243373231413A20617070726F76652063616C6C6572206973206E6F74206F PUSH1 0x0 DUP3 ADD MSTORE PUSH32 0x776E6572206E6F7220617070726F76656420666F7220616C6C00000000000000 PUSH1 0x20 DUP3 ADD MSTORE POP JUMP JUMPDEST PUSH1 0x0 PUSH2 0x22FF PUSH1 0x39 DUP4 PUSH2 0x1C3F JUMP JUMPDEST SWAP2 POP PUSH2 0x230A DUP3 PUSH2 0x22A3 JUMP JUMPDEST PUSH1 0x40 DUP3 ADD SWAP1 POP SWAP2 SWAP1 POP JUMP JUMPDEST PUSH1 0x0 PUSH1 0x20 DUP3 ADD SWAP1 POP DUP2 DUP2 SUB PUSH1 0x0 DUP4 ADD MSTORE PUSH2 0x232E DUP2 PUSH2 0x22F2 JUMP JUMPDEST SWAP1 POP SWAP2 SWAP1 POP JUMP JUMPDEST PUSH32 0x4E487B7100000000000000000000000000000000000000000000000000000000 PUSH1 0x0 MSTORE PUSH1 0x11 PUSH1 0x4 MSTORE PUSH1 0x24 PUSH1 0x0 REVERT JUMPDEST PUSH1 0x0 PUSH2 0x236F DUP3 PUSH2 0x1CE6 JUMP JUMPDEST SWAP2 POP PUSH2 0x237A DUP4 PUSH2 0x1CE6 JUMP JUMPDEST SWAP3 POP DUP3 DUP3 SUB SWAP1 POP DUP2 DUP2 GT ISZERO PUSH2 0x2392 JUMPI PUSH2 0x2391 PUSH2 0x2335 JUMP JUMPDEST JUMPDEST SWAP3 SWAP2 POP POP JUMP JUMPDEST PUSH32 0x455243373231413A206F776E657220696E646578206F7574206F6620626F756E PUSH1 0x0 DUP3 ADD MSTORE PUSH32 0x6473000000000000000000000000000000000000000000000000000000000000 PUSH1 0x20 DUP3 ADD MSTORE POP JUMP JUMPDEST PUSH1 0x0 PUSH2 0x23F4 PUSH1 0x22 DUP4 PUSH2 0x1C3F JUMP JUMPDEST SWAP2 POP PUSH2 0x23FF DUP3 PUSH2 0x2398 JUMP JUMPDEST PUSH1 0x40 DUP3 ADD SWAP1 POP SWAP2 SWAP1 POP JUMP JUMPDEST PUSH1 0x0 PUSH1 0x20 DUP3 ADD SWAP1 POP DUP2 DUP2 SUB PUSH1 0x0 DUP4 ADD MSTORE PUSH2 0x2423 DUP2 PUSH2 0x23E7 JUMP JUMPDEST SWAP1 POP SWAP2 SWAP1 POP JUMP JUMPDEST PUSH1 0x0 PUSH2 0x2435 DUP3 PUSH2 0x1CE6 JUMP JUMPDEST SWAP2 POP PUSH32 0xFFFFFFFFFFFFFFFFFFFFFFFFFFFFFFFFFFFFFFFFFFFFFFFFFFFFFFFFFFFFFFFF DUP3 SUB PUSH2 0x2467 JUMPI PUSH2 0x2466 PUSH2 0x2335 JUMP JUMPDEST JUMPDEST PUSH1 0x1 DUP3 ADD SWAP1 POP SWAP2 SWAP1 POP JUMP JUMPDEST PUSH32 0x455243373231413A20756E61626C6520746F2067657420746F6B656E206F6620 PUSH1 0x0 DUP3 ADD MSTORE PUSH32 0x6F776E657220627920696E646578000000000000000000000000000000000000 PUSH1 0x20 DUP3 ADD MSTORE POP JUMP JUMPDEST PUSH1 0x0 PUSH2 0x24CE PUSH1 0x2E DUP4 PUSH2 0x1C3F JUMP JUMPDEST SWAP2 POP PUSH2 0x24D9 DUP3 PUSH2 0x2472 JUMP JUMPDEST PUSH1 0x40 DUP3 ADD SWAP1 POP SWAP2 SWAP1 POP JUMP JUMPDEST PUSH1 0x0 PUSH1 0x20 DUP3 ADD SWAP1 POP DUP2 DUP2 SUB PUSH1 0x0 DUP4 ADD MSTORE PUSH2 0x24FD DUP2 PUSH2 0x24C1 JUMP JUMPDEST SWAP1 POP SWAP2 SWAP1 POP JUMP JUMPDEST PUSH32 0x455243373231413A20676C6F62616C20696E646578206F7574206F6620626F75 PUSH1 0x0 DUP3 ADD MSTORE PUSH32 0x6E64730000000000000000000000000000000000000000000000000000000000 PUSH1 0x20 DUP3 ADD MSTORE POP JUMP JUMPDEST PUSH1 0x0 PUSH2 0x2560 PUSH1 0x23 DUP4 PUSH2 0x1C3F JUMP JUMPDEST SWAP2 POP PUSH2 0x256B DUP3 PUSH2 0x2504 JUMP JUMPDEST PUSH1 0x40 DUP3 ADD SWAP1 POP SWAP2 SWAP1 POP JUMP JUMPDEST PUSH1 0x0 PUSH1 0x20 DUP3 ADD SWAP1 POP DUP2 DUP2 SUB PUSH1 0x0 DUP4 ADD MSTORE PUSH2 0x258F DUP2 PUSH2 0x2553 JUMP JUMPDEST SWAP1 POP SWAP2 SWAP1 POP JUMP JUMPDEST PUSH32 0x455243373231413A2062616C616E636520717565727920666F7220746865207A PUSH1 0x0 DUP3 ADD MSTORE PUSH32 0x65726F2061646472657373000000000000000000000000000000000000000000 PUSH1 0x20 DUP3 ADD MSTORE POP JUMP JUMPDEST PUSH1 0x0 PUSH2 0x25F2 PUSH1 0x2B DUP4 PUSH2 0x1C3F JUMP JUMPDEST SWAP2 POP PUSH2 0x25FD DUP3 PUSH2 0x2596 JUMP JUMPDEST PUSH1 0x40 DUP3 ADD SWAP1 POP SWAP2 SWAP1 POP JUMP JUMPDEST PUSH1 0x0 PUSH1 0x20 DUP3 ADD SWAP1 POP DUP2 DUP2 SUB PUSH1 0x0 DUP4 ADD MSTORE PUSH2 0x2621 DUP2 PUSH2 0x25E5 JUMP JUMPDEST SWAP1 POP SWAP2 SWAP1 POP JUMP JUMPDEST PUSH32 0x455243373231413A20617070726F766520746F2063616C6C6572000000000000 PUSH1 0x0 DUP3 ADD MSTORE POP JUMP JUMPDEST PUSH1 0x0 PUSH2 0x265E PUSH1 0x1A DUP4 PUSH2 0x1C3F JUMP JUMPDEST SWAP2 POP PUSH2 0x2669 DUP3 PUSH2 0x2628 JUMP JUMPDEST PUSH1 0x20 DUP3 ADD SWAP1 POP SWAP2 SWAP1 POP JUMP JUMPDEST PUSH1 0x0 PUSH1 0x20 DUP3 ADD SWAP1 POP DUP2 DUP2 SUB PUSH1 0x0 DUP4 ADD MSTORE PUSH2 0x268D DUP2 PUSH2 0x2651 JUMP JUMPDEST SWAP1 POP SWAP2 SWAP1 POP JUMP JUMPDEST PUSH32 0x455243373231413A207472616E7366657220746F206E6F6E2045524337323152 PUSH1 0x0 DUP3 ADD MSTORE PUSH32 0x6563656976657220696D706C656D656E74657200000000000000000000000000 PUSH1 0x20 DUP3 ADD MSTORE POP JUMP JUMPDEST PUSH1 0x0 PUSH2 0x26F0 PUSH1 0x33 DUP4 PUSH2 0x1C3F JUMP JUMPDEST SWAP2 POP PUSH2 0x26FB DUP3 PUSH2 0x2694 JUMP JUMPDEST PUSH1 0x40 DUP3 ADD SWAP1 POP SWAP2 SWAP1 POP JUMP JUMPDEST PUSH1 0x0 PUSH1 0x20 DUP3 ADD SWAP1 POP DUP2 DUP2 SUB PUSH1 0x0 DUP4 ADD MSTORE PUSH2 0x271F DUP2 PUSH2 0x26E3 JUMP JUMPDEST SWAP1 POP SWAP2 SWAP1 POP JUMP JUMPDEST PUSH32 0x4552433732314D657461646174613A2055524920717565727920666F72206E6F PUSH1 0x0 DUP3 ADD MSTORE PUSH32 0x6E6578697374656E7420746F6B656E0000000000000000000000000000000000 PUSH1 0x20 DUP3 ADD MSTORE POP JUMP JUMPDEST PUSH1 0x0 PUSH2 0x2782 PUSH1 0x2F DUP4 PUSH2 0x1C3F JUMP JUMPDEST SWAP2 POP PUSH2 0x278D DUP3 PUSH2 0x2726 JUMP JUMPDEST PUSH1 0x40 DUP3 ADD SWAP1 POP SWAP2 SWAP1 POP JUMP JUMPDEST PUSH1 0x0 PUSH1 0x20 DUP3 ADD SWAP1 POP DUP2 DUP2 SUB PUSH1 0x0 DUP4 ADD MSTORE PUSH2 0x27B1 DUP2 PUSH2 0x2775 JUMP JUMPDEST SWAP1 POP SWAP2 SWAP1 POP JUMP JUMPDEST PUSH1 0x0 DUP2 SWAP1 POP SWAP3 SWAP2 POP POP JUMP JUMPDEST PUSH1 0x0 PUSH2 0x27CE DUP3 PUSH2 0x1C34 JUMP JUMPDEST PUSH2 0x27D8 DUP2 DUP6 PUSH2 0x27B8 JUMP JUMPDEST SWAP4 POP PUSH2 0x27E8 DUP2 DUP6 PUSH1 0x20 DUP7 ADD PUSH2 0x1C50 JUMP JUMPDEST DUP1 DUP5 ADD SWAP2 POP POP SWAP3 SWAP2 POP POP JUMP JUMPDEST PUSH1 0x0 PUSH2 0x2800 DUP3 DUP6 PUSH2 0x27C3 JUMP JUMPDEST SWAP2 POP PUSH2 0x280C DUP3 DUP5 PUSH2 0x27C3 JUMP JUMPDEST SWAP2 POP DUP2 SWAP1 POP SWAP4 SWAP3 POP POP POP JUMP JUMPDEST PUSH32 0x455243373231413A207472616E736665722063616C6C6572206973206E6F7420 PUSH1 0x0 DUP3 ADD MSTORE PUSH32 0x6F776E6572206E6F7220617070726F7665640000000000000000000000000000 PUSH1 0x20 DUP3 ADD MSTORE POP JUMP JUMPDEST PUSH1 0x0 PUSH2 0x2874 PUSH1 0x32 DUP4 PUSH2 0x1C3F JUMP JUMPDEST SWAP2 POP PUSH2 0x287F DUP3 PUSH2 0x2818 JUMP JUMPDEST PUSH1 0x40 DUP3 ADD SWAP1 POP SWAP2 SWAP1 POP JUMP JUMPDEST PUSH1 0x0 PUSH1 0x20 DUP3 ADD SWAP1 POP DUP2 DUP2 SUB PUSH1 0x0 DUP4 ADD MSTORE PUSH2 0x28A3 DUP2 PUSH2 0x2867 JUMP JUMPDEST SWAP1 POP SWAP2 SWAP1 POP JUMP JUMPDEST PUSH32 0x455243373231413A207472616E736665722066726F6D20696E636F7272656374 PUSH1 0x0 DUP3 ADD MSTORE PUSH32 0x206F776E65720000000000000000000000000000000000000000000000000000 PUSH1 0x20 DUP3 ADD MSTORE POP JUMP JUMPDEST PUSH1 0x0 PUSH2 0x2906 PUSH1 0x26 DUP4 PUSH2 0x1C3F JUMP JUMPDEST SWAP2 POP PUSH2 0x2911 DUP3 PUSH2 0x28AA JUMP JUMPDEST PUSH1 0x40 DUP3 ADD SWAP1 POP SWAP2 SWAP1 POP JUMP JUMPDEST PUSH1 0x0 PUSH1 0x20 DUP3 ADD SWAP1 POP DUP2 DUP2 SUB PUSH1 0x0 DUP4 ADD MSTORE PUSH2 0x2935 DUP2 PUSH2 0x28F9 JUMP JUMPDEST SWAP1 POP SWAP2 SWAP1 POP JUMP JUMPDEST PUSH32 0x455243373231413A207472616E7366657220746F20746865207A65726F206164 PUSH1 0x0 DUP3 ADD MSTORE PUSH32 0x6472657373000000000000000000000000000000000000000000000000000000 PUSH1 0x20 DUP3 ADD MSTORE POP JUMP JUMPDEST PUSH1 0x0 PUSH2 0x2998 PUSH1 0x25 DUP4 PUSH2 0x1C3F JUMP JUMPDEST SWAP2 POP PUSH2 0x29A3 DUP3 PUSH2 0x293C JUMP JUMPDEST PUSH1 0x40 DUP3 ADD SWAP1 POP SWAP2 SWAP1 POP JUMP JUMPDEST PUSH1 0x0 PUSH1 0x20 DUP3 ADD SWAP1 POP DUP2 DUP2 SUB PUSH1 0x0 DUP4 ADD MSTORE PUSH2 0x29C7 DUP2 PUSH2 0x298B JUMP JUMPDEST SWAP1 POP SWAP2 SWAP1 POP JUMP JUMPDEST PUSH1 0x0 PUSH16 0xFFFFFFFFFFFFFFFFFFFFFFFFFFFFFFFF DUP3 AND SWAP1 POP SWAP2 SWAP1 POP JUMP JUMPDEST PUSH1 0x0 PUSH2 0x29F5 DUP3 PUSH2 0x29CE JUMP JUMPDEST SWAP2 POP PUSH2 0x2A00 DUP4 PUSH2 0x29CE JUMP JUMPDEST SWAP3 POP DUP3 DUP3 SUB SWAP1 POP PUSH16 0xFFFFFFFFFFFFFFFFFFFFFFFFFFFFFFFF DUP2 GT ISZERO PUSH2 0x2A28 JUMPI PUSH2 0x2A27 PUSH2 0x2335 JUMP JUMPDEST JUMPDEST SWAP3 SWAP2 POP POP JUMP JUMPDEST PUSH1 0x0 PUSH2 0x2A39 DUP3 PUSH2 0x29CE JUMP JUMPDEST SWAP2 POP PUSH2 0x2A44 DUP4 PUSH2 0x29CE JUMP JUMPDEST SWAP3 POP DUP3 DUP3 ADD SWAP1 POP PUSH16 0xFFFFFFFFFFFFFFFFFFFFFFFFFFFFFFFF DUP2 GT ISZERO PUSH2 0x2A6C JUMPI PUSH2 0x2A6B PUSH2 0x2335 JUMP JUMPDEST JUMPDEST SWAP3 SWAP2 POP POP JUMP JUMPDEST PUSH1 0x0 PUSH2 0x2A7D DUP3 PUSH2 0x1CE6 JUMP JUMPDEST SWAP2 POP PUSH2 0x2A88 DUP4 PUSH2 0x1CE6 JUMP JUMPDEST SWAP3 POP DUP3 DUP3 ADD SWAP1 POP DUP1 DUP3 GT ISZERO PUSH2 0x2AA0 JUMPI PUSH2 0x2A9F PUSH2 0x2335 JUMP JUMPDEST JUMPDEST SWAP3 SWAP2 POP POP JUMP JUMPDEST PUSH32 0x455243373231413A206F776E657220717565727920666F72206E6F6E65786973 PUSH1 0x0 DUP3 ADD MSTORE PUSH32 0x74656E7420746F6B656E00000000000000000000000000000000000000000000 PUSH1 0x20 DUP3 ADD MSTORE POP JUMP JUMPDEST PUSH1 0x0 PUSH2 0x2B02 PUSH1 0x2A DUP4 PUSH2 0x1C3F JUMP JUMPDEST SWAP2 POP PUSH2 0x2B0D DUP3 PUSH2 0x2AA6 JUMP JUMPDEST PUSH1 0x40 DUP3 ADD SWAP1 POP SWAP2 SWAP1 POP JUMP JUMPDEST PUSH1 0x0 PUSH1 0x20 DUP3 ADD SWAP1 POP DUP2 DUP2 SUB PUSH1 0x0 DUP4 ADD MSTORE PUSH2 0x2B31 DUP2 PUSH2 0x2AF5 JUMP JUMPDEST SWAP1 POP SWAP2 SWAP1 POP JUMP JUMPDEST PUSH1 0x0 PUSH2 0x2B43 DUP3 PUSH2 0x1CE6 JUMP JUMPDEST SWAP2 POP PUSH1 0x0 DUP3 SUB PUSH2 0x2B56 JUMPI PUSH2 0x2B55 PUSH2 0x2335 JUMP JUMPDEST JUMPDEST PUSH1 0x1 DUP3 SUB SWAP1 POP SWAP2 SWAP1 POP JUMP JUMPDEST PUSH32 0x455243373231413A20756E61626C6520746F2064657465726D696E6520746865 PUSH1 0x0 DUP3 ADD MSTORE PUSH32 0x206F776E6572206F6620746F6B656E0000000000000000000000000000000000 PUSH1 0x20 DUP3 ADD MSTORE POP JUMP JUMPDEST PUSH1 0x0 PUSH2 0x2BBD PUSH1 0x2F DUP4 PUSH2 0x1C3F JUMP JUMPDEST SWAP2 POP PUSH2 0x2BC8 DUP3 PUSH2 0x2B61 JUMP JUMPDEST PUSH1 0x40 DUP3 ADD SWAP1 POP SWAP2 SWAP1 POP JUMP JUMPDEST PUSH1 0x0 PUSH1 0x20 DUP3 ADD SWAP1 POP DUP2 DUP2 SUB PUSH1 0x0 DUP4 ADD MSTORE PUSH2 0x2BEC DUP2 PUSH2 0x2BB0 JUMP JUMPDEST SWAP1 POP SWAP2 SWAP1 POP JUMP JUMPDEST PUSH1 0x0 DUP2 MLOAD SWAP1 POP SWAP2 SWAP1 POP JUMP JUMPDEST PUSH1 0x0 DUP3 DUP3 MSTORE PUSH1 0x20 DUP3 ADD SWAP1 POP SWAP3 SWAP2 POP POP JUMP JUMPDEST PUSH1 0x0 PUSH2 0x2C1A DUP3 PUSH2 0x2BF3 JUMP JUMPDEST PUSH2 0x2C24 DUP2 DUP6 PUSH2 0x2BFE JUMP JUMPDEST SWAP4 POP PUSH2 0x2C34 DUP2 DUP6 PUSH1 0x20 DUP7 ADD PUSH2 0x1C50 JUMP JUMPDEST PUSH2 0x2C3D DUP2 PUSH2 0x1C7A JUMP JUMPDEST DUP5 ADD SWAP2 POP POP SWAP3 SWAP2 POP POP JUMP JUMPDEST PUSH1 0x0 PUSH1 0x80 DUP3 ADD SWAP1 POP PUSH2 0x2C5D PUSH1 0x0 DUP4 ADD DUP8 PUSH2 0x1D7B JUMP JUMPDEST PUSH2 0x2C6A PUSH1 0x20 DUP4 ADD DUP7 PUSH2 0x1D7B JUMP JUMPDEST PUSH2 0x2C77 PUSH1 0x40 DUP4 ADD DUP6 PUSH2 0x1E11 JUMP JUMPDEST DUP2 DUP2 SUB PUSH1 0x60 DUP4 ADD MSTORE PUSH2 0x2C89 DUP2 DUP5 PUSH2 0x2C0F JUMP JUMPDEST SWAP1 POP SWAP6 SWAP5 POP POP POP POP POP JUMP JUMPDEST PUSH1 0x0 DUP2 MLOAD SWAP1 POP PUSH2 0x2CA3 DUP2 PUSH2 0x1BA5 JUMP JUMPDEST SWAP3 SWAP2 POP POP JUMP JUMPDEST PUSH1 0x0 PUSH1 0x20 DUP3 DUP5 SUB SLT ISZERO PUSH2 0x2CBF JUMPI PUSH2 0x2CBE PUSH2 0x1B6F JUMP JUMPDEST JUMPDEST PUSH1 0x0 PUSH2 0x2CCD DUP5 DUP3 DUP6 ADD PUSH2 0x2C94 JUMP JUMPDEST SWAP2 POP POP SWAP3 SWAP2 POP POP JUMP JUMPDEST PUSH32 0x4E487B7100000000000000000000000000000000000000000000000000000000 PUSH1 0x0 MSTORE PUSH1 0x12 PUSH1 0x4 MSTORE PUSH1 0x24 PUSH1 0x0 REVERT INVALID LOG2 PUSH5 0x6970667358 0x22 SLT KECCAK256 0xCB PUSH4 0x6FA791CD BASEFEE 0xEC INVALID PUSH16 0x682A0B9CC7C8EC177BBBC552FE6A93C5 PUSH31 0xC432D4D7AF64736F6C63430008110033000000000000000000000000000000 "
				},
				"gasEstimates": {
					"creation": {
						"codeDepositCost": "2315800",
						"executionCost": "infinite",
						"totalCost": "infinite"
					},
					"external": {
						"approve(address,uint256)": "infinite",
						"balanceOf(address)": "2991",
						"getApproved(uint256)": "5099",
						"isApprovedForAll(address,address)": "infinite",
						"name()": "infinite",
						"nextOwnerToExplicitlySet()": "2517",
						"ownerOf(uint256)": "infinite",
						"safeTransferFrom(address,address,uint256)": "infinite",
						"safeTransferFrom(address,address,uint256,bytes)": "infinite",
						"setApprovalForAll(address,bool)": "infinite",
						"supportsInterface(bytes4)": "843",
						"symbol()": "infinite",
						"tokenByIndex(uint256)": "infinite",
						"tokenOfOwnerByIndex(address,uint256)": "infinite",
						"tokenURI(uint256)": "3258",
						"totalSupply()": "infinite",
						"transferFrom(address,address,uint256)": "infinite"
					},
					"internal": {
						"_afterTokenTransfers(address,address,uint256,uint256)": "17",
						"_approve(address,uint256,address)": "26292",
						"_baseURI()": "infinite",
						"_beforeTokenTransfers(address,address,uint256,uint256)": "17",
						"_checkOnERC721Received(address,address,uint256,bytes memory)": "infinite",
						"_exists(uint256)": "2134",
						"_numberMinted(address)": "infinite",
						"_safeMint(address,uint256)": "infinite",
						"_safeMint(address,uint256,bytes memory)": "infinite",
						"_setOwnersExplicit(uint256)": "infinite",
						"_transfer(address,address,uint256)": "infinite",
						"ownershipOf(uint256)": "infinite"
					}
				},
				"methodIdentifiers": {
					"approve(address,uint256)": "095ea7b3",
					"balanceOf(address)": "70a08231",
					"getApproved(uint256)": "081812fc",
					"isApprovedForAll(address,address)": "e985e9c5",
					"name()": "06fdde03",
					"nextOwnerToExplicitlySet()": "d7224ba0",
					"ownerOf(uint256)": "6352211e",
					"safeTransferFrom(address,address,uint256)": "42842e0e",
					"safeTransferFrom(address,address,uint256,bytes)": "b88d4fde",
					"setApprovalForAll(address,bool)": "a22cb465",
					"supportsInterface(bytes4)": "01ffc9a7",
					"symbol()": "95d89b41",
					"tokenByIndex(uint256)": "4f6ccce7",
					"tokenOfOwnerByIndex(address,uint256)": "2f745c59",
					"tokenURI(uint256)": "c87b56dd",
					"totalSupply()": "18160ddd",
					"transferFrom(address,address,uint256)": "23b872dd"
				}
			},
			"storageLayout": {
				"storage": [
					{
						"astId": 1659,
						"contract": "contracts/standards/ERC721A.sol:ERC721A",
						"label": "currentIndex",
						"offset": 0,
						"slot": "0",
						"type": "t_uint256"
					},
					{
						"astId": 1665,
						"contract": "contracts/standards/ERC721A.sol:ERC721A",
						"label": "_name",
						"offset": 0,
						"slot": "1",
						"type": "t_string_storage"
					},
					{
						"astId": 1667,
						"contract": "contracts/standards/ERC721A.sol:ERC721A",
						"label": "_symbol",
						"offset": 0,
						"slot": "2",
						"type": "t_string_storage"
					},
					{
						"astId": 1672,
						"contract": "contracts/standards/ERC721A.sol:ERC721A",
						"label": "_ownerships",
						"offset": 0,
						"slot": "3",
						"type": "t_mapping(t_uint256,t_struct(TokenOwnership)1651_storage)"
					},
					{
						"astId": 1677,
						"contract": "contracts/standards/ERC721A.sol:ERC721A",
						"label": "_addressData",
						"offset": 0,
						"slot": "4",
						"type": "t_mapping(t_address,t_struct(AddressData)1656_storage)"
					},
					{
						"astId": 1681,
						"contract": "contracts/standards/ERC721A.sol:ERC721A",
						"label": "_tokenApprovals",
						"offset": 0,
						"slot": "5",
						"type": "t_mapping(t_uint256,t_address)"
					},
					{
						"astId": 1687,
						"contract": "contracts/standards/ERC721A.sol:ERC721A",
						"label": "_operatorApprovals",
						"offset": 0,
						"slot": "6",
						"type": "t_mapping(t_address,t_mapping(t_address,t_bool))"
					},
					{
						"astId": 2632,
						"contract": "contracts/standards/ERC721A.sol:ERC721A",
						"label": "nextOwnerToExplicitlySet",
						"offset": 0,
						"slot": "7",
						"type": "t_uint256"
					}
				],
				"types": {
					"t_address": {
						"encoding": "inplace",
						"label": "address",
						"numberOfBytes": "20"
					},
					"t_bool": {
						"encoding": "inplace",
						"label": "bool",
						"numberOfBytes": "1"
					},
					"t_mapping(t_address,t_bool)": {
						"encoding": "mapping",
						"key": "t_address",
						"label": "mapping(address => bool)",
						"numberOfBytes": "32",
						"value": "t_bool"
					},
					"t_mapping(t_address,t_mapping(t_address,t_bool))": {
						"encoding": "mapping",
						"key": "t_address",
						"label": "mapping(address => mapping(address => bool))",
						"numberOfBytes": "32",
						"value": "t_mapping(t_address,t_bool)"
					},
					"t_mapping(t_address,t_struct(AddressData)1656_storage)": {
						"encoding": "mapping",
						"key": "t_address",
						"label": "mapping(address => struct ERC721A.AddressData)",
						"numberOfBytes": "32",
						"value": "t_struct(AddressData)1656_storage"
					},
					"t_mapping(t_uint256,t_address)": {
						"encoding": "mapping",
						"key": "t_uint256",
						"label": "mapping(uint256 => address)",
						"numberOfBytes": "32",
						"value": "t_address"
					},
					"t_mapping(t_uint256,t_struct(TokenOwnership)1651_storage)": {
						"encoding": "mapping",
						"key": "t_uint256",
						"label": "mapping(uint256 => struct ERC721A.TokenOwnership)",
						"numberOfBytes": "32",
						"value": "t_struct(TokenOwnership)1651_storage"
					},
					"t_string_storage": {
						"encoding": "bytes",
						"label": "string",
						"numberOfBytes": "32"
					},
					"t_struct(AddressData)1656_storage": {
						"encoding": "inplace",
						"label": "struct ERC721A.AddressData",
						"members": [
							{
								"astId": 1653,
								"contract": "contracts/standards/ERC721A.sol:ERC721A",
								"label": "balance",
								"offset": 0,
								"slot": "0",
								"type": "t_uint128"
							},
							{
								"astId": 1655,
								"contract": "contracts/standards/ERC721A.sol:ERC721A",
								"label": "numberMinted",
								"offset": 16,
								"slot": "0",
								"type": "t_uint128"
							}
						],
						"numberOfBytes": "32"
					},
					"t_struct(TokenOwnership)1651_storage": {
						"encoding": "inplace",
						"label": "struct ERC721A.TokenOwnership",
						"members": [
							{
								"astId": 1648,
								"contract": "contracts/standards/ERC721A.sol:ERC721A",
								"label": "addr",
								"offset": 0,
								"slot": "0",
								"type": "t_address"
							},
							{
								"astId": 1650,
								"contract": "contracts/standards/ERC721A.sol:ERC721A",
								"label": "startTimestamp",
								"offset": 20,
								"slot": "0",
								"type": "t_uint64"
							}
						],
						"numberOfBytes": "32"
					},
					"t_uint128": {
						"encoding": "inplace",
						"label": "uint128",
						"numberOfBytes": "16"
					},
					"t_uint256": {
						"encoding": "inplace",
						"label": "uint256",
						"numberOfBytes": "32"
					},
					"t_uint64": {
						"encoding": "inplace",
						"label": "uint64",
						"numberOfBytes": "8"
					}
				}
			},
			"userdoc": {
				"kind": "user",
				"methods": {},
				"version": 1
			}
		}
	}
}